{"contracts/resolver/ArcNSResolver.sol":{"ArcNSResolver":{"abi":[{"inputs":[{"internalType":"contract IArcNSRegistry","name":"_registry","type":"address"}],"stateMutability":"nonpayable","type":"constructor"},{"inputs":[{"internalType":"address","name":"owner","type":"address"}],"name":"OwnableInvalidOwner","type":"error"},{"inputs":[{"internalType":"address","name":"account","type":"address"}],"name":"OwnableUnauthorizedAccount","type":"error"},{"anonymous":false,"inputs":[{"indexed":true,"internalType":"bytes32","name":"node","type":"bytes32"},{"indexed":false,"internalType":"address","name":"a","type":"address"}],"name":"AddrChanged","type":"event"},{"anonymous":false,"inputs":[{"indexed":true,"internalType":"bytes32","name":"node","type":"bytes32"},{"indexed":false,"internalType":"uint256","name":"coinType","type":"uint256"},{"indexed":false,"internalType":"bytes","name":"newAddress","type":"bytes"}],"name":"AddressChanged","type":"event"},{"anonymous":false,"inputs":[{"indexed":true,"internalType":"bytes32","name":"node","type":"bytes32"},{"indexed":false,"internalType":"bytes","name":"hash","type":"bytes"}],"name":"ContenthashChanged","type":"event"},{"anonymous":false,"inputs":[{"indexed":true,"internalType":"bytes32","name":"node","type":"bytes32"},{"indexed":false,"internalType":"string","name":"name","type":"string"}],"name":"NameChanged","type":"event"},{"anonymous":false,"inputs":[{"indexed":true,"internalType":"address","name":"previousOwner","type":"address"},{"indexed":true,"internalType":"address","name":"newOwner","type":"address"}],"name":"OwnershipTransferred","type":"event"},{"anonymous":false,"inputs":[{"indexed":true,"internalType":"bytes32","name":"node","type":"bytes32"},{"indexed":true,"internalType":"string","name":"indexedKey","type":"string"},{"indexed":false,"internalType":"string","name":"key","type":"string"},{"indexed":false,"internalType":"string","name":"value","type":"string"}],"name":"TextChanged","type":"event"},{"inputs":[{"internalType":"bytes32","name":"node","type":"bytes32"}],"name":"addr","outputs":[{"internalType":"address payable","name":"","type":"address"}],"stateMutability":"view","type":"function"},{"inputs":[{"internalType":"bytes32","name":"node","type":"bytes32"},{"internalType":"uint256","name":"coinType","type":"uint256"}],"name":"addr","outputs":[{"internalType":"bytes","name":"","type":"bytes"}],"stateMutability":"view","type":"function"},{"inputs":[{"internalType":"bytes32","name":"node","type":"bytes32"}],"name":"contenthash","outputs":[{"internalType":"bytes","name":"","type":"bytes"}],"stateMutability":"view","type":"function"},{"inputs":[{"internalType":"bytes32","name":"node","type":"bytes32"}],"name":"name","outputs":[{"internalType":"string","name":"","type":"string"}],"stateMutability":"view","type":"function"},{"inputs":[],"name":"owner","outputs":[{"internalType":"address","name":"","type":"address"}],"stateMutability":"view","type":"function"},{"inputs":[],"name":"registry","outputs":[{"internalType":"contract IArcNSRegistry","name":"","type":"address"}],"stateMutability":"view","type":"function"},{"inputs":[],"name":"renounceOwnership","outputs":[],"stateMutability":"nonpayable","type":"function"},{"inputs":[{"internalType":"bytes32","name":"node","type":"bytes32"},{"internalType":"uint256","name":"coinType","type":"uint256"},{"internalType":"bytes","name":"newAddress","type":"bytes"}],"name":"setAddr","outputs":[],"stateMutability":"nonpayable","type":"function"},{"inputs":[{"internalType":"bytes32","name":"node","type":"bytes32"},{"internalType":"address","name":"a","type":"address"}],"name":"setAddr","outputs":[],"stateMutability":"nonpayable","type":"function"},{"inputs":[{"internalType":"bytes32","name":"node","type":"bytes32"},{"internalType":"bytes","name":"hash","type":"bytes"}],"name":"setContenthash","outputs":[],"stateMutability":"nonpayable","type":"function"},{"inputs":[{"internalType":"bytes32","name":"node","type":"bytes32"},{"internalType":"string","name":"name_","type":"string"}],"name":"setName","outputs":[],"stateMutability":"nonpayable","type":"function"},{"inputs":[{"internalType":"address","name":"addr_","type":"address"},{"internalType":"address","name":"","type":"address"},{"internalType":"address","name":"","type":"address"},{"internalType":"string","name":"name_","type":"string"}],"name":"setNameForAddr","outputs":[],"stateMutability":"nonpayable","type":"function"},{"inputs":[{"internalType":"bytes32","name":"node","type":"bytes32"},{"internalType":"string","name":"key","type":"string"},{"internalType":"string","name":"value","type":"string"}],"name":"setText","outputs":[],"stateMutability":"nonpayable","type":"function"},{"inputs":[{"internalType":"address","name":"controller","type":"address"},{"internalType":"bool","name":"trusted","type":"bool"}],"name":"setTrustedController","outputs":[],"stateMutability":"nonpayable","type":"function"},{"inputs":[{"internalType":"bytes4","name":"interfaceID","type":"bytes4"}],"name":"supportsInterface","outputs":[{"internalType":"bool","name":"","type":"bool"}],"stateMutability":"pure","type":"function"},{"inputs":[{"internalType":"bytes32","name":"node","type":"bytes32"},{"internalType":"string","name":"key","type":"string"}],"name":"text","outputs":[{"internalType":"string","name":"","type":"string"}],"stateMutability":"view","type":"function"},{"inputs":[{"internalType":"address","name":"newOwner","type":"address"}],"name":"transferOwnership","outputs":[],"stateMutability":"nonpayable","type":"function"},{"inputs":[{"internalType":"address","name":"","type":"address"}],"name":"trustedControllers","outputs":[{"internalType":"bool","name":"","type":"bool"}],"stateMutability":"view","type":"function"}],"evm":{"bytecode":{"linkReferences":{},"object":"60a0346100f257601f611da238819003918201601f19168301916001600160401b038311848410176100f6578084926020946040528339810103126100f257516001600160a01b03811681036100f25733156100df575f8054336001600160a01b0319821681178355604051939290916001600160a01b0316907f8be0079c531659141344cd1fd0a4f28419497f9722a3daafe3b4186f6b6457e09080a3608052611c97908161010b823960805181818161029c0152818161049201528181610779015281816109e401528181610a7901528181610cfe01526118940152f35b631e4fbdf760e01b5f525f60045260245ffd5b5f80fd5b634e487b7160e01b5f52604160045260245ffdfe60806040526004361015610011575f80fd5b5f3560e01c806301ffc9a71461013457806310f13a8c1461012f578063304e6ade1461012a5780633b3b57de1461012557806359d1d43c14610120578063691f34311461011b578063715018a61461011657806377372213146101115780637a806d6b1461010c5780637b103999146101075780638b95dd71146101025780638da5cb5b146100fd578063bc1c58d1146100f8578063c9ec08d9146100f3578063cf050cee146100ee578063d5fa2b00146100e9578063f1cb7e06146100e45763f2fde38b146100df575f80fd5b610ea7565b610e65565b610cc0565b610c80565b610c28565b610bea565b610bc3565b610a13565b6109cf565b610961565b61074d565b6106f6565b6106c2565b610664565b6105fc565b610466565b610229565b346101f75760203660031901126101f75760043563ffffffff60e01b81168091036101f75761019e90631d9dabef60e11b81149081156101e6575b81156101d5575b81156101c4575b81156101b3575b81156101a2575b5060405190151581529081906020820190565b0390f35b6301ffc9a760e01b1490505f61018b565b63691f343160e01b81149150610184565b63bc1c58d160e01b8114915061017d565b631674750f60e21b81149150610176565b6378e5bf0360e11b8114915061016f565b5f80fd5b9181601f840112156101f75782359167ffffffffffffffff83116101f757602083818601950101116101f757565b346101f75760603660031901126101f75760043560243567ffffffffffffffff81116101f75761025d9036906004016101fb565b9060443567ffffffffffffffff81116101f75761027e9036906004016101fb565b6040516302571be360e01b8152600481018690526001600160a01b037f000000000000000000000000000000000000000000000000000000000000000016959194929391906020816024818a5afa9081156103df575f91610413575b506001600160a01b03163314801561032f575b61030796508015610309575b61030290610f65565b611093565b005b50335f90815260056020526040902061030290610328905b5460ff1690565b90506102f9565b506040516302571be360e01b8152600481018290526020816024818a5afa80156103df57610395976020925f926103e4575b5060405163e985e9c560e01b81526001600160a01b0390921660048301523360248301529097889190829081906044820190565b03915afa80156103df57610307965f916103b0575b506102ed565b6103d2915060203d6020116103d8575b6103ca81836108e8565b810190610f50565b5f6103aa565b503d6103c0565b610f45565b610405919250833d851161040c575b6103fd81836108e8565b810190610f30565b905f610361565b503d6103f3565b61042c915060203d60201161040c576103fd81836108e8565b5f6102da565b9060406003198301126101f757600435916024359067ffffffffffffffff82116101f757610462916004016101fb565b9091565b346101f75761047436610432565b6040516302571be360e01b8152600481018490526001600160a01b037f0000000000000000000000000000000000000000000000000000000000000000169391929190602081602481885afa9081156103df575f916105dd575b506001600160a01b03163314801561051e575b610307945080156104fb575b6104f690610f65565b6111fe565b50335f9081526005602052604090206104f69061051790610321565b90506104ed565b506040516302571be360e01b815260048101829052602081602481885afa80156103df57610584956020925f926105be575b5060405163e985e9c560e01b81526001600160a01b0390921660048301523360248301529095869190829081906044820190565b03915afa80156103df57610307945f9161059f575b506104e1565b6105b8915060203d6020116103d8576103ca81836108e8565b5f610599565b6105d6919250833d851161040c576103fd81836108e8565b905f610550565b6105f6915060203d60201161040c576103fd81836108e8565b5f6104ce565b346101f75760203660031901126101f757602061061a6004356113ac565b6040516001600160a01b039091168152f35b805180835260209291819084018484015e5f828201840152601f01601f1916010190565b90602061066192818152019061062c565b90565b346101f75761019e6106a76106ae602061067d36610432565b92915f526002825260405f208360405194859384378201908152030190206040519283809261132b565b03826108e8565b60405191829160208352602083019061062c565b346101f75760203660031901126101f7576004355f52600460205261019e6106a76106ae60405f206040519283809261132b565b346101f7575f3660031901126101f75761070e611a2f565b5f80546001600160a01b0319811682556001600160a01b03167f8be0079c531659141344cd1fd0a4f28419497f9722a3daafe3b4186f6b6457e08280a3005b346101f75761075b36610432565b6040516302571be360e01b8152600481018490526001600160a01b037f0000000000000000000000000000000000000000000000000000000000000000169391929190602081602481885afa9081156103df575f916108a4575b506001600160a01b031633148015610805575b610307945080156107e2575b6107dd90610f65565b6113f6565b50335f9081526005602052604090206107dd906107fe90610321565b90506107d4565b506040516302571be360e01b815260048101829052602081602481885afa80156103df5761086a956020925f926105be575060405163e985e9c560e01b81526001600160a01b0390921660048301523360248301529095869190829081906044820190565b03915afa80156103df57610307945f91610885575b506107c8565b61089e915060203d6020116103d8576103ca81836108e8565b5f61087f565b6108bd915060203d60201161040c576103fd81836108e8565b5f6107b5565b6001600160a01b038116036101f757565b634e487b7160e01b5f52604160045260245ffd5b90601f8019910116810190811067ffffffffffffffff82111761090a57604052565b6108d4565b67ffffffffffffffff811161090a57601f01601f191660200190565b9291926109378261090f565b9161094560405193846108e8565b8294818452818301116101f7578281602093845f960137010152565b346101f75760803660031901126101f75760043561097e816108c3565b6109896024356108c3565b6109946044356108c3565b6064359067ffffffffffffffff82116101f757366023830112156101f7576109c961030792369060248160040135910161092b565b906115ad565b346101f7575f3660031901126101f7576040517f00000000000000000000000000000000000000000000000000000000000000006001600160a01b03168152602090f35b346101f75760603660031901126101f75760043560243560443567ffffffffffffffff81116101f757366023820112156101f757610a5b90369060248160040135910161092b565b6040516302571be360e01b8152600481018490526001600160a01b037f0000000000000000000000000000000000000000000000000000000000000000169391929190602081602481885afa9081156103df575f91610ba4575b506001600160a01b031633148015610b05575b61030794508015610ae2575b610add90610f65565b6117a4565b50335f908152600560205260409020610add90610afe90610321565b9050610ad4565b506040516302571be360e01b815260048101829052602081602481885afa80156103df57610b6a956020925f926105be575060405163e985e9c560e01b81526001600160a01b0390921660048301523360248301529095869190829081906044820190565b03915afa80156103df57610307945f91610b85575b50610ac8565b610b9e915060203d6020116103d8576103ca81836108e8565b5f610b7f565b610bbd915060203d60201161040c576103fd81836108e8565b5f610ab5565b346101f7575f3660031901126101f7575f546040516001600160a01b039091168152602090f35b346101f75760203660031901126101f7576004355f52600360205261019e6106a76106ae60405f206040519283809261132b565b801515036101f757565b346101f75760403660031901126101f757600435610c45816108c3565b60243590610c5282610c1e565b610c5a611a2f565b60018060a01b03165f52600560205260405f209060ff8019835416911515161790555f80f35b346101f75760203660031901126101f757600435610c9d816108c3565b60018060a01b03165f526005602052602060ff60405f2054166040519015158152f35b346101f75760403660031901126101f757600435602435610ce0816108c3565b6040516302571be360e01b8152600481018390526001600160a01b037f0000000000000000000000000000000000000000000000000000000000000000169290602081602481875afa9081156103df575f91610e46575b506001600160a01b031633148015610d87575b61030793508015610d64575b610d5f90610f65565b611841565b50335f908152600560205260409020610d5f90610d8090610321565b9050610d56565b506040516302571be360e01b815260048101829052602081602481875afa80156103df57610ded946020925f92610e27575b5060405163e985e9c560e01b81526001600160a01b0390921660048301523360248301529094859190829081906044820190565b03915afa80156103df57610307935f91610e08575b50610d4a565b610e21915060203d6020116103d8576103ca81836108e8565b5f610e02565b610e3f919250833d851161040c576103fd81836108e8565b905f610db9565b610e5f915060203d60201161040c576103fd81836108e8565b5f610d37565b346101f75760403660031901126101f757600435602435905f52600160205260405f20905f5260205261019e6106a76106ae60405f206040519283809261132b565b346101f75760203660031901126101f757600435610ec4816108c3565b610ecc611a2f565b6001600160a01b03168015610f1d575f80546001600160a01b03198116831782556001600160a01b0316907f8be0079c531659141344cd1fd0a4f28419497f9722a3daafe3b4186f6b6457e09080a3005b631e4fbdf760e01b5f525f60045260245ffd5b908160209103126101f75751610661816108c3565b6040513d5f823e3d90fd5b908160209103126101f7575161066181610c1e565b15610f6c57565b60405162461bcd60e51b815260206004820152601860248201527f5265736f6c7665723a206e6f7420617574686f726973656400000000000000006044820152606490fd5b90600182811c92168015610fdf575b6020831014610fcb57565b634e487b7160e01b5f52602260045260245ffd5b91607f1691610fc0565b601f8211610ff657505050565b5f5260205f20906020601f840160051c8301931061102e575b601f0160051c01905b818110611023575050565b5f8155600101611018565b909150819061100f565b81604051928392833781015f815203902090565b908060209392818452848401375f828201840152601f01601f1916010190565b929061108590610661959360408652604086019161104c565b92602081850391015261104c565b9190949394825f52600260205260405f206020604051809285858337858201908152030190209567ffffffffffffffff811161090a576110dd816110d78954610fb1565b89610fe9565b5f96601f821160011461115d579061114d9161113382807f448bc014f1536726cf8d54ff3d6481ed3cbc683c2591ca204274009afa09b1a198999a9b5f91611152575b508160011b915f199060031b1c19161790565b90555b6111408484611038565b966040519485948561106c565b0390a3565b90508a01355f611120565b601f19821661116f825f5260205f2090565b905f5b8181106111d55750907f448bc014f1536726cf8d54ff3d6481ed3cbc683c2591ca204274009afa09b1a1969798998461114d959493106111bc575b5050600182811b019055611136565b8901355f19600385901b60f8161c191690555f806111ad565b888b0135835560209a8b019a60019093019201611172565b91602061066193818152019161104c565b909291815f52600360205260405f209367ffffffffffffffff821161090a576112318261122b8754610fb1565b87610fe9565b5f94601f83116001146112a25761128083807fe379c1624ed7e714cc0937528a32359d69d5281337765313dba4e081b72d75789697985f9161129757508160011b915f199060031b1c19161790565b90555b611292604051928392836111ed565b0390a2565b90508401355f611120565b601f198316956112b5825f5260205f2090565b905f5b8881106113135750847fe379c1624ed7e714cc0937528a32359d69d5281337765313dba4e081b72d7578969798106112fa575b5050600183811b019055611283565b8301355f19600386901b60f8161c191690555f806112eb565b909160206001819285880135815501930191016112b8565b5f929181549161133a83610fb1565b808352926001811690811561138f575060011461135657505050565b5f9081526020812093945091925b838310611375575060209250010190565b600181602092949394548385870101520191019190611364565b915050602093945060ff929192191683830152151560051b010190565b5f52600160205260405f20603c5f526020526106a76113d460405f206040519283809261132b565b8051156113f1576001600160a01b03906113ed906119db565b1690565b505f90565b909291815f52600460205260405f209367ffffffffffffffff821161090a576114238261122b8754610fb1565b5f94601f83116001146114725761128083807fb7d29e911041e8d9b843369e890bcb72c9388692ba48b65ac54e7214c4c348f79697985f9161129757508160011b915f199060031b1c19161790565b601f19831695611485825f5260205f2090565b905f5b8881106114c95750847fb7d29e911041e8d9b843369e890bcb72c9388692ba48b65ac54e7214c4c348f7969798106112fa575050600183811b019055611283565b90916020600181928588013581550193019101611488565b919091825167ffffffffffffffff811161090a57611509816115038454610fb1565b84610fe9565b6020601f82116001146115485781906115399394955f9261153d575b50508160011b915f199060031b1c19161790565b9055565b015190505f80611525565b601f1982169061155b845f5260205f2090565b915f5b8181106115955750958360019596971061157d575b505050811b019055565b01515f1960f88460031b161c191690555f8080611573565b9192602060018192868b01518155019401920161155e565b336001600160a01b038216148015611674575b1561162557815115611621576112926115f97fb7d29e911041e8d9b843369e890bcb72c9388692ba48b65ac54e7214c4c348f792611a67565b9261161581611610865f52600460205260405f2090565b6114e1565b60405191829182610650565b5050565b60405162461bcd60e51b815260206004820152602160248201527f5265736f6c7665723a206e6f7420617574686f726973656420666f72206164646044820152603960f91b6064820152608490fd5b50335f52600560205260ff60405f2054166115c0565b60409061066193928152816020820152019061062c565b90601481510361175357611610603c61174484611751957f65412581168e88a1e60c6459d7f44ae83ad0832e670826c05a4e2476b57af752604051806116e889888361168a565b0390a2807f52d7d861f09ab3d26239d492e8968629f95e9e318cf0b73bfddc441522a15fd2611733611719886119db565b6040516001600160a01b0390911681529081906020820190565b0390a25f52600160205260405f2090565b905f5260205260405f2090565b565b60405162461bcd60e51b8152602060048201526024808201527f5265736f6c7665723a20696e76616c69642045564d2061646472657373206c656044820152630dccee8d60e31b6064820152608490fd5b919091603c831480611831575b926117448261175195611610947f65412581168e88a1e60c6459d7f44ae83ad0832e670826c05a4e2476b57af752604051806117ee8a898361168a565b0390a2611803575f52600160205260405f2090565b807f52d7d861f09ab3d26239d492e8968629f95e9e318cf0b73bfddc441522a15fd2611733611719886119db565b92601483510361175357926117b1565b60405160609290921b6bffffffffffffffffffffffff191660208301529061187681603481015b03601f1981018352826108e8565b6040516302571be360e01b8152600481018390526001600160a01b037f0000000000000000000000000000000000000000000000000000000000000000169290602081602481875afa9081156103df575f916119bc575b506001600160a01b03163314801561191d575b611751935080156118fa575b6118f590610f65565b6116a1565b50335f9081526005602052604090206118f59061191690610321565b90506118ec565b506040516302571be360e01b815260048101829052602081602481875afa80156103df57611982946020925f92610e27575060405163e985e9c560e01b81526001600160a01b0390921660048301523360248301529094859190829081906044820190565b03915afa80156103df57611751935f9161199d575b506118e0565b6119b6915060203d6020116103d8576103ca81836108e8565b5f611997565b6119d5915060203d60201161040c576103fd81836108e8565b5f6118cd565b60148151036119eb576014015190565b606460405162461bcd60e51b815260206004820152602060248201527f5265736f6c7665723a20696e76616c69642061646472657373206c656e6774686044820152fd5b5f546001600160a01b03163303611a4257565b63118cdaa760e01b5f523360045260245ffd5b805191908290602001825e015f815290565b611868611a9c611a75611baf565b92604051928391602083016014916bffffffffffffffffffffffff199060601b1681520190565b611aa4611bdd565b915f5b60148110611b0f57505050604051611ac781611868602082018095611a55565b519020604051611b09816118686020820194856040917f91d1777781884d03a6757a803996e38de2a42967fb37eeaca72729271025a9e2825260208201520190565b51902090565b80611b5a611b2e611b54611b4e611b48611b3c611b2e6001988b611bff565b516001600160f81b03191690565b60041c600f60f81b1690565b60f81c90565b60ff1690565b85611bff565b611b70611b6683611c38565b915f1a9187611bff565b53611b94611b2e611b54611b4e600f60f81b611b8d84878b611bff565b1660f81c90565b611ba8611b66611ba384611c38565b611c53565b5301611aa7565b60405190611bbe6040836108e8565b601082526f181899199a1a9b1b9c1cb0b131b232b360811b6020830152565b60405160609190611bee83826108e8565b6028815291601f1901366020840137565b908151811015611c10570160200190565b634e487b7160e01b5f52603260045260245ffd5b634e487b7160e01b5f52601160045260245ffd5b908160011b9180830460021490151715611c4e57565b611c24565b9060018201809211611c4e5756fea264697066735822122056285a4d5422428fe835c7bf4ff1ca9dc93f27827fd6cd3bdb31240544c5047c64736f6c634300081a0033","opcodes":"PUSH1 0xA0 CALLVALUE PUSH2 0xF2 JUMPI PUSH1 0x1F PUSH2 0x1DA2 CODESIZE DUP2 SWAP1 SUB SWAP2 DUP3 ADD PUSH1 0x1F NOT AND DUP4 ADD SWAP2 PUSH1 0x1 PUSH1 0x1 PUSH1 0x40 SHL SUB DUP4 GT DUP5 DUP5 LT OR PUSH2 0xF6 JUMPI DUP1 DUP5 SWAP3 PUSH1 0x20 SWAP5 PUSH1 0x40 MSTORE DUP4 CODECOPY DUP2 ADD SUB SLT PUSH2 0xF2 JUMPI MLOAD PUSH1 0x1 PUSH1 0x1 PUSH1 0xA0 SHL SUB DUP2 AND DUP2 SUB PUSH2 0xF2 JUMPI CALLER ISZERO PUSH2 0xDF JUMPI PUSH0 DUP1 SLOAD CALLER PUSH1 0x1 PUSH1 0x1 PUSH1 0xA0 SHL SUB NOT DUP3 AND DUP2 OR DUP4 SSTORE PUSH1 0x40 MLOAD SWAP4 SWAP3 SWAP1 SWAP2 PUSH1 0x1 PUSH1 0x1 PUSH1 0xA0 SHL SUB AND SWAP1 PUSH32 0x8BE0079C531659141344CD1FD0A4F28419497F9722A3DAAFE3B4186F6B6457E0 SWAP1 DUP1 LOG3 PUSH1 0x80 MSTORE PUSH2 0x1C97 SWAP1 DUP2 PUSH2 0x10B DUP3 CODECOPY PUSH1 0x80 MLOAD DUP2 DUP2 DUP2 PUSH2 0x29C ADD MSTORE DUP2 DUP2 PUSH2 0x492 ADD MSTORE DUP2 DUP2 PUSH2 0x779 ADD MSTORE DUP2 DUP2 PUSH2 0x9E4 ADD MSTORE DUP2 DUP2 PUSH2 0xA79 ADD MSTORE DUP2 DUP2 PUSH2 0xCFE ADD MSTORE PUSH2 0x1894 ADD MSTORE RETURN JUMPDEST PUSH4 0x1E4FBDF7 PUSH1 0xE0 SHL PUSH0 MSTORE PUSH0 PUSH1 0x4 MSTORE PUSH1 0x24 PUSH0 REVERT JUMPDEST PUSH0 DUP1 REVERT JUMPDEST PUSH4 0x4E487B71 PUSH1 0xE0 SHL PUSH0 MSTORE PUSH1 0x41 PUSH1 0x4 MSTORE PUSH1 0x24 PUSH0 REVERT INVALID PUSH1 0x80 PUSH1 0x40 MSTORE PUSH1 0x4 CALLDATASIZE LT ISZERO PUSH2 0x11 JUMPI PUSH0 DUP1 REVERT JUMPDEST PUSH0 CALLDATALOAD PUSH1 0xE0 SHR DUP1 PUSH4 0x1FFC9A7 EQ PUSH2 0x134 JUMPI DUP1 PUSH4 0x10F13A8C EQ PUSH2 0x12F JUMPI DUP1 PUSH4 0x304E6ADE EQ PUSH2 0x12A JUMPI DUP1 PUSH4 0x3B3B57DE EQ PUSH2 0x125 JUMPI DUP1 PUSH4 0x59D1D43C EQ PUSH2 0x120 JUMPI DUP1 PUSH4 0x691F3431 EQ PUSH2 0x11B JUMPI DUP1 PUSH4 0x715018A6 EQ PUSH2 0x116 JUMPI DUP1 PUSH4 0x77372213 EQ PUSH2 0x111 JUMPI DUP1 PUSH4 0x7A806D6B EQ PUSH2 0x10C JUMPI DUP1 PUSH4 0x7B103999 EQ PUSH2 0x107 JUMPI DUP1 PUSH4 0x8B95DD71 EQ PUSH2 0x102 JUMPI DUP1 PUSH4 0x8DA5CB5B EQ PUSH2 0xFD JUMPI DUP1 PUSH4 0xBC1C58D1 EQ PUSH2 0xF8 JUMPI DUP1 PUSH4 0xC9EC08D9 EQ PUSH2 0xF3 JUMPI DUP1 PUSH4 0xCF050CEE EQ PUSH2 0xEE JUMPI DUP1 PUSH4 0xD5FA2B00 EQ PUSH2 0xE9 JUMPI DUP1 PUSH4 0xF1CB7E06 EQ PUSH2 0xE4 JUMPI PUSH4 0xF2FDE38B EQ PUSH2 0xDF JUMPI PUSH0 DUP1 REVERT JUMPDEST PUSH2 0xEA7 JUMP JUMPDEST PUSH2 0xE65 JUMP JUMPDEST PUSH2 0xCC0 JUMP JUMPDEST PUSH2 0xC80 JUMP JUMPDEST PUSH2 0xC28 JUMP JUMPDEST PUSH2 0xBEA JUMP JUMPDEST PUSH2 0xBC3 JUMP JUMPDEST PUSH2 0xA13 JUMP JUMPDEST PUSH2 0x9CF JUMP JUMPDEST PUSH2 0x961 JUMP JUMPDEST PUSH2 0x74D JUMP JUMPDEST PUSH2 0x6F6 JUMP JUMPDEST PUSH2 0x6C2 JUMP JUMPDEST PUSH2 0x664 JUMP JUMPDEST PUSH2 0x5FC JUMP JUMPDEST PUSH2 0x466 JUMP JUMPDEST PUSH2 0x229 JUMP JUMPDEST CALLVALUE PUSH2 0x1F7 JUMPI PUSH1 0x20 CALLDATASIZE PUSH1 0x3 NOT ADD SLT PUSH2 0x1F7 JUMPI PUSH1 0x4 CALLDATALOAD PUSH4 0xFFFFFFFF PUSH1 0xE0 SHL DUP2 AND DUP1 SWAP2 SUB PUSH2 0x1F7 JUMPI PUSH2 0x19E SWAP1 PUSH4 0x1D9DABEF PUSH1 0xE1 SHL DUP2 EQ SWAP1 DUP2 ISZERO PUSH2 0x1E6 JUMPI JUMPDEST DUP2 ISZERO PUSH2 0x1D5 JUMPI JUMPDEST DUP2 ISZERO PUSH2 0x1C4 JUMPI JUMPDEST DUP2 ISZERO PUSH2 0x1B3 JUMPI JUMPDEST DUP2 ISZERO PUSH2 0x1A2 JUMPI JUMPDEST POP PUSH1 0x40 MLOAD SWAP1 ISZERO ISZERO DUP2 MSTORE SWAP1 DUP2 SWAP1 PUSH1 0x20 DUP3 ADD SWAP1 JUMP JUMPDEST SUB SWAP1 RETURN JUMPDEST PUSH4 0x1FFC9A7 PUSH1 0xE0 SHL EQ SWAP1 POP PUSH0 PUSH2 0x18B JUMP JUMPDEST PUSH4 0x691F3431 PUSH1 0xE0 SHL DUP2 EQ SWAP2 POP PUSH2 0x184 JUMP JUMPDEST PUSH4 0xBC1C58D1 PUSH1 0xE0 SHL DUP2 EQ SWAP2 POP PUSH2 0x17D JUMP JUMPDEST PUSH4 0x1674750F PUSH1 0xE2 SHL DUP2 EQ SWAP2 POP PUSH2 0x176 JUMP JUMPDEST PUSH4 0x78E5BF03 PUSH1 0xE1 SHL DUP2 EQ SWAP2 POP PUSH2 0x16F JUMP JUMPDEST PUSH0 DUP1 REVERT JUMPDEST SWAP2 DUP2 PUSH1 0x1F DUP5 ADD SLT ISZERO PUSH2 0x1F7 JUMPI DUP3 CALLDATALOAD SWAP2 PUSH8 0xFFFFFFFFFFFFFFFF DUP4 GT PUSH2 0x1F7 JUMPI PUSH1 0x20 DUP4 DUP2 DUP7 ADD SWAP6 ADD ADD GT PUSH2 0x1F7 JUMPI JUMP JUMPDEST CALLVALUE PUSH2 0x1F7 JUMPI PUSH1 0x60 CALLDATASIZE PUSH1 0x3 NOT ADD SLT PUSH2 0x1F7 JUMPI PUSH1 0x4 CALLDATALOAD PUSH1 0x24 CALLDATALOAD PUSH8 0xFFFFFFFFFFFFFFFF DUP2 GT PUSH2 0x1F7 JUMPI PUSH2 0x25D SWAP1 CALLDATASIZE SWAP1 PUSH1 0x4 ADD PUSH2 0x1FB JUMP JUMPDEST SWAP1 PUSH1 0x44 CALLDATALOAD PUSH8 0xFFFFFFFFFFFFFFFF DUP2 GT PUSH2 0x1F7 JUMPI PUSH2 0x27E SWAP1 CALLDATASIZE SWAP1 PUSH1 0x4 ADD PUSH2 0x1FB JUMP JUMPDEST PUSH1 0x40 MLOAD PUSH4 0x2571BE3 PUSH1 0xE0 SHL DUP2 MSTORE PUSH1 0x4 DUP2 ADD DUP7 SWAP1 MSTORE PUSH1 0x1 PUSH1 0x1 PUSH1 0xA0 SHL SUB PUSH32 0x0 AND SWAP6 SWAP2 SWAP5 SWAP3 SWAP4 SWAP2 SWAP1 PUSH1 0x20 DUP2 PUSH1 0x24 DUP2 DUP11 GAS STATICCALL SWAP1 DUP2 ISZERO PUSH2 0x3DF JUMPI PUSH0 SWAP2 PUSH2 0x413 JUMPI JUMPDEST POP PUSH1 0x1 PUSH1 0x1 PUSH1 0xA0 SHL SUB AND CALLER EQ DUP1 ISZERO PUSH2 0x32F JUMPI JUMPDEST PUSH2 0x307 SWAP7 POP DUP1 ISZERO PUSH2 0x309 JUMPI JUMPDEST PUSH2 0x302 SWAP1 PUSH2 0xF65 JUMP JUMPDEST PUSH2 0x1093 JUMP JUMPDEST STOP JUMPDEST POP CALLER PUSH0 SWAP1 DUP2 MSTORE PUSH1 0x5 PUSH1 0x20 MSTORE PUSH1 0x40 SWAP1 KECCAK256 PUSH2 0x302 SWAP1 PUSH2 0x328 SWAP1 JUMPDEST SLOAD PUSH1 0xFF AND SWAP1 JUMP JUMPDEST SWAP1 POP PUSH2 0x2F9 JUMP JUMPDEST POP PUSH1 0x40 MLOAD PUSH4 0x2571BE3 PUSH1 0xE0 SHL DUP2 MSTORE PUSH1 0x4 DUP2 ADD DUP3 SWAP1 MSTORE PUSH1 0x20 DUP2 PUSH1 0x24 DUP2 DUP11 GAS STATICCALL DUP1 ISZERO PUSH2 0x3DF JUMPI PUSH2 0x395 SWAP8 PUSH1 0x20 SWAP3 PUSH0 SWAP3 PUSH2 0x3E4 JUMPI JUMPDEST POP PUSH1 0x40 MLOAD PUSH4 0xE985E9C5 PUSH1 0xE0 SHL DUP2 MSTORE PUSH1 0x1 PUSH1 0x1 PUSH1 0xA0 SHL SUB SWAP1 SWAP3 AND PUSH1 0x4 DUP4 ADD MSTORE CALLER PUSH1 0x24 DUP4 ADD MSTORE SWAP1 SWAP8 DUP9 SWAP2 SWAP1 DUP3 SWAP1 DUP2 SWAP1 PUSH1 0x44 DUP3 ADD SWAP1 JUMP JUMPDEST SUB SWAP2 GAS STATICCALL DUP1 ISZERO PUSH2 0x3DF JUMPI PUSH2 0x307 SWAP7 PUSH0 SWAP2 PUSH2 0x3B0 JUMPI JUMPDEST POP PUSH2 0x2ED JUMP JUMPDEST PUSH2 0x3D2 SWAP2 POP PUSH1 0x20 RETURNDATASIZE PUSH1 0x20 GT PUSH2 0x3D8 JUMPI JUMPDEST PUSH2 0x3CA DUP2 DUP4 PUSH2 0x8E8 JUMP JUMPDEST DUP2 ADD SWAP1 PUSH2 0xF50 JUMP JUMPDEST PUSH0 PUSH2 0x3AA JUMP JUMPDEST POP RETURNDATASIZE PUSH2 0x3C0 JUMP JUMPDEST PUSH2 0xF45 JUMP JUMPDEST PUSH2 0x405 SWAP2 SWAP3 POP DUP4 RETURNDATASIZE DUP6 GT PUSH2 0x40C JUMPI JUMPDEST PUSH2 0x3FD DUP2 DUP4 PUSH2 0x8E8 JUMP JUMPDEST DUP2 ADD SWAP1 PUSH2 0xF30 JUMP JUMPDEST SWAP1 PUSH0 PUSH2 0x361 JUMP JUMPDEST POP RETURNDATASIZE PUSH2 0x3F3 JUMP JUMPDEST PUSH2 0x42C SWAP2 POP PUSH1 0x20 RETURNDATASIZE PUSH1 0x20 GT PUSH2 0x40C JUMPI PUSH2 0x3FD DUP2 DUP4 PUSH2 0x8E8 JUMP JUMPDEST PUSH0 PUSH2 0x2DA JUMP JUMPDEST SWAP1 PUSH1 0x40 PUSH1 0x3 NOT DUP4 ADD SLT PUSH2 0x1F7 JUMPI PUSH1 0x4 CALLDATALOAD SWAP2 PUSH1 0x24 CALLDATALOAD SWAP1 PUSH8 0xFFFFFFFFFFFFFFFF DUP3 GT PUSH2 0x1F7 JUMPI PUSH2 0x462 SWAP2 PUSH1 0x4 ADD PUSH2 0x1FB JUMP JUMPDEST SWAP1 SWAP2 JUMP JUMPDEST CALLVALUE PUSH2 0x1F7 JUMPI PUSH2 0x474 CALLDATASIZE PUSH2 0x432 JUMP JUMPDEST PUSH1 0x40 MLOAD PUSH4 0x2571BE3 PUSH1 0xE0 SHL DUP2 MSTORE PUSH1 0x4 DUP2 ADD DUP5 SWAP1 MSTORE PUSH1 0x1 PUSH1 0x1 PUSH1 0xA0 SHL SUB PUSH32 0x0 AND SWAP4 SWAP2 SWAP3 SWAP2 SWAP1 PUSH1 0x20 DUP2 PUSH1 0x24 DUP2 DUP9 GAS STATICCALL SWAP1 DUP2 ISZERO PUSH2 0x3DF JUMPI PUSH0 SWAP2 PUSH2 0x5DD JUMPI JUMPDEST POP PUSH1 0x1 PUSH1 0x1 PUSH1 0xA0 SHL SUB AND CALLER EQ DUP1 ISZERO PUSH2 0x51E JUMPI JUMPDEST PUSH2 0x307 SWAP5 POP DUP1 ISZERO PUSH2 0x4FB JUMPI JUMPDEST PUSH2 0x4F6 SWAP1 PUSH2 0xF65 JUMP JUMPDEST PUSH2 0x11FE JUMP JUMPDEST POP CALLER PUSH0 SWAP1 DUP2 MSTORE PUSH1 0x5 PUSH1 0x20 MSTORE PUSH1 0x40 SWAP1 KECCAK256 PUSH2 0x4F6 SWAP1 PUSH2 0x517 SWAP1 PUSH2 0x321 JUMP JUMPDEST SWAP1 POP PUSH2 0x4ED JUMP JUMPDEST POP PUSH1 0x40 MLOAD PUSH4 0x2571BE3 PUSH1 0xE0 SHL DUP2 MSTORE PUSH1 0x4 DUP2 ADD DUP3 SWAP1 MSTORE PUSH1 0x20 DUP2 PUSH1 0x24 DUP2 DUP9 GAS STATICCALL DUP1 ISZERO PUSH2 0x3DF JUMPI PUSH2 0x584 SWAP6 PUSH1 0x20 SWAP3 PUSH0 SWAP3 PUSH2 0x5BE JUMPI JUMPDEST POP PUSH1 0x40 MLOAD PUSH4 0xE985E9C5 PUSH1 0xE0 SHL DUP2 MSTORE PUSH1 0x1 PUSH1 0x1 PUSH1 0xA0 SHL SUB SWAP1 SWAP3 AND PUSH1 0x4 DUP4 ADD MSTORE CALLER PUSH1 0x24 DUP4 ADD MSTORE SWAP1 SWAP6 DUP7 SWAP2 SWAP1 DUP3 SWAP1 DUP2 SWAP1 PUSH1 0x44 DUP3 ADD SWAP1 JUMP JUMPDEST SUB SWAP2 GAS STATICCALL DUP1 ISZERO PUSH2 0x3DF JUMPI PUSH2 0x307 SWAP5 PUSH0 SWAP2 PUSH2 0x59F JUMPI JUMPDEST POP PUSH2 0x4E1 JUMP JUMPDEST PUSH2 0x5B8 SWAP2 POP PUSH1 0x20 RETURNDATASIZE PUSH1 0x20 GT PUSH2 0x3D8 JUMPI PUSH2 0x3CA DUP2 DUP4 PUSH2 0x8E8 JUMP JUMPDEST PUSH0 PUSH2 0x599 JUMP JUMPDEST PUSH2 0x5D6 SWAP2 SWAP3 POP DUP4 RETURNDATASIZE DUP6 GT PUSH2 0x40C JUMPI PUSH2 0x3FD DUP2 DUP4 PUSH2 0x8E8 JUMP JUMPDEST SWAP1 PUSH0 PUSH2 0x550 JUMP JUMPDEST PUSH2 0x5F6 SWAP2 POP PUSH1 0x20 RETURNDATASIZE PUSH1 0x20 GT PUSH2 0x40C JUMPI PUSH2 0x3FD DUP2 DUP4 PUSH2 0x8E8 JUMP JUMPDEST PUSH0 PUSH2 0x4CE JUMP JUMPDEST CALLVALUE PUSH2 0x1F7 JUMPI PUSH1 0x20 CALLDATASIZE PUSH1 0x3 NOT ADD SLT PUSH2 0x1F7 JUMPI PUSH1 0x20 PUSH2 0x61A PUSH1 0x4 CALLDATALOAD PUSH2 0x13AC JUMP JUMPDEST PUSH1 0x40 MLOAD PUSH1 0x1 PUSH1 0x1 PUSH1 0xA0 SHL SUB SWAP1 SWAP2 AND DUP2 MSTORE RETURN JUMPDEST DUP1 MLOAD DUP1 DUP4 MSTORE PUSH1 0x20 SWAP3 SWAP2 DUP2 SWAP1 DUP5 ADD DUP5 DUP5 ADD MCOPY PUSH0 DUP3 DUP3 ADD DUP5 ADD MSTORE PUSH1 0x1F ADD PUSH1 0x1F NOT AND ADD ADD SWAP1 JUMP JUMPDEST SWAP1 PUSH1 0x20 PUSH2 0x661 SWAP3 DUP2 DUP2 MSTORE ADD SWAP1 PUSH2 0x62C JUMP JUMPDEST SWAP1 JUMP JUMPDEST CALLVALUE PUSH2 0x1F7 JUMPI PUSH2 0x19E PUSH2 0x6A7 PUSH2 0x6AE PUSH1 0x20 PUSH2 0x67D CALLDATASIZE PUSH2 0x432 JUMP JUMPDEST SWAP3 SWAP2 PUSH0 MSTORE PUSH1 0x2 DUP3 MSTORE PUSH1 0x40 PUSH0 KECCAK256 DUP4 PUSH1 0x40 MLOAD SWAP5 DUP6 SWAP4 DUP5 CALLDATACOPY DUP3 ADD SWAP1 DUP2 MSTORE SUB ADD SWAP1 KECCAK256 PUSH1 0x40 MLOAD SWAP3 DUP4 DUP1 SWAP3 PUSH2 0x132B JUMP JUMPDEST SUB DUP3 PUSH2 0x8E8 JUMP JUMPDEST PUSH1 0x40 MLOAD SWAP2 DUP3 SWAP2 PUSH1 0x20 DUP4 MSTORE PUSH1 0x20 DUP4 ADD SWAP1 PUSH2 0x62C JUMP JUMPDEST CALLVALUE PUSH2 0x1F7 JUMPI PUSH1 0x20 CALLDATASIZE PUSH1 0x3 NOT ADD SLT PUSH2 0x1F7 JUMPI PUSH1 0x4 CALLDATALOAD PUSH0 MSTORE PUSH1 0x4 PUSH1 0x20 MSTORE PUSH2 0x19E PUSH2 0x6A7 PUSH2 0x6AE PUSH1 0x40 PUSH0 KECCAK256 PUSH1 0x40 MLOAD SWAP3 DUP4 DUP1 SWAP3 PUSH2 0x132B JUMP JUMPDEST CALLVALUE PUSH2 0x1F7 JUMPI PUSH0 CALLDATASIZE PUSH1 0x3 NOT ADD SLT PUSH2 0x1F7 JUMPI PUSH2 0x70E PUSH2 0x1A2F JUMP JUMPDEST PUSH0 DUP1 SLOAD PUSH1 0x1 PUSH1 0x1 PUSH1 0xA0 SHL SUB NOT DUP2 AND DUP3 SSTORE PUSH1 0x1 PUSH1 0x1 PUSH1 0xA0 SHL SUB AND PUSH32 0x8BE0079C531659141344CD1FD0A4F28419497F9722A3DAAFE3B4186F6B6457E0 DUP3 DUP1 LOG3 STOP JUMPDEST CALLVALUE PUSH2 0x1F7 JUMPI PUSH2 0x75B CALLDATASIZE PUSH2 0x432 JUMP JUMPDEST PUSH1 0x40 MLOAD PUSH4 0x2571BE3 PUSH1 0xE0 SHL DUP2 MSTORE PUSH1 0x4 DUP2 ADD DUP5 SWAP1 MSTORE PUSH1 0x1 PUSH1 0x1 PUSH1 0xA0 SHL SUB PUSH32 0x0 AND SWAP4 SWAP2 SWAP3 SWAP2 SWAP1 PUSH1 0x20 DUP2 PUSH1 0x24 DUP2 DUP9 GAS STATICCALL SWAP1 DUP2 ISZERO PUSH2 0x3DF JUMPI PUSH0 SWAP2 PUSH2 0x8A4 JUMPI JUMPDEST POP PUSH1 0x1 PUSH1 0x1 PUSH1 0xA0 SHL SUB AND CALLER EQ DUP1 ISZERO PUSH2 0x805 JUMPI JUMPDEST PUSH2 0x307 SWAP5 POP DUP1 ISZERO PUSH2 0x7E2 JUMPI JUMPDEST PUSH2 0x7DD SWAP1 PUSH2 0xF65 JUMP JUMPDEST PUSH2 0x13F6 JUMP JUMPDEST POP CALLER PUSH0 SWAP1 DUP2 MSTORE PUSH1 0x5 PUSH1 0x20 MSTORE PUSH1 0x40 SWAP1 KECCAK256 PUSH2 0x7DD SWAP1 PUSH2 0x7FE SWAP1 PUSH2 0x321 JUMP JUMPDEST SWAP1 POP PUSH2 0x7D4 JUMP JUMPDEST POP PUSH1 0x40 MLOAD PUSH4 0x2571BE3 PUSH1 0xE0 SHL DUP2 MSTORE PUSH1 0x4 DUP2 ADD DUP3 SWAP1 MSTORE PUSH1 0x20 DUP2 PUSH1 0x24 DUP2 DUP9 GAS STATICCALL DUP1 ISZERO PUSH2 0x3DF JUMPI PUSH2 0x86A SWAP6 PUSH1 0x20 SWAP3 PUSH0 SWAP3 PUSH2 0x5BE JUMPI POP PUSH1 0x40 MLOAD PUSH4 0xE985E9C5 PUSH1 0xE0 SHL DUP2 MSTORE PUSH1 0x1 PUSH1 0x1 PUSH1 0xA0 SHL SUB SWAP1 SWAP3 AND PUSH1 0x4 DUP4 ADD MSTORE CALLER PUSH1 0x24 DUP4 ADD MSTORE SWAP1 SWAP6 DUP7 SWAP2 SWAP1 DUP3 SWAP1 DUP2 SWAP1 PUSH1 0x44 DUP3 ADD SWAP1 JUMP JUMPDEST SUB SWAP2 GAS STATICCALL DUP1 ISZERO PUSH2 0x3DF JUMPI PUSH2 0x307 SWAP5 PUSH0 SWAP2 PUSH2 0x885 JUMPI JUMPDEST POP PUSH2 0x7C8 JUMP JUMPDEST PUSH2 0x89E SWAP2 POP PUSH1 0x20 RETURNDATASIZE PUSH1 0x20 GT PUSH2 0x3D8 JUMPI PUSH2 0x3CA DUP2 DUP4 PUSH2 0x8E8 JUMP JUMPDEST PUSH0 PUSH2 0x87F JUMP JUMPDEST PUSH2 0x8BD SWAP2 POP PUSH1 0x20 RETURNDATASIZE PUSH1 0x20 GT PUSH2 0x40C JUMPI PUSH2 0x3FD DUP2 DUP4 PUSH2 0x8E8 JUMP JUMPDEST PUSH0 PUSH2 0x7B5 JUMP JUMPDEST PUSH1 0x1 PUSH1 0x1 PUSH1 0xA0 SHL SUB DUP2 AND SUB PUSH2 0x1F7 JUMPI JUMP JUMPDEST PUSH4 0x4E487B71 PUSH1 0xE0 SHL PUSH0 MSTORE PUSH1 0x41 PUSH1 0x4 MSTORE PUSH1 0x24 PUSH0 REVERT JUMPDEST SWAP1 PUSH1 0x1F DUP1 NOT SWAP2 ADD AND DUP2 ADD SWAP1 DUP2 LT PUSH8 0xFFFFFFFFFFFFFFFF DUP3 GT OR PUSH2 0x90A JUMPI PUSH1 0x40 MSTORE JUMP JUMPDEST PUSH2 0x8D4 JUMP JUMPDEST PUSH8 0xFFFFFFFFFFFFFFFF DUP2 GT PUSH2 0x90A JUMPI PUSH1 0x1F ADD PUSH1 0x1F NOT AND PUSH1 0x20 ADD SWAP1 JUMP JUMPDEST SWAP3 SWAP2 SWAP3 PUSH2 0x937 DUP3 PUSH2 0x90F JUMP JUMPDEST SWAP2 PUSH2 0x945 PUSH1 0x40 MLOAD SWAP4 DUP5 PUSH2 0x8E8 JUMP JUMPDEST DUP3 SWAP5 DUP2 DUP5 MSTORE DUP2 DUP4 ADD GT PUSH2 0x1F7 JUMPI DUP3 DUP2 PUSH1 0x20 SWAP4 DUP5 PUSH0 SWAP7 ADD CALLDATACOPY ADD ADD MSTORE JUMP JUMPDEST CALLVALUE PUSH2 0x1F7 JUMPI PUSH1 0x80 CALLDATASIZE PUSH1 0x3 NOT ADD SLT PUSH2 0x1F7 JUMPI PUSH1 0x4 CALLDATALOAD PUSH2 0x97E DUP2 PUSH2 0x8C3 JUMP JUMPDEST PUSH2 0x989 PUSH1 0x24 CALLDATALOAD PUSH2 0x8C3 JUMP JUMPDEST PUSH2 0x994 PUSH1 0x44 CALLDATALOAD PUSH2 0x8C3 JUMP JUMPDEST PUSH1 0x64 CALLDATALOAD SWAP1 PUSH8 0xFFFFFFFFFFFFFFFF DUP3 GT PUSH2 0x1F7 JUMPI CALLDATASIZE PUSH1 0x23 DUP4 ADD SLT ISZERO PUSH2 0x1F7 JUMPI PUSH2 0x9C9 PUSH2 0x307 SWAP3 CALLDATASIZE SWAP1 PUSH1 0x24 DUP2 PUSH1 0x4 ADD CALLDATALOAD SWAP2 ADD PUSH2 0x92B JUMP JUMPDEST SWAP1 PUSH2 0x15AD JUMP JUMPDEST CALLVALUE PUSH2 0x1F7 JUMPI PUSH0 CALLDATASIZE PUSH1 0x3 NOT ADD SLT PUSH2 0x1F7 JUMPI PUSH1 0x40 MLOAD PUSH32 0x0 PUSH1 0x1 PUSH1 0x1 PUSH1 0xA0 SHL SUB AND DUP2 MSTORE PUSH1 0x20 SWAP1 RETURN JUMPDEST CALLVALUE PUSH2 0x1F7 JUMPI PUSH1 0x60 CALLDATASIZE PUSH1 0x3 NOT ADD SLT PUSH2 0x1F7 JUMPI PUSH1 0x4 CALLDATALOAD PUSH1 0x24 CALLDATALOAD PUSH1 0x44 CALLDATALOAD PUSH8 0xFFFFFFFFFFFFFFFF DUP2 GT PUSH2 0x1F7 JUMPI CALLDATASIZE PUSH1 0x23 DUP3 ADD SLT ISZERO PUSH2 0x1F7 JUMPI PUSH2 0xA5B SWAP1 CALLDATASIZE SWAP1 PUSH1 0x24 DUP2 PUSH1 0x4 ADD CALLDATALOAD SWAP2 ADD PUSH2 0x92B JUMP JUMPDEST PUSH1 0x40 MLOAD PUSH4 0x2571BE3 PUSH1 0xE0 SHL DUP2 MSTORE PUSH1 0x4 DUP2 ADD DUP5 SWAP1 MSTORE PUSH1 0x1 PUSH1 0x1 PUSH1 0xA0 SHL SUB PUSH32 0x0 AND SWAP4 SWAP2 SWAP3 SWAP2 SWAP1 PUSH1 0x20 DUP2 PUSH1 0x24 DUP2 DUP9 GAS STATICCALL SWAP1 DUP2 ISZERO PUSH2 0x3DF JUMPI PUSH0 SWAP2 PUSH2 0xBA4 JUMPI JUMPDEST POP PUSH1 0x1 PUSH1 0x1 PUSH1 0xA0 SHL SUB AND CALLER EQ DUP1 ISZERO PUSH2 0xB05 JUMPI JUMPDEST PUSH2 0x307 SWAP5 POP DUP1 ISZERO PUSH2 0xAE2 JUMPI JUMPDEST PUSH2 0xADD SWAP1 PUSH2 0xF65 JUMP JUMPDEST PUSH2 0x17A4 JUMP JUMPDEST POP CALLER PUSH0 SWAP1 DUP2 MSTORE PUSH1 0x5 PUSH1 0x20 MSTORE PUSH1 0x40 SWAP1 KECCAK256 PUSH2 0xADD SWAP1 PUSH2 0xAFE SWAP1 PUSH2 0x321 JUMP JUMPDEST SWAP1 POP PUSH2 0xAD4 JUMP JUMPDEST POP PUSH1 0x40 MLOAD PUSH4 0x2571BE3 PUSH1 0xE0 SHL DUP2 MSTORE PUSH1 0x4 DUP2 ADD DUP3 SWAP1 MSTORE PUSH1 0x20 DUP2 PUSH1 0x24 DUP2 DUP9 GAS STATICCALL DUP1 ISZERO PUSH2 0x3DF JUMPI PUSH2 0xB6A SWAP6 PUSH1 0x20 SWAP3 PUSH0 SWAP3 PUSH2 0x5BE JUMPI POP PUSH1 0x40 MLOAD PUSH4 0xE985E9C5 PUSH1 0xE0 SHL DUP2 MSTORE PUSH1 0x1 PUSH1 0x1 PUSH1 0xA0 SHL SUB SWAP1 SWAP3 AND PUSH1 0x4 DUP4 ADD MSTORE CALLER PUSH1 0x24 DUP4 ADD MSTORE SWAP1 SWAP6 DUP7 SWAP2 SWAP1 DUP3 SWAP1 DUP2 SWAP1 PUSH1 0x44 DUP3 ADD SWAP1 JUMP JUMPDEST SUB SWAP2 GAS STATICCALL DUP1 ISZERO PUSH2 0x3DF JUMPI PUSH2 0x307 SWAP5 PUSH0 SWAP2 PUSH2 0xB85 JUMPI JUMPDEST POP PUSH2 0xAC8 JUMP JUMPDEST PUSH2 0xB9E SWAP2 POP PUSH1 0x20 RETURNDATASIZE PUSH1 0x20 GT PUSH2 0x3D8 JUMPI PUSH2 0x3CA DUP2 DUP4 PUSH2 0x8E8 JUMP JUMPDEST PUSH0 PUSH2 0xB7F JUMP JUMPDEST PUSH2 0xBBD SWAP2 POP PUSH1 0x20 RETURNDATASIZE PUSH1 0x20 GT PUSH2 0x40C JUMPI PUSH2 0x3FD DUP2 DUP4 PUSH2 0x8E8 JUMP JUMPDEST PUSH0 PUSH2 0xAB5 JUMP JUMPDEST CALLVALUE PUSH2 0x1F7 JUMPI PUSH0 CALLDATASIZE PUSH1 0x3 NOT ADD SLT PUSH2 0x1F7 JUMPI PUSH0 SLOAD PUSH1 0x40 MLOAD PUSH1 0x1 PUSH1 0x1 PUSH1 0xA0 SHL SUB SWAP1 SWAP2 AND DUP2 MSTORE PUSH1 0x20 SWAP1 RETURN JUMPDEST CALLVALUE PUSH2 0x1F7 JUMPI PUSH1 0x20 CALLDATASIZE PUSH1 0x3 NOT ADD SLT PUSH2 0x1F7 JUMPI PUSH1 0x4 CALLDATALOAD PUSH0 MSTORE PUSH1 0x3 PUSH1 0x20 MSTORE PUSH2 0x19E PUSH2 0x6A7 PUSH2 0x6AE PUSH1 0x40 PUSH0 KECCAK256 PUSH1 0x40 MLOAD SWAP3 DUP4 DUP1 SWAP3 PUSH2 0x132B JUMP JUMPDEST DUP1 ISZERO ISZERO SUB PUSH2 0x1F7 JUMPI JUMP JUMPDEST CALLVALUE PUSH2 0x1F7 JUMPI PUSH1 0x40 CALLDATASIZE PUSH1 0x3 NOT ADD SLT PUSH2 0x1F7 JUMPI PUSH1 0x4 CALLDATALOAD PUSH2 0xC45 DUP2 PUSH2 0x8C3 JUMP JUMPDEST PUSH1 0x24 CALLDATALOAD SWAP1 PUSH2 0xC52 DUP3 PUSH2 0xC1E JUMP JUMPDEST PUSH2 0xC5A PUSH2 0x1A2F JUMP JUMPDEST PUSH1 0x1 DUP1 PUSH1 0xA0 SHL SUB AND PUSH0 MSTORE PUSH1 0x5 PUSH1 0x20 MSTORE PUSH1 0x40 PUSH0 KECCAK256 SWAP1 PUSH1 0xFF DUP1 NOT DUP4 SLOAD AND SWAP2 ISZERO ISZERO AND OR SWAP1 SSTORE PUSH0 DUP1 RETURN JUMPDEST CALLVALUE PUSH2 0x1F7 JUMPI PUSH1 0x20 CALLDATASIZE PUSH1 0x3 NOT ADD SLT PUSH2 0x1F7 JUMPI PUSH1 0x4 CALLDATALOAD PUSH2 0xC9D DUP2 PUSH2 0x8C3 JUMP JUMPDEST PUSH1 0x1 DUP1 PUSH1 0xA0 SHL SUB AND PUSH0 MSTORE PUSH1 0x5 PUSH1 0x20 MSTORE PUSH1 0x20 PUSH1 0xFF PUSH1 0x40 PUSH0 KECCAK256 SLOAD AND PUSH1 0x40 MLOAD SWAP1 ISZERO ISZERO DUP2 MSTORE RETURN JUMPDEST CALLVALUE PUSH2 0x1F7 JUMPI PUSH1 0x40 CALLDATASIZE PUSH1 0x3 NOT ADD SLT PUSH2 0x1F7 JUMPI PUSH1 0x4 CALLDATALOAD PUSH1 0x24 CALLDATALOAD PUSH2 0xCE0 DUP2 PUSH2 0x8C3 JUMP JUMPDEST PUSH1 0x40 MLOAD PUSH4 0x2571BE3 PUSH1 0xE0 SHL DUP2 MSTORE PUSH1 0x4 DUP2 ADD DUP4 SWAP1 MSTORE PUSH1 0x1 PUSH1 0x1 PUSH1 0xA0 SHL SUB PUSH32 0x0 AND SWAP3 SWAP1 PUSH1 0x20 DUP2 PUSH1 0x24 DUP2 DUP8 GAS STATICCALL SWAP1 DUP2 ISZERO PUSH2 0x3DF JUMPI PUSH0 SWAP2 PUSH2 0xE46 JUMPI JUMPDEST POP PUSH1 0x1 PUSH1 0x1 PUSH1 0xA0 SHL SUB AND CALLER EQ DUP1 ISZERO PUSH2 0xD87 JUMPI JUMPDEST PUSH2 0x307 SWAP4 POP DUP1 ISZERO PUSH2 0xD64 JUMPI JUMPDEST PUSH2 0xD5F SWAP1 PUSH2 0xF65 JUMP JUMPDEST PUSH2 0x1841 JUMP JUMPDEST POP CALLER PUSH0 SWAP1 DUP2 MSTORE PUSH1 0x5 PUSH1 0x20 MSTORE PUSH1 0x40 SWAP1 KECCAK256 PUSH2 0xD5F SWAP1 PUSH2 0xD80 SWAP1 PUSH2 0x321 JUMP JUMPDEST SWAP1 POP PUSH2 0xD56 JUMP JUMPDEST POP PUSH1 0x40 MLOAD PUSH4 0x2571BE3 PUSH1 0xE0 SHL DUP2 MSTORE PUSH1 0x4 DUP2 ADD DUP3 SWAP1 MSTORE PUSH1 0x20 DUP2 PUSH1 0x24 DUP2 DUP8 GAS STATICCALL DUP1 ISZERO PUSH2 0x3DF JUMPI PUSH2 0xDED SWAP5 PUSH1 0x20 SWAP3 PUSH0 SWAP3 PUSH2 0xE27 JUMPI JUMPDEST POP PUSH1 0x40 MLOAD PUSH4 0xE985E9C5 PUSH1 0xE0 SHL DUP2 MSTORE PUSH1 0x1 PUSH1 0x1 PUSH1 0xA0 SHL SUB SWAP1 SWAP3 AND PUSH1 0x4 DUP4 ADD MSTORE CALLER PUSH1 0x24 DUP4 ADD MSTORE SWAP1 SWAP5 DUP6 SWAP2 SWAP1 DUP3 SWAP1 DUP2 SWAP1 PUSH1 0x44 DUP3 ADD SWAP1 JUMP JUMPDEST SUB SWAP2 GAS STATICCALL DUP1 ISZERO PUSH2 0x3DF JUMPI PUSH2 0x307 SWAP4 PUSH0 SWAP2 PUSH2 0xE08 JUMPI JUMPDEST POP PUSH2 0xD4A JUMP JUMPDEST PUSH2 0xE21 SWAP2 POP PUSH1 0x20 RETURNDATASIZE PUSH1 0x20 GT PUSH2 0x3D8 JUMPI PUSH2 0x3CA DUP2 DUP4 PUSH2 0x8E8 JUMP JUMPDEST PUSH0 PUSH2 0xE02 JUMP JUMPDEST PUSH2 0xE3F SWAP2 SWAP3 POP DUP4 RETURNDATASIZE DUP6 GT PUSH2 0x40C JUMPI PUSH2 0x3FD DUP2 DUP4 PUSH2 0x8E8 JUMP JUMPDEST SWAP1 PUSH0 PUSH2 0xDB9 JUMP JUMPDEST PUSH2 0xE5F SWAP2 POP PUSH1 0x20 RETURNDATASIZE PUSH1 0x20 GT PUSH2 0x40C JUMPI PUSH2 0x3FD DUP2 DUP4 PUSH2 0x8E8 JUMP JUMPDEST PUSH0 PUSH2 0xD37 JUMP JUMPDEST CALLVALUE PUSH2 0x1F7 JUMPI PUSH1 0x40 CALLDATASIZE PUSH1 0x3 NOT ADD SLT PUSH2 0x1F7 JUMPI PUSH1 0x4 CALLDATALOAD PUSH1 0x24 CALLDATALOAD SWAP1 PUSH0 MSTORE PUSH1 0x1 PUSH1 0x20 MSTORE PUSH1 0x40 PUSH0 KECCAK256 SWAP1 PUSH0 MSTORE PUSH1 0x20 MSTORE PUSH2 0x19E PUSH2 0x6A7 PUSH2 0x6AE PUSH1 0x40 PUSH0 KECCAK256 PUSH1 0x40 MLOAD SWAP3 DUP4 DUP1 SWAP3 PUSH2 0x132B JUMP JUMPDEST CALLVALUE PUSH2 0x1F7 JUMPI PUSH1 0x20 CALLDATASIZE PUSH1 0x3 NOT ADD SLT PUSH2 0x1F7 JUMPI PUSH1 0x4 CALLDATALOAD PUSH2 0xEC4 DUP2 PUSH2 0x8C3 JUMP JUMPDEST PUSH2 0xECC PUSH2 0x1A2F JUMP JUMPDEST PUSH1 0x1 PUSH1 0x1 PUSH1 0xA0 SHL SUB AND DUP1 ISZERO PUSH2 0xF1D JUMPI PUSH0 DUP1 SLOAD PUSH1 0x1 PUSH1 0x1 PUSH1 0xA0 SHL SUB NOT DUP2 AND DUP4 OR DUP3 SSTORE PUSH1 0x1 PUSH1 0x1 PUSH1 0xA0 SHL SUB AND SWAP1 PUSH32 0x8BE0079C531659141344CD1FD0A4F28419497F9722A3DAAFE3B4186F6B6457E0 SWAP1 DUP1 LOG3 STOP JUMPDEST PUSH4 0x1E4FBDF7 PUSH1 0xE0 SHL PUSH0 MSTORE PUSH0 PUSH1 0x4 MSTORE PUSH1 0x24 PUSH0 REVERT JUMPDEST SWAP1 DUP2 PUSH1 0x20 SWAP2 SUB SLT PUSH2 0x1F7 JUMPI MLOAD PUSH2 0x661 DUP2 PUSH2 0x8C3 JUMP JUMPDEST PUSH1 0x40 MLOAD RETURNDATASIZE PUSH0 DUP3 RETURNDATACOPY RETURNDATASIZE SWAP1 REVERT JUMPDEST SWAP1 DUP2 PUSH1 0x20 SWAP2 SUB SLT PUSH2 0x1F7 JUMPI MLOAD PUSH2 0x661 DUP2 PUSH2 0xC1E JUMP JUMPDEST ISZERO PUSH2 0xF6C JUMPI JUMP JUMPDEST PUSH1 0x40 MLOAD PUSH3 0x461BCD PUSH1 0xE5 SHL DUP2 MSTORE PUSH1 0x20 PUSH1 0x4 DUP3 ADD MSTORE PUSH1 0x18 PUSH1 0x24 DUP3 ADD MSTORE PUSH32 0x5265736F6C7665723A206E6F7420617574686F72697365640000000000000000 PUSH1 0x44 DUP3 ADD MSTORE PUSH1 0x64 SWAP1 REVERT JUMPDEST SWAP1 PUSH1 0x1 DUP3 DUP2 SHR SWAP3 AND DUP1 ISZERO PUSH2 0xFDF JUMPI JUMPDEST PUSH1 0x20 DUP4 LT EQ PUSH2 0xFCB JUMPI JUMP JUMPDEST PUSH4 0x4E487B71 PUSH1 0xE0 SHL PUSH0 MSTORE PUSH1 0x22 PUSH1 0x4 MSTORE PUSH1 0x24 PUSH0 REVERT JUMPDEST SWAP2 PUSH1 0x7F AND SWAP2 PUSH2 0xFC0 JUMP JUMPDEST PUSH1 0x1F DUP3 GT PUSH2 0xFF6 JUMPI POP POP POP JUMP JUMPDEST PUSH0 MSTORE PUSH1 0x20 PUSH0 KECCAK256 SWAP1 PUSH1 0x20 PUSH1 0x1F DUP5 ADD PUSH1 0x5 SHR DUP4 ADD SWAP4 LT PUSH2 0x102E JUMPI JUMPDEST PUSH1 0x1F ADD PUSH1 0x5 SHR ADD SWAP1 JUMPDEST DUP2 DUP2 LT PUSH2 0x1023 JUMPI POP POP JUMP JUMPDEST PUSH0 DUP2 SSTORE PUSH1 0x1 ADD PUSH2 0x1018 JUMP JUMPDEST SWAP1 SWAP2 POP DUP2 SWAP1 PUSH2 0x100F JUMP JUMPDEST DUP2 PUSH1 0x40 MLOAD SWAP3 DUP4 SWAP3 DUP4 CALLDATACOPY DUP2 ADD PUSH0 DUP2 MSTORE SUB SWAP1 KECCAK256 SWAP1 JUMP JUMPDEST SWAP1 DUP1 PUSH1 0x20 SWAP4 SWAP3 DUP2 DUP5 MSTORE DUP5 DUP5 ADD CALLDATACOPY PUSH0 DUP3 DUP3 ADD DUP5 ADD MSTORE PUSH1 0x1F ADD PUSH1 0x1F NOT AND ADD ADD SWAP1 JUMP JUMPDEST SWAP3 SWAP1 PUSH2 0x1085 SWAP1 PUSH2 0x661 SWAP6 SWAP4 PUSH1 0x40 DUP7 MSTORE PUSH1 0x40 DUP7 ADD SWAP2 PUSH2 0x104C JUMP JUMPDEST SWAP3 PUSH1 0x20 DUP2 DUP6 SUB SWAP2 ADD MSTORE PUSH2 0x104C JUMP JUMPDEST SWAP2 SWAP1 SWAP5 SWAP4 SWAP5 DUP3 PUSH0 MSTORE PUSH1 0x2 PUSH1 0x20 MSTORE PUSH1 0x40 PUSH0 KECCAK256 PUSH1 0x20 PUSH1 0x40 MLOAD DUP1 SWAP3 DUP6 DUP6 DUP4 CALLDATACOPY DUP6 DUP3 ADD SWAP1 DUP2 MSTORE SUB ADD SWAP1 KECCAK256 SWAP6 PUSH8 0xFFFFFFFFFFFFFFFF DUP2 GT PUSH2 0x90A JUMPI PUSH2 0x10DD DUP2 PUSH2 0x10D7 DUP10 SLOAD PUSH2 0xFB1 JUMP JUMPDEST DUP10 PUSH2 0xFE9 JUMP JUMPDEST PUSH0 SWAP7 PUSH1 0x1F DUP3 GT PUSH1 0x1 EQ PUSH2 0x115D JUMPI SWAP1 PUSH2 0x114D SWAP2 PUSH2 0x1133 DUP3 DUP1 PUSH32 0x448BC014F1536726CF8D54FF3D6481ED3CBC683C2591CA204274009AFA09B1A1 SWAP9 SWAP10 SWAP11 SWAP12 PUSH0 SWAP2 PUSH2 0x1152 JUMPI JUMPDEST POP DUP2 PUSH1 0x1 SHL SWAP2 PUSH0 NOT SWAP1 PUSH1 0x3 SHL SHR NOT AND OR SWAP1 JUMP JUMPDEST SWAP1 SSTORE JUMPDEST PUSH2 0x1140 DUP5 DUP5 PUSH2 0x1038 JUMP JUMPDEST SWAP7 PUSH1 0x40 MLOAD SWAP5 DUP6 SWAP5 DUP6 PUSH2 0x106C JUMP JUMPDEST SUB SWAP1 LOG3 JUMP JUMPDEST SWAP1 POP DUP11 ADD CALLDATALOAD PUSH0 PUSH2 0x1120 JUMP JUMPDEST PUSH1 0x1F NOT DUP3 AND PUSH2 0x116F DUP3 PUSH0 MSTORE PUSH1 0x20 PUSH0 KECCAK256 SWAP1 JUMP JUMPDEST SWAP1 PUSH0 JUMPDEST DUP2 DUP2 LT PUSH2 0x11D5 JUMPI POP SWAP1 PUSH32 0x448BC014F1536726CF8D54FF3D6481ED3CBC683C2591CA204274009AFA09B1A1 SWAP7 SWAP8 SWAP9 SWAP10 DUP5 PUSH2 0x114D SWAP6 SWAP5 SWAP4 LT PUSH2 0x11BC JUMPI JUMPDEST POP POP PUSH1 0x1 DUP3 DUP2 SHL ADD SWAP1 SSTORE PUSH2 0x1136 JUMP JUMPDEST DUP10 ADD CALLDATALOAD PUSH0 NOT PUSH1 0x3 DUP6 SWAP1 SHL PUSH1 0xF8 AND SHR NOT AND SWAP1 SSTORE PUSH0 DUP1 PUSH2 0x11AD JUMP JUMPDEST DUP9 DUP12 ADD CALLDATALOAD DUP4 SSTORE PUSH1 0x20 SWAP11 DUP12 ADD SWAP11 PUSH1 0x1 SWAP1 SWAP4 ADD SWAP3 ADD PUSH2 0x1172 JUMP JUMPDEST SWAP2 PUSH1 0x20 PUSH2 0x661 SWAP4 DUP2 DUP2 MSTORE ADD SWAP2 PUSH2 0x104C JUMP JUMPDEST SWAP1 SWAP3 SWAP2 DUP2 PUSH0 MSTORE PUSH1 0x3 PUSH1 0x20 MSTORE PUSH1 0x40 PUSH0 KECCAK256 SWAP4 PUSH8 0xFFFFFFFFFFFFFFFF DUP3 GT PUSH2 0x90A JUMPI PUSH2 0x1231 DUP3 PUSH2 0x122B DUP8 SLOAD PUSH2 0xFB1 JUMP JUMPDEST DUP8 PUSH2 0xFE9 JUMP JUMPDEST PUSH0 SWAP5 PUSH1 0x1F DUP4 GT PUSH1 0x1 EQ PUSH2 0x12A2 JUMPI PUSH2 0x1280 DUP4 DUP1 PUSH32 0xE379C1624ED7E714CC0937528A32359D69D5281337765313DBA4E081B72D7578 SWAP7 SWAP8 SWAP9 PUSH0 SWAP2 PUSH2 0x1297 JUMPI POP DUP2 PUSH1 0x1 SHL SWAP2 PUSH0 NOT SWAP1 PUSH1 0x3 SHL SHR NOT AND OR SWAP1 JUMP JUMPDEST SWAP1 SSTORE JUMPDEST PUSH2 0x1292 PUSH1 0x40 MLOAD SWAP3 DUP4 SWAP3 DUP4 PUSH2 0x11ED JUMP JUMPDEST SUB SWAP1 LOG2 JUMP JUMPDEST SWAP1 POP DUP5 ADD CALLDATALOAD PUSH0 PUSH2 0x1120 JUMP JUMPDEST PUSH1 0x1F NOT DUP4 AND SWAP6 PUSH2 0x12B5 DUP3 PUSH0 MSTORE PUSH1 0x20 PUSH0 KECCAK256 SWAP1 JUMP JUMPDEST SWAP1 PUSH0 JUMPDEST DUP9 DUP2 LT PUSH2 0x1313 JUMPI POP DUP5 PUSH32 0xE379C1624ED7E714CC0937528A32359D69D5281337765313DBA4E081B72D7578 SWAP7 SWAP8 SWAP9 LT PUSH2 0x12FA JUMPI JUMPDEST POP POP PUSH1 0x1 DUP4 DUP2 SHL ADD SWAP1 SSTORE PUSH2 0x1283 JUMP JUMPDEST DUP4 ADD CALLDATALOAD PUSH0 NOT PUSH1 0x3 DUP7 SWAP1 SHL PUSH1 0xF8 AND SHR NOT AND SWAP1 SSTORE PUSH0 DUP1 PUSH2 0x12EB JUMP JUMPDEST SWAP1 SWAP2 PUSH1 0x20 PUSH1 0x1 DUP2 SWAP3 DUP6 DUP9 ADD CALLDATALOAD DUP2 SSTORE ADD SWAP4 ADD SWAP2 ADD PUSH2 0x12B8 JUMP JUMPDEST PUSH0 SWAP3 SWAP2 DUP2 SLOAD SWAP2 PUSH2 0x133A DUP4 PUSH2 0xFB1 JUMP JUMPDEST DUP1 DUP4 MSTORE SWAP3 PUSH1 0x1 DUP2 AND SWAP1 DUP2 ISZERO PUSH2 0x138F JUMPI POP PUSH1 0x1 EQ PUSH2 0x1356 JUMPI POP POP POP JUMP JUMPDEST PUSH0 SWAP1 DUP2 MSTORE PUSH1 0x20 DUP2 KECCAK256 SWAP4 SWAP5 POP SWAP2 SWAP3 JUMPDEST DUP4 DUP4 LT PUSH2 0x1375 JUMPI POP PUSH1 0x20 SWAP3 POP ADD ADD SWAP1 JUMP JUMPDEST PUSH1 0x1 DUP2 PUSH1 0x20 SWAP3 SWAP5 SWAP4 SWAP5 SLOAD DUP4 DUP6 DUP8 ADD ADD MSTORE ADD SWAP2 ADD SWAP2 SWAP1 PUSH2 0x1364 JUMP JUMPDEST SWAP2 POP POP PUSH1 0x20 SWAP4 SWAP5 POP PUSH1 0xFF SWAP3 SWAP2 SWAP3 NOT AND DUP4 DUP4 ADD MSTORE ISZERO ISZERO PUSH1 0x5 SHL ADD ADD SWAP1 JUMP JUMPDEST PUSH0 MSTORE PUSH1 0x1 PUSH1 0x20 MSTORE PUSH1 0x40 PUSH0 KECCAK256 PUSH1 0x3C PUSH0 MSTORE PUSH1 0x20 MSTORE PUSH2 0x6A7 PUSH2 0x13D4 PUSH1 0x40 PUSH0 KECCAK256 PUSH1 0x40 MLOAD SWAP3 DUP4 DUP1 SWAP3 PUSH2 0x132B JUMP JUMPDEST DUP1 MLOAD ISZERO PUSH2 0x13F1 JUMPI PUSH1 0x1 PUSH1 0x1 PUSH1 0xA0 SHL SUB SWAP1 PUSH2 0x13ED SWAP1 PUSH2 0x19DB JUMP JUMPDEST AND SWAP1 JUMP JUMPDEST POP PUSH0 SWAP1 JUMP JUMPDEST SWAP1 SWAP3 SWAP2 DUP2 PUSH0 MSTORE PUSH1 0x4 PUSH1 0x20 MSTORE PUSH1 0x40 PUSH0 KECCAK256 SWAP4 PUSH8 0xFFFFFFFFFFFFFFFF DUP3 GT PUSH2 0x90A JUMPI PUSH2 0x1423 DUP3 PUSH2 0x122B DUP8 SLOAD PUSH2 0xFB1 JUMP JUMPDEST PUSH0 SWAP5 PUSH1 0x1F DUP4 GT PUSH1 0x1 EQ PUSH2 0x1472 JUMPI PUSH2 0x1280 DUP4 DUP1 PUSH32 0xB7D29E911041E8D9B843369E890BCB72C9388692BA48B65AC54E7214C4C348F7 SWAP7 SWAP8 SWAP9 PUSH0 SWAP2 PUSH2 0x1297 JUMPI POP DUP2 PUSH1 0x1 SHL SWAP2 PUSH0 NOT SWAP1 PUSH1 0x3 SHL SHR NOT AND OR SWAP1 JUMP JUMPDEST PUSH1 0x1F NOT DUP4 AND SWAP6 PUSH2 0x1485 DUP3 PUSH0 MSTORE PUSH1 0x20 PUSH0 KECCAK256 SWAP1 JUMP JUMPDEST SWAP1 PUSH0 JUMPDEST DUP9 DUP2 LT PUSH2 0x14C9 JUMPI POP DUP5 PUSH32 0xB7D29E911041E8D9B843369E890BCB72C9388692BA48B65AC54E7214C4C348F7 SWAP7 SWAP8 SWAP9 LT PUSH2 0x12FA JUMPI POP POP PUSH1 0x1 DUP4 DUP2 SHL ADD SWAP1 SSTORE PUSH2 0x1283 JUMP JUMPDEST SWAP1 SWAP2 PUSH1 0x20 PUSH1 0x1 DUP2 SWAP3 DUP6 DUP9 ADD CALLDATALOAD DUP2 SSTORE ADD SWAP4 ADD SWAP2 ADD PUSH2 0x1488 JUMP JUMPDEST SWAP2 SWAP1 SWAP2 DUP3 MLOAD PUSH8 0xFFFFFFFFFFFFFFFF DUP2 GT PUSH2 0x90A JUMPI PUSH2 0x1509 DUP2 PUSH2 0x1503 DUP5 SLOAD PUSH2 0xFB1 JUMP JUMPDEST DUP5 PUSH2 0xFE9 JUMP JUMPDEST PUSH1 0x20 PUSH1 0x1F DUP3 GT PUSH1 0x1 EQ PUSH2 0x1548 JUMPI DUP2 SWAP1 PUSH2 0x1539 SWAP4 SWAP5 SWAP6 PUSH0 SWAP3 PUSH2 0x153D JUMPI JUMPDEST POP POP DUP2 PUSH1 0x1 SHL SWAP2 PUSH0 NOT SWAP1 PUSH1 0x3 SHL SHR NOT AND OR SWAP1 JUMP JUMPDEST SWAP1 SSTORE JUMP JUMPDEST ADD MLOAD SWAP1 POP PUSH0 DUP1 PUSH2 0x1525 JUMP JUMPDEST PUSH1 0x1F NOT DUP3 AND SWAP1 PUSH2 0x155B DUP5 PUSH0 MSTORE PUSH1 0x20 PUSH0 KECCAK256 SWAP1 JUMP JUMPDEST SWAP2 PUSH0 JUMPDEST DUP2 DUP2 LT PUSH2 0x1595 JUMPI POP SWAP6 DUP4 PUSH1 0x1 SWAP6 SWAP7 SWAP8 LT PUSH2 0x157D JUMPI JUMPDEST POP POP POP DUP2 SHL ADD SWAP1 SSTORE JUMP JUMPDEST ADD MLOAD PUSH0 NOT PUSH1 0xF8 DUP5 PUSH1 0x3 SHL AND SHR NOT AND SWAP1 SSTORE PUSH0 DUP1 DUP1 PUSH2 0x1573 JUMP JUMPDEST SWAP2 SWAP3 PUSH1 0x20 PUSH1 0x1 DUP2 SWAP3 DUP7 DUP12 ADD MLOAD DUP2 SSTORE ADD SWAP5 ADD SWAP3 ADD PUSH2 0x155E JUMP JUMPDEST CALLER PUSH1 0x1 PUSH1 0x1 PUSH1 0xA0 SHL SUB DUP3 AND EQ DUP1 ISZERO PUSH2 0x1674 JUMPI JUMPDEST ISZERO PUSH2 0x1625 JUMPI DUP2 MLOAD ISZERO PUSH2 0x1621 JUMPI PUSH2 0x1292 PUSH2 0x15F9 PUSH32 0xB7D29E911041E8D9B843369E890BCB72C9388692BA48B65AC54E7214C4C348F7 SWAP3 PUSH2 0x1A67 JUMP JUMPDEST SWAP3 PUSH2 0x1615 DUP2 PUSH2 0x1610 DUP7 PUSH0 MSTORE PUSH1 0x4 PUSH1 0x20 MSTORE PUSH1 0x40 PUSH0 KECCAK256 SWAP1 JUMP JUMPDEST PUSH2 0x14E1 JUMP JUMPDEST PUSH1 0x40 MLOAD SWAP2 DUP3 SWAP2 DUP3 PUSH2 0x650 JUMP JUMPDEST POP POP JUMP JUMPDEST PUSH1 0x40 MLOAD PUSH3 0x461BCD PUSH1 0xE5 SHL DUP2 MSTORE PUSH1 0x20 PUSH1 0x4 DUP3 ADD MSTORE PUSH1 0x21 PUSH1 0x24 DUP3 ADD MSTORE PUSH32 0x5265736F6C7665723A206E6F7420617574686F726973656420666F7220616464 PUSH1 0x44 DUP3 ADD MSTORE PUSH1 0x39 PUSH1 0xF9 SHL PUSH1 0x64 DUP3 ADD MSTORE PUSH1 0x84 SWAP1 REVERT JUMPDEST POP CALLER PUSH0 MSTORE PUSH1 0x5 PUSH1 0x20 MSTORE PUSH1 0xFF PUSH1 0x40 PUSH0 KECCAK256 SLOAD AND PUSH2 0x15C0 JUMP JUMPDEST PUSH1 0x40 SWAP1 PUSH2 0x661 SWAP4 SWAP3 DUP2 MSTORE DUP2 PUSH1 0x20 DUP3 ADD MSTORE ADD SWAP1 PUSH2 0x62C JUMP JUMPDEST SWAP1 PUSH1 0x14 DUP2 MLOAD SUB PUSH2 0x1753 JUMPI PUSH2 0x1610 PUSH1 0x3C PUSH2 0x1744 DUP5 PUSH2 0x1751 SWAP6 PUSH32 0x65412581168E88A1E60C6459D7F44AE83AD0832E670826C05A4E2476B57AF752 PUSH1 0x40 MLOAD DUP1 PUSH2 0x16E8 DUP10 DUP9 DUP4 PUSH2 0x168A JUMP JUMPDEST SUB SWAP1 LOG2 DUP1 PUSH32 0x52D7D861F09AB3D26239D492E8968629F95E9E318CF0B73BFDDC441522A15FD2 PUSH2 0x1733 PUSH2 0x1719 DUP9 PUSH2 0x19DB JUMP JUMPDEST PUSH1 0x40 MLOAD PUSH1 0x1 PUSH1 0x1 PUSH1 0xA0 SHL SUB SWAP1 SWAP2 AND DUP2 MSTORE SWAP1 DUP2 SWAP1 PUSH1 0x20 DUP3 ADD SWAP1 JUMP JUMPDEST SUB SWAP1 LOG2 PUSH0 MSTORE PUSH1 0x1 PUSH1 0x20 MSTORE PUSH1 0x40 PUSH0 KECCAK256 SWAP1 JUMP JUMPDEST SWAP1 PUSH0 MSTORE PUSH1 0x20 MSTORE PUSH1 0x40 PUSH0 KECCAK256 SWAP1 JUMP JUMPDEST JUMP JUMPDEST PUSH1 0x40 MLOAD PUSH3 0x461BCD PUSH1 0xE5 SHL DUP2 MSTORE PUSH1 0x20 PUSH1 0x4 DUP3 ADD MSTORE PUSH1 0x24 DUP1 DUP3 ADD MSTORE PUSH32 0x5265736F6C7665723A20696E76616C69642045564D2061646472657373206C65 PUSH1 0x44 DUP3 ADD MSTORE PUSH4 0xDCCEE8D PUSH1 0xE3 SHL PUSH1 0x64 DUP3 ADD MSTORE PUSH1 0x84 SWAP1 REVERT JUMPDEST SWAP2 SWAP1 SWAP2 PUSH1 0x3C DUP4 EQ DUP1 PUSH2 0x1831 JUMPI JUMPDEST SWAP3 PUSH2 0x1744 DUP3 PUSH2 0x1751 SWAP6 PUSH2 0x1610 SWAP5 PUSH32 0x65412581168E88A1E60C6459D7F44AE83AD0832E670826C05A4E2476B57AF752 PUSH1 0x40 MLOAD DUP1 PUSH2 0x17EE DUP11 DUP10 DUP4 PUSH2 0x168A JUMP JUMPDEST SUB SWAP1 LOG2 PUSH2 0x1803 JUMPI PUSH0 MSTORE PUSH1 0x1 PUSH1 0x20 MSTORE PUSH1 0x40 PUSH0 KECCAK256 SWAP1 JUMP JUMPDEST DUP1 PUSH32 0x52D7D861F09AB3D26239D492E8968629F95E9E318CF0B73BFDDC441522A15FD2 PUSH2 0x1733 PUSH2 0x1719 DUP9 PUSH2 0x19DB JUMP JUMPDEST SWAP3 PUSH1 0x14 DUP4 MLOAD SUB PUSH2 0x1753 JUMPI SWAP3 PUSH2 0x17B1 JUMP JUMPDEST PUSH1 0x40 MLOAD PUSH1 0x60 SWAP3 SWAP1 SWAP3 SHL PUSH12 0xFFFFFFFFFFFFFFFFFFFFFFFF NOT AND PUSH1 0x20 DUP4 ADD MSTORE SWAP1 PUSH2 0x1876 DUP2 PUSH1 0x34 DUP2 ADD JUMPDEST SUB PUSH1 0x1F NOT DUP2 ADD DUP4 MSTORE DUP3 PUSH2 0x8E8 JUMP JUMPDEST PUSH1 0x40 MLOAD PUSH4 0x2571BE3 PUSH1 0xE0 SHL DUP2 MSTORE PUSH1 0x4 DUP2 ADD DUP4 SWAP1 MSTORE PUSH1 0x1 PUSH1 0x1 PUSH1 0xA0 SHL SUB PUSH32 0x0 AND SWAP3 SWAP1 PUSH1 0x20 DUP2 PUSH1 0x24 DUP2 DUP8 GAS STATICCALL SWAP1 DUP2 ISZERO PUSH2 0x3DF JUMPI PUSH0 SWAP2 PUSH2 0x19BC JUMPI JUMPDEST POP PUSH1 0x1 PUSH1 0x1 PUSH1 0xA0 SHL SUB AND CALLER EQ DUP1 ISZERO PUSH2 0x191D JUMPI JUMPDEST PUSH2 0x1751 SWAP4 POP DUP1 ISZERO PUSH2 0x18FA JUMPI JUMPDEST PUSH2 0x18F5 SWAP1 PUSH2 0xF65 JUMP JUMPDEST PUSH2 0x16A1 JUMP JUMPDEST POP CALLER PUSH0 SWAP1 DUP2 MSTORE PUSH1 0x5 PUSH1 0x20 MSTORE PUSH1 0x40 SWAP1 KECCAK256 PUSH2 0x18F5 SWAP1 PUSH2 0x1916 SWAP1 PUSH2 0x321 JUMP JUMPDEST SWAP1 POP PUSH2 0x18EC JUMP JUMPDEST POP PUSH1 0x40 MLOAD PUSH4 0x2571BE3 PUSH1 0xE0 SHL DUP2 MSTORE PUSH1 0x4 DUP2 ADD DUP3 SWAP1 MSTORE PUSH1 0x20 DUP2 PUSH1 0x24 DUP2 DUP8 GAS STATICCALL DUP1 ISZERO PUSH2 0x3DF JUMPI PUSH2 0x1982 SWAP5 PUSH1 0x20 SWAP3 PUSH0 SWAP3 PUSH2 0xE27 JUMPI POP PUSH1 0x40 MLOAD PUSH4 0xE985E9C5 PUSH1 0xE0 SHL DUP2 MSTORE PUSH1 0x1 PUSH1 0x1 PUSH1 0xA0 SHL SUB SWAP1 SWAP3 AND PUSH1 0x4 DUP4 ADD MSTORE CALLER PUSH1 0x24 DUP4 ADD MSTORE SWAP1 SWAP5 DUP6 SWAP2 SWAP1 DUP3 SWAP1 DUP2 SWAP1 PUSH1 0x44 DUP3 ADD SWAP1 JUMP JUMPDEST SUB SWAP2 GAS STATICCALL DUP1 ISZERO PUSH2 0x3DF JUMPI PUSH2 0x1751 SWAP4 PUSH0 SWAP2 PUSH2 0x199D JUMPI JUMPDEST POP PUSH2 0x18E0 JUMP JUMPDEST PUSH2 0x19B6 SWAP2 POP PUSH1 0x20 RETURNDATASIZE PUSH1 0x20 GT PUSH2 0x3D8 JUMPI PUSH2 0x3CA DUP2 DUP4 PUSH2 0x8E8 JUMP JUMPDEST PUSH0 PUSH2 0x1997 JUMP JUMPDEST PUSH2 0x19D5 SWAP2 POP PUSH1 0x20 RETURNDATASIZE PUSH1 0x20 GT PUSH2 0x40C JUMPI PUSH2 0x3FD DUP2 DUP4 PUSH2 0x8E8 JUMP JUMPDEST PUSH0 PUSH2 0x18CD JUMP JUMPDEST PUSH1 0x14 DUP2 MLOAD SUB PUSH2 0x19EB JUMPI PUSH1 0x14 ADD MLOAD SWAP1 JUMP JUMPDEST PUSH1 0x64 PUSH1 0x40 MLOAD PUSH3 0x461BCD PUSH1 0xE5 SHL DUP2 MSTORE PUSH1 0x20 PUSH1 0x4 DUP3 ADD MSTORE PUSH1 0x20 PUSH1 0x24 DUP3 ADD MSTORE PUSH32 0x5265736F6C7665723A20696E76616C69642061646472657373206C656E677468 PUSH1 0x44 DUP3 ADD MSTORE REVERT JUMPDEST PUSH0 SLOAD PUSH1 0x1 PUSH1 0x1 PUSH1 0xA0 SHL SUB AND CALLER SUB PUSH2 0x1A42 JUMPI JUMP JUMPDEST PUSH4 0x118CDAA7 PUSH1 0xE0 SHL PUSH0 MSTORE CALLER PUSH1 0x4 MSTORE PUSH1 0x24 PUSH0 REVERT JUMPDEST DUP1 MLOAD SWAP2 SWAP1 DUP3 SWAP1 PUSH1 0x20 ADD DUP3 MCOPY ADD PUSH0 DUP2 MSTORE SWAP1 JUMP JUMPDEST PUSH2 0x1868 PUSH2 0x1A9C PUSH2 0x1A75 PUSH2 0x1BAF JUMP JUMPDEST SWAP3 PUSH1 0x40 MLOAD SWAP3 DUP4 SWAP2 PUSH1 0x20 DUP4 ADD PUSH1 0x14 SWAP2 PUSH12 0xFFFFFFFFFFFFFFFFFFFFFFFF NOT SWAP1 PUSH1 0x60 SHL AND DUP2 MSTORE ADD SWAP1 JUMP JUMPDEST PUSH2 0x1AA4 PUSH2 0x1BDD JUMP JUMPDEST SWAP2 PUSH0 JUMPDEST PUSH1 0x14 DUP2 LT PUSH2 0x1B0F JUMPI POP POP POP PUSH1 0x40 MLOAD PUSH2 0x1AC7 DUP2 PUSH2 0x1868 PUSH1 0x20 DUP3 ADD DUP1 SWAP6 PUSH2 0x1A55 JUMP JUMPDEST MLOAD SWAP1 KECCAK256 PUSH1 0x40 MLOAD PUSH2 0x1B09 DUP2 PUSH2 0x1868 PUSH1 0x20 DUP3 ADD SWAP5 DUP6 PUSH1 0x40 SWAP2 PUSH32 0x91D1777781884D03A6757A803996E38DE2A42967FB37EEACA72729271025A9E2 DUP3 MSTORE PUSH1 0x20 DUP3 ADD MSTORE ADD SWAP1 JUMP JUMPDEST MLOAD SWAP1 KECCAK256 SWAP1 JUMP JUMPDEST DUP1 PUSH2 0x1B5A PUSH2 0x1B2E PUSH2 0x1B54 PUSH2 0x1B4E PUSH2 0x1B48 PUSH2 0x1B3C PUSH2 0x1B2E PUSH1 0x1 SWAP9 DUP12 PUSH2 0x1BFF JUMP JUMPDEST MLOAD PUSH1 0x1 PUSH1 0x1 PUSH1 0xF8 SHL SUB NOT AND SWAP1 JUMP JUMPDEST PUSH1 0x4 SHR PUSH1 0xF PUSH1 0xF8 SHL AND SWAP1 JUMP JUMPDEST PUSH1 0xF8 SHR SWAP1 JUMP JUMPDEST PUSH1 0xFF AND SWAP1 JUMP JUMPDEST DUP6 PUSH2 0x1BFF JUMP JUMPDEST PUSH2 0x1B70 PUSH2 0x1B66 DUP4 PUSH2 0x1C38 JUMP JUMPDEST SWAP2 PUSH0 BYTE SWAP2 DUP8 PUSH2 0x1BFF JUMP JUMPDEST MSTORE8 PUSH2 0x1B94 PUSH2 0x1B2E PUSH2 0x1B54 PUSH2 0x1B4E PUSH1 0xF PUSH1 0xF8 SHL PUSH2 0x1B8D DUP5 DUP8 DUP12 PUSH2 0x1BFF JUMP JUMPDEST AND PUSH1 0xF8 SHR SWAP1 JUMP JUMPDEST PUSH2 0x1BA8 PUSH2 0x1B66 PUSH2 0x1BA3 DUP5 PUSH2 0x1C38 JUMP JUMPDEST PUSH2 0x1C53 JUMP JUMPDEST MSTORE8 ADD PUSH2 0x1AA7 JUMP JUMPDEST PUSH1 0x40 MLOAD SWAP1 PUSH2 0x1BBE PUSH1 0x40 DUP4 PUSH2 0x8E8 JUMP JUMPDEST PUSH1 0x10 DUP3 MSTORE PUSH16 0x181899199A1A9B1B9C1CB0B131B232B3 PUSH1 0x81 SHL PUSH1 0x20 DUP4 ADD MSTORE JUMP JUMPDEST PUSH1 0x40 MLOAD PUSH1 0x60 SWAP2 SWAP1 PUSH2 0x1BEE DUP4 DUP3 PUSH2 0x8E8 JUMP JUMPDEST PUSH1 0x28 DUP2 MSTORE SWAP2 PUSH1 0x1F NOT ADD CALLDATASIZE PUSH1 0x20 DUP5 ADD CALLDATACOPY JUMP JUMPDEST SWAP1 DUP2 MLOAD DUP2 LT ISZERO PUSH2 0x1C10 JUMPI ADD PUSH1 0x20 ADD SWAP1 JUMP JUMPDEST PUSH4 0x4E487B71 PUSH1 0xE0 SHL PUSH0 MSTORE PUSH1 0x32 PUSH1 0x4 MSTORE PUSH1 0x24 PUSH0 REVERT JUMPDEST PUSH4 0x4E487B71 PUSH1 0xE0 SHL PUSH0 MSTORE PUSH1 0x11 PUSH1 0x4 MSTORE PUSH1 0x24 PUSH0 REVERT JUMPDEST SWAP1 DUP2 PUSH1 0x1 SHL SWAP2 DUP1 DUP4 DIV PUSH1 0x2 EQ SWAP1 ISZERO OR ISZERO PUSH2 0x1C4E JUMPI JUMP JUMPDEST PUSH2 0x1C24 JUMP JUMPDEST SWAP1 PUSH1 0x1 DUP3 ADD DUP1 SWAP3 GT PUSH2 0x1C4E JUMPI JUMP INVALID LOG2 PUSH5 0x6970667358 0x22 SLT KECCAK256 JUMP 0x28 GAS 0x4D SLOAD 0x22 TIMESTAMP DUP16 0xE8 CALLDATALOAD 0xC7 0xBF 0x4F CALL 0xCA SWAP14 0xC9 EXTCODEHASH 0x27 DUP3 PUSH32 0xD6CD3BDB31240544C5047C64736F6C634300081A003300000000000000000000 "},"methodIdentifiers":{"addr(bytes32)":"3b3b57de","addr(bytes32,uint256)":"f1cb7e06","contenthash(bytes32)":"bc1c58d1","name(bytes32)":"691f3431","owner()":"8da5cb5b","registry()":"7b103999","renounceOwnership()":"715018a6","setAddr(bytes32,address)":"d5fa2b00","setAddr(bytes32,uint256,bytes)":"8b95dd71","setContenthash(bytes32,bytes)":"304e6ade","setName(bytes32,string)":"77372213","setNameForAddr(address,address,address,string)":"7a806d6b","setText(bytes32,string,string)":"10f13a8c","setTrustedController(address,bool)":"c9ec08d9","supportsInterface(bytes4)":"01ffc9a7","text(bytes32,string)":"59d1d43c","transferOwnership(address)":"f2fde38b","trustedControllers(address)":"cf050cee"}},"storageLayout":{"storage":[{"astId":8,"contract":"contracts/resolver/ArcNSResolver.sol:ArcNSResolver","label":"_owner","offset":0,"slot":"0","type":"t_address"},{"astId":11005,"contract":"contracts/resolver/ArcNSResolver.sol:ArcNSResolver","label":"_addresses","offset":0,"slot":"1","type":"t_mapping(t_bytes32,t_mapping(t_uint256,t_bytes_storage))"},{"astId":11011,"contract":"contracts/resolver/ArcNSResolver.sol:ArcNSResolver","label":"_texts","offset":0,"slot":"2","type":"t_mapping(t_bytes32,t_mapping(t_string_memory_ptr,t_string_storage))"},{"astId":11015,"contract":"contracts/resolver/ArcNSResolver.sol:ArcNSResolver","label":"_contenthashes","offset":0,"slot":"3","type":"t_mapping(t_bytes32,t_bytes_storage)"},{"astId":11019,"contract":"contracts/resolver/ArcNSResolver.sol:ArcNSResolver","label":"_names","offset":0,"slot":"4","type":"t_mapping(t_bytes32,t_string_storage)"},{"astId":11023,"contract":"contracts/resolver/ArcNSResolver.sol:ArcNSResolver","label":"trustedControllers","offset":0,"slot":"5","type":"t_mapping(t_address,t_bool)"}],"types":{"t_address":{"encoding":"inplace","label":"address","numberOfBytes":"20"},"t_bool":{"encoding":"inplace","label":"bool","numberOfBytes":"1"},"t_bytes32":{"encoding":"inplace","label":"bytes32","numberOfBytes":"32"},"t_bytes_storage":{"encoding":"bytes","label":"bytes","numberOfBytes":"32"},"t_mapping(t_address,t_bool)":{"encoding":"mapping","key":"t_address","label":"mapping(address => bool)","numberOfBytes":"32","value":"t_bool"},"t_mapping(t_bytes32,t_bytes_storage)":{"encoding":"mapping","key":"t_bytes32","label":"mapping(bytes32 => bytes)","numberOfBytes":"32","value":"t_bytes_storage"},"t_mapping(t_bytes32,t_mapping(t_string_memory_ptr,t_string_storage))":{"encoding":"mapping","key":"t_bytes32","label":"mapping(bytes32 => mapping(string => string))","numberOfBytes":"32","value":"t_mapping(t_string_memory_ptr,t_string_storage)"},"t_mapping(t_bytes32,t_mapping(t_uint256,t_bytes_storage))":{"encoding":"mapping","key":"t_bytes32","label":"mapping(bytes32 => mapping(uint256 => bytes))","numberOfBytes":"32","value":"t_mapping(t_uint256,t_bytes_storage)"},"t_mapping(t_bytes32,t_string_storage)":{"encoding":"mapping","key":"t_bytes32","label":"mapping(bytes32 => string)","numberOfBytes":"32","value":"t_string_storage"},"t_mapping(t_string_memory_ptr,t_string_storage)":{"encoding":"mapping","key":"t_string_memory_ptr","label":"mapping(string => string)","numberOfBytes":"32","value":"t_string_storage"},"t_mapping(t_uint256,t_bytes_storage)":{"encoding":"mapping","key":"t_uint256","label":"mapping(uint256 => bytes)","numberOfBytes":"32","value":"t_bytes_storage"},"t_string_memory_ptr":{"encoding":"bytes","label":"string","numberOfBytes":"32"},"t_string_storage":{"encoding":"bytes","label":"string","numberOfBytes":"32"},"t_uint256":{"encoding":"inplace","label":"uint256","numberOfBytes":"32"}}}}}}