{"contracts/registrar/ArcNSBaseRegistrar.sol":{"ArcNSBaseRegistrar":{"abi":[{"inputs":[{"internalType":"contract IArcNSRegistry","name":"_registry","type":"address"},{"internalType":"bytes32","name":"_baseNode","type":"bytes32"},{"internalType":"string","name":"_tld","type":"string"}],"stateMutability":"nonpayable","type":"constructor"},{"inputs":[{"internalType":"address","name":"sender","type":"address"},{"internalType":"uint256","name":"tokenId","type":"uint256"},{"internalType":"address","name":"owner","type":"address"}],"name":"ERC721IncorrectOwner","type":"error"},{"inputs":[{"internalType":"address","name":"operator","type":"address"},{"internalType":"uint256","name":"tokenId","type":"uint256"}],"name":"ERC721InsufficientApproval","type":"error"},{"inputs":[{"internalType":"address","name":"approver","type":"address"}],"name":"ERC721InvalidApprover","type":"error"},{"inputs":[{"internalType":"address","name":"operator","type":"address"}],"name":"ERC721InvalidOperator","type":"error"},{"inputs":[{"internalType":"address","name":"owner","type":"address"}],"name":"ERC721InvalidOwner","type":"error"},{"inputs":[{"internalType":"address","name":"receiver","type":"address"}],"name":"ERC721InvalidReceiver","type":"error"},{"inputs":[{"internalType":"address","name":"sender","type":"address"}],"name":"ERC721InvalidSender","type":"error"},{"inputs":[{"internalType":"uint256","name":"tokenId","type":"uint256"}],"name":"ERC721NonexistentToken","type":"error"},{"inputs":[{"internalType":"address","name":"owner","type":"address"}],"name":"OwnableInvalidOwner","type":"error"},{"inputs":[{"internalType":"address","name":"account","type":"address"}],"name":"OwnableUnauthorizedAccount","type":"error"},{"anonymous":false,"inputs":[{"indexed":true,"internalType":"address","name":"owner","type":"address"},{"indexed":true,"internalType":"address","name":"approved","type":"address"},{"indexed":true,"internalType":"uint256","name":"tokenId","type":"uint256"}],"name":"Approval","type":"event"},{"anonymous":false,"inputs":[{"indexed":true,"internalType":"address","name":"owner","type":"address"},{"indexed":true,"internalType":"address","name":"operator","type":"address"},{"indexed":false,"internalType":"bool","name":"approved","type":"bool"}],"name":"ApprovalForAll","type":"event"},{"anonymous":false,"inputs":[{"indexed":true,"internalType":"address","name":"controller","type":"address"}],"name":"ControllerAdded","type":"event"},{"anonymous":false,"inputs":[{"indexed":true,"internalType":"address","name":"controller","type":"address"}],"name":"ControllerRemoved","type":"event"},{"anonymous":false,"inputs":[{"indexed":true,"internalType":"uint256","name":"id","type":"uint256"},{"indexed":true,"internalType":"address","name":"owner","type":"address"},{"indexed":false,"internalType":"uint256","name":"expires","type":"uint256"}],"name":"NameRegistered","type":"event"},{"anonymous":false,"inputs":[{"indexed":true,"internalType":"uint256","name":"id","type":"uint256"},{"indexed":false,"internalType":"uint256","name":"expires","type":"uint256"}],"name":"NameRenewed","type":"event"},{"anonymous":false,"inputs":[{"indexed":true,"internalType":"uint256","name":"id","type":"uint256"},{"indexed":true,"internalType":"address","name":"newOwner","type":"address"}],"name":"NameTransferred","type":"event"},{"anonymous":false,"inputs":[{"indexed":true,"internalType":"address","name":"previousOwner","type":"address"},{"indexed":true,"internalType":"address","name":"newOwner","type":"address"}],"name":"OwnershipTransferred","type":"event"},{"anonymous":false,"inputs":[{"indexed":true,"internalType":"address","name":"from","type":"address"},{"indexed":true,"internalType":"address","name":"to","type":"address"},{"indexed":true,"internalType":"uint256","name":"tokenId","type":"uint256"}],"name":"Transfer","type":"event"},{"inputs":[],"name":"GRACE_PERIOD","outputs":[{"internalType":"uint256","name":"","type":"uint256"}],"stateMutability":"view","type":"function"},{"inputs":[{"internalType":"address","name":"controller","type":"address"}],"name":"addController","outputs":[],"stateMutability":"nonpayable","type":"function"},{"inputs":[{"internalType":"address","name":"to","type":"address"},{"internalType":"uint256","name":"tokenId","type":"uint256"}],"name":"approve","outputs":[],"stateMutability":"nonpayable","type":"function"},{"inputs":[{"internalType":"uint256","name":"id","type":"uint256"}],"name":"available","outputs":[{"internalType":"bool","name":"","type":"bool"}],"stateMutability":"view","type":"function"},{"inputs":[{"internalType":"address","name":"owner","type":"address"}],"name":"balanceOf","outputs":[{"internalType":"uint256","name":"","type":"uint256"}],"stateMutability":"view","type":"function"},{"inputs":[],"name":"baseNode","outputs":[{"internalType":"bytes32","name":"","type":"bytes32"}],"stateMutability":"view","type":"function"},{"inputs":[{"internalType":"address","name":"","type":"address"}],"name":"controllers","outputs":[{"internalType":"bool","name":"","type":"bool"}],"stateMutability":"view","type":"function"},{"inputs":[{"internalType":"uint256","name":"tokenId","type":"uint256"}],"name":"getApproved","outputs":[{"internalType":"address","name":"","type":"address"}],"stateMutability":"view","type":"function"},{"inputs":[{"internalType":"address","name":"owner","type":"address"},{"internalType":"address","name":"operator","type":"address"}],"name":"isApprovedForAll","outputs":[{"internalType":"bool","name":"","type":"bool"}],"stateMutability":"view","type":"function"},{"inputs":[],"name":"name","outputs":[{"internalType":"string","name":"","type":"string"}],"stateMutability":"view","type":"function"},{"inputs":[{"internalType":"uint256","name":"","type":"uint256"}],"name":"nameExpires","outputs":[{"internalType":"uint256","name":"","type":"uint256"}],"stateMutability":"view","type":"function"},{"inputs":[],"name":"owner","outputs":[{"internalType":"address","name":"","type":"address"}],"stateMutability":"view","type":"function"},{"inputs":[{"internalType":"uint256","name":"tokenId","type":"uint256"}],"name":"ownerOf","outputs":[{"internalType":"address","name":"","type":"address"}],"stateMutability":"view","type":"function"},{"inputs":[{"internalType":"uint256","name":"id","type":"uint256"},{"internalType":"address","name":"owner_","type":"address"}],"name":"reclaim","outputs":[],"stateMutability":"nonpayable","type":"function"},{"inputs":[{"internalType":"uint256","name":"id","type":"uint256"},{"internalType":"address","name":"owner_","type":"address"},{"internalType":"uint256","name":"duration","type":"uint256"}],"name":"register","outputs":[{"internalType":"uint256","name":"","type":"uint256"}],"stateMutability":"nonpayable","type":"function"},{"inputs":[{"internalType":"uint256","name":"id","type":"uint256"},{"internalType":"address","name":"owner_","type":"address"},{"internalType":"uint256","name":"duration","type":"uint256"},{"internalType":"address","name":"resolver_","type":"address"}],"name":"registerWithResolver","outputs":[{"internalType":"uint256","name":"","type":"uint256"}],"stateMutability":"nonpayable","type":"function"},{"inputs":[],"name":"registry","outputs":[{"internalType":"contract IArcNSRegistry","name":"","type":"address"}],"stateMutability":"view","type":"function"},{"inputs":[{"internalType":"address","name":"controller","type":"address"}],"name":"removeController","outputs":[],"stateMutability":"nonpayable","type":"function"},{"inputs":[{"internalType":"uint256","name":"id","type":"uint256"},{"internalType":"uint256","name":"duration","type":"uint256"}],"name":"renew","outputs":[{"internalType":"uint256","name":"","type":"uint256"}],"stateMutability":"nonpayable","type":"function"},{"inputs":[],"name":"renounceOwnership","outputs":[],"stateMutability":"nonpayable","type":"function"},{"inputs":[{"internalType":"address","name":"from","type":"address"},{"internalType":"address","name":"to","type":"address"},{"internalType":"uint256","name":"tokenId","type":"uint256"}],"name":"safeTransferFrom","outputs":[],"stateMutability":"nonpayable","type":"function"},{"inputs":[{"internalType":"address","name":"from","type":"address"},{"internalType":"address","name":"to","type":"address"},{"internalType":"uint256","name":"tokenId","type":"uint256"},{"internalType":"bytes","name":"data","type":"bytes"}],"name":"safeTransferFrom","outputs":[],"stateMutability":"nonpayable","type":"function"},{"inputs":[{"internalType":"address","name":"operator","type":"address"},{"internalType":"bool","name":"approved","type":"bool"}],"name":"setApprovalForAll","outputs":[],"stateMutability":"nonpayable","type":"function"},{"inputs":[{"internalType":"bytes4","name":"interfaceId","type":"bytes4"}],"name":"supportsInterface","outputs":[{"internalType":"bool","name":"","type":"bool"}],"stateMutability":"view","type":"function"},{"inputs":[],"name":"symbol","outputs":[{"internalType":"string","name":"","type":"string"}],"stateMutability":"view","type":"function"},{"inputs":[],"name":"tld","outputs":[{"internalType":"string","name":"","type":"string"}],"stateMutability":"view","type":"function"},{"inputs":[{"internalType":"uint256","name":"tokenId","type":"uint256"}],"name":"tokenURI","outputs":[{"internalType":"string","name":"","type":"string"}],"stateMutability":"view","type":"function"},{"inputs":[{"internalType":"address","name":"from","type":"address"},{"internalType":"address","name":"to","type":"address"},{"internalType":"uint256","name":"tokenId","type":"uint256"}],"name":"transferFrom","outputs":[],"stateMutability":"nonpayable","type":"function"},{"inputs":[{"internalType":"address","name":"newOwner","type":"address"}],"name":"transferOwnership","outputs":[],"stateMutability":"nonpayable","type":"function"}],"evm":{"bytecode":{"linkReferences":{},"object":"60c080604052346105c557612e5c803803809161001c82856105c9565b83398101906060818303126105c5578051906001600160a01b03821682036105c5576020810151604082015190916001600160401b0382116105c557019183601f840112156105c55782516001600160401b0381116103de576040519361008d601f8301601f1916602001866105c9565b8185526020850195602083830101116105c557815f926020809301885e8501015260405165020b931a729960d51b60208201526100ef60056026838751808a8484015e810164204e616d6560d81b838201520301601a198101845201826105c9565b61012660266040518097654152434e532d60d01b6020830152875180918484015e81015f838201520301601f1981018752866105c9565b8051906001600160401b0382116103de575f5490600182811c921680156105bb575b60208310146103c05781601f84931161054e575b50602090601f83116001146104eb575f926104e0575b50508160011b915f199060031b1c1916175f555b83516001600160401b0381116103de57600154600181811c911680156104d6575b60208210146103c057601f8111610473575b50602094601f8211600114610410579481929394955f92610405575b50508160011b915f199060031b1c1916176001555b33156103f25760068054336001600160a01b0319821681179092556001600160a01b03167f8be0079c531659141344cd1fd0a4f28419497f9722a3daafe3b4186f6b6457e05f80a360805260a05280516001600160401b0381116103de57600754600181811c911680156103d4575b60208210146103c057601f811161035d575b50602091601f82116001146102fd579181925f926102f2575b50508160011b915f199060031b1c1916176007555b60405161286f90816105ed82396080518181816101b201528181611059015281816114ea0152818161169c0152611907015260a0518181816101880152818161050b01528181611026015281816114c201526118dd0152f35b015190505f80610284565b601f1982169260075f52805f20915f5b8581106103455750836001951061032d575b505050811b01600755610299565b01515f1960f88460031b161c191690555f808061031f565b9192602060018192868501518155019401920161030d565b60075f527fa66cc928b5edb82af9bd49922954155ab7b0942694bea4ce44661d9a8736c688601f830160051c810191602084106103b6575b601f0160051c01905b8181106103ab575061026b565b5f815560010161039e565b9091508190610395565b634e487b7160e01b5f52602260045260245ffd5b90607f1690610259565b634e487b7160e01b5f52604160045260245ffd5b631e4fbdf760e01b5f525f60045260245ffd5b015190505f806101d5565b601f1982169560015f52805f20915f5b88811061045b57508360019596979810610443575b505050811b016001556101ea565b01515f1960f88460031b161c191690555f8080610435565b91926020600181928685015181550194019201610420565b60015f527fb10e2d527612073b26eecdfd717e6a320cf44b4afac2b0732d9fcbe2b7fa0cf6601f830160051c810191602084106104cc575b601f0160051c01905b8181106104c157506101b9565b5f81556001016104b4565b90915081906104ab565b90607f16906101a7565b015190505f80610172565b5f8080528281209350601f198516905b818110610536575090846001959493921061051e575b505050811b015f55610186565b01515f1960f88460031b161c191690555f8080610511565b929360206001819287860151815501950193016104fb565b5f80529091507f290decd9548b62a8d60345a988386fc84ba6bc95484008f6362f93160ef3e563601f840160051c810191602085106105b1575b90601f859493920160051c01905b8181106105a3575061015c565b5f8155849350600101610596565b9091508190610588565b91607f1691610148565b5f80fd5b601f909101601f19168101906001600160401b038211908210176103de5760405256fe6080806040526004361015610012575f80fd5b5f905f3560e01c90816301ffc9a714611c345750806306fdde0314611b92578063081812fc14611b56578063095ea7b314611a6c57806323b872dd14611a5557806328ed4f6c146118b25780632d551432146117e857806342842e0e146117bd5780636352211e1461177757806370a0823114611726578063715018a6146116cb5780637b103999146116875780637bd6b3a4146114825780638da5cb5b1461145957806395d89b411461137657806396e494e81461134d578063a22cb46514611291578063a7fc7a0714611228578063b88d4fde14611193578063c1a287e214611175578063c475abff14611005578063c87b56dd14610597578063d6e4fa861461056d578063da8c229e1461052e578063ddf7fcb0146104f3578063e985e9c51461049b578063f2fde38b14610412578063f6a74ed7146103ac5763fca247ac1461015d575f80fd5b346103a95760603660031901126103a957600435610179611cd9565b6040516302571be360e01b81527f00000000000000000000000000000000000000000000000000000000000000006004820181905292907f00000000000000000000000000000000000000000000000000000000000000006001600160a01b031690602081602481855afa90811561039e57869261021060209387936102b49a91610371575b506001600160a01b03163014611f1f565b3384526009835261022760ff604086205416611fc6565b6102386102338661209b565b612024565b84846102466044354261207a565b828252600886526040808320829055838352600287528220549099906001600160a01b031661034a576102798386612484565b6040516306ab592360e01b8152600481019190915260248101929092526001600160a01b039093166044820152978892839182906064820190565b03925af190811561033e5750610308575b604051838152602094506001600160a01b03909216917fb3d987963d01b2f68493b4bdb130988f157ea43070d4ad840fee0466ed9370d9908590a3604051908152f35b6020843d602011610336575b8161032160209383611d61565b8101031261033257602093506102c5565b5f80fd5b3d9150610314565b604051903d90823e3d90fd5b82825260028652604082205461036c90849087906001600160a01b031661242a565b610279565b6103919150853d8711610397575b6103898183611d61565b810190611f00565b5f6101ff565b503d61037f565b6040513d88823e3d90fd5b80fd5b50346103a95760203660031901126103a9576103c6611cc3565b6103ce612403565b6001600160a01b0316808252600960205260408220805460ff191690557f33d83959be2573f5453b12eb9d43b3499bc57d96bd2f067ba44803c859e811138280a280f35b50346103a95760203660031901126103a95761042c611cc3565b610434612403565b6001600160a01b0316801561048757600680546001600160a01b0319811683179091556001600160a01b03167f8be0079c531659141344cd1fd0a4f28419497f9722a3daafe3b4186f6b6457e08380a380f35b631e4fbdf760e01b82526004829052602482fd5b50346103a95760403660031901126103a95760406104b7611cc3565b916104c0611cd9565b9260018060a01b031681526005602052209060018060a01b03165f52602052602060ff60405f2054166040519015158152f35b50346103a957806003193601126103a95760206040517f00000000000000000000000000000000000000000000000000000000000000008152f35b50346103a95760203660031901126103a95760209060ff906040906001600160a01b03610559611cc3565b168152600984522054166040519015158152f35b50346103a95760203660031901126103a95760406020916004358152600883522054604051908152f35b50346103a95760203660031901126103a9576004356105b581612280565b50604051906105c5606083611d61565b6040808352602083019036823760409182516105e18482611d61565b601081526f181899199a1a9b1b9c1cb0b131b232b360811b6020820152855b60208110610f6157505061067683946106446022602196518096602082019461060f60f31b86525180918484015e81018a838201520301601f198101865285611d61565b61066886519586926020840196518091885e8301601760f91b6020820152016121f9565b03601f198101855284611d61565b84526008602052828420549061068b82612526565b91421191825f14610f3c5784516106a28682611d61565b600781526608d9598d0d0d0d60ca1b60208201525b8315610f175785516106c98782611d61565b60078152661156141254915160ca1b6020820152905b86517f3c73766720786d6c6e733d22687474703a2f2f7777772e77332e6f72672f32306020808301919091527f30302f737667222077696474683d2234303022206865696768743d2234303022828a01527f2076696577426f783d223020302034303020343030223e00000000000000000060608301527f3c646566733e3c6c696e6561724772616469656e742069643d2262672220783160778301527f3d223025222079313d223025222078323d2231303025222079323d2231303025609783015261111f60f11b60b78301527f3c73746f70206f66667365743d22302522207374796c653d2273746f702d636f60b98301527f6c6f723a23306631373261222f3e3c73746f70206f66667365743d223130302560d98301527f22207374796c653d2273746f702d636f6c6f723a23316533613566222f3e3c2f60f9830152753634b732b0b923b930b234b2b73a1f1e17b232b3399f60511b6101198301527f3c726563742077696474683d2234303022206865696768743d2234303022206661012f8301527f696c6c3d2275726c2823626729222072783d223230222f3e000000000000000061014f8301527f3c636972636c652063783d22323030222063793d223132302220723d2235302261016783015266103334b6361e9160c91b610187830152825191938493909291810191808361018e87015e71111037b830b1b4ba3c9e911817189a91179f60711b61018e918601918201527f3c7465787420783d223230302220793d223133302220666f6e742d66616d696c6101a08201527f793d226d6f6e6f73706163652220666f6e742d73697a653d223332222066696c6101c082015262361e9160e91b6101e082015281519081846101e383015e7f2220746578742d616e63686f723d226d6964646c652220666f6e742d776569676101e3929091019182015273343a1e913137b632111f20a9219e17ba32bc3a1f60611b6102038201527f3c7465787420783d223230302220793d223232302220666f6e742d66616d696c6102178201527f793d226d6f6e6f73706163652220666f6e742d73697a653d223232222066696c6102378201527f6c3d22236666666666662220746578742d616e63686f723d226d6964646c652261025782015273103337b73a16bbb2b4b3b43a1e913137b632111f60611b61027782015289519061018e81019082908a9061028b015e0160550160a88101661e17ba32bc3a1f60c91b905260af81017f3c7265637420783d223134302220793d22323530222077696474683d22313230905260cf81017f22206865696768743d223238222072783d223134222066696c6c3d22000000009052815190818460eb83015e0160a8019070111037b830b1b4ba3c9e9118171911179f60791b6043830152605482017f3c7465787420783d223230302220793d223236392220666f6e742d66616d696c9052607482017f793d226d6f6e6f73706163652220666f6e742d73697a653d223132222066696c905262361e9160e91b6094830152518092609783015e01604301605481017f2220746578742d616e63686f723d226d6964646c65223e000000000000000000905281516020819301606b83015e661e17ba32bc3a1f60c91b9101606b8101919091527f3c7465787420783d223230302220793d223336302220666f6e742d66616d696c60728201527f793d226d6f6e6f73706163652220666f6e742d73697a653d223130222066696c60928201527f6c3d22233634373438622220746578742d616e63686f723d226d6964646c652260b28201527f3e417263204e616d6520536572766963653c2f746578743e000000000000000060d2820152651e17b9bb339f60d11b60ea8201520360d081018252610c439060f00182611d61565b610c4c906125c1565b9215610ef2578451610c5e8682611d61565b6007815266115e1c1a5c995960ca1b6020820152915b8551948594683d913730b6b2911d1160b91b602087015281518084602989015e7f222c226465736372697074696f6e223a224172634e5320646f6d61696e206e616029918801918201527f6d652e20446563656e7472616c697a6564206964656e74697479206f6e20417260498201527f6320546573746e65742e222c22696d616765223a22646174613a696d6167652f60698201526e1cdd99cade1b5b0ed8985cd94d8d0b608a1b60898201528151918290602001609883015e0160290190606f82017f222c2261747472696275746573223a5b7b2274726169745f74797065223a224490526f37b6b0b4b71116113b30b63ab2911d1160811b608f830152518092609f83015e01606f01603081017f227d2c7b2274726169745f74797065223a22544c44222c2276616c7565223a22905260508101601760f91b9052605101610dbe906121f9565b7f227d2c7b2274726169745f74797065223a22457870697279222c22646973706c8152602081017f61795f74797065223a2264617465222c2276616c7565223a0000000000000000905281516020819301603883015e01603881017f7d2c7b2274726169745f74797065223a22537461747573222c2276616c7565229052611d1160f11b605882015281516020819301605a83015e0160380163227d5d7d60e01b602282015203602201601b1981018252600401610e7c9082611d61565b610e85906125c1565b8151928391602083017f646174613a6170706c69636174696f6e2f6a736f6e3b6261736536342c000000905280516020819201603d85015e820190603d82015203603d01601f1981018352610eda9083611d61565b5180916020825260208201610eee91611c9f565b0390f35b8451610efe8682611d61565b600681526541637469766560d01b602082015291610c74565b8551610f238782611d61565b600681526541435449564560d01b6020820152906106df565b8451610f488682611d61565b600781526611991a9b19b2b160c91b60208201526106b7565b82811a6001600160f81b0319610f7e600483901c600f1685612501565b5116908260011b9183830460021484151715610ff157891a610fa0838a612501565b536001600160f81b031990610fb890600f1685612501565b511660018201809211610fdd5790610fd6600193928a1a9189612501565b5301610600565b634e487b7160e01b89526011600452602489fd5b634e487b7160e01b8a52601160045260248afd5b50346103a95760403660031901126103a9576040516302571be360e01b81527f00000000000000000000000000000000000000000000000000000000000000006004828101919091523591906020816024817f00000000000000000000000000000000000000000000000000000000000000006001600160a01b03165afa90811561116a57906110a691839161115157506001600160a01b03163014611f1f565b33815260096020526110be60ff604083205416611fc6565b818152600860205260408120546276a700810180911161113d57916040916110ea602094421115611f7a565b818152600884526111006024358483205461207a565b9281838593526008865220557f9b87a00e30f1ac65d898f070f8a3488fe60517182d0a2098e1b4b93a54aa9bd683604051848152a2604051908152f35b634e487b7160e01b82526011600452602482fd5b610391915060203d602011610397576103898183611d61565b6040513d84823e3d90fd5b50346103a957806003193601126103a95760206040516276a7008152f35b50346103a95760803660031901126103a9576111ad611cc3565b6111b5611cd9565b906064359067ffffffffffffffff8211611224573660238301121561122457816004013592846111e485611d97565b936111f26040519586611d61565b8585523660248783010111611220578561121d966024602093018388013785010152604435916120b9565b80f35b5080fd5b8380fd5b50346103a95760203660031901126103a957611242611cc3565b61124a612403565b6001600160a01b0316808252600960205260408220805460ff191660011790557f0a8bb31534c0ed46f380cb867bd5c803a189ced9a764e30b3a4991a9901d74748280a280f35b50346103a95760403660031901126103a9576112ab611cc3565b60243590811515809203611349573315611335576001600160a01b031690811561132157338352600560205260408320825f5260205260405f2060ff1981541660ff83161790556040519081527f17307eab39ab6107e8899845ad3d59bd9653f200f220920489ca2b5937696c3160203392a380f35b630b61174360e31b83526004829052602483fd5b63a9fbf51f60e01b83526004839052602483fd5b8280fd5b50346103a95760203660031901126103a957602061136c60043561209b565b6040519015158152f35b50346103a957806003193601126103a95760405190806001549061139982611d29565b808552916001811690811561143257506001146113d5575b610eee846113c181860382611d61565b604051918291602083526020830190611c9f565b600181527fb10e2d527612073b26eecdfd717e6a320cf44b4afac2b0732d9fcbe2b7fa0cf6939250905b808210611418575090915081016020016113c1826113b1565b9192600181602092548385880101520191019092916113ff565b60ff191660208087019190915292151560051b850190920192506113c191508390506113b1565b50346103a957806003193601126103a9576006546040516001600160a01b039091168152602090f35b346103325760803660031901126103325760043561149e611cd9565b6064356001600160a01b03811690819003610332576040516302571be360e01b81527f0000000000000000000000000000000000000000000000000000000000000000600482018190527f00000000000000000000000000000000000000000000000000000000000000006001600160a01b03169491602081602481895afa80156116395761153e915f9161166857506001600160a01b03163014611f1f565b335f52600960205261155660ff60405f205416611fc6565b6115626102338361209b565b61156e6044354261207a565b5f83815260086020908152604080832084905560029091529020549094906001600160a01b0316611644576115a38382612484565b853b156103325760a45f928360405198899485936305ef2c7f60e41b8552600485015287602485015260018060a01b03169788604485015260648401528160848401525af193841561163957602094611629575b507fb3d987963d01b2f68493b4bdb130988f157ea43070d4ad840fee0466ed9370d984604051858152a3604051908152f35b5f61163391611d61565b5f6115f7565b6040513d5f823e3d90fd5b825f526002602052611663838260018060a01b0360405f20541661242a565b6115a3565b611681915060203d602011610397576103898183611d61565b876101ff565b34610332575f366003190112610332576040517f00000000000000000000000000000000000000000000000000000000000000006001600160a01b03168152602090f35b34610332575f366003190112610332576116e3612403565b600680546001600160a01b031981169091555f906001600160a01b03167f8be0079c531659141344cd1fd0a4f28419497f9722a3daafe3b4186f6b6457e08280a3005b34610332576020366003190112610332576001600160a01b03611747611cc3565b168015611764575f526003602052602060405f2054604051908152f35b6322718ad960e21b5f525f60045260245ffd5b346103325760203660031901126103325760206117ab600435805f52600883526117a660405f20544210611f7a565b612280565b6040516001600160a01b039091168152f35b34610332576117e66117ce36611cef565b90604051926117de602085611d61565b5f84526120b9565b005b34610332575f366003190112610332576040515f60075461180881611d29565b808452906001811690811561188e5750600114611830575b610eee836113c181850382611d61565b60075f9081527fa66cc928b5edb82af9bd49922954155ab7b0942694bea4ce44661d9a8736c688939250905b808210611874575090915081016020016113c1611820565b91926001816020925483858801015201910190929161185c565b60ff191660208086019190915291151560051b840190910191506113c19050611820565b34610332576040366003190112610332576004356118ce611cd9565b6040516302571be360e01b81527f00000000000000000000000000000000000000000000000000000000000000006004820181905291907f00000000000000000000000000000000000000000000000000000000000000006001600160a01b031690602081602481855afa80156116395761195a915f91611a3657506001600160a01b03163014611f1f565b5f8481526002602052604090205461197e90859033906001600160a01b0316612378565b156119f1576040516306ab592360e01b8152600481019390935260248301939093526001600160a01b0316604482015290602090829060649082905f905af18015611639576119c957005b6117e69060203d6020116119ea575b6119e28183611d61565b810190611f6b565b503d6119d8565b60405162461bcd60e51b815260206004820152601e60248201527f426173655265676973747261723a206e6f7420746f6b656e206f776e657200006044820152606490fd5b611a4f915060203d602011610397576103898183611d61565b866101ff565b34610332576117e6611a6636611cef565b91611db3565b3461033257604036600319011261033257611a85611cc3565b602435611a9181612280565b33151580611b43575b80611b16575b611b035781906001600160a01b0384811691167f8c5be1e5ebec7d5bd14f71427d1e84f3dd0314c0f7b2291e5b200ac8c7c3b9255f80a45f90815260046020526040902080546001600160a01b0319166001600160a01b03909216919091179055005b63a9fbf51f60e01b5f523360045260245ffd5b506001600160a01b0381165f90815260056020908152604080832033845290915290205460ff1615611aa0565b506001600160a01b038116331415611a9a565b3461033257602036600319011261033257600435611b7381612280565b505f526004602052602060018060a01b0360405f205416604051908152f35b34610332575f366003190112610332576040515f8054611bb181611d29565b808452906001811690811561188e5750600114611bd857610eee836113c181850382611d61565b5f8080527f290decd9548b62a8d60345a988386fc84ba6bc95484008f6362f93160ef3e563939250905b808210611c1a575090915081016020016113c1611820565b919260018160209254838588010152019101909291611c02565b34610332576020366003190112610332576004359063ffffffff60e01b8216809203610332576020916380ac58cd60e01b8114908115611c8e575b8115611c7d575b5015158152f35b6301ffc9a760e01b14905083611c76565b635b5e139f60e01b81149150611c6f565b805180835260209291819084018484015e5f828201840152601f01601f1916010190565b600435906001600160a01b038216820361033257565b602435906001600160a01b038216820361033257565b6060906003190112610332576004356001600160a01b038116810361033257906024356001600160a01b0381168103610332579060443590565b90600182811c92168015611d57575b6020831014611d4357565b634e487b7160e01b5f52602260045260245ffd5b91607f1691611d38565b90601f8019910116810190811067ffffffffffffffff821117611d8357604052565b634e487b7160e01b5f52604160045260245ffd5b67ffffffffffffffff8111611d8357601f01601f191660200190565b6001600160a01b0390911691908215611eed575f828152600260205260409020546001600160a01b031692829033611ea7575b84611e74575b805f52600360205260405f2060018154019055815f52600260205260405f20816bffffffffffffffffffffffff60a01b825416179055847fddf252ad1be2c89b69c2b068fc378daa952ba7f163c4a11628f55a4df523b3ef5f80a46001600160a01b0316808303611e5c57505050565b6364283d7b60e01b5f5260045260245260445260645ffd5b5f82815260046020526040902080546001600160a01b0319169055845f52600360205260405f205f198154019055611dec565b90611eb3903386612378565b15611ebf578290611de6565b8284611ed757637e27328960e01b5f5260045260245ffd5b63177e802f60e01b5f523360045260245260445ffd5b633250574960e11b5f525f60045260245ffd5b9081602091031261033257516001600160a01b03811681036103325790565b15611f2657565b60405162461bcd60e51b815260206004820152601760248201527f426173655265676973747261723a206e6f74206c6976650000000000000000006044820152606490fd5b90816020910312610332575190565b15611f8157565b60405162461bcd60e51b815260206004820152601b60248201527f426173655265676973747261723a206e616d65206578706972656400000000006044820152606490fd5b15611fcd57565b60405162461bcd60e51b815260206004820152602960248201527f426173655265676973747261723a2063616c6c6572206973206e6f742061206360448201526837b73a3937b63632b960b91b6064820152608490fd5b1561202b57565b60405162461bcd60e51b815260206004820152602160248201527f426173655265676973747261723a206e616d65206e6f7420617661696c61626c6044820152606560f81b6064820152608490fd5b9190820180921161208757565b634e487b7160e01b5f52601160045260245ffd5b5f52600860205260405f20546276a700810180911161208757421190565b92916120c6818386611db3565b813b6120d3575b50505050565b604051630a85bd0160e11b81523360048201526001600160a01b039485166024820152604481019190915260806064820152921691906020908290819061211e906084830190611c9f565b03815f865af15f91816121b4575b5061218157503d1561217a573d61214281611d97565b906121506040519283611d61565b81523d5f602083013e5b805190816121755782633250574960e11b5f5260045260245ffd5b602001fd5b606061215a565b6001600160e01b03191663757a42ff60e11b016121a257505f8080806120cd565b633250574960e11b5f5260045260245ffd5b9091506020813d6020116121f1575b816121d060209383611d61565b8101031261033257516001600160e01b03198116810361033257905f61212c565b3d91506121c3565b6007545f929161220882611d29565b916001811690811561226e5750600114612220575050565b60075f90815292935090917fa66cc928b5edb82af9bd49922954155ab7b0942694bea4ce44661d9a8736c6885b83821061225a5750500190565b60018160209254848601520191019061224d565b60ff1916825250811515909102019150565b5f818152600260205260409020546001600160a01b03169081156122a2575090565b637e27328960e01b5f5260045260245ffd5b5f828152600260205260409020546001600160a01b0316919082612345575b6001600160a01b03168061232d575b815f52600260205260405f20816bffffffffffffffffffffffff60a01b825416179055827fddf252ad1be2c89b69c2b068fc378daa952ba7f163c4a11628f55a4df523b3ef5f80a490565b805f52600360205260405f20600181540190556122e2565b5f82815260046020526040902080546001600160a01b0319169055825f52600360205260405f205f1981540190556122d3565b6001600160a01b03909116801515929183612394575b50505090565b6001600160a01b0316808214935090919083156123e0575b5082156123be575b50505f808061238e565b5f908152600460205260408120546001600160a01b03169091149150806123b4565b9092505f52600560205260405f20815f5260205260ff60405f205416915f6123ac565b6006546001600160a01b0316330361241757565b63118cdaa760e01b5f523360045260245ffd5b919291906001600160a01b03811615611eed576001600160a01b03906124519085906122b4565b16908161246b5783637e27328960e01b5f5260045260245ffd5b919290916001600160a01b0316808303611e5c57505050565b906001600160a01b03821615611eed576001600160a01b03916124a791906122b4565b166124ae57565b6339e3563760e11b5f525f60045260245ffd5b5f1981146120875760010190565b906124d982611d97565b6124e66040519182611d61565b82815280926124f7601f1991611d97565b0190602036910137565b908151811015612512570160200190565b634e487b7160e01b5f52603260045260245ffd5b80156125a157805f81805b612589575061253f816124cf565b925b61254a57505090565b8015612087575f190190600a8106603001908160301161208757600a9160f81b6001600160f81b0319165f1a6125808486612501565b53049081612541565b9150612596600a916124c1565b910480839291612531565b506040516125b0604082611d61565b60018152600360fc1b602082015290565b80511561282457604051916125d7606084611d61565b604083527f4142434445464748494a4b4c4d4e4f505152535455565758595a61626364656660208401527f6768696a6b6c6d6e6f707172737475767778797a303132333435363738392b2f60408401528151600281018091116120875760039004600281901b92906001600160fe1b0381160361208757612657836124cf565b925f905f935b8351831080156127b457156127ae5761267f612678846124c1565b9385612501565b5160f81c5b84518410156127a8576126a0612699856124c1565b9486612501565b5160f81c5b85518510156127a1576126c16126ba866124c1565b9587612501565b5160f81c915b62ff000061ff0060ff85169360081b169160101b16171760ff60f81b6126f3603f8360121c168b612501565b51169661270c612702826124c1565b985f1a918a612501565b536001600160f81b0319612727600c83901c603f168b612501565b511696612736612702826124c1565b536001600160f81b0319906127519060061c603f168a612501565b51169561276a612760826124c1565b975f1a9189612501565b536001600160f81b03199061278290603f1689612501565b51169461279b612791826124c1565b965f1a9188612501565b5361265d565b5f916126c7565b5f6126a5565b5f612684565b50955092505060016003825106145f146127fd57505f198101818111612087576127e0603d9184612501565b536001198101908111612087576127f9603d9183612501565b5390565b600360029151061461280d575090565b5f198101908111612087576127f9603d9183612501565b50604051612833602082611d61565b5f81529056fea26469706673582212205238acd2816e6a5998d64198e341c2bd48a2cd4ba360abf5e9885ff41f48093364736f6c634300081a0033","opcodes":"PUSH1 0xC0 DUP1 PUSH1 0x40 MSTORE CALLVALUE PUSH2 0x5C5 JUMPI PUSH2 0x2E5C DUP1 CODESIZE SUB DUP1 SWAP2 PUSH2 0x1C DUP3 DUP6 PUSH2 0x5C9 JUMP JUMPDEST DUP4 CODECOPY DUP2 ADD SWAP1 PUSH1 0x60 DUP2 DUP4 SUB SLT PUSH2 0x5C5 JUMPI DUP1 MLOAD SWAP1 PUSH1 0x1 PUSH1 0x1 PUSH1 0xA0 SHL SUB DUP3 AND DUP3 SUB PUSH2 0x5C5 JUMPI PUSH1 0x20 DUP2 ADD MLOAD PUSH1 0x40 DUP3 ADD MLOAD SWAP1 SWAP2 PUSH1 0x1 PUSH1 0x1 PUSH1 0x40 SHL SUB DUP3 GT PUSH2 0x5C5 JUMPI ADD SWAP2 DUP4 PUSH1 0x1F DUP5 ADD SLT ISZERO PUSH2 0x5C5 JUMPI DUP3 MLOAD PUSH1 0x1 PUSH1 0x1 PUSH1 0x40 SHL SUB DUP2 GT PUSH2 0x3DE JUMPI PUSH1 0x40 MLOAD SWAP4 PUSH2 0x8D PUSH1 0x1F DUP4 ADD PUSH1 0x1F NOT AND PUSH1 0x20 ADD DUP7 PUSH2 0x5C9 JUMP JUMPDEST DUP2 DUP6 MSTORE PUSH1 0x20 DUP6 ADD SWAP6 PUSH1 0x20 DUP4 DUP4 ADD ADD GT PUSH2 0x5C5 JUMPI DUP2 PUSH0 SWAP3 PUSH1 0x20 DUP1 SWAP4 ADD DUP9 MCOPY DUP6 ADD ADD MSTORE PUSH1 0x40 MLOAD PUSH6 0x20B931A7299 PUSH1 0xD5 SHL PUSH1 0x20 DUP3 ADD MSTORE PUSH2 0xEF PUSH1 0x5 PUSH1 0x26 DUP4 DUP8 MLOAD DUP1 DUP11 DUP5 DUP5 ADD MCOPY DUP2 ADD PUSH5 0x204E616D65 PUSH1 0xD8 SHL DUP4 DUP3 ADD MSTORE SUB ADD PUSH1 0x1A NOT DUP2 ADD DUP5 MSTORE ADD DUP3 PUSH2 0x5C9 JUMP JUMPDEST PUSH2 0x126 PUSH1 0x26 PUSH1 0x40 MLOAD DUP1 SWAP8 PUSH6 0x4152434E532D PUSH1 0xD0 SHL PUSH1 0x20 DUP4 ADD MSTORE DUP8 MLOAD DUP1 SWAP2 DUP5 DUP5 ADD MCOPY DUP2 ADD PUSH0 DUP4 DUP3 ADD MSTORE SUB ADD PUSH1 0x1F NOT DUP2 ADD DUP8 MSTORE DUP7 PUSH2 0x5C9 JUMP JUMPDEST DUP1 MLOAD SWAP1 PUSH1 0x1 PUSH1 0x1 PUSH1 0x40 SHL SUB DUP3 GT PUSH2 0x3DE JUMPI PUSH0 SLOAD SWAP1 PUSH1 0x1 DUP3 DUP2 SHR SWAP3 AND DUP1 ISZERO PUSH2 0x5BB JUMPI JUMPDEST PUSH1 0x20 DUP4 LT EQ PUSH2 0x3C0 JUMPI DUP2 PUSH1 0x1F DUP5 SWAP4 GT PUSH2 0x54E JUMPI JUMPDEST POP PUSH1 0x20 SWAP1 PUSH1 0x1F DUP4 GT PUSH1 0x1 EQ PUSH2 0x4EB JUMPI PUSH0 SWAP3 PUSH2 0x4E0 JUMPI JUMPDEST POP POP DUP2 PUSH1 0x1 SHL SWAP2 PUSH0 NOT SWAP1 PUSH1 0x3 SHL SHR NOT AND OR PUSH0 SSTORE JUMPDEST DUP4 MLOAD PUSH1 0x1 PUSH1 0x1 PUSH1 0x40 SHL SUB DUP2 GT PUSH2 0x3DE JUMPI PUSH1 0x1 SLOAD PUSH1 0x1 DUP2 DUP2 SHR SWAP2 AND DUP1 ISZERO PUSH2 0x4D6 JUMPI JUMPDEST PUSH1 0x20 DUP3 LT EQ PUSH2 0x3C0 JUMPI PUSH1 0x1F DUP2 GT PUSH2 0x473 JUMPI JUMPDEST POP PUSH1 0x20 SWAP5 PUSH1 0x1F DUP3 GT PUSH1 0x1 EQ PUSH2 0x410 JUMPI SWAP5 DUP2 SWAP3 SWAP4 SWAP5 SWAP6 PUSH0 SWAP3 PUSH2 0x405 JUMPI JUMPDEST POP POP DUP2 PUSH1 0x1 SHL SWAP2 PUSH0 NOT SWAP1 PUSH1 0x3 SHL SHR NOT AND OR PUSH1 0x1 SSTORE JUMPDEST CALLER ISZERO PUSH2 0x3F2 JUMPI PUSH1 0x6 DUP1 SLOAD CALLER PUSH1 0x1 PUSH1 0x1 PUSH1 0xA0 SHL SUB NOT DUP3 AND DUP2 OR SWAP1 SWAP3 SSTORE PUSH1 0x1 PUSH1 0x1 PUSH1 0xA0 SHL SUB AND PUSH32 0x8BE0079C531659141344CD1FD0A4F28419497F9722A3DAAFE3B4186F6B6457E0 PUSH0 DUP1 LOG3 PUSH1 0x80 MSTORE PUSH1 0xA0 MSTORE DUP1 MLOAD PUSH1 0x1 PUSH1 0x1 PUSH1 0x40 SHL SUB DUP2 GT PUSH2 0x3DE JUMPI PUSH1 0x7 SLOAD PUSH1 0x1 DUP2 DUP2 SHR SWAP2 AND DUP1 ISZERO PUSH2 0x3D4 JUMPI JUMPDEST PUSH1 0x20 DUP3 LT EQ PUSH2 0x3C0 JUMPI PUSH1 0x1F DUP2 GT PUSH2 0x35D JUMPI JUMPDEST POP PUSH1 0x20 SWAP2 PUSH1 0x1F DUP3 GT PUSH1 0x1 EQ PUSH2 0x2FD JUMPI SWAP2 DUP2 SWAP3 PUSH0 SWAP3 PUSH2 0x2F2 JUMPI JUMPDEST POP POP DUP2 PUSH1 0x1 SHL SWAP2 PUSH0 NOT SWAP1 PUSH1 0x3 SHL SHR NOT AND OR PUSH1 0x7 SSTORE JUMPDEST PUSH1 0x40 MLOAD PUSH2 0x286F SWAP1 DUP2 PUSH2 0x5ED DUP3 CODECOPY PUSH1 0x80 MLOAD DUP2 DUP2 DUP2 PUSH2 0x1B2 ADD MSTORE DUP2 DUP2 PUSH2 0x1059 ADD MSTORE DUP2 DUP2 PUSH2 0x14EA ADD MSTORE DUP2 DUP2 PUSH2 0x169C ADD MSTORE PUSH2 0x1907 ADD MSTORE PUSH1 0xA0 MLOAD DUP2 DUP2 DUP2 PUSH2 0x188 ADD MSTORE DUP2 DUP2 PUSH2 0x50B ADD MSTORE DUP2 DUP2 PUSH2 0x1026 ADD MSTORE DUP2 DUP2 PUSH2 0x14C2 ADD MSTORE PUSH2 0x18DD ADD MSTORE RETURN JUMPDEST ADD MLOAD SWAP1 POP PUSH0 DUP1 PUSH2 0x284 JUMP JUMPDEST PUSH1 0x1F NOT DUP3 AND SWAP3 PUSH1 0x7 PUSH0 MSTORE DUP1 PUSH0 KECCAK256 SWAP2 PUSH0 JUMPDEST DUP6 DUP2 LT PUSH2 0x345 JUMPI POP DUP4 PUSH1 0x1 SWAP6 LT PUSH2 0x32D JUMPI JUMPDEST POP POP POP DUP2 SHL ADD PUSH1 0x7 SSTORE PUSH2 0x299 JUMP JUMPDEST ADD MLOAD PUSH0 NOT PUSH1 0xF8 DUP5 PUSH1 0x3 SHL AND SHR NOT AND SWAP1 SSTORE PUSH0 DUP1 DUP1 PUSH2 0x31F JUMP JUMPDEST SWAP2 SWAP3 PUSH1 0x20 PUSH1 0x1 DUP2 SWAP3 DUP7 DUP6 ADD MLOAD DUP2 SSTORE ADD SWAP5 ADD SWAP3 ADD PUSH2 0x30D JUMP JUMPDEST PUSH1 0x7 PUSH0 MSTORE PUSH32 0xA66CC928B5EDB82AF9BD49922954155AB7B0942694BEA4CE44661D9A8736C688 PUSH1 0x1F DUP4 ADD PUSH1 0x5 SHR DUP2 ADD SWAP2 PUSH1 0x20 DUP5 LT PUSH2 0x3B6 JUMPI JUMPDEST PUSH1 0x1F ADD PUSH1 0x5 SHR ADD SWAP1 JUMPDEST DUP2 DUP2 LT PUSH2 0x3AB JUMPI POP PUSH2 0x26B JUMP JUMPDEST PUSH0 DUP2 SSTORE PUSH1 0x1 ADD PUSH2 0x39E JUMP JUMPDEST SWAP1 SWAP2 POP DUP2 SWAP1 PUSH2 0x395 JUMP JUMPDEST PUSH4 0x4E487B71 PUSH1 0xE0 SHL PUSH0 MSTORE PUSH1 0x22 PUSH1 0x4 MSTORE PUSH1 0x24 PUSH0 REVERT JUMPDEST SWAP1 PUSH1 0x7F AND SWAP1 PUSH2 0x259 JUMP JUMPDEST PUSH4 0x4E487B71 PUSH1 0xE0 SHL PUSH0 MSTORE PUSH1 0x41 PUSH1 0x4 MSTORE PUSH1 0x24 PUSH0 REVERT JUMPDEST PUSH4 0x1E4FBDF7 PUSH1 0xE0 SHL PUSH0 MSTORE PUSH0 PUSH1 0x4 MSTORE PUSH1 0x24 PUSH0 REVERT JUMPDEST ADD MLOAD SWAP1 POP PUSH0 DUP1 PUSH2 0x1D5 JUMP JUMPDEST PUSH1 0x1F NOT DUP3 AND SWAP6 PUSH1 0x1 PUSH0 MSTORE DUP1 PUSH0 KECCAK256 SWAP2 PUSH0 JUMPDEST DUP9 DUP2 LT PUSH2 0x45B JUMPI POP DUP4 PUSH1 0x1 SWAP6 SWAP7 SWAP8 SWAP9 LT PUSH2 0x443 JUMPI JUMPDEST POP POP POP DUP2 SHL ADD PUSH1 0x1 SSTORE PUSH2 0x1EA JUMP JUMPDEST ADD MLOAD PUSH0 NOT PUSH1 0xF8 DUP5 PUSH1 0x3 SHL AND SHR NOT AND SWAP1 SSTORE PUSH0 DUP1 DUP1 PUSH2 0x435 JUMP JUMPDEST SWAP2 SWAP3 PUSH1 0x20 PUSH1 0x1 DUP2 SWAP3 DUP7 DUP6 ADD MLOAD DUP2 SSTORE ADD SWAP5 ADD SWAP3 ADD PUSH2 0x420 JUMP JUMPDEST PUSH1 0x1 PUSH0 MSTORE PUSH32 0xB10E2D527612073B26EECDFD717E6A320CF44B4AFAC2B0732D9FCBE2B7FA0CF6 PUSH1 0x1F DUP4 ADD PUSH1 0x5 SHR DUP2 ADD SWAP2 PUSH1 0x20 DUP5 LT PUSH2 0x4CC JUMPI JUMPDEST PUSH1 0x1F ADD PUSH1 0x5 SHR ADD SWAP1 JUMPDEST DUP2 DUP2 LT PUSH2 0x4C1 JUMPI POP PUSH2 0x1B9 JUMP JUMPDEST PUSH0 DUP2 SSTORE PUSH1 0x1 ADD PUSH2 0x4B4 JUMP JUMPDEST SWAP1 SWAP2 POP DUP2 SWAP1 PUSH2 0x4AB JUMP JUMPDEST SWAP1 PUSH1 0x7F AND SWAP1 PUSH2 0x1A7 JUMP JUMPDEST ADD MLOAD SWAP1 POP PUSH0 DUP1 PUSH2 0x172 JUMP JUMPDEST PUSH0 DUP1 DUP1 MSTORE DUP3 DUP2 KECCAK256 SWAP4 POP PUSH1 0x1F NOT DUP6 AND SWAP1 JUMPDEST DUP2 DUP2 LT PUSH2 0x536 JUMPI POP SWAP1 DUP5 PUSH1 0x1 SWAP6 SWAP5 SWAP4 SWAP3 LT PUSH2 0x51E JUMPI JUMPDEST POP POP POP DUP2 SHL ADD PUSH0 SSTORE PUSH2 0x186 JUMP JUMPDEST ADD MLOAD PUSH0 NOT PUSH1 0xF8 DUP5 PUSH1 0x3 SHL AND SHR NOT AND SWAP1 SSTORE PUSH0 DUP1 DUP1 PUSH2 0x511 JUMP JUMPDEST SWAP3 SWAP4 PUSH1 0x20 PUSH1 0x1 DUP2 SWAP3 DUP8 DUP7 ADD MLOAD DUP2 SSTORE ADD SWAP6 ADD SWAP4 ADD PUSH2 0x4FB JUMP JUMPDEST PUSH0 DUP1 MSTORE SWAP1 SWAP2 POP PUSH32 0x290DECD9548B62A8D60345A988386FC84BA6BC95484008F6362F93160EF3E563 PUSH1 0x1F DUP5 ADD PUSH1 0x5 SHR DUP2 ADD SWAP2 PUSH1 0x20 DUP6 LT PUSH2 0x5B1 JUMPI JUMPDEST SWAP1 PUSH1 0x1F DUP6 SWAP5 SWAP4 SWAP3 ADD PUSH1 0x5 SHR ADD SWAP1 JUMPDEST DUP2 DUP2 LT PUSH2 0x5A3 JUMPI POP PUSH2 0x15C JUMP JUMPDEST PUSH0 DUP2 SSTORE DUP5 SWAP4 POP PUSH1 0x1 ADD PUSH2 0x596 JUMP JUMPDEST SWAP1 SWAP2 POP DUP2 SWAP1 PUSH2 0x588 JUMP JUMPDEST SWAP2 PUSH1 0x7F AND SWAP2 PUSH2 0x148 JUMP JUMPDEST PUSH0 DUP1 REVERT JUMPDEST PUSH1 0x1F SWAP1 SWAP2 ADD PUSH1 0x1F NOT AND DUP2 ADD SWAP1 PUSH1 0x1 PUSH1 0x1 PUSH1 0x40 SHL SUB DUP3 GT SWAP1 DUP3 LT OR PUSH2 0x3DE JUMPI PUSH1 0x40 MSTORE JUMP INVALID PUSH1 0x80 DUP1 PUSH1 0x40 MSTORE PUSH1 0x4 CALLDATASIZE LT ISZERO PUSH2 0x12 JUMPI PUSH0 DUP1 REVERT JUMPDEST PUSH0 SWAP1 PUSH0 CALLDATALOAD PUSH1 0xE0 SHR SWAP1 DUP2 PUSH4 0x1FFC9A7 EQ PUSH2 0x1C34 JUMPI POP DUP1 PUSH4 0x6FDDE03 EQ PUSH2 0x1B92 JUMPI DUP1 PUSH4 0x81812FC EQ PUSH2 0x1B56 JUMPI DUP1 PUSH4 0x95EA7B3 EQ PUSH2 0x1A6C JUMPI DUP1 PUSH4 0x23B872DD EQ PUSH2 0x1A55 JUMPI DUP1 PUSH4 0x28ED4F6C EQ PUSH2 0x18B2 JUMPI DUP1 PUSH4 0x2D551432 EQ PUSH2 0x17E8 JUMPI DUP1 PUSH4 0x42842E0E EQ PUSH2 0x17BD JUMPI DUP1 PUSH4 0x6352211E EQ PUSH2 0x1777 JUMPI DUP1 PUSH4 0x70A08231 EQ PUSH2 0x1726 JUMPI DUP1 PUSH4 0x715018A6 EQ PUSH2 0x16CB JUMPI DUP1 PUSH4 0x7B103999 EQ PUSH2 0x1687 JUMPI DUP1 PUSH4 0x7BD6B3A4 EQ PUSH2 0x1482 JUMPI DUP1 PUSH4 0x8DA5CB5B EQ PUSH2 0x1459 JUMPI DUP1 PUSH4 0x95D89B41 EQ PUSH2 0x1376 JUMPI DUP1 PUSH4 0x96E494E8 EQ PUSH2 0x134D JUMPI DUP1 PUSH4 0xA22CB465 EQ PUSH2 0x1291 JUMPI DUP1 PUSH4 0xA7FC7A07 EQ PUSH2 0x1228 JUMPI DUP1 PUSH4 0xB88D4FDE EQ PUSH2 0x1193 JUMPI DUP1 PUSH4 0xC1A287E2 EQ PUSH2 0x1175 JUMPI DUP1 PUSH4 0xC475ABFF EQ PUSH2 0x1005 JUMPI DUP1 PUSH4 0xC87B56DD EQ PUSH2 0x597 JUMPI DUP1 PUSH4 0xD6E4FA86 EQ PUSH2 0x56D JUMPI DUP1 PUSH4 0xDA8C229E EQ PUSH2 0x52E JUMPI DUP1 PUSH4 0xDDF7FCB0 EQ PUSH2 0x4F3 JUMPI DUP1 PUSH4 0xE985E9C5 EQ PUSH2 0x49B JUMPI DUP1 PUSH4 0xF2FDE38B EQ PUSH2 0x412 JUMPI DUP1 PUSH4 0xF6A74ED7 EQ PUSH2 0x3AC JUMPI PUSH4 0xFCA247AC EQ PUSH2 0x15D JUMPI PUSH0 DUP1 REVERT JUMPDEST CALLVALUE PUSH2 0x3A9 JUMPI PUSH1 0x60 CALLDATASIZE PUSH1 0x3 NOT ADD SLT PUSH2 0x3A9 JUMPI PUSH1 0x4 CALLDATALOAD PUSH2 0x179 PUSH2 0x1CD9 JUMP JUMPDEST PUSH1 0x40 MLOAD PUSH4 0x2571BE3 PUSH1 0xE0 SHL DUP2 MSTORE PUSH32 0x0 PUSH1 0x4 DUP3 ADD DUP2 SWAP1 MSTORE SWAP3 SWAP1 PUSH32 0x0 PUSH1 0x1 PUSH1 0x1 PUSH1 0xA0 SHL SUB AND SWAP1 PUSH1 0x20 DUP2 PUSH1 0x24 DUP2 DUP6 GAS STATICCALL SWAP1 DUP2 ISZERO PUSH2 0x39E JUMPI DUP7 SWAP3 PUSH2 0x210 PUSH1 0x20 SWAP4 DUP8 SWAP4 PUSH2 0x2B4 SWAP11 SWAP2 PUSH2 0x371 JUMPI JUMPDEST POP PUSH1 0x1 PUSH1 0x1 PUSH1 0xA0 SHL SUB AND ADDRESS EQ PUSH2 0x1F1F JUMP JUMPDEST CALLER DUP5 MSTORE PUSH1 0x9 DUP4 MSTORE PUSH2 0x227 PUSH1 0xFF PUSH1 0x40 DUP7 KECCAK256 SLOAD AND PUSH2 0x1FC6 JUMP JUMPDEST PUSH2 0x238 PUSH2 0x233 DUP7 PUSH2 0x209B JUMP JUMPDEST PUSH2 0x2024 JUMP JUMPDEST DUP5 DUP5 PUSH2 0x246 PUSH1 0x44 CALLDATALOAD TIMESTAMP PUSH2 0x207A JUMP JUMPDEST DUP3 DUP3 MSTORE PUSH1 0x8 DUP7 MSTORE PUSH1 0x40 DUP1 DUP4 KECCAK256 DUP3 SWAP1 SSTORE DUP4 DUP4 MSTORE PUSH1 0x2 DUP8 MSTORE DUP3 KECCAK256 SLOAD SWAP1 SWAP10 SWAP1 PUSH1 0x1 PUSH1 0x1 PUSH1 0xA0 SHL SUB AND PUSH2 0x34A JUMPI PUSH2 0x279 DUP4 DUP7 PUSH2 0x2484 JUMP JUMPDEST PUSH1 0x40 MLOAD PUSH4 0x6AB5923 PUSH1 0xE0 SHL DUP2 MSTORE PUSH1 0x4 DUP2 ADD SWAP2 SWAP1 SWAP2 MSTORE PUSH1 0x24 DUP2 ADD SWAP3 SWAP1 SWAP3 MSTORE PUSH1 0x1 PUSH1 0x1 PUSH1 0xA0 SHL SUB SWAP1 SWAP4 AND PUSH1 0x44 DUP3 ADD MSTORE SWAP8 DUP9 SWAP3 DUP4 SWAP2 DUP3 SWAP1 PUSH1 0x64 DUP3 ADD SWAP1 JUMP JUMPDEST SUB SWAP3 GAS CALL SWAP1 DUP2 ISZERO PUSH2 0x33E JUMPI POP PUSH2 0x308 JUMPI JUMPDEST PUSH1 0x40 MLOAD DUP4 DUP2 MSTORE PUSH1 0x20 SWAP5 POP PUSH1 0x1 PUSH1 0x1 PUSH1 0xA0 SHL SUB SWAP1 SWAP3 AND SWAP2 PUSH32 0xB3D987963D01B2F68493B4BDB130988F157EA43070D4AD840FEE0466ED9370D9 SWAP1 DUP6 SWAP1 LOG3 PUSH1 0x40 MLOAD SWAP1 DUP2 MSTORE RETURN JUMPDEST PUSH1 0x20 DUP5 RETURNDATASIZE PUSH1 0x20 GT PUSH2 0x336 JUMPI JUMPDEST DUP2 PUSH2 0x321 PUSH1 0x20 SWAP4 DUP4 PUSH2 0x1D61 JUMP JUMPDEST DUP2 ADD SUB SLT PUSH2 0x332 JUMPI PUSH1 0x20 SWAP4 POP PUSH2 0x2C5 JUMP JUMPDEST PUSH0 DUP1 REVERT JUMPDEST RETURNDATASIZE SWAP2 POP PUSH2 0x314 JUMP JUMPDEST PUSH1 0x40 MLOAD SWAP1 RETURNDATASIZE SWAP1 DUP3 RETURNDATACOPY RETURNDATASIZE SWAP1 REVERT JUMPDEST DUP3 DUP3 MSTORE PUSH1 0x2 DUP7 MSTORE PUSH1 0x40 DUP3 KECCAK256 SLOAD PUSH2 0x36C SWAP1 DUP5 SWAP1 DUP8 SWAP1 PUSH1 0x1 PUSH1 0x1 PUSH1 0xA0 SHL SUB AND PUSH2 0x242A JUMP JUMPDEST PUSH2 0x279 JUMP JUMPDEST PUSH2 0x391 SWAP2 POP DUP6 RETURNDATASIZE DUP8 GT PUSH2 0x397 JUMPI JUMPDEST PUSH2 0x389 DUP2 DUP4 PUSH2 0x1D61 JUMP JUMPDEST DUP2 ADD SWAP1 PUSH2 0x1F00 JUMP JUMPDEST PUSH0 PUSH2 0x1FF JUMP JUMPDEST POP RETURNDATASIZE PUSH2 0x37F JUMP JUMPDEST PUSH1 0x40 MLOAD RETURNDATASIZE DUP9 DUP3 RETURNDATACOPY RETURNDATASIZE SWAP1 REVERT JUMPDEST DUP1 REVERT JUMPDEST POP CALLVALUE PUSH2 0x3A9 JUMPI PUSH1 0x20 CALLDATASIZE PUSH1 0x3 NOT ADD SLT PUSH2 0x3A9 JUMPI PUSH2 0x3C6 PUSH2 0x1CC3 JUMP JUMPDEST PUSH2 0x3CE PUSH2 0x2403 JUMP JUMPDEST PUSH1 0x1 PUSH1 0x1 PUSH1 0xA0 SHL SUB AND DUP1 DUP3 MSTORE PUSH1 0x9 PUSH1 0x20 MSTORE PUSH1 0x40 DUP3 KECCAK256 DUP1 SLOAD PUSH1 0xFF NOT AND SWAP1 SSTORE PUSH32 0x33D83959BE2573F5453B12EB9D43B3499BC57D96BD2F067BA44803C859E81113 DUP3 DUP1 LOG2 DUP1 RETURN JUMPDEST POP CALLVALUE PUSH2 0x3A9 JUMPI PUSH1 0x20 CALLDATASIZE PUSH1 0x3 NOT ADD SLT PUSH2 0x3A9 JUMPI PUSH2 0x42C PUSH2 0x1CC3 JUMP JUMPDEST PUSH2 0x434 PUSH2 0x2403 JUMP JUMPDEST PUSH1 0x1 PUSH1 0x1 PUSH1 0xA0 SHL SUB AND DUP1 ISZERO PUSH2 0x487 JUMPI PUSH1 0x6 DUP1 SLOAD PUSH1 0x1 PUSH1 0x1 PUSH1 0xA0 SHL SUB NOT DUP2 AND DUP4 OR SWAP1 SWAP2 SSTORE PUSH1 0x1 PUSH1 0x1 PUSH1 0xA0 SHL SUB AND PUSH32 0x8BE0079C531659141344CD1FD0A4F28419497F9722A3DAAFE3B4186F6B6457E0 DUP4 DUP1 LOG3 DUP1 RETURN JUMPDEST PUSH4 0x1E4FBDF7 PUSH1 0xE0 SHL DUP3 MSTORE PUSH1 0x4 DUP3 SWAP1 MSTORE PUSH1 0x24 DUP3 REVERT JUMPDEST POP CALLVALUE PUSH2 0x3A9 JUMPI PUSH1 0x40 CALLDATASIZE PUSH1 0x3 NOT ADD SLT PUSH2 0x3A9 JUMPI PUSH1 0x40 PUSH2 0x4B7 PUSH2 0x1CC3 JUMP JUMPDEST SWAP2 PUSH2 0x4C0 PUSH2 0x1CD9 JUMP JUMPDEST SWAP3 PUSH1 0x1 DUP1 PUSH1 0xA0 SHL SUB AND DUP2 MSTORE PUSH1 0x5 PUSH1 0x20 MSTORE KECCAK256 SWAP1 PUSH1 0x1 DUP1 PUSH1 0xA0 SHL SUB AND PUSH0 MSTORE PUSH1 0x20 MSTORE PUSH1 0x20 PUSH1 0xFF PUSH1 0x40 PUSH0 KECCAK256 SLOAD AND PUSH1 0x40 MLOAD SWAP1 ISZERO ISZERO DUP2 MSTORE RETURN JUMPDEST POP CALLVALUE PUSH2 0x3A9 JUMPI DUP1 PUSH1 0x3 NOT CALLDATASIZE ADD SLT PUSH2 0x3A9 JUMPI PUSH1 0x20 PUSH1 0x40 MLOAD PUSH32 0x0 DUP2 MSTORE RETURN JUMPDEST POP CALLVALUE PUSH2 0x3A9 JUMPI PUSH1 0x20 CALLDATASIZE PUSH1 0x3 NOT ADD SLT PUSH2 0x3A9 JUMPI PUSH1 0x20 SWAP1 PUSH1 0xFF SWAP1 PUSH1 0x40 SWAP1 PUSH1 0x1 PUSH1 0x1 PUSH1 0xA0 SHL SUB PUSH2 0x559 PUSH2 0x1CC3 JUMP JUMPDEST AND DUP2 MSTORE PUSH1 0x9 DUP5 MSTORE KECCAK256 SLOAD AND PUSH1 0x40 MLOAD SWAP1 ISZERO ISZERO DUP2 MSTORE RETURN JUMPDEST POP CALLVALUE PUSH2 0x3A9 JUMPI PUSH1 0x20 CALLDATASIZE PUSH1 0x3 NOT ADD SLT PUSH2 0x3A9 JUMPI PUSH1 0x40 PUSH1 0x20 SWAP2 PUSH1 0x4 CALLDATALOAD DUP2 MSTORE PUSH1 0x8 DUP4 MSTORE KECCAK256 SLOAD PUSH1 0x40 MLOAD SWAP1 DUP2 MSTORE RETURN JUMPDEST POP CALLVALUE PUSH2 0x3A9 JUMPI PUSH1 0x20 CALLDATASIZE PUSH1 0x3 NOT ADD SLT PUSH2 0x3A9 JUMPI PUSH1 0x4 CALLDATALOAD PUSH2 0x5B5 DUP2 PUSH2 0x2280 JUMP JUMPDEST POP PUSH1 0x40 MLOAD SWAP1 PUSH2 0x5C5 PUSH1 0x60 DUP4 PUSH2 0x1D61 JUMP JUMPDEST PUSH1 0x40 DUP1 DUP4 MSTORE PUSH1 0x20 DUP4 ADD SWAP1 CALLDATASIZE DUP3 CALLDATACOPY PUSH1 0x40 SWAP2 DUP3 MLOAD PUSH2 0x5E1 DUP5 DUP3 PUSH2 0x1D61 JUMP JUMPDEST PUSH1 0x10 DUP2 MSTORE PUSH16 0x181899199A1A9B1B9C1CB0B131B232B3 PUSH1 0x81 SHL PUSH1 0x20 DUP3 ADD MSTORE DUP6 JUMPDEST PUSH1 0x20 DUP2 LT PUSH2 0xF61 JUMPI POP POP PUSH2 0x676 DUP4 SWAP5 PUSH2 0x644 PUSH1 0x22 PUSH1 0x21 SWAP7 MLOAD DUP1 SWAP7 PUSH1 0x20 DUP3 ADD SWAP5 PUSH2 0x60F PUSH1 0xF3 SHL DUP7 MSTORE MLOAD DUP1 SWAP2 DUP5 DUP5 ADD MCOPY DUP2 ADD DUP11 DUP4 DUP3 ADD MSTORE SUB ADD PUSH1 0x1F NOT DUP2 ADD DUP7 MSTORE DUP6 PUSH2 0x1D61 JUMP JUMPDEST PUSH2 0x668 DUP7 MLOAD SWAP6 DUP7 SWAP3 PUSH1 0x20 DUP5 ADD SWAP7 MLOAD DUP1 SWAP2 DUP9 MCOPY DUP4 ADD PUSH1 0x17 PUSH1 0xF9 SHL PUSH1 0x20 DUP3 ADD MSTORE ADD PUSH2 0x21F9 JUMP JUMPDEST SUB PUSH1 0x1F NOT DUP2 ADD DUP6 MSTORE DUP5 PUSH2 0x1D61 JUMP JUMPDEST DUP5 MSTORE PUSH1 0x8 PUSH1 0x20 MSTORE DUP3 DUP5 KECCAK256 SLOAD SWAP1 PUSH2 0x68B DUP3 PUSH2 0x2526 JUMP JUMPDEST SWAP2 TIMESTAMP GT SWAP2 DUP3 PUSH0 EQ PUSH2 0xF3C JUMPI DUP5 MLOAD PUSH2 0x6A2 DUP7 DUP3 PUSH2 0x1D61 JUMP JUMPDEST PUSH1 0x7 DUP2 MSTORE PUSH7 0x8D9598D0D0D0D PUSH1 0xCA SHL PUSH1 0x20 DUP3 ADD MSTORE JUMPDEST DUP4 ISZERO PUSH2 0xF17 JUMPI DUP6 MLOAD PUSH2 0x6C9 DUP8 DUP3 PUSH2 0x1D61 JUMP JUMPDEST PUSH1 0x7 DUP2 MSTORE PUSH7 0x11561412549151 PUSH1 0xCA SHL PUSH1 0x20 DUP3 ADD MSTORE SWAP1 JUMPDEST DUP7 MLOAD PUSH32 0x3C73766720786D6C6E733D22687474703A2F2F7777772E77332E6F72672F3230 PUSH1 0x20 DUP1 DUP4 ADD SWAP2 SWAP1 SWAP2 MSTORE PUSH32 0x30302F737667222077696474683D2234303022206865696768743D2234303022 DUP3 DUP11 ADD MSTORE PUSH32 0x2076696577426F783D223020302034303020343030223E000000000000000000 PUSH1 0x60 DUP4 ADD MSTORE PUSH32 0x3C646566733E3C6C696E6561724772616469656E742069643D22626722207831 PUSH1 0x77 DUP4 ADD MSTORE PUSH32 0x3D223025222079313D223025222078323D2231303025222079323D2231303025 PUSH1 0x97 DUP4 ADD MSTORE PUSH2 0x111F PUSH1 0xF1 SHL PUSH1 0xB7 DUP4 ADD MSTORE PUSH32 0x3C73746F70206F66667365743D22302522207374796C653D2273746F702D636F PUSH1 0xB9 DUP4 ADD MSTORE PUSH32 0x6C6F723A23306631373261222F3E3C73746F70206F66667365743D2231303025 PUSH1 0xD9 DUP4 ADD MSTORE PUSH32 0x22207374796C653D2273746F702D636F6C6F723A23316533613566222F3E3C2F PUSH1 0xF9 DUP4 ADD MSTORE PUSH22 0x3634B732B0B923B930B234B2B73A1F1E17B232B3399F PUSH1 0x51 SHL PUSH2 0x119 DUP4 ADD MSTORE PUSH32 0x3C726563742077696474683D2234303022206865696768743D22343030222066 PUSH2 0x12F DUP4 ADD MSTORE PUSH32 0x696C6C3D2275726C2823626729222072783D223230222F3E0000000000000000 PUSH2 0x14F DUP4 ADD MSTORE PUSH32 0x3C636972636C652063783D22323030222063793D223132302220723D22353022 PUSH2 0x167 DUP4 ADD MSTORE PUSH7 0x103334B6361E91 PUSH1 0xC9 SHL PUSH2 0x187 DUP4 ADD MSTORE DUP3 MLOAD SWAP2 SWAP4 DUP5 SWAP4 SWAP1 SWAP3 SWAP2 DUP2 ADD SWAP2 DUP1 DUP4 PUSH2 0x18E DUP8 ADD MCOPY PUSH18 0x111037B830B1B4BA3C9E911817189A91179F PUSH1 0x71 SHL PUSH2 0x18E SWAP2 DUP7 ADD SWAP2 DUP3 ADD MSTORE PUSH32 0x3C7465787420783D223230302220793D223133302220666F6E742D66616D696C PUSH2 0x1A0 DUP3 ADD MSTORE PUSH32 0x793D226D6F6E6F73706163652220666F6E742D73697A653D223332222066696C PUSH2 0x1C0 DUP3 ADD MSTORE PUSH3 0x361E91 PUSH1 0xE9 SHL PUSH2 0x1E0 DUP3 ADD MSTORE DUP2 MLOAD SWAP1 DUP2 DUP5 PUSH2 0x1E3 DUP4 ADD MCOPY PUSH32 0x2220746578742D616E63686F723D226D6964646C652220666F6E742D77656967 PUSH2 0x1E3 SWAP3 SWAP1 SWAP2 ADD SWAP2 DUP3 ADD MSTORE PUSH20 0x343A1E913137B632111F20A9219E17BA32BC3A1F PUSH1 0x61 SHL PUSH2 0x203 DUP3 ADD MSTORE PUSH32 0x3C7465787420783D223230302220793D223232302220666F6E742D66616D696C PUSH2 0x217 DUP3 ADD MSTORE PUSH32 0x793D226D6F6E6F73706163652220666F6E742D73697A653D223232222066696C PUSH2 0x237 DUP3 ADD MSTORE PUSH32 0x6C3D22236666666666662220746578742D616E63686F723D226D6964646C6522 PUSH2 0x257 DUP3 ADD MSTORE PUSH20 0x103337B73A16BBB2B4B3B43A1E913137B632111F PUSH1 0x61 SHL PUSH2 0x277 DUP3 ADD MSTORE DUP10 MLOAD SWAP1 PUSH2 0x18E DUP2 ADD SWAP1 DUP3 SWAP1 DUP11 SWAP1 PUSH2 0x28B ADD MCOPY ADD PUSH1 0x55 ADD PUSH1 0xA8 DUP2 ADD PUSH7 0x1E17BA32BC3A1F PUSH1 0xC9 SHL SWAP1 MSTORE PUSH1 0xAF DUP2 ADD PUSH32 0x3C7265637420783D223134302220793D22323530222077696474683D22313230 SWAP1 MSTORE PUSH1 0xCF DUP2 ADD PUSH32 0x22206865696768743D223238222072783D223134222066696C6C3D2200000000 SWAP1 MSTORE DUP2 MLOAD SWAP1 DUP2 DUP5 PUSH1 0xEB DUP4 ADD MCOPY ADD PUSH1 0xA8 ADD SWAP1 PUSH17 0x111037B830B1B4BA3C9E9118171911179F PUSH1 0x79 SHL PUSH1 0x43 DUP4 ADD MSTORE PUSH1 0x54 DUP3 ADD PUSH32 0x3C7465787420783D223230302220793D223236392220666F6E742D66616D696C SWAP1 MSTORE PUSH1 0x74 DUP3 ADD PUSH32 0x793D226D6F6E6F73706163652220666F6E742D73697A653D223132222066696C SWAP1 MSTORE PUSH3 0x361E91 PUSH1 0xE9 SHL PUSH1 0x94 DUP4 ADD MSTORE MLOAD DUP1 SWAP3 PUSH1 0x97 DUP4 ADD MCOPY ADD PUSH1 0x43 ADD PUSH1 0x54 DUP2 ADD PUSH32 0x2220746578742D616E63686F723D226D6964646C65223E000000000000000000 SWAP1 MSTORE DUP2 MLOAD PUSH1 0x20 DUP2 SWAP4 ADD PUSH1 0x6B DUP4 ADD MCOPY PUSH7 0x1E17BA32BC3A1F PUSH1 0xC9 SHL SWAP2 ADD PUSH1 0x6B DUP2 ADD SWAP2 SWAP1 SWAP2 MSTORE PUSH32 0x3C7465787420783D223230302220793D223336302220666F6E742D66616D696C PUSH1 0x72 DUP3 ADD MSTORE PUSH32 0x793D226D6F6E6F73706163652220666F6E742D73697A653D223130222066696C PUSH1 0x92 DUP3 ADD MSTORE PUSH32 0x6C3D22233634373438622220746578742D616E63686F723D226D6964646C6522 PUSH1 0xB2 DUP3 ADD MSTORE PUSH32 0x3E417263204E616D6520536572766963653C2F746578743E0000000000000000 PUSH1 0xD2 DUP3 ADD MSTORE PUSH6 0x1E17B9BB339F PUSH1 0xD1 SHL PUSH1 0xEA DUP3 ADD MSTORE SUB PUSH1 0xD0 DUP2 ADD DUP3 MSTORE PUSH2 0xC43 SWAP1 PUSH1 0xF0 ADD DUP3 PUSH2 0x1D61 JUMP JUMPDEST PUSH2 0xC4C SWAP1 PUSH2 0x25C1 JUMP JUMPDEST SWAP3 ISZERO PUSH2 0xEF2 JUMPI DUP5 MLOAD PUSH2 0xC5E DUP7 DUP3 PUSH2 0x1D61 JUMP JUMPDEST PUSH1 0x7 DUP2 MSTORE PUSH7 0x115E1C1A5C9959 PUSH1 0xCA SHL PUSH1 0x20 DUP3 ADD MSTORE SWAP2 JUMPDEST DUP6 MLOAD SWAP5 DUP6 SWAP5 PUSH9 0x3D913730B6B2911D11 PUSH1 0xB9 SHL PUSH1 0x20 DUP8 ADD MSTORE DUP2 MLOAD DUP1 DUP5 PUSH1 0x29 DUP10 ADD MCOPY PUSH32 0x222C226465736372697074696F6E223A224172634E5320646F6D61696E206E61 PUSH1 0x29 SWAP2 DUP9 ADD SWAP2 DUP3 ADD MSTORE PUSH32 0x6D652E20446563656E7472616C697A6564206964656E74697479206F6E204172 PUSH1 0x49 DUP3 ADD MSTORE PUSH32 0x6320546573746E65742E222C22696D616765223A22646174613A696D6167652F PUSH1 0x69 DUP3 ADD MSTORE PUSH15 0x1CDD99CADE1B5B0ED8985CD94D8D0B PUSH1 0x8A SHL PUSH1 0x89 DUP3 ADD MSTORE DUP2 MLOAD SWAP2 DUP3 SWAP1 PUSH1 0x20 ADD PUSH1 0x98 DUP4 ADD MCOPY ADD PUSH1 0x29 ADD SWAP1 PUSH1 0x6F DUP3 ADD PUSH32 0x222C2261747472696275746573223A5B7B2274726169745F74797065223A2244 SWAP1 MSTORE PUSH16 0x37B6B0B4B71116113B30B63AB2911D11 PUSH1 0x81 SHL PUSH1 0x8F DUP4 ADD MSTORE MLOAD DUP1 SWAP3 PUSH1 0x9F DUP4 ADD MCOPY ADD PUSH1 0x6F ADD PUSH1 0x30 DUP2 ADD PUSH32 0x227D2C7B2274726169745F74797065223A22544C44222C2276616C7565223A22 SWAP1 MSTORE PUSH1 0x50 DUP2 ADD PUSH1 0x17 PUSH1 0xF9 SHL SWAP1 MSTORE PUSH1 0x51 ADD PUSH2 0xDBE SWAP1 PUSH2 0x21F9 JUMP JUMPDEST PUSH32 0x227D2C7B2274726169745F74797065223A22457870697279222C22646973706C DUP2 MSTORE PUSH1 0x20 DUP2 ADD PUSH32 0x61795F74797065223A2264617465222C2276616C7565223A0000000000000000 SWAP1 MSTORE DUP2 MLOAD PUSH1 0x20 DUP2 SWAP4 ADD PUSH1 0x38 DUP4 ADD MCOPY ADD PUSH1 0x38 DUP2 ADD PUSH32 0x7D2C7B2274726169745F74797065223A22537461747573222C2276616C756522 SWAP1 MSTORE PUSH2 0x1D11 PUSH1 0xF1 SHL PUSH1 0x58 DUP3 ADD MSTORE DUP2 MLOAD PUSH1 0x20 DUP2 SWAP4 ADD PUSH1 0x5A DUP4 ADD MCOPY ADD PUSH1 0x38 ADD PUSH4 0x227D5D7D PUSH1 0xE0 SHL PUSH1 0x22 DUP3 ADD MSTORE SUB PUSH1 0x22 ADD PUSH1 0x1B NOT DUP2 ADD DUP3 MSTORE PUSH1 0x4 ADD PUSH2 0xE7C SWAP1 DUP3 PUSH2 0x1D61 JUMP JUMPDEST PUSH2 0xE85 SWAP1 PUSH2 0x25C1 JUMP JUMPDEST DUP2 MLOAD SWAP3 DUP4 SWAP2 PUSH1 0x20 DUP4 ADD PUSH32 0x646174613A6170706C69636174696F6E2F6A736F6E3B6261736536342C000000 SWAP1 MSTORE DUP1 MLOAD PUSH1 0x20 DUP2 SWAP3 ADD PUSH1 0x3D DUP6 ADD MCOPY DUP3 ADD SWAP1 PUSH1 0x3D DUP3 ADD MSTORE SUB PUSH1 0x3D ADD PUSH1 0x1F NOT DUP2 ADD DUP4 MSTORE PUSH2 0xEDA SWAP1 DUP4 PUSH2 0x1D61 JUMP JUMPDEST MLOAD DUP1 SWAP2 PUSH1 0x20 DUP3 MSTORE PUSH1 0x20 DUP3 ADD PUSH2 0xEEE SWAP2 PUSH2 0x1C9F JUMP JUMPDEST SUB SWAP1 RETURN JUMPDEST DUP5 MLOAD PUSH2 0xEFE DUP7 DUP3 PUSH2 0x1D61 JUMP JUMPDEST PUSH1 0x6 DUP2 MSTORE PUSH6 0x416374697665 PUSH1 0xD0 SHL PUSH1 0x20 DUP3 ADD MSTORE SWAP2 PUSH2 0xC74 JUMP JUMPDEST DUP6 MLOAD PUSH2 0xF23 DUP8 DUP3 PUSH2 0x1D61 JUMP JUMPDEST PUSH1 0x6 DUP2 MSTORE PUSH6 0x414354495645 PUSH1 0xD0 SHL PUSH1 0x20 DUP3 ADD MSTORE SWAP1 PUSH2 0x6DF JUMP JUMPDEST DUP5 MLOAD PUSH2 0xF48 DUP7 DUP3 PUSH2 0x1D61 JUMP JUMPDEST PUSH1 0x7 DUP2 MSTORE PUSH7 0x11991A9B19B2B1 PUSH1 0xC9 SHL PUSH1 0x20 DUP3 ADD MSTORE PUSH2 0x6B7 JUMP JUMPDEST DUP3 DUP2 BYTE PUSH1 0x1 PUSH1 0x1 PUSH1 0xF8 SHL SUB NOT PUSH2 0xF7E PUSH1 0x4 DUP4 SWAP1 SHR PUSH1 0xF AND DUP6 PUSH2 0x2501 JUMP JUMPDEST MLOAD AND SWAP1 DUP3 PUSH1 0x1 SHL SWAP2 DUP4 DUP4 DIV PUSH1 0x2 EQ DUP5 ISZERO OR ISZERO PUSH2 0xFF1 JUMPI DUP10 BYTE PUSH2 0xFA0 DUP4 DUP11 PUSH2 0x2501 JUMP JUMPDEST MSTORE8 PUSH1 0x1 PUSH1 0x1 PUSH1 0xF8 SHL SUB NOT SWAP1 PUSH2 0xFB8 SWAP1 PUSH1 0xF AND DUP6 PUSH2 0x2501 JUMP JUMPDEST MLOAD AND PUSH1 0x1 DUP3 ADD DUP1 SWAP3 GT PUSH2 0xFDD JUMPI SWAP1 PUSH2 0xFD6 PUSH1 0x1 SWAP4 SWAP3 DUP11 BYTE SWAP2 DUP10 PUSH2 0x2501 JUMP JUMPDEST MSTORE8 ADD PUSH2 0x600 JUMP JUMPDEST PUSH4 0x4E487B71 PUSH1 0xE0 SHL DUP10 MSTORE PUSH1 0x11 PUSH1 0x4 MSTORE PUSH1 0x24 DUP10 REVERT JUMPDEST PUSH4 0x4E487B71 PUSH1 0xE0 SHL DUP11 MSTORE PUSH1 0x11 PUSH1 0x4 MSTORE PUSH1 0x24 DUP11 REVERT JUMPDEST POP CALLVALUE PUSH2 0x3A9 JUMPI PUSH1 0x40 CALLDATASIZE PUSH1 0x3 NOT ADD SLT PUSH2 0x3A9 JUMPI PUSH1 0x40 MLOAD PUSH4 0x2571BE3 PUSH1 0xE0 SHL DUP2 MSTORE PUSH32 0x0 PUSH1 0x4 DUP3 DUP2 ADD SWAP2 SWAP1 SWAP2 MSTORE CALLDATALOAD SWAP2 SWAP1 PUSH1 0x20 DUP2 PUSH1 0x24 DUP2 PUSH32 0x0 PUSH1 0x1 PUSH1 0x1 PUSH1 0xA0 SHL SUB AND GAS STATICCALL SWAP1 DUP2 ISZERO PUSH2 0x116A JUMPI SWAP1 PUSH2 0x10A6 SWAP2 DUP4 SWAP2 PUSH2 0x1151 JUMPI POP PUSH1 0x1 PUSH1 0x1 PUSH1 0xA0 SHL SUB AND ADDRESS EQ PUSH2 0x1F1F JUMP JUMPDEST CALLER DUP2 MSTORE PUSH1 0x9 PUSH1 0x20 MSTORE PUSH2 0x10BE PUSH1 0xFF PUSH1 0x40 DUP4 KECCAK256 SLOAD AND PUSH2 0x1FC6 JUMP JUMPDEST DUP2 DUP2 MSTORE PUSH1 0x8 PUSH1 0x20 MSTORE PUSH1 0x40 DUP2 KECCAK256 SLOAD PUSH3 0x76A700 DUP2 ADD DUP1 SWAP2 GT PUSH2 0x113D JUMPI SWAP2 PUSH1 0x40 SWAP2 PUSH2 0x10EA PUSH1 0x20 SWAP5 TIMESTAMP GT ISZERO PUSH2 0x1F7A JUMP JUMPDEST DUP2 DUP2 MSTORE PUSH1 0x8 DUP5 MSTORE PUSH2 0x1100 PUSH1 0x24 CALLDATALOAD DUP5 DUP4 KECCAK256 SLOAD PUSH2 0x207A JUMP JUMPDEST SWAP3 DUP2 DUP4 DUP6 SWAP4 MSTORE PUSH1 0x8 DUP7 MSTORE KECCAK256 SSTORE PUSH32 0x9B87A00E30F1AC65D898F070F8A3488FE60517182D0A2098E1B4B93A54AA9BD6 DUP4 PUSH1 0x40 MLOAD DUP5 DUP2 MSTORE LOG2 PUSH1 0x40 MLOAD SWAP1 DUP2 MSTORE RETURN JUMPDEST PUSH4 0x4E487B71 PUSH1 0xE0 SHL DUP3 MSTORE PUSH1 0x11 PUSH1 0x4 MSTORE PUSH1 0x24 DUP3 REVERT JUMPDEST PUSH2 0x391 SWAP2 POP PUSH1 0x20 RETURNDATASIZE PUSH1 0x20 GT PUSH2 0x397 JUMPI PUSH2 0x389 DUP2 DUP4 PUSH2 0x1D61 JUMP JUMPDEST PUSH1 0x40 MLOAD RETURNDATASIZE DUP5 DUP3 RETURNDATACOPY RETURNDATASIZE SWAP1 REVERT JUMPDEST POP CALLVALUE PUSH2 0x3A9 JUMPI DUP1 PUSH1 0x3 NOT CALLDATASIZE ADD SLT PUSH2 0x3A9 JUMPI PUSH1 0x20 PUSH1 0x40 MLOAD PUSH3 0x76A700 DUP2 MSTORE RETURN JUMPDEST POP CALLVALUE PUSH2 0x3A9 JUMPI PUSH1 0x80 CALLDATASIZE PUSH1 0x3 NOT ADD SLT PUSH2 0x3A9 JUMPI PUSH2 0x11AD PUSH2 0x1CC3 JUMP JUMPDEST PUSH2 0x11B5 PUSH2 0x1CD9 JUMP JUMPDEST SWAP1 PUSH1 0x64 CALLDATALOAD SWAP1 PUSH8 0xFFFFFFFFFFFFFFFF DUP3 GT PUSH2 0x1224 JUMPI CALLDATASIZE PUSH1 0x23 DUP4 ADD SLT ISZERO PUSH2 0x1224 JUMPI DUP2 PUSH1 0x4 ADD CALLDATALOAD SWAP3 DUP5 PUSH2 0x11E4 DUP6 PUSH2 0x1D97 JUMP JUMPDEST SWAP4 PUSH2 0x11F2 PUSH1 0x40 MLOAD SWAP6 DUP7 PUSH2 0x1D61 JUMP JUMPDEST DUP6 DUP6 MSTORE CALLDATASIZE PUSH1 0x24 DUP8 DUP4 ADD ADD GT PUSH2 0x1220 JUMPI DUP6 PUSH2 0x121D SWAP7 PUSH1 0x24 PUSH1 0x20 SWAP4 ADD DUP4 DUP9 ADD CALLDATACOPY DUP6 ADD ADD MSTORE PUSH1 0x44 CALLDATALOAD SWAP2 PUSH2 0x20B9 JUMP JUMPDEST DUP1 RETURN JUMPDEST POP DUP1 REVERT JUMPDEST DUP4 DUP1 REVERT JUMPDEST POP CALLVALUE PUSH2 0x3A9 JUMPI PUSH1 0x20 CALLDATASIZE PUSH1 0x3 NOT ADD SLT PUSH2 0x3A9 JUMPI PUSH2 0x1242 PUSH2 0x1CC3 JUMP JUMPDEST PUSH2 0x124A PUSH2 0x2403 JUMP JUMPDEST PUSH1 0x1 PUSH1 0x1 PUSH1 0xA0 SHL SUB AND DUP1 DUP3 MSTORE PUSH1 0x9 PUSH1 0x20 MSTORE PUSH1 0x40 DUP3 KECCAK256 DUP1 SLOAD PUSH1 0xFF NOT AND PUSH1 0x1 OR SWAP1 SSTORE PUSH32 0xA8BB31534C0ED46F380CB867BD5C803A189CED9A764E30B3A4991A9901D7474 DUP3 DUP1 LOG2 DUP1 RETURN JUMPDEST POP CALLVALUE PUSH2 0x3A9 JUMPI PUSH1 0x40 CALLDATASIZE PUSH1 0x3 NOT ADD SLT PUSH2 0x3A9 JUMPI PUSH2 0x12AB PUSH2 0x1CC3 JUMP JUMPDEST PUSH1 0x24 CALLDATALOAD SWAP1 DUP2 ISZERO ISZERO DUP1 SWAP3 SUB PUSH2 0x1349 JUMPI CALLER ISZERO PUSH2 0x1335 JUMPI PUSH1 0x1 PUSH1 0x1 PUSH1 0xA0 SHL SUB AND SWAP1 DUP2 ISZERO PUSH2 0x1321 JUMPI CALLER DUP4 MSTORE PUSH1 0x5 PUSH1 0x20 MSTORE PUSH1 0x40 DUP4 KECCAK256 DUP3 PUSH0 MSTORE PUSH1 0x20 MSTORE PUSH1 0x40 PUSH0 KECCAK256 PUSH1 0xFF NOT DUP2 SLOAD AND PUSH1 0xFF DUP4 AND OR SWAP1 SSTORE PUSH1 0x40 MLOAD SWAP1 DUP2 MSTORE PUSH32 0x17307EAB39AB6107E8899845AD3D59BD9653F200F220920489CA2B5937696C31 PUSH1 0x20 CALLER SWAP3 LOG3 DUP1 RETURN JUMPDEST PUSH4 0xB611743 PUSH1 0xE3 SHL DUP4 MSTORE PUSH1 0x4 DUP3 SWAP1 MSTORE PUSH1 0x24 DUP4 REVERT JUMPDEST PUSH4 0xA9FBF51F PUSH1 0xE0 SHL DUP4 MSTORE PUSH1 0x4 DUP4 SWAP1 MSTORE PUSH1 0x24 DUP4 REVERT JUMPDEST DUP3 DUP1 REVERT JUMPDEST POP CALLVALUE PUSH2 0x3A9 JUMPI PUSH1 0x20 CALLDATASIZE PUSH1 0x3 NOT ADD SLT PUSH2 0x3A9 JUMPI PUSH1 0x20 PUSH2 0x136C PUSH1 0x4 CALLDATALOAD PUSH2 0x209B JUMP JUMPDEST PUSH1 0x40 MLOAD SWAP1 ISZERO ISZERO DUP2 MSTORE RETURN JUMPDEST POP CALLVALUE PUSH2 0x3A9 JUMPI DUP1 PUSH1 0x3 NOT CALLDATASIZE ADD SLT PUSH2 0x3A9 JUMPI PUSH1 0x40 MLOAD SWAP1 DUP1 PUSH1 0x1 SLOAD SWAP1 PUSH2 0x1399 DUP3 PUSH2 0x1D29 JUMP JUMPDEST DUP1 DUP6 MSTORE SWAP2 PUSH1 0x1 DUP2 AND SWAP1 DUP2 ISZERO PUSH2 0x1432 JUMPI POP PUSH1 0x1 EQ PUSH2 0x13D5 JUMPI JUMPDEST PUSH2 0xEEE DUP5 PUSH2 0x13C1 DUP2 DUP7 SUB DUP3 PUSH2 0x1D61 JUMP JUMPDEST PUSH1 0x40 MLOAD SWAP2 DUP3 SWAP2 PUSH1 0x20 DUP4 MSTORE PUSH1 0x20 DUP4 ADD SWAP1 PUSH2 0x1C9F JUMP JUMPDEST PUSH1 0x1 DUP2 MSTORE PUSH32 0xB10E2D527612073B26EECDFD717E6A320CF44B4AFAC2B0732D9FCBE2B7FA0CF6 SWAP4 SWAP3 POP SWAP1 JUMPDEST DUP1 DUP3 LT PUSH2 0x1418 JUMPI POP SWAP1 SWAP2 POP DUP2 ADD PUSH1 0x20 ADD PUSH2 0x13C1 DUP3 PUSH2 0x13B1 JUMP JUMPDEST SWAP2 SWAP3 PUSH1 0x1 DUP2 PUSH1 0x20 SWAP3 SLOAD DUP4 DUP6 DUP9 ADD ADD MSTORE ADD SWAP2 ADD SWAP1 SWAP3 SWAP2 PUSH2 0x13FF JUMP JUMPDEST PUSH1 0xFF NOT AND PUSH1 0x20 DUP1 DUP8 ADD SWAP2 SWAP1 SWAP2 MSTORE SWAP3 ISZERO ISZERO PUSH1 0x5 SHL DUP6 ADD SWAP1 SWAP3 ADD SWAP3 POP PUSH2 0x13C1 SWAP2 POP DUP4 SWAP1 POP PUSH2 0x13B1 JUMP JUMPDEST POP CALLVALUE PUSH2 0x3A9 JUMPI DUP1 PUSH1 0x3 NOT CALLDATASIZE ADD SLT PUSH2 0x3A9 JUMPI PUSH1 0x6 SLOAD PUSH1 0x40 MLOAD PUSH1 0x1 PUSH1 0x1 PUSH1 0xA0 SHL SUB SWAP1 SWAP2 AND DUP2 MSTORE PUSH1 0x20 SWAP1 RETURN JUMPDEST CALLVALUE PUSH2 0x332 JUMPI PUSH1 0x80 CALLDATASIZE PUSH1 0x3 NOT ADD SLT PUSH2 0x332 JUMPI PUSH1 0x4 CALLDATALOAD PUSH2 0x149E PUSH2 0x1CD9 JUMP JUMPDEST PUSH1 0x64 CALLDATALOAD PUSH1 0x1 PUSH1 0x1 PUSH1 0xA0 SHL SUB DUP2 AND SWAP1 DUP2 SWAP1 SUB PUSH2 0x332 JUMPI PUSH1 0x40 MLOAD PUSH4 0x2571BE3 PUSH1 0xE0 SHL DUP2 MSTORE PUSH32 0x0 PUSH1 0x4 DUP3 ADD DUP2 SWAP1 MSTORE PUSH32 0x0 PUSH1 0x1 PUSH1 0x1 PUSH1 0xA0 SHL SUB AND SWAP5 SWAP2 PUSH1 0x20 DUP2 PUSH1 0x24 DUP2 DUP10 GAS STATICCALL DUP1 ISZERO PUSH2 0x1639 JUMPI PUSH2 0x153E SWAP2 PUSH0 SWAP2 PUSH2 0x1668 JUMPI POP PUSH1 0x1 PUSH1 0x1 PUSH1 0xA0 SHL SUB AND ADDRESS EQ PUSH2 0x1F1F JUMP JUMPDEST CALLER PUSH0 MSTORE PUSH1 0x9 PUSH1 0x20 MSTORE PUSH2 0x1556 PUSH1 0xFF PUSH1 0x40 PUSH0 KECCAK256 SLOAD AND PUSH2 0x1FC6 JUMP JUMPDEST PUSH2 0x1562 PUSH2 0x233 DUP4 PUSH2 0x209B JUMP JUMPDEST PUSH2 0x156E PUSH1 0x44 CALLDATALOAD TIMESTAMP PUSH2 0x207A JUMP JUMPDEST PUSH0 DUP4 DUP2 MSTORE PUSH1 0x8 PUSH1 0x20 SWAP1 DUP2 MSTORE PUSH1 0x40 DUP1 DUP4 KECCAK256 DUP5 SWAP1 SSTORE PUSH1 0x2 SWAP1 SWAP2 MSTORE SWAP1 KECCAK256 SLOAD SWAP1 SWAP5 SWAP1 PUSH1 0x1 PUSH1 0x1 PUSH1 0xA0 SHL SUB AND PUSH2 0x1644 JUMPI PUSH2 0x15A3 DUP4 DUP3 PUSH2 0x2484 JUMP JUMPDEST DUP6 EXTCODESIZE ISZERO PUSH2 0x332 JUMPI PUSH1 0xA4 PUSH0 SWAP3 DUP4 PUSH1 0x40 MLOAD SWAP9 DUP10 SWAP5 DUP6 SWAP4 PUSH4 0x5EF2C7F PUSH1 0xE4 SHL DUP6 MSTORE PUSH1 0x4 DUP6 ADD MSTORE DUP8 PUSH1 0x24 DUP6 ADD MSTORE PUSH1 0x1 DUP1 PUSH1 0xA0 SHL SUB AND SWAP8 DUP9 PUSH1 0x44 DUP6 ADD MSTORE PUSH1 0x64 DUP5 ADD MSTORE DUP2 PUSH1 0x84 DUP5 ADD MSTORE GAS CALL SWAP4 DUP5 ISZERO PUSH2 0x1639 JUMPI PUSH1 0x20 SWAP5 PUSH2 0x1629 JUMPI JUMPDEST POP PUSH32 0xB3D987963D01B2F68493B4BDB130988F157EA43070D4AD840FEE0466ED9370D9 DUP5 PUSH1 0x40 MLOAD DUP6 DUP2 MSTORE LOG3 PUSH1 0x40 MLOAD SWAP1 DUP2 MSTORE RETURN JUMPDEST PUSH0 PUSH2 0x1633 SWAP2 PUSH2 0x1D61 JUMP JUMPDEST PUSH0 PUSH2 0x15F7 JUMP JUMPDEST PUSH1 0x40 MLOAD RETURNDATASIZE PUSH0 DUP3 RETURNDATACOPY RETURNDATASIZE SWAP1 REVERT JUMPDEST DUP3 PUSH0 MSTORE PUSH1 0x2 PUSH1 0x20 MSTORE PUSH2 0x1663 DUP4 DUP3 PUSH1 0x1 DUP1 PUSH1 0xA0 SHL SUB PUSH1 0x40 PUSH0 KECCAK256 SLOAD AND PUSH2 0x242A JUMP JUMPDEST PUSH2 0x15A3 JUMP JUMPDEST PUSH2 0x1681 SWAP2 POP PUSH1 0x20 RETURNDATASIZE PUSH1 0x20 GT PUSH2 0x397 JUMPI PUSH2 0x389 DUP2 DUP4 PUSH2 0x1D61 JUMP JUMPDEST DUP8 PUSH2 0x1FF JUMP JUMPDEST CALLVALUE PUSH2 0x332 JUMPI PUSH0 CALLDATASIZE PUSH1 0x3 NOT ADD SLT PUSH2 0x332 JUMPI PUSH1 0x40 MLOAD PUSH32 0x0 PUSH1 0x1 PUSH1 0x1 PUSH1 0xA0 SHL SUB AND DUP2 MSTORE PUSH1 0x20 SWAP1 RETURN JUMPDEST CALLVALUE PUSH2 0x332 JUMPI PUSH0 CALLDATASIZE PUSH1 0x3 NOT ADD SLT PUSH2 0x332 JUMPI PUSH2 0x16E3 PUSH2 0x2403 JUMP JUMPDEST PUSH1 0x6 DUP1 SLOAD PUSH1 0x1 PUSH1 0x1 PUSH1 0xA0 SHL SUB NOT DUP2 AND SWAP1 SWAP2 SSTORE PUSH0 SWAP1 PUSH1 0x1 PUSH1 0x1 PUSH1 0xA0 SHL SUB AND PUSH32 0x8BE0079C531659141344CD1FD0A4F28419497F9722A3DAAFE3B4186F6B6457E0 DUP3 DUP1 LOG3 STOP JUMPDEST CALLVALUE PUSH2 0x332 JUMPI PUSH1 0x20 CALLDATASIZE PUSH1 0x3 NOT ADD SLT PUSH2 0x332 JUMPI PUSH1 0x1 PUSH1 0x1 PUSH1 0xA0 SHL SUB PUSH2 0x1747 PUSH2 0x1CC3 JUMP JUMPDEST AND DUP1 ISZERO PUSH2 0x1764 JUMPI PUSH0 MSTORE PUSH1 0x3 PUSH1 0x20 MSTORE PUSH1 0x20 PUSH1 0x40 PUSH0 KECCAK256 SLOAD PUSH1 0x40 MLOAD SWAP1 DUP2 MSTORE RETURN JUMPDEST PUSH4 0x22718AD9 PUSH1 0xE2 SHL PUSH0 MSTORE PUSH0 PUSH1 0x4 MSTORE PUSH1 0x24 PUSH0 REVERT JUMPDEST CALLVALUE PUSH2 0x332 JUMPI PUSH1 0x20 CALLDATASIZE PUSH1 0x3 NOT ADD SLT PUSH2 0x332 JUMPI PUSH1 0x20 PUSH2 0x17AB PUSH1 0x4 CALLDATALOAD DUP1 PUSH0 MSTORE PUSH1 0x8 DUP4 MSTORE PUSH2 0x17A6 PUSH1 0x40 PUSH0 KECCAK256 SLOAD TIMESTAMP LT PUSH2 0x1F7A JUMP JUMPDEST PUSH2 0x2280 JUMP JUMPDEST PUSH1 0x40 MLOAD PUSH1 0x1 PUSH1 0x1 PUSH1 0xA0 SHL SUB SWAP1 SWAP2 AND DUP2 MSTORE RETURN JUMPDEST CALLVALUE PUSH2 0x332 JUMPI PUSH2 0x17E6 PUSH2 0x17CE CALLDATASIZE PUSH2 0x1CEF JUMP JUMPDEST SWAP1 PUSH1 0x40 MLOAD SWAP3 PUSH2 0x17DE PUSH1 0x20 DUP6 PUSH2 0x1D61 JUMP JUMPDEST PUSH0 DUP5 MSTORE PUSH2 0x20B9 JUMP JUMPDEST STOP JUMPDEST CALLVALUE PUSH2 0x332 JUMPI PUSH0 CALLDATASIZE PUSH1 0x3 NOT ADD SLT PUSH2 0x332 JUMPI PUSH1 0x40 MLOAD PUSH0 PUSH1 0x7 SLOAD PUSH2 0x1808 DUP2 PUSH2 0x1D29 JUMP JUMPDEST DUP1 DUP5 MSTORE SWAP1 PUSH1 0x1 DUP2 AND SWAP1 DUP2 ISZERO PUSH2 0x188E JUMPI POP PUSH1 0x1 EQ PUSH2 0x1830 JUMPI JUMPDEST PUSH2 0xEEE DUP4 PUSH2 0x13C1 DUP2 DUP6 SUB DUP3 PUSH2 0x1D61 JUMP JUMPDEST PUSH1 0x7 PUSH0 SWAP1 DUP2 MSTORE PUSH32 0xA66CC928B5EDB82AF9BD49922954155AB7B0942694BEA4CE44661D9A8736C688 SWAP4 SWAP3 POP SWAP1 JUMPDEST DUP1 DUP3 LT PUSH2 0x1874 JUMPI POP SWAP1 SWAP2 POP DUP2 ADD PUSH1 0x20 ADD PUSH2 0x13C1 PUSH2 0x1820 JUMP JUMPDEST SWAP2 SWAP3 PUSH1 0x1 DUP2 PUSH1 0x20 SWAP3 SLOAD DUP4 DUP6 DUP9 ADD ADD MSTORE ADD SWAP2 ADD SWAP1 SWAP3 SWAP2 PUSH2 0x185C JUMP JUMPDEST PUSH1 0xFF NOT AND PUSH1 0x20 DUP1 DUP7 ADD SWAP2 SWAP1 SWAP2 MSTORE SWAP2 ISZERO ISZERO PUSH1 0x5 SHL DUP5 ADD SWAP1 SWAP2 ADD SWAP2 POP PUSH2 0x13C1 SWAP1 POP PUSH2 0x1820 JUMP JUMPDEST CALLVALUE PUSH2 0x332 JUMPI PUSH1 0x40 CALLDATASIZE PUSH1 0x3 NOT ADD SLT PUSH2 0x332 JUMPI PUSH1 0x4 CALLDATALOAD PUSH2 0x18CE PUSH2 0x1CD9 JUMP JUMPDEST PUSH1 0x40 MLOAD PUSH4 0x2571BE3 PUSH1 0xE0 SHL DUP2 MSTORE PUSH32 0x0 PUSH1 0x4 DUP3 ADD DUP2 SWAP1 MSTORE SWAP2 SWAP1 PUSH32 0x0 PUSH1 0x1 PUSH1 0x1 PUSH1 0xA0 SHL SUB AND SWAP1 PUSH1 0x20 DUP2 PUSH1 0x24 DUP2 DUP6 GAS STATICCALL DUP1 ISZERO PUSH2 0x1639 JUMPI PUSH2 0x195A SWAP2 PUSH0 SWAP2 PUSH2 0x1A36 JUMPI POP PUSH1 0x1 PUSH1 0x1 PUSH1 0xA0 SHL SUB AND ADDRESS EQ PUSH2 0x1F1F JUMP JUMPDEST PUSH0 DUP5 DUP2 MSTORE PUSH1 0x2 PUSH1 0x20 MSTORE PUSH1 0x40 SWAP1 KECCAK256 SLOAD PUSH2 0x197E SWAP1 DUP6 SWAP1 CALLER SWAP1 PUSH1 0x1 PUSH1 0x1 PUSH1 0xA0 SHL SUB AND PUSH2 0x2378 JUMP JUMPDEST ISZERO PUSH2 0x19F1 JUMPI PUSH1 0x40 MLOAD PUSH4 0x6AB5923 PUSH1 0xE0 SHL DUP2 MSTORE PUSH1 0x4 DUP2 ADD SWAP4 SWAP1 SWAP4 MSTORE PUSH1 0x24 DUP4 ADD SWAP4 SWAP1 SWAP4 MSTORE PUSH1 0x1 PUSH1 0x1 PUSH1 0xA0 SHL SUB AND PUSH1 0x44 DUP3 ADD MSTORE SWAP1 PUSH1 0x20 SWAP1 DUP3 SWAP1 PUSH1 0x64 SWAP1 DUP3 SWAP1 PUSH0 SWAP1 GAS CALL DUP1 ISZERO PUSH2 0x1639 JUMPI PUSH2 0x19C9 JUMPI STOP JUMPDEST PUSH2 0x17E6 SWAP1 PUSH1 0x20 RETURNDATASIZE PUSH1 0x20 GT PUSH2 0x19EA JUMPI JUMPDEST PUSH2 0x19E2 DUP2 DUP4 PUSH2 0x1D61 JUMP JUMPDEST DUP2 ADD SWAP1 PUSH2 0x1F6B JUMP JUMPDEST POP RETURNDATASIZE PUSH2 0x19D8 JUMP JUMPDEST PUSH1 0x40 MLOAD PUSH3 0x461BCD PUSH1 0xE5 SHL DUP2 MSTORE PUSH1 0x20 PUSH1 0x4 DUP3 ADD MSTORE PUSH1 0x1E PUSH1 0x24 DUP3 ADD MSTORE PUSH32 0x426173655265676973747261723A206E6F7420746F6B656E206F776E65720000 PUSH1 0x44 DUP3 ADD MSTORE PUSH1 0x64 SWAP1 REVERT JUMPDEST PUSH2 0x1A4F SWAP2 POP PUSH1 0x20 RETURNDATASIZE PUSH1 0x20 GT PUSH2 0x397 JUMPI PUSH2 0x389 DUP2 DUP4 PUSH2 0x1D61 JUMP JUMPDEST DUP7 PUSH2 0x1FF JUMP JUMPDEST CALLVALUE PUSH2 0x332 JUMPI PUSH2 0x17E6 PUSH2 0x1A66 CALLDATASIZE PUSH2 0x1CEF JUMP JUMPDEST SWAP2 PUSH2 0x1DB3 JUMP JUMPDEST CALLVALUE PUSH2 0x332 JUMPI PUSH1 0x40 CALLDATASIZE PUSH1 0x3 NOT ADD SLT PUSH2 0x332 JUMPI PUSH2 0x1A85 PUSH2 0x1CC3 JUMP JUMPDEST PUSH1 0x24 CALLDATALOAD PUSH2 0x1A91 DUP2 PUSH2 0x2280 JUMP JUMPDEST CALLER ISZERO ISZERO DUP1 PUSH2 0x1B43 JUMPI JUMPDEST DUP1 PUSH2 0x1B16 JUMPI JUMPDEST PUSH2 0x1B03 JUMPI DUP2 SWAP1 PUSH1 0x1 PUSH1 0x1 PUSH1 0xA0 SHL SUB DUP5 DUP2 AND SWAP2 AND PUSH32 0x8C5BE1E5EBEC7D5BD14F71427D1E84F3DD0314C0F7B2291E5B200AC8C7C3B925 PUSH0 DUP1 LOG4 PUSH0 SWAP1 DUP2 MSTORE PUSH1 0x4 PUSH1 0x20 MSTORE PUSH1 0x40 SWAP1 KECCAK256 DUP1 SLOAD PUSH1 0x1 PUSH1 0x1 PUSH1 0xA0 SHL SUB NOT AND PUSH1 0x1 PUSH1 0x1 PUSH1 0xA0 SHL SUB SWAP1 SWAP3 AND SWAP2 SWAP1 SWAP2 OR SWAP1 SSTORE STOP JUMPDEST PUSH4 0xA9FBF51F PUSH1 0xE0 SHL PUSH0 MSTORE CALLER PUSH1 0x4 MSTORE PUSH1 0x24 PUSH0 REVERT JUMPDEST POP PUSH1 0x1 PUSH1 0x1 PUSH1 0xA0 SHL SUB DUP2 AND PUSH0 SWAP1 DUP2 MSTORE PUSH1 0x5 PUSH1 0x20 SWAP1 DUP2 MSTORE PUSH1 0x40 DUP1 DUP4 KECCAK256 CALLER DUP5 MSTORE SWAP1 SWAP2 MSTORE SWAP1 KECCAK256 SLOAD PUSH1 0xFF AND ISZERO PUSH2 0x1AA0 JUMP JUMPDEST POP PUSH1 0x1 PUSH1 0x1 PUSH1 0xA0 SHL SUB DUP2 AND CALLER EQ ISZERO PUSH2 0x1A9A JUMP JUMPDEST CALLVALUE PUSH2 0x332 JUMPI PUSH1 0x20 CALLDATASIZE PUSH1 0x3 NOT ADD SLT PUSH2 0x332 JUMPI PUSH1 0x4 CALLDATALOAD PUSH2 0x1B73 DUP2 PUSH2 0x2280 JUMP JUMPDEST POP PUSH0 MSTORE PUSH1 0x4 PUSH1 0x20 MSTORE PUSH1 0x20 PUSH1 0x1 DUP1 PUSH1 0xA0 SHL SUB PUSH1 0x40 PUSH0 KECCAK256 SLOAD AND PUSH1 0x40 MLOAD SWAP1 DUP2 MSTORE RETURN JUMPDEST CALLVALUE PUSH2 0x332 JUMPI PUSH0 CALLDATASIZE PUSH1 0x3 NOT ADD SLT PUSH2 0x332 JUMPI PUSH1 0x40 MLOAD PUSH0 DUP1 SLOAD PUSH2 0x1BB1 DUP2 PUSH2 0x1D29 JUMP JUMPDEST DUP1 DUP5 MSTORE SWAP1 PUSH1 0x1 DUP2 AND SWAP1 DUP2 ISZERO PUSH2 0x188E JUMPI POP PUSH1 0x1 EQ PUSH2 0x1BD8 JUMPI PUSH2 0xEEE DUP4 PUSH2 0x13C1 DUP2 DUP6 SUB DUP3 PUSH2 0x1D61 JUMP JUMPDEST PUSH0 DUP1 DUP1 MSTORE PUSH32 0x290DECD9548B62A8D60345A988386FC84BA6BC95484008F6362F93160EF3E563 SWAP4 SWAP3 POP SWAP1 JUMPDEST DUP1 DUP3 LT PUSH2 0x1C1A JUMPI POP SWAP1 SWAP2 POP DUP2 ADD PUSH1 0x20 ADD PUSH2 0x13C1 PUSH2 0x1820 JUMP JUMPDEST SWAP2 SWAP3 PUSH1 0x1 DUP2 PUSH1 0x20 SWAP3 SLOAD DUP4 DUP6 DUP9 ADD ADD MSTORE ADD SWAP2 ADD SWAP1 SWAP3 SWAP2 PUSH2 0x1C02 JUMP JUMPDEST CALLVALUE PUSH2 0x332 JUMPI PUSH1 0x20 CALLDATASIZE PUSH1 0x3 NOT ADD SLT PUSH2 0x332 JUMPI PUSH1 0x4 CALLDATALOAD SWAP1 PUSH4 0xFFFFFFFF PUSH1 0xE0 SHL DUP3 AND DUP1 SWAP3 SUB PUSH2 0x332 JUMPI PUSH1 0x20 SWAP2 PUSH4 0x80AC58CD PUSH1 0xE0 SHL DUP2 EQ SWAP1 DUP2 ISZERO PUSH2 0x1C8E JUMPI JUMPDEST DUP2 ISZERO PUSH2 0x1C7D JUMPI JUMPDEST POP ISZERO ISZERO DUP2 MSTORE RETURN JUMPDEST PUSH4 0x1FFC9A7 PUSH1 0xE0 SHL EQ SWAP1 POP DUP4 PUSH2 0x1C76 JUMP JUMPDEST PUSH4 0x5B5E139F PUSH1 0xE0 SHL DUP2 EQ SWAP2 POP PUSH2 0x1C6F JUMP JUMPDEST DUP1 MLOAD DUP1 DUP4 MSTORE PUSH1 0x20 SWAP3 SWAP2 DUP2 SWAP1 DUP5 ADD DUP5 DUP5 ADD MCOPY PUSH0 DUP3 DUP3 ADD DUP5 ADD MSTORE PUSH1 0x1F ADD PUSH1 0x1F NOT AND ADD ADD SWAP1 JUMP JUMPDEST PUSH1 0x4 CALLDATALOAD SWAP1 PUSH1 0x1 PUSH1 0x1 PUSH1 0xA0 SHL SUB DUP3 AND DUP3 SUB PUSH2 0x332 JUMPI JUMP JUMPDEST PUSH1 0x24 CALLDATALOAD SWAP1 PUSH1 0x1 PUSH1 0x1 PUSH1 0xA0 SHL SUB DUP3 AND DUP3 SUB PUSH2 0x332 JUMPI JUMP JUMPDEST PUSH1 0x60 SWAP1 PUSH1 0x3 NOT ADD SLT PUSH2 0x332 JUMPI PUSH1 0x4 CALLDATALOAD PUSH1 0x1 PUSH1 0x1 PUSH1 0xA0 SHL SUB DUP2 AND DUP2 SUB PUSH2 0x332 JUMPI SWAP1 PUSH1 0x24 CALLDATALOAD PUSH1 0x1 PUSH1 0x1 PUSH1 0xA0 SHL SUB DUP2 AND DUP2 SUB PUSH2 0x332 JUMPI SWAP1 PUSH1 0x44 CALLDATALOAD SWAP1 JUMP JUMPDEST SWAP1 PUSH1 0x1 DUP3 DUP2 SHR SWAP3 AND DUP1 ISZERO PUSH2 0x1D57 JUMPI JUMPDEST PUSH1 0x20 DUP4 LT EQ PUSH2 0x1D43 JUMPI JUMP JUMPDEST PUSH4 0x4E487B71 PUSH1 0xE0 SHL PUSH0 MSTORE PUSH1 0x22 PUSH1 0x4 MSTORE PUSH1 0x24 PUSH0 REVERT JUMPDEST SWAP2 PUSH1 0x7F AND SWAP2 PUSH2 0x1D38 JUMP JUMPDEST SWAP1 PUSH1 0x1F DUP1 NOT SWAP2 ADD AND DUP2 ADD SWAP1 DUP2 LT PUSH8 0xFFFFFFFFFFFFFFFF DUP3 GT OR PUSH2 0x1D83 JUMPI PUSH1 0x40 MSTORE JUMP JUMPDEST PUSH4 0x4E487B71 PUSH1 0xE0 SHL PUSH0 MSTORE PUSH1 0x41 PUSH1 0x4 MSTORE PUSH1 0x24 PUSH0 REVERT JUMPDEST PUSH8 0xFFFFFFFFFFFFFFFF DUP2 GT PUSH2 0x1D83 JUMPI PUSH1 0x1F ADD PUSH1 0x1F NOT AND PUSH1 0x20 ADD SWAP1 JUMP JUMPDEST PUSH1 0x1 PUSH1 0x1 PUSH1 0xA0 SHL SUB SWAP1 SWAP2 AND SWAP2 SWAP1 DUP3 ISZERO PUSH2 0x1EED JUMPI PUSH0 DUP3 DUP2 MSTORE PUSH1 0x2 PUSH1 0x20 MSTORE PUSH1 0x40 SWAP1 KECCAK256 SLOAD PUSH1 0x1 PUSH1 0x1 PUSH1 0xA0 SHL SUB AND SWAP3 DUP3 SWAP1 CALLER PUSH2 0x1EA7 JUMPI JUMPDEST DUP5 PUSH2 0x1E74 JUMPI JUMPDEST DUP1 PUSH0 MSTORE PUSH1 0x3 PUSH1 0x20 MSTORE PUSH1 0x40 PUSH0 KECCAK256 PUSH1 0x1 DUP2 SLOAD ADD SWAP1 SSTORE DUP2 PUSH0 MSTORE PUSH1 0x2 PUSH1 0x20 MSTORE PUSH1 0x40 PUSH0 KECCAK256 DUP2 PUSH12 0xFFFFFFFFFFFFFFFFFFFFFFFF PUSH1 0xA0 SHL DUP3 SLOAD AND OR SWAP1 SSTORE DUP5 PUSH32 0xDDF252AD1BE2C89B69C2B068FC378DAA952BA7F163C4A11628F55A4DF523B3EF PUSH0 DUP1 LOG4 PUSH1 0x1 PUSH1 0x1 PUSH1 0xA0 SHL SUB AND DUP1 DUP4 SUB PUSH2 0x1E5C JUMPI POP POP POP JUMP JUMPDEST PUSH4 0x64283D7B PUSH1 0xE0 SHL PUSH0 MSTORE PUSH1 0x4 MSTORE PUSH1 0x24 MSTORE PUSH1 0x44 MSTORE PUSH1 0x64 PUSH0 REVERT JUMPDEST PUSH0 DUP3 DUP2 MSTORE PUSH1 0x4 PUSH1 0x20 MSTORE PUSH1 0x40 SWAP1 KECCAK256 DUP1 SLOAD PUSH1 0x1 PUSH1 0x1 PUSH1 0xA0 SHL SUB NOT AND SWAP1 SSTORE DUP5 PUSH0 MSTORE PUSH1 0x3 PUSH1 0x20 MSTORE PUSH1 0x40 PUSH0 KECCAK256 PUSH0 NOT DUP2 SLOAD ADD SWAP1 SSTORE PUSH2 0x1DEC JUMP JUMPDEST SWAP1 PUSH2 0x1EB3 SWAP1 CALLER DUP7 PUSH2 0x2378 JUMP JUMPDEST ISZERO PUSH2 0x1EBF JUMPI DUP3 SWAP1 PUSH2 0x1DE6 JUMP JUMPDEST DUP3 DUP5 PUSH2 0x1ED7 JUMPI PUSH4 0x7E273289 PUSH1 0xE0 SHL PUSH0 MSTORE PUSH1 0x4 MSTORE PUSH1 0x24 PUSH0 REVERT JUMPDEST PUSH4 0x177E802F PUSH1 0xE0 SHL PUSH0 MSTORE CALLER PUSH1 0x4 MSTORE PUSH1 0x24 MSTORE PUSH1 0x44 PUSH0 REVERT JUMPDEST PUSH4 0x32505749 PUSH1 0xE1 SHL PUSH0 MSTORE PUSH0 PUSH1 0x4 MSTORE PUSH1 0x24 PUSH0 REVERT JUMPDEST SWAP1 DUP2 PUSH1 0x20 SWAP2 SUB SLT PUSH2 0x332 JUMPI MLOAD PUSH1 0x1 PUSH1 0x1 PUSH1 0xA0 SHL SUB DUP2 AND DUP2 SUB PUSH2 0x332 JUMPI SWAP1 JUMP JUMPDEST ISZERO PUSH2 0x1F26 JUMPI JUMP JUMPDEST PUSH1 0x40 MLOAD PUSH3 0x461BCD PUSH1 0xE5 SHL DUP2 MSTORE PUSH1 0x20 PUSH1 0x4 DUP3 ADD MSTORE PUSH1 0x17 PUSH1 0x24 DUP3 ADD MSTORE PUSH32 0x426173655265676973747261723A206E6F74206C697665000000000000000000 PUSH1 0x44 DUP3 ADD MSTORE PUSH1 0x64 SWAP1 REVERT JUMPDEST SWAP1 DUP2 PUSH1 0x20 SWAP2 SUB SLT PUSH2 0x332 JUMPI MLOAD SWAP1 JUMP JUMPDEST ISZERO PUSH2 0x1F81 JUMPI JUMP JUMPDEST PUSH1 0x40 MLOAD PUSH3 0x461BCD PUSH1 0xE5 SHL DUP2 MSTORE PUSH1 0x20 PUSH1 0x4 DUP3 ADD MSTORE PUSH1 0x1B PUSH1 0x24 DUP3 ADD MSTORE PUSH32 0x426173655265676973747261723A206E616D6520657870697265640000000000 PUSH1 0x44 DUP3 ADD MSTORE PUSH1 0x64 SWAP1 REVERT JUMPDEST ISZERO PUSH2 0x1FCD JUMPI JUMP JUMPDEST PUSH1 0x40 MLOAD PUSH3 0x461BCD PUSH1 0xE5 SHL DUP2 MSTORE PUSH1 0x20 PUSH1 0x4 DUP3 ADD MSTORE PUSH1 0x29 PUSH1 0x24 DUP3 ADD MSTORE PUSH32 0x426173655265676973747261723A2063616C6C6572206973206E6F7420612063 PUSH1 0x44 DUP3 ADD MSTORE PUSH9 0x37B73A3937B63632B9 PUSH1 0xB9 SHL PUSH1 0x64 DUP3 ADD MSTORE PUSH1 0x84 SWAP1 REVERT JUMPDEST ISZERO PUSH2 0x202B JUMPI JUMP JUMPDEST PUSH1 0x40 MLOAD PUSH3 0x461BCD PUSH1 0xE5 SHL DUP2 MSTORE PUSH1 0x20 PUSH1 0x4 DUP3 ADD MSTORE PUSH1 0x21 PUSH1 0x24 DUP3 ADD MSTORE PUSH32 0x426173655265676973747261723A206E616D65206E6F7420617661696C61626C PUSH1 0x44 DUP3 ADD MSTORE PUSH1 0x65 PUSH1 0xF8 SHL PUSH1 0x64 DUP3 ADD MSTORE PUSH1 0x84 SWAP1 REVERT JUMPDEST SWAP2 SWAP1 DUP3 ADD DUP1 SWAP3 GT PUSH2 0x2087 JUMPI JUMP JUMPDEST PUSH4 0x4E487B71 PUSH1 0xE0 SHL PUSH0 MSTORE PUSH1 0x11 PUSH1 0x4 MSTORE PUSH1 0x24 PUSH0 REVERT JUMPDEST PUSH0 MSTORE PUSH1 0x8 PUSH1 0x20 MSTORE PUSH1 0x40 PUSH0 KECCAK256 SLOAD PUSH3 0x76A700 DUP2 ADD DUP1 SWAP2 GT PUSH2 0x2087 JUMPI TIMESTAMP GT SWAP1 JUMP JUMPDEST SWAP3 SWAP2 PUSH2 0x20C6 DUP2 DUP4 DUP7 PUSH2 0x1DB3 JUMP JUMPDEST DUP2 EXTCODESIZE PUSH2 0x20D3 JUMPI JUMPDEST POP POP POP POP JUMP JUMPDEST PUSH1 0x40 MLOAD PUSH4 0xA85BD01 PUSH1 0xE1 SHL DUP2 MSTORE CALLER PUSH1 0x4 DUP3 ADD MSTORE PUSH1 0x1 PUSH1 0x1 PUSH1 0xA0 SHL SUB SWAP5 DUP6 AND PUSH1 0x24 DUP3 ADD MSTORE PUSH1 0x44 DUP2 ADD SWAP2 SWAP1 SWAP2 MSTORE PUSH1 0x80 PUSH1 0x64 DUP3 ADD MSTORE SWAP3 AND SWAP2 SWAP1 PUSH1 0x20 SWAP1 DUP3 SWAP1 DUP2 SWAP1 PUSH2 0x211E SWAP1 PUSH1 0x84 DUP4 ADD SWAP1 PUSH2 0x1C9F JUMP JUMPDEST SUB DUP2 PUSH0 DUP7 GAS CALL PUSH0 SWAP2 DUP2 PUSH2 0x21B4 JUMPI JUMPDEST POP PUSH2 0x2181 JUMPI POP RETURNDATASIZE ISZERO PUSH2 0x217A JUMPI RETURNDATASIZE PUSH2 0x2142 DUP2 PUSH2 0x1D97 JUMP JUMPDEST SWAP1 PUSH2 0x2150 PUSH1 0x40 MLOAD SWAP3 DUP4 PUSH2 0x1D61 JUMP JUMPDEST DUP2 MSTORE RETURNDATASIZE PUSH0 PUSH1 0x20 DUP4 ADD RETURNDATACOPY JUMPDEST DUP1 MLOAD SWAP1 DUP2 PUSH2 0x2175 JUMPI DUP3 PUSH4 0x32505749 PUSH1 0xE1 SHL PUSH0 MSTORE PUSH1 0x4 MSTORE PUSH1 0x24 PUSH0 REVERT JUMPDEST PUSH1 0x20 ADD REVERT JUMPDEST PUSH1 0x60 PUSH2 0x215A JUMP JUMPDEST PUSH1 0x1 PUSH1 0x1 PUSH1 0xE0 SHL SUB NOT AND PUSH4 0x757A42FF PUSH1 0xE1 SHL ADD PUSH2 0x21A2 JUMPI POP PUSH0 DUP1 DUP1 DUP1 PUSH2 0x20CD JUMP JUMPDEST PUSH4 0x32505749 PUSH1 0xE1 SHL PUSH0 MSTORE PUSH1 0x4 MSTORE PUSH1 0x24 PUSH0 REVERT JUMPDEST SWAP1 SWAP2 POP PUSH1 0x20 DUP2 RETURNDATASIZE PUSH1 0x20 GT PUSH2 0x21F1 JUMPI JUMPDEST DUP2 PUSH2 0x21D0 PUSH1 0x20 SWAP4 DUP4 PUSH2 0x1D61 JUMP JUMPDEST DUP2 ADD SUB SLT PUSH2 0x332 JUMPI MLOAD PUSH1 0x1 PUSH1 0x1 PUSH1 0xE0 SHL SUB NOT DUP2 AND DUP2 SUB PUSH2 0x332 JUMPI SWAP1 PUSH0 PUSH2 0x212C JUMP JUMPDEST RETURNDATASIZE SWAP2 POP PUSH2 0x21C3 JUMP JUMPDEST PUSH1 0x7 SLOAD PUSH0 SWAP3 SWAP2 PUSH2 0x2208 DUP3 PUSH2 0x1D29 JUMP JUMPDEST SWAP2 PUSH1 0x1 DUP2 AND SWAP1 DUP2 ISZERO PUSH2 0x226E JUMPI POP PUSH1 0x1 EQ PUSH2 0x2220 JUMPI POP POP JUMP JUMPDEST PUSH1 0x7 PUSH0 SWAP1 DUP2 MSTORE SWAP3 SWAP4 POP SWAP1 SWAP2 PUSH32 0xA66CC928B5EDB82AF9BD49922954155AB7B0942694BEA4CE44661D9A8736C688 JUMPDEST DUP4 DUP3 LT PUSH2 0x225A JUMPI POP POP ADD SWAP1 JUMP JUMPDEST PUSH1 0x1 DUP2 PUSH1 0x20 SWAP3 SLOAD DUP5 DUP7 ADD MSTORE ADD SWAP2 ADD SWAP1 PUSH2 0x224D JUMP JUMPDEST PUSH1 0xFF NOT AND DUP3 MSTORE POP DUP2 ISZERO ISZERO SWAP1 SWAP2 MUL ADD SWAP2 POP JUMP JUMPDEST PUSH0 DUP2 DUP2 MSTORE PUSH1 0x2 PUSH1 0x20 MSTORE PUSH1 0x40 SWAP1 KECCAK256 SLOAD PUSH1 0x1 PUSH1 0x1 PUSH1 0xA0 SHL SUB AND SWAP1 DUP2 ISZERO PUSH2 0x22A2 JUMPI POP SWAP1 JUMP JUMPDEST PUSH4 0x7E273289 PUSH1 0xE0 SHL PUSH0 MSTORE PUSH1 0x4 MSTORE PUSH1 0x24 PUSH0 REVERT JUMPDEST PUSH0 DUP3 DUP2 MSTORE PUSH1 0x2 PUSH1 0x20 MSTORE PUSH1 0x40 SWAP1 KECCAK256 SLOAD PUSH1 0x1 PUSH1 0x1 PUSH1 0xA0 SHL SUB AND SWAP2 SWAP1 DUP3 PUSH2 0x2345 JUMPI JUMPDEST PUSH1 0x1 PUSH1 0x1 PUSH1 0xA0 SHL SUB AND DUP1 PUSH2 0x232D JUMPI JUMPDEST DUP2 PUSH0 MSTORE PUSH1 0x2 PUSH1 0x20 MSTORE PUSH1 0x40 PUSH0 KECCAK256 DUP2 PUSH12 0xFFFFFFFFFFFFFFFFFFFFFFFF PUSH1 0xA0 SHL DUP3 SLOAD AND OR SWAP1 SSTORE DUP3 PUSH32 0xDDF252AD1BE2C89B69C2B068FC378DAA952BA7F163C4A11628F55A4DF523B3EF PUSH0 DUP1 LOG4 SWAP1 JUMP JUMPDEST DUP1 PUSH0 MSTORE PUSH1 0x3 PUSH1 0x20 MSTORE PUSH1 0x40 PUSH0 KECCAK256 PUSH1 0x1 DUP2 SLOAD ADD SWAP1 SSTORE PUSH2 0x22E2 JUMP JUMPDEST PUSH0 DUP3 DUP2 MSTORE PUSH1 0x4 PUSH1 0x20 MSTORE PUSH1 0x40 SWAP1 KECCAK256 DUP1 SLOAD PUSH1 0x1 PUSH1 0x1 PUSH1 0xA0 SHL SUB NOT AND SWAP1 SSTORE DUP3 PUSH0 MSTORE PUSH1 0x3 PUSH1 0x20 MSTORE PUSH1 0x40 PUSH0 KECCAK256 PUSH0 NOT DUP2 SLOAD ADD SWAP1 SSTORE PUSH2 0x22D3 JUMP JUMPDEST PUSH1 0x1 PUSH1 0x1 PUSH1 0xA0 SHL SUB SWAP1 SWAP2 AND DUP1 ISZERO ISZERO SWAP3 SWAP2 DUP4 PUSH2 0x2394 JUMPI JUMPDEST POP POP POP SWAP1 JUMP JUMPDEST PUSH1 0x1 PUSH1 0x1 PUSH1 0xA0 SHL SUB AND DUP1 DUP3 EQ SWAP4 POP SWAP1 SWAP2 SWAP1 DUP4 ISZERO PUSH2 0x23E0 JUMPI JUMPDEST POP DUP3 ISZERO PUSH2 0x23BE JUMPI JUMPDEST POP POP PUSH0 DUP1 DUP1 PUSH2 0x238E JUMP JUMPDEST PUSH0 SWAP1 DUP2 MSTORE PUSH1 0x4 PUSH1 0x20 MSTORE PUSH1 0x40 DUP2 KECCAK256 SLOAD PUSH1 0x1 PUSH1 0x1 PUSH1 0xA0 SHL SUB AND SWAP1 SWAP2 EQ SWAP2 POP DUP1 PUSH2 0x23B4 JUMP JUMPDEST SWAP1 SWAP3 POP PUSH0 MSTORE PUSH1 0x5 PUSH1 0x20 MSTORE PUSH1 0x40 PUSH0 KECCAK256 DUP2 PUSH0 MSTORE PUSH1 0x20 MSTORE PUSH1 0xFF PUSH1 0x40 PUSH0 KECCAK256 SLOAD AND SWAP2 PUSH0 PUSH2 0x23AC JUMP JUMPDEST PUSH1 0x6 SLOAD PUSH1 0x1 PUSH1 0x1 PUSH1 0xA0 SHL SUB AND CALLER SUB PUSH2 0x2417 JUMPI JUMP JUMPDEST PUSH4 0x118CDAA7 PUSH1 0xE0 SHL PUSH0 MSTORE CALLER PUSH1 0x4 MSTORE PUSH1 0x24 PUSH0 REVERT JUMPDEST SWAP2 SWAP3 SWAP2 SWAP1 PUSH1 0x1 PUSH1 0x1 PUSH1 0xA0 SHL SUB DUP2 AND ISZERO PUSH2 0x1EED JUMPI PUSH1 0x1 PUSH1 0x1 PUSH1 0xA0 SHL SUB SWAP1 PUSH2 0x2451 SWAP1 DUP6 SWAP1 PUSH2 0x22B4 JUMP JUMPDEST AND SWAP1 DUP2 PUSH2 0x246B JUMPI DUP4 PUSH4 0x7E273289 PUSH1 0xE0 SHL PUSH0 MSTORE PUSH1 0x4 MSTORE PUSH1 0x24 PUSH0 REVERT JUMPDEST SWAP2 SWAP3 SWAP1 SWAP2 PUSH1 0x1 PUSH1 0x1 PUSH1 0xA0 SHL SUB AND DUP1 DUP4 SUB PUSH2 0x1E5C JUMPI POP POP POP JUMP JUMPDEST SWAP1 PUSH1 0x1 PUSH1 0x1 PUSH1 0xA0 SHL SUB DUP3 AND ISZERO PUSH2 0x1EED JUMPI PUSH1 0x1 PUSH1 0x1 PUSH1 0xA0 SHL SUB SWAP2 PUSH2 0x24A7 SWAP2 SWAP1 PUSH2 0x22B4 JUMP JUMPDEST AND PUSH2 0x24AE JUMPI JUMP JUMPDEST PUSH4 0x39E35637 PUSH1 0xE1 SHL PUSH0 MSTORE PUSH0 PUSH1 0x4 MSTORE PUSH1 0x24 PUSH0 REVERT JUMPDEST PUSH0 NOT DUP2 EQ PUSH2 0x2087 JUMPI PUSH1 0x1 ADD SWAP1 JUMP JUMPDEST SWAP1 PUSH2 0x24D9 DUP3 PUSH2 0x1D97 JUMP JUMPDEST PUSH2 0x24E6 PUSH1 0x40 MLOAD SWAP2 DUP3 PUSH2 0x1D61 JUMP JUMPDEST DUP3 DUP2 MSTORE DUP1 SWAP3 PUSH2 0x24F7 PUSH1 0x1F NOT SWAP2 PUSH2 0x1D97 JUMP JUMPDEST ADD SWAP1 PUSH1 0x20 CALLDATASIZE SWAP2 ADD CALLDATACOPY JUMP JUMPDEST SWAP1 DUP2 MLOAD DUP2 LT ISZERO PUSH2 0x2512 JUMPI ADD PUSH1 0x20 ADD SWAP1 JUMP JUMPDEST PUSH4 0x4E487B71 PUSH1 0xE0 SHL PUSH0 MSTORE PUSH1 0x32 PUSH1 0x4 MSTORE PUSH1 0x24 PUSH0 REVERT JUMPDEST DUP1 ISZERO PUSH2 0x25A1 JUMPI DUP1 PUSH0 DUP2 DUP1 JUMPDEST PUSH2 0x2589 JUMPI POP PUSH2 0x253F DUP2 PUSH2 0x24CF JUMP JUMPDEST SWAP3 JUMPDEST PUSH2 0x254A JUMPI POP POP SWAP1 JUMP JUMPDEST DUP1 ISZERO PUSH2 0x2087 JUMPI PUSH0 NOT ADD SWAP1 PUSH1 0xA DUP2 MOD PUSH1 0x30 ADD SWAP1 DUP2 PUSH1 0x30 GT PUSH2 0x2087 JUMPI PUSH1 0xA SWAP2 PUSH1 0xF8 SHL PUSH1 0x1 PUSH1 0x1 PUSH1 0xF8 SHL SUB NOT AND PUSH0 BYTE PUSH2 0x2580 DUP5 DUP7 PUSH2 0x2501 JUMP JUMPDEST MSTORE8 DIV SWAP1 DUP2 PUSH2 0x2541 JUMP JUMPDEST SWAP2 POP PUSH2 0x2596 PUSH1 0xA SWAP2 PUSH2 0x24C1 JUMP JUMPDEST SWAP2 DIV DUP1 DUP4 SWAP3 SWAP2 PUSH2 0x2531 JUMP JUMPDEST POP PUSH1 0x40 MLOAD PUSH2 0x25B0 PUSH1 0x40 DUP3 PUSH2 0x1D61 JUMP JUMPDEST PUSH1 0x1 DUP2 MSTORE PUSH1 0x3 PUSH1 0xFC SHL PUSH1 0x20 DUP3 ADD MSTORE SWAP1 JUMP JUMPDEST DUP1 MLOAD ISZERO PUSH2 0x2824 JUMPI PUSH1 0x40 MLOAD SWAP2 PUSH2 0x25D7 PUSH1 0x60 DUP5 PUSH2 0x1D61 JUMP JUMPDEST PUSH1 0x40 DUP4 MSTORE PUSH32 0x4142434445464748494A4B4C4D4E4F505152535455565758595A616263646566 PUSH1 0x20 DUP5 ADD MSTORE PUSH32 0x6768696A6B6C6D6E6F707172737475767778797A303132333435363738392B2F PUSH1 0x40 DUP5 ADD MSTORE DUP2 MLOAD PUSH1 0x2 DUP2 ADD DUP1 SWAP2 GT PUSH2 0x2087 JUMPI PUSH1 0x3 SWAP1 DIV PUSH1 0x2 DUP2 SWAP1 SHL SWAP3 SWAP1 PUSH1 0x1 PUSH1 0x1 PUSH1 0xFE SHL SUB DUP2 AND SUB PUSH2 0x2087 JUMPI PUSH2 0x2657 DUP4 PUSH2 0x24CF JUMP JUMPDEST SWAP3 PUSH0 SWAP1 PUSH0 SWAP4 JUMPDEST DUP4 MLOAD DUP4 LT DUP1 ISZERO PUSH2 0x27B4 JUMPI ISZERO PUSH2 0x27AE JUMPI PUSH2 0x267F PUSH2 0x2678 DUP5 PUSH2 0x24C1 JUMP JUMPDEST SWAP4 DUP6 PUSH2 0x2501 JUMP JUMPDEST MLOAD PUSH1 0xF8 SHR JUMPDEST DUP5 MLOAD DUP5 LT ISZERO PUSH2 0x27A8 JUMPI PUSH2 0x26A0 PUSH2 0x2699 DUP6 PUSH2 0x24C1 JUMP JUMPDEST SWAP5 DUP7 PUSH2 0x2501 JUMP JUMPDEST MLOAD PUSH1 0xF8 SHR JUMPDEST DUP6 MLOAD DUP6 LT ISZERO PUSH2 0x27A1 JUMPI PUSH2 0x26C1 PUSH2 0x26BA DUP7 PUSH2 0x24C1 JUMP JUMPDEST SWAP6 DUP8 PUSH2 0x2501 JUMP JUMPDEST MLOAD PUSH1 0xF8 SHR SWAP2 JUMPDEST PUSH3 0xFF0000 PUSH2 0xFF00 PUSH1 0xFF DUP6 AND SWAP4 PUSH1 0x8 SHL AND SWAP2 PUSH1 0x10 SHL AND OR OR PUSH1 0xFF PUSH1 0xF8 SHL PUSH2 0x26F3 PUSH1 0x3F DUP4 PUSH1 0x12 SHR AND DUP12 PUSH2 0x2501 JUMP JUMPDEST MLOAD AND SWAP7 PUSH2 0x270C PUSH2 0x2702 DUP3 PUSH2 0x24C1 JUMP JUMPDEST SWAP9 PUSH0 BYTE SWAP2 DUP11 PUSH2 0x2501 JUMP JUMPDEST MSTORE8 PUSH1 0x1 PUSH1 0x1 PUSH1 0xF8 SHL SUB NOT PUSH2 0x2727 PUSH1 0xC DUP4 SWAP1 SHR PUSH1 0x3F AND DUP12 PUSH2 0x2501 JUMP JUMPDEST MLOAD AND SWAP7 PUSH2 0x2736 PUSH2 0x2702 DUP3 PUSH2 0x24C1 JUMP JUMPDEST MSTORE8 PUSH1 0x1 PUSH1 0x1 PUSH1 0xF8 SHL SUB NOT SWAP1 PUSH2 0x2751 SWAP1 PUSH1 0x6 SHR PUSH1 0x3F AND DUP11 PUSH2 0x2501 JUMP JUMPDEST MLOAD AND SWAP6 PUSH2 0x276A PUSH2 0x2760 DUP3 PUSH2 0x24C1 JUMP JUMPDEST SWAP8 PUSH0 BYTE SWAP2 DUP10 PUSH2 0x2501 JUMP JUMPDEST MSTORE8 PUSH1 0x1 PUSH1 0x1 PUSH1 0xF8 SHL SUB NOT SWAP1 PUSH2 0x2782 SWAP1 PUSH1 0x3F AND DUP10 PUSH2 0x2501 JUMP JUMPDEST MLOAD AND SWAP5 PUSH2 0x279B PUSH2 0x2791 DUP3 PUSH2 0x24C1 JUMP JUMPDEST SWAP7 PUSH0 BYTE SWAP2 DUP9 PUSH2 0x2501 JUMP JUMPDEST MSTORE8 PUSH2 0x265D JUMP JUMPDEST PUSH0 SWAP2 PUSH2 0x26C7 JUMP JUMPDEST PUSH0 PUSH2 0x26A5 JUMP JUMPDEST PUSH0 PUSH2 0x2684 JUMP JUMPDEST POP SWAP6 POP SWAP3 POP POP PUSH1 0x1 PUSH1 0x3 DUP3 MLOAD MOD EQ PUSH0 EQ PUSH2 0x27FD JUMPI POP PUSH0 NOT DUP2 ADD DUP2 DUP2 GT PUSH2 0x2087 JUMPI PUSH2 0x27E0 PUSH1 0x3D SWAP2 DUP5 PUSH2 0x2501 JUMP JUMPDEST MSTORE8 PUSH1 0x1 NOT DUP2 ADD SWAP1 DUP2 GT PUSH2 0x2087 JUMPI PUSH2 0x27F9 PUSH1 0x3D SWAP2 DUP4 PUSH2 0x2501 JUMP JUMPDEST MSTORE8 SWAP1 JUMP JUMPDEST PUSH1 0x3 PUSH1 0x2 SWAP2 MLOAD MOD EQ PUSH2 0x280D JUMPI POP SWAP1 JUMP JUMPDEST PUSH0 NOT DUP2 ADD SWAP1 DUP2 GT PUSH2 0x2087 JUMPI PUSH2 0x27F9 PUSH1 0x3D SWAP2 DUP4 PUSH2 0x2501 JUMP JUMPDEST POP PUSH1 0x40 MLOAD PUSH2 0x2833 PUSH1 0x20 DUP3 PUSH2 0x1D61 JUMP JUMPDEST PUSH0 DUP2 MSTORE SWAP1 JUMP INVALID LOG2 PUSH5 0x6970667358 0x22 SLT KECCAK256 MSTORE CODESIZE 0xAC 0xD2 DUP2 PUSH15 0x6A5998D64198E341C2BD48A2CD4BA3 PUSH1 0xAB CREATE2 0xE9 DUP9 PUSH0 DELEGATECALL 0x1F BASEFEE MULMOD CALLER PUSH5 0x736F6C6343 STOP ADDMOD BYTE STOP CALLER "},"methodIdentifiers":{"GRACE_PERIOD()":"c1a287e2","addController(address)":"a7fc7a07","approve(address,uint256)":"095ea7b3","available(uint256)":"96e494e8","balanceOf(address)":"70a08231","baseNode()":"ddf7fcb0","controllers(address)":"da8c229e","getApproved(uint256)":"081812fc","isApprovedForAll(address,address)":"e985e9c5","name()":"06fdde03","nameExpires(uint256)":"d6e4fa86","owner()":"8da5cb5b","ownerOf(uint256)":"6352211e","reclaim(uint256,address)":"28ed4f6c","register(uint256,address,uint256)":"fca247ac","registerWithResolver(uint256,address,uint256,address)":"7bd6b3a4","registry()":"7b103999","removeController(address)":"f6a74ed7","renew(uint256,uint256)":"c475abff","renounceOwnership()":"715018a6","safeTransferFrom(address,address,uint256)":"42842e0e","safeTransferFrom(address,address,uint256,bytes)":"b88d4fde","setApprovalForAll(address,bool)":"a22cb465","supportsInterface(bytes4)":"01ffc9a7","symbol()":"95d89b41","tld()":"2d551432","tokenURI(uint256)":"c87b56dd","transferFrom(address,address,uint256)":"23b872dd","transferOwnership(address)":"f2fde38b"}},"storageLayout":{"storage":[{"astId":940,"contract":"contracts/registrar/ArcNSBaseRegistrar.sol:ArcNSBaseRegistrar","label":"_name","offset":0,"slot":"0","type":"t_string_storage"},{"astId":942,"contract":"contracts/registrar/ArcNSBaseRegistrar.sol:ArcNSBaseRegistrar","label":"_symbol","offset":0,"slot":"1","type":"t_string_storage"},{"astId":946,"contract":"contracts/registrar/ArcNSBaseRegistrar.sol:ArcNSBaseRegistrar","label":"_owners","offset":0,"slot":"2","type":"t_mapping(t_uint256,t_address)"},{"astId":950,"contract":"contracts/registrar/ArcNSBaseRegistrar.sol:ArcNSBaseRegistrar","label":"_balances","offset":0,"slot":"3","type":"t_mapping(t_address,t_uint256)"},{"astId":954,"contract":"contracts/registrar/ArcNSBaseRegistrar.sol:ArcNSBaseRegistrar","label":"_tokenApprovals","offset":0,"slot":"4","type":"t_mapping(t_uint256,t_address)"},{"astId":960,"contract":"contracts/registrar/ArcNSBaseRegistrar.sol:ArcNSBaseRegistrar","label":"_operatorApprovals","offset":0,"slot":"5","type":"t_mapping(t_address,t_mapping(t_address,t_bool))"},{"astId":8,"contract":"contracts/registrar/ArcNSBaseRegistrar.sol:ArcNSBaseRegistrar","label":"_owner","offset":0,"slot":"6","type":"t_address"},{"astId":8614,"contract":"contracts/registrar/ArcNSBaseRegistrar.sol:ArcNSBaseRegistrar","label":"tld","offset":0,"slot":"7","type":"t_string_storage"},{"astId":8621,"contract":"contracts/registrar/ArcNSBaseRegistrar.sol:ArcNSBaseRegistrar","label":"nameExpires","offset":0,"slot":"8","type":"t_mapping(t_uint256,t_uint256)"},{"astId":8625,"contract":"contracts/registrar/ArcNSBaseRegistrar.sol:ArcNSBaseRegistrar","label":"controllers","offset":0,"slot":"9","type":"t_mapping(t_address,t_bool)"}],"types":{"t_address":{"encoding":"inplace","label":"address","numberOfBytes":"20"},"t_bool":{"encoding":"inplace","label":"bool","numberOfBytes":"1"},"t_mapping(t_address,t_bool)":{"encoding":"mapping","key":"t_address","label":"mapping(address => bool)","numberOfBytes":"32","value":"t_bool"},"t_mapping(t_address,t_mapping(t_address,t_bool))":{"encoding":"mapping","key":"t_address","label":"mapping(address => mapping(address => bool))","numberOfBytes":"32","value":"t_mapping(t_address,t_bool)"},"t_mapping(t_address,t_uint256)":{"encoding":"mapping","key":"t_address","label":"mapping(address => uint256)","numberOfBytes":"32","value":"t_uint256"},"t_mapping(t_uint256,t_address)":{"encoding":"mapping","key":"t_uint256","label":"mapping(uint256 => address)","numberOfBytes":"32","value":"t_address"},"t_mapping(t_uint256,t_uint256)":{"encoding":"mapping","key":"t_uint256","label":"mapping(uint256 => uint256)","numberOfBytes":"32","value":"t_uint256"},"t_string_storage":{"encoding":"bytes","label":"string","numberOfBytes":"32"},"t_uint256":{"encoding":"inplace","label":"uint256","numberOfBytes":"32"}}}}}}