{"contracts/registrar/ArcNSRegistrarController.sol":{"ArcNSRegistrarController":{"abi":[{"inputs":[{"internalType":"contract ArcNSBaseRegistrar","name":"_base","type":"address"},{"internalType":"contract IArcNSPriceOracle","name":"_priceOracle","type":"address"},{"internalType":"contract IERC20","name":"_usdc","type":"address"},{"internalType":"contract IArcNSRegistry","name":"_registry","type":"address"},{"internalType":"contract ArcNSResolver","name":"_resolver","type":"address"},{"internalType":"address","name":"_treasury","type":"address"}],"stateMutability":"nonpayable","type":"constructor"},{"inputs":[{"internalType":"address","name":"owner","type":"address"}],"name":"OwnableInvalidOwner","type":"error"},{"inputs":[{"internalType":"address","name":"account","type":"address"}],"name":"OwnableUnauthorizedAccount","type":"error"},{"inputs":[],"name":"ReentrancyGuardReentrantCall","type":"error"},{"inputs":[{"internalType":"address","name":"token","type":"address"}],"name":"SafeERC20FailedOperation","type":"error"},{"anonymous":false,"inputs":[{"indexed":true,"internalType":"bytes32","name":"commitment","type":"bytes32"}],"name":"CommitmentMade","type":"event"},{"anonymous":false,"inputs":[{"indexed":false,"internalType":"string","name":"name","type":"string"},{"indexed":true,"internalType":"bytes32","name":"label","type":"bytes32"},{"indexed":true,"internalType":"address","name":"owner","type":"address"},{"indexed":false,"internalType":"uint256","name":"cost","type":"uint256"},{"indexed":false,"internalType":"uint256","name":"expires","type":"uint256"}],"name":"NameRegistered","type":"event"},{"anonymous":false,"inputs":[{"indexed":false,"internalType":"string","name":"name","type":"string"},{"indexed":true,"internalType":"bytes32","name":"label","type":"bytes32"},{"indexed":false,"internalType":"uint256","name":"cost","type":"uint256"},{"indexed":false,"internalType":"uint256","name":"expires","type":"uint256"}],"name":"NameRenewed","type":"event"},{"anonymous":false,"inputs":[{"indexed":true,"internalType":"address","name":"oracle","type":"address"}],"name":"NewPriceOracle","type":"event"},{"anonymous":false,"inputs":[{"indexed":true,"internalType":"address","name":"previousOwner","type":"address"},{"indexed":true,"internalType":"address","name":"newOwner","type":"address"}],"name":"OwnershipTransferred","type":"event"},{"inputs":[],"name":"MAX_COMMITMENT_AGE","outputs":[{"internalType":"uint256","name":"","type":"uint256"}],"stateMutability":"view","type":"function"},{"inputs":[],"name":"MAX_REGISTRATION_DURATION","outputs":[{"internalType":"uint256","name":"","type":"uint256"}],"stateMutability":"view","type":"function"},{"inputs":[],"name":"MAX_RESOLVER_DATA_ITEMS","outputs":[{"internalType":"uint256","name":"","type":"uint256"}],"stateMutability":"view","type":"function"},{"inputs":[],"name":"MIN_COMMITMENT_AGE","outputs":[{"internalType":"uint256","name":"","type":"uint256"}],"stateMutability":"view","type":"function"},{"inputs":[],"name":"MIN_NAME_LENGTH","outputs":[{"internalType":"uint256","name":"","type":"uint256"}],"stateMutability":"view","type":"function"},{"inputs":[],"name":"MIN_REGISTRATION_DURATION","outputs":[{"internalType":"uint256","name":"","type":"uint256"}],"stateMutability":"view","type":"function"},{"inputs":[{"internalType":"string","name":"name_","type":"string"}],"name":"available","outputs":[{"internalType":"bool","name":"","type":"bool"}],"stateMutability":"view","type":"function"},{"inputs":[],"name":"base","outputs":[{"internalType":"contract ArcNSBaseRegistrar","name":"","type":"address"}],"stateMutability":"view","type":"function"},{"inputs":[{"internalType":"bytes32","name":"commitment","type":"bytes32"}],"name":"commit","outputs":[],"stateMutability":"nonpayable","type":"function"},{"inputs":[{"internalType":"bytes32","name":"","type":"bytes32"}],"name":"commitments","outputs":[{"internalType":"uint256","name":"","type":"uint256"}],"stateMutability":"view","type":"function"},{"inputs":[{"internalType":"string","name":"name_","type":"string"},{"internalType":"address","name":"owner_","type":"address"},{"internalType":"uint256","name":"duration","type":"uint256"},{"internalType":"bytes32","name":"secret","type":"bytes32"},{"internalType":"address","name":"resolverAddr","type":"address"},{"internalType":"bytes[]","name":"data","type":"bytes[]"},{"internalType":"bool","name":"reverseRecord","type":"bool"},{"internalType":"address","name":"caller","type":"address"}],"name":"makeCommitment","outputs":[{"internalType":"bytes32","name":"","type":"bytes32"}],"stateMutability":"pure","type":"function"},{"inputs":[{"internalType":"string","name":"name_","type":"string"},{"internalType":"address","name":"owner_","type":"address"},{"internalType":"uint256","name":"duration","type":"uint256"},{"internalType":"bytes32","name":"secret","type":"bytes32"},{"internalType":"address","name":"resolverAddr","type":"address"},{"internalType":"bytes[]","name":"data","type":"bytes[]"},{"internalType":"bool","name":"reverseRecord","type":"bool"}],"name":"makeCommitment","outputs":[{"internalType":"bytes32","name":"","type":"bytes32"}],"stateMutability":"view","type":"function"},{"inputs":[],"name":"owner","outputs":[{"internalType":"address","name":"","type":"address"}],"stateMutability":"view","type":"function"},{"inputs":[],"name":"priceOracle","outputs":[{"internalType":"contract IArcNSPriceOracle","name":"","type":"address"}],"stateMutability":"view","type":"function"},{"inputs":[{"internalType":"string","name":"name_","type":"string"},{"internalType":"address","name":"owner_","type":"address"},{"internalType":"uint256","name":"duration","type":"uint256"},{"internalType":"bytes32","name":"secret","type":"bytes32"},{"internalType":"address","name":"resolverAddr","type":"address"},{"internalType":"bytes[]","name":"data","type":"bytes[]"},{"internalType":"bool","name":"reverseRecord","type":"bool"}],"name":"register","outputs":[],"stateMutability":"nonpayable","type":"function"},{"inputs":[],"name":"registry","outputs":[{"internalType":"contract IArcNSRegistry","name":"","type":"address"}],"stateMutability":"view","type":"function"},{"inputs":[{"internalType":"string","name":"name_","type":"string"},{"internalType":"uint256","name":"duration","type":"uint256"}],"name":"renew","outputs":[],"stateMutability":"nonpayable","type":"function"},{"inputs":[],"name":"renounceOwnership","outputs":[],"stateMutability":"nonpayable","type":"function"},{"inputs":[{"internalType":"string","name":"name_","type":"string"},{"internalType":"uint256","name":"duration","type":"uint256"}],"name":"rentPrice","outputs":[{"components":[{"internalType":"uint256","name":"base","type":"uint256"},{"internalType":"uint256","name":"premium","type":"uint256"}],"internalType":"struct IArcNSPriceOracle.Price","name":"","type":"tuple"}],"stateMutability":"view","type":"function"},{"inputs":[],"name":"resolver","outputs":[{"internalType":"contract ArcNSResolver","name":"","type":"address"}],"stateMutability":"view","type":"function"},{"inputs":[{"internalType":"contract IArcNSPriceOracle","name":"_oracle","type":"address"}],"name":"setPriceOracle","outputs":[],"stateMutability":"nonpayable","type":"function"},{"inputs":[{"internalType":"contract ArcNSResolver","name":"_resolver","type":"address"}],"name":"setResolver","outputs":[],"stateMutability":"nonpayable","type":"function"},{"inputs":[{"internalType":"address","name":"_treasury","type":"address"}],"name":"setTreasury","outputs":[],"stateMutability":"nonpayable","type":"function"},{"inputs":[{"internalType":"address","name":"newOwner","type":"address"}],"name":"transferOwnership","outputs":[],"stateMutability":"nonpayable","type":"function"},{"inputs":[],"name":"treasury","outputs":[{"internalType":"address","name":"","type":"address"}],"stateMutability":"view","type":"function"},{"inputs":[],"name":"usdc","outputs":[{"internalType":"contract IERC20","name":"","type":"address"}],"stateMutability":"view","type":"function"}],"evm":{"bytecode":{"linkReferences":{},"object":"60e0346101d257601f611d0e38819003918201601f19168301916001600160401b038311848410176101d65780849260c0946040528339810103126101d2578051906001600160a01b03821682036101d25760208101516001600160a01b03811691908290036101d25760408101516001600160a01b03811681036101d2576060820151906001600160a01b03821682036101d25760808301516001600160a01b03811693908490036101d25760a001516001600160a01b03811694908590036101d25733156101bf575f8054336001600160a01b0319821681178355604051989290916001600160a01b0316907f8be0079c531659141344cd1fd0a4f28419497f9722a3daafe3b4186f6b6457e09080a360017f9b779b17422d0df92223018b32b4d1fa46e071723d6817e2486d003becc55f005560805260018060a01b0319600154161760015560a05260c05260018060a01b0319600254161760025560018060a01b03196004541617600455611b2390816101eb8239608051818181610341015281816104c20152818161080401528181610bed0152611779015260a051818181610466015281816108930152610bad015260c051816106990152f35b631e4fbdf760e01b5f525f60045260245ffd5b5f80fd5b634e487b7160e01b5f52604160045260245ffdfe6080806040526004361015610012575f80fd5b5f905f3560e01c90816304f3bcec1461135b5750806321e57d6614611340578063237592e814610a2e5780632630c12f14610a055780632e0bfef71461096a5780632e4f692a1461094e5780633d4aa89e146108c25780633e413bee1461087d5780634e543b26146108335780635001f3b5146107ee57806350cfeddd146107d2578063530e784f1461076a57806359192b891461074b57806361d027b314610722578063715018a6146106c85780637b10399914610683578063839df9451461065957806383e7f6ff146106085780638a95b09f146105ea5780638ccb9ea6146105cc5780638da5cb5b146105a5578063acf1a841146103d2578063aeb8ce9b146102cd578063f0f4426014610288578063f14fcbc8146101c45763f2fde38b1461013c575f80fd5b346101c15760203660031901126101c1576101556113d7565b61015d611aa7565b6001600160a01b031680156101ad5781546001600160a01b03198116821783556001600160a01b03167f8be0079c531659141344cd1fd0a4f28419497f9722a3daafe3b4186f6b6457e08380a380f35b631e4fbdf760e01b82526004829052602482fd5b80fd5b50346101c15760203660031901126101c157600435808252600360205260408220546201518081018091116102745742111561022f5780825260036020524260408320557f561eb038a114723afa3c72b445add7b8602de546264da1e7e826af628316dbcb8280a280f35b60405162461bcd60e51b815260206004820152601d60248201527f436f6e74726f6c6c65723a20636f6d6d69746d656e74206578697374730000006044820152606490fd5b634e487b7160e01b83526011600452602483fd5b50346101c15760203660031901126101c1576102a26113d7565b6102aa611aa7565b60018060a01b03166bffffffffffffffffffffffff60a01b600454161760045580f35b50346101c15760203660031901126101c1576004356001600160401b0381116103bb576102fe90369060040161149d565b61030e81516020830120916118d0565b9081610322575b6020826040519015158152f35b6040516312dc929d60e31b8152600481019190915290506020816024817f00000000000000000000000000000000000000000000000000000000000000006001600160a01b03165afa9081156103c7578291610384575b50602091505f610315565b90506020813d6020116103bf575b8161039f6020938361142b565b810103126103bb575180151581036103bb57602091505f610379565b5080fd5b3d9150610392565b6040513d84823e3d90fd5b50346101c15760403660031901126101c1576004356001600160401b0381116103bb5761040390369060040161137e565b9060243591610410611873565b61041f6224ea0084101561155a565b61042f6312cc03008411156115a6565b61045361044684610441368587611467565b61172f565b60208151910151906115f2565b9161048a8360018060a01b0360045416337f00000000000000000000000000000000000000000000000000000000000000006119d4565b610495368383611467565b805160209182012060405163c475abff60e01b8152600481018290526024810196909652949081604481897f00000000000000000000000000000000000000000000000000000000000000006001600160a01b03165af190811561059a578691610544575b5061052d907f3da24c024582931cfaf8267d8ed24d13a82a8068d5bd337d30ec45cea4e506ae94604051948594856115ff565b0390a260015f80516020611ace8339815191525580f35b90506020813d602011610592575b8161055f6020938361142b565b8101031261058e57517f3da24c024582931cfaf8267d8ed24d13a82a8068d5bd337d30ec45cea4e506ae6104fa565b5f80fd5b3d9150610552565b6040513d88823e3d90fd5b50346101c157806003193601126101c157546040516001600160a01b039091168152602090f35b50346101c157806003193601126101c1576020604051620151808152f35b50346101c157806003193601126101c15760206040516224ea008152f35b50346101c15760403660031901126101c157600435906001600160401b0382116101c157604061064761063e366004860161149d565b6024359061172f565b60208251918051835201516020820152f35b50346101c15760203660031901126101c15760406020916004358152600383522054604051908152f35b50346101c157806003193601126101c1576040517f00000000000000000000000000000000000000000000000000000000000000006001600160a01b03168152602090f35b50346101c157806003193601126101c1576106e1611aa7565b80546001600160a01b03198116825581906001600160a01b03167f8be0079c531659141344cd1fd0a4f28419497f9722a3daafe3b4186f6b6457e08280a380f35b50346101c157806003193601126101c1576004546040516001600160a01b039091168152602090f35b50346101c157806003193601126101c15760206040516312cc03008152f35b50346101c15760203660031901126101c1576004356001600160a01b038116908190036103bb57610799611aa7565b600180546001600160a01b031916821790557ff261845a790fe29bbd6631e2ca4a5bdc83e6eed7c3271d9590d97287e00e91238280a280f35b50346101c157806003193601126101c157602060405160038152f35b50346101c157806003193601126101c1576040517f00000000000000000000000000000000000000000000000000000000000000006001600160a01b03168152602090f35b50346101c15760203660031901126101c1576004356001600160a01b038116908190036103bb57610862611aa7565b6bffffffffffffffffffffffff60a01b600254161760025580f35b50346101c157806003193601126101c1576040517f00000000000000000000000000000000000000000000000000000000000000006001600160a01b03168152602090f35b50346101c15760e03660031901126101c1576004356001600160401b0381116103bb576108f390369060040161149d565b906108fc6113ab565b906109056113c1565b9060a435906001600160401b0382116101c157602061094686868661092d366004890161153f565b906109366113ed565b9233946064359160443591611658565b604051908152f35b50346101c157806003193601126101c1576020604051603c8152f35b50346101c1576101003660031901126101c1576004356001600160401b0381116103bb5761099c90369060040161149d565b6109a46113ab565b6109ac6113c1565b60a4356001600160401b038111610a01576109cb90369060040161153f565b916109d46113ed565b60e435959094906001600160a01b03871687036101c1576020610946888888886064356044358a8a611658565b8480fd5b50346101c157806003193601126101c1576001546040516001600160a01b039091168152602090f35b503461058e5760e036600319011261058e576004356001600160401b03811161058e57610a5f90369060040161137e565b610a676113ab565b9060443591610a746113c1565b60a435936001600160401b03851161058e573660238601121561058e578460040135906001600160401b03821161058e576024860195602436918460051b01011161058e57610ac16113ed565b95610aca611873565b610af3610ad836888b611467565b88339187610ae73689886114bb565b91878b60643592611658565b805f52600360205260405f2054156112fc57805f52600360205260405f2054603c81018091116112a35742106112b757805f52600360205260405f20546201518081018091116112a35742101561125e575f5260036020525f6040812055610b64610b5f36888b611467565b6118d0565b1561121957610b786224ea0083101561155a565b610b886312cc03008311156115a6565b610b9a61044683610441368a8d611467565b92610bd18460018060a01b0360045416337f00000000000000000000000000000000000000000000000000000000000000006119d4565b610bdc36888b611467565b602081519101209760018060a01b037f00000000000000000000000000000000000000000000000000000000000000001691604051630ddf7fcb60e41b8152602081600481875afa908115610e49575f916111e7575b50604051602081019182528b604082015260408152610c5260608261142b565b5190206001600160a01b0388168015801597919692919061116957604051631ef5ace960e21b8152600481018e90526001600160a01b038c1660248201526044810191909152606481018790526020816084815f8a5af1908115610e49575f91611137575b509883610edc575b505050505b610d23575b50506040516001600160a01b03909416967fca6abbe9d7f11422cb6ca7629fbf6fe9efb1c621f71ce8f02b9f2a230097404f958594610d0c9490935091856115ff565b0390a360015f80516020611ace8339815191525580f35b610d2e36888b611467565b9215610cc9575f600491604051928380926316aa8a1960e11b82525afa908115610e49575f91610e54575b5060016020938480610da2946040519784899551918291018487015e840190601760f91b83830152805192839101602183015e01015f838201520301601f19810184528361142b565b803b1561058e57604051637a806d6b60e01b81526001600160a01b0386166004820181905260248201526044810182905260806064820152915f918391829084908290610df3906084830190611634565b03925af18015610e4957610e09575b8080610cc9565b610d0c91975091610e3d5f7fca6abbe9d7f11422cb6ca7629fbf6fe9efb1c621f71ce8f02b9f2a230097404f96959461142b565b5f979150919293610e02565b6040513d5f823e3d90fd5b90503d805f833e610e65818361142b565b81019060208183031261058e578051906001600160401b03821161058e57019080601f8301121561058e57815193610e9c8561144c565b91610eaa604051938461142b565b8583526020868501011161058e576020806001935f8289819a82610da29a018386015e83010152945050509350610d59565b600a84116110f2575f5b848110610ef35750610cbf565b6024610f00828787611a66565b9050106110ad57610f12818686611a66565b60041161058e576001600160e01b031990351662d5fa2b60e81b811490811561109c575b811561108b575b811561107a575b501561103557610f55818686611a66565b60041161058e57610f67828787611a66565b918260241161058e575f92610fb16020859460405193849160048484019788378b60248401526024602319830191016044840137810186838201520301601f19810183528261142b565b519082865af13d15611030573d610fc78161144c565b90610fd5604051928361142b565b81525f60203d92013e5b15610fec57600101610ee6565b606460405162461bcd60e51b815260206004820152602060248201527f436f6e74726f6c6c65723a207265736f6c7665722063616c6c206661696c65646044820152fd5b610fdf565b60405162461bcd60e51b815260206004820152601f60248201527f436f6e74726f6c6c65723a20646973616c6c6f7765642073656c6563746f72006044820152606490fd5b631827356f60e11b1490505f610f44565b63043c4ea360e21b81149150610f3d565b638b95dd7160e01b81149150610f36565b60405162461bcd60e51b815260206004820152601f60248201527f436f6e74726f6c6c65723a2064617461206974656d20746f6f2073686f7274006044820152606490fd5b60405162461bcd60e51b815260206004820152601f60248201527f436f6e74726f6c6c65723a20746f6f206d616e792064617461206974656d73006044820152606490fd5b90506020813d602011611161575b816111526020938361142b565b8101031261058e57515f610cb7565b3d9150611145565b93985050505060405190633f2891eb60e21b825289600483015260018060a01b038816602483015260448201526020816064815f865af1908115610e49575f916111b5575b5094610cc4565b90506020813d6020116111df575b816111d06020938361142b565b8101031261058e57515f6111ae565b3d91506111c3565b90506020813d602011611211575b816112026020938361142b565b8101031261058e57515f610c32565b3d91506111f5565b60405162461bcd60e51b815260206004820152601860248201527f436f6e74726f6c6c65723a20696e76616c6964206e616d6500000000000000006044820152606490fd5b60405162461bcd60e51b815260206004820152601e60248201527f436f6e74726f6c6c65723a20636f6d6d69746d656e74206578706972656400006044820152606490fd5b634e487b7160e01b5f52601160045260245ffd5b60405162461bcd60e51b815260206004820152601e60248201527f436f6e74726f6c6c65723a20636f6d6d69746d656e7420746f6f206e657700006044820152606490fd5b606460405162461bcd60e51b815260206004820152602060248201527f436f6e74726f6c6c65723a20636f6d6d69746d656e74206e6f7420666f756e646044820152fd5b3461058e575f36600319011261058e576020604051600a8152f35b3461058e575f36600319011261058e576002546001600160a01b03168152602090f35b9181601f8401121561058e578235916001600160401b03831161058e576020838186019501011161058e57565b602435906001600160a01b038216820361058e57565b608435906001600160a01b038216820361058e57565b600435906001600160a01b038216820361058e57565b60c43590811515820361058e57565b604081019081106001600160401b0382111761141757604052565b634e487b7160e01b5f52604160045260245ffd5b90601f801991011681019081106001600160401b0382111761141757604052565b6001600160401b03811161141757601f01601f191660200190565b9291926114738261144c565b91611481604051938461142b565b82948184528183011161058e578281602093845f960137010152565b9080601f8301121561058e578160206114b893359101611467565b90565b929190926001600160401b038411611417578360051b9160206040516114e38286018261142b565b80968152019282019181831161058e5780935b838510611504575050505050565b84356001600160401b03811161058e57820183601f8201121561058e576020916115348583858095359101611467565b8152019401936114f6565b9080601f8301121561058e578160206114b8933591016114bb565b1561156157565b60405162461bcd60e51b815260206004820152601e60248201527f436f6e74726f6c6c65723a206475726174696f6e20746f6f2073686f727400006044820152606490fd5b156115ad57565b60405162461bcd60e51b815260206004820152601d60248201527f436f6e74726f6c6c65723a206475726174696f6e20746f6f206c6f6e670000006044820152606490fd5b919082018092116112a357565b90826040936080929796959760608552816060860152838501375f828285010152601f80199101168201019460208201520152565b805180835260209291819084018484015e5f828201840152601f01601f1916010190565b9691939492959096602081519101209460405196879560208701996101208801988b5260018060a01b031660408801526060870152608086015260018060a01b031660a085015261010060c0850152825180955261014084019460206101408260051b8701019401955f905b8282106116fd57505050151560e08401526001600160a01b031661010083015203601f19810183526116f791508261142b565b51902090565b91939550919360208061171d60019361013f198c82030186528a51611634565b980192019201879593919694926116c4565b905f602060405161173f816113fc565b8281520152815160208301209060018060a01b036001541660405192636b727d4360e11b8452600484015260208360248160018060a01b037f0000000000000000000000000000000000000000000000000000000000000000165afa928315610e49575f9361183d575b506117d5604093948451958694859384936350e9a71560e01b8552606060048601526064850190611634565b916024840152604483015203915afa908115610e49575f916117f5575090565b90506040813d604011611835575b816118106040938361142b565b8101031261058e57602060405191611827836113fc565b805183520151602082015290565b3d9150611803565b92506020833d60201161186b575b816118586020938361142b565b8101031261058e579151916117d56117a9565b3d915061184b565b60025f80516020611ace833981519152541461189c5760025f80516020611ace83398151915255565b633ee5aeb560e01b5f5260045ffd5b9081518110156118bc570160200190565b634e487b7160e01b5f52603260045260245ffd5b60038151106119cf575f5b815181101561196b576001600160f81b03196118f782846118ab565b5116606160f81b811015908161195c575b8115611938575b811561192a575b5015611924576001016118db565b50505f90565b602d60f81b1490505f611916565b9050600360fc1b8110158061194e575b9061190f565b50603960f81b811115611948565b603d60f91b8111159150611908565b508051156118bc5760208101516001600160f81b031916602d60f81b1490811561199e575b5061199a57600190565b5f90565b80515f198101925082116112a357602d60f81b916001600160f81b0319916119c691906118ab565b5116145f611990565b505f90565b6040516323b872dd60e01b5f9081526001600160a01b039384166004529290931660245260449390935260209060648180865af19060015f5114821615611a45575b6040525f60605215611a255750565b635274afe760e01b5f9081526001600160a01b0391909116600452602490fd5b906001811516611a5d57823b15153d15161690611a16565b503d5f823e3d90fd5b91908110156118bc5760051b81013590601e198136030182121561058e5701908135916001600160401b03831161058e57602001823603811361058e579190565b5f546001600160a01b03163303611aba57565b63118cdaa760e01b5f523360045260245ffdfe9b779b17422d0df92223018b32b4d1fa46e071723d6817e2486d003becc55f00a2646970667358221220968a50858c59de4979845a0bf8abe2aeda86fc1ccf2a142551397238d4e1917864736f6c634300081a0033","opcodes":"PUSH1 0xE0 CALLVALUE PUSH2 0x1D2 JUMPI PUSH1 0x1F PUSH2 0x1D0E CODESIZE DUP2 SWAP1 SUB SWAP2 DUP3 ADD PUSH1 0x1F NOT AND DUP4 ADD SWAP2 PUSH1 0x1 PUSH1 0x1 PUSH1 0x40 SHL SUB DUP4 GT DUP5 DUP5 LT OR PUSH2 0x1D6 JUMPI DUP1 DUP5 SWAP3 PUSH1 0xC0 SWAP5 PUSH1 0x40 MSTORE DUP4 CODECOPY DUP2 ADD SUB SLT PUSH2 0x1D2 JUMPI DUP1 MLOAD SWAP1 PUSH1 0x1 PUSH1 0x1 PUSH1 0xA0 SHL SUB DUP3 AND DUP3 SUB PUSH2 0x1D2 JUMPI PUSH1 0x20 DUP2 ADD MLOAD PUSH1 0x1 PUSH1 0x1 PUSH1 0xA0 SHL SUB DUP2 AND SWAP2 SWAP1 DUP3 SWAP1 SUB PUSH2 0x1D2 JUMPI PUSH1 0x40 DUP2 ADD MLOAD PUSH1 0x1 PUSH1 0x1 PUSH1 0xA0 SHL SUB DUP2 AND DUP2 SUB PUSH2 0x1D2 JUMPI PUSH1 0x60 DUP3 ADD MLOAD SWAP1 PUSH1 0x1 PUSH1 0x1 PUSH1 0xA0 SHL SUB DUP3 AND DUP3 SUB PUSH2 0x1D2 JUMPI PUSH1 0x80 DUP4 ADD MLOAD PUSH1 0x1 PUSH1 0x1 PUSH1 0xA0 SHL SUB DUP2 AND SWAP4 SWAP1 DUP5 SWAP1 SUB PUSH2 0x1D2 JUMPI PUSH1 0xA0 ADD MLOAD PUSH1 0x1 PUSH1 0x1 PUSH1 0xA0 SHL SUB DUP2 AND SWAP5 SWAP1 DUP6 SWAP1 SUB PUSH2 0x1D2 JUMPI CALLER ISZERO PUSH2 0x1BF JUMPI PUSH0 DUP1 SLOAD CALLER PUSH1 0x1 PUSH1 0x1 PUSH1 0xA0 SHL SUB NOT DUP3 AND DUP2 OR DUP4 SSTORE PUSH1 0x40 MLOAD SWAP9 SWAP3 SWAP1 SWAP2 PUSH1 0x1 PUSH1 0x1 PUSH1 0xA0 SHL SUB AND SWAP1 PUSH32 0x8BE0079C531659141344CD1FD0A4F28419497F9722A3DAAFE3B4186F6B6457E0 SWAP1 DUP1 LOG3 PUSH1 0x1 PUSH32 0x9B779B17422D0DF92223018B32B4D1FA46E071723D6817E2486D003BECC55F00 SSTORE PUSH1 0x80 MSTORE PUSH1 0x1 DUP1 PUSH1 0xA0 SHL SUB NOT PUSH1 0x1 SLOAD AND OR PUSH1 0x1 SSTORE PUSH1 0xA0 MSTORE PUSH1 0xC0 MSTORE PUSH1 0x1 DUP1 PUSH1 0xA0 SHL SUB NOT PUSH1 0x2 SLOAD AND OR PUSH1 0x2 SSTORE PUSH1 0x1 DUP1 PUSH1 0xA0 SHL SUB NOT PUSH1 0x4 SLOAD AND OR PUSH1 0x4 SSTORE PUSH2 0x1B23 SWAP1 DUP2 PUSH2 0x1EB DUP3 CODECOPY PUSH1 0x80 MLOAD DUP2 DUP2 DUP2 PUSH2 0x341 ADD MSTORE DUP2 DUP2 PUSH2 0x4C2 ADD MSTORE DUP2 DUP2 PUSH2 0x804 ADD MSTORE DUP2 DUP2 PUSH2 0xBED ADD MSTORE PUSH2 0x1779 ADD MSTORE PUSH1 0xA0 MLOAD DUP2 DUP2 DUP2 PUSH2 0x466 ADD MSTORE DUP2 DUP2 PUSH2 0x893 ADD MSTORE PUSH2 0xBAD ADD MSTORE PUSH1 0xC0 MLOAD DUP2 PUSH2 0x699 ADD MSTORE RETURN JUMPDEST PUSH4 0x1E4FBDF7 PUSH1 0xE0 SHL PUSH0 MSTORE PUSH0 PUSH1 0x4 MSTORE PUSH1 0x24 PUSH0 REVERT JUMPDEST PUSH0 DUP1 REVERT JUMPDEST PUSH4 0x4E487B71 PUSH1 0xE0 SHL PUSH0 MSTORE PUSH1 0x41 PUSH1 0x4 MSTORE PUSH1 0x24 PUSH0 REVERT INVALID PUSH1 0x80 DUP1 PUSH1 0x40 MSTORE PUSH1 0x4 CALLDATASIZE LT ISZERO PUSH2 0x12 JUMPI PUSH0 DUP1 REVERT JUMPDEST PUSH0 SWAP1 PUSH0 CALLDATALOAD PUSH1 0xE0 SHR SWAP1 DUP2 PUSH4 0x4F3BCEC EQ PUSH2 0x135B JUMPI POP DUP1 PUSH4 0x21E57D66 EQ PUSH2 0x1340 JUMPI DUP1 PUSH4 0x237592E8 EQ PUSH2 0xA2E JUMPI DUP1 PUSH4 0x2630C12F EQ PUSH2 0xA05 JUMPI DUP1 PUSH4 0x2E0BFEF7 EQ PUSH2 0x96A JUMPI DUP1 PUSH4 0x2E4F692A EQ PUSH2 0x94E JUMPI DUP1 PUSH4 0x3D4AA89E EQ PUSH2 0x8C2 JUMPI DUP1 PUSH4 0x3E413BEE EQ PUSH2 0x87D JUMPI DUP1 PUSH4 0x4E543B26 EQ PUSH2 0x833 JUMPI DUP1 PUSH4 0x5001F3B5 EQ PUSH2 0x7EE JUMPI DUP1 PUSH4 0x50CFEDDD EQ PUSH2 0x7D2 JUMPI DUP1 PUSH4 0x530E784F EQ PUSH2 0x76A JUMPI DUP1 PUSH4 0x59192B89 EQ PUSH2 0x74B JUMPI DUP1 PUSH4 0x61D027B3 EQ PUSH2 0x722 JUMPI DUP1 PUSH4 0x715018A6 EQ PUSH2 0x6C8 JUMPI DUP1 PUSH4 0x7B103999 EQ PUSH2 0x683 JUMPI DUP1 PUSH4 0x839DF945 EQ PUSH2 0x659 JUMPI DUP1 PUSH4 0x83E7F6FF EQ PUSH2 0x608 JUMPI DUP1 PUSH4 0x8A95B09F EQ PUSH2 0x5EA JUMPI DUP1 PUSH4 0x8CCB9EA6 EQ PUSH2 0x5CC JUMPI DUP1 PUSH4 0x8DA5CB5B EQ PUSH2 0x5A5 JUMPI DUP1 PUSH4 0xACF1A841 EQ PUSH2 0x3D2 JUMPI DUP1 PUSH4 0xAEB8CE9B EQ PUSH2 0x2CD JUMPI DUP1 PUSH4 0xF0F44260 EQ PUSH2 0x288 JUMPI DUP1 PUSH4 0xF14FCBC8 EQ PUSH2 0x1C4 JUMPI PUSH4 0xF2FDE38B EQ PUSH2 0x13C JUMPI PUSH0 DUP1 REVERT JUMPDEST CALLVALUE PUSH2 0x1C1 JUMPI PUSH1 0x20 CALLDATASIZE PUSH1 0x3 NOT ADD SLT PUSH2 0x1C1 JUMPI PUSH2 0x155 PUSH2 0x13D7 JUMP JUMPDEST PUSH2 0x15D PUSH2 0x1AA7 JUMP JUMPDEST PUSH1 0x1 PUSH1 0x1 PUSH1 0xA0 SHL SUB AND DUP1 ISZERO PUSH2 0x1AD JUMPI DUP2 SLOAD PUSH1 0x1 PUSH1 0x1 PUSH1 0xA0 SHL SUB NOT DUP2 AND DUP3 OR DUP4 SSTORE PUSH1 0x1 PUSH1 0x1 PUSH1 0xA0 SHL SUB AND PUSH32 0x8BE0079C531659141344CD1FD0A4F28419497F9722A3DAAFE3B4186F6B6457E0 DUP4 DUP1 LOG3 DUP1 RETURN JUMPDEST PUSH4 0x1E4FBDF7 PUSH1 0xE0 SHL DUP3 MSTORE PUSH1 0x4 DUP3 SWAP1 MSTORE PUSH1 0x24 DUP3 REVERT JUMPDEST DUP1 REVERT JUMPDEST POP CALLVALUE PUSH2 0x1C1 JUMPI PUSH1 0x20 CALLDATASIZE PUSH1 0x3 NOT ADD SLT PUSH2 0x1C1 JUMPI PUSH1 0x4 CALLDATALOAD DUP1 DUP3 MSTORE PUSH1 0x3 PUSH1 0x20 MSTORE PUSH1 0x40 DUP3 KECCAK256 SLOAD PUSH3 0x15180 DUP2 ADD DUP1 SWAP2 GT PUSH2 0x274 JUMPI TIMESTAMP GT ISZERO PUSH2 0x22F JUMPI DUP1 DUP3 MSTORE PUSH1 0x3 PUSH1 0x20 MSTORE TIMESTAMP PUSH1 0x40 DUP4 KECCAK256 SSTORE PUSH32 0x561EB038A114723AFA3C72B445ADD7B8602DE546264DA1E7E826AF628316DBCB DUP3 DUP1 LOG2 DUP1 RETURN JUMPDEST PUSH1 0x40 MLOAD PUSH3 0x461BCD PUSH1 0xE5 SHL DUP2 MSTORE PUSH1 0x20 PUSH1 0x4 DUP3 ADD MSTORE PUSH1 0x1D PUSH1 0x24 DUP3 ADD MSTORE PUSH32 0x436F6E74726F6C6C65723A20636F6D6D69746D656E7420657869737473000000 PUSH1 0x44 DUP3 ADD MSTORE PUSH1 0x64 SWAP1 REVERT JUMPDEST PUSH4 0x4E487B71 PUSH1 0xE0 SHL DUP4 MSTORE PUSH1 0x11 PUSH1 0x4 MSTORE PUSH1 0x24 DUP4 REVERT JUMPDEST POP CALLVALUE PUSH2 0x1C1 JUMPI PUSH1 0x20 CALLDATASIZE PUSH1 0x3 NOT ADD SLT PUSH2 0x1C1 JUMPI PUSH2 0x2A2 PUSH2 0x13D7 JUMP JUMPDEST PUSH2 0x2AA PUSH2 0x1AA7 JUMP JUMPDEST PUSH1 0x1 DUP1 PUSH1 0xA0 SHL SUB AND PUSH12 0xFFFFFFFFFFFFFFFFFFFFFFFF PUSH1 0xA0 SHL PUSH1 0x4 SLOAD AND OR PUSH1 0x4 SSTORE DUP1 RETURN JUMPDEST POP CALLVALUE PUSH2 0x1C1 JUMPI PUSH1 0x20 CALLDATASIZE PUSH1 0x3 NOT ADD SLT PUSH2 0x1C1 JUMPI PUSH1 0x4 CALLDATALOAD PUSH1 0x1 PUSH1 0x1 PUSH1 0x40 SHL SUB DUP2 GT PUSH2 0x3BB JUMPI PUSH2 0x2FE SWAP1 CALLDATASIZE SWAP1 PUSH1 0x4 ADD PUSH2 0x149D JUMP JUMPDEST PUSH2 0x30E DUP2 MLOAD PUSH1 0x20 DUP4 ADD KECCAK256 SWAP2 PUSH2 0x18D0 JUMP JUMPDEST SWAP1 DUP2 PUSH2 0x322 JUMPI JUMPDEST PUSH1 0x20 DUP3 PUSH1 0x40 MLOAD SWAP1 ISZERO ISZERO DUP2 MSTORE RETURN JUMPDEST PUSH1 0x40 MLOAD PUSH4 0x12DC929D PUSH1 0xE3 SHL DUP2 MSTORE PUSH1 0x4 DUP2 ADD SWAP2 SWAP1 SWAP2 MSTORE SWAP1 POP PUSH1 0x20 DUP2 PUSH1 0x24 DUP2 PUSH32 0x0 PUSH1 0x1 PUSH1 0x1 PUSH1 0xA0 SHL SUB AND GAS STATICCALL SWAP1 DUP2 ISZERO PUSH2 0x3C7 JUMPI DUP3 SWAP2 PUSH2 0x384 JUMPI JUMPDEST POP PUSH1 0x20 SWAP2 POP PUSH0 PUSH2 0x315 JUMP JUMPDEST SWAP1 POP PUSH1 0x20 DUP2 RETURNDATASIZE PUSH1 0x20 GT PUSH2 0x3BF JUMPI JUMPDEST DUP2 PUSH2 0x39F PUSH1 0x20 SWAP4 DUP4 PUSH2 0x142B JUMP JUMPDEST DUP2 ADD SUB SLT PUSH2 0x3BB JUMPI MLOAD DUP1 ISZERO ISZERO DUP2 SUB PUSH2 0x3BB JUMPI PUSH1 0x20 SWAP2 POP PUSH0 PUSH2 0x379 JUMP JUMPDEST POP DUP1 REVERT JUMPDEST RETURNDATASIZE SWAP2 POP PUSH2 0x392 JUMP JUMPDEST PUSH1 0x40 MLOAD RETURNDATASIZE DUP5 DUP3 RETURNDATACOPY RETURNDATASIZE SWAP1 REVERT JUMPDEST POP CALLVALUE PUSH2 0x1C1 JUMPI PUSH1 0x40 CALLDATASIZE PUSH1 0x3 NOT ADD SLT PUSH2 0x1C1 JUMPI PUSH1 0x4 CALLDATALOAD PUSH1 0x1 PUSH1 0x1 PUSH1 0x40 SHL SUB DUP2 GT PUSH2 0x3BB JUMPI PUSH2 0x403 SWAP1 CALLDATASIZE SWAP1 PUSH1 0x4 ADD PUSH2 0x137E JUMP JUMPDEST SWAP1 PUSH1 0x24 CALLDATALOAD SWAP2 PUSH2 0x410 PUSH2 0x1873 JUMP JUMPDEST PUSH2 0x41F PUSH3 0x24EA00 DUP5 LT ISZERO PUSH2 0x155A JUMP JUMPDEST PUSH2 0x42F PUSH4 0x12CC0300 DUP5 GT ISZERO PUSH2 0x15A6 JUMP JUMPDEST PUSH2 0x453 PUSH2 0x446 DUP5 PUSH2 0x441 CALLDATASIZE DUP6 DUP8 PUSH2 0x1467 JUMP JUMPDEST PUSH2 0x172F JUMP JUMPDEST PUSH1 0x20 DUP2 MLOAD SWAP2 ADD MLOAD SWAP1 PUSH2 0x15F2 JUMP JUMPDEST SWAP2 PUSH2 0x48A DUP4 PUSH1 0x1 DUP1 PUSH1 0xA0 SHL SUB PUSH1 0x4 SLOAD AND CALLER PUSH32 0x0 PUSH2 0x19D4 JUMP JUMPDEST PUSH2 0x495 CALLDATASIZE DUP4 DUP4 PUSH2 0x1467 JUMP JUMPDEST DUP1 MLOAD PUSH1 0x20 SWAP2 DUP3 ADD KECCAK256 PUSH1 0x40 MLOAD PUSH4 0xC475ABFF PUSH1 0xE0 SHL DUP2 MSTORE PUSH1 0x4 DUP2 ADD DUP3 SWAP1 MSTORE PUSH1 0x24 DUP2 ADD SWAP7 SWAP1 SWAP7 MSTORE SWAP5 SWAP1 DUP2 PUSH1 0x44 DUP2 DUP10 PUSH32 0x0 PUSH1 0x1 PUSH1 0x1 PUSH1 0xA0 SHL SUB AND GAS CALL SWAP1 DUP2 ISZERO PUSH2 0x59A JUMPI DUP7 SWAP2 PUSH2 0x544 JUMPI JUMPDEST POP PUSH2 0x52D SWAP1 PUSH32 0x3DA24C024582931CFAF8267D8ED24D13A82A8068D5BD337D30EC45CEA4E506AE SWAP5 PUSH1 0x40 MLOAD SWAP5 DUP6 SWAP5 DUP6 PUSH2 0x15FF JUMP JUMPDEST SUB SWAP1 LOG2 PUSH1 0x1 PUSH0 DUP1 MLOAD PUSH1 0x20 PUSH2 0x1ACE DUP4 CODECOPY DUP2 MLOAD SWAP2 MSTORE SSTORE DUP1 RETURN JUMPDEST SWAP1 POP PUSH1 0x20 DUP2 RETURNDATASIZE PUSH1 0x20 GT PUSH2 0x592 JUMPI JUMPDEST DUP2 PUSH2 0x55F PUSH1 0x20 SWAP4 DUP4 PUSH2 0x142B JUMP JUMPDEST DUP2 ADD SUB SLT PUSH2 0x58E JUMPI MLOAD PUSH32 0x3DA24C024582931CFAF8267D8ED24D13A82A8068D5BD337D30EC45CEA4E506AE PUSH2 0x4FA JUMP JUMPDEST PUSH0 DUP1 REVERT JUMPDEST RETURNDATASIZE SWAP2 POP PUSH2 0x552 JUMP JUMPDEST PUSH1 0x40 MLOAD RETURNDATASIZE DUP9 DUP3 RETURNDATACOPY RETURNDATASIZE SWAP1 REVERT JUMPDEST POP CALLVALUE PUSH2 0x1C1 JUMPI DUP1 PUSH1 0x3 NOT CALLDATASIZE ADD SLT PUSH2 0x1C1 JUMPI SLOAD PUSH1 0x40 MLOAD PUSH1 0x1 PUSH1 0x1 PUSH1 0xA0 SHL SUB SWAP1 SWAP2 AND DUP2 MSTORE PUSH1 0x20 SWAP1 RETURN JUMPDEST POP CALLVALUE PUSH2 0x1C1 JUMPI DUP1 PUSH1 0x3 NOT CALLDATASIZE ADD SLT PUSH2 0x1C1 JUMPI PUSH1 0x20 PUSH1 0x40 MLOAD PUSH3 0x15180 DUP2 MSTORE RETURN JUMPDEST POP CALLVALUE PUSH2 0x1C1 JUMPI DUP1 PUSH1 0x3 NOT CALLDATASIZE ADD SLT PUSH2 0x1C1 JUMPI PUSH1 0x20 PUSH1 0x40 MLOAD PUSH3 0x24EA00 DUP2 MSTORE RETURN JUMPDEST POP CALLVALUE PUSH2 0x1C1 JUMPI PUSH1 0x40 CALLDATASIZE PUSH1 0x3 NOT ADD SLT PUSH2 0x1C1 JUMPI PUSH1 0x4 CALLDATALOAD SWAP1 PUSH1 0x1 PUSH1 0x1 PUSH1 0x40 SHL SUB DUP3 GT PUSH2 0x1C1 JUMPI PUSH1 0x40 PUSH2 0x647 PUSH2 0x63E CALLDATASIZE PUSH1 0x4 DUP7 ADD PUSH2 0x149D JUMP JUMPDEST PUSH1 0x24 CALLDATALOAD SWAP1 PUSH2 0x172F JUMP JUMPDEST PUSH1 0x20 DUP3 MLOAD SWAP2 DUP1 MLOAD DUP4 MSTORE ADD MLOAD PUSH1 0x20 DUP3 ADD MSTORE RETURN JUMPDEST POP CALLVALUE PUSH2 0x1C1 JUMPI PUSH1 0x20 CALLDATASIZE PUSH1 0x3 NOT ADD SLT PUSH2 0x1C1 JUMPI PUSH1 0x40 PUSH1 0x20 SWAP2 PUSH1 0x4 CALLDATALOAD DUP2 MSTORE PUSH1 0x3 DUP4 MSTORE KECCAK256 SLOAD PUSH1 0x40 MLOAD SWAP1 DUP2 MSTORE RETURN JUMPDEST POP CALLVALUE PUSH2 0x1C1 JUMPI DUP1 PUSH1 0x3 NOT CALLDATASIZE ADD SLT PUSH2 0x1C1 JUMPI PUSH1 0x40 MLOAD PUSH32 0x0 PUSH1 0x1 PUSH1 0x1 PUSH1 0xA0 SHL SUB AND DUP2 MSTORE PUSH1 0x20 SWAP1 RETURN JUMPDEST POP CALLVALUE PUSH2 0x1C1 JUMPI DUP1 PUSH1 0x3 NOT CALLDATASIZE ADD SLT PUSH2 0x1C1 JUMPI PUSH2 0x6E1 PUSH2 0x1AA7 JUMP JUMPDEST DUP1 SLOAD PUSH1 0x1 PUSH1 0x1 PUSH1 0xA0 SHL SUB NOT DUP2 AND DUP3 SSTORE DUP2 SWAP1 PUSH1 0x1 PUSH1 0x1 PUSH1 0xA0 SHL SUB AND PUSH32 0x8BE0079C531659141344CD1FD0A4F28419497F9722A3DAAFE3B4186F6B6457E0 DUP3 DUP1 LOG3 DUP1 RETURN JUMPDEST POP CALLVALUE PUSH2 0x1C1 JUMPI DUP1 PUSH1 0x3 NOT CALLDATASIZE ADD SLT PUSH2 0x1C1 JUMPI PUSH1 0x4 SLOAD PUSH1 0x40 MLOAD PUSH1 0x1 PUSH1 0x1 PUSH1 0xA0 SHL SUB SWAP1 SWAP2 AND DUP2 MSTORE PUSH1 0x20 SWAP1 RETURN JUMPDEST POP CALLVALUE PUSH2 0x1C1 JUMPI DUP1 PUSH1 0x3 NOT CALLDATASIZE ADD SLT PUSH2 0x1C1 JUMPI PUSH1 0x20 PUSH1 0x40 MLOAD PUSH4 0x12CC0300 DUP2 MSTORE RETURN JUMPDEST POP CALLVALUE PUSH2 0x1C1 JUMPI PUSH1 0x20 CALLDATASIZE PUSH1 0x3 NOT ADD SLT PUSH2 0x1C1 JUMPI PUSH1 0x4 CALLDATALOAD PUSH1 0x1 PUSH1 0x1 PUSH1 0xA0 SHL SUB DUP2 AND SWAP1 DUP2 SWAP1 SUB PUSH2 0x3BB JUMPI PUSH2 0x799 PUSH2 0x1AA7 JUMP JUMPDEST PUSH1 0x1 DUP1 SLOAD PUSH1 0x1 PUSH1 0x1 PUSH1 0xA0 SHL SUB NOT AND DUP3 OR SWAP1 SSTORE PUSH32 0xF261845A790FE29BBD6631E2CA4A5BDC83E6EED7C3271D9590D97287E00E9123 DUP3 DUP1 LOG2 DUP1 RETURN JUMPDEST POP CALLVALUE PUSH2 0x1C1 JUMPI DUP1 PUSH1 0x3 NOT CALLDATASIZE ADD SLT PUSH2 0x1C1 JUMPI PUSH1 0x20 PUSH1 0x40 MLOAD PUSH1 0x3 DUP2 MSTORE RETURN JUMPDEST POP CALLVALUE PUSH2 0x1C1 JUMPI DUP1 PUSH1 0x3 NOT CALLDATASIZE ADD SLT PUSH2 0x1C1 JUMPI PUSH1 0x40 MLOAD PUSH32 0x0 PUSH1 0x1 PUSH1 0x1 PUSH1 0xA0 SHL SUB AND DUP2 MSTORE PUSH1 0x20 SWAP1 RETURN JUMPDEST POP CALLVALUE PUSH2 0x1C1 JUMPI PUSH1 0x20 CALLDATASIZE PUSH1 0x3 NOT ADD SLT PUSH2 0x1C1 JUMPI PUSH1 0x4 CALLDATALOAD PUSH1 0x1 PUSH1 0x1 PUSH1 0xA0 SHL SUB DUP2 AND SWAP1 DUP2 SWAP1 SUB PUSH2 0x3BB JUMPI PUSH2 0x862 PUSH2 0x1AA7 JUMP JUMPDEST PUSH12 0xFFFFFFFFFFFFFFFFFFFFFFFF PUSH1 0xA0 SHL PUSH1 0x2 SLOAD AND OR PUSH1 0x2 SSTORE DUP1 RETURN JUMPDEST POP CALLVALUE PUSH2 0x1C1 JUMPI DUP1 PUSH1 0x3 NOT CALLDATASIZE ADD SLT PUSH2 0x1C1 JUMPI PUSH1 0x40 MLOAD PUSH32 0x0 PUSH1 0x1 PUSH1 0x1 PUSH1 0xA0 SHL SUB AND DUP2 MSTORE PUSH1 0x20 SWAP1 RETURN JUMPDEST POP CALLVALUE PUSH2 0x1C1 JUMPI PUSH1 0xE0 CALLDATASIZE PUSH1 0x3 NOT ADD SLT PUSH2 0x1C1 JUMPI PUSH1 0x4 CALLDATALOAD PUSH1 0x1 PUSH1 0x1 PUSH1 0x40 SHL SUB DUP2 GT PUSH2 0x3BB JUMPI PUSH2 0x8F3 SWAP1 CALLDATASIZE SWAP1 PUSH1 0x4 ADD PUSH2 0x149D JUMP JUMPDEST SWAP1 PUSH2 0x8FC PUSH2 0x13AB JUMP JUMPDEST SWAP1 PUSH2 0x905 PUSH2 0x13C1 JUMP JUMPDEST SWAP1 PUSH1 0xA4 CALLDATALOAD SWAP1 PUSH1 0x1 PUSH1 0x1 PUSH1 0x40 SHL SUB DUP3 GT PUSH2 0x1C1 JUMPI PUSH1 0x20 PUSH2 0x946 DUP7 DUP7 DUP7 PUSH2 0x92D CALLDATASIZE PUSH1 0x4 DUP10 ADD PUSH2 0x153F JUMP JUMPDEST SWAP1 PUSH2 0x936 PUSH2 0x13ED JUMP JUMPDEST SWAP3 CALLER SWAP5 PUSH1 0x64 CALLDATALOAD SWAP2 PUSH1 0x44 CALLDATALOAD SWAP2 PUSH2 0x1658 JUMP JUMPDEST PUSH1 0x40 MLOAD SWAP1 DUP2 MSTORE RETURN JUMPDEST POP CALLVALUE PUSH2 0x1C1 JUMPI DUP1 PUSH1 0x3 NOT CALLDATASIZE ADD SLT PUSH2 0x1C1 JUMPI PUSH1 0x20 PUSH1 0x40 MLOAD PUSH1 0x3C DUP2 MSTORE RETURN JUMPDEST POP CALLVALUE PUSH2 0x1C1 JUMPI PUSH2 0x100 CALLDATASIZE PUSH1 0x3 NOT ADD SLT PUSH2 0x1C1 JUMPI PUSH1 0x4 CALLDATALOAD PUSH1 0x1 PUSH1 0x1 PUSH1 0x40 SHL SUB DUP2 GT PUSH2 0x3BB JUMPI PUSH2 0x99C SWAP1 CALLDATASIZE SWAP1 PUSH1 0x4 ADD PUSH2 0x149D JUMP JUMPDEST PUSH2 0x9A4 PUSH2 0x13AB JUMP JUMPDEST PUSH2 0x9AC PUSH2 0x13C1 JUMP JUMPDEST PUSH1 0xA4 CALLDATALOAD PUSH1 0x1 PUSH1 0x1 PUSH1 0x40 SHL SUB DUP2 GT PUSH2 0xA01 JUMPI PUSH2 0x9CB SWAP1 CALLDATASIZE SWAP1 PUSH1 0x4 ADD PUSH2 0x153F JUMP JUMPDEST SWAP2 PUSH2 0x9D4 PUSH2 0x13ED JUMP JUMPDEST PUSH1 0xE4 CALLDATALOAD SWAP6 SWAP1 SWAP5 SWAP1 PUSH1 0x1 PUSH1 0x1 PUSH1 0xA0 SHL SUB DUP8 AND DUP8 SUB PUSH2 0x1C1 JUMPI PUSH1 0x20 PUSH2 0x946 DUP9 DUP9 DUP9 DUP9 PUSH1 0x64 CALLDATALOAD PUSH1 0x44 CALLDATALOAD DUP11 DUP11 PUSH2 0x1658 JUMP JUMPDEST DUP5 DUP1 REVERT JUMPDEST POP CALLVALUE PUSH2 0x1C1 JUMPI DUP1 PUSH1 0x3 NOT CALLDATASIZE ADD SLT PUSH2 0x1C1 JUMPI PUSH1 0x1 SLOAD PUSH1 0x40 MLOAD PUSH1 0x1 PUSH1 0x1 PUSH1 0xA0 SHL SUB SWAP1 SWAP2 AND DUP2 MSTORE PUSH1 0x20 SWAP1 RETURN JUMPDEST POP CALLVALUE PUSH2 0x58E JUMPI PUSH1 0xE0 CALLDATASIZE PUSH1 0x3 NOT ADD SLT PUSH2 0x58E JUMPI PUSH1 0x4 CALLDATALOAD PUSH1 0x1 PUSH1 0x1 PUSH1 0x40 SHL SUB DUP2 GT PUSH2 0x58E JUMPI PUSH2 0xA5F SWAP1 CALLDATASIZE SWAP1 PUSH1 0x4 ADD PUSH2 0x137E JUMP JUMPDEST PUSH2 0xA67 PUSH2 0x13AB JUMP JUMPDEST SWAP1 PUSH1 0x44 CALLDATALOAD SWAP2 PUSH2 0xA74 PUSH2 0x13C1 JUMP JUMPDEST PUSH1 0xA4 CALLDATALOAD SWAP4 PUSH1 0x1 PUSH1 0x1 PUSH1 0x40 SHL SUB DUP6 GT PUSH2 0x58E JUMPI CALLDATASIZE PUSH1 0x23 DUP7 ADD SLT ISZERO PUSH2 0x58E JUMPI DUP5 PUSH1 0x4 ADD CALLDATALOAD SWAP1 PUSH1 0x1 PUSH1 0x1 PUSH1 0x40 SHL SUB DUP3 GT PUSH2 0x58E JUMPI PUSH1 0x24 DUP7 ADD SWAP6 PUSH1 0x24 CALLDATASIZE SWAP2 DUP5 PUSH1 0x5 SHL ADD ADD GT PUSH2 0x58E JUMPI PUSH2 0xAC1 PUSH2 0x13ED JUMP JUMPDEST SWAP6 PUSH2 0xACA PUSH2 0x1873 JUMP JUMPDEST PUSH2 0xAF3 PUSH2 0xAD8 CALLDATASIZE DUP9 DUP12 PUSH2 0x1467 JUMP JUMPDEST DUP9 CALLER SWAP2 DUP8 PUSH2 0xAE7 CALLDATASIZE DUP10 DUP9 PUSH2 0x14BB JUMP JUMPDEST SWAP2 DUP8 DUP12 PUSH1 0x64 CALLDATALOAD SWAP3 PUSH2 0x1658 JUMP JUMPDEST DUP1 PUSH0 MSTORE PUSH1 0x3 PUSH1 0x20 MSTORE PUSH1 0x40 PUSH0 KECCAK256 SLOAD ISZERO PUSH2 0x12FC JUMPI DUP1 PUSH0 MSTORE PUSH1 0x3 PUSH1 0x20 MSTORE PUSH1 0x40 PUSH0 KECCAK256 SLOAD PUSH1 0x3C DUP2 ADD DUP1 SWAP2 GT PUSH2 0x12A3 JUMPI TIMESTAMP LT PUSH2 0x12B7 JUMPI DUP1 PUSH0 MSTORE PUSH1 0x3 PUSH1 0x20 MSTORE PUSH1 0x40 PUSH0 KECCAK256 SLOAD PUSH3 0x15180 DUP2 ADD DUP1 SWAP2 GT PUSH2 0x12A3 JUMPI TIMESTAMP LT ISZERO PUSH2 0x125E JUMPI PUSH0 MSTORE PUSH1 0x3 PUSH1 0x20 MSTORE PUSH0 PUSH1 0x40 DUP2 KECCAK256 SSTORE PUSH2 0xB64 PUSH2 0xB5F CALLDATASIZE DUP9 DUP12 PUSH2 0x1467 JUMP JUMPDEST PUSH2 0x18D0 JUMP JUMPDEST ISZERO PUSH2 0x1219 JUMPI PUSH2 0xB78 PUSH3 0x24EA00 DUP4 LT ISZERO PUSH2 0x155A JUMP JUMPDEST PUSH2 0xB88 PUSH4 0x12CC0300 DUP4 GT ISZERO PUSH2 0x15A6 JUMP JUMPDEST PUSH2 0xB9A PUSH2 0x446 DUP4 PUSH2 0x441 CALLDATASIZE DUP11 DUP14 PUSH2 0x1467 JUMP JUMPDEST SWAP3 PUSH2 0xBD1 DUP5 PUSH1 0x1 DUP1 PUSH1 0xA0 SHL SUB PUSH1 0x4 SLOAD AND CALLER PUSH32 0x0 PUSH2 0x19D4 JUMP JUMPDEST PUSH2 0xBDC CALLDATASIZE DUP9 DUP12 PUSH2 0x1467 JUMP JUMPDEST PUSH1 0x20 DUP2 MLOAD SWAP2 ADD KECCAK256 SWAP8 PUSH1 0x1 DUP1 PUSH1 0xA0 SHL SUB PUSH32 0x0 AND SWAP2 PUSH1 0x40 MLOAD PUSH4 0xDDF7FCB PUSH1 0xE4 SHL DUP2 MSTORE PUSH1 0x20 DUP2 PUSH1 0x4 DUP2 DUP8 GAS STATICCALL SWAP1 DUP2 ISZERO PUSH2 0xE49 JUMPI PUSH0 SWAP2 PUSH2 0x11E7 JUMPI JUMPDEST POP PUSH1 0x40 MLOAD PUSH1 0x20 DUP2 ADD SWAP2 DUP3 MSTORE DUP12 PUSH1 0x40 DUP3 ADD MSTORE PUSH1 0x40 DUP2 MSTORE PUSH2 0xC52 PUSH1 0x60 DUP3 PUSH2 0x142B JUMP JUMPDEST MLOAD SWAP1 KECCAK256 PUSH1 0x1 PUSH1 0x1 PUSH1 0xA0 SHL SUB DUP9 AND DUP1 ISZERO DUP1 ISZERO SWAP8 SWAP2 SWAP7 SWAP3 SWAP2 SWAP1 PUSH2 0x1169 JUMPI PUSH1 0x40 MLOAD PUSH4 0x1EF5ACE9 PUSH1 0xE2 SHL DUP2 MSTORE PUSH1 0x4 DUP2 ADD DUP15 SWAP1 MSTORE PUSH1 0x1 PUSH1 0x1 PUSH1 0xA0 SHL SUB DUP13 AND PUSH1 0x24 DUP3 ADD MSTORE PUSH1 0x44 DUP2 ADD SWAP2 SWAP1 SWAP2 MSTORE PUSH1 0x64 DUP2 ADD DUP8 SWAP1 MSTORE PUSH1 0x20 DUP2 PUSH1 0x84 DUP2 PUSH0 DUP11 GAS CALL SWAP1 DUP2 ISZERO PUSH2 0xE49 JUMPI PUSH0 SWAP2 PUSH2 0x1137 JUMPI JUMPDEST POP SWAP9 DUP4 PUSH2 0xEDC JUMPI JUMPDEST POP POP POP POP JUMPDEST PUSH2 0xD23 JUMPI JUMPDEST POP POP PUSH1 0x40 MLOAD PUSH1 0x1 PUSH1 0x1 PUSH1 0xA0 SHL SUB SWAP1 SWAP5 AND SWAP7 PUSH32 0xCA6ABBE9D7F11422CB6CA7629FBF6FE9EFB1C621F71CE8F02B9F2A230097404F SWAP6 DUP6 SWAP5 PUSH2 0xD0C SWAP5 SWAP1 SWAP4 POP SWAP2 DUP6 PUSH2 0x15FF JUMP JUMPDEST SUB SWAP1 LOG3 PUSH1 0x1 PUSH0 DUP1 MLOAD PUSH1 0x20 PUSH2 0x1ACE DUP4 CODECOPY DUP2 MLOAD SWAP2 MSTORE SSTORE DUP1 RETURN JUMPDEST PUSH2 0xD2E CALLDATASIZE DUP9 DUP12 PUSH2 0x1467 JUMP JUMPDEST SWAP3 ISZERO PUSH2 0xCC9 JUMPI PUSH0 PUSH1 0x4 SWAP2 PUSH1 0x40 MLOAD SWAP3 DUP4 DUP1 SWAP3 PUSH4 0x16AA8A19 PUSH1 0xE1 SHL DUP3 MSTORE GAS STATICCALL SWAP1 DUP2 ISZERO PUSH2 0xE49 JUMPI PUSH0 SWAP2 PUSH2 0xE54 JUMPI JUMPDEST POP PUSH1 0x1 PUSH1 0x20 SWAP4 DUP5 DUP1 PUSH2 0xDA2 SWAP5 PUSH1 0x40 MLOAD SWAP8 DUP5 DUP10 SWAP6 MLOAD SWAP2 DUP3 SWAP2 ADD DUP5 DUP8 ADD MCOPY DUP5 ADD SWAP1 PUSH1 0x17 PUSH1 0xF9 SHL DUP4 DUP4 ADD MSTORE DUP1 MLOAD SWAP3 DUP4 SWAP2 ADD PUSH1 0x21 DUP4 ADD MCOPY ADD ADD PUSH0 DUP4 DUP3 ADD MSTORE SUB ADD PUSH1 0x1F NOT DUP2 ADD DUP5 MSTORE DUP4 PUSH2 0x142B JUMP JUMPDEST DUP1 EXTCODESIZE ISZERO PUSH2 0x58E JUMPI PUSH1 0x40 MLOAD PUSH4 0x7A806D6B PUSH1 0xE0 SHL DUP2 MSTORE PUSH1 0x1 PUSH1 0x1 PUSH1 0xA0 SHL SUB DUP7 AND PUSH1 0x4 DUP3 ADD DUP2 SWAP1 MSTORE PUSH1 0x24 DUP3 ADD MSTORE PUSH1 0x44 DUP2 ADD DUP3 SWAP1 MSTORE PUSH1 0x80 PUSH1 0x64 DUP3 ADD MSTORE SWAP2 PUSH0 SWAP2 DUP4 SWAP2 DUP3 SWAP1 DUP5 SWAP1 DUP3 SWAP1 PUSH2 0xDF3 SWAP1 PUSH1 0x84 DUP4 ADD SWAP1 PUSH2 0x1634 JUMP JUMPDEST SUB SWAP3 GAS CALL DUP1 ISZERO PUSH2 0xE49 JUMPI PUSH2 0xE09 JUMPI JUMPDEST DUP1 DUP1 PUSH2 0xCC9 JUMP JUMPDEST PUSH2 0xD0C SWAP2 SWAP8 POP SWAP2 PUSH2 0xE3D PUSH0 PUSH32 0xCA6ABBE9D7F11422CB6CA7629FBF6FE9EFB1C621F71CE8F02B9F2A230097404F SWAP7 SWAP6 SWAP5 PUSH2 0x142B JUMP JUMPDEST PUSH0 SWAP8 SWAP2 POP SWAP2 SWAP3 SWAP4 PUSH2 0xE02 JUMP JUMPDEST PUSH1 0x40 MLOAD RETURNDATASIZE PUSH0 DUP3 RETURNDATACOPY RETURNDATASIZE SWAP1 REVERT JUMPDEST SWAP1 POP RETURNDATASIZE DUP1 PUSH0 DUP4 RETURNDATACOPY PUSH2 0xE65 DUP2 DUP4 PUSH2 0x142B JUMP JUMPDEST DUP2 ADD SWAP1 PUSH1 0x20 DUP2 DUP4 SUB SLT PUSH2 0x58E JUMPI DUP1 MLOAD SWAP1 PUSH1 0x1 PUSH1 0x1 PUSH1 0x40 SHL SUB DUP3 GT PUSH2 0x58E JUMPI ADD SWAP1 DUP1 PUSH1 0x1F DUP4 ADD SLT ISZERO PUSH2 0x58E JUMPI DUP2 MLOAD SWAP4 PUSH2 0xE9C DUP6 PUSH2 0x144C JUMP JUMPDEST SWAP2 PUSH2 0xEAA PUSH1 0x40 MLOAD SWAP4 DUP5 PUSH2 0x142B JUMP JUMPDEST DUP6 DUP4 MSTORE PUSH1 0x20 DUP7 DUP6 ADD ADD GT PUSH2 0x58E JUMPI PUSH1 0x20 DUP1 PUSH1 0x1 SWAP4 PUSH0 DUP3 DUP10 DUP2 SWAP11 DUP3 PUSH2 0xDA2 SWAP11 ADD DUP4 DUP7 ADD MCOPY DUP4 ADD ADD MSTORE SWAP5 POP POP POP SWAP4 POP PUSH2 0xD59 JUMP JUMPDEST PUSH1 0xA DUP5 GT PUSH2 0x10F2 JUMPI PUSH0 JUMPDEST DUP5 DUP2 LT PUSH2 0xEF3 JUMPI POP PUSH2 0xCBF JUMP JUMPDEST PUSH1 0x24 PUSH2 0xF00 DUP3 DUP8 DUP8 PUSH2 0x1A66 JUMP JUMPDEST SWAP1 POP LT PUSH2 0x10AD JUMPI PUSH2 0xF12 DUP2 DUP7 DUP7 PUSH2 0x1A66 JUMP JUMPDEST PUSH1 0x4 GT PUSH2 0x58E JUMPI PUSH1 0x1 PUSH1 0x1 PUSH1 0xE0 SHL SUB NOT SWAP1 CALLDATALOAD AND PUSH3 0xD5FA2B PUSH1 0xE8 SHL DUP2 EQ SWAP1 DUP2 ISZERO PUSH2 0x109C JUMPI JUMPDEST DUP2 ISZERO PUSH2 0x108B JUMPI JUMPDEST DUP2 ISZERO PUSH2 0x107A JUMPI JUMPDEST POP ISZERO PUSH2 0x1035 JUMPI PUSH2 0xF55 DUP2 DUP7 DUP7 PUSH2 0x1A66 JUMP JUMPDEST PUSH1 0x4 GT PUSH2 0x58E JUMPI PUSH2 0xF67 DUP3 DUP8 DUP8 PUSH2 0x1A66 JUMP JUMPDEST SWAP2 DUP3 PUSH1 0x24 GT PUSH2 0x58E JUMPI PUSH0 SWAP3 PUSH2 0xFB1 PUSH1 0x20 DUP6 SWAP5 PUSH1 0x40 MLOAD SWAP4 DUP5 SWAP2 PUSH1 0x4 DUP5 DUP5 ADD SWAP8 DUP9 CALLDATACOPY DUP12 PUSH1 0x24 DUP5 ADD MSTORE PUSH1 0x24 PUSH1 0x23 NOT DUP4 ADD SWAP2 ADD PUSH1 0x44 DUP5 ADD CALLDATACOPY DUP2 ADD DUP7 DUP4 DUP3 ADD MSTORE SUB ADD PUSH1 0x1F NOT DUP2 ADD DUP4 MSTORE DUP3 PUSH2 0x142B JUMP JUMPDEST MLOAD SWAP1 DUP3 DUP7 GAS CALL RETURNDATASIZE ISZERO PUSH2 0x1030 JUMPI RETURNDATASIZE PUSH2 0xFC7 DUP2 PUSH2 0x144C JUMP JUMPDEST SWAP1 PUSH2 0xFD5 PUSH1 0x40 MLOAD SWAP3 DUP4 PUSH2 0x142B JUMP JUMPDEST DUP2 MSTORE PUSH0 PUSH1 0x20 RETURNDATASIZE SWAP3 ADD RETURNDATACOPY JUMPDEST ISZERO PUSH2 0xFEC JUMPI PUSH1 0x1 ADD PUSH2 0xEE6 JUMP JUMPDEST PUSH1 0x64 PUSH1 0x40 MLOAD PUSH3 0x461BCD PUSH1 0xE5 SHL DUP2 MSTORE PUSH1 0x20 PUSH1 0x4 DUP3 ADD MSTORE PUSH1 0x20 PUSH1 0x24 DUP3 ADD MSTORE PUSH32 0x436F6E74726F6C6C65723A207265736F6C7665722063616C6C206661696C6564 PUSH1 0x44 DUP3 ADD MSTORE REVERT JUMPDEST PUSH2 0xFDF JUMP JUMPDEST PUSH1 0x40 MLOAD PUSH3 0x461BCD PUSH1 0xE5 SHL DUP2 MSTORE PUSH1 0x20 PUSH1 0x4 DUP3 ADD MSTORE PUSH1 0x1F PUSH1 0x24 DUP3 ADD MSTORE PUSH32 0x436F6E74726F6C6C65723A20646973616C6C6F7765642073656C6563746F7200 PUSH1 0x44 DUP3 ADD MSTORE PUSH1 0x64 SWAP1 REVERT JUMPDEST PUSH4 0x1827356F PUSH1 0xE1 SHL EQ SWAP1 POP PUSH0 PUSH2 0xF44 JUMP JUMPDEST PUSH4 0x43C4EA3 PUSH1 0xE2 SHL DUP2 EQ SWAP2 POP PUSH2 0xF3D JUMP JUMPDEST PUSH4 0x8B95DD71 PUSH1 0xE0 SHL DUP2 EQ SWAP2 POP PUSH2 0xF36 JUMP JUMPDEST PUSH1 0x40 MLOAD PUSH3 0x461BCD PUSH1 0xE5 SHL DUP2 MSTORE PUSH1 0x20 PUSH1 0x4 DUP3 ADD MSTORE PUSH1 0x1F PUSH1 0x24 DUP3 ADD MSTORE PUSH32 0x436F6E74726F6C6C65723A2064617461206974656D20746F6F2073686F727400 PUSH1 0x44 DUP3 ADD MSTORE PUSH1 0x64 SWAP1 REVERT JUMPDEST PUSH1 0x40 MLOAD PUSH3 0x461BCD PUSH1 0xE5 SHL DUP2 MSTORE PUSH1 0x20 PUSH1 0x4 DUP3 ADD MSTORE PUSH1 0x1F PUSH1 0x24 DUP3 ADD MSTORE PUSH32 0x436F6E74726F6C6C65723A20746F6F206D616E792064617461206974656D7300 PUSH1 0x44 DUP3 ADD MSTORE PUSH1 0x64 SWAP1 REVERT JUMPDEST SWAP1 POP PUSH1 0x20 DUP2 RETURNDATASIZE PUSH1 0x20 GT PUSH2 0x1161 JUMPI JUMPDEST DUP2 PUSH2 0x1152 PUSH1 0x20 SWAP4 DUP4 PUSH2 0x142B JUMP JUMPDEST DUP2 ADD SUB SLT PUSH2 0x58E JUMPI MLOAD PUSH0 PUSH2 0xCB7 JUMP JUMPDEST RETURNDATASIZE SWAP2 POP PUSH2 0x1145 JUMP JUMPDEST SWAP4 SWAP9 POP POP POP POP PUSH1 0x40 MLOAD SWAP1 PUSH4 0x3F2891EB PUSH1 0xE2 SHL DUP3 MSTORE DUP10 PUSH1 0x4 DUP4 ADD MSTORE PUSH1 0x1 DUP1 PUSH1 0xA0 SHL SUB DUP9 AND PUSH1 0x24 DUP4 ADD MSTORE PUSH1 0x44 DUP3 ADD MSTORE PUSH1 0x20 DUP2 PUSH1 0x64 DUP2 PUSH0 DUP7 GAS CALL SWAP1 DUP2 ISZERO PUSH2 0xE49 JUMPI PUSH0 SWAP2 PUSH2 0x11B5 JUMPI JUMPDEST POP SWAP5 PUSH2 0xCC4 JUMP JUMPDEST SWAP1 POP PUSH1 0x20 DUP2 RETURNDATASIZE PUSH1 0x20 GT PUSH2 0x11DF JUMPI JUMPDEST DUP2 PUSH2 0x11D0 PUSH1 0x20 SWAP4 DUP4 PUSH2 0x142B JUMP JUMPDEST DUP2 ADD SUB SLT PUSH2 0x58E JUMPI MLOAD PUSH0 PUSH2 0x11AE JUMP JUMPDEST RETURNDATASIZE SWAP2 POP PUSH2 0x11C3 JUMP JUMPDEST SWAP1 POP PUSH1 0x20 DUP2 RETURNDATASIZE PUSH1 0x20 GT PUSH2 0x1211 JUMPI JUMPDEST DUP2 PUSH2 0x1202 PUSH1 0x20 SWAP4 DUP4 PUSH2 0x142B JUMP JUMPDEST DUP2 ADD SUB SLT PUSH2 0x58E JUMPI MLOAD PUSH0 PUSH2 0xC32 JUMP JUMPDEST RETURNDATASIZE SWAP2 POP PUSH2 0x11F5 JUMP JUMPDEST PUSH1 0x40 MLOAD PUSH3 0x461BCD PUSH1 0xE5 SHL DUP2 MSTORE PUSH1 0x20 PUSH1 0x4 DUP3 ADD MSTORE PUSH1 0x18 PUSH1 0x24 DUP3 ADD MSTORE PUSH32 0x436F6E74726F6C6C65723A20696E76616C6964206E616D650000000000000000 PUSH1 0x44 DUP3 ADD MSTORE PUSH1 0x64 SWAP1 REVERT JUMPDEST PUSH1 0x40 MLOAD PUSH3 0x461BCD PUSH1 0xE5 SHL DUP2 MSTORE PUSH1 0x20 PUSH1 0x4 DUP3 ADD MSTORE PUSH1 0x1E PUSH1 0x24 DUP3 ADD MSTORE PUSH32 0x436F6E74726F6C6C65723A20636F6D6D69746D656E7420657870697265640000 PUSH1 0x44 DUP3 ADD MSTORE PUSH1 0x64 SWAP1 REVERT JUMPDEST PUSH4 0x4E487B71 PUSH1 0xE0 SHL PUSH0 MSTORE PUSH1 0x11 PUSH1 0x4 MSTORE PUSH1 0x24 PUSH0 REVERT JUMPDEST PUSH1 0x40 MLOAD PUSH3 0x461BCD PUSH1 0xE5 SHL DUP2 MSTORE PUSH1 0x20 PUSH1 0x4 DUP3 ADD MSTORE PUSH1 0x1E PUSH1 0x24 DUP3 ADD MSTORE PUSH32 0x436F6E74726F6C6C65723A20636F6D6D69746D656E7420746F6F206E65770000 PUSH1 0x44 DUP3 ADD MSTORE PUSH1 0x64 SWAP1 REVERT JUMPDEST PUSH1 0x64 PUSH1 0x40 MLOAD PUSH3 0x461BCD PUSH1 0xE5 SHL DUP2 MSTORE PUSH1 0x20 PUSH1 0x4 DUP3 ADD MSTORE PUSH1 0x20 PUSH1 0x24 DUP3 ADD MSTORE PUSH32 0x436F6E74726F6C6C65723A20636F6D6D69746D656E74206E6F7420666F756E64 PUSH1 0x44 DUP3 ADD MSTORE REVERT JUMPDEST CALLVALUE PUSH2 0x58E JUMPI PUSH0 CALLDATASIZE PUSH1 0x3 NOT ADD SLT PUSH2 0x58E JUMPI PUSH1 0x20 PUSH1 0x40 MLOAD PUSH1 0xA DUP2 MSTORE RETURN JUMPDEST CALLVALUE PUSH2 0x58E JUMPI PUSH0 CALLDATASIZE PUSH1 0x3 NOT ADD SLT PUSH2 0x58E JUMPI PUSH1 0x2 SLOAD PUSH1 0x1 PUSH1 0x1 PUSH1 0xA0 SHL SUB AND DUP2 MSTORE PUSH1 0x20 SWAP1 RETURN JUMPDEST SWAP2 DUP2 PUSH1 0x1F DUP5 ADD SLT ISZERO PUSH2 0x58E JUMPI DUP3 CALLDATALOAD SWAP2 PUSH1 0x1 PUSH1 0x1 PUSH1 0x40 SHL SUB DUP4 GT PUSH2 0x58E JUMPI PUSH1 0x20 DUP4 DUP2 DUP7 ADD SWAP6 ADD ADD GT PUSH2 0x58E JUMPI JUMP JUMPDEST PUSH1 0x24 CALLDATALOAD SWAP1 PUSH1 0x1 PUSH1 0x1 PUSH1 0xA0 SHL SUB DUP3 AND DUP3 SUB PUSH2 0x58E JUMPI JUMP JUMPDEST PUSH1 0x84 CALLDATALOAD SWAP1 PUSH1 0x1 PUSH1 0x1 PUSH1 0xA0 SHL SUB DUP3 AND DUP3 SUB PUSH2 0x58E JUMPI JUMP JUMPDEST PUSH1 0x4 CALLDATALOAD SWAP1 PUSH1 0x1 PUSH1 0x1 PUSH1 0xA0 SHL SUB DUP3 AND DUP3 SUB PUSH2 0x58E JUMPI JUMP JUMPDEST PUSH1 0xC4 CALLDATALOAD SWAP1 DUP2 ISZERO ISZERO DUP3 SUB PUSH2 0x58E JUMPI JUMP JUMPDEST PUSH1 0x40 DUP2 ADD SWAP1 DUP2 LT PUSH1 0x1 PUSH1 0x1 PUSH1 0x40 SHL SUB DUP3 GT OR PUSH2 0x1417 JUMPI PUSH1 0x40 MSTORE JUMP JUMPDEST PUSH4 0x4E487B71 PUSH1 0xE0 SHL PUSH0 MSTORE PUSH1 0x41 PUSH1 0x4 MSTORE PUSH1 0x24 PUSH0 REVERT JUMPDEST SWAP1 PUSH1 0x1F DUP1 NOT SWAP2 ADD AND DUP2 ADD SWAP1 DUP2 LT PUSH1 0x1 PUSH1 0x1 PUSH1 0x40 SHL SUB DUP3 GT OR PUSH2 0x1417 JUMPI PUSH1 0x40 MSTORE JUMP JUMPDEST PUSH1 0x1 PUSH1 0x1 PUSH1 0x40 SHL SUB DUP2 GT PUSH2 0x1417 JUMPI PUSH1 0x1F ADD PUSH1 0x1F NOT AND PUSH1 0x20 ADD SWAP1 JUMP JUMPDEST SWAP3 SWAP2 SWAP3 PUSH2 0x1473 DUP3 PUSH2 0x144C JUMP JUMPDEST SWAP2 PUSH2 0x1481 PUSH1 0x40 MLOAD SWAP4 DUP5 PUSH2 0x142B JUMP JUMPDEST DUP3 SWAP5 DUP2 DUP5 MSTORE DUP2 DUP4 ADD GT PUSH2 0x58E JUMPI DUP3 DUP2 PUSH1 0x20 SWAP4 DUP5 PUSH0 SWAP7 ADD CALLDATACOPY ADD ADD MSTORE JUMP JUMPDEST SWAP1 DUP1 PUSH1 0x1F DUP4 ADD SLT ISZERO PUSH2 0x58E JUMPI DUP2 PUSH1 0x20 PUSH2 0x14B8 SWAP4 CALLDATALOAD SWAP2 ADD PUSH2 0x1467 JUMP JUMPDEST SWAP1 JUMP JUMPDEST SWAP3 SWAP2 SWAP1 SWAP3 PUSH1 0x1 PUSH1 0x1 PUSH1 0x40 SHL SUB DUP5 GT PUSH2 0x1417 JUMPI DUP4 PUSH1 0x5 SHL SWAP2 PUSH1 0x20 PUSH1 0x40 MLOAD PUSH2 0x14E3 DUP3 DUP7 ADD DUP3 PUSH2 0x142B JUMP JUMPDEST DUP1 SWAP7 DUP2 MSTORE ADD SWAP3 DUP3 ADD SWAP2 DUP2 DUP4 GT PUSH2 0x58E JUMPI DUP1 SWAP4 JUMPDEST DUP4 DUP6 LT PUSH2 0x1504 JUMPI POP POP POP POP POP JUMP JUMPDEST DUP5 CALLDATALOAD PUSH1 0x1 PUSH1 0x1 PUSH1 0x40 SHL SUB DUP2 GT PUSH2 0x58E JUMPI DUP3 ADD DUP4 PUSH1 0x1F DUP3 ADD SLT ISZERO PUSH2 0x58E JUMPI PUSH1 0x20 SWAP2 PUSH2 0x1534 DUP6 DUP4 DUP6 DUP1 SWAP6 CALLDATALOAD SWAP2 ADD PUSH2 0x1467 JUMP JUMPDEST DUP2 MSTORE ADD SWAP5 ADD SWAP4 PUSH2 0x14F6 JUMP JUMPDEST SWAP1 DUP1 PUSH1 0x1F DUP4 ADD SLT ISZERO PUSH2 0x58E JUMPI DUP2 PUSH1 0x20 PUSH2 0x14B8 SWAP4 CALLDATALOAD SWAP2 ADD PUSH2 0x14BB JUMP JUMPDEST ISZERO PUSH2 0x1561 JUMPI JUMP JUMPDEST PUSH1 0x40 MLOAD PUSH3 0x461BCD PUSH1 0xE5 SHL DUP2 MSTORE PUSH1 0x20 PUSH1 0x4 DUP3 ADD MSTORE PUSH1 0x1E PUSH1 0x24 DUP3 ADD MSTORE PUSH32 0x436F6E74726F6C6C65723A206475726174696F6E20746F6F2073686F72740000 PUSH1 0x44 DUP3 ADD MSTORE PUSH1 0x64 SWAP1 REVERT JUMPDEST ISZERO PUSH2 0x15AD JUMPI JUMP JUMPDEST PUSH1 0x40 MLOAD PUSH3 0x461BCD PUSH1 0xE5 SHL DUP2 MSTORE PUSH1 0x20 PUSH1 0x4 DUP3 ADD MSTORE PUSH1 0x1D PUSH1 0x24 DUP3 ADD MSTORE PUSH32 0x436F6E74726F6C6C65723A206475726174696F6E20746F6F206C6F6E67000000 PUSH1 0x44 DUP3 ADD MSTORE PUSH1 0x64 SWAP1 REVERT JUMPDEST SWAP2 SWAP1 DUP3 ADD DUP1 SWAP3 GT PUSH2 0x12A3 JUMPI JUMP JUMPDEST SWAP1 DUP3 PUSH1 0x40 SWAP4 PUSH1 0x80 SWAP3 SWAP8 SWAP7 SWAP6 SWAP8 PUSH1 0x60 DUP6 MSTORE DUP2 PUSH1 0x60 DUP7 ADD MSTORE DUP4 DUP6 ADD CALLDATACOPY PUSH0 DUP3 DUP3 DUP6 ADD ADD MSTORE PUSH1 0x1F DUP1 NOT SWAP2 ADD AND DUP3 ADD ADD SWAP5 PUSH1 0x20 DUP3 ADD MSTORE ADD MSTORE JUMP JUMPDEST DUP1 MLOAD DUP1 DUP4 MSTORE PUSH1 0x20 SWAP3 SWAP2 DUP2 SWAP1 DUP5 ADD DUP5 DUP5 ADD MCOPY PUSH0 DUP3 DUP3 ADD DUP5 ADD MSTORE PUSH1 0x1F ADD PUSH1 0x1F NOT AND ADD ADD SWAP1 JUMP JUMPDEST SWAP7 SWAP2 SWAP4 SWAP5 SWAP3 SWAP6 SWAP1 SWAP7 PUSH1 0x20 DUP2 MLOAD SWAP2 ADD KECCAK256 SWAP5 PUSH1 0x40 MLOAD SWAP7 DUP8 SWAP6 PUSH1 0x20 DUP8 ADD SWAP10 PUSH2 0x120 DUP9 ADD SWAP9 DUP12 MSTORE PUSH1 0x1 DUP1 PUSH1 0xA0 SHL SUB AND PUSH1 0x40 DUP9 ADD MSTORE PUSH1 0x60 DUP8 ADD MSTORE PUSH1 0x80 DUP7 ADD MSTORE PUSH1 0x1 DUP1 PUSH1 0xA0 SHL SUB AND PUSH1 0xA0 DUP6 ADD MSTORE PUSH2 0x100 PUSH1 0xC0 DUP6 ADD MSTORE DUP3 MLOAD DUP1 SWAP6 MSTORE PUSH2 0x140 DUP5 ADD SWAP5 PUSH1 0x20 PUSH2 0x140 DUP3 PUSH1 0x5 SHL DUP8 ADD ADD SWAP5 ADD SWAP6 PUSH0 SWAP1 JUMPDEST DUP3 DUP3 LT PUSH2 0x16FD JUMPI POP POP POP ISZERO ISZERO PUSH1 0xE0 DUP5 ADD MSTORE PUSH1 0x1 PUSH1 0x1 PUSH1 0xA0 SHL SUB AND PUSH2 0x100 DUP4 ADD MSTORE SUB PUSH1 0x1F NOT DUP2 ADD DUP4 MSTORE PUSH2 0x16F7 SWAP2 POP DUP3 PUSH2 0x142B JUMP JUMPDEST MLOAD SWAP1 KECCAK256 SWAP1 JUMP JUMPDEST SWAP2 SWAP4 SWAP6 POP SWAP2 SWAP4 PUSH1 0x20 DUP1 PUSH2 0x171D PUSH1 0x1 SWAP4 PUSH2 0x13F NOT DUP13 DUP3 SUB ADD DUP7 MSTORE DUP11 MLOAD PUSH2 0x1634 JUMP JUMPDEST SWAP9 ADD SWAP3 ADD SWAP3 ADD DUP8 SWAP6 SWAP4 SWAP2 SWAP7 SWAP5 SWAP3 PUSH2 0x16C4 JUMP JUMPDEST SWAP1 PUSH0 PUSH1 0x20 PUSH1 0x40 MLOAD PUSH2 0x173F DUP2 PUSH2 0x13FC JUMP JUMPDEST DUP3 DUP2 MSTORE ADD MSTORE DUP2 MLOAD PUSH1 0x20 DUP4 ADD KECCAK256 SWAP1 PUSH1 0x1 DUP1 PUSH1 0xA0 SHL SUB PUSH1 0x1 SLOAD AND PUSH1 0x40 MLOAD SWAP3 PUSH4 0x6B727D43 PUSH1 0xE1 SHL DUP5 MSTORE PUSH1 0x4 DUP5 ADD MSTORE PUSH1 0x20 DUP4 PUSH1 0x24 DUP2 PUSH1 0x1 DUP1 PUSH1 0xA0 SHL SUB PUSH32 0x0 AND GAS STATICCALL SWAP3 DUP4 ISZERO PUSH2 0xE49 JUMPI PUSH0 SWAP4 PUSH2 0x183D JUMPI JUMPDEST POP PUSH2 0x17D5 PUSH1 0x40 SWAP4 SWAP5 DUP5 MLOAD SWAP6 DUP7 SWAP5 DUP6 SWAP4 DUP5 SWAP4 PUSH4 0x50E9A715 PUSH1 0xE0 SHL DUP6 MSTORE PUSH1 0x60 PUSH1 0x4 DUP7 ADD MSTORE PUSH1 0x64 DUP6 ADD SWAP1 PUSH2 0x1634 JUMP JUMPDEST SWAP2 PUSH1 0x24 DUP5 ADD MSTORE PUSH1 0x44 DUP4 ADD MSTORE SUB SWAP2 GAS STATICCALL SWAP1 DUP2 ISZERO PUSH2 0xE49 JUMPI PUSH0 SWAP2 PUSH2 0x17F5 JUMPI POP SWAP1 JUMP JUMPDEST SWAP1 POP PUSH1 0x40 DUP2 RETURNDATASIZE PUSH1 0x40 GT PUSH2 0x1835 JUMPI JUMPDEST DUP2 PUSH2 0x1810 PUSH1 0x40 SWAP4 DUP4 PUSH2 0x142B JUMP JUMPDEST DUP2 ADD SUB SLT PUSH2 0x58E JUMPI PUSH1 0x20 PUSH1 0x40 MLOAD SWAP2 PUSH2 0x1827 DUP4 PUSH2 0x13FC JUMP JUMPDEST DUP1 MLOAD DUP4 MSTORE ADD MLOAD PUSH1 0x20 DUP3 ADD MSTORE SWAP1 JUMP JUMPDEST RETURNDATASIZE SWAP2 POP PUSH2 0x1803 JUMP JUMPDEST SWAP3 POP PUSH1 0x20 DUP4 RETURNDATASIZE PUSH1 0x20 GT PUSH2 0x186B JUMPI JUMPDEST DUP2 PUSH2 0x1858 PUSH1 0x20 SWAP4 DUP4 PUSH2 0x142B JUMP JUMPDEST DUP2 ADD SUB SLT PUSH2 0x58E JUMPI SWAP2 MLOAD SWAP2 PUSH2 0x17D5 PUSH2 0x17A9 JUMP JUMPDEST RETURNDATASIZE SWAP2 POP PUSH2 0x184B JUMP JUMPDEST PUSH1 0x2 PUSH0 DUP1 MLOAD PUSH1 0x20 PUSH2 0x1ACE DUP4 CODECOPY DUP2 MLOAD SWAP2 MSTORE SLOAD EQ PUSH2 0x189C JUMPI PUSH1 0x2 PUSH0 DUP1 MLOAD PUSH1 0x20 PUSH2 0x1ACE DUP4 CODECOPY DUP2 MLOAD SWAP2 MSTORE SSTORE JUMP JUMPDEST PUSH4 0x3EE5AEB5 PUSH1 0xE0 SHL PUSH0 MSTORE PUSH1 0x4 PUSH0 REVERT JUMPDEST SWAP1 DUP2 MLOAD DUP2 LT ISZERO PUSH2 0x18BC JUMPI ADD PUSH1 0x20 ADD SWAP1 JUMP JUMPDEST PUSH4 0x4E487B71 PUSH1 0xE0 SHL PUSH0 MSTORE PUSH1 0x32 PUSH1 0x4 MSTORE PUSH1 0x24 PUSH0 REVERT JUMPDEST PUSH1 0x3 DUP2 MLOAD LT PUSH2 0x19CF JUMPI PUSH0 JUMPDEST DUP2 MLOAD DUP2 LT ISZERO PUSH2 0x196B JUMPI PUSH1 0x1 PUSH1 0x1 PUSH1 0xF8 SHL SUB NOT PUSH2 0x18F7 DUP3 DUP5 PUSH2 0x18AB JUMP JUMPDEST MLOAD AND PUSH1 0x61 PUSH1 0xF8 SHL DUP2 LT ISZERO SWAP1 DUP2 PUSH2 0x195C JUMPI JUMPDEST DUP2 ISZERO PUSH2 0x1938 JUMPI JUMPDEST DUP2 ISZERO PUSH2 0x192A JUMPI JUMPDEST POP ISZERO PUSH2 0x1924 JUMPI PUSH1 0x1 ADD PUSH2 0x18DB JUMP JUMPDEST POP POP PUSH0 SWAP1 JUMP JUMPDEST PUSH1 0x2D PUSH1 0xF8 SHL EQ SWAP1 POP PUSH0 PUSH2 0x1916 JUMP JUMPDEST SWAP1 POP PUSH1 0x3 PUSH1 0xFC SHL DUP2 LT ISZERO DUP1 PUSH2 0x194E JUMPI JUMPDEST SWAP1 PUSH2 0x190F JUMP JUMPDEST POP PUSH1 0x39 PUSH1 0xF8 SHL DUP2 GT ISZERO PUSH2 0x1948 JUMP JUMPDEST PUSH1 0x3D PUSH1 0xF9 SHL DUP2 GT ISZERO SWAP2 POP PUSH2 0x1908 JUMP JUMPDEST POP DUP1 MLOAD ISZERO PUSH2 0x18BC JUMPI PUSH1 0x20 DUP2 ADD MLOAD PUSH1 0x1 PUSH1 0x1 PUSH1 0xF8 SHL SUB NOT AND PUSH1 0x2D PUSH1 0xF8 SHL EQ SWAP1 DUP2 ISZERO PUSH2 0x199E JUMPI JUMPDEST POP PUSH2 0x199A JUMPI PUSH1 0x1 SWAP1 JUMP JUMPDEST PUSH0 SWAP1 JUMP JUMPDEST DUP1 MLOAD PUSH0 NOT DUP2 ADD SWAP3 POP DUP3 GT PUSH2 0x12A3 JUMPI PUSH1 0x2D PUSH1 0xF8 SHL SWAP2 PUSH1 0x1 PUSH1 0x1 PUSH1 0xF8 SHL SUB NOT SWAP2 PUSH2 0x19C6 SWAP2 SWAP1 PUSH2 0x18AB JUMP JUMPDEST MLOAD AND EQ PUSH0 PUSH2 0x1990 JUMP JUMPDEST POP PUSH0 SWAP1 JUMP JUMPDEST PUSH1 0x40 MLOAD PUSH4 0x23B872DD PUSH1 0xE0 SHL PUSH0 SWAP1 DUP2 MSTORE PUSH1 0x1 PUSH1 0x1 PUSH1 0xA0 SHL SUB SWAP4 DUP5 AND PUSH1 0x4 MSTORE SWAP3 SWAP1 SWAP4 AND PUSH1 0x24 MSTORE PUSH1 0x44 SWAP4 SWAP1 SWAP4 MSTORE PUSH1 0x20 SWAP1 PUSH1 0x64 DUP2 DUP1 DUP7 GAS CALL SWAP1 PUSH1 0x1 PUSH0 MLOAD EQ DUP3 AND ISZERO PUSH2 0x1A45 JUMPI JUMPDEST PUSH1 0x40 MSTORE PUSH0 PUSH1 0x60 MSTORE ISZERO PUSH2 0x1A25 JUMPI POP JUMP JUMPDEST PUSH4 0x5274AFE7 PUSH1 0xE0 SHL PUSH0 SWAP1 DUP2 MSTORE PUSH1 0x1 PUSH1 0x1 PUSH1 0xA0 SHL SUB SWAP2 SWAP1 SWAP2 AND PUSH1 0x4 MSTORE PUSH1 0x24 SWAP1 REVERT JUMPDEST SWAP1 PUSH1 0x1 DUP2 ISZERO AND PUSH2 0x1A5D JUMPI DUP3 EXTCODESIZE ISZERO ISZERO RETURNDATASIZE ISZERO AND AND SWAP1 PUSH2 0x1A16 JUMP JUMPDEST POP RETURNDATASIZE PUSH0 DUP3 RETURNDATACOPY RETURNDATASIZE SWAP1 REVERT JUMPDEST SWAP2 SWAP1 DUP2 LT ISZERO PUSH2 0x18BC JUMPI PUSH1 0x5 SHL DUP2 ADD CALLDATALOAD SWAP1 PUSH1 0x1E NOT DUP2 CALLDATASIZE SUB ADD DUP3 SLT ISZERO PUSH2 0x58E JUMPI ADD SWAP1 DUP2 CALLDATALOAD SWAP2 PUSH1 0x1 PUSH1 0x1 PUSH1 0x40 SHL SUB DUP4 GT PUSH2 0x58E JUMPI PUSH1 0x20 ADD DUP3 CALLDATASIZE SUB DUP2 SGT PUSH2 0x58E JUMPI SWAP2 SWAP1 JUMP JUMPDEST PUSH0 SLOAD PUSH1 0x1 PUSH1 0x1 PUSH1 0xA0 SHL SUB AND CALLER SUB PUSH2 0x1ABA JUMPI JUMP JUMPDEST PUSH4 0x118CDAA7 PUSH1 0xE0 SHL PUSH0 MSTORE CALLER PUSH1 0x4 MSTORE PUSH1 0x24 PUSH0 REVERT INVALID SWAP12 PUSH24 0x9B17422D0DF92223018B32B4D1FA46E071723D6817E2486D STOP EXTCODESIZE 0xEC 0xC5 PUSH0 STOP LOG2 PUSH5 0x6970667358 0x22 SLT KECCAK256 SWAP7 DUP11 POP DUP6 DUP13 MSIZE 0xDE BLOBHASH PUSH26 0x845A0BF8ABE2AEDA86FC1CCF2A142551397238D4E1917864736F PUSH13 0x634300081A0033000000000000 "},"methodIdentifiers":{"MAX_COMMITMENT_AGE()":"8ccb9ea6","MAX_REGISTRATION_DURATION()":"59192b89","MAX_RESOLVER_DATA_ITEMS()":"21e57d66","MIN_COMMITMENT_AGE()":"2e4f692a","MIN_NAME_LENGTH()":"50cfeddd","MIN_REGISTRATION_DURATION()":"8a95b09f","available(string)":"aeb8ce9b","base()":"5001f3b5","commit(bytes32)":"f14fcbc8","commitments(bytes32)":"839df945","makeCommitment(string,address,uint256,bytes32,address,bytes[],bool)":"3d4aa89e","makeCommitment(string,address,uint256,bytes32,address,bytes[],bool,address)":"2e0bfef7","owner()":"8da5cb5b","priceOracle()":"2630c12f","register(string,address,uint256,bytes32,address,bytes[],bool)":"237592e8","registry()":"7b103999","renew(string,uint256)":"acf1a841","renounceOwnership()":"715018a6","rentPrice(string,uint256)":"83e7f6ff","resolver()":"04f3bcec","setPriceOracle(address)":"530e784f","setResolver(address)":"4e543b26","setTreasury(address)":"f0f44260","transferOwnership(address)":"f2fde38b","treasury()":"61d027b3","usdc()":"3e413bee"}},"storageLayout":{"storage":[{"astId":8,"contract":"contracts/registrar/ArcNSRegistrarController.sol:ArcNSRegistrarController","label":"_owner","offset":0,"slot":"0","type":"t_address"},{"astId":9654,"contract":"contracts/registrar/ArcNSRegistrarController.sol:ArcNSRegistrarController","label":"priceOracle","offset":0,"slot":"1","type":"t_contract(IArcNSPriceOracle)8373"},{"astId":9663,"contract":"contracts/registrar/ArcNSRegistrarController.sol:ArcNSRegistrarController","label":"resolver","offset":0,"slot":"2","type":"t_contract(ArcNSResolver)11554"},{"astId":9667,"contract":"contracts/registrar/ArcNSRegistrarController.sol:ArcNSRegistrarController","label":"commitments","offset":0,"slot":"3","type":"t_mapping(t_bytes32,t_uint256)"},{"astId":9669,"contract":"contracts/registrar/ArcNSRegistrarController.sol:ArcNSRegistrarController","label":"treasury","offset":0,"slot":"4","type":"t_address"}],"types":{"t_address":{"encoding":"inplace","label":"address","numberOfBytes":"20"},"t_bytes32":{"encoding":"inplace","label":"bytes32","numberOfBytes":"32"},"t_contract(ArcNSResolver)11554":{"encoding":"inplace","label":"contract ArcNSResolver","numberOfBytes":"20"},"t_contract(IArcNSPriceOracle)8373":{"encoding":"inplace","label":"contract IArcNSPriceOracle","numberOfBytes":"20"},"t_mapping(t_bytes32,t_uint256)":{"encoding":"mapping","key":"t_bytes32","label":"mapping(bytes32 => uint256)","numberOfBytes":"32","value":"t_uint256"},"t_uint256":{"encoding":"inplace","label":"uint256","numberOfBytes":"32"}}}}}}