{"contracts/registrar/ArcNSReverseRegistrar.sol":{"ArcNSReverseRegistrar":{"abi":[{"inputs":[{"internalType":"contract IArcNSRegistry","name":"_registry","type":"address"},{"internalType":"contract ArcNSResolver","name":"_defaultResolver","type":"address"}],"stateMutability":"nonpayable","type":"constructor"},{"inputs":[{"internalType":"address","name":"owner","type":"address"}],"name":"OwnableInvalidOwner","type":"error"},{"inputs":[{"internalType":"address","name":"account","type":"address"}],"name":"OwnableUnauthorizedAccount","type":"error"},{"anonymous":false,"inputs":[{"indexed":true,"internalType":"address","name":"resolver","type":"address"}],"name":"DefaultResolverChanged","type":"event"},{"anonymous":false,"inputs":[{"indexed":true,"internalType":"address","name":"previousOwner","type":"address"},{"indexed":true,"internalType":"address","name":"newOwner","type":"address"}],"name":"OwnershipTransferred","type":"event"},{"anonymous":false,"inputs":[{"indexed":true,"internalType":"address","name":"addr","type":"address"},{"indexed":true,"internalType":"bytes32","name":"node","type":"bytes32"}],"name":"ReverseClaimed","type":"event"},{"inputs":[],"name":"ADDR_REVERSE_NODE","outputs":[{"internalType":"bytes32","name":"","type":"bytes32"}],"stateMutability":"view","type":"function"},{"inputs":[],"name":"REVERSE_NODE","outputs":[{"internalType":"bytes32","name":"","type":"bytes32"}],"stateMutability":"view","type":"function"},{"inputs":[{"internalType":"address","name":"owner_","type":"address"}],"name":"claim","outputs":[{"internalType":"bytes32","name":"","type":"bytes32"}],"stateMutability":"nonpayable","type":"function"},{"inputs":[{"internalType":"address","name":"addr_","type":"address"},{"internalType":"address","name":"owner_","type":"address"},{"internalType":"address","name":"resolver_","type":"address"}],"name":"claimForAddr","outputs":[{"internalType":"bytes32","name":"","type":"bytes32"}],"stateMutability":"nonpayable","type":"function"},{"inputs":[{"internalType":"address","name":"owner_","type":"address"},{"internalType":"address","name":"resolver_","type":"address"}],"name":"claimWithResolver","outputs":[{"internalType":"bytes32","name":"","type":"bytes32"}],"stateMutability":"nonpayable","type":"function"},{"inputs":[],"name":"defaultResolver","outputs":[{"internalType":"contract ArcNSResolver","name":"","type":"address"}],"stateMutability":"view","type":"function"},{"inputs":[{"internalType":"address","name":"addr_","type":"address"}],"name":"node","outputs":[{"internalType":"bytes32","name":"","type":"bytes32"}],"stateMutability":"pure","type":"function"},{"inputs":[],"name":"owner","outputs":[{"internalType":"address","name":"","type":"address"}],"stateMutability":"view","type":"function"},{"inputs":[],"name":"registry","outputs":[{"internalType":"contract IArcNSRegistry","name":"","type":"address"}],"stateMutability":"view","type":"function"},{"inputs":[],"name":"renounceOwnership","outputs":[],"stateMutability":"nonpayable","type":"function"},{"inputs":[{"internalType":"contract ArcNSResolver","name":"_resolver","type":"address"}],"name":"setDefaultResolver","outputs":[],"stateMutability":"nonpayable","type":"function"},{"inputs":[{"internalType":"string","name":"name_","type":"string"}],"name":"setName","outputs":[{"internalType":"bytes32","name":"","type":"bytes32"}],"stateMutability":"nonpayable","type":"function"},{"inputs":[{"internalType":"address","name":"addr_","type":"address"},{"internalType":"address","name":"owner_","type":"address"},{"internalType":"address","name":"resolver_","type":"address"},{"internalType":"string","name":"name_","type":"string"}],"name":"setNameForAddr","outputs":[{"internalType":"bytes32","name":"","type":"bytes32"}],"stateMutability":"nonpayable","type":"function"},{"inputs":[{"internalType":"address","name":"newOwner","type":"address"}],"name":"transferOwnership","outputs":[],"stateMutability":"nonpayable","type":"function"}],"evm":{"bytecode":{"linkReferences":{},"object":"60a03461010157601f610dcb38819003918201601f19168301916001600160401b03831184841017610105578084926040948552833981010312610101578051906001600160a01b038216820361010157602001516001600160a01b038116908190036101015733156100ee575f8054336001600160a01b0319821681178355604051949290916001600160a01b0316907f8be0079c531659141344cd1fd0a4f28419497f9722a3daafe3b4186f6b6457e09080a3608052600180546001600160a01b031916919091179055610cb1908161011a823960805181818161035c0152818161075401526109ee0152f35b631e4fbdf760e01b5f525f60045260245ffd5b5f80fd5b634e487b7160e01b5f52604160045260245ffdfe60806040526004361015610011575f80fd5b5f803560e01c80630f5a5466146105575780631e83409a1461052657806365669631146104dc578063715018a6146104855780637a806d6b1461038b5780637b103999146103465780637cf8a2eb1461031e578063828eab0e146102f55780638da5cb5b146102ce578063af91e74c14610293578063bffbe61c14610267578063c47f0027146101a8578063c66485b21461013c5763f2fde38b146100b4575f80fd5b34610139576020366003190112610139576100cd610584565b6100d5610ae6565b6001600160a01b031680156101255781546001600160a01b03198116821783556001600160a01b03167f8be0079c531659141344cd1fd0a4f28419497f9722a3daafe3b4186f6b6457e08380a380f35b631e4fbdf760e01b82526004829052602482fd5b80fd5b5034610139576020366003190112610139576004356001600160a01b038116908190036101a45761016b610ae6565b600180546001600160a01b031916821790557feae17a84d9eb83d8c8eb317f9e7d64857bc363fa51674d996c023f4340c577cf8280a280f35b5080fd5b50346101395760203660031901126101395760043567ffffffffffffffff81116101a4576101da9036906004016105c6565b90826101f160018060a01b036001541633336106fc565b6001549093906001600160a01b0316803b15610263576102299383604051809681958294637737221360e01b84528a60048501610675565b03925af1801561025857610243575b602082604051908152f35b61024e83809261063f565b6101a45781610238565b6040513d85823e3d90fd5b8280fd5b503461013957602036600319011261013957602061028b610286610584565b6106a2565b604051908152f35b503461013957806003193601126101395760206040517fa097f6721ce401e757d1223a763fef49b8b5f90bb18567ddb86fd205dff71d348152f35b5034610139578060031936011261013957546040516001600160a01b039091168152602090f35b50346101395780600319360112610139576001546040516001600160a01b039091168152602090f35b503461013957806003193601126101395760206040515f80516020610c5c8339815191528152f35b50346101395780600319360112610139576040517f00000000000000000000000000000000000000000000000000000000000000006001600160a01b03168152602090f35b3461046c57608036600319011261046c576103a4610584565b6103ac61059a565b906103b56105b0565b9060643567ffffffffffffffff811161046c57826103da6103fe9236906004016105c6565b9590936001600160a01b03811633148015610470575b6103f9906105f4565b6106fc565b6001600160a01b0390921692833b1561046c57610435935f9283604051809781958294637737221360e01b84528960048501610675565b03925af191821561046157602092610451575b50604051908152f35b5f61045b9161063f565b5f610448565b6040513d5f823e3d90fd5b5f80fd5b506103f961047e33836109cd565b90506103f0565b3461046c575f36600319011261046c5761049d610ae6565b5f80546001600160a01b0319811682556001600160a01b03167f8be0079c531659141344cd1fd0a4f28419497f9722a3daafe3b4186f6b6457e08280a3005b3461046c57606036600319011261046c57602061028b6104fa610584565b61050261059a565b61050a6105b0565b916001600160a01b03811633148015610470576103f9906105f4565b3461046c57602036600319011261046c57602061028b610544610584565b6001546001600160a01b031690336106fc565b3461046c57604036600319011261046c57602061028b610575610584565b61057d61059a565b90336106fc565b600435906001600160a01b038216820361046c57565b602435906001600160a01b038216820361046c57565b604435906001600160a01b038216820361046c57565b9181601f8401121561046c5782359167ffffffffffffffff831161046c576020838186019501011161046c57565b156105fb57565b606460405162461bcd60e51b815260206004820152602060248201527f526576657273655265676973747261723a206e6f7420617574686f72697365646044820152fd5b90601f8019910116810190811067ffffffffffffffff82111761066157604052565b634e487b7160e01b5f52604160045260245ffd5b91926060938192845260406020850152816040850152848401375f828201840152601f01601f1916010190565b6106ab90610b0c565b60405160208101915f80516020610c5c83398151915283526040820152604081526106d760608261063f565b51902090565b9081602091031261046c57516001600160a01b038116810361046c5790565b91909161070881610b0c565b9060405191602083015f935f80516020610c5c83398151915282528260408201526040815261073860608261063f565b5190206040516302571be360e01b8152600481018290529095907f00000000000000000000000000000000000000000000000000000000000000006001600160a01b031690602081602481855afa9687156104615788915f986109ac575b506001600160a01b0316968715158061093c575b15610878575050803b1561046c575f928360a49260405198899586946305ef2c7f60e41b86525f80516020610c5c8339815191526004870152602486015260018060a01b0316604485015260648401528160848401525af1928315610461578493610843575b507f6ada868dd3058cf77a48a74489fd7963688e5464b2b0fa957ace976243270e92905b6001600160a01b03169180a390565b6108509192505f9061063f565b5f907f6ada868dd3058cf77a48a74489fd7963688e5464b2b0fa957ace976243270e92610810565b90965090926001600160a01b03928316929091168290036108be575b5050507f6ada868dd3058cf77a48a74489fd7963688e5464b2b0fa957ace976243270e9290610834565b60209295506064905f60405197889485936306ab592360e01b85525f80516020610c5c8339815191526004860152602485015260448401525af192831561046157849361090d575b8080610894565b6020809294503d8311610935575b610925818361063f565b8101031261046c5782915f610906565b503d61091b565b50604051630178b8bf60e01b8152600481018a90529150602082602481865afa80156104615789925f9161097d575b506001600160a01b03168814156107aa565b61099f915060203d6020116109a5575b610997818361063f565b8101906106dd565b5f61096b565b503d61098d565b6109c691985060203d6020116109a557610997818361063f565b965f610796565b6109d6906106a2565b6040516302571be360e01b81526004810191909152907f00000000000000000000000000000000000000000000000000000000000000006001600160a01b031690602083602481855afa928315610461575f93610ac5575b506001600160a01b039283169216828114928315610a4d575b50505090565b6020929350604490604051948593849263e985e9c560e01b8452600484015260248301525afa908115610461575f91610a8a575b505f8080610a47565b90506020813d602011610abd575b81610aa56020938361063f565b8101031261046c5751801515810361046c575f610a81565b3d9150610a98565b610adf91935060203d6020116109a557610997818361063f565b915f610a2e565b5f546001600160a01b03163303610af957565b63118cdaa760e01b5f523360045260245ffd5b604051610b1a60408261063f565b601081526f181899199a1a9b1b9c1cb0b131b232b360811b6020820152604051916bffffffffffffffffffffffff199060601b16602083015260148252610b6260348361063f565b60405190610b7160608361063f565b60288252602082019260403685375f5b60148110610b925750505051902090565b6001600160f81b0319610bb860ff600f610bac8587610c36565b5160fc1c161685610c36565b5116908060011b9181830460021482151715610c22575f1a610bda8387610c36565b536001600160f81b0319610bfe600f610bf38487610c36565b5160f81c1686610c36565b51169160018101809111610c2257610c1b6001935f1a9187610c36565b5301610b81565b634e487b7160e01b5f52601160045260245ffd5b908151811015610c47570160200190565b634e487b7160e01b5f52603260045260245ffdfe91d1777781884d03a6757a803996e38de2a42967fb37eeaca72729271025a9e2a26469706673582212203891cd6b80596ba38e0b795c402e95fad8cb96601d2990856a643d73c291552b64736f6c634300081a0033","opcodes":"PUSH1 0xA0 CALLVALUE PUSH2 0x101 JUMPI PUSH1 0x1F PUSH2 0xDCB CODESIZE DUP2 SWAP1 SUB SWAP2 DUP3 ADD PUSH1 0x1F NOT AND DUP4 ADD SWAP2 PUSH1 0x1 PUSH1 0x1 PUSH1 0x40 SHL SUB DUP4 GT DUP5 DUP5 LT OR PUSH2 0x105 JUMPI DUP1 DUP5 SWAP3 PUSH1 0x40 SWAP5 DUP6 MSTORE DUP4 CODECOPY DUP2 ADD SUB SLT PUSH2 0x101 JUMPI DUP1 MLOAD SWAP1 PUSH1 0x1 PUSH1 0x1 PUSH1 0xA0 SHL SUB DUP3 AND DUP3 SUB PUSH2 0x101 JUMPI PUSH1 0x20 ADD MLOAD PUSH1 0x1 PUSH1 0x1 PUSH1 0xA0 SHL SUB DUP2 AND SWAP1 DUP2 SWAP1 SUB PUSH2 0x101 JUMPI CALLER ISZERO PUSH2 0xEE JUMPI PUSH0 DUP1 SLOAD CALLER PUSH1 0x1 PUSH1 0x1 PUSH1 0xA0 SHL SUB NOT DUP3 AND DUP2 OR DUP4 SSTORE PUSH1 0x40 MLOAD SWAP5 SWAP3 SWAP1 SWAP2 PUSH1 0x1 PUSH1 0x1 PUSH1 0xA0 SHL SUB AND SWAP1 PUSH32 0x8BE0079C531659141344CD1FD0A4F28419497F9722A3DAAFE3B4186F6B6457E0 SWAP1 DUP1 LOG3 PUSH1 0x80 MSTORE PUSH1 0x1 DUP1 SLOAD PUSH1 0x1 PUSH1 0x1 PUSH1 0xA0 SHL SUB NOT AND SWAP2 SWAP1 SWAP2 OR SWAP1 SSTORE PUSH2 0xCB1 SWAP1 DUP2 PUSH2 0x11A DUP3 CODECOPY PUSH1 0x80 MLOAD DUP2 DUP2 DUP2 PUSH2 0x35C ADD MSTORE DUP2 DUP2 PUSH2 0x754 ADD MSTORE PUSH2 0x9EE ADD MSTORE RETURN JUMPDEST PUSH4 0x1E4FBDF7 PUSH1 0xE0 SHL PUSH0 MSTORE PUSH0 PUSH1 0x4 MSTORE PUSH1 0x24 PUSH0 REVERT JUMPDEST PUSH0 DUP1 REVERT JUMPDEST PUSH4 0x4E487B71 PUSH1 0xE0 SHL PUSH0 MSTORE PUSH1 0x41 PUSH1 0x4 MSTORE PUSH1 0x24 PUSH0 REVERT INVALID PUSH1 0x80 PUSH1 0x40 MSTORE PUSH1 0x4 CALLDATASIZE LT ISZERO PUSH2 0x11 JUMPI PUSH0 DUP1 REVERT JUMPDEST PUSH0 DUP1 CALLDATALOAD PUSH1 0xE0 SHR DUP1 PUSH4 0xF5A5466 EQ PUSH2 0x557 JUMPI DUP1 PUSH4 0x1E83409A EQ PUSH2 0x526 JUMPI DUP1 PUSH4 0x65669631 EQ PUSH2 0x4DC JUMPI DUP1 PUSH4 0x715018A6 EQ PUSH2 0x485 JUMPI DUP1 PUSH4 0x7A806D6B EQ PUSH2 0x38B JUMPI DUP1 PUSH4 0x7B103999 EQ PUSH2 0x346 JUMPI DUP1 PUSH4 0x7CF8A2EB EQ PUSH2 0x31E JUMPI DUP1 PUSH4 0x828EAB0E EQ PUSH2 0x2F5 JUMPI DUP1 PUSH4 0x8DA5CB5B EQ PUSH2 0x2CE JUMPI DUP1 PUSH4 0xAF91E74C EQ PUSH2 0x293 JUMPI DUP1 PUSH4 0xBFFBE61C EQ PUSH2 0x267 JUMPI DUP1 PUSH4 0xC47F0027 EQ PUSH2 0x1A8 JUMPI DUP1 PUSH4 0xC66485B2 EQ PUSH2 0x13C JUMPI PUSH4 0xF2FDE38B EQ PUSH2 0xB4 JUMPI PUSH0 DUP1 REVERT JUMPDEST CALLVALUE PUSH2 0x139 JUMPI PUSH1 0x20 CALLDATASIZE PUSH1 0x3 NOT ADD SLT PUSH2 0x139 JUMPI PUSH2 0xCD PUSH2 0x584 JUMP JUMPDEST PUSH2 0xD5 PUSH2 0xAE6 JUMP JUMPDEST PUSH1 0x1 PUSH1 0x1 PUSH1 0xA0 SHL SUB AND DUP1 ISZERO PUSH2 0x125 JUMPI DUP2 SLOAD PUSH1 0x1 PUSH1 0x1 PUSH1 0xA0 SHL SUB NOT DUP2 AND DUP3 OR DUP4 SSTORE PUSH1 0x1 PUSH1 0x1 PUSH1 0xA0 SHL SUB AND PUSH32 0x8BE0079C531659141344CD1FD0A4F28419497F9722A3DAAFE3B4186F6B6457E0 DUP4 DUP1 LOG3 DUP1 RETURN JUMPDEST PUSH4 0x1E4FBDF7 PUSH1 0xE0 SHL DUP3 MSTORE PUSH1 0x4 DUP3 SWAP1 MSTORE PUSH1 0x24 DUP3 REVERT JUMPDEST DUP1 REVERT JUMPDEST POP CALLVALUE PUSH2 0x139 JUMPI PUSH1 0x20 CALLDATASIZE PUSH1 0x3 NOT ADD SLT PUSH2 0x139 JUMPI PUSH1 0x4 CALLDATALOAD PUSH1 0x1 PUSH1 0x1 PUSH1 0xA0 SHL SUB DUP2 AND SWAP1 DUP2 SWAP1 SUB PUSH2 0x1A4 JUMPI PUSH2 0x16B PUSH2 0xAE6 JUMP JUMPDEST PUSH1 0x1 DUP1 SLOAD PUSH1 0x1 PUSH1 0x1 PUSH1 0xA0 SHL SUB NOT AND DUP3 OR SWAP1 SSTORE PUSH32 0xEAE17A84D9EB83D8C8EB317F9E7D64857BC363FA51674D996C023F4340C577CF DUP3 DUP1 LOG2 DUP1 RETURN JUMPDEST POP DUP1 REVERT JUMPDEST POP CALLVALUE PUSH2 0x139 JUMPI PUSH1 0x20 CALLDATASIZE PUSH1 0x3 NOT ADD SLT PUSH2 0x139 JUMPI PUSH1 0x4 CALLDATALOAD PUSH8 0xFFFFFFFFFFFFFFFF DUP2 GT PUSH2 0x1A4 JUMPI PUSH2 0x1DA SWAP1 CALLDATASIZE SWAP1 PUSH1 0x4 ADD PUSH2 0x5C6 JUMP JUMPDEST SWAP1 DUP3 PUSH2 0x1F1 PUSH1 0x1 DUP1 PUSH1 0xA0 SHL SUB PUSH1 0x1 SLOAD AND CALLER CALLER PUSH2 0x6FC JUMP JUMPDEST PUSH1 0x1 SLOAD SWAP1 SWAP4 SWAP1 PUSH1 0x1 PUSH1 0x1 PUSH1 0xA0 SHL SUB AND DUP1 EXTCODESIZE ISZERO PUSH2 0x263 JUMPI PUSH2 0x229 SWAP4 DUP4 PUSH1 0x40 MLOAD DUP1 SWAP7 DUP2 SWAP6 DUP3 SWAP5 PUSH4 0x77372213 PUSH1 0xE0 SHL DUP5 MSTORE DUP11 PUSH1 0x4 DUP6 ADD PUSH2 0x675 JUMP JUMPDEST SUB SWAP3 GAS CALL DUP1 ISZERO PUSH2 0x258 JUMPI PUSH2 0x243 JUMPI JUMPDEST PUSH1 0x20 DUP3 PUSH1 0x40 MLOAD SWAP1 DUP2 MSTORE RETURN JUMPDEST PUSH2 0x24E DUP4 DUP1 SWAP3 PUSH2 0x63F JUMP JUMPDEST PUSH2 0x1A4 JUMPI DUP2 PUSH2 0x238 JUMP JUMPDEST PUSH1 0x40 MLOAD RETURNDATASIZE DUP6 DUP3 RETURNDATACOPY RETURNDATASIZE SWAP1 REVERT JUMPDEST DUP3 DUP1 REVERT JUMPDEST POP CALLVALUE PUSH2 0x139 JUMPI PUSH1 0x20 CALLDATASIZE PUSH1 0x3 NOT ADD SLT PUSH2 0x139 JUMPI PUSH1 0x20 PUSH2 0x28B PUSH2 0x286 PUSH2 0x584 JUMP JUMPDEST PUSH2 0x6A2 JUMP JUMPDEST PUSH1 0x40 MLOAD SWAP1 DUP2 MSTORE RETURN JUMPDEST POP CALLVALUE PUSH2 0x139 JUMPI DUP1 PUSH1 0x3 NOT CALLDATASIZE ADD SLT PUSH2 0x139 JUMPI PUSH1 0x20 PUSH1 0x40 MLOAD PUSH32 0xA097F6721CE401E757D1223A763FEF49B8B5F90BB18567DDB86FD205DFF71D34 DUP2 MSTORE RETURN JUMPDEST POP CALLVALUE PUSH2 0x139 JUMPI DUP1 PUSH1 0x3 NOT CALLDATASIZE ADD SLT PUSH2 0x139 JUMPI SLOAD PUSH1 0x40 MLOAD PUSH1 0x1 PUSH1 0x1 PUSH1 0xA0 SHL SUB SWAP1 SWAP2 AND DUP2 MSTORE PUSH1 0x20 SWAP1 RETURN JUMPDEST POP CALLVALUE PUSH2 0x139 JUMPI DUP1 PUSH1 0x3 NOT CALLDATASIZE ADD SLT PUSH2 0x139 JUMPI PUSH1 0x1 SLOAD PUSH1 0x40 MLOAD PUSH1 0x1 PUSH1 0x1 PUSH1 0xA0 SHL SUB SWAP1 SWAP2 AND DUP2 MSTORE PUSH1 0x20 SWAP1 RETURN JUMPDEST POP CALLVALUE PUSH2 0x139 JUMPI DUP1 PUSH1 0x3 NOT CALLDATASIZE ADD SLT PUSH2 0x139 JUMPI PUSH1 0x20 PUSH1 0x40 MLOAD PUSH0 DUP1 MLOAD PUSH1 0x20 PUSH2 0xC5C DUP4 CODECOPY DUP2 MLOAD SWAP2 MSTORE DUP2 MSTORE RETURN JUMPDEST POP CALLVALUE PUSH2 0x139 JUMPI DUP1 PUSH1 0x3 NOT CALLDATASIZE ADD SLT PUSH2 0x139 JUMPI PUSH1 0x40 MLOAD PUSH32 0x0 PUSH1 0x1 PUSH1 0x1 PUSH1 0xA0 SHL SUB AND DUP2 MSTORE PUSH1 0x20 SWAP1 RETURN JUMPDEST CALLVALUE PUSH2 0x46C JUMPI PUSH1 0x80 CALLDATASIZE PUSH1 0x3 NOT ADD SLT PUSH2 0x46C JUMPI PUSH2 0x3A4 PUSH2 0x584 JUMP JUMPDEST PUSH2 0x3AC PUSH2 0x59A JUMP JUMPDEST SWAP1 PUSH2 0x3B5 PUSH2 0x5B0 JUMP JUMPDEST SWAP1 PUSH1 0x64 CALLDATALOAD PUSH8 0xFFFFFFFFFFFFFFFF DUP2 GT PUSH2 0x46C JUMPI DUP3 PUSH2 0x3DA PUSH2 0x3FE SWAP3 CALLDATASIZE SWAP1 PUSH1 0x4 ADD PUSH2 0x5C6 JUMP JUMPDEST SWAP6 SWAP1 SWAP4 PUSH1 0x1 PUSH1 0x1 PUSH1 0xA0 SHL SUB DUP2 AND CALLER EQ DUP1 ISZERO PUSH2 0x470 JUMPI JUMPDEST PUSH2 0x3F9 SWAP1 PUSH2 0x5F4 JUMP JUMPDEST PUSH2 0x6FC JUMP JUMPDEST PUSH1 0x1 PUSH1 0x1 PUSH1 0xA0 SHL SUB SWAP1 SWAP3 AND SWAP3 DUP4 EXTCODESIZE ISZERO PUSH2 0x46C JUMPI PUSH2 0x435 SWAP4 PUSH0 SWAP3 DUP4 PUSH1 0x40 MLOAD DUP1 SWAP8 DUP2 SWAP6 DUP3 SWAP5 PUSH4 0x77372213 PUSH1 0xE0 SHL DUP5 MSTORE DUP10 PUSH1 0x4 DUP6 ADD PUSH2 0x675 JUMP JUMPDEST SUB SWAP3 GAS CALL SWAP2 DUP3 ISZERO PUSH2 0x461 JUMPI PUSH1 0x20 SWAP3 PUSH2 0x451 JUMPI JUMPDEST POP PUSH1 0x40 MLOAD SWAP1 DUP2 MSTORE RETURN JUMPDEST PUSH0 PUSH2 0x45B SWAP2 PUSH2 0x63F JUMP JUMPDEST PUSH0 PUSH2 0x448 JUMP JUMPDEST PUSH1 0x40 MLOAD RETURNDATASIZE PUSH0 DUP3 RETURNDATACOPY RETURNDATASIZE SWAP1 REVERT JUMPDEST PUSH0 DUP1 REVERT JUMPDEST POP PUSH2 0x3F9 PUSH2 0x47E CALLER DUP4 PUSH2 0x9CD JUMP JUMPDEST SWAP1 POP PUSH2 0x3F0 JUMP JUMPDEST CALLVALUE PUSH2 0x46C JUMPI PUSH0 CALLDATASIZE PUSH1 0x3 NOT ADD SLT PUSH2 0x46C JUMPI PUSH2 0x49D PUSH2 0xAE6 JUMP JUMPDEST PUSH0 DUP1 SLOAD PUSH1 0x1 PUSH1 0x1 PUSH1 0xA0 SHL SUB NOT DUP2 AND DUP3 SSTORE PUSH1 0x1 PUSH1 0x1 PUSH1 0xA0 SHL SUB AND PUSH32 0x8BE0079C531659141344CD1FD0A4F28419497F9722A3DAAFE3B4186F6B6457E0 DUP3 DUP1 LOG3 STOP JUMPDEST CALLVALUE PUSH2 0x46C JUMPI PUSH1 0x60 CALLDATASIZE PUSH1 0x3 NOT ADD SLT PUSH2 0x46C JUMPI PUSH1 0x20 PUSH2 0x28B PUSH2 0x4FA PUSH2 0x584 JUMP JUMPDEST PUSH2 0x502 PUSH2 0x59A JUMP JUMPDEST PUSH2 0x50A PUSH2 0x5B0 JUMP JUMPDEST SWAP2 PUSH1 0x1 PUSH1 0x1 PUSH1 0xA0 SHL SUB DUP2 AND CALLER EQ DUP1 ISZERO PUSH2 0x470 JUMPI PUSH2 0x3F9 SWAP1 PUSH2 0x5F4 JUMP JUMPDEST CALLVALUE PUSH2 0x46C JUMPI PUSH1 0x20 CALLDATASIZE PUSH1 0x3 NOT ADD SLT PUSH2 0x46C JUMPI PUSH1 0x20 PUSH2 0x28B PUSH2 0x544 PUSH2 0x584 JUMP JUMPDEST PUSH1 0x1 SLOAD PUSH1 0x1 PUSH1 0x1 PUSH1 0xA0 SHL SUB AND SWAP1 CALLER PUSH2 0x6FC JUMP JUMPDEST CALLVALUE PUSH2 0x46C JUMPI PUSH1 0x40 CALLDATASIZE PUSH1 0x3 NOT ADD SLT PUSH2 0x46C JUMPI PUSH1 0x20 PUSH2 0x28B PUSH2 0x575 PUSH2 0x584 JUMP JUMPDEST PUSH2 0x57D PUSH2 0x59A JUMP JUMPDEST SWAP1 CALLER PUSH2 0x6FC JUMP JUMPDEST PUSH1 0x4 CALLDATALOAD SWAP1 PUSH1 0x1 PUSH1 0x1 PUSH1 0xA0 SHL SUB DUP3 AND DUP3 SUB PUSH2 0x46C JUMPI JUMP JUMPDEST PUSH1 0x24 CALLDATALOAD SWAP1 PUSH1 0x1 PUSH1 0x1 PUSH1 0xA0 SHL SUB DUP3 AND DUP3 SUB PUSH2 0x46C JUMPI JUMP JUMPDEST PUSH1 0x44 CALLDATALOAD SWAP1 PUSH1 0x1 PUSH1 0x1 PUSH1 0xA0 SHL SUB DUP3 AND DUP3 SUB PUSH2 0x46C JUMPI JUMP JUMPDEST SWAP2 DUP2 PUSH1 0x1F DUP5 ADD SLT ISZERO PUSH2 0x46C JUMPI DUP3 CALLDATALOAD SWAP2 PUSH8 0xFFFFFFFFFFFFFFFF DUP4 GT PUSH2 0x46C JUMPI PUSH1 0x20 DUP4 DUP2 DUP7 ADD SWAP6 ADD ADD GT PUSH2 0x46C JUMPI JUMP JUMPDEST ISZERO PUSH2 0x5FB JUMPI JUMP JUMPDEST PUSH1 0x64 PUSH1 0x40 MLOAD PUSH3 0x461BCD PUSH1 0xE5 SHL DUP2 MSTORE PUSH1 0x20 PUSH1 0x4 DUP3 ADD MSTORE PUSH1 0x20 PUSH1 0x24 DUP3 ADD MSTORE PUSH32 0x526576657273655265676973747261723A206E6F7420617574686F7269736564 PUSH1 0x44 DUP3 ADD MSTORE REVERT JUMPDEST SWAP1 PUSH1 0x1F DUP1 NOT SWAP2 ADD AND DUP2 ADD SWAP1 DUP2 LT PUSH8 0xFFFFFFFFFFFFFFFF DUP3 GT OR PUSH2 0x661 JUMPI PUSH1 0x40 MSTORE JUMP JUMPDEST PUSH4 0x4E487B71 PUSH1 0xE0 SHL PUSH0 MSTORE PUSH1 0x41 PUSH1 0x4 MSTORE PUSH1 0x24 PUSH0 REVERT JUMPDEST SWAP2 SWAP3 PUSH1 0x60 SWAP4 DUP2 SWAP3 DUP5 MSTORE PUSH1 0x40 PUSH1 0x20 DUP6 ADD MSTORE DUP2 PUSH1 0x40 DUP6 ADD MSTORE DUP5 DUP5 ADD CALLDATACOPY PUSH0 DUP3 DUP3 ADD DUP5 ADD MSTORE PUSH1 0x1F ADD PUSH1 0x1F NOT AND ADD ADD SWAP1 JUMP JUMPDEST PUSH2 0x6AB SWAP1 PUSH2 0xB0C JUMP JUMPDEST PUSH1 0x40 MLOAD PUSH1 0x20 DUP2 ADD SWAP2 PUSH0 DUP1 MLOAD PUSH1 0x20 PUSH2 0xC5C DUP4 CODECOPY DUP2 MLOAD SWAP2 MSTORE DUP4 MSTORE PUSH1 0x40 DUP3 ADD MSTORE PUSH1 0x40 DUP2 MSTORE PUSH2 0x6D7 PUSH1 0x60 DUP3 PUSH2 0x63F JUMP JUMPDEST MLOAD SWAP1 KECCAK256 SWAP1 JUMP JUMPDEST SWAP1 DUP2 PUSH1 0x20 SWAP2 SUB SLT PUSH2 0x46C JUMPI MLOAD PUSH1 0x1 PUSH1 0x1 PUSH1 0xA0 SHL SUB DUP2 AND DUP2 SUB PUSH2 0x46C JUMPI SWAP1 JUMP JUMPDEST SWAP2 SWAP1 SWAP2 PUSH2 0x708 DUP2 PUSH2 0xB0C JUMP JUMPDEST SWAP1 PUSH1 0x40 MLOAD SWAP2 PUSH1 0x20 DUP4 ADD PUSH0 SWAP4 PUSH0 DUP1 MLOAD PUSH1 0x20 PUSH2 0xC5C DUP4 CODECOPY DUP2 MLOAD SWAP2 MSTORE DUP3 MSTORE DUP3 PUSH1 0x40 DUP3 ADD MSTORE PUSH1 0x40 DUP2 MSTORE PUSH2 0x738 PUSH1 0x60 DUP3 PUSH2 0x63F JUMP JUMPDEST MLOAD SWAP1 KECCAK256 PUSH1 0x40 MLOAD PUSH4 0x2571BE3 PUSH1 0xE0 SHL DUP2 MSTORE PUSH1 0x4 DUP2 ADD DUP3 SWAP1 MSTORE SWAP1 SWAP6 SWAP1 PUSH32 0x0 PUSH1 0x1 PUSH1 0x1 PUSH1 0xA0 SHL SUB AND SWAP1 PUSH1 0x20 DUP2 PUSH1 0x24 DUP2 DUP6 GAS STATICCALL SWAP7 DUP8 ISZERO PUSH2 0x461 JUMPI DUP9 SWAP2 PUSH0 SWAP9 PUSH2 0x9AC JUMPI JUMPDEST POP PUSH1 0x1 PUSH1 0x1 PUSH1 0xA0 SHL SUB AND SWAP7 DUP8 ISZERO ISZERO DUP1 PUSH2 0x93C JUMPI JUMPDEST ISZERO PUSH2 0x878 JUMPI POP POP DUP1 EXTCODESIZE ISZERO PUSH2 0x46C JUMPI PUSH0 SWAP3 DUP4 PUSH1 0xA4 SWAP3 PUSH1 0x40 MLOAD SWAP9 DUP10 SWAP6 DUP7 SWAP5 PUSH4 0x5EF2C7F PUSH1 0xE4 SHL DUP7 MSTORE PUSH0 DUP1 MLOAD PUSH1 0x20 PUSH2 0xC5C DUP4 CODECOPY DUP2 MLOAD SWAP2 MSTORE PUSH1 0x4 DUP8 ADD MSTORE PUSH1 0x24 DUP7 ADD MSTORE PUSH1 0x1 DUP1 PUSH1 0xA0 SHL SUB AND PUSH1 0x44 DUP6 ADD MSTORE PUSH1 0x64 DUP5 ADD MSTORE DUP2 PUSH1 0x84 DUP5 ADD MSTORE GAS CALL SWAP3 DUP4 ISZERO PUSH2 0x461 JUMPI DUP5 SWAP4 PUSH2 0x843 JUMPI JUMPDEST POP PUSH32 0x6ADA868DD3058CF77A48A74489FD7963688E5464B2B0FA957ACE976243270E92 SWAP1 JUMPDEST PUSH1 0x1 PUSH1 0x1 PUSH1 0xA0 SHL SUB AND SWAP2 DUP1 LOG3 SWAP1 JUMP JUMPDEST PUSH2 0x850 SWAP2 SWAP3 POP PUSH0 SWAP1 PUSH2 0x63F JUMP JUMPDEST PUSH0 SWAP1 PUSH32 0x6ADA868DD3058CF77A48A74489FD7963688E5464B2B0FA957ACE976243270E92 PUSH2 0x810 JUMP JUMPDEST SWAP1 SWAP7 POP SWAP1 SWAP3 PUSH1 0x1 PUSH1 0x1 PUSH1 0xA0 SHL SUB SWAP3 DUP4 AND SWAP3 SWAP1 SWAP2 AND DUP3 SWAP1 SUB PUSH2 0x8BE JUMPI JUMPDEST POP POP POP PUSH32 0x6ADA868DD3058CF77A48A74489FD7963688E5464B2B0FA957ACE976243270E92 SWAP1 PUSH2 0x834 JUMP JUMPDEST PUSH1 0x20 SWAP3 SWAP6 POP PUSH1 0x64 SWAP1 PUSH0 PUSH1 0x40 MLOAD SWAP8 DUP9 SWAP5 DUP6 SWAP4 PUSH4 0x6AB5923 PUSH1 0xE0 SHL DUP6 MSTORE PUSH0 DUP1 MLOAD PUSH1 0x20 PUSH2 0xC5C DUP4 CODECOPY DUP2 MLOAD SWAP2 MSTORE PUSH1 0x4 DUP7 ADD MSTORE PUSH1 0x24 DUP6 ADD MSTORE PUSH1 0x44 DUP5 ADD MSTORE GAS CALL SWAP3 DUP4 ISZERO PUSH2 0x461 JUMPI DUP5 SWAP4 PUSH2 0x90D JUMPI JUMPDEST DUP1 DUP1 PUSH2 0x894 JUMP JUMPDEST PUSH1 0x20 DUP1 SWAP3 SWAP5 POP RETURNDATASIZE DUP4 GT PUSH2 0x935 JUMPI JUMPDEST PUSH2 0x925 DUP2 DUP4 PUSH2 0x63F JUMP JUMPDEST DUP2 ADD SUB SLT PUSH2 0x46C JUMPI DUP3 SWAP2 PUSH0 PUSH2 0x906 JUMP JUMPDEST POP RETURNDATASIZE PUSH2 0x91B JUMP JUMPDEST POP PUSH1 0x40 MLOAD PUSH4 0x178B8BF PUSH1 0xE0 SHL DUP2 MSTORE PUSH1 0x4 DUP2 ADD DUP11 SWAP1 MSTORE SWAP2 POP PUSH1 0x20 DUP3 PUSH1 0x24 DUP2 DUP7 GAS STATICCALL DUP1 ISZERO PUSH2 0x461 JUMPI DUP10 SWAP3 PUSH0 SWAP2 PUSH2 0x97D JUMPI JUMPDEST POP PUSH1 0x1 PUSH1 0x1 PUSH1 0xA0 SHL SUB AND DUP9 EQ ISZERO PUSH2 0x7AA JUMP JUMPDEST PUSH2 0x99F SWAP2 POP PUSH1 0x20 RETURNDATASIZE PUSH1 0x20 GT PUSH2 0x9A5 JUMPI JUMPDEST PUSH2 0x997 DUP2 DUP4 PUSH2 0x63F JUMP JUMPDEST DUP2 ADD SWAP1 PUSH2 0x6DD JUMP JUMPDEST PUSH0 PUSH2 0x96B JUMP JUMPDEST POP RETURNDATASIZE PUSH2 0x98D JUMP JUMPDEST PUSH2 0x9C6 SWAP2 SWAP9 POP PUSH1 0x20 RETURNDATASIZE PUSH1 0x20 GT PUSH2 0x9A5 JUMPI PUSH2 0x997 DUP2 DUP4 PUSH2 0x63F JUMP JUMPDEST SWAP7 PUSH0 PUSH2 0x796 JUMP JUMPDEST PUSH2 0x9D6 SWAP1 PUSH2 0x6A2 JUMP JUMPDEST PUSH1 0x40 MLOAD PUSH4 0x2571BE3 PUSH1 0xE0 SHL DUP2 MSTORE PUSH1 0x4 DUP2 ADD SWAP2 SWAP1 SWAP2 MSTORE SWAP1 PUSH32 0x0 PUSH1 0x1 PUSH1 0x1 PUSH1 0xA0 SHL SUB AND SWAP1 PUSH1 0x20 DUP4 PUSH1 0x24 DUP2 DUP6 GAS STATICCALL SWAP3 DUP4 ISZERO PUSH2 0x461 JUMPI PUSH0 SWAP4 PUSH2 0xAC5 JUMPI JUMPDEST POP PUSH1 0x1 PUSH1 0x1 PUSH1 0xA0 SHL SUB SWAP3 DUP4 AND SWAP3 AND DUP3 DUP2 EQ SWAP3 DUP4 ISZERO PUSH2 0xA4D JUMPI JUMPDEST POP POP POP SWAP1 JUMP JUMPDEST PUSH1 0x20 SWAP3 SWAP4 POP PUSH1 0x44 SWAP1 PUSH1 0x40 MLOAD SWAP5 DUP6 SWAP4 DUP5 SWAP3 PUSH4 0xE985E9C5 PUSH1 0xE0 SHL DUP5 MSTORE PUSH1 0x4 DUP5 ADD MSTORE PUSH1 0x24 DUP4 ADD MSTORE GAS STATICCALL SWAP1 DUP2 ISZERO PUSH2 0x461 JUMPI PUSH0 SWAP2 PUSH2 0xA8A JUMPI JUMPDEST POP PUSH0 DUP1 DUP1 PUSH2 0xA47 JUMP JUMPDEST SWAP1 POP PUSH1 0x20 DUP2 RETURNDATASIZE PUSH1 0x20 GT PUSH2 0xABD JUMPI JUMPDEST DUP2 PUSH2 0xAA5 PUSH1 0x20 SWAP4 DUP4 PUSH2 0x63F JUMP JUMPDEST DUP2 ADD SUB SLT PUSH2 0x46C JUMPI MLOAD DUP1 ISZERO ISZERO DUP2 SUB PUSH2 0x46C JUMPI PUSH0 PUSH2 0xA81 JUMP JUMPDEST RETURNDATASIZE SWAP2 POP PUSH2 0xA98 JUMP JUMPDEST PUSH2 0xADF SWAP2 SWAP4 POP PUSH1 0x20 RETURNDATASIZE PUSH1 0x20 GT PUSH2 0x9A5 JUMPI PUSH2 0x997 DUP2 DUP4 PUSH2 0x63F JUMP JUMPDEST SWAP2 PUSH0 PUSH2 0xA2E JUMP JUMPDEST PUSH0 SLOAD PUSH1 0x1 PUSH1 0x1 PUSH1 0xA0 SHL SUB AND CALLER SUB PUSH2 0xAF9 JUMPI JUMP JUMPDEST PUSH4 0x118CDAA7 PUSH1 0xE0 SHL PUSH0 MSTORE CALLER PUSH1 0x4 MSTORE PUSH1 0x24 PUSH0 REVERT JUMPDEST PUSH1 0x40 MLOAD PUSH2 0xB1A PUSH1 0x40 DUP3 PUSH2 0x63F JUMP JUMPDEST PUSH1 0x10 DUP2 MSTORE PUSH16 0x181899199A1A9B1B9C1CB0B131B232B3 PUSH1 0x81 SHL PUSH1 0x20 DUP3 ADD MSTORE PUSH1 0x40 MLOAD SWAP2 PUSH12 0xFFFFFFFFFFFFFFFFFFFFFFFF NOT SWAP1 PUSH1 0x60 SHL AND PUSH1 0x20 DUP4 ADD MSTORE PUSH1 0x14 DUP3 MSTORE PUSH2 0xB62 PUSH1 0x34 DUP4 PUSH2 0x63F JUMP JUMPDEST PUSH1 0x40 MLOAD SWAP1 PUSH2 0xB71 PUSH1 0x60 DUP4 PUSH2 0x63F JUMP JUMPDEST PUSH1 0x28 DUP3 MSTORE PUSH1 0x20 DUP3 ADD SWAP3 PUSH1 0x40 CALLDATASIZE DUP6 CALLDATACOPY PUSH0 JUMPDEST PUSH1 0x14 DUP2 LT PUSH2 0xB92 JUMPI POP POP POP MLOAD SWAP1 KECCAK256 SWAP1 JUMP JUMPDEST PUSH1 0x1 PUSH1 0x1 PUSH1 0xF8 SHL SUB NOT PUSH2 0xBB8 PUSH1 0xFF PUSH1 0xF PUSH2 0xBAC DUP6 DUP8 PUSH2 0xC36 JUMP JUMPDEST MLOAD PUSH1 0xFC SHR AND AND DUP6 PUSH2 0xC36 JUMP JUMPDEST MLOAD AND SWAP1 DUP1 PUSH1 0x1 SHL SWAP2 DUP2 DUP4 DIV PUSH1 0x2 EQ DUP3 ISZERO OR ISZERO PUSH2 0xC22 JUMPI PUSH0 BYTE PUSH2 0xBDA DUP4 DUP8 PUSH2 0xC36 JUMP JUMPDEST MSTORE8 PUSH1 0x1 PUSH1 0x1 PUSH1 0xF8 SHL SUB NOT PUSH2 0xBFE PUSH1 0xF PUSH2 0xBF3 DUP5 DUP8 PUSH2 0xC36 JUMP JUMPDEST MLOAD PUSH1 0xF8 SHR AND DUP7 PUSH2 0xC36 JUMP JUMPDEST MLOAD AND SWAP2 PUSH1 0x1 DUP2 ADD DUP1 SWAP2 GT PUSH2 0xC22 JUMPI PUSH2 0xC1B PUSH1 0x1 SWAP4 PUSH0 BYTE SWAP2 DUP8 PUSH2 0xC36 JUMP JUMPDEST MSTORE8 ADD PUSH2 0xB81 JUMP JUMPDEST PUSH4 0x4E487B71 PUSH1 0xE0 SHL PUSH0 MSTORE PUSH1 0x11 PUSH1 0x4 MSTORE PUSH1 0x24 PUSH0 REVERT JUMPDEST SWAP1 DUP2 MLOAD DUP2 LT ISZERO PUSH2 0xC47 JUMPI ADD PUSH1 0x20 ADD SWAP1 JUMP JUMPDEST PUSH4 0x4E487B71 PUSH1 0xE0 SHL PUSH0 MSTORE PUSH1 0x32 PUSH1 0x4 MSTORE PUSH1 0x24 PUSH0 REVERT INVALID SWAP2 0xD1 PUSH24 0x7781884D03A6757A803996E38DE2A42967FB37EEACA72729 0x27 LT 0x25 0xA9 0xE2 LOG2 PUSH5 0x6970667358 0x22 SLT KECCAK256 CODESIZE SWAP2 0xCD PUSH12 0x80596BA38E0B795C402E95FA 0xD8 0xCB SWAP7 PUSH1 0x1D 0x29 SWAP1 DUP6 PUSH11 0x643D73C291552B64736F6C PUSH4 0x4300081A STOP CALLER "},"methodIdentifiers":{"ADDR_REVERSE_NODE()":"7cf8a2eb","REVERSE_NODE()":"af91e74c","claim(address)":"1e83409a","claimForAddr(address,address,address)":"65669631","claimWithResolver(address,address)":"0f5a5466","defaultResolver()":"828eab0e","node(address)":"bffbe61c","owner()":"8da5cb5b","registry()":"7b103999","renounceOwnership()":"715018a6","setDefaultResolver(address)":"c66485b2","setName(string)":"c47f0027","setNameForAddr(address,address,address,string)":"7a806d6b","transferOwnership(address)":"f2fde38b"}},"storageLayout":{"storage":[{"astId":8,"contract":"contracts/registrar/ArcNSReverseRegistrar.sol:ArcNSReverseRegistrar","label":"_owner","offset":0,"slot":"0","type":"t_address"},{"astId":10559,"contract":"contracts/registrar/ArcNSReverseRegistrar.sol:ArcNSReverseRegistrar","label":"defaultResolver","offset":0,"slot":"1","type":"t_contract(ArcNSResolver)11554"}],"types":{"t_address":{"encoding":"inplace","label":"address","numberOfBytes":"20"},"t_contract(ArcNSResolver)11554":{"encoding":"inplace","label":"contract ArcNSResolver","numberOfBytes":"20"}}}}}}