{"contracts/v3/resolver/ArcNSResolver.sol":{"ArcNSResolver":{"abi":[{"inputs":[],"stateMutability":"nonpayable","type":"constructor"},{"inputs":[],"name":"AccessControlBadConfirmation","type":"error"},{"inputs":[{"internalType":"address","name":"account","type":"address"},{"internalType":"bytes32","name":"neededRole","type":"bytes32"}],"name":"AccessControlUnauthorizedAccount","type":"error"},{"inputs":[{"internalType":"address","name":"target","type":"address"}],"name":"AddressEmptyCode","type":"error"},{"inputs":[{"internalType":"address","name":"implementation","type":"address"}],"name":"ERC1967InvalidImplementation","type":"error"},{"inputs":[],"name":"ERC1967NonPayable","type":"error"},{"inputs":[],"name":"FailedCall","type":"error"},{"inputs":[],"name":"InvalidInitialization","type":"error"},{"inputs":[],"name":"NotAuthorised","type":"error"},{"inputs":[],"name":"NotInitializing","type":"error"},{"inputs":[],"name":"UUPSUnauthorizedCallContext","type":"error"},{"inputs":[{"internalType":"bytes32","name":"slot","type":"bytes32"}],"name":"UUPSUnsupportedProxiableUUID","type":"error"},{"inputs":[],"name":"ZeroRegistry","type":"error"},{"anonymous":false,"inputs":[{"indexed":true,"internalType":"bytes32","name":"node","type":"bytes32"},{"indexed":false,"internalType":"address","name":"addr","type":"address"}],"name":"AddrChanged","type":"event"},{"anonymous":false,"inputs":[{"indexed":false,"internalType":"uint64","name":"version","type":"uint64"}],"name":"Initialized","type":"event"},{"anonymous":false,"inputs":[{"indexed":true,"internalType":"bytes32","name":"node","type":"bytes32"},{"indexed":false,"internalType":"string","name":"name","type":"string"}],"name":"NameChanged","type":"event"},{"anonymous":false,"inputs":[{"indexed":true,"internalType":"bytes32","name":"role","type":"bytes32"},{"indexed":true,"internalType":"bytes32","name":"previousAdminRole","type":"bytes32"},{"indexed":true,"internalType":"bytes32","name":"newAdminRole","type":"bytes32"}],"name":"RoleAdminChanged","type":"event"},{"anonymous":false,"inputs":[{"indexed":true,"internalType":"bytes32","name":"role","type":"bytes32"},{"indexed":true,"internalType":"address","name":"account","type":"address"},{"indexed":true,"internalType":"address","name":"sender","type":"address"}],"name":"RoleGranted","type":"event"},{"anonymous":false,"inputs":[{"indexed":true,"internalType":"bytes32","name":"role","type":"bytes32"},{"indexed":true,"internalType":"address","name":"account","type":"address"},{"indexed":true,"internalType":"address","name":"sender","type":"address"}],"name":"RoleRevoked","type":"event"},{"anonymous":false,"inputs":[{"indexed":true,"internalType":"address","name":"implementation","type":"address"}],"name":"Upgraded","type":"event"},{"inputs":[],"name":"ADMIN_ROLE","outputs":[{"internalType":"bytes32","name":"","type":"bytes32"}],"stateMutability":"view","type":"function"},{"inputs":[],"name":"CONTROLLER_ROLE","outputs":[{"internalType":"bytes32","name":"","type":"bytes32"}],"stateMutability":"view","type":"function"},{"inputs":[],"name":"DEFAULT_ADMIN_ROLE","outputs":[{"internalType":"bytes32","name":"","type":"bytes32"}],"stateMutability":"view","type":"function"},{"inputs":[],"name":"UPGRADER_ROLE","outputs":[{"internalType":"bytes32","name":"","type":"bytes32"}],"stateMutability":"view","type":"function"},{"inputs":[],"name":"UPGRADE_INTERFACE_VERSION","outputs":[{"internalType":"string","name":"","type":"string"}],"stateMutability":"view","type":"function"},{"inputs":[{"internalType":"bytes32","name":"node","type":"bytes32"}],"name":"addr","outputs":[{"internalType":"address payable","name":"","type":"address"}],"stateMutability":"view","type":"function"},{"inputs":[{"internalType":"bytes32","name":"role","type":"bytes32"}],"name":"getRoleAdmin","outputs":[{"internalType":"bytes32","name":"","type":"bytes32"}],"stateMutability":"view","type":"function"},{"inputs":[{"internalType":"bytes32","name":"role","type":"bytes32"},{"internalType":"address","name":"account","type":"address"}],"name":"grantRole","outputs":[],"stateMutability":"nonpayable","type":"function"},{"inputs":[{"internalType":"bytes32","name":"role","type":"bytes32"},{"internalType":"address","name":"account","type":"address"}],"name":"hasRole","outputs":[{"internalType":"bool","name":"","type":"bool"}],"stateMutability":"view","type":"function"},{"inputs":[{"internalType":"contract IArcNSRegistry","name":"registry_","type":"address"},{"internalType":"address","name":"admin_","type":"address"}],"name":"initialize","outputs":[],"stateMutability":"nonpayable","type":"function"},{"inputs":[{"internalType":"bytes32","name":"node","type":"bytes32"}],"name":"name","outputs":[{"internalType":"string","name":"","type":"string"}],"stateMutability":"view","type":"function"},{"inputs":[],"name":"proxiableUUID","outputs":[{"internalType":"bytes32","name":"","type":"bytes32"}],"stateMutability":"view","type":"function"},{"inputs":[],"name":"registry","outputs":[{"internalType":"contract IArcNSRegistry","name":"","type":"address"}],"stateMutability":"view","type":"function"},{"inputs":[{"internalType":"bytes32","name":"role","type":"bytes32"},{"internalType":"address","name":"callerConfirmation","type":"address"}],"name":"renounceRole","outputs":[],"stateMutability":"nonpayable","type":"function"},{"inputs":[{"internalType":"bytes32","name":"role","type":"bytes32"},{"internalType":"address","name":"account","type":"address"}],"name":"revokeRole","outputs":[],"stateMutability":"nonpayable","type":"function"},{"inputs":[{"internalType":"bytes32","name":"node","type":"bytes32"},{"internalType":"address","name":"a","type":"address"}],"name":"setAddr","outputs":[],"stateMutability":"nonpayable","type":"function"},{"inputs":[{"internalType":"address","name":"controller","type":"address"},{"internalType":"bool","name":"trusted","type":"bool"}],"name":"setController","outputs":[],"stateMutability":"nonpayable","type":"function"},{"inputs":[{"internalType":"bytes32","name":"node","type":"bytes32"},{"internalType":"string","name":"name_","type":"string"}],"name":"setName","outputs":[],"stateMutability":"nonpayable","type":"function"},{"inputs":[{"internalType":"bytes4","name":"interfaceId","type":"bytes4"}],"name":"supportsInterface","outputs":[{"internalType":"bool","name":"","type":"bool"}],"stateMutability":"view","type":"function"},{"inputs":[{"internalType":"address","name":"newImplementation","type":"address"},{"internalType":"bytes","name":"data","type":"bytes"}],"name":"upgradeToAndCall","outputs":[],"stateMutability":"payable","type":"function"}],"evm":{"bytecode":{"linkReferences":{},"object":"60a080604052346100e857306080527ff0c57e16840df040f15088dc2f81fe391c3923bec73e23a9662efc9c229c6a005460ff8160401c166100d9576002600160401b03196001600160401b03821601610073575b6040516118dd90816100ed82396080518181816105230152610c820152f35b6001600160401b0319166001600160401b039081177ff0c57e16840df040f15088dc2f81fe391c3923bec73e23a9662efc9c229c6a005581527fc7f505b2f371ae2175ee4913f4499e1f2633a7b5936321eed1cdaeb6115181d290602090a15f80610054565b63f92ee8a960e01b5f5260045ffd5b5f80fdfe60806040526004361015610011575f80fd5b5f3560e01c806301ffc9a714610154578063092c5b3b1461014f578063248a9ca31461014a5780632f2ff15d1461014557806336568abe146101405780633b3b57de1461013b578063485cc955146101365780634f1ef2861461013157806352d1902d1461012c578063691f34311461012757806375b238fc14610122578063773722131461011d5780637b1039991461011857806391d1485414610113578063a217fddf1461010e578063ad3cb1cc14610109578063d547741f14610104578063d5fa2b00146100ff578063e0dba60f146100fa5763f72c0d8b146100f5575f80fd5b610a9a565b6109ed565b61081c565b6107e8565b6107a9565b61078f565b610731565b61070a565b6106ab565b610671565b6105a1565b610511565b610496565b6102bf565b61028f565b610247565b61020c565b6101d5565b6101ae565b346101aa5760203660031901126101aa5760043563ffffffff60e01b81168091036101aa57602090637965db0b60e01b8114908115610199575b506040519015158152f35b6301ffc9a760e01b1490505f61018e565b5f80fd5b346101aa575f3660031901126101aa5760206040515f805160206118088339815191528152f35b346101aa5760203660031901126101aa5760206101f3600435610ad4565b604051908152f35b6001600160a01b038116036101aa57565b346101aa5760403660031901126101aa5761024560243560043561022f826101fb565b61024061023b82610ad4565b61119d565b611484565b005b346101aa5760403660031901126101aa57600435602435610267816101fb565b336001600160a01b0382160361028057610245916115aa565b63334bd91960e11b5f5260045ffd5b346101aa5760203660031901126101aa5760206102ad600435610b2a565b6040516001600160a01b039091168152f35b346101aa5760403660031901126101aa576004356102dc816101fb565b602435906102e9826101fb565b5f80516020611888833981519152549167ffffffffffffffff61031c60ff604086901c16159467ffffffffffffffff1690565b1680159081610437575b600114908161042d575b159081610424575b506104155761037c9183610373600167ffffffffffffffff195f805160206118888339815191525416175f8051602061188883398151915255565b6103db57610bf8565b61038257005b6103ac60ff60401b195f8051602061188883398151915254165f8051602061188883398151915255565b604051600181527fc7f505b2f371ae2175ee4913f4499e1f2633a7b5936321eed1cdaeb6115181d290602090a1005b6104106801000000000000000060ff60401b195f805160206118888339815191525416175f8051602061188883398151915255565b610bf8565b63f92ee8a960e01b5f5260045ffd5b9050155f610338565b303b159150610330565b849150610326565b634e487b7160e01b5f52604160045260245ffd5b90601f8019910116810190811067ffffffffffffffff82111761047557604052565b61043f565b67ffffffffffffffff811161047557601f01601f191660200190565b60403660031901126101aa576004356104ae816101fb565b6024359067ffffffffffffffff82116101aa57366023830112156101aa578160040135906104db8261047a565b916104e96040519384610453565b80835236602482860101116101aa576020815f92602461024597018387013784010152610c76565b346101aa575f3660031901126101aa577f00000000000000000000000000000000000000000000000000000000000000006001600160a01b031630036105685760206040515f805160206118288339815191528152f35b63703e46dd60e11b5f5260045ffd5b602060409281835280519182918282860152018484015e5f828201840152601f01601f1916010190565b346101aa5760203660031901126101aa576004355f52600460205260405f20604051905f908054906105d282610af2565b808552916001811690811561064a575060011461060a575b610606846105fa81860382610453565b60405191829182610577565b0390f35b5f90815260208120939250905b808210610630575090915081016020016105fa826105ea565b919260018160209254838588010152019101909291610617565b60ff191660208087019190915292151560051b850190920192506105fa91508390506105ea565b346101aa575f3660031901126101aa5760206040517fa49807205ce4d355092ef5a8a18f56e8913cf4a201fbe287825b095693c217758152f35b346101aa5760403660031901126101aa5760243560043567ffffffffffffffff82116101aa57366023830112156101aa5781600401359067ffffffffffffffff82116101aa5736602483850101116101aa576024610245930190610d8d565b346101aa575f3660031901126101aa575f546040516001600160a01b039091168152602090f35b346101aa5760403660031901126101aa57602060ff610783602435600435610758826101fb565b5f525f80516020611868833981519152845260405f209060018060a01b03165f5260205260405f2090565b54166040519015158152f35b346101aa575f3660031901126101aa5760206040515f8152f35b346101aa575f3660031901126101aa576106066040516107ca604082610453565b60058152640352e302e360dc1b602082015260405191829182610577565b346101aa5760403660031901126101aa5761024560243560043561080b826101fb565b61081761023b82610ad4565b6115aa565b346101aa5760403660031901126101aa5760043560243561083c816101fb565b5f54610858906001600160a01b03165b6001600160a01b031690565b6040516302571be360e01b815260048101849052602081602481855afa908115610990575f916109c4575b506001600160a01b031633141590816108df575b50806108ba575b6108ab5761024591610f6e565b631648fd0160e01b5f5260045ffd5b50335f9081525f80516020611848833981519152602052604090205460ff161561089e565b6040516302571be360e01b815260048101859052909150602081602481855afa801561099057610947926020925f92610995575b5060405163e985e9c560e01b81526001600160a01b0390921660048301523360248301529092839190829081906044820190565b03915afa908115610990575f91610961575b50155f610897565b610983915060203d602011610989575b61097b8183610453565b810190610f59565b5f610959565b503d610971565b610f4e565b6109b6919250833d85116109bd575b6109ae8183610453565b810190610f39565b905f610913565b503d6109a4565b6109dd915060203d6020116109bd576109ae8183610453565b5f610883565b801515036101aa57565b346101aa5760403660031901126101aa57600435610a0a816101fb565b602435610a16816109e3565b335f9081527fb16e88c42fd4e48df2dd6a2eabd6bc9aec654ec170056b470819f8892cc6431c602052604090205460ff1615610a635715610a5a57610245906111e3565b61024590611519565b63e2517d3f60e01b5f52336004527fa49807205ce4d355092ef5a8a18f56e8913cf4a201fbe287825b095693c2177560245260445ffd5b346101aa575f3660031901126101aa5760206040517f189ab7a9244df0848122154315af71fe140f3db0fe014031783b0946b8c9d2e38152f35b5f525f80516020611868833981519152602052600160405f20015490565b90600182811c92168015610b20575b6020831014610b0c57565b634e487b7160e01b5f52602260045260245ffd5b91607f1691610b01565b5f52600160205260405f20603c5f5260205260405f2060405190815f825492610b5284610af2565b8084529360018116908115610bd65750600114610b92575b50610b7792500382610453565b805115610b8d5761084c610b8a9161164a565b90565b505f90565b90505f9291925260205f20905f915b818310610bba575050906020610b77928201015f610b6a565b6020919350806001915483858801015201910190918392610ba1565b905060209250610b7794915060ff191682840152151560051b8201015f610b6a565b6001600160a01b0316908115610c675760ff5f805160206118888339815191525460401c1615610c5857610c55916bffffffffffffffffffffffff60a01b5f5416175f55610c458161126b565b50610c4f81611302565b506113c3565b50565b631afcd79f60e31b5f5260045ffd5b634a100d5960e01b5f5260045ffd5b90916001600160a01b037f000000000000000000000000000000000000000000000000000000000000000016308114908115610d6b575b5061056857610cba6110e5565b6040516352d1902d60e01b8152926020846004816001600160a01b0387165afa5f9481610d3a575b50610d0357634c9c8ce360e01b5f526001600160a01b03831660045260245ffd5b90915f805160206118288339815191528403610d2657610d249293506116bc565b565b632a87526960e21b5f52600484905260245ffd5b610d5d91955060203d602011610d64575b610d558183610453565b8101906116ad565b935f610ce2565b503d610d4b565b5f80516020611828833981519152546001600160a01b0316141590505f610cad565b909291610d98611154565b815f52600460205260405f209367ffffffffffffffff821161047557610dc882610dc28754610af2565b87610ec3565b5f94601f8311600114610e3a57610e1883807fb7d29e911041e8d9b843369e890bcb72c9388692ba48b65ac54e7214c4c348f79697985f91610e2f575b508160011b915f199060031b1c19161790565b90555b610e2a60405192839283610f12565b0390a2565b90508401355f610e05565b601f19831695610e4d825f5260205f2090565b905f5b888110610eab5750847fb7d29e911041e8d9b843369e890bcb72c9388692ba48b65ac54e7214c4c348f796979810610e92575b5050600183811b019055610e1b565b8301355f19600386901b60f8161c191690555f80610e83565b90916020600181928588013581550193019101610e50565b601f8211610ed057505050565b5f5260205f20906020601f840160051c83019310610f08575b601f0160051c01905b818110610efd575050565b5f8155600101610ef2565b9091508190610ee9565b90918060409360208452816020850152848401375f828201840152601f01601f1916010190565b908160209103126101aa5751610b8a816101fb565b6040513d5f823e3d90fd5b908160209103126101aa5751610b8a816109e3565b906040516bffffffffffffffffffffffff198260601b16602082015260148152610f99603482610453565b825f52600160205260405f20603c5f5260205260405f209080519067ffffffffffffffff821161047557610fd782610fd18554610af2565b85610ec3565b602090601f831160011461105557827f52d7d861f09ab3d26239d492e8968629f95e9e318cf0b73bfddc441522a15fd29593610e2a959361102d935f9261104a575b50508160011b915f199060031b1c19161790565b90555b6040516001600160a01b0390911681529081906020820190565b015190505f80611019565b90601f19831691611069855f5260205f2090565b925f5b8181106110cd57509260019285927f52d7d861f09ab3d26239d492e8968629f95e9e318cf0b73bfddc441522a15fd29896610e2a9896106110b5575b505050811b019055611030565b01515f1960f88460031b161c191690555f80806110a8565b9293602060018192878601518155019501930161106c565b335f9081527fab71e3f32666744d246edff3f96e4bdafee2e9867098cdd118a979a7464786a8602052604090205460ff161561111d57565b63e2517d3f60e01b5f52336004527f189ab7a9244df0848122154315af71fe140f3db0fe014031783b0946b8c9d2e360245260445ffd5b335f9081525f80516020611848833981519152602052604090205460ff161561117957565b63e2517d3f60e01b5f52336004525f8051602061180883398151915260245260445ffd5b5f8181525f805160206118688339815191526020908152604080832033845290915290205460ff16156111cd5750565b63e2517d3f60e01b5f523360045260245260445ffd5b6001600160a01b0381165f9081525f80516020611848833981519152602052604090205460ff16610b8d576001600160a01b0381165f9081525f8051602061184883398151915260205260409020805460ff1916600117905533906001600160a01b03165f805160206118088339815191525f805160206117e88339815191525f80a4600190565b6001600160a01b0381165f9081527fb7db2dd08fcb62d0c9e08c51941cae53c267786a0b75803fb7960902fc8ef97d602052604090205460ff16610b8d576001600160a01b03165f8181527fb7db2dd08fcb62d0c9e08c51941cae53c267786a0b75803fb7960902fc8ef97d60205260408120805460ff191660011790553391905f805160206117e88339815191528180a4600190565b6001600160a01b0381165f9081527fb16e88c42fd4e48df2dd6a2eabd6bc9aec654ec170056b470819f8892cc6431c602052604090205460ff16610b8d576001600160a01b0381165f9081527fb16e88c42fd4e48df2dd6a2eabd6bc9aec654ec170056b470819f8892cc6431c60205260409020805460ff1916600117905533906001600160a01b03167fa49807205ce4d355092ef5a8a18f56e8913cf4a201fbe287825b095693c217755f805160206117e88339815191525f80a4600190565b6001600160a01b0381165f9081527fab71e3f32666744d246edff3f96e4bdafee2e9867098cdd118a979a7464786a8602052604090205460ff16610b8d576001600160a01b0381165f9081527fab71e3f32666744d246edff3f96e4bdafee2e9867098cdd118a979a7464786a860205260409020805460ff1916600117905533906001600160a01b03167f189ab7a9244df0848122154315af71fe140f3db0fe014031783b0946b8c9d2e35f805160206117e88339815191525f80a4600190565b5f8181525f80516020611868833981519152602090815260408083206001600160a01b038616845290915290205460ff16611513575f8181525f80516020611868833981519152602090815260408083206001600160a01b03861684529091529020805460ff1916600117905533916001600160a01b0316905f805160206117e88339815191525f80a4600190565b50505f90565b6001600160a01b0381165f9081525f80516020611848833981519152602052604090205460ff1615610b8d576001600160a01b03165f8181525f8051602061184883398151915260205260408120805460ff191690553391905f80516020611808833981519152907ff6391f5c32d9c69d2a47ea670b442974b53935d1edc7fd64eb21e047a839171b9080a4600190565b5f8181525f80516020611868833981519152602090815260408083206001600160a01b038616845290915290205460ff1615611513575f8181525f80516020611868833981519152602090815260408083206001600160a01b03861684529091529020805460ff1916905533916001600160a01b0316907ff6391f5c32d9c69d2a47ea670b442974b53935d1edc7fd64eb21e047a839171b5f80a4600190565b601481510361165a576014015190565b60405162461bcd60e51b815260206004820152602560248201527f4172634e535265736f6c7665723a20696e76616c69642061646472657373206c6044820152640cadccee8d60db1b6064820152608490fd5b908160209103126101aa575190565b90813b1561173a575f8051602061182883398151915280546001600160a01b0319166001600160a01b0384169081179091557fbc7cd75a20ee27fd9adebab32041f755214dbc6bffa90cc0225b39da2e5c2d3b5f80a280511561172257610c559161175b565b50503461172b57565b63b398979f60e01b5f5260045ffd5b50634c9c8ce360e01b5f9081526001600160a01b0391909116600452602490fd5b905f8091602081519101845af480806117bb575b1561177e575050610b8a6117ce565b156117a357639996b31560e01b5f9081526001600160a01b0391909116600452602490fd5b3d15155f03610f4e5763d6bda27560e01b5f5260045ffd5b503d15158061176f5750813b151561176f565b604051903d82523d5f602084013e60203d83010160405256fe2f8788117e7eff1d82e926ec794901d17c78024a50270940304540a733656f0d7b765e0e932d348852a6f810bfa1ab891e259123f02db8cdcde614c570223357360894a13ba1a3210667c828492db98dca3e2076cc3735a920a3ca505d382bbc6a9e2d30c9502d2e64654936f9966c37f5208e723166202f23831d0d37f1338302dd7bc7dec4dceedda775e58dd541e08a116c6c53815c0bd028192f7b626800f0c57e16840df040f15088dc2f81fe391c3923bec73e23a9662efc9c229c6a00a264697066735822122069357ed8afea39bdc930eff781554e7ff78001796aa80a8cb059bc8b47c6ce9164736f6c634300081a0033","opcodes":"PUSH1 0xA0 DUP1 PUSH1 0x40 MSTORE CALLVALUE PUSH2 0xE8 JUMPI ADDRESS PUSH1 0x80 MSTORE PUSH32 0xF0C57E16840DF040F15088DC2F81FE391C3923BEC73E23A9662EFC9C229C6A00 SLOAD PUSH1 0xFF DUP2 PUSH1 0x40 SHR AND PUSH2 0xD9 JUMPI PUSH1 0x2 PUSH1 0x1 PUSH1 0x40 SHL SUB NOT PUSH1 0x1 PUSH1 0x1 PUSH1 0x40 SHL SUB DUP3 AND ADD PUSH2 0x73 JUMPI JUMPDEST PUSH1 0x40 MLOAD PUSH2 0x18DD SWAP1 DUP2 PUSH2 0xED DUP3 CODECOPY PUSH1 0x80 MLOAD DUP2 DUP2 DUP2 PUSH2 0x523 ADD MSTORE PUSH2 0xC82 ADD MSTORE RETURN JUMPDEST PUSH1 0x1 PUSH1 0x1 PUSH1 0x40 SHL SUB NOT AND PUSH1 0x1 PUSH1 0x1 PUSH1 0x40 SHL SUB SWAP1 DUP2 OR PUSH32 0xF0C57E16840DF040F15088DC2F81FE391C3923BEC73E23A9662EFC9C229C6A00 SSTORE DUP2 MSTORE PUSH32 0xC7F505B2F371AE2175EE4913F4499E1F2633A7B5936321EED1CDAEB6115181D2 SWAP1 PUSH1 0x20 SWAP1 LOG1 PUSH0 DUP1 PUSH2 0x54 JUMP JUMPDEST PUSH4 0xF92EE8A9 PUSH1 0xE0 SHL PUSH0 MSTORE PUSH1 0x4 PUSH0 REVERT JUMPDEST PUSH0 DUP1 REVERT INVALID PUSH1 0x80 PUSH1 0x40 MSTORE PUSH1 0x4 CALLDATASIZE LT ISZERO PUSH2 0x11 JUMPI PUSH0 DUP1 REVERT JUMPDEST PUSH0 CALLDATALOAD PUSH1 0xE0 SHR DUP1 PUSH4 0x1FFC9A7 EQ PUSH2 0x154 JUMPI DUP1 PUSH4 0x92C5B3B EQ PUSH2 0x14F JUMPI DUP1 PUSH4 0x248A9CA3 EQ PUSH2 0x14A JUMPI DUP1 PUSH4 0x2F2FF15D EQ PUSH2 0x145 JUMPI DUP1 PUSH4 0x36568ABE EQ PUSH2 0x140 JUMPI DUP1 PUSH4 0x3B3B57DE EQ PUSH2 0x13B JUMPI DUP1 PUSH4 0x485CC955 EQ PUSH2 0x136 JUMPI DUP1 PUSH4 0x4F1EF286 EQ PUSH2 0x131 JUMPI DUP1 PUSH4 0x52D1902D EQ PUSH2 0x12C JUMPI DUP1 PUSH4 0x691F3431 EQ PUSH2 0x127 JUMPI DUP1 PUSH4 0x75B238FC EQ PUSH2 0x122 JUMPI DUP1 PUSH4 0x77372213 EQ PUSH2 0x11D JUMPI DUP1 PUSH4 0x7B103999 EQ PUSH2 0x118 JUMPI DUP1 PUSH4 0x91D14854 EQ PUSH2 0x113 JUMPI DUP1 PUSH4 0xA217FDDF EQ PUSH2 0x10E JUMPI DUP1 PUSH4 0xAD3CB1CC EQ PUSH2 0x109 JUMPI DUP1 PUSH4 0xD547741F EQ PUSH2 0x104 JUMPI DUP1 PUSH4 0xD5FA2B00 EQ PUSH2 0xFF JUMPI DUP1 PUSH4 0xE0DBA60F EQ PUSH2 0xFA JUMPI PUSH4 0xF72C0D8B EQ PUSH2 0xF5 JUMPI PUSH0 DUP1 REVERT JUMPDEST PUSH2 0xA9A JUMP JUMPDEST PUSH2 0x9ED JUMP JUMPDEST PUSH2 0x81C JUMP JUMPDEST PUSH2 0x7E8 JUMP JUMPDEST PUSH2 0x7A9 JUMP JUMPDEST PUSH2 0x78F JUMP JUMPDEST PUSH2 0x731 JUMP JUMPDEST PUSH2 0x70A JUMP JUMPDEST PUSH2 0x6AB JUMP JUMPDEST PUSH2 0x671 JUMP JUMPDEST PUSH2 0x5A1 JUMP JUMPDEST PUSH2 0x511 JUMP JUMPDEST PUSH2 0x496 JUMP JUMPDEST PUSH2 0x2BF JUMP JUMPDEST PUSH2 0x28F JUMP JUMPDEST PUSH2 0x247 JUMP JUMPDEST PUSH2 0x20C JUMP JUMPDEST PUSH2 0x1D5 JUMP JUMPDEST PUSH2 0x1AE JUMP JUMPDEST CALLVALUE PUSH2 0x1AA JUMPI PUSH1 0x20 CALLDATASIZE PUSH1 0x3 NOT ADD SLT PUSH2 0x1AA JUMPI PUSH1 0x4 CALLDATALOAD PUSH4 0xFFFFFFFF PUSH1 0xE0 SHL DUP2 AND DUP1 SWAP2 SUB PUSH2 0x1AA JUMPI PUSH1 0x20 SWAP1 PUSH4 0x7965DB0B PUSH1 0xE0 SHL DUP2 EQ SWAP1 DUP2 ISZERO PUSH2 0x199 JUMPI JUMPDEST POP PUSH1 0x40 MLOAD SWAP1 ISZERO ISZERO DUP2 MSTORE RETURN JUMPDEST PUSH4 0x1FFC9A7 PUSH1 0xE0 SHL EQ SWAP1 POP PUSH0 PUSH2 0x18E JUMP JUMPDEST PUSH0 DUP1 REVERT JUMPDEST CALLVALUE PUSH2 0x1AA JUMPI PUSH0 CALLDATASIZE PUSH1 0x3 NOT ADD SLT PUSH2 0x1AA JUMPI PUSH1 0x20 PUSH1 0x40 MLOAD PUSH0 DUP1 MLOAD PUSH1 0x20 PUSH2 0x1808 DUP4 CODECOPY DUP2 MLOAD SWAP2 MSTORE DUP2 MSTORE RETURN JUMPDEST CALLVALUE PUSH2 0x1AA JUMPI PUSH1 0x20 CALLDATASIZE PUSH1 0x3 NOT ADD SLT PUSH2 0x1AA JUMPI PUSH1 0x20 PUSH2 0x1F3 PUSH1 0x4 CALLDATALOAD PUSH2 0xAD4 JUMP JUMPDEST PUSH1 0x40 MLOAD SWAP1 DUP2 MSTORE RETURN JUMPDEST PUSH1 0x1 PUSH1 0x1 PUSH1 0xA0 SHL SUB DUP2 AND SUB PUSH2 0x1AA JUMPI JUMP JUMPDEST CALLVALUE PUSH2 0x1AA JUMPI PUSH1 0x40 CALLDATASIZE PUSH1 0x3 NOT ADD SLT PUSH2 0x1AA JUMPI PUSH2 0x245 PUSH1 0x24 CALLDATALOAD PUSH1 0x4 CALLDATALOAD PUSH2 0x22F DUP3 PUSH2 0x1FB JUMP JUMPDEST PUSH2 0x240 PUSH2 0x23B DUP3 PUSH2 0xAD4 JUMP JUMPDEST PUSH2 0x119D JUMP JUMPDEST PUSH2 0x1484 JUMP JUMPDEST STOP JUMPDEST CALLVALUE PUSH2 0x1AA JUMPI PUSH1 0x40 CALLDATASIZE PUSH1 0x3 NOT ADD SLT PUSH2 0x1AA JUMPI PUSH1 0x4 CALLDATALOAD PUSH1 0x24 CALLDATALOAD PUSH2 0x267 DUP2 PUSH2 0x1FB JUMP JUMPDEST CALLER PUSH1 0x1 PUSH1 0x1 PUSH1 0xA0 SHL SUB DUP3 AND SUB PUSH2 0x280 JUMPI PUSH2 0x245 SWAP2 PUSH2 0x15AA JUMP JUMPDEST PUSH4 0x334BD919 PUSH1 0xE1 SHL PUSH0 MSTORE PUSH1 0x4 PUSH0 REVERT JUMPDEST CALLVALUE PUSH2 0x1AA JUMPI PUSH1 0x20 CALLDATASIZE PUSH1 0x3 NOT ADD SLT PUSH2 0x1AA JUMPI PUSH1 0x20 PUSH2 0x2AD PUSH1 0x4 CALLDATALOAD PUSH2 0xB2A JUMP JUMPDEST PUSH1 0x40 MLOAD PUSH1 0x1 PUSH1 0x1 PUSH1 0xA0 SHL SUB SWAP1 SWAP2 AND DUP2 MSTORE RETURN JUMPDEST CALLVALUE PUSH2 0x1AA JUMPI PUSH1 0x40 CALLDATASIZE PUSH1 0x3 NOT ADD SLT PUSH2 0x1AA JUMPI PUSH1 0x4 CALLDATALOAD PUSH2 0x2DC DUP2 PUSH2 0x1FB JUMP JUMPDEST PUSH1 0x24 CALLDATALOAD SWAP1 PUSH2 0x2E9 DUP3 PUSH2 0x1FB JUMP JUMPDEST PUSH0 DUP1 MLOAD PUSH1 0x20 PUSH2 0x1888 DUP4 CODECOPY DUP2 MLOAD SWAP2 MSTORE SLOAD SWAP2 PUSH8 0xFFFFFFFFFFFFFFFF PUSH2 0x31C PUSH1 0xFF PUSH1 0x40 DUP7 SWAP1 SHR AND ISZERO SWAP5 PUSH8 0xFFFFFFFFFFFFFFFF AND SWAP1 JUMP JUMPDEST AND DUP1 ISZERO SWAP1 DUP2 PUSH2 0x437 JUMPI JUMPDEST PUSH1 0x1 EQ SWAP1 DUP2 PUSH2 0x42D JUMPI JUMPDEST ISZERO SWAP1 DUP2 PUSH2 0x424 JUMPI JUMPDEST POP PUSH2 0x415 JUMPI PUSH2 0x37C SWAP2 DUP4 PUSH2 0x373 PUSH1 0x1 PUSH8 0xFFFFFFFFFFFFFFFF NOT PUSH0 DUP1 MLOAD PUSH1 0x20 PUSH2 0x1888 DUP4 CODECOPY DUP2 MLOAD SWAP2 MSTORE SLOAD AND OR PUSH0 DUP1 MLOAD PUSH1 0x20 PUSH2 0x1888 DUP4 CODECOPY DUP2 MLOAD SWAP2 MSTORE SSTORE JUMP JUMPDEST PUSH2 0x3DB JUMPI PUSH2 0xBF8 JUMP JUMPDEST PUSH2 0x382 JUMPI STOP JUMPDEST PUSH2 0x3AC PUSH1 0xFF PUSH1 0x40 SHL NOT PUSH0 DUP1 MLOAD PUSH1 0x20 PUSH2 0x1888 DUP4 CODECOPY DUP2 MLOAD SWAP2 MSTORE SLOAD AND PUSH0 DUP1 MLOAD PUSH1 0x20 PUSH2 0x1888 DUP4 CODECOPY DUP2 MLOAD SWAP2 MSTORE SSTORE JUMP JUMPDEST PUSH1 0x40 MLOAD PUSH1 0x1 DUP2 MSTORE PUSH32 0xC7F505B2F371AE2175EE4913F4499E1F2633A7B5936321EED1CDAEB6115181D2 SWAP1 PUSH1 0x20 SWAP1 LOG1 STOP JUMPDEST PUSH2 0x410 PUSH9 0x10000000000000000 PUSH1 0xFF PUSH1 0x40 SHL NOT PUSH0 DUP1 MLOAD PUSH1 0x20 PUSH2 0x1888 DUP4 CODECOPY DUP2 MLOAD SWAP2 MSTORE SLOAD AND OR PUSH0 DUP1 MLOAD PUSH1 0x20 PUSH2 0x1888 DUP4 CODECOPY DUP2 MLOAD SWAP2 MSTORE SSTORE JUMP JUMPDEST PUSH2 0xBF8 JUMP JUMPDEST PUSH4 0xF92EE8A9 PUSH1 0xE0 SHL PUSH0 MSTORE PUSH1 0x4 PUSH0 REVERT JUMPDEST SWAP1 POP ISZERO PUSH0 PUSH2 0x338 JUMP JUMPDEST ADDRESS EXTCODESIZE ISZERO SWAP2 POP PUSH2 0x330 JUMP JUMPDEST DUP5 SWAP2 POP PUSH2 0x326 JUMP JUMPDEST PUSH4 0x4E487B71 PUSH1 0xE0 SHL PUSH0 MSTORE PUSH1 0x41 PUSH1 0x4 MSTORE PUSH1 0x24 PUSH0 REVERT JUMPDEST SWAP1 PUSH1 0x1F DUP1 NOT SWAP2 ADD AND DUP2 ADD SWAP1 DUP2 LT PUSH8 0xFFFFFFFFFFFFFFFF DUP3 GT OR PUSH2 0x475 JUMPI PUSH1 0x40 MSTORE JUMP JUMPDEST PUSH2 0x43F JUMP JUMPDEST PUSH8 0xFFFFFFFFFFFFFFFF DUP2 GT PUSH2 0x475 JUMPI PUSH1 0x1F ADD PUSH1 0x1F NOT AND PUSH1 0x20 ADD SWAP1 JUMP JUMPDEST PUSH1 0x40 CALLDATASIZE PUSH1 0x3 NOT ADD SLT PUSH2 0x1AA JUMPI PUSH1 0x4 CALLDATALOAD PUSH2 0x4AE DUP2 PUSH2 0x1FB JUMP JUMPDEST PUSH1 0x24 CALLDATALOAD SWAP1 PUSH8 0xFFFFFFFFFFFFFFFF DUP3 GT PUSH2 0x1AA JUMPI CALLDATASIZE PUSH1 0x23 DUP4 ADD SLT ISZERO PUSH2 0x1AA JUMPI DUP2 PUSH1 0x4 ADD CALLDATALOAD SWAP1 PUSH2 0x4DB DUP3 PUSH2 0x47A JUMP JUMPDEST SWAP2 PUSH2 0x4E9 PUSH1 0x40 MLOAD SWAP4 DUP5 PUSH2 0x453 JUMP JUMPDEST DUP1 DUP4 MSTORE CALLDATASIZE PUSH1 0x24 DUP3 DUP7 ADD ADD GT PUSH2 0x1AA JUMPI PUSH1 0x20 DUP2 PUSH0 SWAP3 PUSH1 0x24 PUSH2 0x245 SWAP8 ADD DUP4 DUP8 ADD CALLDATACOPY DUP5 ADD ADD MSTORE PUSH2 0xC76 JUMP JUMPDEST CALLVALUE PUSH2 0x1AA JUMPI PUSH0 CALLDATASIZE PUSH1 0x3 NOT ADD SLT PUSH2 0x1AA JUMPI PUSH32 0x0 PUSH1 0x1 PUSH1 0x1 PUSH1 0xA0 SHL SUB AND ADDRESS SUB PUSH2 0x568 JUMPI PUSH1 0x20 PUSH1 0x40 MLOAD PUSH0 DUP1 MLOAD PUSH1 0x20 PUSH2 0x1828 DUP4 CODECOPY DUP2 MLOAD SWAP2 MSTORE DUP2 MSTORE RETURN JUMPDEST PUSH4 0x703E46DD PUSH1 0xE1 SHL PUSH0 MSTORE PUSH1 0x4 PUSH0 REVERT JUMPDEST PUSH1 0x20 PUSH1 0x40 SWAP3 DUP2 DUP4 MSTORE DUP1 MLOAD SWAP2 DUP3 SWAP2 DUP3 DUP3 DUP7 ADD MSTORE ADD DUP5 DUP5 ADD MCOPY PUSH0 DUP3 DUP3 ADD DUP5 ADD MSTORE PUSH1 0x1F ADD PUSH1 0x1F NOT AND ADD ADD SWAP1 JUMP JUMPDEST CALLVALUE PUSH2 0x1AA JUMPI PUSH1 0x20 CALLDATASIZE PUSH1 0x3 NOT ADD SLT PUSH2 0x1AA JUMPI PUSH1 0x4 CALLDATALOAD PUSH0 MSTORE PUSH1 0x4 PUSH1 0x20 MSTORE PUSH1 0x40 PUSH0 KECCAK256 PUSH1 0x40 MLOAD SWAP1 PUSH0 SWAP1 DUP1 SLOAD SWAP1 PUSH2 0x5D2 DUP3 PUSH2 0xAF2 JUMP JUMPDEST DUP1 DUP6 MSTORE SWAP2 PUSH1 0x1 DUP2 AND SWAP1 DUP2 ISZERO PUSH2 0x64A JUMPI POP PUSH1 0x1 EQ PUSH2 0x60A JUMPI JUMPDEST PUSH2 0x606 DUP5 PUSH2 0x5FA DUP2 DUP7 SUB DUP3 PUSH2 0x453 JUMP JUMPDEST PUSH1 0x40 MLOAD SWAP2 DUP3 SWAP2 DUP3 PUSH2 0x577 JUMP JUMPDEST SUB SWAP1 RETURN JUMPDEST PUSH0 SWAP1 DUP2 MSTORE PUSH1 0x20 DUP2 KECCAK256 SWAP4 SWAP3 POP SWAP1 JUMPDEST DUP1 DUP3 LT PUSH2 0x630 JUMPI POP SWAP1 SWAP2 POP DUP2 ADD PUSH1 0x20 ADD PUSH2 0x5FA DUP3 PUSH2 0x5EA JUMP JUMPDEST SWAP2 SWAP3 PUSH1 0x1 DUP2 PUSH1 0x20 SWAP3 SLOAD DUP4 DUP6 DUP9 ADD ADD MSTORE ADD SWAP2 ADD SWAP1 SWAP3 SWAP2 PUSH2 0x617 JUMP JUMPDEST PUSH1 0xFF NOT AND PUSH1 0x20 DUP1 DUP8 ADD SWAP2 SWAP1 SWAP2 MSTORE SWAP3 ISZERO ISZERO PUSH1 0x5 SHL DUP6 ADD SWAP1 SWAP3 ADD SWAP3 POP PUSH2 0x5FA SWAP2 POP DUP4 SWAP1 POP PUSH2 0x5EA JUMP JUMPDEST CALLVALUE PUSH2 0x1AA JUMPI PUSH0 CALLDATASIZE PUSH1 0x3 NOT ADD SLT PUSH2 0x1AA JUMPI PUSH1 0x20 PUSH1 0x40 MLOAD PUSH32 0xA49807205CE4D355092EF5A8A18F56E8913CF4A201FBE287825B095693C21775 DUP2 MSTORE RETURN JUMPDEST CALLVALUE PUSH2 0x1AA JUMPI PUSH1 0x40 CALLDATASIZE PUSH1 0x3 NOT ADD SLT PUSH2 0x1AA JUMPI PUSH1 0x24 CALLDATALOAD PUSH1 0x4 CALLDATALOAD PUSH8 0xFFFFFFFFFFFFFFFF DUP3 GT PUSH2 0x1AA JUMPI CALLDATASIZE PUSH1 0x23 DUP4 ADD SLT ISZERO PUSH2 0x1AA JUMPI DUP2 PUSH1 0x4 ADD CALLDATALOAD SWAP1 PUSH8 0xFFFFFFFFFFFFFFFF DUP3 GT PUSH2 0x1AA JUMPI CALLDATASIZE PUSH1 0x24 DUP4 DUP6 ADD ADD GT PUSH2 0x1AA JUMPI PUSH1 0x24 PUSH2 0x245 SWAP4 ADD SWAP1 PUSH2 0xD8D JUMP JUMPDEST CALLVALUE PUSH2 0x1AA JUMPI PUSH0 CALLDATASIZE PUSH1 0x3 NOT ADD SLT PUSH2 0x1AA JUMPI PUSH0 SLOAD PUSH1 0x40 MLOAD PUSH1 0x1 PUSH1 0x1 PUSH1 0xA0 SHL SUB SWAP1 SWAP2 AND DUP2 MSTORE PUSH1 0x20 SWAP1 RETURN JUMPDEST CALLVALUE PUSH2 0x1AA JUMPI PUSH1 0x40 CALLDATASIZE PUSH1 0x3 NOT ADD SLT PUSH2 0x1AA JUMPI PUSH1 0x20 PUSH1 0xFF PUSH2 0x783 PUSH1 0x24 CALLDATALOAD PUSH1 0x4 CALLDATALOAD PUSH2 0x758 DUP3 PUSH2 0x1FB JUMP JUMPDEST PUSH0 MSTORE PUSH0 DUP1 MLOAD PUSH1 0x20 PUSH2 0x1868 DUP4 CODECOPY DUP2 MLOAD SWAP2 MSTORE DUP5 MSTORE PUSH1 0x40 PUSH0 KECCAK256 SWAP1 PUSH1 0x1 DUP1 PUSH1 0xA0 SHL SUB AND PUSH0 MSTORE PUSH1 0x20 MSTORE PUSH1 0x40 PUSH0 KECCAK256 SWAP1 JUMP JUMPDEST SLOAD AND PUSH1 0x40 MLOAD SWAP1 ISZERO ISZERO DUP2 MSTORE RETURN JUMPDEST CALLVALUE PUSH2 0x1AA JUMPI PUSH0 CALLDATASIZE PUSH1 0x3 NOT ADD SLT PUSH2 0x1AA JUMPI PUSH1 0x20 PUSH1 0x40 MLOAD PUSH0 DUP2 MSTORE RETURN JUMPDEST CALLVALUE PUSH2 0x1AA JUMPI PUSH0 CALLDATASIZE PUSH1 0x3 NOT ADD SLT PUSH2 0x1AA JUMPI PUSH2 0x606 PUSH1 0x40 MLOAD PUSH2 0x7CA PUSH1 0x40 DUP3 PUSH2 0x453 JUMP JUMPDEST PUSH1 0x5 DUP2 MSTORE PUSH5 0x352E302E3 PUSH1 0xDC SHL PUSH1 0x20 DUP3 ADD MSTORE PUSH1 0x40 MLOAD SWAP2 DUP3 SWAP2 DUP3 PUSH2 0x577 JUMP JUMPDEST CALLVALUE PUSH2 0x1AA JUMPI PUSH1 0x40 CALLDATASIZE PUSH1 0x3 NOT ADD SLT PUSH2 0x1AA JUMPI PUSH2 0x245 PUSH1 0x24 CALLDATALOAD PUSH1 0x4 CALLDATALOAD PUSH2 0x80B DUP3 PUSH2 0x1FB JUMP JUMPDEST PUSH2 0x817 PUSH2 0x23B DUP3 PUSH2 0xAD4 JUMP JUMPDEST PUSH2 0x15AA JUMP JUMPDEST CALLVALUE PUSH2 0x1AA JUMPI PUSH1 0x40 CALLDATASIZE PUSH1 0x3 NOT ADD SLT PUSH2 0x1AA JUMPI PUSH1 0x4 CALLDATALOAD PUSH1 0x24 CALLDATALOAD PUSH2 0x83C DUP2 PUSH2 0x1FB JUMP JUMPDEST PUSH0 SLOAD PUSH2 0x858 SWAP1 PUSH1 0x1 PUSH1 0x1 PUSH1 0xA0 SHL SUB AND JUMPDEST PUSH1 0x1 PUSH1 0x1 PUSH1 0xA0 SHL SUB AND SWAP1 JUMP JUMPDEST PUSH1 0x40 MLOAD PUSH4 0x2571BE3 PUSH1 0xE0 SHL DUP2 MSTORE PUSH1 0x4 DUP2 ADD DUP5 SWAP1 MSTORE PUSH1 0x20 DUP2 PUSH1 0x24 DUP2 DUP6 GAS STATICCALL SWAP1 DUP2 ISZERO PUSH2 0x990 JUMPI PUSH0 SWAP2 PUSH2 0x9C4 JUMPI JUMPDEST POP PUSH1 0x1 PUSH1 0x1 PUSH1 0xA0 SHL SUB AND CALLER EQ ISZERO SWAP1 DUP2 PUSH2 0x8DF JUMPI JUMPDEST POP DUP1 PUSH2 0x8BA JUMPI JUMPDEST PUSH2 0x8AB JUMPI PUSH2 0x245 SWAP2 PUSH2 0xF6E JUMP JUMPDEST PUSH4 0x1648FD01 PUSH1 0xE0 SHL PUSH0 MSTORE PUSH1 0x4 PUSH0 REVERT JUMPDEST POP CALLER PUSH0 SWAP1 DUP2 MSTORE PUSH0 DUP1 MLOAD PUSH1 0x20 PUSH2 0x1848 DUP4 CODECOPY DUP2 MLOAD SWAP2 MSTORE PUSH1 0x20 MSTORE PUSH1 0x40 SWAP1 KECCAK256 SLOAD PUSH1 0xFF AND ISZERO PUSH2 0x89E JUMP JUMPDEST PUSH1 0x40 MLOAD PUSH4 0x2571BE3 PUSH1 0xE0 SHL DUP2 MSTORE PUSH1 0x4 DUP2 ADD DUP6 SWAP1 MSTORE SWAP1 SWAP2 POP PUSH1 0x20 DUP2 PUSH1 0x24 DUP2 DUP6 GAS STATICCALL DUP1 ISZERO PUSH2 0x990 JUMPI PUSH2 0x947 SWAP3 PUSH1 0x20 SWAP3 PUSH0 SWAP3 PUSH2 0x995 JUMPI JUMPDEST POP PUSH1 0x40 MLOAD PUSH4 0xE985E9C5 PUSH1 0xE0 SHL DUP2 MSTORE PUSH1 0x1 PUSH1 0x1 PUSH1 0xA0 SHL SUB SWAP1 SWAP3 AND PUSH1 0x4 DUP4 ADD MSTORE CALLER PUSH1 0x24 DUP4 ADD MSTORE SWAP1 SWAP3 DUP4 SWAP2 SWAP1 DUP3 SWAP1 DUP2 SWAP1 PUSH1 0x44 DUP3 ADD SWAP1 JUMP JUMPDEST SUB SWAP2 GAS STATICCALL SWAP1 DUP2 ISZERO PUSH2 0x990 JUMPI PUSH0 SWAP2 PUSH2 0x961 JUMPI JUMPDEST POP ISZERO PUSH0 PUSH2 0x897 JUMP JUMPDEST PUSH2 0x983 SWAP2 POP PUSH1 0x20 RETURNDATASIZE PUSH1 0x20 GT PUSH2 0x989 JUMPI JUMPDEST PUSH2 0x97B DUP2 DUP4 PUSH2 0x453 JUMP JUMPDEST DUP2 ADD SWAP1 PUSH2 0xF59 JUMP JUMPDEST PUSH0 PUSH2 0x959 JUMP JUMPDEST POP RETURNDATASIZE PUSH2 0x971 JUMP JUMPDEST PUSH2 0xF4E JUMP JUMPDEST PUSH2 0x9B6 SWAP2 SWAP3 POP DUP4 RETURNDATASIZE DUP6 GT PUSH2 0x9BD JUMPI JUMPDEST PUSH2 0x9AE DUP2 DUP4 PUSH2 0x453 JUMP JUMPDEST DUP2 ADD SWAP1 PUSH2 0xF39 JUMP JUMPDEST SWAP1 PUSH0 PUSH2 0x913 JUMP JUMPDEST POP RETURNDATASIZE PUSH2 0x9A4 JUMP JUMPDEST PUSH2 0x9DD SWAP2 POP PUSH1 0x20 RETURNDATASIZE PUSH1 0x20 GT PUSH2 0x9BD JUMPI PUSH2 0x9AE DUP2 DUP4 PUSH2 0x453 JUMP JUMPDEST PUSH0 PUSH2 0x883 JUMP JUMPDEST DUP1 ISZERO ISZERO SUB PUSH2 0x1AA JUMPI JUMP JUMPDEST CALLVALUE PUSH2 0x1AA JUMPI PUSH1 0x40 CALLDATASIZE PUSH1 0x3 NOT ADD SLT PUSH2 0x1AA JUMPI PUSH1 0x4 CALLDATALOAD PUSH2 0xA0A DUP2 PUSH2 0x1FB JUMP JUMPDEST PUSH1 0x24 CALLDATALOAD PUSH2 0xA16 DUP2 PUSH2 0x9E3 JUMP JUMPDEST CALLER PUSH0 SWAP1 DUP2 MSTORE PUSH32 0xB16E88C42FD4E48DF2DD6A2EABD6BC9AEC654EC170056B470819F8892CC6431C PUSH1 0x20 MSTORE PUSH1 0x40 SWAP1 KECCAK256 SLOAD PUSH1 0xFF AND ISZERO PUSH2 0xA63 JUMPI ISZERO PUSH2 0xA5A JUMPI PUSH2 0x245 SWAP1 PUSH2 0x11E3 JUMP JUMPDEST PUSH2 0x245 SWAP1 PUSH2 0x1519 JUMP JUMPDEST PUSH4 0xE2517D3F PUSH1 0xE0 SHL PUSH0 MSTORE CALLER PUSH1 0x4 MSTORE PUSH32 0xA49807205CE4D355092EF5A8A18F56E8913CF4A201FBE287825B095693C21775 PUSH1 0x24 MSTORE PUSH1 0x44 PUSH0 REVERT JUMPDEST CALLVALUE PUSH2 0x1AA JUMPI PUSH0 CALLDATASIZE PUSH1 0x3 NOT ADD SLT PUSH2 0x1AA JUMPI PUSH1 0x20 PUSH1 0x40 MLOAD PUSH32 0x189AB7A9244DF0848122154315AF71FE140F3DB0FE014031783B0946B8C9D2E3 DUP2 MSTORE RETURN JUMPDEST PUSH0 MSTORE PUSH0 DUP1 MLOAD PUSH1 0x20 PUSH2 0x1868 DUP4 CODECOPY DUP2 MLOAD SWAP2 MSTORE PUSH1 0x20 MSTORE PUSH1 0x1 PUSH1 0x40 PUSH0 KECCAK256 ADD SLOAD SWAP1 JUMP JUMPDEST SWAP1 PUSH1 0x1 DUP3 DUP2 SHR SWAP3 AND DUP1 ISZERO PUSH2 0xB20 JUMPI JUMPDEST PUSH1 0x20 DUP4 LT EQ PUSH2 0xB0C JUMPI JUMP JUMPDEST PUSH4 0x4E487B71 PUSH1 0xE0 SHL PUSH0 MSTORE PUSH1 0x22 PUSH1 0x4 MSTORE PUSH1 0x24 PUSH0 REVERT JUMPDEST SWAP2 PUSH1 0x7F AND SWAP2 PUSH2 0xB01 JUMP JUMPDEST PUSH0 MSTORE PUSH1 0x1 PUSH1 0x20 MSTORE PUSH1 0x40 PUSH0 KECCAK256 PUSH1 0x3C PUSH0 MSTORE PUSH1 0x20 MSTORE PUSH1 0x40 PUSH0 KECCAK256 PUSH1 0x40 MLOAD SWAP1 DUP2 PUSH0 DUP3 SLOAD SWAP3 PUSH2 0xB52 DUP5 PUSH2 0xAF2 JUMP JUMPDEST DUP1 DUP5 MSTORE SWAP4 PUSH1 0x1 DUP2 AND SWAP1 DUP2 ISZERO PUSH2 0xBD6 JUMPI POP PUSH1 0x1 EQ PUSH2 0xB92 JUMPI JUMPDEST POP PUSH2 0xB77 SWAP3 POP SUB DUP3 PUSH2 0x453 JUMP JUMPDEST DUP1 MLOAD ISZERO PUSH2 0xB8D JUMPI PUSH2 0x84C PUSH2 0xB8A SWAP2 PUSH2 0x164A JUMP JUMPDEST SWAP1 JUMP JUMPDEST POP PUSH0 SWAP1 JUMP JUMPDEST SWAP1 POP PUSH0 SWAP3 SWAP2 SWAP3 MSTORE PUSH1 0x20 PUSH0 KECCAK256 SWAP1 PUSH0 SWAP2 JUMPDEST DUP2 DUP4 LT PUSH2 0xBBA JUMPI POP POP SWAP1 PUSH1 0x20 PUSH2 0xB77 SWAP3 DUP3 ADD ADD PUSH0 PUSH2 0xB6A JUMP JUMPDEST PUSH1 0x20 SWAP2 SWAP4 POP DUP1 PUSH1 0x1 SWAP2 SLOAD DUP4 DUP6 DUP9 ADD ADD MSTORE ADD SWAP2 ADD SWAP1 SWAP2 DUP4 SWAP3 PUSH2 0xBA1 JUMP JUMPDEST SWAP1 POP PUSH1 0x20 SWAP3 POP PUSH2 0xB77 SWAP5 SWAP2 POP PUSH1 0xFF NOT AND DUP3 DUP5 ADD MSTORE ISZERO ISZERO PUSH1 0x5 SHL DUP3 ADD ADD PUSH0 PUSH2 0xB6A JUMP JUMPDEST PUSH1 0x1 PUSH1 0x1 PUSH1 0xA0 SHL SUB AND SWAP1 DUP2 ISZERO PUSH2 0xC67 JUMPI PUSH1 0xFF PUSH0 DUP1 MLOAD PUSH1 0x20 PUSH2 0x1888 DUP4 CODECOPY DUP2 MLOAD SWAP2 MSTORE SLOAD PUSH1 0x40 SHR AND ISZERO PUSH2 0xC58 JUMPI PUSH2 0xC55 SWAP2 PUSH12 0xFFFFFFFFFFFFFFFFFFFFFFFF PUSH1 0xA0 SHL PUSH0 SLOAD AND OR PUSH0 SSTORE PUSH2 0xC45 DUP2 PUSH2 0x126B JUMP JUMPDEST POP PUSH2 0xC4F DUP2 PUSH2 0x1302 JUMP JUMPDEST POP PUSH2 0x13C3 JUMP JUMPDEST POP JUMP JUMPDEST PUSH4 0x1AFCD79F PUSH1 0xE3 SHL PUSH0 MSTORE PUSH1 0x4 PUSH0 REVERT JUMPDEST PUSH4 0x4A100D59 PUSH1 0xE0 SHL PUSH0 MSTORE PUSH1 0x4 PUSH0 REVERT JUMPDEST SWAP1 SWAP2 PUSH1 0x1 PUSH1 0x1 PUSH1 0xA0 SHL SUB PUSH32 0x0 AND ADDRESS DUP2 EQ SWAP1 DUP2 ISZERO PUSH2 0xD6B JUMPI JUMPDEST POP PUSH2 0x568 JUMPI PUSH2 0xCBA PUSH2 0x10E5 JUMP JUMPDEST PUSH1 0x40 MLOAD PUSH4 0x52D1902D PUSH1 0xE0 SHL DUP2 MSTORE SWAP3 PUSH1 0x20 DUP5 PUSH1 0x4 DUP2 PUSH1 0x1 PUSH1 0x1 PUSH1 0xA0 SHL SUB DUP8 AND GAS STATICCALL PUSH0 SWAP5 DUP2 PUSH2 0xD3A JUMPI JUMPDEST POP PUSH2 0xD03 JUMPI PUSH4 0x4C9C8CE3 PUSH1 0xE0 SHL PUSH0 MSTORE PUSH1 0x1 PUSH1 0x1 PUSH1 0xA0 SHL SUB DUP4 AND PUSH1 0x4 MSTORE PUSH1 0x24 PUSH0 REVERT JUMPDEST SWAP1 SWAP2 PUSH0 DUP1 MLOAD PUSH1 0x20 PUSH2 0x1828 DUP4 CODECOPY DUP2 MLOAD SWAP2 MSTORE DUP5 SUB PUSH2 0xD26 JUMPI PUSH2 0xD24 SWAP3 SWAP4 POP PUSH2 0x16BC JUMP JUMPDEST JUMP JUMPDEST PUSH4 0x2A875269 PUSH1 0xE2 SHL PUSH0 MSTORE PUSH1 0x4 DUP5 SWAP1 MSTORE PUSH1 0x24 PUSH0 REVERT JUMPDEST PUSH2 0xD5D SWAP2 SWAP6 POP PUSH1 0x20 RETURNDATASIZE PUSH1 0x20 GT PUSH2 0xD64 JUMPI JUMPDEST PUSH2 0xD55 DUP2 DUP4 PUSH2 0x453 JUMP JUMPDEST DUP2 ADD SWAP1 PUSH2 0x16AD JUMP JUMPDEST SWAP4 PUSH0 PUSH2 0xCE2 JUMP JUMPDEST POP RETURNDATASIZE PUSH2 0xD4B JUMP JUMPDEST PUSH0 DUP1 MLOAD PUSH1 0x20 PUSH2 0x1828 DUP4 CODECOPY DUP2 MLOAD SWAP2 MSTORE SLOAD PUSH1 0x1 PUSH1 0x1 PUSH1 0xA0 SHL SUB AND EQ ISZERO SWAP1 POP PUSH0 PUSH2 0xCAD JUMP JUMPDEST SWAP1 SWAP3 SWAP2 PUSH2 0xD98 PUSH2 0x1154 JUMP JUMPDEST DUP2 PUSH0 MSTORE PUSH1 0x4 PUSH1 0x20 MSTORE PUSH1 0x40 PUSH0 KECCAK256 SWAP4 PUSH8 0xFFFFFFFFFFFFFFFF DUP3 GT PUSH2 0x475 JUMPI PUSH2 0xDC8 DUP3 PUSH2 0xDC2 DUP8 SLOAD PUSH2 0xAF2 JUMP JUMPDEST DUP8 PUSH2 0xEC3 JUMP JUMPDEST PUSH0 SWAP5 PUSH1 0x1F DUP4 GT PUSH1 0x1 EQ PUSH2 0xE3A JUMPI PUSH2 0xE18 DUP4 DUP1 PUSH32 0xB7D29E911041E8D9B843369E890BCB72C9388692BA48B65AC54E7214C4C348F7 SWAP7 SWAP8 SWAP9 PUSH0 SWAP2 PUSH2 0xE2F JUMPI JUMPDEST POP DUP2 PUSH1 0x1 SHL SWAP2 PUSH0 NOT SWAP1 PUSH1 0x3 SHL SHR NOT AND OR SWAP1 JUMP JUMPDEST SWAP1 SSTORE JUMPDEST PUSH2 0xE2A PUSH1 0x40 MLOAD SWAP3 DUP4 SWAP3 DUP4 PUSH2 0xF12 JUMP JUMPDEST SUB SWAP1 LOG2 JUMP JUMPDEST SWAP1 POP DUP5 ADD CALLDATALOAD PUSH0 PUSH2 0xE05 JUMP JUMPDEST PUSH1 0x1F NOT DUP4 AND SWAP6 PUSH2 0xE4D DUP3 PUSH0 MSTORE PUSH1 0x20 PUSH0 KECCAK256 SWAP1 JUMP JUMPDEST SWAP1 PUSH0 JUMPDEST DUP9 DUP2 LT PUSH2 0xEAB JUMPI POP DUP5 PUSH32 0xB7D29E911041E8D9B843369E890BCB72C9388692BA48B65AC54E7214C4C348F7 SWAP7 SWAP8 SWAP9 LT PUSH2 0xE92 JUMPI JUMPDEST POP POP PUSH1 0x1 DUP4 DUP2 SHL ADD SWAP1 SSTORE PUSH2 0xE1B JUMP JUMPDEST DUP4 ADD CALLDATALOAD PUSH0 NOT PUSH1 0x3 DUP7 SWAP1 SHL PUSH1 0xF8 AND SHR NOT AND SWAP1 SSTORE PUSH0 DUP1 PUSH2 0xE83 JUMP JUMPDEST SWAP1 SWAP2 PUSH1 0x20 PUSH1 0x1 DUP2 SWAP3 DUP6 DUP9 ADD CALLDATALOAD DUP2 SSTORE ADD SWAP4 ADD SWAP2 ADD PUSH2 0xE50 JUMP JUMPDEST PUSH1 0x1F DUP3 GT PUSH2 0xED0 JUMPI POP POP POP JUMP JUMPDEST PUSH0 MSTORE PUSH1 0x20 PUSH0 KECCAK256 SWAP1 PUSH1 0x20 PUSH1 0x1F DUP5 ADD PUSH1 0x5 SHR DUP4 ADD SWAP4 LT PUSH2 0xF08 JUMPI JUMPDEST PUSH1 0x1F ADD PUSH1 0x5 SHR ADD SWAP1 JUMPDEST DUP2 DUP2 LT PUSH2 0xEFD JUMPI POP POP JUMP JUMPDEST PUSH0 DUP2 SSTORE PUSH1 0x1 ADD PUSH2 0xEF2 JUMP JUMPDEST SWAP1 SWAP2 POP DUP2 SWAP1 PUSH2 0xEE9 JUMP JUMPDEST SWAP1 SWAP2 DUP1 PUSH1 0x40 SWAP4 PUSH1 0x20 DUP5 MSTORE DUP2 PUSH1 0x20 DUP6 ADD MSTORE DUP5 DUP5 ADD CALLDATACOPY PUSH0 DUP3 DUP3 ADD DUP5 ADD MSTORE PUSH1 0x1F ADD PUSH1 0x1F NOT AND ADD ADD SWAP1 JUMP JUMPDEST SWAP1 DUP2 PUSH1 0x20 SWAP2 SUB SLT PUSH2 0x1AA JUMPI MLOAD PUSH2 0xB8A DUP2 PUSH2 0x1FB JUMP JUMPDEST PUSH1 0x40 MLOAD RETURNDATASIZE PUSH0 DUP3 RETURNDATACOPY RETURNDATASIZE SWAP1 REVERT JUMPDEST SWAP1 DUP2 PUSH1 0x20 SWAP2 SUB SLT PUSH2 0x1AA JUMPI MLOAD PUSH2 0xB8A DUP2 PUSH2 0x9E3 JUMP JUMPDEST SWAP1 PUSH1 0x40 MLOAD PUSH12 0xFFFFFFFFFFFFFFFFFFFFFFFF NOT DUP3 PUSH1 0x60 SHL AND PUSH1 0x20 DUP3 ADD MSTORE PUSH1 0x14 DUP2 MSTORE PUSH2 0xF99 PUSH1 0x34 DUP3 PUSH2 0x453 JUMP JUMPDEST DUP3 PUSH0 MSTORE PUSH1 0x1 PUSH1 0x20 MSTORE PUSH1 0x40 PUSH0 KECCAK256 PUSH1 0x3C PUSH0 MSTORE PUSH1 0x20 MSTORE PUSH1 0x40 PUSH0 KECCAK256 SWAP1 DUP1 MLOAD SWAP1 PUSH8 0xFFFFFFFFFFFFFFFF DUP3 GT PUSH2 0x475 JUMPI PUSH2 0xFD7 DUP3 PUSH2 0xFD1 DUP6 SLOAD PUSH2 0xAF2 JUMP JUMPDEST DUP6 PUSH2 0xEC3 JUMP JUMPDEST PUSH1 0x20 SWAP1 PUSH1 0x1F DUP4 GT PUSH1 0x1 EQ PUSH2 0x1055 JUMPI DUP3 PUSH32 0x52D7D861F09AB3D26239D492E8968629F95E9E318CF0B73BFDDC441522A15FD2 SWAP6 SWAP4 PUSH2 0xE2A SWAP6 SWAP4 PUSH2 0x102D SWAP4 PUSH0 SWAP3 PUSH2 0x104A JUMPI JUMPDEST POP POP DUP2 PUSH1 0x1 SHL SWAP2 PUSH0 NOT SWAP1 PUSH1 0x3 SHL SHR NOT AND OR SWAP1 JUMP JUMPDEST SWAP1 SSTORE JUMPDEST PUSH1 0x40 MLOAD PUSH1 0x1 PUSH1 0x1 PUSH1 0xA0 SHL SUB SWAP1 SWAP2 AND DUP2 MSTORE SWAP1 DUP2 SWAP1 PUSH1 0x20 DUP3 ADD SWAP1 JUMP JUMPDEST ADD MLOAD SWAP1 POP PUSH0 DUP1 PUSH2 0x1019 JUMP JUMPDEST SWAP1 PUSH1 0x1F NOT DUP4 AND SWAP2 PUSH2 0x1069 DUP6 PUSH0 MSTORE PUSH1 0x20 PUSH0 KECCAK256 SWAP1 JUMP JUMPDEST SWAP3 PUSH0 JUMPDEST DUP2 DUP2 LT PUSH2 0x10CD JUMPI POP SWAP3 PUSH1 0x1 SWAP3 DUP6 SWAP3 PUSH32 0x52D7D861F09AB3D26239D492E8968629F95E9E318CF0B73BFDDC441522A15FD2 SWAP9 SWAP7 PUSH2 0xE2A SWAP9 SWAP7 LT PUSH2 0x10B5 JUMPI JUMPDEST POP POP POP DUP2 SHL ADD SWAP1 SSTORE PUSH2 0x1030 JUMP JUMPDEST ADD MLOAD PUSH0 NOT PUSH1 0xF8 DUP5 PUSH1 0x3 SHL AND SHR NOT AND SWAP1 SSTORE PUSH0 DUP1 DUP1 PUSH2 0x10A8 JUMP JUMPDEST SWAP3 SWAP4 PUSH1 0x20 PUSH1 0x1 DUP2 SWAP3 DUP8 DUP7 ADD MLOAD DUP2 SSTORE ADD SWAP6 ADD SWAP4 ADD PUSH2 0x106C JUMP JUMPDEST CALLER PUSH0 SWAP1 DUP2 MSTORE PUSH32 0xAB71E3F32666744D246EDFF3F96E4BDAFEE2E9867098CDD118A979A7464786A8 PUSH1 0x20 MSTORE PUSH1 0x40 SWAP1 KECCAK256 SLOAD PUSH1 0xFF AND ISZERO PUSH2 0x111D JUMPI JUMP JUMPDEST PUSH4 0xE2517D3F PUSH1 0xE0 SHL PUSH0 MSTORE CALLER PUSH1 0x4 MSTORE PUSH32 0x189AB7A9244DF0848122154315AF71FE140F3DB0FE014031783B0946B8C9D2E3 PUSH1 0x24 MSTORE PUSH1 0x44 PUSH0 REVERT JUMPDEST CALLER PUSH0 SWAP1 DUP2 MSTORE PUSH0 DUP1 MLOAD PUSH1 0x20 PUSH2 0x1848 DUP4 CODECOPY DUP2 MLOAD SWAP2 MSTORE PUSH1 0x20 MSTORE PUSH1 0x40 SWAP1 KECCAK256 SLOAD PUSH1 0xFF AND ISZERO PUSH2 0x1179 JUMPI JUMP JUMPDEST PUSH4 0xE2517D3F PUSH1 0xE0 SHL PUSH0 MSTORE CALLER PUSH1 0x4 MSTORE PUSH0 DUP1 MLOAD PUSH1 0x20 PUSH2 0x1808 DUP4 CODECOPY DUP2 MLOAD SWAP2 MSTORE PUSH1 0x24 MSTORE PUSH1 0x44 PUSH0 REVERT JUMPDEST PUSH0 DUP2 DUP2 MSTORE PUSH0 DUP1 MLOAD PUSH1 0x20 PUSH2 0x1868 DUP4 CODECOPY DUP2 MLOAD SWAP2 MSTORE PUSH1 0x20 SWAP1 DUP2 MSTORE PUSH1 0x40 DUP1 DUP4 KECCAK256 CALLER DUP5 MSTORE SWAP1 SWAP2 MSTORE SWAP1 KECCAK256 SLOAD PUSH1 0xFF AND ISZERO PUSH2 0x11CD JUMPI POP JUMP JUMPDEST PUSH4 0xE2517D3F PUSH1 0xE0 SHL PUSH0 MSTORE CALLER PUSH1 0x4 MSTORE PUSH1 0x24 MSTORE PUSH1 0x44 PUSH0 REVERT JUMPDEST PUSH1 0x1 PUSH1 0x1 PUSH1 0xA0 SHL SUB DUP2 AND PUSH0 SWAP1 DUP2 MSTORE PUSH0 DUP1 MLOAD PUSH1 0x20 PUSH2 0x1848 DUP4 CODECOPY DUP2 MLOAD SWAP2 MSTORE PUSH1 0x20 MSTORE PUSH1 0x40 SWAP1 KECCAK256 SLOAD PUSH1 0xFF AND PUSH2 0xB8D JUMPI PUSH1 0x1 PUSH1 0x1 PUSH1 0xA0 SHL SUB DUP2 AND PUSH0 SWAP1 DUP2 MSTORE PUSH0 DUP1 MLOAD PUSH1 0x20 PUSH2 0x1848 DUP4 CODECOPY DUP2 MLOAD SWAP2 MSTORE PUSH1 0x20 MSTORE PUSH1 0x40 SWAP1 KECCAK256 DUP1 SLOAD PUSH1 0xFF NOT AND PUSH1 0x1 OR SWAP1 SSTORE CALLER SWAP1 PUSH1 0x1 PUSH1 0x1 PUSH1 0xA0 SHL SUB AND PUSH0 DUP1 MLOAD PUSH1 0x20 PUSH2 0x1808 DUP4 CODECOPY DUP2 MLOAD SWAP2 MSTORE PUSH0 DUP1 MLOAD PUSH1 0x20 PUSH2 0x17E8 DUP4 CODECOPY DUP2 MLOAD SWAP2 MSTORE PUSH0 DUP1 LOG4 PUSH1 0x1 SWAP1 JUMP JUMPDEST PUSH1 0x1 PUSH1 0x1 PUSH1 0xA0 SHL SUB DUP2 AND PUSH0 SWAP1 DUP2 MSTORE PUSH32 0xB7DB2DD08FCB62D0C9E08C51941CAE53C267786A0B75803FB7960902FC8EF97D PUSH1 0x20 MSTORE PUSH1 0x40 SWAP1 KECCAK256 SLOAD PUSH1 0xFF AND PUSH2 0xB8D JUMPI PUSH1 0x1 PUSH1 0x1 PUSH1 0xA0 SHL SUB AND PUSH0 DUP2 DUP2 MSTORE PUSH32 0xB7DB2DD08FCB62D0C9E08C51941CAE53C267786A0B75803FB7960902FC8EF97D PUSH1 0x20 MSTORE PUSH1 0x40 DUP2 KECCAK256 DUP1 SLOAD PUSH1 0xFF NOT AND PUSH1 0x1 OR SWAP1 SSTORE CALLER SWAP2 SWAP1 PUSH0 DUP1 MLOAD PUSH1 0x20 PUSH2 0x17E8 DUP4 CODECOPY DUP2 MLOAD SWAP2 MSTORE DUP2 DUP1 LOG4 PUSH1 0x1 SWAP1 JUMP JUMPDEST PUSH1 0x1 PUSH1 0x1 PUSH1 0xA0 SHL SUB DUP2 AND PUSH0 SWAP1 DUP2 MSTORE PUSH32 0xB16E88C42FD4E48DF2DD6A2EABD6BC9AEC654EC170056B470819F8892CC6431C PUSH1 0x20 MSTORE PUSH1 0x40 SWAP1 KECCAK256 SLOAD PUSH1 0xFF AND PUSH2 0xB8D JUMPI PUSH1 0x1 PUSH1 0x1 PUSH1 0xA0 SHL SUB DUP2 AND PUSH0 SWAP1 DUP2 MSTORE PUSH32 0xB16E88C42FD4E48DF2DD6A2EABD6BC9AEC654EC170056B470819F8892CC6431C PUSH1 0x20 MSTORE PUSH1 0x40 SWAP1 KECCAK256 DUP1 SLOAD PUSH1 0xFF NOT AND PUSH1 0x1 OR SWAP1 SSTORE CALLER SWAP1 PUSH1 0x1 PUSH1 0x1 PUSH1 0xA0 SHL SUB AND PUSH32 0xA49807205CE4D355092EF5A8A18F56E8913CF4A201FBE287825B095693C21775 PUSH0 DUP1 MLOAD PUSH1 0x20 PUSH2 0x17E8 DUP4 CODECOPY DUP2 MLOAD SWAP2 MSTORE PUSH0 DUP1 LOG4 PUSH1 0x1 SWAP1 JUMP JUMPDEST PUSH1 0x1 PUSH1 0x1 PUSH1 0xA0 SHL SUB DUP2 AND PUSH0 SWAP1 DUP2 MSTORE PUSH32 0xAB71E3F32666744D246EDFF3F96E4BDAFEE2E9867098CDD118A979A7464786A8 PUSH1 0x20 MSTORE PUSH1 0x40 SWAP1 KECCAK256 SLOAD PUSH1 0xFF AND PUSH2 0xB8D JUMPI PUSH1 0x1 PUSH1 0x1 PUSH1 0xA0 SHL SUB DUP2 AND PUSH0 SWAP1 DUP2 MSTORE PUSH32 0xAB71E3F32666744D246EDFF3F96E4BDAFEE2E9867098CDD118A979A7464786A8 PUSH1 0x20 MSTORE PUSH1 0x40 SWAP1 KECCAK256 DUP1 SLOAD PUSH1 0xFF NOT AND PUSH1 0x1 OR SWAP1 SSTORE CALLER SWAP1 PUSH1 0x1 PUSH1 0x1 PUSH1 0xA0 SHL SUB AND PUSH32 0x189AB7A9244DF0848122154315AF71FE140F3DB0FE014031783B0946B8C9D2E3 PUSH0 DUP1 MLOAD PUSH1 0x20 PUSH2 0x17E8 DUP4 CODECOPY DUP2 MLOAD SWAP2 MSTORE PUSH0 DUP1 LOG4 PUSH1 0x1 SWAP1 JUMP JUMPDEST PUSH0 DUP2 DUP2 MSTORE PUSH0 DUP1 MLOAD PUSH1 0x20 PUSH2 0x1868 DUP4 CODECOPY DUP2 MLOAD SWAP2 MSTORE PUSH1 0x20 SWAP1 DUP2 MSTORE PUSH1 0x40 DUP1 DUP4 KECCAK256 PUSH1 0x1 PUSH1 0x1 PUSH1 0xA0 SHL SUB DUP7 AND DUP5 MSTORE SWAP1 SWAP2 MSTORE SWAP1 KECCAK256 SLOAD PUSH1 0xFF AND PUSH2 0x1513 JUMPI PUSH0 DUP2 DUP2 MSTORE PUSH0 DUP1 MLOAD PUSH1 0x20 PUSH2 0x1868 DUP4 CODECOPY DUP2 MLOAD SWAP2 MSTORE PUSH1 0x20 SWAP1 DUP2 MSTORE PUSH1 0x40 DUP1 DUP4 KECCAK256 PUSH1 0x1 PUSH1 0x1 PUSH1 0xA0 SHL SUB DUP7 AND DUP5 MSTORE SWAP1 SWAP2 MSTORE SWAP1 KECCAK256 DUP1 SLOAD PUSH1 0xFF NOT AND PUSH1 0x1 OR SWAP1 SSTORE CALLER SWAP2 PUSH1 0x1 PUSH1 0x1 PUSH1 0xA0 SHL SUB AND SWAP1 PUSH0 DUP1 MLOAD PUSH1 0x20 PUSH2 0x17E8 DUP4 CODECOPY DUP2 MLOAD SWAP2 MSTORE PUSH0 DUP1 LOG4 PUSH1 0x1 SWAP1 JUMP JUMPDEST POP POP PUSH0 SWAP1 JUMP JUMPDEST PUSH1 0x1 PUSH1 0x1 PUSH1 0xA0 SHL SUB DUP2 AND PUSH0 SWAP1 DUP2 MSTORE PUSH0 DUP1 MLOAD PUSH1 0x20 PUSH2 0x1848 DUP4 CODECOPY DUP2 MLOAD SWAP2 MSTORE PUSH1 0x20 MSTORE PUSH1 0x40 SWAP1 KECCAK256 SLOAD PUSH1 0xFF AND ISZERO PUSH2 0xB8D JUMPI PUSH1 0x1 PUSH1 0x1 PUSH1 0xA0 SHL SUB AND PUSH0 DUP2 DUP2 MSTORE PUSH0 DUP1 MLOAD PUSH1 0x20 PUSH2 0x1848 DUP4 CODECOPY DUP2 MLOAD SWAP2 MSTORE PUSH1 0x20 MSTORE PUSH1 0x40 DUP2 KECCAK256 DUP1 SLOAD PUSH1 0xFF NOT AND SWAP1 SSTORE CALLER SWAP2 SWAP1 PUSH0 DUP1 MLOAD PUSH1 0x20 PUSH2 0x1808 DUP4 CODECOPY DUP2 MLOAD SWAP2 MSTORE SWAP1 PUSH32 0xF6391F5C32D9C69D2A47EA670B442974B53935D1EDC7FD64EB21E047A839171B SWAP1 DUP1 LOG4 PUSH1 0x1 SWAP1 JUMP JUMPDEST PUSH0 DUP2 DUP2 MSTORE PUSH0 DUP1 MLOAD PUSH1 0x20 PUSH2 0x1868 DUP4 CODECOPY DUP2 MLOAD SWAP2 MSTORE PUSH1 0x20 SWAP1 DUP2 MSTORE PUSH1 0x40 DUP1 DUP4 KECCAK256 PUSH1 0x1 PUSH1 0x1 PUSH1 0xA0 SHL SUB DUP7 AND DUP5 MSTORE SWAP1 SWAP2 MSTORE SWAP1 KECCAK256 SLOAD PUSH1 0xFF AND ISZERO PUSH2 0x1513 JUMPI PUSH0 DUP2 DUP2 MSTORE PUSH0 DUP1 MLOAD PUSH1 0x20 PUSH2 0x1868 DUP4 CODECOPY DUP2 MLOAD SWAP2 MSTORE PUSH1 0x20 SWAP1 DUP2 MSTORE PUSH1 0x40 DUP1 DUP4 KECCAK256 PUSH1 0x1 PUSH1 0x1 PUSH1 0xA0 SHL SUB DUP7 AND DUP5 MSTORE SWAP1 SWAP2 MSTORE SWAP1 KECCAK256 DUP1 SLOAD PUSH1 0xFF NOT AND SWAP1 SSTORE CALLER SWAP2 PUSH1 0x1 PUSH1 0x1 PUSH1 0xA0 SHL SUB AND SWAP1 PUSH32 0xF6391F5C32D9C69D2A47EA670B442974B53935D1EDC7FD64EB21E047A839171B PUSH0 DUP1 LOG4 PUSH1 0x1 SWAP1 JUMP JUMPDEST PUSH1 0x14 DUP2 MLOAD SUB PUSH2 0x165A JUMPI PUSH1 0x14 ADD MLOAD SWAP1 JUMP JUMPDEST PUSH1 0x40 MLOAD PUSH3 0x461BCD PUSH1 0xE5 SHL DUP2 MSTORE PUSH1 0x20 PUSH1 0x4 DUP3 ADD MSTORE PUSH1 0x25 PUSH1 0x24 DUP3 ADD MSTORE PUSH32 0x4172634E535265736F6C7665723A20696E76616C69642061646472657373206C PUSH1 0x44 DUP3 ADD MSTORE PUSH5 0xCADCCEE8D PUSH1 0xDB SHL PUSH1 0x64 DUP3 ADD MSTORE PUSH1 0x84 SWAP1 REVERT JUMPDEST SWAP1 DUP2 PUSH1 0x20 SWAP2 SUB SLT PUSH2 0x1AA JUMPI MLOAD SWAP1 JUMP JUMPDEST SWAP1 DUP2 EXTCODESIZE ISZERO PUSH2 0x173A JUMPI PUSH0 DUP1 MLOAD PUSH1 0x20 PUSH2 0x1828 DUP4 CODECOPY DUP2 MLOAD SWAP2 MSTORE DUP1 SLOAD PUSH1 0x1 PUSH1 0x1 PUSH1 0xA0 SHL SUB NOT AND PUSH1 0x1 PUSH1 0x1 PUSH1 0xA0 SHL SUB DUP5 AND SWAP1 DUP2 OR SWAP1 SWAP2 SSTORE PUSH32 0xBC7CD75A20EE27FD9ADEBAB32041F755214DBC6BFFA90CC0225B39DA2E5C2D3B PUSH0 DUP1 LOG2 DUP1 MLOAD ISZERO PUSH2 0x1722 JUMPI PUSH2 0xC55 SWAP2 PUSH2 0x175B JUMP JUMPDEST POP POP CALLVALUE PUSH2 0x172B JUMPI JUMP JUMPDEST PUSH4 0xB398979F PUSH1 0xE0 SHL PUSH0 MSTORE PUSH1 0x4 PUSH0 REVERT JUMPDEST POP PUSH4 0x4C9C8CE3 PUSH1 0xE0 SHL PUSH0 SWAP1 DUP2 MSTORE PUSH1 0x1 PUSH1 0x1 PUSH1 0xA0 SHL SUB SWAP2 SWAP1 SWAP2 AND PUSH1 0x4 MSTORE PUSH1 0x24 SWAP1 REVERT JUMPDEST SWAP1 PUSH0 DUP1 SWAP2 PUSH1 0x20 DUP2 MLOAD SWAP2 ADD DUP5 GAS DELEGATECALL DUP1 DUP1 PUSH2 0x17BB JUMPI JUMPDEST ISZERO PUSH2 0x177E JUMPI POP POP PUSH2 0xB8A PUSH2 0x17CE JUMP JUMPDEST ISZERO PUSH2 0x17A3 JUMPI PUSH4 0x9996B315 PUSH1 0xE0 SHL PUSH0 SWAP1 DUP2 MSTORE PUSH1 0x1 PUSH1 0x1 PUSH1 0xA0 SHL SUB SWAP2 SWAP1 SWAP2 AND PUSH1 0x4 MSTORE PUSH1 0x24 SWAP1 REVERT JUMPDEST RETURNDATASIZE ISZERO ISZERO PUSH0 SUB PUSH2 0xF4E JUMPI PUSH4 0xD6BDA275 PUSH1 0xE0 SHL PUSH0 MSTORE PUSH1 0x4 PUSH0 REVERT JUMPDEST POP RETURNDATASIZE ISZERO ISZERO DUP1 PUSH2 0x176F JUMPI POP DUP2 EXTCODESIZE ISZERO ISZERO PUSH2 0x176F JUMP JUMPDEST PUSH1 0x40 MLOAD SWAP1 RETURNDATASIZE DUP3 MSTORE RETURNDATASIZE PUSH0 PUSH1 0x20 DUP5 ADD RETURNDATACOPY PUSH1 0x20 RETURNDATASIZE DUP4 ADD ADD PUSH1 0x40 MSTORE JUMP INVALID 0x2F DUP8 DUP9 GT PUSH31 0x7EFF1D82E926EC794901D17C78024A50270940304540A733656F0D7B765E0E SWAP4 0x2D CALLVALUE DUP9 MSTORE 0xA6 0xF8 LT 0xBF LOG1 0xAB DUP10 0x1E 0x25 SWAP2 0x23 CREATE 0x2D 0xB8 0xCD 0xCD 0xE6 EQ 0xC5 PUSH17 0x223357360894A13BA1A3210667C828492D 0xB9 DUP14 0xCA RETURNDATACOPY KECCAK256 PUSH23 0xCC3735A920A3CA505D382BBC6A9E2D30C9502D2E646549 CALLDATASIZE 0xF9 SWAP7 PUSH13 0x37F5208E723166202F23831D0D CALLDATACOPY CALL CALLER DUP4 MUL 0xDD PUSH28 0xC7DEC4DCEEDDA775E58DD541E08A116C6C53815C0BD028192F7B6268 STOP CREATE 0xC5 PUSH31 0x16840DF040F15088DC2F81FE391C3923BEC73E23A9662EFC9C229C6A00A264 PUSH10 0x7066735822122069357E 0xD8 0xAF 0xEA CODECOPY 0xBD 0xC9 ADDRESS 0xEF 0xF7 DUP2 SSTORE 0x4E PUSH32 0xF78001796AA80A8CB059BC8B47C6CE9164736F6C634300081A00330000000000 "},"methodIdentifiers":{"ADMIN_ROLE()":"75b238fc","CONTROLLER_ROLE()":"092c5b3b","DEFAULT_ADMIN_ROLE()":"a217fddf","UPGRADER_ROLE()":"f72c0d8b","UPGRADE_INTERFACE_VERSION()":"ad3cb1cc","addr(bytes32)":"3b3b57de","getRoleAdmin(bytes32)":"248a9ca3","grantRole(bytes32,address)":"2f2ff15d","hasRole(bytes32,address)":"91d14854","initialize(address,address)":"485cc955","name(bytes32)":"691f3431","proxiableUUID()":"52d1902d","registry()":"7b103999","renounceRole(bytes32,address)":"36568abe","revokeRole(bytes32,address)":"d547741f","setAddr(bytes32,address)":"d5fa2b00","setController(address,bool)":"e0dba60f","setName(bytes32,string)":"77372213","supportsInterface(bytes4)":"01ffc9a7","upgradeToAndCall(address,bytes)":"4f1ef286"}},"storageLayout":{"storage":[{"astId":2829,"contract":"contracts/v3/resolver/ArcNSResolver.sol:ArcNSResolver","label":"registry","offset":0,"slot":"0","type":"t_contract(IArcNSRegistry)2348"},{"astId":2836,"contract":"contracts/v3/resolver/ArcNSResolver.sol:ArcNSResolver","label":"_addresses","offset":0,"slot":"1","type":"t_mapping(t_bytes32,t_mapping(t_uint256,t_bytes_storage))"},{"astId":2843,"contract":"contracts/v3/resolver/ArcNSResolver.sol:ArcNSResolver","label":"_texts","offset":0,"slot":"2","type":"t_mapping(t_bytes32,t_mapping(t_string_memory_ptr,t_string_storage))"},{"astId":2848,"contract":"contracts/v3/resolver/ArcNSResolver.sol:ArcNSResolver","label":"_contenthashes","offset":0,"slot":"3","type":"t_mapping(t_bytes32,t_bytes_storage)"},{"astId":2853,"contract":"contracts/v3/resolver/ArcNSResolver.sol:ArcNSResolver","label":"_names","offset":0,"slot":"4","type":"t_mapping(t_bytes32,t_string_storage)"},{"astId":2858,"contract":"contracts/v3/resolver/ArcNSResolver.sol:ArcNSResolver","label":"__gap","offset":0,"slot":"5","type":"t_array(t_uint256)50_storage"}],"types":{"t_array(t_uint256)50_storage":{"base":"t_uint256","encoding":"inplace","label":"uint256[50]","numberOfBytes":"1600"},"t_bytes32":{"encoding":"inplace","label":"bytes32","numberOfBytes":"32"},"t_bytes_storage":{"encoding":"bytes","label":"bytes","numberOfBytes":"32"},"t_contract(IArcNSRegistry)2348":{"encoding":"inplace","label":"contract IArcNSRegistry","numberOfBytes":"20"},"t_mapping(t_bytes32,t_bytes_storage)":{"encoding":"mapping","key":"t_bytes32","label":"mapping(bytes32 => bytes)","numberOfBytes":"32","value":"t_bytes_storage"},"t_mapping(t_bytes32,t_mapping(t_string_memory_ptr,t_string_storage))":{"encoding":"mapping","key":"t_bytes32","label":"mapping(bytes32 => mapping(string => string))","numberOfBytes":"32","value":"t_mapping(t_string_memory_ptr,t_string_storage)"},"t_mapping(t_bytes32,t_mapping(t_uint256,t_bytes_storage))":{"encoding":"mapping","key":"t_bytes32","label":"mapping(bytes32 => mapping(uint256 => bytes))","numberOfBytes":"32","value":"t_mapping(t_uint256,t_bytes_storage)"},"t_mapping(t_bytes32,t_string_storage)":{"encoding":"mapping","key":"t_bytes32","label":"mapping(bytes32 => string)","numberOfBytes":"32","value":"t_string_storage"},"t_mapping(t_string_memory_ptr,t_string_storage)":{"encoding":"mapping","key":"t_string_memory_ptr","label":"mapping(string => string)","numberOfBytes":"32","value":"t_string_storage"},"t_mapping(t_uint256,t_bytes_storage)":{"encoding":"mapping","key":"t_uint256","label":"mapping(uint256 => bytes)","numberOfBytes":"32","value":"t_bytes_storage"},"t_string_memory_ptr":{"encoding":"bytes","label":"string","numberOfBytes":"32"},"t_string_storage":{"encoding":"bytes","label":"string","numberOfBytes":"32"},"t_uint256":{"encoding":"inplace","label":"uint256","numberOfBytes":"32"}}}}}}