{"contracts/v3/registrar/ArcNSReverseRegistrar.sol":{"ArcNSReverseRegistrar":{"abi":[{"inputs":[{"internalType":"contract IArcNSRegistry","name":"registry_","type":"address"},{"internalType":"contract ArcNSResolver","name":"defaultResolver_","type":"address"}],"stateMutability":"nonpayable","type":"constructor"},{"inputs":[],"name":"NotAuthorised","type":"error"},{"inputs":[{"internalType":"address","name":"owner","type":"address"}],"name":"OwnableInvalidOwner","type":"error"},{"inputs":[{"internalType":"address","name":"account","type":"address"}],"name":"OwnableUnauthorizedAccount","type":"error"},{"inputs":[],"name":"ZeroResolver","type":"error"},{"anonymous":false,"inputs":[{"indexed":true,"internalType":"address","name":"resolver","type":"address"}],"name":"DefaultResolverChanged","type":"event"},{"anonymous":false,"inputs":[{"indexed":true,"internalType":"address","name":"previousOwner","type":"address"},{"indexed":true,"internalType":"address","name":"newOwner","type":"address"}],"name":"OwnershipTransferred","type":"event"},{"anonymous":false,"inputs":[{"indexed":true,"internalType":"address","name":"addr","type":"address"},{"indexed":true,"internalType":"bytes32","name":"node","type":"bytes32"}],"name":"ReverseClaimed","type":"event"},{"inputs":[],"name":"ADDR_REVERSE_NODE","outputs":[{"internalType":"bytes32","name":"","type":"bytes32"}],"stateMutability":"view","type":"function"},{"inputs":[{"internalType":"address","name":"addr_","type":"address"},{"internalType":"address","name":"owner_","type":"address"},{"internalType":"address","name":"resolver_","type":"address"}],"name":"claimWithResolver","outputs":[{"internalType":"bytes32","name":"","type":"bytes32"}],"stateMutability":"nonpayable","type":"function"},{"inputs":[],"name":"defaultResolver","outputs":[{"internalType":"contract ArcNSResolver","name":"","type":"address"}],"stateMutability":"view","type":"function"},{"inputs":[{"internalType":"address","name":"addr_","type":"address"}],"name":"node","outputs":[{"internalType":"bytes32","name":"","type":"bytes32"}],"stateMutability":"pure","type":"function"},{"inputs":[],"name":"owner","outputs":[{"internalType":"address","name":"","type":"address"}],"stateMutability":"view","type":"function"},{"inputs":[],"name":"registry","outputs":[{"internalType":"contract IArcNSRegistry","name":"","type":"address"}],"stateMutability":"view","type":"function"},{"inputs":[],"name":"renounceOwnership","outputs":[],"stateMutability":"nonpayable","type":"function"},{"inputs":[{"internalType":"contract ArcNSResolver","name":"resolver_","type":"address"}],"name":"setDefaultResolver","outputs":[],"stateMutability":"nonpayable","type":"function"},{"inputs":[{"internalType":"string","name":"name_","type":"string"}],"name":"setName","outputs":[{"internalType":"bytes32","name":"","type":"bytes32"}],"stateMutability":"nonpayable","type":"function"},{"inputs":[{"internalType":"address","name":"addr_","type":"address"},{"internalType":"string","name":"name_","type":"string"}],"name":"setReverseRecord","outputs":[],"stateMutability":"nonpayable","type":"function"},{"inputs":[{"internalType":"address","name":"newOwner","type":"address"}],"name":"transferOwnership","outputs":[],"stateMutability":"nonpayable","type":"function"}],"evm":{"bytecode":{"linkReferences":{},"object":"60a03461010f57601f61094638819003918201601f19168301916001600160401b0383118484101761011357808492604094855283398101031261010f578051906001600160a01b038216820361010f57602001516001600160a01b0381169081900361010f5733156100fc575f8054336001600160a01b0319821681178355604051949290916001600160a01b0316907f8be0079c531659141344cd1fd0a4f28419497f9722a3daafe3b4186f6b6457e09080a381156100ed57608052600180546001600160a01b03191691909117905561081e90816101288239608051818181610369015261061f0152f35b6309e7fc4760e01b5f5260045ffd5b631e4fbdf760e01b5f525f60045260245ffd5b5f80fd5b634e487b7160e01b5f52604160045260245ffdfe60806040526004361015610011575f80fd5b5f803560e01c80632d7ddf361461044957806353ab335d146103f2578063715018a6146103985780637b103999146103535780637cf8a2eb1461032b578063828eab0e146103025780638da5cb5b146102db578063bffbe61c14610281578063c47f00271461019c578063c66485b21461011b5763f2fde38b14610093575f80fd5b34610118576020366003190112610118576100ac610539565b6100b46106bd565b6001600160a01b031680156101045781546001600160a01b03198116821783556001600160a01b03167f8be0079c531659141344cd1fd0a4f28419497f9722a3daafe3b4186f6b6457e08380a380f35b631e4fbdf760e01b82526004829052602482fd5b80fd5b5034610118576020366003190112610118576004356001600160a01b038116908190036101985761014a6106bd565b801561018957600180546001600160a01b031916821790557feae17a84d9eb83d8c8eb317f9e7d64857bc363fa51674d996c023f4340c577cf8280a280f35b6309e7fc4760e01b8252600482fd5b5080fd5b50346101185760203660031901126101185760043567ffffffffffffffff8111610198576101ce90369060040161054f565b90826101e560018060a01b036001541633336105e0565b6001549093906001600160a01b0316803b1561027d5761021d9383604051809681958294637737221360e01b84528a600485016105b3565b03925af180156102725761025d575b6040516020908380337f6ada868dd3058cf77a48a74489fd7963688e5464b2b0fa957ace976243270e928880a38152f35b61026883809261057d565b610198575f61022c565b6040513d85823e3d90fd5b8280fd5b50346101185760203660031901126101185760206102a56102a0610539565b6106e3565b604051828101915f805160206107c983398151915283526040820152604081526102d060608261057d565b519020604051908152f35b5034610118578060031936011261011857546040516001600160a01b039091168152602090f35b50346101185780600319360112610118576001546040516001600160a01b039091168152602090f35b503461011857806003193601126101185760206040515f805160206107c98339815191528152f35b50346101185780600319360112610118576040517f00000000000000000000000000000000000000000000000000000000000000006001600160a01b03168152602090f35b50346101185780600319360112610118576103b16106bd565b80546001600160a01b03198116825581906001600160a01b03167f8be0079c531659141344cd1fd0a4f28419497f9722a3daafe3b4186f6b6457e08280a380f35b50346101185760603660031901126101185761040c610539565b602435906001600160a01b038216820361027d57604435926001600160a01b03841684036101185760206104418585856105e0565b604051908152f35b503461053557604036600319011261053557610463610539565b60243567ffffffffffffffff81116105355761048390369060040161054f565b60015491929161049d906001600160a01b031683806105e0565b9260018060a01b036001541691823b15610535576104d5925f9283604051809681958294637737221360e01b84528b600485016105b3565b03925af1801561052a57610515575b506001600160a01b03167f6ada868dd3058cf77a48a74489fd7963688e5464b2b0fa957ace976243270e928380a380f35b6105229193505f9061057d565b5f915f6104e4565b6040513d5f823e3d90fd5b5f80fd5b600435906001600160a01b038216820361053557565b9181601f840112156105355782359167ffffffffffffffff8311610535576020838186019501011161053557565b90601f8019910116810190811067ffffffffffffffff82111761059f57604052565b634e487b7160e01b5f52604160045260245ffd5b91926060938192845260406020850152816040850152848401375f828201840152601f01601f1916010190565b6105ec909291926106e3565b60405160208101905f805160206107c983398151915282528260408201526040815261061960608261057d565b519020927f00000000000000000000000000000000000000000000000000000000000000006001600160a01b0316803b15610535576040516305ef2c7f60e41b81525f805160206107c9833981519152600482015260248101939093526001600160a01b039182166044840152921660648201525f608482018190529091829060a490829084905af1801561052a576106b0575090565b5f6106ba9161057d565b90565b5f546001600160a01b031633036106d057565b63118cdaa760e01b5f523360045260245ffd5b6040516106f160608261057d565b60288152602081019160403684376040519061070e60408361057d565b601082526f181899199a1a9b1b9c1cb0b131b232b360811b60208301526027906001600160a01b03165b5f8212156107495750505051902090565b6001600160f81b031961075f600f8316856107a3565b51165f1a61076d83866107a3565b5360041c60016001609c1b031690600160ff1b811461078f575f190190610738565b634e487b7160e01b5f52601160045260245ffd5b9081518110156107b4570160200190565b634e487b7160e01b5f52603260045260245ffdfe91d1777781884d03a6757a803996e38de2a42967fb37eeaca72729271025a9e2a26469706673582212207c476ff2ea63d27a554dca38e9c77f08bac5d3724ee877de6e0e72d6c76238fe64736f6c634300081a0033","opcodes":"PUSH1 0xA0 CALLVALUE PUSH2 0x10F JUMPI PUSH1 0x1F PUSH2 0x946 CODESIZE DUP2 SWAP1 SUB SWAP2 DUP3 ADD PUSH1 0x1F NOT AND DUP4 ADD SWAP2 PUSH1 0x1 PUSH1 0x1 PUSH1 0x40 SHL SUB DUP4 GT DUP5 DUP5 LT OR PUSH2 0x113 JUMPI DUP1 DUP5 SWAP3 PUSH1 0x40 SWAP5 DUP6 MSTORE DUP4 CODECOPY DUP2 ADD SUB SLT PUSH2 0x10F JUMPI DUP1 MLOAD SWAP1 PUSH1 0x1 PUSH1 0x1 PUSH1 0xA0 SHL SUB DUP3 AND DUP3 SUB PUSH2 0x10F JUMPI PUSH1 0x20 ADD MLOAD PUSH1 0x1 PUSH1 0x1 PUSH1 0xA0 SHL SUB DUP2 AND SWAP1 DUP2 SWAP1 SUB PUSH2 0x10F JUMPI CALLER ISZERO PUSH2 0xFC JUMPI PUSH0 DUP1 SLOAD CALLER PUSH1 0x1 PUSH1 0x1 PUSH1 0xA0 SHL SUB NOT DUP3 AND DUP2 OR DUP4 SSTORE PUSH1 0x40 MLOAD SWAP5 SWAP3 SWAP1 SWAP2 PUSH1 0x1 PUSH1 0x1 PUSH1 0xA0 SHL SUB AND SWAP1 PUSH32 0x8BE0079C531659141344CD1FD0A4F28419497F9722A3DAAFE3B4186F6B6457E0 SWAP1 DUP1 LOG3 DUP2 ISZERO PUSH2 0xED JUMPI PUSH1 0x80 MSTORE PUSH1 0x1 DUP1 SLOAD PUSH1 0x1 PUSH1 0x1 PUSH1 0xA0 SHL SUB NOT AND SWAP2 SWAP1 SWAP2 OR SWAP1 SSTORE PUSH2 0x81E SWAP1 DUP2 PUSH2 0x128 DUP3 CODECOPY PUSH1 0x80 MLOAD DUP2 DUP2 DUP2 PUSH2 0x369 ADD MSTORE PUSH2 0x61F ADD MSTORE RETURN JUMPDEST PUSH4 0x9E7FC47 PUSH1 0xE0 SHL PUSH0 MSTORE PUSH1 0x4 PUSH0 REVERT JUMPDEST PUSH4 0x1E4FBDF7 PUSH1 0xE0 SHL PUSH0 MSTORE PUSH0 PUSH1 0x4 MSTORE PUSH1 0x24 PUSH0 REVERT JUMPDEST PUSH0 DUP1 REVERT JUMPDEST PUSH4 0x4E487B71 PUSH1 0xE0 SHL PUSH0 MSTORE PUSH1 0x41 PUSH1 0x4 MSTORE PUSH1 0x24 PUSH0 REVERT INVALID PUSH1 0x80 PUSH1 0x40 MSTORE PUSH1 0x4 CALLDATASIZE LT ISZERO PUSH2 0x11 JUMPI PUSH0 DUP1 REVERT JUMPDEST PUSH0 DUP1 CALLDATALOAD PUSH1 0xE0 SHR DUP1 PUSH4 0x2D7DDF36 EQ PUSH2 0x449 JUMPI DUP1 PUSH4 0x53AB335D EQ PUSH2 0x3F2 JUMPI DUP1 PUSH4 0x715018A6 EQ PUSH2 0x398 JUMPI DUP1 PUSH4 0x7B103999 EQ PUSH2 0x353 JUMPI DUP1 PUSH4 0x7CF8A2EB EQ PUSH2 0x32B JUMPI DUP1 PUSH4 0x828EAB0E EQ PUSH2 0x302 JUMPI DUP1 PUSH4 0x8DA5CB5B EQ PUSH2 0x2DB JUMPI DUP1 PUSH4 0xBFFBE61C EQ PUSH2 0x281 JUMPI DUP1 PUSH4 0xC47F0027 EQ PUSH2 0x19C JUMPI DUP1 PUSH4 0xC66485B2 EQ PUSH2 0x11B JUMPI PUSH4 0xF2FDE38B EQ PUSH2 0x93 JUMPI PUSH0 DUP1 REVERT JUMPDEST CALLVALUE PUSH2 0x118 JUMPI PUSH1 0x20 CALLDATASIZE PUSH1 0x3 NOT ADD SLT PUSH2 0x118 JUMPI PUSH2 0xAC PUSH2 0x539 JUMP JUMPDEST PUSH2 0xB4 PUSH2 0x6BD JUMP JUMPDEST PUSH1 0x1 PUSH1 0x1 PUSH1 0xA0 SHL SUB AND DUP1 ISZERO PUSH2 0x104 JUMPI DUP2 SLOAD PUSH1 0x1 PUSH1 0x1 PUSH1 0xA0 SHL SUB NOT DUP2 AND DUP3 OR DUP4 SSTORE PUSH1 0x1 PUSH1 0x1 PUSH1 0xA0 SHL SUB AND PUSH32 0x8BE0079C531659141344CD1FD0A4F28419497F9722A3DAAFE3B4186F6B6457E0 DUP4 DUP1 LOG3 DUP1 RETURN JUMPDEST PUSH4 0x1E4FBDF7 PUSH1 0xE0 SHL DUP3 MSTORE PUSH1 0x4 DUP3 SWAP1 MSTORE PUSH1 0x24 DUP3 REVERT JUMPDEST DUP1 REVERT JUMPDEST POP CALLVALUE PUSH2 0x118 JUMPI PUSH1 0x20 CALLDATASIZE PUSH1 0x3 NOT ADD SLT PUSH2 0x118 JUMPI PUSH1 0x4 CALLDATALOAD PUSH1 0x1 PUSH1 0x1 PUSH1 0xA0 SHL SUB DUP2 AND SWAP1 DUP2 SWAP1 SUB PUSH2 0x198 JUMPI PUSH2 0x14A PUSH2 0x6BD JUMP JUMPDEST DUP1 ISZERO PUSH2 0x189 JUMPI PUSH1 0x1 DUP1 SLOAD PUSH1 0x1 PUSH1 0x1 PUSH1 0xA0 SHL SUB NOT AND DUP3 OR SWAP1 SSTORE PUSH32 0xEAE17A84D9EB83D8C8EB317F9E7D64857BC363FA51674D996C023F4340C577CF DUP3 DUP1 LOG2 DUP1 RETURN JUMPDEST PUSH4 0x9E7FC47 PUSH1 0xE0 SHL DUP3 MSTORE PUSH1 0x4 DUP3 REVERT JUMPDEST POP DUP1 REVERT JUMPDEST POP CALLVALUE PUSH2 0x118 JUMPI PUSH1 0x20 CALLDATASIZE PUSH1 0x3 NOT ADD SLT PUSH2 0x118 JUMPI PUSH1 0x4 CALLDATALOAD PUSH8 0xFFFFFFFFFFFFFFFF DUP2 GT PUSH2 0x198 JUMPI PUSH2 0x1CE SWAP1 CALLDATASIZE SWAP1 PUSH1 0x4 ADD PUSH2 0x54F JUMP JUMPDEST SWAP1 DUP3 PUSH2 0x1E5 PUSH1 0x1 DUP1 PUSH1 0xA0 SHL SUB PUSH1 0x1 SLOAD AND CALLER CALLER PUSH2 0x5E0 JUMP JUMPDEST PUSH1 0x1 SLOAD SWAP1 SWAP4 SWAP1 PUSH1 0x1 PUSH1 0x1 PUSH1 0xA0 SHL SUB AND DUP1 EXTCODESIZE ISZERO PUSH2 0x27D JUMPI PUSH2 0x21D SWAP4 DUP4 PUSH1 0x40 MLOAD DUP1 SWAP7 DUP2 SWAP6 DUP3 SWAP5 PUSH4 0x77372213 PUSH1 0xE0 SHL DUP5 MSTORE DUP11 PUSH1 0x4 DUP6 ADD PUSH2 0x5B3 JUMP JUMPDEST SUB SWAP3 GAS CALL DUP1 ISZERO PUSH2 0x272 JUMPI PUSH2 0x25D JUMPI JUMPDEST PUSH1 0x40 MLOAD PUSH1 0x20 SWAP1 DUP4 DUP1 CALLER PUSH32 0x6ADA868DD3058CF77A48A74489FD7963688E5464B2B0FA957ACE976243270E92 DUP9 DUP1 LOG3 DUP2 MSTORE RETURN JUMPDEST PUSH2 0x268 DUP4 DUP1 SWAP3 PUSH2 0x57D JUMP JUMPDEST PUSH2 0x198 JUMPI PUSH0 PUSH2 0x22C JUMP JUMPDEST PUSH1 0x40 MLOAD RETURNDATASIZE DUP6 DUP3 RETURNDATACOPY RETURNDATASIZE SWAP1 REVERT JUMPDEST DUP3 DUP1 REVERT JUMPDEST POP CALLVALUE PUSH2 0x118 JUMPI PUSH1 0x20 CALLDATASIZE PUSH1 0x3 NOT ADD SLT PUSH2 0x118 JUMPI PUSH1 0x20 PUSH2 0x2A5 PUSH2 0x2A0 PUSH2 0x539 JUMP JUMPDEST PUSH2 0x6E3 JUMP JUMPDEST PUSH1 0x40 MLOAD DUP3 DUP2 ADD SWAP2 PUSH0 DUP1 MLOAD PUSH1 0x20 PUSH2 0x7C9 DUP4 CODECOPY DUP2 MLOAD SWAP2 MSTORE DUP4 MSTORE PUSH1 0x40 DUP3 ADD MSTORE PUSH1 0x40 DUP2 MSTORE PUSH2 0x2D0 PUSH1 0x60 DUP3 PUSH2 0x57D JUMP JUMPDEST MLOAD SWAP1 KECCAK256 PUSH1 0x40 MLOAD SWAP1 DUP2 MSTORE RETURN JUMPDEST POP CALLVALUE PUSH2 0x118 JUMPI DUP1 PUSH1 0x3 NOT CALLDATASIZE ADD SLT PUSH2 0x118 JUMPI SLOAD PUSH1 0x40 MLOAD PUSH1 0x1 PUSH1 0x1 PUSH1 0xA0 SHL SUB SWAP1 SWAP2 AND DUP2 MSTORE PUSH1 0x20 SWAP1 RETURN JUMPDEST POP CALLVALUE PUSH2 0x118 JUMPI DUP1 PUSH1 0x3 NOT CALLDATASIZE ADD SLT PUSH2 0x118 JUMPI PUSH1 0x1 SLOAD PUSH1 0x40 MLOAD PUSH1 0x1 PUSH1 0x1 PUSH1 0xA0 SHL SUB SWAP1 SWAP2 AND DUP2 MSTORE PUSH1 0x20 SWAP1 RETURN JUMPDEST POP CALLVALUE PUSH2 0x118 JUMPI DUP1 PUSH1 0x3 NOT CALLDATASIZE ADD SLT PUSH2 0x118 JUMPI PUSH1 0x20 PUSH1 0x40 MLOAD PUSH0 DUP1 MLOAD PUSH1 0x20 PUSH2 0x7C9 DUP4 CODECOPY DUP2 MLOAD SWAP2 MSTORE DUP2 MSTORE RETURN JUMPDEST POP CALLVALUE PUSH2 0x118 JUMPI DUP1 PUSH1 0x3 NOT CALLDATASIZE ADD SLT PUSH2 0x118 JUMPI PUSH1 0x40 MLOAD PUSH32 0x0 PUSH1 0x1 PUSH1 0x1 PUSH1 0xA0 SHL SUB AND DUP2 MSTORE PUSH1 0x20 SWAP1 RETURN JUMPDEST POP CALLVALUE PUSH2 0x118 JUMPI DUP1 PUSH1 0x3 NOT CALLDATASIZE ADD SLT PUSH2 0x118 JUMPI PUSH2 0x3B1 PUSH2 0x6BD JUMP JUMPDEST DUP1 SLOAD PUSH1 0x1 PUSH1 0x1 PUSH1 0xA0 SHL SUB NOT DUP2 AND DUP3 SSTORE DUP2 SWAP1 PUSH1 0x1 PUSH1 0x1 PUSH1 0xA0 SHL SUB AND PUSH32 0x8BE0079C531659141344CD1FD0A4F28419497F9722A3DAAFE3B4186F6B6457E0 DUP3 DUP1 LOG3 DUP1 RETURN JUMPDEST POP CALLVALUE PUSH2 0x118 JUMPI PUSH1 0x60 CALLDATASIZE PUSH1 0x3 NOT ADD SLT PUSH2 0x118 JUMPI PUSH2 0x40C PUSH2 0x539 JUMP JUMPDEST PUSH1 0x24 CALLDATALOAD SWAP1 PUSH1 0x1 PUSH1 0x1 PUSH1 0xA0 SHL SUB DUP3 AND DUP3 SUB PUSH2 0x27D JUMPI PUSH1 0x44 CALLDATALOAD SWAP3 PUSH1 0x1 PUSH1 0x1 PUSH1 0xA0 SHL SUB DUP5 AND DUP5 SUB PUSH2 0x118 JUMPI PUSH1 0x20 PUSH2 0x441 DUP6 DUP6 DUP6 PUSH2 0x5E0 JUMP JUMPDEST PUSH1 0x40 MLOAD SWAP1 DUP2 MSTORE RETURN JUMPDEST POP CALLVALUE PUSH2 0x535 JUMPI PUSH1 0x40 CALLDATASIZE PUSH1 0x3 NOT ADD SLT PUSH2 0x535 JUMPI PUSH2 0x463 PUSH2 0x539 JUMP JUMPDEST PUSH1 0x24 CALLDATALOAD PUSH8 0xFFFFFFFFFFFFFFFF DUP2 GT PUSH2 0x535 JUMPI PUSH2 0x483 SWAP1 CALLDATASIZE SWAP1 PUSH1 0x4 ADD PUSH2 0x54F JUMP JUMPDEST PUSH1 0x1 SLOAD SWAP2 SWAP3 SWAP2 PUSH2 0x49D SWAP1 PUSH1 0x1 PUSH1 0x1 PUSH1 0xA0 SHL SUB AND DUP4 DUP1 PUSH2 0x5E0 JUMP JUMPDEST SWAP3 PUSH1 0x1 DUP1 PUSH1 0xA0 SHL SUB PUSH1 0x1 SLOAD AND SWAP2 DUP3 EXTCODESIZE ISZERO PUSH2 0x535 JUMPI PUSH2 0x4D5 SWAP3 PUSH0 SWAP3 DUP4 PUSH1 0x40 MLOAD DUP1 SWAP7 DUP2 SWAP6 DUP3 SWAP5 PUSH4 0x77372213 PUSH1 0xE0 SHL DUP5 MSTORE DUP12 PUSH1 0x4 DUP6 ADD PUSH2 0x5B3 JUMP JUMPDEST SUB SWAP3 GAS CALL DUP1 ISZERO PUSH2 0x52A JUMPI PUSH2 0x515 JUMPI JUMPDEST POP PUSH1 0x1 PUSH1 0x1 PUSH1 0xA0 SHL SUB AND PUSH32 0x6ADA868DD3058CF77A48A74489FD7963688E5464B2B0FA957ACE976243270E92 DUP4 DUP1 LOG3 DUP1 RETURN JUMPDEST PUSH2 0x522 SWAP2 SWAP4 POP PUSH0 SWAP1 PUSH2 0x57D JUMP JUMPDEST PUSH0 SWAP2 PUSH0 PUSH2 0x4E4 JUMP JUMPDEST PUSH1 0x40 MLOAD RETURNDATASIZE PUSH0 DUP3 RETURNDATACOPY RETURNDATASIZE SWAP1 REVERT JUMPDEST PUSH0 DUP1 REVERT JUMPDEST PUSH1 0x4 CALLDATALOAD SWAP1 PUSH1 0x1 PUSH1 0x1 PUSH1 0xA0 SHL SUB DUP3 AND DUP3 SUB PUSH2 0x535 JUMPI JUMP JUMPDEST SWAP2 DUP2 PUSH1 0x1F DUP5 ADD SLT ISZERO PUSH2 0x535 JUMPI DUP3 CALLDATALOAD SWAP2 PUSH8 0xFFFFFFFFFFFFFFFF DUP4 GT PUSH2 0x535 JUMPI PUSH1 0x20 DUP4 DUP2 DUP7 ADD SWAP6 ADD ADD GT PUSH2 0x535 JUMPI JUMP JUMPDEST SWAP1 PUSH1 0x1F DUP1 NOT SWAP2 ADD AND DUP2 ADD SWAP1 DUP2 LT PUSH8 0xFFFFFFFFFFFFFFFF DUP3 GT OR PUSH2 0x59F JUMPI PUSH1 0x40 MSTORE JUMP JUMPDEST PUSH4 0x4E487B71 PUSH1 0xE0 SHL PUSH0 MSTORE PUSH1 0x41 PUSH1 0x4 MSTORE PUSH1 0x24 PUSH0 REVERT JUMPDEST SWAP2 SWAP3 PUSH1 0x60 SWAP4 DUP2 SWAP3 DUP5 MSTORE PUSH1 0x40 PUSH1 0x20 DUP6 ADD MSTORE DUP2 PUSH1 0x40 DUP6 ADD MSTORE DUP5 DUP5 ADD CALLDATACOPY PUSH0 DUP3 DUP3 ADD DUP5 ADD MSTORE PUSH1 0x1F ADD PUSH1 0x1F NOT AND ADD ADD SWAP1 JUMP JUMPDEST PUSH2 0x5EC SWAP1 SWAP3 SWAP2 SWAP3 PUSH2 0x6E3 JUMP JUMPDEST PUSH1 0x40 MLOAD PUSH1 0x20 DUP2 ADD SWAP1 PUSH0 DUP1 MLOAD PUSH1 0x20 PUSH2 0x7C9 DUP4 CODECOPY DUP2 MLOAD SWAP2 MSTORE DUP3 MSTORE DUP3 PUSH1 0x40 DUP3 ADD MSTORE PUSH1 0x40 DUP2 MSTORE PUSH2 0x619 PUSH1 0x60 DUP3 PUSH2 0x57D JUMP JUMPDEST MLOAD SWAP1 KECCAK256 SWAP3 PUSH32 0x0 PUSH1 0x1 PUSH1 0x1 PUSH1 0xA0 SHL SUB AND DUP1 EXTCODESIZE ISZERO PUSH2 0x535 JUMPI PUSH1 0x40 MLOAD PUSH4 0x5EF2C7F PUSH1 0xE4 SHL DUP2 MSTORE PUSH0 DUP1 MLOAD PUSH1 0x20 PUSH2 0x7C9 DUP4 CODECOPY DUP2 MLOAD SWAP2 MSTORE PUSH1 0x4 DUP3 ADD MSTORE PUSH1 0x24 DUP2 ADD SWAP4 SWAP1 SWAP4 MSTORE PUSH1 0x1 PUSH1 0x1 PUSH1 0xA0 SHL SUB SWAP2 DUP3 AND PUSH1 0x44 DUP5 ADD MSTORE SWAP3 AND PUSH1 0x64 DUP3 ADD MSTORE PUSH0 PUSH1 0x84 DUP3 ADD DUP2 SWAP1 MSTORE SWAP1 SWAP2 DUP3 SWAP1 PUSH1 0xA4 SWAP1 DUP3 SWAP1 DUP5 SWAP1 GAS CALL DUP1 ISZERO PUSH2 0x52A JUMPI PUSH2 0x6B0 JUMPI POP SWAP1 JUMP JUMPDEST PUSH0 PUSH2 0x6BA SWAP2 PUSH2 0x57D JUMP JUMPDEST SWAP1 JUMP JUMPDEST PUSH0 SLOAD PUSH1 0x1 PUSH1 0x1 PUSH1 0xA0 SHL SUB AND CALLER SUB PUSH2 0x6D0 JUMPI JUMP JUMPDEST PUSH4 0x118CDAA7 PUSH1 0xE0 SHL PUSH0 MSTORE CALLER PUSH1 0x4 MSTORE PUSH1 0x24 PUSH0 REVERT JUMPDEST PUSH1 0x40 MLOAD PUSH2 0x6F1 PUSH1 0x60 DUP3 PUSH2 0x57D JUMP JUMPDEST PUSH1 0x28 DUP2 MSTORE PUSH1 0x20 DUP2 ADD SWAP2 PUSH1 0x40 CALLDATASIZE DUP5 CALLDATACOPY PUSH1 0x40 MLOAD SWAP1 PUSH2 0x70E PUSH1 0x40 DUP4 PUSH2 0x57D JUMP JUMPDEST PUSH1 0x10 DUP3 MSTORE PUSH16 0x181899199A1A9B1B9C1CB0B131B232B3 PUSH1 0x81 SHL PUSH1 0x20 DUP4 ADD MSTORE PUSH1 0x27 SWAP1 PUSH1 0x1 PUSH1 0x1 PUSH1 0xA0 SHL SUB AND JUMPDEST PUSH0 DUP3 SLT ISZERO PUSH2 0x749 JUMPI POP POP POP MLOAD SWAP1 KECCAK256 SWAP1 JUMP JUMPDEST PUSH1 0x1 PUSH1 0x1 PUSH1 0xF8 SHL SUB NOT PUSH2 0x75F PUSH1 0xF DUP4 AND DUP6 PUSH2 0x7A3 JUMP JUMPDEST MLOAD AND PUSH0 BYTE PUSH2 0x76D DUP4 DUP7 PUSH2 0x7A3 JUMP JUMPDEST MSTORE8 PUSH1 0x4 SHR PUSH1 0x1 PUSH1 0x1 PUSH1 0x9C SHL SUB AND SWAP1 PUSH1 0x1 PUSH1 0xFF SHL DUP2 EQ PUSH2 0x78F JUMPI PUSH0 NOT ADD SWAP1 PUSH2 0x738 JUMP JUMPDEST PUSH4 0x4E487B71 PUSH1 0xE0 SHL PUSH0 MSTORE PUSH1 0x11 PUSH1 0x4 MSTORE PUSH1 0x24 PUSH0 REVERT JUMPDEST SWAP1 DUP2 MLOAD DUP2 LT ISZERO PUSH2 0x7B4 JUMPI ADD PUSH1 0x20 ADD SWAP1 JUMP JUMPDEST PUSH4 0x4E487B71 PUSH1 0xE0 SHL PUSH0 MSTORE PUSH1 0x32 PUSH1 0x4 MSTORE PUSH1 0x24 PUSH0 REVERT INVALID SWAP2 0xD1 PUSH24 0x7781884D03A6757A803996E38DE2A42967FB37EEACA72729 0x27 LT 0x25 0xA9 0xE2 LOG2 PUSH5 0x6970667358 0x22 SLT KECCAK256 PUSH29 0x476FF2EA63D27A554DCA38E9C77F08BAC5D3724EE877DE6E0E72D6C762 CODESIZE INVALID PUSH5 0x736F6C6343 STOP ADDMOD BYTE STOP CALLER "},"methodIdentifiers":{"ADDR_REVERSE_NODE()":"7cf8a2eb","claimWithResolver(address,address,address)":"53ab335d","defaultResolver()":"828eab0e","node(address)":"bffbe61c","owner()":"8da5cb5b","registry()":"7b103999","renounceOwnership()":"715018a6","setDefaultResolver(address)":"c66485b2","setName(string)":"c47f0027","setReverseRecord(address,string)":"2d7ddf36","transferOwnership(address)":"f2fde38b"}},"storageLayout":{"storage":[{"astId":548,"contract":"contracts/v3/registrar/ArcNSReverseRegistrar.sol:ArcNSReverseRegistrar","label":"_owner","offset":0,"slot":"0","type":"t_address"},{"astId":2477,"contract":"contracts/v3/registrar/ArcNSReverseRegistrar.sol:ArcNSReverseRegistrar","label":"defaultResolver","offset":0,"slot":"1","type":"t_contract(ArcNSResolver)3143"}],"types":{"t_address":{"encoding":"inplace","label":"address","numberOfBytes":"20"},"t_contract(ArcNSResolver)3143":{"encoding":"inplace","label":"contract ArcNSResolver","numberOfBytes":"20"}}}}}}