{
  "_format": "hh-sol-artifact-1",
  "contractName": "ArcNSPriceOracleV2",
  "sourceName": "contracts/registrar/ArcNSPriceOracleV2.sol",
  "abi": [
    {
      "inputs": [],
      "stateMutability": "nonpayable",
      "type": "constructor"
    },
    {
      "inputs": [],
      "name": "AccessControlBadConfirmation",
      "type": "error"
    },
    {
      "inputs": [
        {
          "internalType": "address",
          "name": "account",
          "type": "address"
        },
        {
          "internalType": "bytes32",
          "name": "neededRole",
          "type": "bytes32"
        }
      ],
      "name": "AccessControlUnauthorizedAccount",
      "type": "error"
    },
    {
      "inputs": [
        {
          "internalType": "address",
          "name": "target",
          "type": "address"
        }
      ],
      "name": "AddressEmptyCode",
      "type": "error"
    },
    {
      "inputs": [
        {
          "internalType": "address",
          "name": "implementation",
          "type": "address"
        }
      ],
      "name": "ERC1967InvalidImplementation",
      "type": "error"
    },
    {
      "inputs": [],
      "name": "ERC1967NonPayable",
      "type": "error"
    },
    {
      "inputs": [],
      "name": "FailedCall",
      "type": "error"
    },
    {
      "inputs": [],
      "name": "InvalidInitialization",
      "type": "error"
    },
    {
      "inputs": [],
      "name": "NotInitializing",
      "type": "error"
    },
    {
      "inputs": [],
      "name": "UUPSUnauthorizedCallContext",
      "type": "error"
    },
    {
      "inputs": [
        {
          "internalType": "bytes32",
          "name": "slot",
          "type": "bytes32"
        }
      ],
      "name": "UUPSUnsupportedProxiableUUID",
      "type": "error"
    },
    {
      "anonymous": false,
      "inputs": [
        {
          "indexed": false,
          "internalType": "uint64",
          "name": "version",
          "type": "uint64"
        }
      ],
      "name": "Initialized",
      "type": "event"
    },
    {
      "anonymous": false,
      "inputs": [
        {
          "indexed": false,
          "internalType": "uint256",
          "name": "p1",
          "type": "uint256"
        },
        {
          "indexed": false,
          "internalType": "uint256",
          "name": "p2",
          "type": "uint256"
        },
        {
          "indexed": false,
          "internalType": "uint256",
          "name": "p3",
          "type": "uint256"
        },
        {
          "indexed": false,
          "internalType": "uint256",
          "name": "p4",
          "type": "uint256"
        },
        {
          "indexed": false,
          "internalType": "uint256",
          "name": "p5",
          "type": "uint256"
        }
      ],
      "name": "PricesUpdated",
      "type": "event"
    },
    {
      "anonymous": false,
      "inputs": [
        {
          "indexed": true,
          "internalType": "bytes32",
          "name": "role",
          "type": "bytes32"
        },
        {
          "indexed": true,
          "internalType": "bytes32",
          "name": "previousAdminRole",
          "type": "bytes32"
        },
        {
          "indexed": true,
          "internalType": "bytes32",
          "name": "newAdminRole",
          "type": "bytes32"
        }
      ],
      "name": "RoleAdminChanged",
      "type": "event"
    },
    {
      "anonymous": false,
      "inputs": [
        {
          "indexed": true,
          "internalType": "bytes32",
          "name": "role",
          "type": "bytes32"
        },
        {
          "indexed": true,
          "internalType": "address",
          "name": "account",
          "type": "address"
        },
        {
          "indexed": true,
          "internalType": "address",
          "name": "sender",
          "type": "address"
        }
      ],
      "name": "RoleGranted",
      "type": "event"
    },
    {
      "anonymous": false,
      "inputs": [
        {
          "indexed": true,
          "internalType": "bytes32",
          "name": "role",
          "type": "bytes32"
        },
        {
          "indexed": true,
          "internalType": "address",
          "name": "account",
          "type": "address"
        },
        {
          "indexed": true,
          "internalType": "address",
          "name": "sender",
          "type": "address"
        }
      ],
      "name": "RoleRevoked",
      "type": "event"
    },
    {
      "anonymous": false,
      "inputs": [
        {
          "indexed": true,
          "internalType": "address",
          "name": "implementation",
          "type": "address"
        }
      ],
      "name": "Upgraded",
      "type": "event"
    },
    {
      "inputs": [],
      "name": "ADMIN_ROLE",
      "outputs": [
        {
          "internalType": "bytes32",
          "name": "",
          "type": "bytes32"
        }
      ],
      "stateMutability": "view",
      "type": "function"
    },
    {
      "inputs": [],
      "name": "DEFAULT_ADMIN_ROLE",
      "outputs": [
        {
          "internalType": "bytes32",
          "name": "",
          "type": "bytes32"
        }
      ],
      "stateMutability": "view",
      "type": "function"
    },
    {
      "inputs": [],
      "name": "PREMIUM_DECAY_PERIOD",
      "outputs": [
        {
          "internalType": "uint256",
          "name": "",
          "type": "uint256"
        }
      ],
      "stateMutability": "view",
      "type": "function"
    },
    {
      "inputs": [],
      "name": "PREMIUM_START_PRICE",
      "outputs": [
        {
          "internalType": "uint256",
          "name": "",
          "type": "uint256"
        }
      ],
      "stateMutability": "view",
      "type": "function"
    },
    {
      "inputs": [],
      "name": "UPGRADER_ROLE",
      "outputs": [
        {
          "internalType": "bytes32",
          "name": "",
          "type": "bytes32"
        }
      ],
      "stateMutability": "view",
      "type": "function"
    },
    {
      "inputs": [],
      "name": "UPGRADE_INTERFACE_VERSION",
      "outputs": [
        {
          "internalType": "string",
          "name": "",
          "type": "string"
        }
      ],
      "stateMutability": "view",
      "type": "function"
    },
    {
      "inputs": [
        {
          "internalType": "bytes32",
          "name": "role",
          "type": "bytes32"
        }
      ],
      "name": "getRoleAdmin",
      "outputs": [
        {
          "internalType": "bytes32",
          "name": "",
          "type": "bytes32"
        }
      ],
      "stateMutability": "view",
      "type": "function"
    },
    {
      "inputs": [
        {
          "internalType": "bytes32",
          "name": "role",
          "type": "bytes32"
        },
        {
          "internalType": "address",
          "name": "account",
          "type": "address"
        }
      ],
      "name": "grantRole",
      "outputs": [],
      "stateMutability": "nonpayable",
      "type": "function"
    },
    {
      "inputs": [
        {
          "internalType": "bytes32",
          "name": "role",
          "type": "bytes32"
        },
        {
          "internalType": "address",
          "name": "account",
          "type": "address"
        }
      ],
      "name": "hasRole",
      "outputs": [
        {
          "internalType": "bool",
          "name": "",
          "type": "bool"
        }
      ],
      "stateMutability": "view",
      "type": "function"
    },
    {
      "inputs": [
        {
          "internalType": "address",
          "name": "_admin",
          "type": "address"
        }
      ],
      "name": "initialize",
      "outputs": [],
      "stateMutability": "nonpayable",
      "type": "function"
    },
    {
      "inputs": [
        {
          "internalType": "string",
          "name": "name_",
          "type": "string"
        },
        {
          "internalType": "uint256",
          "name": "expires",
          "type": "uint256"
        },
        {
          "internalType": "uint256",
          "name": "duration",
          "type": "uint256"
        }
      ],
      "name": "price",
      "outputs": [
        {
          "components": [
            {
              "internalType": "uint256",
              "name": "base",
              "type": "uint256"
            },
            {
              "internalType": "uint256",
              "name": "premium",
              "type": "uint256"
            }
          ],
          "internalType": "struct IArcNSPriceOracle.Price",
          "name": "",
          "type": "tuple"
        }
      ],
      "stateMutability": "view",
      "type": "function"
    },
    {
      "inputs": [],
      "name": "price1Char",
      "outputs": [
        {
          "internalType": "uint256",
          "name": "",
          "type": "uint256"
        }
      ],
      "stateMutability": "view",
      "type": "function"
    },
    {
      "inputs": [],
      "name": "price2Char",
      "outputs": [
        {
          "internalType": "uint256",
          "name": "",
          "type": "uint256"
        }
      ],
      "stateMutability": "view",
      "type": "function"
    },
    {
      "inputs": [],
      "name": "price3Char",
      "outputs": [
        {
          "internalType": "uint256",
          "name": "",
          "type": "uint256"
        }
      ],
      "stateMutability": "view",
      "type": "function"
    },
    {
      "inputs": [],
      "name": "price4Char",
      "outputs": [
        {
          "internalType": "uint256",
          "name": "",
          "type": "uint256"
        }
      ],
      "stateMutability": "view",
      "type": "function"
    },
    {
      "inputs": [],
      "name": "price5Plus",
      "outputs": [
        {
          "internalType": "uint256",
          "name": "",
          "type": "uint256"
        }
      ],
      "stateMutability": "view",
      "type": "function"
    },
    {
      "inputs": [],
      "name": "proxiableUUID",
      "outputs": [
        {
          "internalType": "bytes32",
          "name": "",
          "type": "bytes32"
        }
      ],
      "stateMutability": "view",
      "type": "function"
    },
    {
      "inputs": [
        {
          "internalType": "bytes32",
          "name": "role",
          "type": "bytes32"
        },
        {
          "internalType": "address",
          "name": "callerConfirmation",
          "type": "address"
        }
      ],
      "name": "renounceRole",
      "outputs": [],
      "stateMutability": "nonpayable",
      "type": "function"
    },
    {
      "inputs": [
        {
          "internalType": "bytes32",
          "name": "role",
          "type": "bytes32"
        },
        {
          "internalType": "address",
          "name": "account",
          "type": "address"
        }
      ],
      "name": "revokeRole",
      "outputs": [],
      "stateMutability": "nonpayable",
      "type": "function"
    },
    {
      "inputs": [
        {
          "internalType": "uint256",
          "name": "p1",
          "type": "uint256"
        },
        {
          "internalType": "uint256",
          "name": "p2",
          "type": "uint256"
        },
        {
          "internalType": "uint256",
          "name": "p3",
          "type": "uint256"
        },
        {
          "internalType": "uint256",
          "name": "p4",
          "type": "uint256"
        },
        {
          "internalType": "uint256",
          "name": "p5",
          "type": "uint256"
        }
      ],
      "name": "setPrices",
      "outputs": [],
      "stateMutability": "nonpayable",
      "type": "function"
    },
    {
      "inputs": [
        {
          "internalType": "bytes4",
          "name": "interfaceID",
          "type": "bytes4"
        }
      ],
      "name": "supportsInterface",
      "outputs": [
        {
          "internalType": "bool",
          "name": "",
          "type": "bool"
        }
      ],
      "stateMutability": "view",
      "type": "function"
    },
    {
      "inputs": [
        {
          "internalType": "address",
          "name": "newImplementation",
          "type": "address"
        },
        {
          "internalType": "bytes",
          "name": "data",
          "type": "bytes"
        }
      ],
      "name": "upgradeToAndCall",
      "outputs": [],
      "stateMutability": "payable",
      "type": "function"
    }
  ],
  "bytecode": "0x60a080604052346100e857306080527ff0c57e16840df040f15088dc2f81fe391c3923bec73e23a9662efc9c229c6a005460ff8160401c166100d9576002600160401b03196001600160401b03821601610073575b60405161111b90816100ed82396080518181816105d2015261083d0152f35b6001600160401b0319166001600160401b039081177ff0c57e16840df040f15088dc2f81fe391c3923bec73e23a9662efc9c229c6a005581527fc7f505b2f371ae2175ee4913f4499e1f2633a7b5936321eed1cdaeb6115181d290602090a15f80610054565b63f92ee8a960e01b5f5260045ffd5b5f80fdfe6080806040526004361015610012575f80fd5b5f3560e01c90816301ffc9a714610ad65750806320362a4214610ab9578063248a9ca314610a935780632f2ff15d14610a6257806336568abe14610a1e5780634f1ef286146107ed57806350e9a7151461062657806352d1902d146105c0578063678a48f9146105a25780636e293c5a1461058557806375b238fc1461054b578063784196121461052f5780637bc6ec1a1461044857806391d14854146103f3578063a217fddf146103d9578063ad3cb1cc1461037b578063aed2845c1461035e578063b8f26c3214610341578063c4d66de8146101a1578063d547741f14610169578063df5b407c1461014c5763f72c0d8b1461010e575f80fd5b34610148575f3660031901126101485760206040517f189ab7a9244df0848122154315af71fe140f3db0fe014031783b0946b8c9d2e38152f35b5f80fd5b34610148575f366003190112610148576020600254604051908152f35b346101485760403660031901126101485761019f600435610188610b29565b9061019a61019582610bed565b610c0b565b610ef0565b005b34610148576020366003190112610148576101ba610b3f565b5f805160206110c6833981519152549060ff8260401c16159167ffffffffffffffff811680159081610339575b600114908161032f575b159081610326575b506103175767ffffffffffffffff1981166001175f805160206110c683398151915255826102eb575b5060ff5f805160206110c68339815191525460401c16156102dc578061024a61025a92610c51565b5061025481610ced565b50610da6565b506302fac9705f5563017d513060015562e4bab060025562986f70600355621e5d7060045561028557005b68ff0000000000000000195f805160206110c683398151915254165f805160206110c6833981519152557fc7f505b2f371ae2175ee4913f4499e1f2633a7b5936321eed1cdaeb6115181d2602060405160018152a1005b631afcd79f60e31b5f5260045ffd5b68ffffffffffffffffff191668010000000000000001175f805160206110c68339815191525582610222565b63f92ee8a960e01b5f5260045ffd5b905015846101f9565b303b1591506101f1565b8491506101e7565b34610148575f3660031901126101485760206040516224ea008152f35b34610148575f366003190112610148576020600454604051908152f35b34610148575f36600319011261014857604080519061039a8183610b85565b600582526020820191640352e302e360dc1b83528151928391602083525180918160208501528484015e5f828201840152601f01601f19168101030190f35b34610148575f3660031901126101485760206040515f8152f35b346101485760403660031901126101485761040c610b29565b6004355f525f805160206110a683398151915260205260405f209060018060a01b03165f52602052602060ff60405f2054166040519015158152f35b346101485760a036600319011261014857335f9081527fb16e88c42fd4e48df2dd6a2eabd6bc9aec654ec170056b470819f8892cc6431c6020526040902054604435906024359060043590608435906064359060ff16156104f8577f6a40bdd3a45e084f5fca97b43d8f243d80b9ab02831e924b34872c53ff2a085e9460a094845f55806001558160025582600355836004556040519485526020850152604084015260608301526080820152a1005b63e2517d3f60e01b5f52336004527fa49807205ce4d355092ef5a8a18f56e8913cf4a201fbe287825b095693c2177560245260445ffd5b34610148575f3660031901126101485760205f54604051908152f35b34610148575f3660031901126101485760206040517fa49807205ce4d355092ef5a8a18f56e8913cf4a201fbe287825b095693c217758152f35b34610148575f366003190112610148576020600154604051908152f35b34610148575f3660031901126101485760206040516305f5e1008152f35b34610148575f366003190112610148577f00000000000000000000000000000000000000000000000000000000000000006001600160a01b031630036106175760206040515f805160206110868339815191528152f35b63703e46dd60e11b5f5260045ffd5b346101485760603660031901126101485760043567ffffffffffffffff811161014857366023820112156101485780600401359067ffffffffffffffff82116101485736602483830101116101485761069b90604435925f602060405161068c81610b55565b82815201526024369201610ba7565b5f8151915f915b8381106107495784836001810361071057505f545b8181029181830414901517156106fc576301e13380604091046106db602435610f8c565b602083516106e881610b55565b838152019081528251918252516020820152f35b634e487b7160e01b5f52601160045260245ffd5b6002810361072157506001546106b7565b6003810361073257506002546106b7565b600403610741576003546106b7565b6004546106b7565b81518110156107d957818101602001516001600160f81b031916600160ff1b81101561078e5750600181018091116106fc57915b5f1981146106fc57600101916106a2565b600760fd1b8110156107ac5750600281018091116106fc579161077d565b600f60fc1b11156107c857600381018091116106fc579161077d565b600481018091116106fc579161077d565b634e487b7160e01b5f52603260045260245ffd5b604036600319011261014857610801610b3f565b60243567ffffffffffffffff8111610148573660238201121561014857610832903690602481600401359101610ba7565b906001600160a01b037f0000000000000000000000000000000000000000000000000000000000000000163081149081156109fc575b5061061757335f9081527fab71e3f32666744d246edff3f96e4bdafee2e9867098cdd118a979a7464786a8602052604090205460ff16156109c5576040516352d1902d60e01b81526001600160a01b0382169290602081600481875afa5f9181610991575b506108e55783634c9c8ce360e01b5f5260045260245ffd5b805f8051602061108683398151915285920361097f5750823b1561096d575f8051602061108683398151915280546001600160a01b031916821790557fbc7cd75a20ee27fd9adebab32041f755214dbc6bffa90cc0225b39da2e5c2d3b5f80a28051156109555761019f91610fd9565b50503461095e57005b63b398979f60e01b5f5260045ffd5b634c9c8ce360e01b5f5260045260245ffd5b632a87526960e21b5f5260045260245ffd5b9091506020813d6020116109bd575b816109ad60209383610b85565b81010312610148575190856108cd565b3d91506109a0565b63e2517d3f60e01b5f52336004527f189ab7a9244df0848122154315af71fe140f3db0fe014031783b0946b8c9d2e360245260445ffd5b5f80516020611086833981519152546001600160a01b03161415905083610868565b3461014857604036600319011261014857610a37610b29565b336001600160a01b03821603610a535761019f90600435610ef0565b63334bd91960e11b5f5260045ffd5b346101485760403660031901126101485761019f600435610a81610b29565b90610a8e61019582610bed565b610e5f565b34610148576020366003190112610148576020610ab1600435610bed565b604051908152f35b34610148575f366003190112610148576020600354604051908152f35b34610148576020366003190112610148576004359063ffffffff60e01b821680920361014857602091637965db0b60e01b8114908115610b18575b5015158152f35b6301ffc9a760e01b14905083610b11565b602435906001600160a01b038216820361014857565b600435906001600160a01b038216820361014857565b6040810190811067ffffffffffffffff821117610b7157604052565b634e487b7160e01b5f52604160045260245ffd5b90601f8019910116810190811067ffffffffffffffff821117610b7157604052565b92919267ffffffffffffffff8211610b715760405191610bd1601f8201601f191660200184610b85565b829481845281830111610148578281602093845f960137010152565b5f525f805160206110a6833981519152602052600160405f20015490565b5f8181525f805160206110a68339815191526020908152604080832033845290915290205460ff1615610c3b5750565b63e2517d3f60e01b5f523360045260245260445ffd5b6001600160a01b0381165f9081527fb7db2dd08fcb62d0c9e08c51941cae53c267786a0b75803fb7960902fc8ef97d602052604090205460ff16610ce8576001600160a01b03165f8181527fb7db2dd08fcb62d0c9e08c51941cae53c267786a0b75803fb7960902fc8ef97d60205260408120805460ff191660011790553391905f805160206110668339815191528180a4600190565b505f90565b6001600160a01b0381165f9081527fb16e88c42fd4e48df2dd6a2eabd6bc9aec654ec170056b470819f8892cc6431c602052604090205460ff16610ce8576001600160a01b03165f8181527fb16e88c42fd4e48df2dd6a2eabd6bc9aec654ec170056b470819f8892cc6431c60205260408120805460ff191660011790553391907fa49807205ce4d355092ef5a8a18f56e8913cf4a201fbe287825b095693c21775905f805160206110668339815191529080a4600190565b6001600160a01b0381165f9081527fab71e3f32666744d246edff3f96e4bdafee2e9867098cdd118a979a7464786a8602052604090205460ff16610ce8576001600160a01b03165f8181527fab71e3f32666744d246edff3f96e4bdafee2e9867098cdd118a979a7464786a860205260408120805460ff191660011790553391907f189ab7a9244df0848122154315af71fe140f3db0fe014031783b0946b8c9d2e3905f805160206110668339815191529080a4600190565b5f8181525f805160206110a6833981519152602090815260408083206001600160a01b038616845290915290205460ff16610eea575f8181525f805160206110a6833981519152602090815260408083206001600160a01b0395909516808452949091528120805460ff19166001179055339291905f805160206110668339815191529080a4600190565b50505f90565b5f8181525f805160206110a6833981519152602090815260408083206001600160a01b038616845290915290205460ff1615610eea575f8181525f805160206110a6833981519152602090815260408083206001600160a01b0395909516808452949091528120805460ff19169055339291907ff6391f5c32d9c69d2a47ea670b442974b53935d1edc7fd64eb21e047a839171b9080a4600190565b8015610ce857428111610ce85742034281116106fc576224ea00811015610ce8576224ea00036224ea0081116106fc57806305f5e10002906305f5e1008204036106fc576224ea00900490565b905f8091602081519101845af48080611052575b1561100d5750506040513d81523d5f602083013e60203d82010160405290565b1561103257639996b31560e01b5f9081526001600160a01b0391909116600452602490fd5b3d15611043576040513d5f823e3d90fd5b63d6bda27560e01b5f5260045ffd5b503d151580610fed5750813b1515610fed56fe2f8788117e7eff1d82e926ec794901d17c78024a50270940304540a733656f0d360894a13ba1a3210667c828492db98dca3e2076cc3735a920a3ca505d382bbc02dd7bc7dec4dceedda775e58dd541e08a116c6c53815c0bd028192f7b626800f0c57e16840df040f15088dc2f81fe391c3923bec73e23a9662efc9c229c6a00a2646970667358221220d94209abd8d285f2043cfbf183fdeded1afc2666e450bb0cecaa00a972a539c064736f6c634300081a0033",
  "linkReferences": {},
  "deployedLinkReferences": {}
}