{
  "_format": "hh-sol-artifact-1",
  "contractName": "ArcNSController",
  "sourceName": "contracts/v3/controller/ArcNSController.sol",
  "abi": [
    {
      "inputs": [],
      "stateMutability": "nonpayable",
      "type": "constructor"
    },
    {
      "inputs": [],
      "name": "AccessControlBadConfirmation",
      "type": "error"
    },
    {
      "inputs": [
        {
          "internalType": "address",
          "name": "account",
          "type": "address"
        },
        {
          "internalType": "bytes32",
          "name": "neededRole",
          "type": "bytes32"
        }
      ],
      "name": "AccessControlUnauthorizedAccount",
      "type": "error"
    },
    {
      "inputs": [
        {
          "internalType": "address",
          "name": "target",
          "type": "address"
        }
      ],
      "name": "AddressEmptyCode",
      "type": "error"
    },
    {
      "inputs": [],
      "name": "CommitmentAlreadyExists",
      "type": "error"
    },
    {
      "inputs": [],
      "name": "CommitmentAlreadyUsed",
      "type": "error"
    },
    {
      "inputs": [],
      "name": "CommitmentExpired",
      "type": "error"
    },
    {
      "inputs": [],
      "name": "CommitmentNotFound",
      "type": "error"
    },
    {
      "inputs": [],
      "name": "CommitmentTooNew",
      "type": "error"
    },
    {
      "inputs": [],
      "name": "DurationTooShort",
      "type": "error"
    },
    {
      "inputs": [
        {
          "internalType": "address",
          "name": "implementation",
          "type": "address"
        }
      ],
      "name": "ERC1967InvalidImplementation",
      "type": "error"
    },
    {
      "inputs": [],
      "name": "ERC1967NonPayable",
      "type": "error"
    },
    {
      "inputs": [],
      "name": "EnforcedPause",
      "type": "error"
    },
    {
      "inputs": [],
      "name": "ExpectedPause",
      "type": "error"
    },
    {
      "inputs": [],
      "name": "FailedCall",
      "type": "error"
    },
    {
      "inputs": [],
      "name": "InvalidInitialization",
      "type": "error"
    },
    {
      "inputs": [],
      "name": "InvalidName",
      "type": "error"
    },
    {
      "inputs": [],
      "name": "NotInitializing",
      "type": "error"
    },
    {
      "inputs": [
        {
          "internalType": "uint256",
          "name": "price",
          "type": "uint256"
        },
        {
          "internalType": "uint256",
          "name": "maxCost",
          "type": "uint256"
        }
      ],
      "name": "PriceExceedsMaxCost",
      "type": "error"
    },
    {
      "inputs": [],
      "name": "ReentrantCall",
      "type": "error"
    },
    {
      "inputs": [
        {
          "internalType": "address",
          "name": "resolver",
          "type": "address"
        }
      ],
      "name": "ResolverNotApproved",
      "type": "error"
    },
    {
      "inputs": [
        {
          "internalType": "address",
          "name": "token",
          "type": "address"
        }
      ],
      "name": "SafeERC20FailedOperation",
      "type": "error"
    },
    {
      "inputs": [],
      "name": "UUPSUnauthorizedCallContext",
      "type": "error"
    },
    {
      "inputs": [
        {
          "internalType": "bytes32",
          "name": "slot",
          "type": "bytes32"
        }
      ],
      "name": "UUPSUnsupportedProxiableUUID",
      "type": "error"
    },
    {
      "inputs": [],
      "name": "ZeroAddress",
      "type": "error"
    },
    {
      "anonymous": false,
      "inputs": [
        {
          "indexed": true,
          "internalType": "bytes32",
          "name": "commitment",
          "type": "bytes32"
        }
      ],
      "name": "CommitmentMade",
      "type": "event"
    },
    {
      "anonymous": false,
      "inputs": [
        {
          "indexed": false,
          "internalType": "uint64",
          "name": "version",
          "type": "uint64"
        }
      ],
      "name": "Initialized",
      "type": "event"
    },
    {
      "anonymous": false,
      "inputs": [
        {
          "indexed": false,
          "internalType": "string",
          "name": "name",
          "type": "string"
        },
        {
          "indexed": true,
          "internalType": "bytes32",
          "name": "label",
          "type": "bytes32"
        },
        {
          "indexed": true,
          "internalType": "address",
          "name": "owner",
          "type": "address"
        },
        {
          "indexed": false,
          "internalType": "uint256",
          "name": "cost",
          "type": "uint256"
        },
        {
          "indexed": false,
          "internalType": "uint256",
          "name": "expires",
          "type": "uint256"
        }
      ],
      "name": "NameRegistered",
      "type": "event"
    },
    {
      "anonymous": false,
      "inputs": [
        {
          "indexed": false,
          "internalType": "string",
          "name": "name",
          "type": "string"
        },
        {
          "indexed": true,
          "internalType": "bytes32",
          "name": "label",
          "type": "bytes32"
        },
        {
          "indexed": false,
          "internalType": "uint256",
          "name": "cost",
          "type": "uint256"
        },
        {
          "indexed": false,
          "internalType": "uint256",
          "name": "expires",
          "type": "uint256"
        }
      ],
      "name": "NameRenewed",
      "type": "event"
    },
    {
      "anonymous": false,
      "inputs": [
        {
          "indexed": true,
          "internalType": "address",
          "name": "oracle",
          "type": "address"
        }
      ],
      "name": "NewPriceOracle",
      "type": "event"
    },
    {
      "anonymous": false,
      "inputs": [
        {
          "indexed": false,
          "internalType": "address",
          "name": "account",
          "type": "address"
        }
      ],
      "name": "Paused",
      "type": "event"
    },
    {
      "anonymous": false,
      "inputs": [
        {
          "indexed": true,
          "internalType": "address",
          "name": "resolver",
          "type": "address"
        },
        {
          "indexed": false,
          "internalType": "bool",
          "name": "approved",
          "type": "bool"
        }
      ],
      "name": "ResolverApproved",
      "type": "event"
    },
    {
      "anonymous": false,
      "inputs": [
        {
          "indexed": true,
          "internalType": "bytes32",
          "name": "role",
          "type": "bytes32"
        },
        {
          "indexed": true,
          "internalType": "bytes32",
          "name": "previousAdminRole",
          "type": "bytes32"
        },
        {
          "indexed": true,
          "internalType": "bytes32",
          "name": "newAdminRole",
          "type": "bytes32"
        }
      ],
      "name": "RoleAdminChanged",
      "type": "event"
    },
    {
      "anonymous": false,
      "inputs": [
        {
          "indexed": true,
          "internalType": "bytes32",
          "name": "role",
          "type": "bytes32"
        },
        {
          "indexed": true,
          "internalType": "address",
          "name": "account",
          "type": "address"
        },
        {
          "indexed": true,
          "internalType": "address",
          "name": "sender",
          "type": "address"
        }
      ],
      "name": "RoleGranted",
      "type": "event"
    },
    {
      "anonymous": false,
      "inputs": [
        {
          "indexed": true,
          "internalType": "bytes32",
          "name": "role",
          "type": "bytes32"
        },
        {
          "indexed": true,
          "internalType": "address",
          "name": "account",
          "type": "address"
        },
        {
          "indexed": true,
          "internalType": "address",
          "name": "sender",
          "type": "address"
        }
      ],
      "name": "RoleRevoked",
      "type": "event"
    },
    {
      "anonymous": false,
      "inputs": [
        {
          "indexed": true,
          "internalType": "address",
          "name": "oldTreasury",
          "type": "address"
        },
        {
          "indexed": true,
          "internalType": "address",
          "name": "newTreasury",
          "type": "address"
        }
      ],
      "name": "TreasuryUpdated",
      "type": "event"
    },
    {
      "anonymous": false,
      "inputs": [
        {
          "indexed": false,
          "internalType": "address",
          "name": "account",
          "type": "address"
        }
      ],
      "name": "Unpaused",
      "type": "event"
    },
    {
      "anonymous": false,
      "inputs": [
        {
          "indexed": true,
          "internalType": "address",
          "name": "implementation",
          "type": "address"
        }
      ],
      "name": "Upgraded",
      "type": "event"
    },
    {
      "inputs": [],
      "name": "ADMIN_ROLE",
      "outputs": [
        {
          "internalType": "bytes32",
          "name": "",
          "type": "bytes32"
        }
      ],
      "stateMutability": "view",
      "type": "function"
    },
    {
      "inputs": [],
      "name": "DEFAULT_ADMIN_ROLE",
      "outputs": [
        {
          "internalType": "bytes32",
          "name": "",
          "type": "bytes32"
        }
      ],
      "stateMutability": "view",
      "type": "function"
    },
    {
      "inputs": [],
      "name": "MAX_COMMITMENT_AGE",
      "outputs": [
        {
          "internalType": "uint256",
          "name": "",
          "type": "uint256"
        }
      ],
      "stateMutability": "view",
      "type": "function"
    },
    {
      "inputs": [],
      "name": "MIN_COMMITMENT_AGE",
      "outputs": [
        {
          "internalType": "uint256",
          "name": "",
          "type": "uint256"
        }
      ],
      "stateMutability": "view",
      "type": "function"
    },
    {
      "inputs": [],
      "name": "MIN_REGISTRATION_DURATION",
      "outputs": [
        {
          "internalType": "uint256",
          "name": "",
          "type": "uint256"
        }
      ],
      "stateMutability": "view",
      "type": "function"
    },
    {
      "inputs": [],
      "name": "ORACLE_ROLE",
      "outputs": [
        {
          "internalType": "bytes32",
          "name": "",
          "type": "bytes32"
        }
      ],
      "stateMutability": "view",
      "type": "function"
    },
    {
      "inputs": [],
      "name": "PAUSER_ROLE",
      "outputs": [
        {
          "internalType": "bytes32",
          "name": "",
          "type": "bytes32"
        }
      ],
      "stateMutability": "view",
      "type": "function"
    },
    {
      "inputs": [],
      "name": "UPGRADER_ROLE",
      "outputs": [
        {
          "internalType": "bytes32",
          "name": "",
          "type": "bytes32"
        }
      ],
      "stateMutability": "view",
      "type": "function"
    },
    {
      "inputs": [],
      "name": "UPGRADE_INTERFACE_VERSION",
      "outputs": [
        {
          "internalType": "string",
          "name": "",
          "type": "string"
        }
      ],
      "stateMutability": "view",
      "type": "function"
    },
    {
      "inputs": [
        {
          "internalType": "address",
          "name": "",
          "type": "address"
        }
      ],
      "name": "approvedResolvers",
      "outputs": [
        {
          "internalType": "bool",
          "name": "",
          "type": "bool"
        }
      ],
      "stateMutability": "view",
      "type": "function"
    },
    {
      "inputs": [
        {
          "internalType": "string",
          "name": "name_",
          "type": "string"
        }
      ],
      "name": "available",
      "outputs": [
        {
          "internalType": "bool",
          "name": "",
          "type": "bool"
        }
      ],
      "stateMutability": "view",
      "type": "function"
    },
    {
      "inputs": [],
      "name": "base",
      "outputs": [
        {
          "internalType": "contract IArcNSBaseRegistrar",
          "name": "",
          "type": "address"
        }
      ],
      "stateMutability": "view",
      "type": "function"
    },
    {
      "inputs": [
        {
          "internalType": "bytes32",
          "name": "commitment",
          "type": "bytes32"
        }
      ],
      "name": "commit",
      "outputs": [],
      "stateMutability": "nonpayable",
      "type": "function"
    },
    {
      "inputs": [
        {
          "internalType": "bytes32",
          "name": "",
          "type": "bytes32"
        }
      ],
      "name": "commitments",
      "outputs": [
        {
          "internalType": "uint256",
          "name": "",
          "type": "uint256"
        }
      ],
      "stateMutability": "view",
      "type": "function"
    },
    {
      "inputs": [
        {
          "internalType": "bytes32",
          "name": "commitment",
          "type": "bytes32"
        }
      ],
      "name": "getCommitmentStatus",
      "outputs": [
        {
          "internalType": "uint256",
          "name": "timestamp",
          "type": "uint256"
        },
        {
          "internalType": "bool",
          "name": "exists",
          "type": "bool"
        },
        {
          "internalType": "bool",
          "name": "matured",
          "type": "bool"
        },
        {
          "internalType": "bool",
          "name": "expired_",
          "type": "bool"
        }
      ],
      "stateMutability": "view",
      "type": "function"
    },
    {
      "inputs": [
        {
          "internalType": "bytes32",
          "name": "role",
          "type": "bytes32"
        }
      ],
      "name": "getRoleAdmin",
      "outputs": [
        {
          "internalType": "bytes32",
          "name": "",
          "type": "bytes32"
        }
      ],
      "stateMutability": "view",
      "type": "function"
    },
    {
      "inputs": [
        {
          "internalType": "bytes32",
          "name": "role",
          "type": "bytes32"
        },
        {
          "internalType": "address",
          "name": "account",
          "type": "address"
        }
      ],
      "name": "grantRole",
      "outputs": [],
      "stateMutability": "nonpayable",
      "type": "function"
    },
    {
      "inputs": [
        {
          "internalType": "bytes32",
          "name": "role",
          "type": "bytes32"
        },
        {
          "internalType": "address",
          "name": "account",
          "type": "address"
        }
      ],
      "name": "hasRole",
      "outputs": [
        {
          "internalType": "bool",
          "name": "",
          "type": "bool"
        }
      ],
      "stateMutability": "view",
      "type": "function"
    },
    {
      "inputs": [
        {
          "internalType": "contract IArcNSBaseRegistrar",
          "name": "base_",
          "type": "address"
        },
        {
          "internalType": "contract IArcNSPriceOracle",
          "name": "priceOracle_",
          "type": "address"
        },
        {
          "internalType": "contract IERC20",
          "name": "usdc_",
          "type": "address"
        },
        {
          "internalType": "contract IArcNSRegistry",
          "name": "registry_",
          "type": "address"
        },
        {
          "internalType": "contract IArcNSResolver",
          "name": "resolver_",
          "type": "address"
        },
        {
          "internalType": "contract IArcNSReverseRegistrar",
          "name": "reverseRegistrar_",
          "type": "address"
        },
        {
          "internalType": "address",
          "name": "treasury_",
          "type": "address"
        },
        {
          "internalType": "address",
          "name": "admin_",
          "type": "address"
        }
      ],
      "name": "initialize",
      "outputs": [],
      "stateMutability": "nonpayable",
      "type": "function"
    },
    {
      "inputs": [
        {
          "internalType": "string",
          "name": "name_",
          "type": "string"
        },
        {
          "internalType": "address",
          "name": "owner_",
          "type": "address"
        },
        {
          "internalType": "uint256",
          "name": "duration",
          "type": "uint256"
        },
        {
          "internalType": "bytes32",
          "name": "secret",
          "type": "bytes32"
        },
        {
          "internalType": "address",
          "name": "resolverAddr",
          "type": "address"
        },
        {
          "internalType": "bool",
          "name": "reverseRecord",
          "type": "bool"
        },
        {
          "internalType": "address",
          "name": "sender",
          "type": "address"
        }
      ],
      "name": "makeCommitment",
      "outputs": [
        {
          "internalType": "bytes32",
          "name": "",
          "type": "bytes32"
        }
      ],
      "stateMutability": "pure",
      "type": "function"
    },
    {
      "inputs": [],
      "name": "pause",
      "outputs": [],
      "stateMutability": "nonpayable",
      "type": "function"
    },
    {
      "inputs": [],
      "name": "paused",
      "outputs": [
        {
          "internalType": "bool",
          "name": "",
          "type": "bool"
        }
      ],
      "stateMutability": "view",
      "type": "function"
    },
    {
      "inputs": [],
      "name": "priceOracle",
      "outputs": [
        {
          "internalType": "contract IArcNSPriceOracle",
          "name": "",
          "type": "address"
        }
      ],
      "stateMutability": "view",
      "type": "function"
    },
    {
      "inputs": [],
      "name": "proxiableUUID",
      "outputs": [
        {
          "internalType": "bytes32",
          "name": "",
          "type": "bytes32"
        }
      ],
      "stateMutability": "view",
      "type": "function"
    },
    {
      "inputs": [
        {
          "internalType": "string",
          "name": "name_",
          "type": "string"
        },
        {
          "internalType": "address",
          "name": "owner_",
          "type": "address"
        },
        {
          "internalType": "uint256",
          "name": "duration",
          "type": "uint256"
        },
        {
          "internalType": "bytes32",
          "name": "secret",
          "type": "bytes32"
        },
        {
          "internalType": "address",
          "name": "resolverAddr",
          "type": "address"
        },
        {
          "internalType": "bool",
          "name": "reverseRecord",
          "type": "bool"
        },
        {
          "internalType": "uint256",
          "name": "maxCost",
          "type": "uint256"
        }
      ],
      "name": "register",
      "outputs": [],
      "stateMutability": "nonpayable",
      "type": "function"
    },
    {
      "inputs": [],
      "name": "registry",
      "outputs": [
        {
          "internalType": "contract IArcNSRegistry",
          "name": "",
          "type": "address"
        }
      ],
      "stateMutability": "view",
      "type": "function"
    },
    {
      "inputs": [
        {
          "internalType": "string",
          "name": "name_",
          "type": "string"
        },
        {
          "internalType": "uint256",
          "name": "duration",
          "type": "uint256"
        },
        {
          "internalType": "uint256",
          "name": "maxCost",
          "type": "uint256"
        }
      ],
      "name": "renew",
      "outputs": [],
      "stateMutability": "nonpayable",
      "type": "function"
    },
    {
      "inputs": [
        {
          "internalType": "bytes32",
          "name": "role",
          "type": "bytes32"
        },
        {
          "internalType": "address",
          "name": "callerConfirmation",
          "type": "address"
        }
      ],
      "name": "renounceRole",
      "outputs": [],
      "stateMutability": "nonpayable",
      "type": "function"
    },
    {
      "inputs": [
        {
          "internalType": "string",
          "name": "name_",
          "type": "string"
        },
        {
          "internalType": "uint256",
          "name": "duration",
          "type": "uint256"
        }
      ],
      "name": "rentPrice",
      "outputs": [
        {
          "components": [
            {
              "internalType": "uint256",
              "name": "base",
              "type": "uint256"
            },
            {
              "internalType": "uint256",
              "name": "premium",
              "type": "uint256"
            }
          ],
          "internalType": "struct IArcNSPriceOracle.Price",
          "name": "",
          "type": "tuple"
        }
      ],
      "stateMutability": "view",
      "type": "function"
    },
    {
      "inputs": [],
      "name": "resolver",
      "outputs": [
        {
          "internalType": "contract IArcNSResolver",
          "name": "",
          "type": "address"
        }
      ],
      "stateMutability": "view",
      "type": "function"
    },
    {
      "inputs": [],
      "name": "reverseRegistrar",
      "outputs": [
        {
          "internalType": "contract IArcNSReverseRegistrar",
          "name": "",
          "type": "address"
        }
      ],
      "stateMutability": "view",
      "type": "function"
    },
    {
      "inputs": [
        {
          "internalType": "bytes32",
          "name": "role",
          "type": "bytes32"
        },
        {
          "internalType": "address",
          "name": "account",
          "type": "address"
        }
      ],
      "name": "revokeRole",
      "outputs": [],
      "stateMutability": "nonpayable",
      "type": "function"
    },
    {
      "inputs": [
        {
          "internalType": "address",
          "name": "resolverAddr",
          "type": "address"
        },
        {
          "internalType": "bool",
          "name": "approved",
          "type": "bool"
        }
      ],
      "name": "setApprovedResolver",
      "outputs": [],
      "stateMutability": "nonpayable",
      "type": "function"
    },
    {
      "inputs": [
        {
          "internalType": "contract IArcNSPriceOracle",
          "name": "oracle_",
          "type": "address"
        }
      ],
      "name": "setPriceOracle",
      "outputs": [],
      "stateMutability": "nonpayable",
      "type": "function"
    },
    {
      "inputs": [
        {
          "internalType": "address",
          "name": "treasury_",
          "type": "address"
        }
      ],
      "name": "setTreasury",
      "outputs": [],
      "stateMutability": "nonpayable",
      "type": "function"
    },
    {
      "inputs": [
        {
          "internalType": "bytes4",
          "name": "interfaceId",
          "type": "bytes4"
        }
      ],
      "name": "supportsInterface",
      "outputs": [
        {
          "internalType": "bool",
          "name": "",
          "type": "bool"
        }
      ],
      "stateMutability": "view",
      "type": "function"
    },
    {
      "inputs": [],
      "name": "treasury",
      "outputs": [
        {
          "internalType": "address",
          "name": "",
          "type": "address"
        }
      ],
      "stateMutability": "view",
      "type": "function"
    },
    {
      "inputs": [],
      "name": "unpause",
      "outputs": [],
      "stateMutability": "nonpayable",
      "type": "function"
    },
    {
      "inputs": [
        {
          "internalType": "address",
          "name": "newImplementation",
          "type": "address"
        },
        {
          "internalType": "bytes",
          "name": "data",
          "type": "bytes"
        }
      ],
      "name": "upgradeToAndCall",
      "outputs": [],
      "stateMutability": "payable",
      "type": "function"
    },
    {
      "inputs": [],
      "name": "usdc",
      "outputs": [
        {
          "internalType": "contract IERC20",
          "name": "",
          "type": "address"
        }
      ],
      "stateMutability": "view",
      "type": "function"
    },
    {
      "inputs": [
        {
          "internalType": "bytes32",
          "name": "",
          "type": "bytes32"
        }
      ],
      "name": "usedCommitments",
      "outputs": [
        {
          "internalType": "bool",
          "name": "",
          "type": "bool"
        }
      ],
      "stateMutability": "view",
      "type": "function"
    }
  ],
  "bytecode": "0x60a080604052346100e857306080527ff0c57e16840df040f15088dc2f81fe391c3923bec73e23a9662efc9c229c6a005460ff8160401c166100d9576002600160401b03196001600160401b03821601610073575b60405161268e90816100ed823960805181818161149f015261156b0152f35b6001600160401b0319166001600160401b039081177ff0c57e16840df040f15088dc2f81fe391c3923bec73e23a9662efc9c229c6a005581527fc7f505b2f371ae2175ee4913f4499e1f2633a7b5936321eed1cdaeb6115181d290602090a15f80610054565b63f92ee8a960e01b5f5260045ffd5b5f80fdfe6080806040526004361015610012575f80fd5b5f905f3560e01c90816301ffc9a71461192a5750806304f3bcec1461190257806307e2cea5146118c8578063248a9ca3146118aa5780632630c12f146118825780632e4f692a146118675780632f2ff15d1461183657806336568abe146117f25780633e413bee146117ca5780633f4ba83a1461174c5780634f1ef2861461151b5780635001f3b5146114f357806352d1902d1461148d578063530e784f146113c25780635c975abb1461139457806361d027b31461136c57806375b238fc146113325780637b1039991461130a5780638020d9ac1461128a5780638086985314611262578063839df9451461123857806383e7f6ff146111e75780638456cb59146111765780638a29e2de14610ec55780638a95b09f14610ea85780638ccb9ea614610e8b5780639140203914610e5c578063917844cf14610e1f57806391d1485414610dca578063a217fddf14610db0578063a6100fca14610c38578063ad3cb1cc14610bed578063aeb8ce9b14610b19578063b74dd23114610a9c578063d547741f14610a64578063e63ab1e914610a2a578063ee6161ee146103e4578063f0f4426014610360578063f14fcbc81461028c578063f31632fd1461021e5763f72c0d8b146101e1575f80fd5b3461021b578060031936011261021b5760206040517f189ab7a9244df0848122154315af71fe140f3db0fe014031783b0946b8c9d2e38152f35b80fd5b503461021b5760e036600319011261021b576004359067ffffffffffffffff821161021b5760206102846102553660048601611a79565b61025d61197d565b6102656119bf565b61026d611ae9565b916102766119a9565b936064359160443591611c80565b604051908152f35b503461021b57602036600319011261021b576004356102a96122b2565b808252600960205260ff604083205416610351578082526008602052604082205415158061031a575b61030b5780825260086020524260408320557f561eb038a114723afa3c72b445add7b8602de546264da1e7e826af628316dbcb8280a280f35b63145718a760e01b8252600482fd5b508082526008602052604082205462015180810180911161033d574211156102d2565b634e487b7160e01b83526011600452602483fd5b635be00f0f60e11b8252600482fd5b503461021b57602036600319011261021b5761037a611993565b610382611d50565b6001600160a01b031680156103d557600780546001600160a01b0319811683179091556001600160a01b03167f4ab5be82436d353e61ca18726e984e561f5c1cc7c6d38b29d2553c790434705a8380a380f35b63d92e233d60e01b8252600482fd5b50346108895760e03660031901126108895760043567ffffffffffffffff811161088957610416903690600401611a97565b61041e61197d565b6044359161042a6119bf565b91610433611ae9565b9260c4359060025f5414610a1b5760025f5561044d6122b2565b61046a3386838a8a88610465606435938c3691611a43565b611c80565b805f52600960205260ff60405f205416610a0c57805f52600860205260405f2054156109fd57805f52600860205260405f2054603c81018091116109da5742106109ee57805f52600860205260405f20546201518081018091116109da5742116109cb57805f52600960205260405f20600160ff198254161790555f5260086020525f604081205561050561050036868a611a43565b612390565b156109bc576224ea0086106109ad576001600160a01b03169384151580610986575b61054b61053e8861053936898d611a43565b611b23565b6020815191015190611b16565b9280841161097057506003546007546105749185916001600160a01b03908116913391166122d9565b61057f36868a611a43565b602081519101209660018060a01b036001541696604051630ddf7fcb60e41b81526020816004818c5afa90811561087e575f9161093e575b50604051602081019182528a6040820152604081526105d7606082611a05565b5190209783156108bf5750600154604051631ef5ace960e21b8152600481018b90526001600160a01b03888116602483018190526044830195909552606482019390935291602091839160849183915f91165af190811561087e575f9161088d575b509660018060a01b036005541691823b156108895760445f9283604051958694859362d5fa2b60e81b8552600485015260248401525af1801561087e57610869575b505b81610861575b506106ce575b7fca6abbe9d7f11422cb6ca7629fbf6fe9efb1c621f71ce8f02b9f2a230097404f936106c49160405194859460018060a01b03169885611c4b565b0390a36001815580f35b6006546001546040516316aa8a1960e11b8152899290916001600160a01b0391821691849184916004918391165afa9182156108565786928a9185916107c4575b5061075291602080600193604051978894838601378b840190601760f91b83830152805192839101602183015e010186838201520301601f198101845283611a05565b803b156107c057604080516316beef9b60e11b81526001600160a01b038716600482015260248101919091529183918391829084908290610797906044830190611ac5565b03925af16107a7575b5050610689565b816107b191611a05565b6107bc57865f6107a0565b8680fd5b8280fd5b935050503d8084843e6107d78184611a05565b8201916020818403126108525780519067ffffffffffffffff821161084e570182601f820112156108525780519061080e82611a27565b9361081c6040519586611a05565b8285526020838301011161084e578a6020808a968882876107529882600199018386015e83010152935050509161070f565b8480fd5b8380fd5b6040513d85823e3d90fd5b90505f610683565b6108769199505f90611a05565b5f975f61067b565b6040513d5f823e3d90fd5b5f80fd5b90506020813d6020116108b7575b816108a860209383611a05565b8101031261088957515f610639565b3d915061089b565b90505f92975060646020926040519485938492633f2891eb60e21b84528d600485015260018060a01b038b16602485015260448401525af190811561087e575f9161090c575b509461067d565b90506020813d602011610936575b8161092760209383611a05565b8101031261088957515f610905565b3d915061091a565b90506020813d602011610968575b8161095960209383611a05565b8101031261088957515f6105b7565b3d915061094c565b836319016cf760e01b5f5260045260245260445ffd5b855f52600a60205260ff60405f20541661052757856349c947f160e11b5f5260045260245ffd5b6325c3636760e01b5f5260045ffd5b63430f13b360e01b5f5260045ffd5b6353adc96560e01b5f5260045ffd5b634e487b7160e01b5f52601160045260245ffd5b63cba3a53b60e01b5f5260045ffd5b635b34156960e11b5f5260045ffd5b635be00f0f60e11b5f5260045ffd5b6306fda65d60e31b5f5260045ffd5b34610889575f3660031901126108895760206040517f65d7a28e3265b37a6474929f336521b332c1681b933f6cb9f3376673440d862a8152f35b3461088957604036600319011261088957610a9a600435610a8361197d565b90610a95610a9082611af8565b611dbf565b612216565b005b3461088957604036600319011261088957610ab5611993565b602435908115158092036108895760207ff83a8c0afd54275f21152a22a8eada2be10781dbb0f72d691b3f7e90564dac9f91610aef611d50565b60018060a01b031692835f52600a825260405f2060ff1981541660ff8316179055604051908152a2005b346108895760203660031901126108895760043567ffffffffffffffff811161088957610b4a903690600401611a79565b610b5a8151602083012091612390565b80610b6d575b6020906040519015158152f35b506001546040516312dc929d60e31b81526004810192909252602090829060249082906001600160a01b03165afa801561087e575f90610bb1575b60209150610b60565b506020813d602011610be5575b81610bcb60209383611a05565b810103126108895751801515810361088957602090610ba8565b3d9150610bbe565b34610889575f36600319011261088957610c34604051610c0e604082611a05565b60058152640352e302e360dc1b6020820152604051918291602083526020830190611ac5565b0390f35b346108895760603660031901126108895760043567ffffffffffffffff811161088957610c69903690600401611a97565b90602435916044359160025f5414610a1b5760025f55610c876122b2565b6224ea0084106109ad57610ca361053e85610539368686611a43565b928084116109705750600354600754610ccc9185916001600160a01b03908116913391166122d9565b5f6020610cda368585611a43565b80519082012060015460405163c475abff60e01b8152600481018390526024810198909852909692839160449183916001600160a01b03165af190811561087e575f91610d5e575b50610d55907f3da24c024582931cfaf8267d8ed24d13a82a8068d5bd337d30ec45cea4e506ae9460405194859485611c4b565b0390a260015f55005b90506020813d602011610da8575b81610d7960209383611a05565b8101031261088957517f3da24c024582931cfaf8267d8ed24d13a82a8068d5bd337d30ec45cea4e506ae610d22565b3d9150610d6c565b34610889575f3660031901126108895760206040515f8152f35b3461088957604036600319011261088957610de361197d565b6004355f525f805160206125f983398151915260205260405f209060018060a01b03165f52602052602060ff60405f2054166040519015158152f35b34610889576020366003190112610889576001600160a01b03610e40611993565b165f52600a602052602060ff60405f2054166040519015158152f35b34610889576020366003190112610889576004355f526009602052602060ff60405f2054166040519015158152f35b34610889575f366003190112610889576020604051620151808152f35b34610889575f3660031901126108895760206040516224ea008152f35b3461088957610100366003190112610889576004356001600160a01b0381169081900361088957610ef461197d565b906044356001600160a01b03811690819003610889576064356001600160a01b0381169390849003610889576084356001600160a01b038116908190036108895760a4356001600160a01b038116919082900361088957610f536119a9565b9560e435946001600160a01b0386168603610889575f80516020612639833981519152549760ff8960401c16159867ffffffffffffffff81168015908161116e575b6001149081611164575b15908161115b575b5061114c5767ffffffffffffffff1981166001175f805160206126398339815191525589611120575b506001600160a01b0316948515611111576110af97610fed612501565b610ff5612501565b6001600160601b0360a01b600154161760015560018060a01b03166001600160601b0360a01b60025416176002556001600160601b0360a01b60035416176003556001600160601b0360a01b60045416176004556001600160601b0360a01b60055416176005556001600160601b0360a01b60065416176006556001600160601b0360a01b600754161760075561108b81611e05565b5061109581611ea1565b5061109f81611f5a565b506110a981612013565b506120cc565b5060015f556110ba57005b68ff0000000000000000195f8051602061263983398151915254165f80516020612639833981519152557fc7f505b2f371ae2175ee4913f4499e1f2633a7b5936321eed1cdaeb6115181d2602060405160018152a1005b63d92e233d60e01b5f5260045ffd5b68ffffffffffffffffff191668010000000000000001175f805160206126398339815191525589610fd0565b63f92ee8a960e01b5f5260045ffd5b9050158b610fa7565b303b159150610f9f565b8b9150610f95565b34610889575f3660031901126108895761118e611ce1565b6111966122b2565b600160ff195f805160206126198339815191525416175f80516020612619833981519152557f62e78cea01bee320cd4e420270b5ea74000d11b0c9f74754ebdbfc544b05a2586020604051338152a1005b346108895760403660031901126108895760043567ffffffffffffffff81116108895761122661121d6040923690600401611a79565b60243590611b23565b60208251918051835201516020820152f35b34610889576020366003190112610889576004355f526008602052602060405f2054604051908152f35b34610889575f366003190112610889576006546040516001600160a01b039091168152602090f35b34610889576020366003190112610889576004355f52600860205260405f20548015159081806112f4575b80806112db575b9260809360405193845260208401521515604083015215156060820152f35b9050620151808201928383116109da57924211906112bc565b9150603c81018082116109da57421015916112b5565b34610889575f366003190112610889576004546040516001600160a01b039091168152602090f35b34610889575f3660031901126108895760206040517fa49807205ce4d355092ef5a8a18f56e8913cf4a201fbe287825b095693c217758152f35b34610889575f366003190112610889576007546040516001600160a01b039091168152602090f35b34610889575f36600319011261088957602060ff5f8051602061261983398151915254166040519015158152f35b34610889576020366003190112610889576113db611993565b335f9081527f0b45fb0a7d123af421db170fce034e3ce3a70e5f1150428004face1400c458f2602052604090205460ff161561145657600280546001600160a01b0319166001600160a01b039290921691821790557ff261845a790fe29bbd6631e2ca4a5bdc83e6eed7c3271d9590d97287e00e91235f80a2005b63e2517d3f60e01b5f52336004527f68e79a7bf1e0bc45d0a330c573bc367f9cf464fd326078812f301165fbda4ef160245260445ffd5b34610889575f366003190112610889577f00000000000000000000000000000000000000000000000000000000000000006001600160a01b031630036114e45760206040515f805160206125d98339815191528152f35b63703e46dd60e11b5f5260045ffd5b34610889575f366003190112610889576001546040516001600160a01b039091168152602090f35b60403660031901126108895761152f611993565b60243567ffffffffffffffff8111610889573660238201121561088957611560903690602481600401359101611a43565b906001600160a01b037f00000000000000000000000000000000000000000000000000000000000000001630811490811561172a575b506114e457335f9081527fab71e3f32666744d246edff3f96e4bdafee2e9867098cdd118a979a7464786a8602052604090205460ff16156116f3576040516352d1902d60e01b81526001600160a01b0382169290602081600481875afa5f91816116bf575b506116135783634c9c8ce360e01b5f5260045260245ffd5b805f805160206125d98339815191528592036116ad5750823b1561169b575f805160206125d983398151915280546001600160a01b031916821790557fbc7cd75a20ee27fd9adebab32041f755214dbc6bffa90cc0225b39da2e5c2d3b5f80a280511561168357610a9a9161252c565b50503461168c57005b63b398979f60e01b5f5260045ffd5b634c9c8ce360e01b5f5260045260245ffd5b632a87526960e21b5f5260045260245ffd5b9091506020813d6020116116eb575b816116db60209383611a05565b81010312610889575190856115fb565b3d91506116ce565b63e2517d3f60e01b5f52336004527f189ab7a9244df0848122154315af71fe140f3db0fe014031783b0946b8c9d2e360245260445ffd5b5f805160206125d9833981519152546001600160a01b03161415905083611596565b34610889575f36600319011261088957611764611ce1565b5f805160206126198339815191525460ff8116156117bb5760ff19165f80516020612619833981519152557f5db9ee0a495bf2e6ff9c91a7834c1ba4fdd244a5e8aa4e537bd38aeae4b073aa6020604051338152a1005b638dfc202b60e01b5f5260045ffd5b34610889575f366003190112610889576003546040516001600160a01b039091168152602090f35b346108895760403660031901126108895761180b61197d565b336001600160a01b0382160361182757610a9a90600435612216565b63334bd91960e11b5f5260045ffd5b3461088957604036600319011261088957610a9a60043561185561197d565b90611862610a9082611af8565b612185565b34610889575f366003190112610889576020604051603c8152f35b34610889575f366003190112610889576002546040516001600160a01b039091168152602090f35b34610889576020366003190112610889576020610284600435611af8565b34610889575f3660031901126108895760206040517f68e79a7bf1e0bc45d0a330c573bc367f9cf464fd326078812f301165fbda4ef18152f35b34610889575f366003190112610889576005546040516001600160a01b039091168152602090f35b34610889576020366003190112610889576004359063ffffffff60e01b821680920361088957602091637965db0b60e01b811490811561196c575b5015158152f35b6301ffc9a760e01b14905083611965565b602435906001600160a01b038216820361088957565b600435906001600160a01b038216820361088957565b60c435906001600160a01b038216820361088957565b608435906001600160a01b038216820361088957565b6040810190811067ffffffffffffffff8211176119f157604052565b634e487b7160e01b5f52604160045260245ffd5b90601f8019910116810190811067ffffffffffffffff8211176119f157604052565b67ffffffffffffffff81116119f157601f01601f191660200190565b929192611a4f82611a27565b91611a5d6040519384611a05565b829481845281830111610889578281602093845f960137010152565b9080601f8301121561088957816020611a9493359101611a43565b90565b9181601f840112156108895782359167ffffffffffffffff8311610889576020838186019501011161088957565b805180835260209291819084018484015e5f828201840152601f01601f1916010190565b60a43590811515820361088957565b5f525f805160206125f9833981519152602052600160405f20015490565b919082018092116109da57565b905f6020604051611b33816119d5565b8281520152815160208301209060018060a01b0360025416602060018060a01b036001541693602460405180968193636b727d4360e11b835260048301525afa92831561087e575f93611c15575b50611bad604093948451958694859384936350e9a71560e01b8552606060048601526064850190611ac5565b916024840152604483015203915afa90811561087e575f91611bcd575090565b90506040813d604011611c0d575b81611be860409383611a05565b8101031261088957602060405191611bff836119d5565b805183520151602082015290565b3d9150611bdb565b92506020833d602011611c43575b81611c3060209383611a05565b8101031261088957915191611bad611b81565b3d9150611c23565b90826040936080929796959760608552816060860152838501375f828285010152601f80199101168201019460208201520152565b8051602091820120604080519283019182526001600160a01b03938416908301526060820193909352608081019390935292831660a083015292151560c0820152921660e080840191909152825290611cdb61010082611a05565b51902090565b335f9081527f75442b0a96088b5456bc4ed01394c96a4feec0f883c9494257d76b96ab1c9b6b602052604090205460ff1615611d1957565b63e2517d3f60e01b5f52336004527f65d7a28e3265b37a6474929f336521b332c1681b933f6cb9f3376673440d862a60245260445ffd5b335f9081527fb16e88c42fd4e48df2dd6a2eabd6bc9aec654ec170056b470819f8892cc6431c602052604090205460ff1615611d8857565b63e2517d3f60e01b5f52336004527fa49807205ce4d355092ef5a8a18f56e8913cf4a201fbe287825b095693c2177560245260445ffd5b5f8181525f805160206125f98339815191526020908152604080832033845290915290205460ff1615611def5750565b63e2517d3f60e01b5f523360045260245260445ffd5b6001600160a01b0381165f9081527fb7db2dd08fcb62d0c9e08c51941cae53c267786a0b75803fb7960902fc8ef97d602052604090205460ff16611e9c576001600160a01b03165f8181527fb7db2dd08fcb62d0c9e08c51941cae53c267786a0b75803fb7960902fc8ef97d60205260408120805460ff191660011790553391905f805160206125b98339815191528180a4600190565b505f90565b6001600160a01b0381165f9081527fb16e88c42fd4e48df2dd6a2eabd6bc9aec654ec170056b470819f8892cc6431c602052604090205460ff16611e9c576001600160a01b03165f8181527fb16e88c42fd4e48df2dd6a2eabd6bc9aec654ec170056b470819f8892cc6431c60205260408120805460ff191660011790553391907fa49807205ce4d355092ef5a8a18f56e8913cf4a201fbe287825b095693c21775905f805160206125b98339815191529080a4600190565b6001600160a01b0381165f9081527f75442b0a96088b5456bc4ed01394c96a4feec0f883c9494257d76b96ab1c9b6b602052604090205460ff16611e9c576001600160a01b03165f8181527f75442b0a96088b5456bc4ed01394c96a4feec0f883c9494257d76b96ab1c9b6b60205260408120805460ff191660011790553391907f65d7a28e3265b37a6474929f336521b332c1681b933f6cb9f3376673440d862a905f805160206125b98339815191529080a4600190565b6001600160a01b0381165f9081527f0b45fb0a7d123af421db170fce034e3ce3a70e5f1150428004face1400c458f2602052604090205460ff16611e9c576001600160a01b03165f8181527f0b45fb0a7d123af421db170fce034e3ce3a70e5f1150428004face1400c458f260205260408120805460ff191660011790553391907f68e79a7bf1e0bc45d0a330c573bc367f9cf464fd326078812f301165fbda4ef1905f805160206125b98339815191529080a4600190565b6001600160a01b0381165f9081527fab71e3f32666744d246edff3f96e4bdafee2e9867098cdd118a979a7464786a8602052604090205460ff16611e9c576001600160a01b03165f8181527fab71e3f32666744d246edff3f96e4bdafee2e9867098cdd118a979a7464786a860205260408120805460ff191660011790553391907f189ab7a9244df0848122154315af71fe140f3db0fe014031783b0946b8c9d2e3905f805160206125b98339815191529080a4600190565b5f8181525f805160206125f9833981519152602090815260408083206001600160a01b038616845290915290205460ff16612210575f8181525f805160206125f9833981519152602090815260408083206001600160a01b0395909516808452949091528120805460ff19166001179055339291905f805160206125b98339815191529080a4600190565b50505f90565b5f8181525f805160206125f9833981519152602090815260408083206001600160a01b038616845290915290205460ff1615612210575f8181525f805160206125f9833981519152602090815260408083206001600160a01b0395909516808452949091528120805460ff19169055339291907ff6391f5c32d9c69d2a47ea670b442974b53935d1edc7fd64eb21e047a839171b9080a4600190565b60ff5f8051602061261983398151915254166122ca57565b63d93c066560e01b5f5260045ffd5b6040516323b872dd60e01b5f9081526001600160a01b039384166004529290931660245260449390935260209060648180865af19060015f511482161561234a575b6040525f6060521561232a5750565b635274afe760e01b5f9081526001600160a01b0391909116600452602490fd5b90600181151661236257823b15153d1516169061231b565b503d5f823e3d90fd5b90815181101561237c570160200190565b634e487b7160e01b5f52603260045260245ffd5b805115611e9c575f5b8151811015612438576001600160f81b03196123b5828461236b565b5116606160f81b8110159081612429575b8115612405575b81156123f7575b81156123e9575b501561221057600101612399565b605f60f81b1490505f6123db565b602d60f81b811491506123d4565b9050600360fc1b8110158061241b575b906123cd565b50603960f81b811115612415565b603d60f91b81111591506123c6565b5080511561237c5760208101516001600160f81b031916602d60f81b1480156124d1575b611e9c57805190600482101591826124aa575b5081612484575b5061248057600190565b5f90565b809150516003101561237c57602301516001600160f81b031916602d60f81b145f612476565b9091506002101561237c5760228101516001600160f81b031916602d60f81b14905f61246f565b5080515f1981019081116109da57602d60f81b906001600160f81b0319906124f9908461236b565b51161461245c565b60ff5f805160206126398339815191525460401c161561251d57565b631afcd79f60e31b5f5260045ffd5b905f8091602081519101845af480806125a5575b156125605750506040513d81523d5f602083013e60203d82010160405290565b1561258557639996b31560e01b5f9081526001600160a01b0391909116600452602490fd5b3d15612596576040513d5f823e3d90fd5b63d6bda27560e01b5f5260045ffd5b503d1515806125405750813b151561254056fe2f8788117e7eff1d82e926ec794901d17c78024a50270940304540a733656f0d360894a13ba1a3210667c828492db98dca3e2076cc3735a920a3ca505d382bbc02dd7bc7dec4dceedda775e58dd541e08a116c6c53815c0bd028192f7b626800cd5ed15c6e187e77e9aee88184c21f4f2182ab5827cb3b7e07fbedcd63f03300f0c57e16840df040f15088dc2f81fe391c3923bec73e23a9662efc9c229c6a00a26469706673582212209bde5a64428b0f51d61b75e877bc2b8bd0198551477473c461b245180c03699d64736f6c634300081a0033",
  "linkReferences": {},
  "deployedLinkReferences": {}
}