{
  "_format": "hh-sol-artifact-1",
  "contractName": "ArcNSPriceOracle",
  "sourceName": "contracts/v3/registrar/ArcNSPriceOracle.sol",
  "abi": [
    {
      "inputs": [],
      "stateMutability": "nonpayable",
      "type": "constructor"
    },
    {
      "inputs": [
        {
          "internalType": "address",
          "name": "owner",
          "type": "address"
        }
      ],
      "name": "OwnableInvalidOwner",
      "type": "error"
    },
    {
      "inputs": [
        {
          "internalType": "address",
          "name": "account",
          "type": "address"
        }
      ],
      "name": "OwnableUnauthorizedAccount",
      "type": "error"
    },
    {
      "inputs": [],
      "name": "ZeroDuration",
      "type": "error"
    },
    {
      "anonymous": false,
      "inputs": [
        {
          "indexed": true,
          "internalType": "address",
          "name": "previousOwner",
          "type": "address"
        },
        {
          "indexed": true,
          "internalType": "address",
          "name": "newOwner",
          "type": "address"
        }
      ],
      "name": "OwnershipTransferred",
      "type": "event"
    },
    {
      "anonymous": false,
      "inputs": [
        {
          "indexed": false,
          "internalType": "uint256",
          "name": "p1",
          "type": "uint256"
        },
        {
          "indexed": false,
          "internalType": "uint256",
          "name": "p2",
          "type": "uint256"
        },
        {
          "indexed": false,
          "internalType": "uint256",
          "name": "p3",
          "type": "uint256"
        },
        {
          "indexed": false,
          "internalType": "uint256",
          "name": "p4",
          "type": "uint256"
        },
        {
          "indexed": false,
          "internalType": "uint256",
          "name": "p5",
          "type": "uint256"
        }
      ],
      "name": "PricesUpdated",
      "type": "event"
    },
    {
      "inputs": [],
      "name": "PREMIUM_DECAY_PERIOD",
      "outputs": [
        {
          "internalType": "uint256",
          "name": "",
          "type": "uint256"
        }
      ],
      "stateMutability": "view",
      "type": "function"
    },
    {
      "inputs": [],
      "name": "PREMIUM_START",
      "outputs": [
        {
          "internalType": "uint256",
          "name": "",
          "type": "uint256"
        }
      ],
      "stateMutability": "view",
      "type": "function"
    },
    {
      "inputs": [],
      "name": "owner",
      "outputs": [
        {
          "internalType": "address",
          "name": "",
          "type": "address"
        }
      ],
      "stateMutability": "view",
      "type": "function"
    },
    {
      "inputs": [
        {
          "internalType": "string",
          "name": "name",
          "type": "string"
        },
        {
          "internalType": "uint256",
          "name": "expires",
          "type": "uint256"
        },
        {
          "internalType": "uint256",
          "name": "duration",
          "type": "uint256"
        }
      ],
      "name": "price",
      "outputs": [
        {
          "components": [
            {
              "internalType": "uint256",
              "name": "base",
              "type": "uint256"
            },
            {
              "internalType": "uint256",
              "name": "premium",
              "type": "uint256"
            }
          ],
          "internalType": "struct IArcNSPriceOracle.Price",
          "name": "",
          "type": "tuple"
        }
      ],
      "stateMutability": "view",
      "type": "function"
    },
    {
      "inputs": [],
      "name": "price1Char",
      "outputs": [
        {
          "internalType": "uint256",
          "name": "",
          "type": "uint256"
        }
      ],
      "stateMutability": "view",
      "type": "function"
    },
    {
      "inputs": [],
      "name": "price2Char",
      "outputs": [
        {
          "internalType": "uint256",
          "name": "",
          "type": "uint256"
        }
      ],
      "stateMutability": "view",
      "type": "function"
    },
    {
      "inputs": [],
      "name": "price3Char",
      "outputs": [
        {
          "internalType": "uint256",
          "name": "",
          "type": "uint256"
        }
      ],
      "stateMutability": "view",
      "type": "function"
    },
    {
      "inputs": [],
      "name": "price4Char",
      "outputs": [
        {
          "internalType": "uint256",
          "name": "",
          "type": "uint256"
        }
      ],
      "stateMutability": "view",
      "type": "function"
    },
    {
      "inputs": [],
      "name": "price5Plus",
      "outputs": [
        {
          "internalType": "uint256",
          "name": "",
          "type": "uint256"
        }
      ],
      "stateMutability": "view",
      "type": "function"
    },
    {
      "inputs": [],
      "name": "renounceOwnership",
      "outputs": [],
      "stateMutability": "nonpayable",
      "type": "function"
    },
    {
      "inputs": [
        {
          "internalType": "uint256",
          "name": "p1",
          "type": "uint256"
        },
        {
          "internalType": "uint256",
          "name": "p2",
          "type": "uint256"
        },
        {
          "internalType": "uint256",
          "name": "p3",
          "type": "uint256"
        },
        {
          "internalType": "uint256",
          "name": "p4",
          "type": "uint256"
        },
        {
          "internalType": "uint256",
          "name": "p5",
          "type": "uint256"
        }
      ],
      "name": "setPrices",
      "outputs": [],
      "stateMutability": "nonpayable",
      "type": "function"
    },
    {
      "inputs": [
        {
          "internalType": "address",
          "name": "newOwner",
          "type": "address"
        }
      ],
      "name": "transferOwnership",
      "outputs": [],
      "stateMutability": "nonpayable",
      "type": "function"
    }
  ],
  "bytecode": "0x6080806040523460965733156083575f8054336001600160a01b0319821681178355916001600160a01b03909116907f8be0079c531659141344cd1fd0a4f28419497f9722a3daafe3b4186f6b6457e09080a36302faf08060015563017d784060025562e4e1c060035562989680600455621e84806005556105d9908161009b8239f35b631e4fbdf760e01b5f525f60045260245ffd5b5f80fdfe6080806040526004361015610012575f80fd5b5f3560e01c90816313328628146104ef5750806320362a42146104d257806350e9a715146102b85780636e293c5a1461029b578063715018a61461024457806378419612146102275780637bc6ec1a146101ab5780638da5cb5b14610184578063aed2845c14610167578063b8f26c321461014a578063df5b407c1461012d5763f2fde38b146100a0575f80fd5b34610129576020366003190112610129576004356001600160a01b03811690819003610129576100ce61057d565b8015610116575f80546001600160a01b03198116831782556001600160a01b0316907f8be0079c531659141344cd1fd0a4f28419497f9722a3daafe3b4186f6b6457e09080a3005b631e4fbdf760e01b5f525f60045260245ffd5b5f80fd5b34610129575f366003190112610129576020600354604051908152f35b34610129575f3660031901126101295760206040516224ea008152f35b34610129575f366003190112610129576020600554604051908152f35b34610129575f366003190112610129575f546040516001600160a01b039091168152602090f35b346101295760a0366003190112610129577f6a40bdd3a45e084f5fca97b43d8f243d80b9ab02831e924b34872c53ff2a085e60a06004356084356064356044356024356101f661057d565b84600155806002558160035582600455836005556040519485526020850152604084015260608301526080820152a1005b34610129575f366003190112610129576020600154604051908152f35b34610129575f3660031901126101295761025c61057d565b5f80546001600160a01b0319811682556001600160a01b03167f8be0079c531659141344cd1fd0a4f28419497f9722a3daafe3b4186f6b6457e08280a3005b34610129575f366003190112610129576020600254604051908152f35b346101295760603660031901126101295760043567ffffffffffffffff8111610129573660238201121561012957806004013567ffffffffffffffff811161012957366024828401011161012957604435915f602061031561050b565b828152015282156104c35760405191601f8101601f19908116603f011683019067ffffffffffffffff8211848310176104af578060245f946020946040528287520183860137830101525f80918051925b83811061040b578483600181036103d257506001545b8181029181830414901517156103be576301e13380604091046103a060243561052b565b60206103aa61050b565b838152019081528251918252516020820152f35b634e487b7160e01b5f52601160045260245ffd5b600281036103e3575060025461037c565b600381036103f4575060035461037c565b6004036104035760045461037c565b60055461037c565b815181101561049b57818101602001516001600160f81b031916600160ff1b8110156104505750600181018091116103be57915b5f1981146103be5760010191610366565b600760fd1b81101561046e5750600281018091116103be579161043f565b600f60fc1b111561048a57600381018091116103be579161043f565b600481018091116103be579161043f565b634e487b7160e01b5f52603260045260245ffd5b634e487b7160e01b5f52604160045260245ffd5b63346ab43760e11b5f5260045ffd5b34610129575f366003190112610129576020600454604051908152f35b34610129575f36600319011261012957806305f5e10060209252f35b604051906040820182811067ffffffffffffffff8211176104af57604052565b8015610578574281116105785742034281116103be576224ea00811015610578576224ea00036224ea0081116103be57806305f5e10002906305f5e1008204036103be576224ea00900490565b505f90565b5f546001600160a01b0316330361059057565b63118cdaa760e01b5f523360045260245ffdfea26469706673582212207f02a1da9974412a61e1da25b373a1052172cd58f062e01da0afefc91b76996164736f6c634300081a0033",
  "linkReferences": {},
  "deployedLinkReferences": {}
}