{
  "_format": "hh-sol-artifact-1",
  "contractName": "ArcNSReverseRegistrar",
  "sourceName": "contracts/v3/registrar/ArcNSReverseRegistrar.sol",
  "abi": [
    {
      "inputs": [
        {
          "internalType": "contract IArcNSRegistry",
          "name": "registry_",
          "type": "address"
        },
        {
          "internalType": "contract ArcNSResolver",
          "name": "defaultResolver_",
          "type": "address"
        }
      ],
      "stateMutability": "nonpayable",
      "type": "constructor"
    },
    {
      "inputs": [],
      "name": "NotAuthorised",
      "type": "error"
    },
    {
      "inputs": [
        {
          "internalType": "address",
          "name": "owner",
          "type": "address"
        }
      ],
      "name": "OwnableInvalidOwner",
      "type": "error"
    },
    {
      "inputs": [
        {
          "internalType": "address",
          "name": "account",
          "type": "address"
        }
      ],
      "name": "OwnableUnauthorizedAccount",
      "type": "error"
    },
    {
      "inputs": [],
      "name": "ZeroResolver",
      "type": "error"
    },
    {
      "anonymous": false,
      "inputs": [
        {
          "indexed": true,
          "internalType": "address",
          "name": "resolver",
          "type": "address"
        }
      ],
      "name": "DefaultResolverChanged",
      "type": "event"
    },
    {
      "anonymous": false,
      "inputs": [
        {
          "indexed": true,
          "internalType": "address",
          "name": "previousOwner",
          "type": "address"
        },
        {
          "indexed": true,
          "internalType": "address",
          "name": "newOwner",
          "type": "address"
        }
      ],
      "name": "OwnershipTransferred",
      "type": "event"
    },
    {
      "anonymous": false,
      "inputs": [
        {
          "indexed": true,
          "internalType": "address",
          "name": "addr",
          "type": "address"
        },
        {
          "indexed": true,
          "internalType": "bytes32",
          "name": "node",
          "type": "bytes32"
        }
      ],
      "name": "ReverseClaimed",
      "type": "event"
    },
    {
      "inputs": [],
      "name": "ADDR_REVERSE_NODE",
      "outputs": [
        {
          "internalType": "bytes32",
          "name": "",
          "type": "bytes32"
        }
      ],
      "stateMutability": "view",
      "type": "function"
    },
    {
      "inputs": [
        {
          "internalType": "address",
          "name": "addr_",
          "type": "address"
        },
        {
          "internalType": "address",
          "name": "owner_",
          "type": "address"
        },
        {
          "internalType": "address",
          "name": "resolver_",
          "type": "address"
        }
      ],
      "name": "claimWithResolver",
      "outputs": [
        {
          "internalType": "bytes32",
          "name": "",
          "type": "bytes32"
        }
      ],
      "stateMutability": "nonpayable",
      "type": "function"
    },
    {
      "inputs": [],
      "name": "defaultResolver",
      "outputs": [
        {
          "internalType": "contract ArcNSResolver",
          "name": "",
          "type": "address"
        }
      ],
      "stateMutability": "view",
      "type": "function"
    },
    {
      "inputs": [
        {
          "internalType": "address",
          "name": "addr_",
          "type": "address"
        }
      ],
      "name": "node",
      "outputs": [
        {
          "internalType": "bytes32",
          "name": "",
          "type": "bytes32"
        }
      ],
      "stateMutability": "pure",
      "type": "function"
    },
    {
      "inputs": [],
      "name": "owner",
      "outputs": [
        {
          "internalType": "address",
          "name": "",
          "type": "address"
        }
      ],
      "stateMutability": "view",
      "type": "function"
    },
    {
      "inputs": [],
      "name": "registry",
      "outputs": [
        {
          "internalType": "contract IArcNSRegistry",
          "name": "",
          "type": "address"
        }
      ],
      "stateMutability": "view",
      "type": "function"
    },
    {
      "inputs": [],
      "name": "renounceOwnership",
      "outputs": [],
      "stateMutability": "nonpayable",
      "type": "function"
    },
    {
      "inputs": [
        {
          "internalType": "contract ArcNSResolver",
          "name": "resolver_",
          "type": "address"
        }
      ],
      "name": "setDefaultResolver",
      "outputs": [],
      "stateMutability": "nonpayable",
      "type": "function"
    },
    {
      "inputs": [
        {
          "internalType": "string",
          "name": "name_",
          "type": "string"
        }
      ],
      "name": "setName",
      "outputs": [
        {
          "internalType": "bytes32",
          "name": "",
          "type": "bytes32"
        }
      ],
      "stateMutability": "nonpayable",
      "type": "function"
    },
    {
      "inputs": [
        {
          "internalType": "address",
          "name": "addr_",
          "type": "address"
        },
        {
          "internalType": "string",
          "name": "name_",
          "type": "string"
        }
      ],
      "name": "setReverseRecord",
      "outputs": [],
      "stateMutability": "nonpayable",
      "type": "function"
    },
    {
      "inputs": [
        {
          "internalType": "address",
          "name": "newOwner",
          "type": "address"
        }
      ],
      "name": "transferOwnership",
      "outputs": [],
      "stateMutability": "nonpayable",
      "type": "function"
    }
  ],
  "bytecode": "0x60a03461010f57601f61094638819003918201601f19168301916001600160401b0383118484101761011357808492604094855283398101031261010f578051906001600160a01b038216820361010f57602001516001600160a01b0381169081900361010f5733156100fc575f8054336001600160a01b0319821681178355604051949290916001600160a01b0316907f8be0079c531659141344cd1fd0a4f28419497f9722a3daafe3b4186f6b6457e09080a381156100ed57608052600180546001600160a01b03191691909117905561081e90816101288239608051818181610369015261061f0152f35b6309e7fc4760e01b5f5260045ffd5b631e4fbdf760e01b5f525f60045260245ffd5b5f80fd5b634e487b7160e01b5f52604160045260245ffdfe60806040526004361015610011575f80fd5b5f803560e01c80632d7ddf361461044957806353ab335d146103f2578063715018a6146103985780637b103999146103535780637cf8a2eb1461032b578063828eab0e146103025780638da5cb5b146102db578063bffbe61c14610281578063c47f00271461019c578063c66485b21461011b5763f2fde38b14610093575f80fd5b34610118576020366003190112610118576100ac610539565b6100b46106bd565b6001600160a01b031680156101045781546001600160a01b03198116821783556001600160a01b03167f8be0079c531659141344cd1fd0a4f28419497f9722a3daafe3b4186f6b6457e08380a380f35b631e4fbdf760e01b82526004829052602482fd5b80fd5b5034610118576020366003190112610118576004356001600160a01b038116908190036101985761014a6106bd565b801561018957600180546001600160a01b031916821790557feae17a84d9eb83d8c8eb317f9e7d64857bc363fa51674d996c023f4340c577cf8280a280f35b6309e7fc4760e01b8252600482fd5b5080fd5b50346101185760203660031901126101185760043567ffffffffffffffff8111610198576101ce90369060040161054f565b90826101e560018060a01b036001541633336105e0565b6001549093906001600160a01b0316803b1561027d5761021d9383604051809681958294637737221360e01b84528a600485016105b3565b03925af180156102725761025d575b6040516020908380337f6ada868dd3058cf77a48a74489fd7963688e5464b2b0fa957ace976243270e928880a38152f35b61026883809261057d565b610198575f61022c565b6040513d85823e3d90fd5b8280fd5b50346101185760203660031901126101185760206102a56102a0610539565b6106e3565b604051828101915f805160206107c983398151915283526040820152604081526102d060608261057d565b519020604051908152f35b5034610118578060031936011261011857546040516001600160a01b039091168152602090f35b50346101185780600319360112610118576001546040516001600160a01b039091168152602090f35b503461011857806003193601126101185760206040515f805160206107c98339815191528152f35b50346101185780600319360112610118576040517f00000000000000000000000000000000000000000000000000000000000000006001600160a01b03168152602090f35b50346101185780600319360112610118576103b16106bd565b80546001600160a01b03198116825581906001600160a01b03167f8be0079c531659141344cd1fd0a4f28419497f9722a3daafe3b4186f6b6457e08280a380f35b50346101185760603660031901126101185761040c610539565b602435906001600160a01b038216820361027d57604435926001600160a01b03841684036101185760206104418585856105e0565b604051908152f35b503461053557604036600319011261053557610463610539565b60243567ffffffffffffffff81116105355761048390369060040161054f565b60015491929161049d906001600160a01b031683806105e0565b9260018060a01b036001541691823b15610535576104d5925f9283604051809681958294637737221360e01b84528b600485016105b3565b03925af1801561052a57610515575b506001600160a01b03167f6ada868dd3058cf77a48a74489fd7963688e5464b2b0fa957ace976243270e928380a380f35b6105229193505f9061057d565b5f915f6104e4565b6040513d5f823e3d90fd5b5f80fd5b600435906001600160a01b038216820361053557565b9181601f840112156105355782359167ffffffffffffffff8311610535576020838186019501011161053557565b90601f8019910116810190811067ffffffffffffffff82111761059f57604052565b634e487b7160e01b5f52604160045260245ffd5b91926060938192845260406020850152816040850152848401375f828201840152601f01601f1916010190565b6105ec909291926106e3565b60405160208101905f805160206107c983398151915282528260408201526040815261061960608261057d565b519020927f00000000000000000000000000000000000000000000000000000000000000006001600160a01b0316803b15610535576040516305ef2c7f60e41b81525f805160206107c9833981519152600482015260248101939093526001600160a01b039182166044840152921660648201525f608482018190529091829060a490829084905af1801561052a576106b0575090565b5f6106ba9161057d565b90565b5f546001600160a01b031633036106d057565b63118cdaa760e01b5f523360045260245ffd5b6040516106f160608261057d565b60288152602081019160403684376040519061070e60408361057d565b601082526f181899199a1a9b1b9c1cb0b131b232b360811b60208301526027906001600160a01b03165b5f8212156107495750505051902090565b6001600160f81b031961075f600f8316856107a3565b51165f1a61076d83866107a3565b5360041c60016001609c1b031690600160ff1b811461078f575f190190610738565b634e487b7160e01b5f52601160045260245ffd5b9081518110156107b4570160200190565b634e487b7160e01b5f52603260045260245ffdfe91d1777781884d03a6757a803996e38de2a42967fb37eeaca72729271025a9e2a26469706673582212207c476ff2ea63d27a554dca38e9c77f08bac5d3724ee877de6e0e72d6c76238fe64736f6c634300081a0033",
  "linkReferences": {},
  "deployedLinkReferences": {}
}