{
  "_format": "hh-sol-artifact-1",
  "contractName": "ArcNSBaseRegistrar",
  "sourceName": "contracts/registrar/ArcNSBaseRegistrar.sol",
  "abi": [
    {
      "inputs": [
        {
          "internalType": "contract IArcNSRegistry",
          "name": "_registry",
          "type": "address"
        },
        {
          "internalType": "bytes32",
          "name": "_baseNode",
          "type": "bytes32"
        },
        {
          "internalType": "string",
          "name": "_tld",
          "type": "string"
        }
      ],
      "stateMutability": "nonpayable",
      "type": "constructor"
    },
    {
      "inputs": [
        {
          "internalType": "address",
          "name": "sender",
          "type": "address"
        },
        {
          "internalType": "uint256",
          "name": "tokenId",
          "type": "uint256"
        },
        {
          "internalType": "address",
          "name": "owner",
          "type": "address"
        }
      ],
      "name": "ERC721IncorrectOwner",
      "type": "error"
    },
    {
      "inputs": [
        {
          "internalType": "address",
          "name": "operator",
          "type": "address"
        },
        {
          "internalType": "uint256",
          "name": "tokenId",
          "type": "uint256"
        }
      ],
      "name": "ERC721InsufficientApproval",
      "type": "error"
    },
    {
      "inputs": [
        {
          "internalType": "address",
          "name": "approver",
          "type": "address"
        }
      ],
      "name": "ERC721InvalidApprover",
      "type": "error"
    },
    {
      "inputs": [
        {
          "internalType": "address",
          "name": "operator",
          "type": "address"
        }
      ],
      "name": "ERC721InvalidOperator",
      "type": "error"
    },
    {
      "inputs": [
        {
          "internalType": "address",
          "name": "owner",
          "type": "address"
        }
      ],
      "name": "ERC721InvalidOwner",
      "type": "error"
    },
    {
      "inputs": [
        {
          "internalType": "address",
          "name": "receiver",
          "type": "address"
        }
      ],
      "name": "ERC721InvalidReceiver",
      "type": "error"
    },
    {
      "inputs": [
        {
          "internalType": "address",
          "name": "sender",
          "type": "address"
        }
      ],
      "name": "ERC721InvalidSender",
      "type": "error"
    },
    {
      "inputs": [
        {
          "internalType": "uint256",
          "name": "tokenId",
          "type": "uint256"
        }
      ],
      "name": "ERC721NonexistentToken",
      "type": "error"
    },
    {
      "inputs": [
        {
          "internalType": "address",
          "name": "owner",
          "type": "address"
        }
      ],
      "name": "OwnableInvalidOwner",
      "type": "error"
    },
    {
      "inputs": [
        {
          "internalType": "address",
          "name": "account",
          "type": "address"
        }
      ],
      "name": "OwnableUnauthorizedAccount",
      "type": "error"
    },
    {
      "anonymous": false,
      "inputs": [
        {
          "indexed": true,
          "internalType": "address",
          "name": "owner",
          "type": "address"
        },
        {
          "indexed": true,
          "internalType": "address",
          "name": "approved",
          "type": "address"
        },
        {
          "indexed": true,
          "internalType": "uint256",
          "name": "tokenId",
          "type": "uint256"
        }
      ],
      "name": "Approval",
      "type": "event"
    },
    {
      "anonymous": false,
      "inputs": [
        {
          "indexed": true,
          "internalType": "address",
          "name": "owner",
          "type": "address"
        },
        {
          "indexed": true,
          "internalType": "address",
          "name": "operator",
          "type": "address"
        },
        {
          "indexed": false,
          "internalType": "bool",
          "name": "approved",
          "type": "bool"
        }
      ],
      "name": "ApprovalForAll",
      "type": "event"
    },
    {
      "anonymous": false,
      "inputs": [
        {
          "indexed": true,
          "internalType": "address",
          "name": "controller",
          "type": "address"
        }
      ],
      "name": "ControllerAdded",
      "type": "event"
    },
    {
      "anonymous": false,
      "inputs": [
        {
          "indexed": true,
          "internalType": "address",
          "name": "controller",
          "type": "address"
        }
      ],
      "name": "ControllerRemoved",
      "type": "event"
    },
    {
      "anonymous": false,
      "inputs": [
        {
          "indexed": true,
          "internalType": "uint256",
          "name": "id",
          "type": "uint256"
        },
        {
          "indexed": true,
          "internalType": "address",
          "name": "owner",
          "type": "address"
        },
        {
          "indexed": false,
          "internalType": "uint256",
          "name": "expires",
          "type": "uint256"
        }
      ],
      "name": "NameRegistered",
      "type": "event"
    },
    {
      "anonymous": false,
      "inputs": [
        {
          "indexed": true,
          "internalType": "uint256",
          "name": "id",
          "type": "uint256"
        },
        {
          "indexed": false,
          "internalType": "uint256",
          "name": "expires",
          "type": "uint256"
        }
      ],
      "name": "NameRenewed",
      "type": "event"
    },
    {
      "anonymous": false,
      "inputs": [
        {
          "indexed": true,
          "internalType": "uint256",
          "name": "id",
          "type": "uint256"
        },
        {
          "indexed": true,
          "internalType": "address",
          "name": "newOwner",
          "type": "address"
        }
      ],
      "name": "NameTransferred",
      "type": "event"
    },
    {
      "anonymous": false,
      "inputs": [
        {
          "indexed": true,
          "internalType": "address",
          "name": "previousOwner",
          "type": "address"
        },
        {
          "indexed": true,
          "internalType": "address",
          "name": "newOwner",
          "type": "address"
        }
      ],
      "name": "OwnershipTransferred",
      "type": "event"
    },
    {
      "anonymous": false,
      "inputs": [
        {
          "indexed": true,
          "internalType": "address",
          "name": "from",
          "type": "address"
        },
        {
          "indexed": true,
          "internalType": "address",
          "name": "to",
          "type": "address"
        },
        {
          "indexed": true,
          "internalType": "uint256",
          "name": "tokenId",
          "type": "uint256"
        }
      ],
      "name": "Transfer",
      "type": "event"
    },
    {
      "inputs": [],
      "name": "GRACE_PERIOD",
      "outputs": [
        {
          "internalType": "uint256",
          "name": "",
          "type": "uint256"
        }
      ],
      "stateMutability": "view",
      "type": "function"
    },
    {
      "inputs": [
        {
          "internalType": "address",
          "name": "controller",
          "type": "address"
        }
      ],
      "name": "addController",
      "outputs": [],
      "stateMutability": "nonpayable",
      "type": "function"
    },
    {
      "inputs": [
        {
          "internalType": "address",
          "name": "to",
          "type": "address"
        },
        {
          "internalType": "uint256",
          "name": "tokenId",
          "type": "uint256"
        }
      ],
      "name": "approve",
      "outputs": [],
      "stateMutability": "nonpayable",
      "type": "function"
    },
    {
      "inputs": [
        {
          "internalType": "uint256",
          "name": "id",
          "type": "uint256"
        }
      ],
      "name": "available",
      "outputs": [
        {
          "internalType": "bool",
          "name": "",
          "type": "bool"
        }
      ],
      "stateMutability": "view",
      "type": "function"
    },
    {
      "inputs": [
        {
          "internalType": "address",
          "name": "owner",
          "type": "address"
        }
      ],
      "name": "balanceOf",
      "outputs": [
        {
          "internalType": "uint256",
          "name": "",
          "type": "uint256"
        }
      ],
      "stateMutability": "view",
      "type": "function"
    },
    {
      "inputs": [],
      "name": "baseNode",
      "outputs": [
        {
          "internalType": "bytes32",
          "name": "",
          "type": "bytes32"
        }
      ],
      "stateMutability": "view",
      "type": "function"
    },
    {
      "inputs": [
        {
          "internalType": "address",
          "name": "",
          "type": "address"
        }
      ],
      "name": "controllers",
      "outputs": [
        {
          "internalType": "bool",
          "name": "",
          "type": "bool"
        }
      ],
      "stateMutability": "view",
      "type": "function"
    },
    {
      "inputs": [
        {
          "internalType": "uint256",
          "name": "tokenId",
          "type": "uint256"
        }
      ],
      "name": "getApproved",
      "outputs": [
        {
          "internalType": "address",
          "name": "",
          "type": "address"
        }
      ],
      "stateMutability": "view",
      "type": "function"
    },
    {
      "inputs": [
        {
          "internalType": "address",
          "name": "owner",
          "type": "address"
        },
        {
          "internalType": "address",
          "name": "operator",
          "type": "address"
        }
      ],
      "name": "isApprovedForAll",
      "outputs": [
        {
          "internalType": "bool",
          "name": "",
          "type": "bool"
        }
      ],
      "stateMutability": "view",
      "type": "function"
    },
    {
      "inputs": [],
      "name": "name",
      "outputs": [
        {
          "internalType": "string",
          "name": "",
          "type": "string"
        }
      ],
      "stateMutability": "view",
      "type": "function"
    },
    {
      "inputs": [
        {
          "internalType": "uint256",
          "name": "",
          "type": "uint256"
        }
      ],
      "name": "nameExpires",
      "outputs": [
        {
          "internalType": "uint256",
          "name": "",
          "type": "uint256"
        }
      ],
      "stateMutability": "view",
      "type": "function"
    },
    {
      "inputs": [],
      "name": "owner",
      "outputs": [
        {
          "internalType": "address",
          "name": "",
          "type": "address"
        }
      ],
      "stateMutability": "view",
      "type": "function"
    },
    {
      "inputs": [
        {
          "internalType": "uint256",
          "name": "tokenId",
          "type": "uint256"
        }
      ],
      "name": "ownerOf",
      "outputs": [
        {
          "internalType": "address",
          "name": "",
          "type": "address"
        }
      ],
      "stateMutability": "view",
      "type": "function"
    },
    {
      "inputs": [
        {
          "internalType": "uint256",
          "name": "id",
          "type": "uint256"
        },
        {
          "internalType": "address",
          "name": "owner_",
          "type": "address"
        }
      ],
      "name": "reclaim",
      "outputs": [],
      "stateMutability": "nonpayable",
      "type": "function"
    },
    {
      "inputs": [
        {
          "internalType": "uint256",
          "name": "id",
          "type": "uint256"
        },
        {
          "internalType": "address",
          "name": "owner_",
          "type": "address"
        },
        {
          "internalType": "uint256",
          "name": "duration",
          "type": "uint256"
        }
      ],
      "name": "register",
      "outputs": [
        {
          "internalType": "uint256",
          "name": "",
          "type": "uint256"
        }
      ],
      "stateMutability": "nonpayable",
      "type": "function"
    },
    {
      "inputs": [
        {
          "internalType": "uint256",
          "name": "id",
          "type": "uint256"
        },
        {
          "internalType": "address",
          "name": "owner_",
          "type": "address"
        },
        {
          "internalType": "uint256",
          "name": "duration",
          "type": "uint256"
        },
        {
          "internalType": "address",
          "name": "resolver_",
          "type": "address"
        }
      ],
      "name": "registerWithResolver",
      "outputs": [
        {
          "internalType": "uint256",
          "name": "",
          "type": "uint256"
        }
      ],
      "stateMutability": "nonpayable",
      "type": "function"
    },
    {
      "inputs": [],
      "name": "registry",
      "outputs": [
        {
          "internalType": "contract IArcNSRegistry",
          "name": "",
          "type": "address"
        }
      ],
      "stateMutability": "view",
      "type": "function"
    },
    {
      "inputs": [
        {
          "internalType": "address",
          "name": "controller",
          "type": "address"
        }
      ],
      "name": "removeController",
      "outputs": [],
      "stateMutability": "nonpayable",
      "type": "function"
    },
    {
      "inputs": [
        {
          "internalType": "uint256",
          "name": "id",
          "type": "uint256"
        },
        {
          "internalType": "uint256",
          "name": "duration",
          "type": "uint256"
        }
      ],
      "name": "renew",
      "outputs": [
        {
          "internalType": "uint256",
          "name": "",
          "type": "uint256"
        }
      ],
      "stateMutability": "nonpayable",
      "type": "function"
    },
    {
      "inputs": [],
      "name": "renounceOwnership",
      "outputs": [],
      "stateMutability": "nonpayable",
      "type": "function"
    },
    {
      "inputs": [
        {
          "internalType": "address",
          "name": "from",
          "type": "address"
        },
        {
          "internalType": "address",
          "name": "to",
          "type": "address"
        },
        {
          "internalType": "uint256",
          "name": "tokenId",
          "type": "uint256"
        }
      ],
      "name": "safeTransferFrom",
      "outputs": [],
      "stateMutability": "nonpayable",
      "type": "function"
    },
    {
      "inputs": [
        {
          "internalType": "address",
          "name": "from",
          "type": "address"
        },
        {
          "internalType": "address",
          "name": "to",
          "type": "address"
        },
        {
          "internalType": "uint256",
          "name": "tokenId",
          "type": "uint256"
        },
        {
          "internalType": "bytes",
          "name": "data",
          "type": "bytes"
        }
      ],
      "name": "safeTransferFrom",
      "outputs": [],
      "stateMutability": "nonpayable",
      "type": "function"
    },
    {
      "inputs": [
        {
          "internalType": "address",
          "name": "operator",
          "type": "address"
        },
        {
          "internalType": "bool",
          "name": "approved",
          "type": "bool"
        }
      ],
      "name": "setApprovalForAll",
      "outputs": [],
      "stateMutability": "nonpayable",
      "type": "function"
    },
    {
      "inputs": [
        {
          "internalType": "bytes4",
          "name": "interfaceId",
          "type": "bytes4"
        }
      ],
      "name": "supportsInterface",
      "outputs": [
        {
          "internalType": "bool",
          "name": "",
          "type": "bool"
        }
      ],
      "stateMutability": "view",
      "type": "function"
    },
    {
      "inputs": [],
      "name": "symbol",
      "outputs": [
        {
          "internalType": "string",
          "name": "",
          "type": "string"
        }
      ],
      "stateMutability": "view",
      "type": "function"
    },
    {
      "inputs": [],
      "name": "tld",
      "outputs": [
        {
          "internalType": "string",
          "name": "",
          "type": "string"
        }
      ],
      "stateMutability": "view",
      "type": "function"
    },
    {
      "inputs": [
        {
          "internalType": "uint256",
          "name": "tokenId",
          "type": "uint256"
        }
      ],
      "name": "tokenURI",
      "outputs": [
        {
          "internalType": "string",
          "name": "",
          "type": "string"
        }
      ],
      "stateMutability": "view",
      "type": "function"
    },
    {
      "inputs": [
        {
          "internalType": "address",
          "name": "from",
          "type": "address"
        },
        {
          "internalType": "address",
          "name": "to",
          "type": "address"
        },
        {
          "internalType": "uint256",
          "name": "tokenId",
          "type": "uint256"
        }
      ],
      "name": "transferFrom",
      "outputs": [],
      "stateMutability": "nonpayable",
      "type": "function"
    },
    {
      "inputs": [
        {
          "internalType": "address",
          "name": "newOwner",
          "type": "address"
        }
      ],
      "name": "transferOwnership",
      "outputs": [],
      "stateMutability": "nonpayable",
      "type": "function"
    }
  ],
  "bytecode": "0x60c080604052346105c557612e5c803803809161001c82856105c9565b83398101906060818303126105c5578051906001600160a01b03821682036105c5576020810151604082015190916001600160401b0382116105c557019183601f840112156105c55782516001600160401b0381116103de576040519361008d601f8301601f1916602001866105c9565b8185526020850195602083830101116105c557815f926020809301885e8501015260405165020b931a729960d51b60208201526100ef60056026838751808a8484015e810164204e616d6560d81b838201520301601a198101845201826105c9565b61012660266040518097654152434e532d60d01b6020830152875180918484015e81015f838201520301601f1981018752866105c9565b8051906001600160401b0382116103de575f5490600182811c921680156105bb575b60208310146103c05781601f84931161054e575b50602090601f83116001146104eb575f926104e0575b50508160011b915f199060031b1c1916175f555b83516001600160401b0381116103de57600154600181811c911680156104d6575b60208210146103c057601f8111610473575b50602094601f8211600114610410579481929394955f92610405575b50508160011b915f199060031b1c1916176001555b33156103f25760068054336001600160a01b0319821681179092556001600160a01b03167f8be0079c531659141344cd1fd0a4f28419497f9722a3daafe3b4186f6b6457e05f80a360805260a05280516001600160401b0381116103de57600754600181811c911680156103d4575b60208210146103c057601f811161035d575b50602091601f82116001146102fd579181925f926102f2575b50508160011b915f199060031b1c1916176007555b60405161286f90816105ed82396080518181816101b201528181611059015281816114ea0152818161169c0152611907015260a0518181816101880152818161050b01528181611026015281816114c201526118dd0152f35b015190505f80610284565b601f1982169260075f52805f20915f5b8581106103455750836001951061032d575b505050811b01600755610299565b01515f1960f88460031b161c191690555f808061031f565b9192602060018192868501518155019401920161030d565b60075f527fa66cc928b5edb82af9bd49922954155ab7b0942694bea4ce44661d9a8736c688601f830160051c810191602084106103b6575b601f0160051c01905b8181106103ab575061026b565b5f815560010161039e565b9091508190610395565b634e487b7160e01b5f52602260045260245ffd5b90607f1690610259565b634e487b7160e01b5f52604160045260245ffd5b631e4fbdf760e01b5f525f60045260245ffd5b015190505f806101d5565b601f1982169560015f52805f20915f5b88811061045b57508360019596979810610443575b505050811b016001556101ea565b01515f1960f88460031b161c191690555f8080610435565b91926020600181928685015181550194019201610420565b60015f527fb10e2d527612073b26eecdfd717e6a320cf44b4afac2b0732d9fcbe2b7fa0cf6601f830160051c810191602084106104cc575b601f0160051c01905b8181106104c157506101b9565b5f81556001016104b4565b90915081906104ab565b90607f16906101a7565b015190505f80610172565b5f8080528281209350601f198516905b818110610536575090846001959493921061051e575b505050811b015f55610186565b01515f1960f88460031b161c191690555f8080610511565b929360206001819287860151815501950193016104fb565b5f80529091507f290decd9548b62a8d60345a988386fc84ba6bc95484008f6362f93160ef3e563601f840160051c810191602085106105b1575b90601f859493920160051c01905b8181106105a3575061015c565b5f8155849350600101610596565b9091508190610588565b91607f1691610148565b5f80fd5b601f909101601f19168101906001600160401b038211908210176103de5760405256fe6080806040526004361015610012575f80fd5b5f905f3560e01c90816301ffc9a714611c345750806306fdde0314611b92578063081812fc14611b56578063095ea7b314611a6c57806323b872dd14611a5557806328ed4f6c146118b25780632d551432146117e857806342842e0e146117bd5780636352211e1461177757806370a0823114611726578063715018a6146116cb5780637b103999146116875780637bd6b3a4146114825780638da5cb5b1461145957806395d89b411461137657806396e494e81461134d578063a22cb46514611291578063a7fc7a0714611228578063b88d4fde14611193578063c1a287e214611175578063c475abff14611005578063c87b56dd14610597578063d6e4fa861461056d578063da8c229e1461052e578063ddf7fcb0146104f3578063e985e9c51461049b578063f2fde38b14610412578063f6a74ed7146103ac5763fca247ac1461015d575f80fd5b346103a95760603660031901126103a957600435610179611cd9565b6040516302571be360e01b81527f00000000000000000000000000000000000000000000000000000000000000006004820181905292907f00000000000000000000000000000000000000000000000000000000000000006001600160a01b031690602081602481855afa90811561039e57869261021060209387936102b49a91610371575b506001600160a01b03163014611f1f565b3384526009835261022760ff604086205416611fc6565b6102386102338661209b565b612024565b84846102466044354261207a565b828252600886526040808320829055838352600287528220549099906001600160a01b031661034a576102798386612484565b6040516306ab592360e01b8152600481019190915260248101929092526001600160a01b039093166044820152978892839182906064820190565b03925af190811561033e5750610308575b604051838152602094506001600160a01b03909216917fb3d987963d01b2f68493b4bdb130988f157ea43070d4ad840fee0466ed9370d9908590a3604051908152f35b6020843d602011610336575b8161032160209383611d61565b8101031261033257602093506102c5565b5f80fd5b3d9150610314565b604051903d90823e3d90fd5b82825260028652604082205461036c90849087906001600160a01b031661242a565b610279565b6103919150853d8711610397575b6103898183611d61565b810190611f00565b5f6101ff565b503d61037f565b6040513d88823e3d90fd5b80fd5b50346103a95760203660031901126103a9576103c6611cc3565b6103ce612403565b6001600160a01b0316808252600960205260408220805460ff191690557f33d83959be2573f5453b12eb9d43b3499bc57d96bd2f067ba44803c859e811138280a280f35b50346103a95760203660031901126103a95761042c611cc3565b610434612403565b6001600160a01b0316801561048757600680546001600160a01b0319811683179091556001600160a01b03167f8be0079c531659141344cd1fd0a4f28419497f9722a3daafe3b4186f6b6457e08380a380f35b631e4fbdf760e01b82526004829052602482fd5b50346103a95760403660031901126103a95760406104b7611cc3565b916104c0611cd9565b9260018060a01b031681526005602052209060018060a01b03165f52602052602060ff60405f2054166040519015158152f35b50346103a957806003193601126103a95760206040517f00000000000000000000000000000000000000000000000000000000000000008152f35b50346103a95760203660031901126103a95760209060ff906040906001600160a01b03610559611cc3565b168152600984522054166040519015158152f35b50346103a95760203660031901126103a95760406020916004358152600883522054604051908152f35b50346103a95760203660031901126103a9576004356105b581612280565b50604051906105c5606083611d61565b6040808352602083019036823760409182516105e18482611d61565b601081526f181899199a1a9b1b9c1cb0b131b232b360811b6020820152855b60208110610f6157505061067683946106446022602196518096602082019461060f60f31b86525180918484015e81018a838201520301601f198101865285611d61565b61066886519586926020840196518091885e8301601760f91b6020820152016121f9565b03601f198101855284611d61565b84526008602052828420549061068b82612526565b91421191825f14610f3c5784516106a28682611d61565b600781526608d9598d0d0d0d60ca1b60208201525b8315610f175785516106c98782611d61565b60078152661156141254915160ca1b6020820152905b86517f3c73766720786d6c6e733d22687474703a2f2f7777772e77332e6f72672f32306020808301919091527f30302f737667222077696474683d2234303022206865696768743d2234303022828a01527f2076696577426f783d223020302034303020343030223e00000000000000000060608301527f3c646566733e3c6c696e6561724772616469656e742069643d2262672220783160778301527f3d223025222079313d223025222078323d2231303025222079323d2231303025609783015261111f60f11b60b78301527f3c73746f70206f66667365743d22302522207374796c653d2273746f702d636f60b98301527f6c6f723a23306631373261222f3e3c73746f70206f66667365743d223130302560d98301527f22207374796c653d2273746f702d636f6c6f723a23316533613566222f3e3c2f60f9830152753634b732b0b923b930b234b2b73a1f1e17b232b3399f60511b6101198301527f3c726563742077696474683d2234303022206865696768743d2234303022206661012f8301527f696c6c3d2275726c2823626729222072783d223230222f3e000000000000000061014f8301527f3c636972636c652063783d22323030222063793d223132302220723d2235302261016783015266103334b6361e9160c91b610187830152825191938493909291810191808361018e87015e71111037b830b1b4ba3c9e911817189a91179f60711b61018e918601918201527f3c7465787420783d223230302220793d223133302220666f6e742d66616d696c6101a08201527f793d226d6f6e6f73706163652220666f6e742d73697a653d223332222066696c6101c082015262361e9160e91b6101e082015281519081846101e383015e7f2220746578742d616e63686f723d226d6964646c652220666f6e742d776569676101e3929091019182015273343a1e913137b632111f20a9219e17ba32bc3a1f60611b6102038201527f3c7465787420783d223230302220793d223232302220666f6e742d66616d696c6102178201527f793d226d6f6e6f73706163652220666f6e742d73697a653d223232222066696c6102378201527f6c3d22236666666666662220746578742d616e63686f723d226d6964646c652261025782015273103337b73a16bbb2b4b3b43a1e913137b632111f60611b61027782015289519061018e81019082908a9061028b015e0160550160a88101661e17ba32bc3a1f60c91b905260af81017f3c7265637420783d223134302220793d22323530222077696474683d22313230905260cf81017f22206865696768743d223238222072783d223134222066696c6c3d22000000009052815190818460eb83015e0160a8019070111037b830b1b4ba3c9e9118171911179f60791b6043830152605482017f3c7465787420783d223230302220793d223236392220666f6e742d66616d696c9052607482017f793d226d6f6e6f73706163652220666f6e742d73697a653d223132222066696c905262361e9160e91b6094830152518092609783015e01604301605481017f2220746578742d616e63686f723d226d6964646c65223e000000000000000000905281516020819301606b83015e661e17ba32bc3a1f60c91b9101606b8101919091527f3c7465787420783d223230302220793d223336302220666f6e742d66616d696c60728201527f793d226d6f6e6f73706163652220666f6e742d73697a653d223130222066696c60928201527f6c3d22233634373438622220746578742d616e63686f723d226d6964646c652260b28201527f3e417263204e616d6520536572766963653c2f746578743e000000000000000060d2820152651e17b9bb339f60d11b60ea8201520360d081018252610c439060f00182611d61565b610c4c906125c1565b9215610ef2578451610c5e8682611d61565b6007815266115e1c1a5c995960ca1b6020820152915b8551948594683d913730b6b2911d1160b91b602087015281518084602989015e7f222c226465736372697074696f6e223a224172634e5320646f6d61696e206e616029918801918201527f6d652e20446563656e7472616c697a6564206964656e74697479206f6e20417260498201527f6320546573746e65742e222c22696d616765223a22646174613a696d6167652f60698201526e1cdd99cade1b5b0ed8985cd94d8d0b608a1b60898201528151918290602001609883015e0160290190606f82017f222c2261747472696275746573223a5b7b2274726169745f74797065223a224490526f37b6b0b4b71116113b30b63ab2911d1160811b608f830152518092609f83015e01606f01603081017f227d2c7b2274726169745f74797065223a22544c44222c2276616c7565223a22905260508101601760f91b9052605101610dbe906121f9565b7f227d2c7b2274726169745f74797065223a22457870697279222c22646973706c8152602081017f61795f74797065223a2264617465222c2276616c7565223a0000000000000000905281516020819301603883015e01603881017f7d2c7b2274726169745f74797065223a22537461747573222c2276616c7565229052611d1160f11b605882015281516020819301605a83015e0160380163227d5d7d60e01b602282015203602201601b1981018252600401610e7c9082611d61565b610e85906125c1565b8151928391602083017f646174613a6170706c69636174696f6e2f6a736f6e3b6261736536342c000000905280516020819201603d85015e820190603d82015203603d01601f1981018352610eda9083611d61565b5180916020825260208201610eee91611c9f565b0390f35b8451610efe8682611d61565b600681526541637469766560d01b602082015291610c74565b8551610f238782611d61565b600681526541435449564560d01b6020820152906106df565b8451610f488682611d61565b600781526611991a9b19b2b160c91b60208201526106b7565b82811a6001600160f81b0319610f7e600483901c600f1685612501565b5116908260011b9183830460021484151715610ff157891a610fa0838a612501565b536001600160f81b031990610fb890600f1685612501565b511660018201809211610fdd5790610fd6600193928a1a9189612501565b5301610600565b634e487b7160e01b89526011600452602489fd5b634e487b7160e01b8a52601160045260248afd5b50346103a95760403660031901126103a9576040516302571be360e01b81527f00000000000000000000000000000000000000000000000000000000000000006004828101919091523591906020816024817f00000000000000000000000000000000000000000000000000000000000000006001600160a01b03165afa90811561116a57906110a691839161115157506001600160a01b03163014611f1f565b33815260096020526110be60ff604083205416611fc6565b818152600860205260408120546276a700810180911161113d57916040916110ea602094421115611f7a565b818152600884526111006024358483205461207a565b9281838593526008865220557f9b87a00e30f1ac65d898f070f8a3488fe60517182d0a2098e1b4b93a54aa9bd683604051848152a2604051908152f35b634e487b7160e01b82526011600452602482fd5b610391915060203d602011610397576103898183611d61565b6040513d84823e3d90fd5b50346103a957806003193601126103a95760206040516276a7008152f35b50346103a95760803660031901126103a9576111ad611cc3565b6111b5611cd9565b906064359067ffffffffffffffff8211611224573660238301121561122457816004013592846111e485611d97565b936111f26040519586611d61565b8585523660248783010111611220578561121d966024602093018388013785010152604435916120b9565b80f35b5080fd5b8380fd5b50346103a95760203660031901126103a957611242611cc3565b61124a612403565b6001600160a01b0316808252600960205260408220805460ff191660011790557f0a8bb31534c0ed46f380cb867bd5c803a189ced9a764e30b3a4991a9901d74748280a280f35b50346103a95760403660031901126103a9576112ab611cc3565b60243590811515809203611349573315611335576001600160a01b031690811561132157338352600560205260408320825f5260205260405f2060ff1981541660ff83161790556040519081527f17307eab39ab6107e8899845ad3d59bd9653f200f220920489ca2b5937696c3160203392a380f35b630b61174360e31b83526004829052602483fd5b63a9fbf51f60e01b83526004839052602483fd5b8280fd5b50346103a95760203660031901126103a957602061136c60043561209b565b6040519015158152f35b50346103a957806003193601126103a95760405190806001549061139982611d29565b808552916001811690811561143257506001146113d5575b610eee846113c181860382611d61565b604051918291602083526020830190611c9f565b600181527fb10e2d527612073b26eecdfd717e6a320cf44b4afac2b0732d9fcbe2b7fa0cf6939250905b808210611418575090915081016020016113c1826113b1565b9192600181602092548385880101520191019092916113ff565b60ff191660208087019190915292151560051b850190920192506113c191508390506113b1565b50346103a957806003193601126103a9576006546040516001600160a01b039091168152602090f35b346103325760803660031901126103325760043561149e611cd9565b6064356001600160a01b03811690819003610332576040516302571be360e01b81527f0000000000000000000000000000000000000000000000000000000000000000600482018190527f00000000000000000000000000000000000000000000000000000000000000006001600160a01b03169491602081602481895afa80156116395761153e915f9161166857506001600160a01b03163014611f1f565b335f52600960205261155660ff60405f205416611fc6565b6115626102338361209b565b61156e6044354261207a565b5f83815260086020908152604080832084905560029091529020549094906001600160a01b0316611644576115a38382612484565b853b156103325760a45f928360405198899485936305ef2c7f60e41b8552600485015287602485015260018060a01b03169788604485015260648401528160848401525af193841561163957602094611629575b507fb3d987963d01b2f68493b4bdb130988f157ea43070d4ad840fee0466ed9370d984604051858152a3604051908152f35b5f61163391611d61565b5f6115f7565b6040513d5f823e3d90fd5b825f526002602052611663838260018060a01b0360405f20541661242a565b6115a3565b611681915060203d602011610397576103898183611d61565b876101ff565b34610332575f366003190112610332576040517f00000000000000000000000000000000000000000000000000000000000000006001600160a01b03168152602090f35b34610332575f366003190112610332576116e3612403565b600680546001600160a01b031981169091555f906001600160a01b03167f8be0079c531659141344cd1fd0a4f28419497f9722a3daafe3b4186f6b6457e08280a3005b34610332576020366003190112610332576001600160a01b03611747611cc3565b168015611764575f526003602052602060405f2054604051908152f35b6322718ad960e21b5f525f60045260245ffd5b346103325760203660031901126103325760206117ab600435805f52600883526117a660405f20544210611f7a565b612280565b6040516001600160a01b039091168152f35b34610332576117e66117ce36611cef565b90604051926117de602085611d61565b5f84526120b9565b005b34610332575f366003190112610332576040515f60075461180881611d29565b808452906001811690811561188e5750600114611830575b610eee836113c181850382611d61565b60075f9081527fa66cc928b5edb82af9bd49922954155ab7b0942694bea4ce44661d9a8736c688939250905b808210611874575090915081016020016113c1611820565b91926001816020925483858801015201910190929161185c565b60ff191660208086019190915291151560051b840190910191506113c19050611820565b34610332576040366003190112610332576004356118ce611cd9565b6040516302571be360e01b81527f00000000000000000000000000000000000000000000000000000000000000006004820181905291907f00000000000000000000000000000000000000000000000000000000000000006001600160a01b031690602081602481855afa80156116395761195a915f91611a3657506001600160a01b03163014611f1f565b5f8481526002602052604090205461197e90859033906001600160a01b0316612378565b156119f1576040516306ab592360e01b8152600481019390935260248301939093526001600160a01b0316604482015290602090829060649082905f905af18015611639576119c957005b6117e69060203d6020116119ea575b6119e28183611d61565b810190611f6b565b503d6119d8565b60405162461bcd60e51b815260206004820152601e60248201527f426173655265676973747261723a206e6f7420746f6b656e206f776e657200006044820152606490fd5b611a4f915060203d602011610397576103898183611d61565b866101ff565b34610332576117e6611a6636611cef565b91611db3565b3461033257604036600319011261033257611a85611cc3565b602435611a9181612280565b33151580611b43575b80611b16575b611b035781906001600160a01b0384811691167f8c5be1e5ebec7d5bd14f71427d1e84f3dd0314c0f7b2291e5b200ac8c7c3b9255f80a45f90815260046020526040902080546001600160a01b0319166001600160a01b03909216919091179055005b63a9fbf51f60e01b5f523360045260245ffd5b506001600160a01b0381165f90815260056020908152604080832033845290915290205460ff1615611aa0565b506001600160a01b038116331415611a9a565b3461033257602036600319011261033257600435611b7381612280565b505f526004602052602060018060a01b0360405f205416604051908152f35b34610332575f366003190112610332576040515f8054611bb181611d29565b808452906001811690811561188e5750600114611bd857610eee836113c181850382611d61565b5f8080527f290decd9548b62a8d60345a988386fc84ba6bc95484008f6362f93160ef3e563939250905b808210611c1a575090915081016020016113c1611820565b919260018160209254838588010152019101909291611c02565b34610332576020366003190112610332576004359063ffffffff60e01b8216809203610332576020916380ac58cd60e01b8114908115611c8e575b8115611c7d575b5015158152f35b6301ffc9a760e01b14905083611c76565b635b5e139f60e01b81149150611c6f565b805180835260209291819084018484015e5f828201840152601f01601f1916010190565b600435906001600160a01b038216820361033257565b602435906001600160a01b038216820361033257565b6060906003190112610332576004356001600160a01b038116810361033257906024356001600160a01b0381168103610332579060443590565b90600182811c92168015611d57575b6020831014611d4357565b634e487b7160e01b5f52602260045260245ffd5b91607f1691611d38565b90601f8019910116810190811067ffffffffffffffff821117611d8357604052565b634e487b7160e01b5f52604160045260245ffd5b67ffffffffffffffff8111611d8357601f01601f191660200190565b6001600160a01b0390911691908215611eed575f828152600260205260409020546001600160a01b031692829033611ea7575b84611e74575b805f52600360205260405f2060018154019055815f52600260205260405f20816bffffffffffffffffffffffff60a01b825416179055847fddf252ad1be2c89b69c2b068fc378daa952ba7f163c4a11628f55a4df523b3ef5f80a46001600160a01b0316808303611e5c57505050565b6364283d7b60e01b5f5260045260245260445260645ffd5b5f82815260046020526040902080546001600160a01b0319169055845f52600360205260405f205f198154019055611dec565b90611eb3903386612378565b15611ebf578290611de6565b8284611ed757637e27328960e01b5f5260045260245ffd5b63177e802f60e01b5f523360045260245260445ffd5b633250574960e11b5f525f60045260245ffd5b9081602091031261033257516001600160a01b03811681036103325790565b15611f2657565b60405162461bcd60e51b815260206004820152601760248201527f426173655265676973747261723a206e6f74206c6976650000000000000000006044820152606490fd5b90816020910312610332575190565b15611f8157565b60405162461bcd60e51b815260206004820152601b60248201527f426173655265676973747261723a206e616d65206578706972656400000000006044820152606490fd5b15611fcd57565b60405162461bcd60e51b815260206004820152602960248201527f426173655265676973747261723a2063616c6c6572206973206e6f742061206360448201526837b73a3937b63632b960b91b6064820152608490fd5b1561202b57565b60405162461bcd60e51b815260206004820152602160248201527f426173655265676973747261723a206e616d65206e6f7420617661696c61626c6044820152606560f81b6064820152608490fd5b9190820180921161208757565b634e487b7160e01b5f52601160045260245ffd5b5f52600860205260405f20546276a700810180911161208757421190565b92916120c6818386611db3565b813b6120d3575b50505050565b604051630a85bd0160e11b81523360048201526001600160a01b039485166024820152604481019190915260806064820152921691906020908290819061211e906084830190611c9f565b03815f865af15f91816121b4575b5061218157503d1561217a573d61214281611d97565b906121506040519283611d61565b81523d5f602083013e5b805190816121755782633250574960e11b5f5260045260245ffd5b602001fd5b606061215a565b6001600160e01b03191663757a42ff60e11b016121a257505f8080806120cd565b633250574960e11b5f5260045260245ffd5b9091506020813d6020116121f1575b816121d060209383611d61565b8101031261033257516001600160e01b03198116810361033257905f61212c565b3d91506121c3565b6007545f929161220882611d29565b916001811690811561226e5750600114612220575050565b60075f90815292935090917fa66cc928b5edb82af9bd49922954155ab7b0942694bea4ce44661d9a8736c6885b83821061225a5750500190565b60018160209254848601520191019061224d565b60ff1916825250811515909102019150565b5f818152600260205260409020546001600160a01b03169081156122a2575090565b637e27328960e01b5f5260045260245ffd5b5f828152600260205260409020546001600160a01b0316919082612345575b6001600160a01b03168061232d575b815f52600260205260405f20816bffffffffffffffffffffffff60a01b825416179055827fddf252ad1be2c89b69c2b068fc378daa952ba7f163c4a11628f55a4df523b3ef5f80a490565b805f52600360205260405f20600181540190556122e2565b5f82815260046020526040902080546001600160a01b0319169055825f52600360205260405f205f1981540190556122d3565b6001600160a01b03909116801515929183612394575b50505090565b6001600160a01b0316808214935090919083156123e0575b5082156123be575b50505f808061238e565b5f908152600460205260408120546001600160a01b03169091149150806123b4565b9092505f52600560205260405f20815f5260205260ff60405f205416915f6123ac565b6006546001600160a01b0316330361241757565b63118cdaa760e01b5f523360045260245ffd5b919291906001600160a01b03811615611eed576001600160a01b03906124519085906122b4565b16908161246b5783637e27328960e01b5f5260045260245ffd5b919290916001600160a01b0316808303611e5c57505050565b906001600160a01b03821615611eed576001600160a01b03916124a791906122b4565b166124ae57565b6339e3563760e11b5f525f60045260245ffd5b5f1981146120875760010190565b906124d982611d97565b6124e66040519182611d61565b82815280926124f7601f1991611d97565b0190602036910137565b908151811015612512570160200190565b634e487b7160e01b5f52603260045260245ffd5b80156125a157805f81805b612589575061253f816124cf565b925b61254a57505090565b8015612087575f190190600a8106603001908160301161208757600a9160f81b6001600160f81b0319165f1a6125808486612501565b53049081612541565b9150612596600a916124c1565b910480839291612531565b506040516125b0604082611d61565b60018152600360fc1b602082015290565b80511561282457604051916125d7606084611d61565b604083527f4142434445464748494a4b4c4d4e4f505152535455565758595a61626364656660208401527f6768696a6b6c6d6e6f707172737475767778797a303132333435363738392b2f60408401528151600281018091116120875760039004600281901b92906001600160fe1b0381160361208757612657836124cf565b925f905f935b8351831080156127b457156127ae5761267f612678846124c1565b9385612501565b5160f81c5b84518410156127a8576126a0612699856124c1565b9486612501565b5160f81c5b85518510156127a1576126c16126ba866124c1565b9587612501565b5160f81c915b62ff000061ff0060ff85169360081b169160101b16171760ff60f81b6126f3603f8360121c168b612501565b51169661270c612702826124c1565b985f1a918a612501565b536001600160f81b0319612727600c83901c603f168b612501565b511696612736612702826124c1565b536001600160f81b0319906127519060061c603f168a612501565b51169561276a612760826124c1565b975f1a9189612501565b536001600160f81b03199061278290603f1689612501565b51169461279b612791826124c1565b965f1a9188612501565b5361265d565b5f916126c7565b5f6126a5565b5f612684565b50955092505060016003825106145f146127fd57505f198101818111612087576127e0603d9184612501565b536001198101908111612087576127f9603d9183612501565b5390565b600360029151061461280d575090565b5f198101908111612087576127f9603d9183612501565b50604051612833602082611d61565b5f81529056fea26469706673582212205238acd2816e6a5998d64198e341c2bd48a2cd4ba360abf5e9885ff41f48093364736f6c634300081a0033",
  "linkReferences": {},
  "deployedLinkReferences": {}
}