{
  "_format": "hh-sol-artifact-1",
  "contractName": "ArcNSRegistrarController",
  "sourceName": "contracts/registrar/ArcNSRegistrarController.sol",
  "abi": [
    {
      "inputs": [
        {
          "internalType": "contract ArcNSBaseRegistrar",
          "name": "_base",
          "type": "address"
        },
        {
          "internalType": "contract IArcNSPriceOracle",
          "name": "_priceOracle",
          "type": "address"
        },
        {
          "internalType": "contract IERC20",
          "name": "_usdc",
          "type": "address"
        },
        {
          "internalType": "contract IArcNSRegistry",
          "name": "_registry",
          "type": "address"
        },
        {
          "internalType": "contract ArcNSResolver",
          "name": "_resolver",
          "type": "address"
        },
        {
          "internalType": "address",
          "name": "_treasury",
          "type": "address"
        }
      ],
      "stateMutability": "nonpayable",
      "type": "constructor"
    },
    {
      "inputs": [
        {
          "internalType": "address",
          "name": "owner",
          "type": "address"
        }
      ],
      "name": "OwnableInvalidOwner",
      "type": "error"
    },
    {
      "inputs": [
        {
          "internalType": "address",
          "name": "account",
          "type": "address"
        }
      ],
      "name": "OwnableUnauthorizedAccount",
      "type": "error"
    },
    {
      "inputs": [],
      "name": "ReentrancyGuardReentrantCall",
      "type": "error"
    },
    {
      "inputs": [
        {
          "internalType": "address",
          "name": "token",
          "type": "address"
        }
      ],
      "name": "SafeERC20FailedOperation",
      "type": "error"
    },
    {
      "anonymous": false,
      "inputs": [
        {
          "indexed": true,
          "internalType": "bytes32",
          "name": "commitment",
          "type": "bytes32"
        }
      ],
      "name": "CommitmentMade",
      "type": "event"
    },
    {
      "anonymous": false,
      "inputs": [
        {
          "indexed": false,
          "internalType": "string",
          "name": "name",
          "type": "string"
        },
        {
          "indexed": true,
          "internalType": "bytes32",
          "name": "label",
          "type": "bytes32"
        },
        {
          "indexed": true,
          "internalType": "address",
          "name": "owner",
          "type": "address"
        },
        {
          "indexed": false,
          "internalType": "uint256",
          "name": "cost",
          "type": "uint256"
        },
        {
          "indexed": false,
          "internalType": "uint256",
          "name": "expires",
          "type": "uint256"
        }
      ],
      "name": "NameRegistered",
      "type": "event"
    },
    {
      "anonymous": false,
      "inputs": [
        {
          "indexed": false,
          "internalType": "string",
          "name": "name",
          "type": "string"
        },
        {
          "indexed": true,
          "internalType": "bytes32",
          "name": "label",
          "type": "bytes32"
        },
        {
          "indexed": false,
          "internalType": "uint256",
          "name": "cost",
          "type": "uint256"
        },
        {
          "indexed": false,
          "internalType": "uint256",
          "name": "expires",
          "type": "uint256"
        }
      ],
      "name": "NameRenewed",
      "type": "event"
    },
    {
      "anonymous": false,
      "inputs": [
        {
          "indexed": true,
          "internalType": "address",
          "name": "oracle",
          "type": "address"
        }
      ],
      "name": "NewPriceOracle",
      "type": "event"
    },
    {
      "anonymous": false,
      "inputs": [
        {
          "indexed": true,
          "internalType": "address",
          "name": "previousOwner",
          "type": "address"
        },
        {
          "indexed": true,
          "internalType": "address",
          "name": "newOwner",
          "type": "address"
        }
      ],
      "name": "OwnershipTransferred",
      "type": "event"
    },
    {
      "inputs": [],
      "name": "MAX_COMMITMENT_AGE",
      "outputs": [
        {
          "internalType": "uint256",
          "name": "",
          "type": "uint256"
        }
      ],
      "stateMutability": "view",
      "type": "function"
    },
    {
      "inputs": [],
      "name": "MIN_COMMITMENT_AGE",
      "outputs": [
        {
          "internalType": "uint256",
          "name": "",
          "type": "uint256"
        }
      ],
      "stateMutability": "view",
      "type": "function"
    },
    {
      "inputs": [],
      "name": "MIN_NAME_LENGTH",
      "outputs": [
        {
          "internalType": "uint256",
          "name": "",
          "type": "uint256"
        }
      ],
      "stateMutability": "view",
      "type": "function"
    },
    {
      "inputs": [],
      "name": "MIN_REGISTRATION_DURATION",
      "outputs": [
        {
          "internalType": "uint256",
          "name": "",
          "type": "uint256"
        }
      ],
      "stateMutability": "view",
      "type": "function"
    },
    {
      "inputs": [
        {
          "internalType": "string",
          "name": "name_",
          "type": "string"
        }
      ],
      "name": "available",
      "outputs": [
        {
          "internalType": "bool",
          "name": "",
          "type": "bool"
        }
      ],
      "stateMutability": "view",
      "type": "function"
    },
    {
      "inputs": [],
      "name": "base",
      "outputs": [
        {
          "internalType": "contract ArcNSBaseRegistrar",
          "name": "",
          "type": "address"
        }
      ],
      "stateMutability": "view",
      "type": "function"
    },
    {
      "inputs": [
        {
          "internalType": "bytes32",
          "name": "commitment",
          "type": "bytes32"
        }
      ],
      "name": "commit",
      "outputs": [],
      "stateMutability": "nonpayable",
      "type": "function"
    },
    {
      "inputs": [
        {
          "internalType": "bytes32",
          "name": "",
          "type": "bytes32"
        }
      ],
      "name": "commitments",
      "outputs": [
        {
          "internalType": "uint256",
          "name": "",
          "type": "uint256"
        }
      ],
      "stateMutability": "view",
      "type": "function"
    },
    {
      "inputs": [
        {
          "internalType": "string",
          "name": "name_",
          "type": "string"
        },
        {
          "internalType": "address",
          "name": "owner_",
          "type": "address"
        },
        {
          "internalType": "uint256",
          "name": "duration",
          "type": "uint256"
        },
        {
          "internalType": "bytes32",
          "name": "secret",
          "type": "bytes32"
        },
        {
          "internalType": "address",
          "name": "resolverAddr",
          "type": "address"
        },
        {
          "internalType": "bytes[]",
          "name": "data",
          "type": "bytes[]"
        },
        {
          "internalType": "bool",
          "name": "reverseRecord",
          "type": "bool"
        }
      ],
      "name": "makeCommitment",
      "outputs": [
        {
          "internalType": "bytes32",
          "name": "",
          "type": "bytes32"
        }
      ],
      "stateMutability": "pure",
      "type": "function"
    },
    {
      "inputs": [],
      "name": "owner",
      "outputs": [
        {
          "internalType": "address",
          "name": "",
          "type": "address"
        }
      ],
      "stateMutability": "view",
      "type": "function"
    },
    {
      "inputs": [],
      "name": "priceOracle",
      "outputs": [
        {
          "internalType": "contract IArcNSPriceOracle",
          "name": "",
          "type": "address"
        }
      ],
      "stateMutability": "view",
      "type": "function"
    },
    {
      "inputs": [
        {
          "internalType": "string",
          "name": "name_",
          "type": "string"
        },
        {
          "internalType": "address",
          "name": "owner_",
          "type": "address"
        },
        {
          "internalType": "uint256",
          "name": "duration",
          "type": "uint256"
        },
        {
          "internalType": "bytes32",
          "name": "secret",
          "type": "bytes32"
        },
        {
          "internalType": "address",
          "name": "resolverAddr",
          "type": "address"
        },
        {
          "internalType": "bytes[]",
          "name": "data",
          "type": "bytes[]"
        },
        {
          "internalType": "bool",
          "name": "reverseRecord",
          "type": "bool"
        }
      ],
      "name": "register",
      "outputs": [],
      "stateMutability": "nonpayable",
      "type": "function"
    },
    {
      "inputs": [],
      "name": "registry",
      "outputs": [
        {
          "internalType": "contract IArcNSRegistry",
          "name": "",
          "type": "address"
        }
      ],
      "stateMutability": "view",
      "type": "function"
    },
    {
      "inputs": [
        {
          "internalType": "string",
          "name": "name_",
          "type": "string"
        },
        {
          "internalType": "uint256",
          "name": "duration",
          "type": "uint256"
        }
      ],
      "name": "renew",
      "outputs": [],
      "stateMutability": "nonpayable",
      "type": "function"
    },
    {
      "inputs": [],
      "name": "renounceOwnership",
      "outputs": [],
      "stateMutability": "nonpayable",
      "type": "function"
    },
    {
      "inputs": [
        {
          "internalType": "string",
          "name": "name_",
          "type": "string"
        },
        {
          "internalType": "uint256",
          "name": "duration",
          "type": "uint256"
        }
      ],
      "name": "rentPrice",
      "outputs": [
        {
          "components": [
            {
              "internalType": "uint256",
              "name": "base",
              "type": "uint256"
            },
            {
              "internalType": "uint256",
              "name": "premium",
              "type": "uint256"
            }
          ],
          "internalType": "struct IArcNSPriceOracle.Price",
          "name": "",
          "type": "tuple"
        }
      ],
      "stateMutability": "view",
      "type": "function"
    },
    {
      "inputs": [],
      "name": "resolver",
      "outputs": [
        {
          "internalType": "contract ArcNSResolver",
          "name": "",
          "type": "address"
        }
      ],
      "stateMutability": "view",
      "type": "function"
    },
    {
      "inputs": [
        {
          "internalType": "contract IArcNSPriceOracle",
          "name": "_oracle",
          "type": "address"
        }
      ],
      "name": "setPriceOracle",
      "outputs": [],
      "stateMutability": "nonpayable",
      "type": "function"
    },
    {
      "inputs": [
        {
          "internalType": "contract ArcNSResolver",
          "name": "_resolver",
          "type": "address"
        }
      ],
      "name": "setResolver",
      "outputs": [],
      "stateMutability": "nonpayable",
      "type": "function"
    },
    {
      "inputs": [
        {
          "internalType": "address",
          "name": "_treasury",
          "type": "address"
        }
      ],
      "name": "setTreasury",
      "outputs": [],
      "stateMutability": "nonpayable",
      "type": "function"
    },
    {
      "inputs": [
        {
          "internalType": "address",
          "name": "newOwner",
          "type": "address"
        }
      ],
      "name": "transferOwnership",
      "outputs": [],
      "stateMutability": "nonpayable",
      "type": "function"
    },
    {
      "inputs": [],
      "name": "treasury",
      "outputs": [
        {
          "internalType": "address",
          "name": "",
          "type": "address"
        }
      ],
      "stateMutability": "view",
      "type": "function"
    },
    {
      "inputs": [],
      "name": "usdc",
      "outputs": [
        {
          "internalType": "contract IERC20",
          "name": "",
          "type": "address"
        }
      ],
      "stateMutability": "view",
      "type": "function"
    }
  ],
  "bytecode": "0x60e0346101d257601f6119ba38819003918201601f19168301916001600160401b038311848410176101d65780849260c0946040528339810103126101d2578051906001600160a01b03821682036101d25760208101516001600160a01b03811691908290036101d25760408101516001600160a01b03811681036101d2576060820151906001600160a01b03821682036101d25760808301516001600160a01b03811693908490036101d25760a001516001600160a01b03811694908590036101d25733156101bf575f8054336001600160a01b0319821681178355604051989290916001600160a01b0316907f8be0079c531659141344cd1fd0a4f28419497f9722a3daafe3b4186f6b6457e09080a360017f9b779b17422d0df92223018b32b4d1fa46e071723d6817e2486d003becc55f005560805260018060a01b0319600154161760015560a05260c05260018060a01b0319600254161760025560018060a01b031960045416176004556117cf90816101eb823960805181818161032001528181610482015281816107a501528181610ad80152611425015260a051818181610426015281816108340152610a98015260c051816106590152f35b631e4fbdf760e01b5f525f60045260245ffd5b5f80fd5b634e487b7160e01b5f52604160045260245ffdfe6080806040526004361015610012575f80fd5b5f905f3560e01c90816304f3bcec146110cb57508063237592e8146109425780632630c12f146109195780632e4f692a146108fd5780633d4aa89e146108635780633e413bee1461081e5780634e543b26146107d45780635001f3b51461078f57806350cfeddd14610773578063530e784f1461070b57806361d027b3146106e2578063715018a6146106885780637b10399914610643578063839df9451461061957806383e7f6ff146105c85780638a95b09f146105aa5780638ccb9ea61461058c5780638da5cb5b14610565578063acf1a841146103b1578063aeb8ce9b146102ac578063f0f4426014610267578063f14fcbc8146101a35763f2fde38b1461011b575f80fd5b346101a05760203660031901126101a057610134611147565b61013c611753565b6001600160a01b0316801561018c5781546001600160a01b03198116821783556001600160a01b03167f8be0079c531659141344cd1fd0a4f28419497f9722a3daafe3b4186f6b6457e08380a380f35b631e4fbdf760e01b82526004829052602482fd5b80fd5b50346101a05760203660031901126101a057600435808252600360205260408220546201518081018091116102535742111561020e5780825260036020524260408320557f561eb038a114723afa3c72b445add7b8602de546264da1e7e826af628316dbcb8280a280f35b60405162461bcd60e51b815260206004820152601d60248201527f436f6e74726f6c6c65723a20636f6d6d69746d656e74206578697374730000006044820152606490fd5b634e487b7160e01b83526011600452602483fd5b50346101a05760203660031901126101a057610281611147565b610289611753565b60018060a01b03166bffffffffffffffffffffffff60a01b600454161760045580f35b50346101a05760203660031901126101a0576004356001600160401b03811161039a576102dd90369060040161120d565b6102ed815160208301209161157c565b9081610301575b6020826040519015158152f35b6040516312dc929d60e31b8152600481019190915290506020816024817f00000000000000000000000000000000000000000000000000000000000000006001600160a01b03165afa9081156103a6578291610363575b50602091505f6102f4565b90506020813d60201161039e575b8161037e6020938361119b565b8101031261039a5751801515810361039a57602091505f610358565b5080fd5b3d9150610371565b6040513d84823e3d90fd5b50346101a05760403660031901126101a0576004356001600160401b03811161039a576103e29036906004016110ee565b90602435916103ef61151f565b610413610406846104013685876111d7565b6113db565b60208151910151906112af565b9161044a8360018060a01b0360045416337f0000000000000000000000000000000000000000000000000000000000000000611680565b6104553683836111d7565b805160209182012060405163c475abff60e01b8152600481018290526024810196909652949081604481897f00000000000000000000000000000000000000000000000000000000000000006001600160a01b03165af190811561055a578691610504575b506104ed907f3da24c024582931cfaf8267d8ed24d13a82a8068d5bd337d30ec45cea4e506ae94604051948594856112bc565b0390a260015f8051602061177a8339815191525580f35b90506020813d602011610552575b8161051f6020938361119b565b8101031261054e57517f3da24c024582931cfaf8267d8ed24d13a82a8068d5bd337d30ec45cea4e506ae6104ba565b5f80fd5b3d9150610512565b6040513d88823e3d90fd5b50346101a057806003193601126101a057546040516001600160a01b039091168152602090f35b50346101a057806003193601126101a0576020604051620151808152f35b50346101a057806003193601126101a05760206040516224ea008152f35b50346101a05760403660031901126101a057600435906001600160401b0382116101a05760406106076105fe366004860161120d565b602435906113db565b60208251918051835201516020820152f35b50346101a05760203660031901126101a05760406020916004358152600383522054604051908152f35b50346101a057806003193601126101a0576040517f00000000000000000000000000000000000000000000000000000000000000006001600160a01b03168152602090f35b50346101a057806003193601126101a0576106a1611753565b80546001600160a01b03198116825581906001600160a01b03167f8be0079c531659141344cd1fd0a4f28419497f9722a3daafe3b4186f6b6457e08280a380f35b50346101a057806003193601126101a0576004546040516001600160a01b039091168152602090f35b50346101a05760203660031901126101a0576004356001600160a01b0381169081900361039a5761073a611753565b600180546001600160a01b031916821790557ff261845a790fe29bbd6631e2ca4a5bdc83e6eed7c3271d9590d97287e00e91238280a280f35b50346101a057806003193601126101a057602060405160038152f35b50346101a057806003193601126101a0576040517f00000000000000000000000000000000000000000000000000000000000000006001600160a01b03168152602090f35b50346101a05760203660031901126101a0576004356001600160a01b0381169081900361039a57610803611753565b6bffffffffffffffffffffffff60a01b600254161760025580f35b50346101a057806003193601126101a0576040517f00000000000000000000000000000000000000000000000000000000000000006001600160a01b03168152602090f35b50346101a05760e03660031901126101a0576004356001600160401b03811161039a5761089490369060040161120d565b9061089d61111b565b906108a6611131565b9060a435906001600160401b0382116101a057366023830112156101a05760206108f58686866108de36600489013560248a0161122b565b916108e761115d565b936064359160443591611315565b604051908152f35b50346101a057806003193601126101a0576020604051603c8152f35b50346101a057806003193601126101a0576001546040516001600160a01b039091168152602090f35b503461054e5760e036600319011261054e576004356001600160401b03811161054e576109739036906004016110ee565b61097b61111b565b9060443591610988611131565b60a435936001600160401b03851161054e573660238601121561054e578460040135906001600160401b03821161054e576024860195602436918460051b01011161054e576109d561115d565b956109de61151f565b610a05876109ed36898c6111d7565b866109f936888761122b565b91868a60643592611315565b805f52600360205260405f2054603c810180911161107257421061108657805f52600360205260405f20546201518081018091116110725742101561102d575f5260036020525f6040812055610a64610a5f36888b6111d7565b61157c565b15610fe8576224ea008210610fa357610a8561040683610401368a8d6111d7565b92610abc8460018060a01b0360045416337f0000000000000000000000000000000000000000000000000000000000000000611680565b610ac736888b6111d7565b602081519101209760018060a01b037f00000000000000000000000000000000000000000000000000000000000000001691604051630ddf7fcb60e41b8152602081600481875afa908115610d34575f91610f71575b50604051602081019182528b604082015260408152610b3d60608261119b565b5190206001600160a01b03881680158015979196929190610ef357604051631ef5ace960e21b8152600481018e90526001600160a01b038c1660248201526044810191909152606481018790526020816084815f8a5af1908115610d34575f91610ec1575b509883610dc7575b505050505b610c0e575b50506040516001600160a01b03909416967fca6abbe9d7f11422cb6ca7629fbf6fe9efb1c621f71ce8f02b9f2a230097404f958594610bf79490935091856112bc565b0390a360015f8051602061177a8339815191525580f35b610c1936888b6111d7565b9215610bb4575f600491604051928380926316aa8a1960e11b82525afa908115610d34575f91610d3f575b5060016020938480610c8d946040519784899551918291018487015e840190601760f91b83830152805192839101602183015e01015f838201520301601f19810184528361119b565b803b1561054e57604051637a806d6b60e01b81526001600160a01b0386166004820181905260248201526044810182905260806064820152915f918391829084908290610cde9060848301906112f1565b03925af18015610d3457610cf4575b8080610bb4565b610bf791975091610d285f7fca6abbe9d7f11422cb6ca7629fbf6fe9efb1c621f71ce8f02b9f2a230097404f96959461119b565b5f979150919293610ced565b6040513d5f823e3d90fd5b90503d805f833e610d50818361119b565b81019060208183031261054e578051906001600160401b03821161054e57019080601f8301121561054e57815193610d87856111bc565b91610d95604051938461119b565b8583526020868501011161054e576020806001935f8289819a82610c8d9a018386015e83010152945050509350610c44565b5f5b848110610dd65750610baa565b610de1818686611712565b60041161054e57610df3828787611712565b918260241161054e575f92610e3d6020859460405193849160048484019788378b60248401526024602319830191016044840137810186838201520301601f19810183528261119b565b519082865af13d15610ebc573d610e53816111bc565b90610e61604051928361119b565b81525f60203d92013e5b15610e7857600101610dc9565b606460405162461bcd60e51b815260206004820152602060248201527f436f6e74726f6c6c65723a207265736f6c7665722063616c6c206661696c65646044820152fd5b610e6b565b90506020813d602011610eeb575b81610edc6020938361119b565b8101031261054e57515f610ba2565b3d9150610ecf565b93985050505060405190633f2891eb60e21b825289600483015260018060a01b038816602483015260448201526020816064815f865af1908115610d34575f91610f3f575b5094610baf565b90506020813d602011610f69575b81610f5a6020938361119b565b8101031261054e57515f610f38565b3d9150610f4d565b90506020813d602011610f9b575b81610f8c6020938361119b565b8101031261054e57515f610b1d565b3d9150610f7f565b60405162461bcd60e51b815260206004820152601e60248201527f436f6e74726f6c6c65723a206475726174696f6e20746f6f2073686f727400006044820152606490fd5b60405162461bcd60e51b815260206004820152601860248201527f436f6e74726f6c6c65723a20696e76616c6964206e616d6500000000000000006044820152606490fd5b60405162461bcd60e51b815260206004820152601e60248201527f436f6e74726f6c6c65723a20636f6d6d69746d656e74206578706972656400006044820152606490fd5b634e487b7160e01b5f52601160045260245ffd5b60405162461bcd60e51b815260206004820152601e60248201527f436f6e74726f6c6c65723a20636f6d6d69746d656e7420746f6f206e657700006044820152606490fd5b3461054e575f36600319011261054e576002546001600160a01b03168152602090f35b9181601f8401121561054e578235916001600160401b03831161054e576020838186019501011161054e57565b602435906001600160a01b038216820361054e57565b608435906001600160a01b038216820361054e57565b600435906001600160a01b038216820361054e57565b60c43590811515820361054e57565b604081019081106001600160401b0382111761118757604052565b634e487b7160e01b5f52604160045260245ffd5b90601f801991011681019081106001600160401b0382111761118757604052565b6001600160401b03811161118757601f01601f191660200190565b9291926111e3826111bc565b916111f1604051938461119b565b82948184528183011161054e578281602093845f960137010152565b9080601f8301121561054e57816020611228933591016111d7565b90565b929190926001600160401b038411611187578360051b9160206040516112538286018261119b565b80968152019282019181831161054e5780935b838510611274575050505050565b84356001600160401b03811161054e57820183601f8201121561054e576020916112a485838580953591016111d7565b815201940193611266565b9190820180921161107257565b90826040936080929796959760608552816060860152838501375f828285010152601f80199101168201019460208201520152565b805180835260209291819084018484015e5f828201840152601f01601f1916010190565b95909594919294602081519101209360405195869460208601986101008701978a5260018060a01b031660408701526060860152608085015260018060a01b031660a084015260e060c0840152815180945261012083019360206101208260051b8601019301945f905b8282106113a9575050506113a39350151560e083015203601f19810183528261119b565b51902090565b919360019193955060206113c9819261011f198b820301865289516112f1565b9701920192018694929593919561137f565b905f60206040516113eb8161116c565b8281520152815160208301209060018060a01b036001541660405192636b727d4360e11b8452600484015260208360248160018060a01b037f0000000000000000000000000000000000000000000000000000000000000000165afa928315610d34575f936114e9575b50611481604093948451958694859384936350e9a71560e01b85526060600486015260648501906112f1565b916024840152604483015203915afa908115610d34575f916114a1575090565b90506040813d6040116114e1575b816114bc6040938361119b565b8101031261054e576020604051916114d38361116c565b805183520151602082015290565b3d91506114af565b92506020833d602011611517575b816115046020938361119b565b8101031261054e57915191611481611455565b3d91506114f7565b60025f8051602061177a83398151915254146115485760025f8051602061177a83398151915255565b633ee5aeb560e01b5f5260045ffd5b908151811015611568570160200190565b634e487b7160e01b5f52603260045260245ffd5b600381511061167b575f5b8151811015611617576001600160f81b03196115a38284611557565b5116606160f81b8110159081611608575b81156115e4575b81156115d6575b50156115d057600101611587565b50505f90565b602d60f81b1490505f6115c2565b9050600360fc1b811015806115fa575b906115bb565b50603960f81b8111156115f4565b603d60f91b81111591506115b4565b508051156115685760208101516001600160f81b031916602d60f81b1490811561164a575b5061164657600190565b5f90565b80515f1981019250821161107257602d60f81b916001600160f81b0319916116729190611557565b5116145f61163c565b505f90565b6040516323b872dd60e01b5f9081526001600160a01b039384166004529290931660245260449390935260209060648180865af19060015f51148216156116f1575b6040525f606052156116d15750565b635274afe760e01b5f9081526001600160a01b0391909116600452602490fd5b90600181151661170957823b15153d151616906116c2565b503d5f823e3d90fd5b91908110156115685760051b81013590601e198136030182121561054e5701908135916001600160401b03831161054e57602001823603811361054e579190565b5f546001600160a01b0316330361176657565b63118cdaa760e01b5f523360045260245ffdfe9b779b17422d0df92223018b32b4d1fa46e071723d6817e2486d003becc55f00a26469706673582212208a199913390e8776b466b6008169eb0b48a3c9ed1cf7744cfd53686849667eef64736f6c634300081a0033",
  "linkReferences": {},
  "deployedLinkReferences": {}
}