{
  "_format": "hh-sol-artifact-1",
  "contractName": "ArcNSRegistrarController",
  "sourceName": "contracts/registrar/ArcNSRegistrarController.sol",
  "abi": [
    {
      "inputs": [
        {
          "internalType": "contract ArcNSBaseRegistrar",
          "name": "_base",
          "type": "address"
        },
        {
          "internalType": "contract IArcNSPriceOracle",
          "name": "_priceOracle",
          "type": "address"
        },
        {
          "internalType": "contract IERC20",
          "name": "_usdc",
          "type": "address"
        },
        {
          "internalType": "contract IArcNSRegistry",
          "name": "_registry",
          "type": "address"
        },
        {
          "internalType": "contract ArcNSResolver",
          "name": "_resolver",
          "type": "address"
        },
        {
          "internalType": "address",
          "name": "_treasury",
          "type": "address"
        }
      ],
      "stateMutability": "nonpayable",
      "type": "constructor"
    },
    {
      "inputs": [
        {
          "internalType": "address",
          "name": "owner",
          "type": "address"
        }
      ],
      "name": "OwnableInvalidOwner",
      "type": "error"
    },
    {
      "inputs": [
        {
          "internalType": "address",
          "name": "account",
          "type": "address"
        }
      ],
      "name": "OwnableUnauthorizedAccount",
      "type": "error"
    },
    {
      "inputs": [],
      "name": "ReentrancyGuardReentrantCall",
      "type": "error"
    },
    {
      "inputs": [
        {
          "internalType": "address",
          "name": "token",
          "type": "address"
        }
      ],
      "name": "SafeERC20FailedOperation",
      "type": "error"
    },
    {
      "anonymous": false,
      "inputs": [
        {
          "indexed": true,
          "internalType": "bytes32",
          "name": "commitment",
          "type": "bytes32"
        }
      ],
      "name": "CommitmentMade",
      "type": "event"
    },
    {
      "anonymous": false,
      "inputs": [
        {
          "indexed": false,
          "internalType": "string",
          "name": "name",
          "type": "string"
        },
        {
          "indexed": true,
          "internalType": "bytes32",
          "name": "label",
          "type": "bytes32"
        },
        {
          "indexed": true,
          "internalType": "address",
          "name": "owner",
          "type": "address"
        },
        {
          "indexed": false,
          "internalType": "uint256",
          "name": "cost",
          "type": "uint256"
        },
        {
          "indexed": false,
          "internalType": "uint256",
          "name": "expires",
          "type": "uint256"
        }
      ],
      "name": "NameRegistered",
      "type": "event"
    },
    {
      "anonymous": false,
      "inputs": [
        {
          "indexed": false,
          "internalType": "string",
          "name": "name",
          "type": "string"
        },
        {
          "indexed": true,
          "internalType": "bytes32",
          "name": "label",
          "type": "bytes32"
        },
        {
          "indexed": false,
          "internalType": "uint256",
          "name": "cost",
          "type": "uint256"
        },
        {
          "indexed": false,
          "internalType": "uint256",
          "name": "expires",
          "type": "uint256"
        }
      ],
      "name": "NameRenewed",
      "type": "event"
    },
    {
      "anonymous": false,
      "inputs": [
        {
          "indexed": true,
          "internalType": "address",
          "name": "oracle",
          "type": "address"
        }
      ],
      "name": "NewPriceOracle",
      "type": "event"
    },
    {
      "anonymous": false,
      "inputs": [
        {
          "indexed": true,
          "internalType": "address",
          "name": "previousOwner",
          "type": "address"
        },
        {
          "indexed": true,
          "internalType": "address",
          "name": "newOwner",
          "type": "address"
        }
      ],
      "name": "OwnershipTransferred",
      "type": "event"
    },
    {
      "inputs": [],
      "name": "MAX_COMMITMENT_AGE",
      "outputs": [
        {
          "internalType": "uint256",
          "name": "",
          "type": "uint256"
        }
      ],
      "stateMutability": "view",
      "type": "function"
    },
    {
      "inputs": [],
      "name": "MAX_REGISTRATION_DURATION",
      "outputs": [
        {
          "internalType": "uint256",
          "name": "",
          "type": "uint256"
        }
      ],
      "stateMutability": "view",
      "type": "function"
    },
    {
      "inputs": [],
      "name": "MAX_RESOLVER_DATA_ITEMS",
      "outputs": [
        {
          "internalType": "uint256",
          "name": "",
          "type": "uint256"
        }
      ],
      "stateMutability": "view",
      "type": "function"
    },
    {
      "inputs": [],
      "name": "MIN_COMMITMENT_AGE",
      "outputs": [
        {
          "internalType": "uint256",
          "name": "",
          "type": "uint256"
        }
      ],
      "stateMutability": "view",
      "type": "function"
    },
    {
      "inputs": [],
      "name": "MIN_NAME_LENGTH",
      "outputs": [
        {
          "internalType": "uint256",
          "name": "",
          "type": "uint256"
        }
      ],
      "stateMutability": "view",
      "type": "function"
    },
    {
      "inputs": [],
      "name": "MIN_REGISTRATION_DURATION",
      "outputs": [
        {
          "internalType": "uint256",
          "name": "",
          "type": "uint256"
        }
      ],
      "stateMutability": "view",
      "type": "function"
    },
    {
      "inputs": [
        {
          "internalType": "string",
          "name": "name_",
          "type": "string"
        }
      ],
      "name": "available",
      "outputs": [
        {
          "internalType": "bool",
          "name": "",
          "type": "bool"
        }
      ],
      "stateMutability": "view",
      "type": "function"
    },
    {
      "inputs": [],
      "name": "base",
      "outputs": [
        {
          "internalType": "contract ArcNSBaseRegistrar",
          "name": "",
          "type": "address"
        }
      ],
      "stateMutability": "view",
      "type": "function"
    },
    {
      "inputs": [
        {
          "internalType": "bytes32",
          "name": "commitment",
          "type": "bytes32"
        }
      ],
      "name": "commit",
      "outputs": [],
      "stateMutability": "nonpayable",
      "type": "function"
    },
    {
      "inputs": [
        {
          "internalType": "bytes32",
          "name": "",
          "type": "bytes32"
        }
      ],
      "name": "commitments",
      "outputs": [
        {
          "internalType": "uint256",
          "name": "",
          "type": "uint256"
        }
      ],
      "stateMutability": "view",
      "type": "function"
    },
    {
      "inputs": [
        {
          "internalType": "string",
          "name": "name_",
          "type": "string"
        },
        {
          "internalType": "address",
          "name": "owner_",
          "type": "address"
        },
        {
          "internalType": "uint256",
          "name": "duration",
          "type": "uint256"
        },
        {
          "internalType": "bytes32",
          "name": "secret",
          "type": "bytes32"
        },
        {
          "internalType": "address",
          "name": "resolverAddr",
          "type": "address"
        },
        {
          "internalType": "bytes[]",
          "name": "data",
          "type": "bytes[]"
        },
        {
          "internalType": "bool",
          "name": "reverseRecord",
          "type": "bool"
        },
        {
          "internalType": "address",
          "name": "caller",
          "type": "address"
        }
      ],
      "name": "makeCommitment",
      "outputs": [
        {
          "internalType": "bytes32",
          "name": "",
          "type": "bytes32"
        }
      ],
      "stateMutability": "pure",
      "type": "function"
    },
    {
      "inputs": [
        {
          "internalType": "string",
          "name": "name_",
          "type": "string"
        },
        {
          "internalType": "address",
          "name": "owner_",
          "type": "address"
        },
        {
          "internalType": "uint256",
          "name": "duration",
          "type": "uint256"
        },
        {
          "internalType": "bytes32",
          "name": "secret",
          "type": "bytes32"
        },
        {
          "internalType": "address",
          "name": "resolverAddr",
          "type": "address"
        },
        {
          "internalType": "bytes[]",
          "name": "data",
          "type": "bytes[]"
        },
        {
          "internalType": "bool",
          "name": "reverseRecord",
          "type": "bool"
        }
      ],
      "name": "makeCommitment",
      "outputs": [
        {
          "internalType": "bytes32",
          "name": "",
          "type": "bytes32"
        }
      ],
      "stateMutability": "view",
      "type": "function"
    },
    {
      "inputs": [],
      "name": "owner",
      "outputs": [
        {
          "internalType": "address",
          "name": "",
          "type": "address"
        }
      ],
      "stateMutability": "view",
      "type": "function"
    },
    {
      "inputs": [],
      "name": "priceOracle",
      "outputs": [
        {
          "internalType": "contract IArcNSPriceOracle",
          "name": "",
          "type": "address"
        }
      ],
      "stateMutability": "view",
      "type": "function"
    },
    {
      "inputs": [
        {
          "internalType": "string",
          "name": "name_",
          "type": "string"
        },
        {
          "internalType": "address",
          "name": "owner_",
          "type": "address"
        },
        {
          "internalType": "uint256",
          "name": "duration",
          "type": "uint256"
        },
        {
          "internalType": "bytes32",
          "name": "secret",
          "type": "bytes32"
        },
        {
          "internalType": "address",
          "name": "resolverAddr",
          "type": "address"
        },
        {
          "internalType": "bytes[]",
          "name": "data",
          "type": "bytes[]"
        },
        {
          "internalType": "bool",
          "name": "reverseRecord",
          "type": "bool"
        }
      ],
      "name": "register",
      "outputs": [],
      "stateMutability": "nonpayable",
      "type": "function"
    },
    {
      "inputs": [],
      "name": "registry",
      "outputs": [
        {
          "internalType": "contract IArcNSRegistry",
          "name": "",
          "type": "address"
        }
      ],
      "stateMutability": "view",
      "type": "function"
    },
    {
      "inputs": [
        {
          "internalType": "string",
          "name": "name_",
          "type": "string"
        },
        {
          "internalType": "uint256",
          "name": "duration",
          "type": "uint256"
        }
      ],
      "name": "renew",
      "outputs": [],
      "stateMutability": "nonpayable",
      "type": "function"
    },
    {
      "inputs": [],
      "name": "renounceOwnership",
      "outputs": [],
      "stateMutability": "nonpayable",
      "type": "function"
    },
    {
      "inputs": [
        {
          "internalType": "string",
          "name": "name_",
          "type": "string"
        },
        {
          "internalType": "uint256",
          "name": "duration",
          "type": "uint256"
        }
      ],
      "name": "rentPrice",
      "outputs": [
        {
          "components": [
            {
              "internalType": "uint256",
              "name": "base",
              "type": "uint256"
            },
            {
              "internalType": "uint256",
              "name": "premium",
              "type": "uint256"
            }
          ],
          "internalType": "struct IArcNSPriceOracle.Price",
          "name": "",
          "type": "tuple"
        }
      ],
      "stateMutability": "view",
      "type": "function"
    },
    {
      "inputs": [],
      "name": "resolver",
      "outputs": [
        {
          "internalType": "contract ArcNSResolver",
          "name": "",
          "type": "address"
        }
      ],
      "stateMutability": "view",
      "type": "function"
    },
    {
      "inputs": [
        {
          "internalType": "contract IArcNSPriceOracle",
          "name": "_oracle",
          "type": "address"
        }
      ],
      "name": "setPriceOracle",
      "outputs": [],
      "stateMutability": "nonpayable",
      "type": "function"
    },
    {
      "inputs": [
        {
          "internalType": "contract ArcNSResolver",
          "name": "_resolver",
          "type": "address"
        }
      ],
      "name": "setResolver",
      "outputs": [],
      "stateMutability": "nonpayable",
      "type": "function"
    },
    {
      "inputs": [
        {
          "internalType": "address",
          "name": "_treasury",
          "type": "address"
        }
      ],
      "name": "setTreasury",
      "outputs": [],
      "stateMutability": "nonpayable",
      "type": "function"
    },
    {
      "inputs": [
        {
          "internalType": "address",
          "name": "newOwner",
          "type": "address"
        }
      ],
      "name": "transferOwnership",
      "outputs": [],
      "stateMutability": "nonpayable",
      "type": "function"
    },
    {
      "inputs": [],
      "name": "treasury",
      "outputs": [
        {
          "internalType": "address",
          "name": "",
          "type": "address"
        }
      ],
      "stateMutability": "view",
      "type": "function"
    },
    {
      "inputs": [],
      "name": "usdc",
      "outputs": [
        {
          "internalType": "contract IERC20",
          "name": "",
          "type": "address"
        }
      ],
      "stateMutability": "view",
      "type": "function"
    }
  ],
  "bytecode": "0x60e0346101d257601f611dfb38819003918201601f19168301916001600160401b038311848410176101d65780849260c0946040528339810103126101d2578051906001600160a01b03821682036101d25760208101516001600160a01b03811691908290036101d25760408101516001600160a01b03811681036101d2576060820151906001600160a01b03821682036101d25760808301516001600160a01b03811693908490036101d25760a001516001600160a01b03811694908590036101d25733156101bf575f8054336001600160a01b0319821681178355604051989290916001600160a01b0316907f8be0079c531659141344cd1fd0a4f28419497f9722a3daafe3b4186f6b6457e09080a360017f9b779b17422d0df92223018b32b4d1fa46e071723d6817e2486d003becc55f005560805260018060a01b0319600154161760015560a05260c05260018060a01b0319600254161760025560018060a01b03196004541617600455611c1090816101eb8239608051818181610341015281816104c20152818161080401528181610bed0152611866015260a051818181610466015281816108930152610bad015260c051816106990152f35b631e4fbdf760e01b5f525f60045260245ffd5b5f80fd5b634e487b7160e01b5f52604160045260245ffdfe6080806040526004361015610012575f80fd5b5f905f3560e01c90816304f3bcec1461135b5750806321e57d6614611340578063237592e814610a2e5780632630c12f14610a055780632e0bfef71461096a5780632e4f692a1461094e5780633d4aa89e146108c25780633e413bee1461087d5780634e543b26146108335780635001f3b5146107ee57806350cfeddd146107d2578063530e784f1461076a57806359192b891461074b57806361d027b314610722578063715018a6146106c85780637b10399914610683578063839df9451461065957806383e7f6ff146106085780638a95b09f146105ea5780638ccb9ea6146105cc5780638da5cb5b146105a5578063acf1a841146103d2578063aeb8ce9b146102cd578063f0f4426014610288578063f14fcbc8146101c45763f2fde38b1461013c575f80fd5b346101c15760203660031901126101c1576101556113d7565b61015d611b94565b6001600160a01b031680156101ad5781546001600160a01b03198116821783556001600160a01b03167f8be0079c531659141344cd1fd0a4f28419497f9722a3daafe3b4186f6b6457e08380a380f35b631e4fbdf760e01b82526004829052602482fd5b80fd5b50346101c15760203660031901126101c157600435808252600360205260408220546201518081018091116102745742111561022f5780825260036020524260408320557f561eb038a114723afa3c72b445add7b8602de546264da1e7e826af628316dbcb8280a280f35b60405162461bcd60e51b815260206004820152601d60248201527f436f6e74726f6c6c65723a20636f6d6d69746d656e74206578697374730000006044820152606490fd5b634e487b7160e01b83526011600452602483fd5b50346101c15760203660031901126101c1576102a26113d7565b6102aa611b94565b60018060a01b03166bffffffffffffffffffffffff60a01b600454161760045580f35b50346101c15760203660031901126101c1576004356001600160401b0381116103bb576102fe90369060040161149d565b61030e81516020830120916119bd565b9081610322575b6020826040519015158152f35b6040516312dc929d60e31b8152600481019190915290506020816024817f00000000000000000000000000000000000000000000000000000000000000006001600160a01b03165afa9081156103c7578291610384575b50602091505f610315565b90506020813d6020116103bf575b8161039f6020938361142b565b810103126103bb575180151581036103bb57602091505f610379565b5080fd5b3d9150610392565b6040513d84823e3d90fd5b50346101c15760403660031901126101c1576004356001600160401b0381116103bb5761040390369060040161137e565b9060243591610410611960565b61041f6224ea0084101561155a565b61042f6312cc03008411156115a6565b61045361044684610441368587611467565b61181c565b60208151910151906115f2565b9161048a8360018060a01b0360045416337f0000000000000000000000000000000000000000000000000000000000000000611ac1565b610495368383611467565b805160209182012060405163c475abff60e01b8152600481018290526024810196909652949081604481897f00000000000000000000000000000000000000000000000000000000000000006001600160a01b03165af190811561059a578691610544575b5061052d907f3da24c024582931cfaf8267d8ed24d13a82a8068d5bd337d30ec45cea4e506ae94604051948594856115ff565b0390a260015f80516020611bbb8339815191525580f35b90506020813d602011610592575b8161055f6020938361142b565b8101031261058e57517f3da24c024582931cfaf8267d8ed24d13a82a8068d5bd337d30ec45cea4e506ae6104fa565b5f80fd5b3d9150610552565b6040513d88823e3d90fd5b50346101c157806003193601126101c157546040516001600160a01b039091168152602090f35b50346101c157806003193601126101c1576020604051620151808152f35b50346101c157806003193601126101c15760206040516224ea008152f35b50346101c15760403660031901126101c157600435906001600160401b0382116101c157604061064761063e366004860161149d565b6024359061181c565b60208251918051835201516020820152f35b50346101c15760203660031901126101c15760406020916004358152600383522054604051908152f35b50346101c157806003193601126101c1576040517f00000000000000000000000000000000000000000000000000000000000000006001600160a01b03168152602090f35b50346101c157806003193601126101c1576106e1611b94565b80546001600160a01b03198116825581906001600160a01b03167f8be0079c531659141344cd1fd0a4f28419497f9722a3daafe3b4186f6b6457e08280a380f35b50346101c157806003193601126101c1576004546040516001600160a01b039091168152602090f35b50346101c157806003193601126101c15760206040516312cc03008152f35b50346101c15760203660031901126101c1576004356001600160a01b038116908190036103bb57610799611b94565b600180546001600160a01b031916821790557ff261845a790fe29bbd6631e2ca4a5bdc83e6eed7c3271d9590d97287e00e91238280a280f35b50346101c157806003193601126101c157602060405160038152f35b50346101c157806003193601126101c1576040517f00000000000000000000000000000000000000000000000000000000000000006001600160a01b03168152602090f35b50346101c15760203660031901126101c1576004356001600160a01b038116908190036103bb57610862611b94565b6bffffffffffffffffffffffff60a01b600254161760025580f35b50346101c157806003193601126101c1576040517f00000000000000000000000000000000000000000000000000000000000000006001600160a01b03168152602090f35b50346101c15760e03660031901126101c1576004356001600160401b0381116103bb576108f390369060040161149d565b906108fc6113ab565b906109056113c1565b9060a435906001600160401b0382116101c157602061094686868661092d366004890161153f565b906109366113ed565b9233946064359160443591611658565b604051908152f35b50346101c157806003193601126101c1576020604051603c8152f35b50346101c1576101003660031901126101c1576004356001600160401b0381116103bb5761099c90369060040161149d565b6109a46113ab565b6109ac6113c1565b60a4356001600160401b038111610a01576109cb90369060040161153f565b916109d46113ed565b60e435959094906001600160a01b03871687036101c1576020610946888888886064356044358a8a611658565b8480fd5b50346101c157806003193601126101c1576001546040516001600160a01b039091168152602090f35b503461058e5760e036600319011261058e576004356001600160401b03811161058e57610a5f90369060040161137e565b610a676113ab565b9060443591610a746113c1565b60a435936001600160401b03851161058e573660238601121561058e578460040135906001600160401b03821161058e576024860195602436918460051b01011161058e57610ac16113ed565b95610aca611960565b610af3610ad836888b611467565b88339187610ae73689886114bb565b91878b60643592611658565b805f52600360205260405f2054156112fc57805f52600360205260405f2054603c81018091116112a35742106112b757805f52600360205260405f20546201518081018091116112a35742101561125e575f5260036020525f6040812055610b64610b5f36888b611467565b6119bd565b1561121957610b786224ea0083101561155a565b610b886312cc03008311156115a6565b610b9a61044683610441368a8d611467565b92610bd18460018060a01b0360045416337f0000000000000000000000000000000000000000000000000000000000000000611ac1565b610bdc36888b611467565b602081519101209760018060a01b037f00000000000000000000000000000000000000000000000000000000000000001691604051630ddf7fcb60e41b8152602081600481875afa908115610e49575f916111e7575b50604051602081019182528b604082015260408152610c5260608261142b565b5190206001600160a01b0388168015801597919692919061116957604051631ef5ace960e21b8152600481018e90526001600160a01b038c1660248201526044810191909152606481018790526020816084815f8a5af1908115610e49575f91611137575b509883610edc575b505050505b610d23575b50506040516001600160a01b03909416967fca6abbe9d7f11422cb6ca7629fbf6fe9efb1c621f71ce8f02b9f2a230097404f958594610d0c9490935091856115ff565b0390a360015f80516020611bbb8339815191525580f35b610d2e36888b611467565b9215610cc9575f600491604051928380926316aa8a1960e11b82525afa908115610e49575f91610e54575b5060016020938480610da2946040519784899551918291018487015e840190601760f91b83830152805192839101602183015e01015f838201520301601f19810184528361142b565b803b1561058e57604051637a806d6b60e01b81526001600160a01b0386166004820181905260248201526044810182905260806064820152915f918391829084908290610df3906084830190611634565b03925af18015610e4957610e09575b8080610cc9565b610d0c91975091610e3d5f7fca6abbe9d7f11422cb6ca7629fbf6fe9efb1c621f71ce8f02b9f2a230097404f96959461142b565b5f979150919293610e02565b6040513d5f823e3d90fd5b90503d805f833e610e65818361142b565b81019060208183031261058e578051906001600160401b03821161058e57019080601f8301121561058e57815193610e9c8561144c565b91610eaa604051938461142b565b8583526020868501011161058e576020806001935f8289819a82610da29a018386015e83010152945050509350610d59565b600a84116110f2575f5b848110610ef35750610cbf565b6024610f00828787611b53565b9050106110ad57610f12818686611b53565b60041161058e576001600160e01b031990351662d5fa2b60e81b811490811561109c575b811561108b575b811561107a575b501561103557610f55818686611b53565b60041161058e57610f67828787611b53565b918260241161058e575f92610fb16020859460405193849160048484019788378b60248401526024602319830191016044840137810186838201520301601f19810183528261142b565b519082865af13d15611030573d610fc78161144c565b90610fd5604051928361142b565b81525f60203d92013e5b15610fec57600101610ee6565b606460405162461bcd60e51b815260206004820152602060248201527f436f6e74726f6c6c65723a207265736f6c7665722063616c6c206661696c65646044820152fd5b610fdf565b60405162461bcd60e51b815260206004820152601f60248201527f436f6e74726f6c6c65723a20646973616c6c6f7765642073656c6563746f72006044820152606490fd5b631827356f60e11b1490505f610f44565b63043c4ea360e21b81149150610f3d565b638b95dd7160e01b81149150610f36565b60405162461bcd60e51b815260206004820152601f60248201527f436f6e74726f6c6c65723a2064617461206974656d20746f6f2073686f7274006044820152606490fd5b60405162461bcd60e51b815260206004820152601f60248201527f436f6e74726f6c6c65723a20746f6f206d616e792064617461206974656d73006044820152606490fd5b90506020813d602011611161575b816111526020938361142b565b8101031261058e57515f610cb7565b3d9150611145565b93985050505060405190633f2891eb60e21b825289600483015260018060a01b038816602483015260448201526020816064815f865af1908115610e49575f916111b5575b5094610cc4565b90506020813d6020116111df575b816111d06020938361142b565b8101031261058e57515f6111ae565b3d91506111c3565b90506020813d602011611211575b816112026020938361142b565b8101031261058e57515f610c32565b3d91506111f5565b60405162461bcd60e51b815260206004820152601860248201527f436f6e74726f6c6c65723a20696e76616c6964206e616d6500000000000000006044820152606490fd5b60405162461bcd60e51b815260206004820152601e60248201527f436f6e74726f6c6c65723a20636f6d6d69746d656e74206578706972656400006044820152606490fd5b634e487b7160e01b5f52601160045260245ffd5b60405162461bcd60e51b815260206004820152601e60248201527f436f6e74726f6c6c65723a20636f6d6d69746d656e7420746f6f206e657700006044820152606490fd5b606460405162461bcd60e51b815260206004820152602060248201527f436f6e74726f6c6c65723a20636f6d6d69746d656e74206e6f7420666f756e646044820152fd5b3461058e575f36600319011261058e576020604051600a8152f35b3461058e575f36600319011261058e576002546001600160a01b03168152602090f35b9181601f8401121561058e578235916001600160401b03831161058e576020838186019501011161058e57565b602435906001600160a01b038216820361058e57565b608435906001600160a01b038216820361058e57565b600435906001600160a01b038216820361058e57565b60c43590811515820361058e57565b604081019081106001600160401b0382111761141757604052565b634e487b7160e01b5f52604160045260245ffd5b90601f801991011681019081106001600160401b0382111761141757604052565b6001600160401b03811161141757601f01601f191660200190565b9291926114738261144c565b91611481604051938461142b565b82948184528183011161058e578281602093845f960137010152565b9080601f8301121561058e578160206114b893359101611467565b90565b929190926001600160401b038411611417578360051b9160206040516114e38286018261142b565b80968152019282019181831161058e5780935b838510611504575050505050565b84356001600160401b03811161058e57820183601f8201121561058e576020916115348583858095359101611467565b8152019401936114f6565b9080601f8301121561058e578160206114b8933591016114bb565b1561156157565b60405162461bcd60e51b815260206004820152601e60248201527f436f6e74726f6c6c65723a206475726174696f6e20746f6f2073686f727400006044820152606490fd5b156115ad57565b60405162461bcd60e51b815260206004820152601d60248201527f436f6e74726f6c6c65723a206475726174696f6e20746f6f206c6f6e670000006044820152606490fd5b919082018092116112a357565b90826040936080929796959760608552816060860152838501375f828285010152601f80199101168201019460208201520152565b805180835260209291819084018484015e5f828201840152601f01601f1916010190565b9693909592919560018851106117d7576001600160a01b031696871561179257861561174d576020819795939796949296519101209460405196879560208701996101208801988b5260408801526060870152608086015260018060a01b031660a085015261010060c0850152825180955261014084019460206101408260051b8701019401955f905b82821061171b57505050151560e08401526001600160a01b031661010083015203601f198101835261171591508261142b565b51902090565b91939550919360208061173b60019361013f198c82030186528a51611634565b980192019201879593919694926116e2565b60405162461bcd60e51b815260206004820152601c60248201527f436f6e74726f6c6c65723a20696e76616c6964206475726174696f6e000000006044820152606490fd5b60405162461bcd60e51b815260206004820152601960248201527f436f6e74726f6c6c65723a20696e76616c6964206f776e6572000000000000006044820152606490fd5b60405162461bcd60e51b815260206004820152601a60248201527f436f6e74726f6c6c65723a206e616d6520746f6f2073686f72740000000000006044820152606490fd5b905f602060405161182c816113fc565b8281520152815160208301209060018060a01b036001541660405192636b727d4360e11b8452600484015260208360248160018060a01b037f0000000000000000000000000000000000000000000000000000000000000000165afa928315610e49575f9361192a575b506118c2604093948451958694859384936350e9a71560e01b8552606060048601526064850190611634565b916024840152604483015203915afa908115610e49575f916118e2575090565b90506040813d604011611922575b816118fd6040938361142b565b8101031261058e57602060405191611914836113fc565b805183520151602082015290565b3d91506118f0565b92506020833d602011611958575b816119456020938361142b565b8101031261058e579151916118c2611896565b3d9150611938565b60025f80516020611bbb83398151915254146119895760025f80516020611bbb83398151915255565b633ee5aeb560e01b5f5260045ffd5b9081518110156119a9570160200190565b634e487b7160e01b5f52603260045260245ffd5b6003815110611abc575f5b8151811015611a58576001600160f81b03196119e48284611998565b5116606160f81b8110159081611a49575b8115611a25575b8115611a17575b5015611a11576001016119c8565b50505f90565b602d60f81b1490505f611a03565b9050600360fc1b81101580611a3b575b906119fc565b50603960f81b811115611a35565b603d60f91b81111591506119f5565b508051156119a95760208101516001600160f81b031916602d60f81b14908115611a8b575b50611a8757600190565b5f90565b80515f198101925082116112a357602d60f81b916001600160f81b031991611ab39190611998565b5116145f611a7d565b505f90565b6040516323b872dd60e01b5f9081526001600160a01b039384166004529290931660245260449390935260209060648180865af19060015f5114821615611b32575b6040525f60605215611b125750565b635274afe760e01b5f9081526001600160a01b0391909116600452602490fd5b906001811516611b4a57823b15153d15161690611b03565b503d5f823e3d90fd5b91908110156119a95760051b81013590601e198136030182121561058e5701908135916001600160401b03831161058e57602001823603811361058e579190565b5f546001600160a01b03163303611ba757565b63118cdaa760e01b5f523360045260245ffdfe9b779b17422d0df92223018b32b4d1fa46e071723d6817e2486d003becc55f00a2646970667358221220fa17c155695da911e4c499125e5ee5e62f16b8324a8c219ad257feead9162e6564736f6c634300081a0033",
  "linkReferences": {},
  "deployedLinkReferences": {}
}