{
  "_format": "hh-sol-artifact-1",
  "contractName": "ArcNSResolver",
  "sourceName": "contracts/v3/resolver/ArcNSResolver.sol",
  "abi": [
    {
      "inputs": [],
      "stateMutability": "nonpayable",
      "type": "constructor"
    },
    {
      "inputs": [],
      "name": "AccessControlBadConfirmation",
      "type": "error"
    },
    {
      "inputs": [
        {
          "internalType": "address",
          "name": "account",
          "type": "address"
        },
        {
          "internalType": "bytes32",
          "name": "neededRole",
          "type": "bytes32"
        }
      ],
      "name": "AccessControlUnauthorizedAccount",
      "type": "error"
    },
    {
      "inputs": [
        {
          "internalType": "address",
          "name": "target",
          "type": "address"
        }
      ],
      "name": "AddressEmptyCode",
      "type": "error"
    },
    {
      "inputs": [
        {
          "internalType": "address",
          "name": "implementation",
          "type": "address"
        }
      ],
      "name": "ERC1967InvalidImplementation",
      "type": "error"
    },
    {
      "inputs": [],
      "name": "ERC1967NonPayable",
      "type": "error"
    },
    {
      "inputs": [],
      "name": "FailedCall",
      "type": "error"
    },
    {
      "inputs": [],
      "name": "InvalidInitialization",
      "type": "error"
    },
    {
      "inputs": [],
      "name": "NotAuthorised",
      "type": "error"
    },
    {
      "inputs": [],
      "name": "NotInitializing",
      "type": "error"
    },
    {
      "inputs": [],
      "name": "UUPSUnauthorizedCallContext",
      "type": "error"
    },
    {
      "inputs": [
        {
          "internalType": "bytes32",
          "name": "slot",
          "type": "bytes32"
        }
      ],
      "name": "UUPSUnsupportedProxiableUUID",
      "type": "error"
    },
    {
      "inputs": [],
      "name": "ZeroRegistry",
      "type": "error"
    },
    {
      "anonymous": false,
      "inputs": [
        {
          "indexed": true,
          "internalType": "bytes32",
          "name": "node",
          "type": "bytes32"
        },
        {
          "indexed": false,
          "internalType": "address",
          "name": "addr",
          "type": "address"
        }
      ],
      "name": "AddrChanged",
      "type": "event"
    },
    {
      "anonymous": false,
      "inputs": [
        {
          "indexed": false,
          "internalType": "uint64",
          "name": "version",
          "type": "uint64"
        }
      ],
      "name": "Initialized",
      "type": "event"
    },
    {
      "anonymous": false,
      "inputs": [
        {
          "indexed": true,
          "internalType": "bytes32",
          "name": "node",
          "type": "bytes32"
        },
        {
          "indexed": false,
          "internalType": "string",
          "name": "name",
          "type": "string"
        }
      ],
      "name": "NameChanged",
      "type": "event"
    },
    {
      "anonymous": false,
      "inputs": [
        {
          "indexed": true,
          "internalType": "bytes32",
          "name": "role",
          "type": "bytes32"
        },
        {
          "indexed": true,
          "internalType": "bytes32",
          "name": "previousAdminRole",
          "type": "bytes32"
        },
        {
          "indexed": true,
          "internalType": "bytes32",
          "name": "newAdminRole",
          "type": "bytes32"
        }
      ],
      "name": "RoleAdminChanged",
      "type": "event"
    },
    {
      "anonymous": false,
      "inputs": [
        {
          "indexed": true,
          "internalType": "bytes32",
          "name": "role",
          "type": "bytes32"
        },
        {
          "indexed": true,
          "internalType": "address",
          "name": "account",
          "type": "address"
        },
        {
          "indexed": true,
          "internalType": "address",
          "name": "sender",
          "type": "address"
        }
      ],
      "name": "RoleGranted",
      "type": "event"
    },
    {
      "anonymous": false,
      "inputs": [
        {
          "indexed": true,
          "internalType": "bytes32",
          "name": "role",
          "type": "bytes32"
        },
        {
          "indexed": true,
          "internalType": "address",
          "name": "account",
          "type": "address"
        },
        {
          "indexed": true,
          "internalType": "address",
          "name": "sender",
          "type": "address"
        }
      ],
      "name": "RoleRevoked",
      "type": "event"
    },
    {
      "anonymous": false,
      "inputs": [
        {
          "indexed": true,
          "internalType": "address",
          "name": "implementation",
          "type": "address"
        }
      ],
      "name": "Upgraded",
      "type": "event"
    },
    {
      "inputs": [],
      "name": "ADMIN_ROLE",
      "outputs": [
        {
          "internalType": "bytes32",
          "name": "",
          "type": "bytes32"
        }
      ],
      "stateMutability": "view",
      "type": "function"
    },
    {
      "inputs": [],
      "name": "CONTROLLER_ROLE",
      "outputs": [
        {
          "internalType": "bytes32",
          "name": "",
          "type": "bytes32"
        }
      ],
      "stateMutability": "view",
      "type": "function"
    },
    {
      "inputs": [],
      "name": "DEFAULT_ADMIN_ROLE",
      "outputs": [
        {
          "internalType": "bytes32",
          "name": "",
          "type": "bytes32"
        }
      ],
      "stateMutability": "view",
      "type": "function"
    },
    {
      "inputs": [],
      "name": "UPGRADER_ROLE",
      "outputs": [
        {
          "internalType": "bytes32",
          "name": "",
          "type": "bytes32"
        }
      ],
      "stateMutability": "view",
      "type": "function"
    },
    {
      "inputs": [],
      "name": "UPGRADE_INTERFACE_VERSION",
      "outputs": [
        {
          "internalType": "string",
          "name": "",
          "type": "string"
        }
      ],
      "stateMutability": "view",
      "type": "function"
    },
    {
      "inputs": [
        {
          "internalType": "bytes32",
          "name": "node",
          "type": "bytes32"
        }
      ],
      "name": "addr",
      "outputs": [
        {
          "internalType": "address payable",
          "name": "",
          "type": "address"
        }
      ],
      "stateMutability": "view",
      "type": "function"
    },
    {
      "inputs": [
        {
          "internalType": "bytes32",
          "name": "role",
          "type": "bytes32"
        }
      ],
      "name": "getRoleAdmin",
      "outputs": [
        {
          "internalType": "bytes32",
          "name": "",
          "type": "bytes32"
        }
      ],
      "stateMutability": "view",
      "type": "function"
    },
    {
      "inputs": [
        {
          "internalType": "bytes32",
          "name": "role",
          "type": "bytes32"
        },
        {
          "internalType": "address",
          "name": "account",
          "type": "address"
        }
      ],
      "name": "grantRole",
      "outputs": [],
      "stateMutability": "nonpayable",
      "type": "function"
    },
    {
      "inputs": [
        {
          "internalType": "bytes32",
          "name": "role",
          "type": "bytes32"
        },
        {
          "internalType": "address",
          "name": "account",
          "type": "address"
        }
      ],
      "name": "hasRole",
      "outputs": [
        {
          "internalType": "bool",
          "name": "",
          "type": "bool"
        }
      ],
      "stateMutability": "view",
      "type": "function"
    },
    {
      "inputs": [
        {
          "internalType": "contract IArcNSRegistry",
          "name": "registry_",
          "type": "address"
        },
        {
          "internalType": "address",
          "name": "admin_",
          "type": "address"
        }
      ],
      "name": "initialize",
      "outputs": [],
      "stateMutability": "nonpayable",
      "type": "function"
    },
    {
      "inputs": [
        {
          "internalType": "bytes32",
          "name": "node",
          "type": "bytes32"
        }
      ],
      "name": "name",
      "outputs": [
        {
          "internalType": "string",
          "name": "",
          "type": "string"
        }
      ],
      "stateMutability": "view",
      "type": "function"
    },
    {
      "inputs": [],
      "name": "proxiableUUID",
      "outputs": [
        {
          "internalType": "bytes32",
          "name": "",
          "type": "bytes32"
        }
      ],
      "stateMutability": "view",
      "type": "function"
    },
    {
      "inputs": [],
      "name": "registry",
      "outputs": [
        {
          "internalType": "contract IArcNSRegistry",
          "name": "",
          "type": "address"
        }
      ],
      "stateMutability": "view",
      "type": "function"
    },
    {
      "inputs": [
        {
          "internalType": "bytes32",
          "name": "role",
          "type": "bytes32"
        },
        {
          "internalType": "address",
          "name": "callerConfirmation",
          "type": "address"
        }
      ],
      "name": "renounceRole",
      "outputs": [],
      "stateMutability": "nonpayable",
      "type": "function"
    },
    {
      "inputs": [
        {
          "internalType": "bytes32",
          "name": "role",
          "type": "bytes32"
        },
        {
          "internalType": "address",
          "name": "account",
          "type": "address"
        }
      ],
      "name": "revokeRole",
      "outputs": [],
      "stateMutability": "nonpayable",
      "type": "function"
    },
    {
      "inputs": [
        {
          "internalType": "bytes32",
          "name": "node",
          "type": "bytes32"
        },
        {
          "internalType": "address",
          "name": "a",
          "type": "address"
        }
      ],
      "name": "setAddr",
      "outputs": [],
      "stateMutability": "nonpayable",
      "type": "function"
    },
    {
      "inputs": [
        {
          "internalType": "address",
          "name": "controller",
          "type": "address"
        },
        {
          "internalType": "bool",
          "name": "trusted",
          "type": "bool"
        }
      ],
      "name": "setController",
      "outputs": [],
      "stateMutability": "nonpayable",
      "type": "function"
    },
    {
      "inputs": [
        {
          "internalType": "bytes32",
          "name": "node",
          "type": "bytes32"
        },
        {
          "internalType": "string",
          "name": "name_",
          "type": "string"
        }
      ],
      "name": "setName",
      "outputs": [],
      "stateMutability": "nonpayable",
      "type": "function"
    },
    {
      "inputs": [
        {
          "internalType": "bytes4",
          "name": "interfaceId",
          "type": "bytes4"
        }
      ],
      "name": "supportsInterface",
      "outputs": [
        {
          "internalType": "bool",
          "name": "",
          "type": "bool"
        }
      ],
      "stateMutability": "view",
      "type": "function"
    },
    {
      "inputs": [
        {
          "internalType": "address",
          "name": "newImplementation",
          "type": "address"
        },
        {
          "internalType": "bytes",
          "name": "data",
          "type": "bytes"
        }
      ],
      "name": "upgradeToAndCall",
      "outputs": [],
      "stateMutability": "payable",
      "type": "function"
    }
  ],
  "bytecode": "0x60a080604052346100e857306080527ff0c57e16840df040f15088dc2f81fe391c3923bec73e23a9662efc9c229c6a005460ff8160401c166100d9576002600160401b03196001600160401b03821601610073575b6040516118dd90816100ed82396080518181816105230152610c820152f35b6001600160401b0319166001600160401b039081177ff0c57e16840df040f15088dc2f81fe391c3923bec73e23a9662efc9c229c6a005581527fc7f505b2f371ae2175ee4913f4499e1f2633a7b5936321eed1cdaeb6115181d290602090a15f80610054565b63f92ee8a960e01b5f5260045ffd5b5f80fdfe60806040526004361015610011575f80fd5b5f3560e01c806301ffc9a714610154578063092c5b3b1461014f578063248a9ca31461014a5780632f2ff15d1461014557806336568abe146101405780633b3b57de1461013b578063485cc955146101365780634f1ef2861461013157806352d1902d1461012c578063691f34311461012757806375b238fc14610122578063773722131461011d5780637b1039991461011857806391d1485414610113578063a217fddf1461010e578063ad3cb1cc14610109578063d547741f14610104578063d5fa2b00146100ff578063e0dba60f146100fa5763f72c0d8b146100f5575f80fd5b610a9a565b6109ed565b61081c565b6107e8565b6107a9565b61078f565b610731565b61070a565b6106ab565b610671565b6105a1565b610511565b610496565b6102bf565b61028f565b610247565b61020c565b6101d5565b6101ae565b346101aa5760203660031901126101aa5760043563ffffffff60e01b81168091036101aa57602090637965db0b60e01b8114908115610199575b506040519015158152f35b6301ffc9a760e01b1490505f61018e565b5f80fd5b346101aa575f3660031901126101aa5760206040515f805160206118088339815191528152f35b346101aa5760203660031901126101aa5760206101f3600435610ad4565b604051908152f35b6001600160a01b038116036101aa57565b346101aa5760403660031901126101aa5761024560243560043561022f826101fb565b61024061023b82610ad4565b61119d565b611484565b005b346101aa5760403660031901126101aa57600435602435610267816101fb565b336001600160a01b0382160361028057610245916115aa565b63334bd91960e11b5f5260045ffd5b346101aa5760203660031901126101aa5760206102ad600435610b2a565b6040516001600160a01b039091168152f35b346101aa5760403660031901126101aa576004356102dc816101fb565b602435906102e9826101fb565b5f80516020611888833981519152549167ffffffffffffffff61031c60ff604086901c16159467ffffffffffffffff1690565b1680159081610437575b600114908161042d575b159081610424575b506104155761037c9183610373600167ffffffffffffffff195f805160206118888339815191525416175f8051602061188883398151915255565b6103db57610bf8565b61038257005b6103ac60ff60401b195f8051602061188883398151915254165f8051602061188883398151915255565b604051600181527fc7f505b2f371ae2175ee4913f4499e1f2633a7b5936321eed1cdaeb6115181d290602090a1005b6104106801000000000000000060ff60401b195f805160206118888339815191525416175f8051602061188883398151915255565b610bf8565b63f92ee8a960e01b5f5260045ffd5b9050155f610338565b303b159150610330565b849150610326565b634e487b7160e01b5f52604160045260245ffd5b90601f8019910116810190811067ffffffffffffffff82111761047557604052565b61043f565b67ffffffffffffffff811161047557601f01601f191660200190565b60403660031901126101aa576004356104ae816101fb565b6024359067ffffffffffffffff82116101aa57366023830112156101aa578160040135906104db8261047a565b916104e96040519384610453565b80835236602482860101116101aa576020815f92602461024597018387013784010152610c76565b346101aa575f3660031901126101aa577f00000000000000000000000000000000000000000000000000000000000000006001600160a01b031630036105685760206040515f805160206118288339815191528152f35b63703e46dd60e11b5f5260045ffd5b602060409281835280519182918282860152018484015e5f828201840152601f01601f1916010190565b346101aa5760203660031901126101aa576004355f52600460205260405f20604051905f908054906105d282610af2565b808552916001811690811561064a575060011461060a575b610606846105fa81860382610453565b60405191829182610577565b0390f35b5f90815260208120939250905b808210610630575090915081016020016105fa826105ea565b919260018160209254838588010152019101909291610617565b60ff191660208087019190915292151560051b850190920192506105fa91508390506105ea565b346101aa575f3660031901126101aa5760206040517fa49807205ce4d355092ef5a8a18f56e8913cf4a201fbe287825b095693c217758152f35b346101aa5760403660031901126101aa5760243560043567ffffffffffffffff82116101aa57366023830112156101aa5781600401359067ffffffffffffffff82116101aa5736602483850101116101aa576024610245930190610d8d565b346101aa575f3660031901126101aa575f546040516001600160a01b039091168152602090f35b346101aa5760403660031901126101aa57602060ff610783602435600435610758826101fb565b5f525f80516020611868833981519152845260405f209060018060a01b03165f5260205260405f2090565b54166040519015158152f35b346101aa575f3660031901126101aa5760206040515f8152f35b346101aa575f3660031901126101aa576106066040516107ca604082610453565b60058152640352e302e360dc1b602082015260405191829182610577565b346101aa5760403660031901126101aa5761024560243560043561080b826101fb565b61081761023b82610ad4565b6115aa565b346101aa5760403660031901126101aa5760043560243561083c816101fb565b5f54610858906001600160a01b03165b6001600160a01b031690565b6040516302571be360e01b815260048101849052602081602481855afa908115610990575f916109c4575b506001600160a01b031633141590816108df575b50806108ba575b6108ab5761024591610f6e565b631648fd0160e01b5f5260045ffd5b50335f9081525f80516020611848833981519152602052604090205460ff161561089e565b6040516302571be360e01b815260048101859052909150602081602481855afa801561099057610947926020925f92610995575b5060405163e985e9c560e01b81526001600160a01b0390921660048301523360248301529092839190829081906044820190565b03915afa908115610990575f91610961575b50155f610897565b610983915060203d602011610989575b61097b8183610453565b810190610f59565b5f610959565b503d610971565b610f4e565b6109b6919250833d85116109bd575b6109ae8183610453565b810190610f39565b905f610913565b503d6109a4565b6109dd915060203d6020116109bd576109ae8183610453565b5f610883565b801515036101aa57565b346101aa5760403660031901126101aa57600435610a0a816101fb565b602435610a16816109e3565b335f9081527fb16e88c42fd4e48df2dd6a2eabd6bc9aec654ec170056b470819f8892cc6431c602052604090205460ff1615610a635715610a5a57610245906111e3565b61024590611519565b63e2517d3f60e01b5f52336004527fa49807205ce4d355092ef5a8a18f56e8913cf4a201fbe287825b095693c2177560245260445ffd5b346101aa575f3660031901126101aa5760206040517f189ab7a9244df0848122154315af71fe140f3db0fe014031783b0946b8c9d2e38152f35b5f525f80516020611868833981519152602052600160405f20015490565b90600182811c92168015610b20575b6020831014610b0c57565b634e487b7160e01b5f52602260045260245ffd5b91607f1691610b01565b5f52600160205260405f20603c5f5260205260405f2060405190815f825492610b5284610af2565b8084529360018116908115610bd65750600114610b92575b50610b7792500382610453565b805115610b8d5761084c610b8a9161164a565b90565b505f90565b90505f9291925260205f20905f915b818310610bba575050906020610b77928201015f610b6a565b6020919350806001915483858801015201910190918392610ba1565b905060209250610b7794915060ff191682840152151560051b8201015f610b6a565b6001600160a01b0316908115610c675760ff5f805160206118888339815191525460401c1615610c5857610c55916bffffffffffffffffffffffff60a01b5f5416175f55610c458161126b565b50610c4f81611302565b506113c3565b50565b631afcd79f60e31b5f5260045ffd5b634a100d5960e01b5f5260045ffd5b90916001600160a01b037f000000000000000000000000000000000000000000000000000000000000000016308114908115610d6b575b5061056857610cba6110e5565b6040516352d1902d60e01b8152926020846004816001600160a01b0387165afa5f9481610d3a575b50610d0357634c9c8ce360e01b5f526001600160a01b03831660045260245ffd5b90915f805160206118288339815191528403610d2657610d249293506116bc565b565b632a87526960e21b5f52600484905260245ffd5b610d5d91955060203d602011610d64575b610d558183610453565b8101906116ad565b935f610ce2565b503d610d4b565b5f80516020611828833981519152546001600160a01b0316141590505f610cad565b909291610d98611154565b815f52600460205260405f209367ffffffffffffffff821161047557610dc882610dc28754610af2565b87610ec3565b5f94601f8311600114610e3a57610e1883807fb7d29e911041e8d9b843369e890bcb72c9388692ba48b65ac54e7214c4c348f79697985f91610e2f575b508160011b915f199060031b1c19161790565b90555b610e2a60405192839283610f12565b0390a2565b90508401355f610e05565b601f19831695610e4d825f5260205f2090565b905f5b888110610eab5750847fb7d29e911041e8d9b843369e890bcb72c9388692ba48b65ac54e7214c4c348f796979810610e92575b5050600183811b019055610e1b565b8301355f19600386901b60f8161c191690555f80610e83565b90916020600181928588013581550193019101610e50565b601f8211610ed057505050565b5f5260205f20906020601f840160051c83019310610f08575b601f0160051c01905b818110610efd575050565b5f8155600101610ef2565b9091508190610ee9565b90918060409360208452816020850152848401375f828201840152601f01601f1916010190565b908160209103126101aa5751610b8a816101fb565b6040513d5f823e3d90fd5b908160209103126101aa5751610b8a816109e3565b906040516bffffffffffffffffffffffff198260601b16602082015260148152610f99603482610453565b825f52600160205260405f20603c5f5260205260405f209080519067ffffffffffffffff821161047557610fd782610fd18554610af2565b85610ec3565b602090601f831160011461105557827f52d7d861f09ab3d26239d492e8968629f95e9e318cf0b73bfddc441522a15fd29593610e2a959361102d935f9261104a575b50508160011b915f199060031b1c19161790565b90555b6040516001600160a01b0390911681529081906020820190565b015190505f80611019565b90601f19831691611069855f5260205f2090565b925f5b8181106110cd57509260019285927f52d7d861f09ab3d26239d492e8968629f95e9e318cf0b73bfddc441522a15fd29896610e2a9896106110b5575b505050811b019055611030565b01515f1960f88460031b161c191690555f80806110a8565b9293602060018192878601518155019501930161106c565b335f9081527fab71e3f32666744d246edff3f96e4bdafee2e9867098cdd118a979a7464786a8602052604090205460ff161561111d57565b63e2517d3f60e01b5f52336004527f189ab7a9244df0848122154315af71fe140f3db0fe014031783b0946b8c9d2e360245260445ffd5b335f9081525f80516020611848833981519152602052604090205460ff161561117957565b63e2517d3f60e01b5f52336004525f8051602061180883398151915260245260445ffd5b5f8181525f805160206118688339815191526020908152604080832033845290915290205460ff16156111cd5750565b63e2517d3f60e01b5f523360045260245260445ffd5b6001600160a01b0381165f9081525f80516020611848833981519152602052604090205460ff16610b8d576001600160a01b0381165f9081525f8051602061184883398151915260205260409020805460ff1916600117905533906001600160a01b03165f805160206118088339815191525f805160206117e88339815191525f80a4600190565b6001600160a01b0381165f9081527fb7db2dd08fcb62d0c9e08c51941cae53c267786a0b75803fb7960902fc8ef97d602052604090205460ff16610b8d576001600160a01b03165f8181527fb7db2dd08fcb62d0c9e08c51941cae53c267786a0b75803fb7960902fc8ef97d60205260408120805460ff191660011790553391905f805160206117e88339815191528180a4600190565b6001600160a01b0381165f9081527fb16e88c42fd4e48df2dd6a2eabd6bc9aec654ec170056b470819f8892cc6431c602052604090205460ff16610b8d576001600160a01b0381165f9081527fb16e88c42fd4e48df2dd6a2eabd6bc9aec654ec170056b470819f8892cc6431c60205260409020805460ff1916600117905533906001600160a01b03167fa49807205ce4d355092ef5a8a18f56e8913cf4a201fbe287825b095693c217755f805160206117e88339815191525f80a4600190565b6001600160a01b0381165f9081527fab71e3f32666744d246edff3f96e4bdafee2e9867098cdd118a979a7464786a8602052604090205460ff16610b8d576001600160a01b0381165f9081527fab71e3f32666744d246edff3f96e4bdafee2e9867098cdd118a979a7464786a860205260409020805460ff1916600117905533906001600160a01b03167f189ab7a9244df0848122154315af71fe140f3db0fe014031783b0946b8c9d2e35f805160206117e88339815191525f80a4600190565b5f8181525f80516020611868833981519152602090815260408083206001600160a01b038616845290915290205460ff16611513575f8181525f80516020611868833981519152602090815260408083206001600160a01b03861684529091529020805460ff1916600117905533916001600160a01b0316905f805160206117e88339815191525f80a4600190565b50505f90565b6001600160a01b0381165f9081525f80516020611848833981519152602052604090205460ff1615610b8d576001600160a01b03165f8181525f8051602061184883398151915260205260408120805460ff191690553391905f80516020611808833981519152907ff6391f5c32d9c69d2a47ea670b442974b53935d1edc7fd64eb21e047a839171b9080a4600190565b5f8181525f80516020611868833981519152602090815260408083206001600160a01b038616845290915290205460ff1615611513575f8181525f80516020611868833981519152602090815260408083206001600160a01b03861684529091529020805460ff1916905533916001600160a01b0316907ff6391f5c32d9c69d2a47ea670b442974b53935d1edc7fd64eb21e047a839171b5f80a4600190565b601481510361165a576014015190565b60405162461bcd60e51b815260206004820152602560248201527f4172634e535265736f6c7665723a20696e76616c69642061646472657373206c6044820152640cadccee8d60db1b6064820152608490fd5b908160209103126101aa575190565b90813b1561173a575f8051602061182883398151915280546001600160a01b0319166001600160a01b0384169081179091557fbc7cd75a20ee27fd9adebab32041f755214dbc6bffa90cc0225b39da2e5c2d3b5f80a280511561172257610c559161175b565b50503461172b57565b63b398979f60e01b5f5260045ffd5b50634c9c8ce360e01b5f9081526001600160a01b0391909116600452602490fd5b905f8091602081519101845af480806117bb575b1561177e575050610b8a6117ce565b156117a357639996b31560e01b5f9081526001600160a01b0391909116600452602490fd5b3d15155f03610f4e5763d6bda27560e01b5f5260045ffd5b503d15158061176f5750813b151561176f565b604051903d82523d5f602084013e60203d83010160405256fe2f8788117e7eff1d82e926ec794901d17c78024a50270940304540a733656f0d7b765e0e932d348852a6f810bfa1ab891e259123f02db8cdcde614c570223357360894a13ba1a3210667c828492db98dca3e2076cc3735a920a3ca505d382bbc6a9e2d30c9502d2e64654936f9966c37f5208e723166202f23831d0d37f1338302dd7bc7dec4dceedda775e58dd541e08a116c6c53815c0bd028192f7b626800f0c57e16840df040f15088dc2f81fe391c3923bec73e23a9662efc9c229c6a00a264697066735822122069357ed8afea39bdc930eff781554e7ff78001796aa80a8cb059bc8b47c6ce9164736f6c634300081a0033",
  "linkReferences": {},
  "deployedLinkReferences": {}
}