{
  "_format": "hh-sol-artifact-1",
  "contractName": "ArcNSReverseRegistrar",
  "sourceName": "contracts/registrar/ArcNSReverseRegistrar.sol",
  "abi": [
    {
      "inputs": [
        {
          "internalType": "contract IArcNSRegistry",
          "name": "_registry",
          "type": "address"
        },
        {
          "internalType": "contract ArcNSResolver",
          "name": "_defaultResolver",
          "type": "address"
        }
      ],
      "stateMutability": "nonpayable",
      "type": "constructor"
    },
    {
      "inputs": [
        {
          "internalType": "address",
          "name": "owner",
          "type": "address"
        }
      ],
      "name": "OwnableInvalidOwner",
      "type": "error"
    },
    {
      "inputs": [
        {
          "internalType": "address",
          "name": "account",
          "type": "address"
        }
      ],
      "name": "OwnableUnauthorizedAccount",
      "type": "error"
    },
    {
      "anonymous": false,
      "inputs": [
        {
          "indexed": true,
          "internalType": "address",
          "name": "resolver",
          "type": "address"
        }
      ],
      "name": "DefaultResolverChanged",
      "type": "event"
    },
    {
      "anonymous": false,
      "inputs": [
        {
          "indexed": true,
          "internalType": "address",
          "name": "previousOwner",
          "type": "address"
        },
        {
          "indexed": true,
          "internalType": "address",
          "name": "newOwner",
          "type": "address"
        }
      ],
      "name": "OwnershipTransferred",
      "type": "event"
    },
    {
      "anonymous": false,
      "inputs": [
        {
          "indexed": true,
          "internalType": "address",
          "name": "addr",
          "type": "address"
        },
        {
          "indexed": true,
          "internalType": "bytes32",
          "name": "node",
          "type": "bytes32"
        }
      ],
      "name": "ReverseClaimed",
      "type": "event"
    },
    {
      "inputs": [],
      "name": "ADDR_REVERSE_NODE",
      "outputs": [
        {
          "internalType": "bytes32",
          "name": "",
          "type": "bytes32"
        }
      ],
      "stateMutability": "view",
      "type": "function"
    },
    {
      "inputs": [],
      "name": "REVERSE_NODE",
      "outputs": [
        {
          "internalType": "bytes32",
          "name": "",
          "type": "bytes32"
        }
      ],
      "stateMutability": "view",
      "type": "function"
    },
    {
      "inputs": [
        {
          "internalType": "address",
          "name": "owner_",
          "type": "address"
        }
      ],
      "name": "claim",
      "outputs": [
        {
          "internalType": "bytes32",
          "name": "",
          "type": "bytes32"
        }
      ],
      "stateMutability": "nonpayable",
      "type": "function"
    },
    {
      "inputs": [
        {
          "internalType": "address",
          "name": "addr_",
          "type": "address"
        },
        {
          "internalType": "address",
          "name": "owner_",
          "type": "address"
        },
        {
          "internalType": "address",
          "name": "resolver_",
          "type": "address"
        }
      ],
      "name": "claimForAddr",
      "outputs": [
        {
          "internalType": "bytes32",
          "name": "",
          "type": "bytes32"
        }
      ],
      "stateMutability": "nonpayable",
      "type": "function"
    },
    {
      "inputs": [
        {
          "internalType": "address",
          "name": "owner_",
          "type": "address"
        },
        {
          "internalType": "address",
          "name": "resolver_",
          "type": "address"
        }
      ],
      "name": "claimWithResolver",
      "outputs": [
        {
          "internalType": "bytes32",
          "name": "",
          "type": "bytes32"
        }
      ],
      "stateMutability": "nonpayable",
      "type": "function"
    },
    {
      "inputs": [],
      "name": "defaultResolver",
      "outputs": [
        {
          "internalType": "contract ArcNSResolver",
          "name": "",
          "type": "address"
        }
      ],
      "stateMutability": "view",
      "type": "function"
    },
    {
      "inputs": [
        {
          "internalType": "address",
          "name": "addr_",
          "type": "address"
        }
      ],
      "name": "node",
      "outputs": [
        {
          "internalType": "bytes32",
          "name": "",
          "type": "bytes32"
        }
      ],
      "stateMutability": "pure",
      "type": "function"
    },
    {
      "inputs": [],
      "name": "owner",
      "outputs": [
        {
          "internalType": "address",
          "name": "",
          "type": "address"
        }
      ],
      "stateMutability": "view",
      "type": "function"
    },
    {
      "inputs": [],
      "name": "registry",
      "outputs": [
        {
          "internalType": "contract IArcNSRegistry",
          "name": "",
          "type": "address"
        }
      ],
      "stateMutability": "view",
      "type": "function"
    },
    {
      "inputs": [],
      "name": "renounceOwnership",
      "outputs": [],
      "stateMutability": "nonpayable",
      "type": "function"
    },
    {
      "inputs": [
        {
          "internalType": "contract ArcNSResolver",
          "name": "_resolver",
          "type": "address"
        }
      ],
      "name": "setDefaultResolver",
      "outputs": [],
      "stateMutability": "nonpayable",
      "type": "function"
    },
    {
      "inputs": [
        {
          "internalType": "string",
          "name": "name_",
          "type": "string"
        }
      ],
      "name": "setName",
      "outputs": [
        {
          "internalType": "bytes32",
          "name": "",
          "type": "bytes32"
        }
      ],
      "stateMutability": "nonpayable",
      "type": "function"
    },
    {
      "inputs": [
        {
          "internalType": "address",
          "name": "addr_",
          "type": "address"
        },
        {
          "internalType": "address",
          "name": "owner_",
          "type": "address"
        },
        {
          "internalType": "address",
          "name": "resolver_",
          "type": "address"
        },
        {
          "internalType": "string",
          "name": "name_",
          "type": "string"
        }
      ],
      "name": "setNameForAddr",
      "outputs": [
        {
          "internalType": "bytes32",
          "name": "",
          "type": "bytes32"
        }
      ],
      "stateMutability": "nonpayable",
      "type": "function"
    },
    {
      "inputs": [
        {
          "internalType": "address",
          "name": "newOwner",
          "type": "address"
        }
      ],
      "name": "transferOwnership",
      "outputs": [],
      "stateMutability": "nonpayable",
      "type": "function"
    }
  ],
  "bytecode": "0x60a03461010157601f610dcb38819003918201601f19168301916001600160401b03831184841017610105578084926040948552833981010312610101578051906001600160a01b038216820361010157602001516001600160a01b038116908190036101015733156100ee575f8054336001600160a01b0319821681178355604051949290916001600160a01b0316907f8be0079c531659141344cd1fd0a4f28419497f9722a3daafe3b4186f6b6457e09080a3608052600180546001600160a01b031916919091179055610cb1908161011a823960805181818161035c0152818161075401526109ee0152f35b631e4fbdf760e01b5f525f60045260245ffd5b5f80fd5b634e487b7160e01b5f52604160045260245ffdfe60806040526004361015610011575f80fd5b5f803560e01c80630f5a5466146105575780631e83409a1461052657806365669631146104dc578063715018a6146104855780637a806d6b1461038b5780637b103999146103465780637cf8a2eb1461031e578063828eab0e146102f55780638da5cb5b146102ce578063af91e74c14610293578063bffbe61c14610267578063c47f0027146101a8578063c66485b21461013c5763f2fde38b146100b4575f80fd5b34610139576020366003190112610139576100cd610584565b6100d5610ae6565b6001600160a01b031680156101255781546001600160a01b03198116821783556001600160a01b03167f8be0079c531659141344cd1fd0a4f28419497f9722a3daafe3b4186f6b6457e08380a380f35b631e4fbdf760e01b82526004829052602482fd5b80fd5b5034610139576020366003190112610139576004356001600160a01b038116908190036101a45761016b610ae6565b600180546001600160a01b031916821790557feae17a84d9eb83d8c8eb317f9e7d64857bc363fa51674d996c023f4340c577cf8280a280f35b5080fd5b50346101395760203660031901126101395760043567ffffffffffffffff81116101a4576101da9036906004016105c6565b90826101f160018060a01b036001541633336106fc565b6001549093906001600160a01b0316803b15610263576102299383604051809681958294637737221360e01b84528a60048501610675565b03925af1801561025857610243575b602082604051908152f35b61024e83809261063f565b6101a45781610238565b6040513d85823e3d90fd5b8280fd5b503461013957602036600319011261013957602061028b610286610584565b6106a2565b604051908152f35b503461013957806003193601126101395760206040517fa097f6721ce401e757d1223a763fef49b8b5f90bb18567ddb86fd205dff71d348152f35b5034610139578060031936011261013957546040516001600160a01b039091168152602090f35b50346101395780600319360112610139576001546040516001600160a01b039091168152602090f35b503461013957806003193601126101395760206040515f80516020610c5c8339815191528152f35b50346101395780600319360112610139576040517f00000000000000000000000000000000000000000000000000000000000000006001600160a01b03168152602090f35b3461046c57608036600319011261046c576103a4610584565b6103ac61059a565b906103b56105b0565b9060643567ffffffffffffffff811161046c57826103da6103fe9236906004016105c6565b9590936001600160a01b03811633148015610470575b6103f9906105f4565b6106fc565b6001600160a01b0390921692833b1561046c57610435935f9283604051809781958294637737221360e01b84528960048501610675565b03925af191821561046157602092610451575b50604051908152f35b5f61045b9161063f565b5f610448565b6040513d5f823e3d90fd5b5f80fd5b506103f961047e33836109cd565b90506103f0565b3461046c575f36600319011261046c5761049d610ae6565b5f80546001600160a01b0319811682556001600160a01b03167f8be0079c531659141344cd1fd0a4f28419497f9722a3daafe3b4186f6b6457e08280a3005b3461046c57606036600319011261046c57602061028b6104fa610584565b61050261059a565b61050a6105b0565b916001600160a01b03811633148015610470576103f9906105f4565b3461046c57602036600319011261046c57602061028b610544610584565b6001546001600160a01b031690336106fc565b3461046c57604036600319011261046c57602061028b610575610584565b61057d61059a565b90336106fc565b600435906001600160a01b038216820361046c57565b602435906001600160a01b038216820361046c57565b604435906001600160a01b038216820361046c57565b9181601f8401121561046c5782359167ffffffffffffffff831161046c576020838186019501011161046c57565b156105fb57565b606460405162461bcd60e51b815260206004820152602060248201527f526576657273655265676973747261723a206e6f7420617574686f72697365646044820152fd5b90601f8019910116810190811067ffffffffffffffff82111761066157604052565b634e487b7160e01b5f52604160045260245ffd5b91926060938192845260406020850152816040850152848401375f828201840152601f01601f1916010190565b6106ab90610b0c565b60405160208101915f80516020610c5c83398151915283526040820152604081526106d760608261063f565b51902090565b9081602091031261046c57516001600160a01b038116810361046c5790565b91909161070881610b0c565b9060405191602083015f935f80516020610c5c83398151915282528260408201526040815261073860608261063f565b5190206040516302571be360e01b8152600481018290529095907f00000000000000000000000000000000000000000000000000000000000000006001600160a01b031690602081602481855afa9687156104615788915f986109ac575b506001600160a01b0316968715158061093c575b15610878575050803b1561046c575f928360a49260405198899586946305ef2c7f60e41b86525f80516020610c5c8339815191526004870152602486015260018060a01b0316604485015260648401528160848401525af1928315610461578493610843575b507f6ada868dd3058cf77a48a74489fd7963688e5464b2b0fa957ace976243270e92905b6001600160a01b03169180a390565b6108509192505f9061063f565b5f907f6ada868dd3058cf77a48a74489fd7963688e5464b2b0fa957ace976243270e92610810565b90965090926001600160a01b03928316929091168290036108be575b5050507f6ada868dd3058cf77a48a74489fd7963688e5464b2b0fa957ace976243270e9290610834565b60209295506064905f60405197889485936306ab592360e01b85525f80516020610c5c8339815191526004860152602485015260448401525af192831561046157849361090d575b8080610894565b6020809294503d8311610935575b610925818361063f565b8101031261046c5782915f610906565b503d61091b565b50604051630178b8bf60e01b8152600481018a90529150602082602481865afa80156104615789925f9161097d575b506001600160a01b03168814156107aa565b61099f915060203d6020116109a5575b610997818361063f565b8101906106dd565b5f61096b565b503d61098d565b6109c691985060203d6020116109a557610997818361063f565b965f610796565b6109d6906106a2565b6040516302571be360e01b81526004810191909152907f00000000000000000000000000000000000000000000000000000000000000006001600160a01b031690602083602481855afa928315610461575f93610ac5575b506001600160a01b039283169216828114928315610a4d575b50505090565b6020929350604490604051948593849263e985e9c560e01b8452600484015260248301525afa908115610461575f91610a8a575b505f8080610a47565b90506020813d602011610abd575b81610aa56020938361063f565b8101031261046c5751801515810361046c575f610a81565b3d9150610a98565b610adf91935060203d6020116109a557610997818361063f565b915f610a2e565b5f546001600160a01b03163303610af957565b63118cdaa760e01b5f523360045260245ffd5b604051610b1a60408261063f565b601081526f181899199a1a9b1b9c1cb0b131b232b360811b6020820152604051916bffffffffffffffffffffffff199060601b16602083015260148252610b6260348361063f565b60405190610b7160608361063f565b60288252602082019260403685375f5b60148110610b925750505051902090565b6001600160f81b0319610bb860ff600f610bac8587610c36565b5160fc1c161685610c36565b5116908060011b9181830460021482151715610c22575f1a610bda8387610c36565b536001600160f81b0319610bfe600f610bf38487610c36565b5160f81c1686610c36565b51169160018101809111610c2257610c1b6001935f1a9187610c36565b5301610b81565b634e487b7160e01b5f52601160045260245ffd5b908151811015610c47570160200190565b634e487b7160e01b5f52603260045260245ffdfe91d1777781884d03a6757a803996e38de2a42967fb37eeaca72729271025a9e2a2646970667358221220aa555a226642827ed6606440e192abd78928fa61a229981bf77af6ed4fd2b9d864736f6c634300081a0033",
  "linkReferences": {},
  "deployedLinkReferences": {}
}