{
  "_format": "hh-sol-artifact-1",
  "contractName": "ArcNSResolver",
  "sourceName": "contracts/resolver/ArcNSResolver.sol",
  "abi": [
    {
      "inputs": [
        {
          "internalType": "contract IArcNSRegistry",
          "name": "_registry",
          "type": "address"
        }
      ],
      "stateMutability": "nonpayable",
      "type": "constructor"
    },
    {
      "inputs": [
        {
          "internalType": "address",
          "name": "owner",
          "type": "address"
        }
      ],
      "name": "OwnableInvalidOwner",
      "type": "error"
    },
    {
      "inputs": [
        {
          "internalType": "address",
          "name": "account",
          "type": "address"
        }
      ],
      "name": "OwnableUnauthorizedAccount",
      "type": "error"
    },
    {
      "anonymous": false,
      "inputs": [
        {
          "indexed": true,
          "internalType": "bytes32",
          "name": "node",
          "type": "bytes32"
        },
        {
          "indexed": false,
          "internalType": "address",
          "name": "a",
          "type": "address"
        }
      ],
      "name": "AddrChanged",
      "type": "event"
    },
    {
      "anonymous": false,
      "inputs": [
        {
          "indexed": true,
          "internalType": "bytes32",
          "name": "node",
          "type": "bytes32"
        },
        {
          "indexed": false,
          "internalType": "uint256",
          "name": "coinType",
          "type": "uint256"
        },
        {
          "indexed": false,
          "internalType": "bytes",
          "name": "newAddress",
          "type": "bytes"
        }
      ],
      "name": "AddressChanged",
      "type": "event"
    },
    {
      "anonymous": false,
      "inputs": [
        {
          "indexed": true,
          "internalType": "bytes32",
          "name": "node",
          "type": "bytes32"
        },
        {
          "indexed": false,
          "internalType": "bytes",
          "name": "hash",
          "type": "bytes"
        }
      ],
      "name": "ContenthashChanged",
      "type": "event"
    },
    {
      "anonymous": false,
      "inputs": [
        {
          "indexed": true,
          "internalType": "bytes32",
          "name": "node",
          "type": "bytes32"
        },
        {
          "indexed": false,
          "internalType": "string",
          "name": "name",
          "type": "string"
        }
      ],
      "name": "NameChanged",
      "type": "event"
    },
    {
      "anonymous": false,
      "inputs": [
        {
          "indexed": true,
          "internalType": "address",
          "name": "previousOwner",
          "type": "address"
        },
        {
          "indexed": true,
          "internalType": "address",
          "name": "newOwner",
          "type": "address"
        }
      ],
      "name": "OwnershipTransferred",
      "type": "event"
    },
    {
      "anonymous": false,
      "inputs": [
        {
          "indexed": true,
          "internalType": "bytes32",
          "name": "node",
          "type": "bytes32"
        },
        {
          "indexed": true,
          "internalType": "string",
          "name": "indexedKey",
          "type": "string"
        },
        {
          "indexed": false,
          "internalType": "string",
          "name": "key",
          "type": "string"
        },
        {
          "indexed": false,
          "internalType": "string",
          "name": "value",
          "type": "string"
        }
      ],
      "name": "TextChanged",
      "type": "event"
    },
    {
      "inputs": [
        {
          "internalType": "bytes32",
          "name": "node",
          "type": "bytes32"
        }
      ],
      "name": "addr",
      "outputs": [
        {
          "internalType": "address payable",
          "name": "",
          "type": "address"
        }
      ],
      "stateMutability": "view",
      "type": "function"
    },
    {
      "inputs": [
        {
          "internalType": "bytes32",
          "name": "node",
          "type": "bytes32"
        },
        {
          "internalType": "uint256",
          "name": "coinType",
          "type": "uint256"
        }
      ],
      "name": "addr",
      "outputs": [
        {
          "internalType": "bytes",
          "name": "",
          "type": "bytes"
        }
      ],
      "stateMutability": "view",
      "type": "function"
    },
    {
      "inputs": [
        {
          "internalType": "bytes32",
          "name": "node",
          "type": "bytes32"
        }
      ],
      "name": "contenthash",
      "outputs": [
        {
          "internalType": "bytes",
          "name": "",
          "type": "bytes"
        }
      ],
      "stateMutability": "view",
      "type": "function"
    },
    {
      "inputs": [
        {
          "internalType": "bytes32",
          "name": "node",
          "type": "bytes32"
        }
      ],
      "name": "name",
      "outputs": [
        {
          "internalType": "string",
          "name": "",
          "type": "string"
        }
      ],
      "stateMutability": "view",
      "type": "function"
    },
    {
      "inputs": [],
      "name": "owner",
      "outputs": [
        {
          "internalType": "address",
          "name": "",
          "type": "address"
        }
      ],
      "stateMutability": "view",
      "type": "function"
    },
    {
      "inputs": [],
      "name": "registry",
      "outputs": [
        {
          "internalType": "contract IArcNSRegistry",
          "name": "",
          "type": "address"
        }
      ],
      "stateMutability": "view",
      "type": "function"
    },
    {
      "inputs": [],
      "name": "renounceOwnership",
      "outputs": [],
      "stateMutability": "nonpayable",
      "type": "function"
    },
    {
      "inputs": [
        {
          "internalType": "bytes32",
          "name": "node",
          "type": "bytes32"
        },
        {
          "internalType": "uint256",
          "name": "coinType",
          "type": "uint256"
        },
        {
          "internalType": "bytes",
          "name": "newAddress",
          "type": "bytes"
        }
      ],
      "name": "setAddr",
      "outputs": [],
      "stateMutability": "nonpayable",
      "type": "function"
    },
    {
      "inputs": [
        {
          "internalType": "bytes32",
          "name": "node",
          "type": "bytes32"
        },
        {
          "internalType": "address",
          "name": "a",
          "type": "address"
        }
      ],
      "name": "setAddr",
      "outputs": [],
      "stateMutability": "nonpayable",
      "type": "function"
    },
    {
      "inputs": [
        {
          "internalType": "bytes32",
          "name": "node",
          "type": "bytes32"
        },
        {
          "internalType": "bytes",
          "name": "hash",
          "type": "bytes"
        }
      ],
      "name": "setContenthash",
      "outputs": [],
      "stateMutability": "nonpayable",
      "type": "function"
    },
    {
      "inputs": [
        {
          "internalType": "bytes32",
          "name": "node",
          "type": "bytes32"
        },
        {
          "internalType": "string",
          "name": "name_",
          "type": "string"
        }
      ],
      "name": "setName",
      "outputs": [],
      "stateMutability": "nonpayable",
      "type": "function"
    },
    {
      "inputs": [
        {
          "internalType": "address",
          "name": "addr_",
          "type": "address"
        },
        {
          "internalType": "address",
          "name": "",
          "type": "address"
        },
        {
          "internalType": "address",
          "name": "",
          "type": "address"
        },
        {
          "internalType": "string",
          "name": "name_",
          "type": "string"
        }
      ],
      "name": "setNameForAddr",
      "outputs": [],
      "stateMutability": "nonpayable",
      "type": "function"
    },
    {
      "inputs": [
        {
          "internalType": "bytes32",
          "name": "node",
          "type": "bytes32"
        },
        {
          "internalType": "string",
          "name": "key",
          "type": "string"
        },
        {
          "internalType": "string",
          "name": "value",
          "type": "string"
        }
      ],
      "name": "setText",
      "outputs": [],
      "stateMutability": "nonpayable",
      "type": "function"
    },
    {
      "inputs": [
        {
          "internalType": "address",
          "name": "controller",
          "type": "address"
        },
        {
          "internalType": "bool",
          "name": "trusted",
          "type": "bool"
        }
      ],
      "name": "setTrustedController",
      "outputs": [],
      "stateMutability": "nonpayable",
      "type": "function"
    },
    {
      "inputs": [
        {
          "internalType": "bytes4",
          "name": "interfaceID",
          "type": "bytes4"
        }
      ],
      "name": "supportsInterface",
      "outputs": [
        {
          "internalType": "bool",
          "name": "",
          "type": "bool"
        }
      ],
      "stateMutability": "pure",
      "type": "function"
    },
    {
      "inputs": [
        {
          "internalType": "bytes32",
          "name": "node",
          "type": "bytes32"
        },
        {
          "internalType": "string",
          "name": "key",
          "type": "string"
        }
      ],
      "name": "text",
      "outputs": [
        {
          "internalType": "string",
          "name": "",
          "type": "string"
        }
      ],
      "stateMutability": "view",
      "type": "function"
    },
    {
      "inputs": [
        {
          "internalType": "address",
          "name": "newOwner",
          "type": "address"
        }
      ],
      "name": "transferOwnership",
      "outputs": [],
      "stateMutability": "nonpayable",
      "type": "function"
    },
    {
      "inputs": [
        {
          "internalType": "address",
          "name": "",
          "type": "address"
        }
      ],
      "name": "trustedControllers",
      "outputs": [
        {
          "internalType": "bool",
          "name": "",
          "type": "bool"
        }
      ],
      "stateMutability": "view",
      "type": "function"
    }
  ],
  "bytecode": "0x60a0346100f257601f611da238819003918201601f19168301916001600160401b038311848410176100f6578084926020946040528339810103126100f257516001600160a01b03811681036100f25733156100df575f8054336001600160a01b0319821681178355604051939290916001600160a01b0316907f8be0079c531659141344cd1fd0a4f28419497f9722a3daafe3b4186f6b6457e09080a3608052611c97908161010b823960805181818161029c0152818161049201528181610779015281816109e401528181610a7901528181610cfe01526118940152f35b631e4fbdf760e01b5f525f60045260245ffd5b5f80fd5b634e487b7160e01b5f52604160045260245ffdfe60806040526004361015610011575f80fd5b5f3560e01c806301ffc9a71461013457806310f13a8c1461012f578063304e6ade1461012a5780633b3b57de1461012557806359d1d43c14610120578063691f34311461011b578063715018a61461011657806377372213146101115780637a806d6b1461010c5780637b103999146101075780638b95dd71146101025780638da5cb5b146100fd578063bc1c58d1146100f8578063c9ec08d9146100f3578063cf050cee146100ee578063d5fa2b00146100e9578063f1cb7e06146100e45763f2fde38b146100df575f80fd5b610ea7565b610e65565b610cc0565b610c80565b610c28565b610bea565b610bc3565b610a13565b6109cf565b610961565b61074d565b6106f6565b6106c2565b610664565b6105fc565b610466565b610229565b346101f75760203660031901126101f75760043563ffffffff60e01b81168091036101f75761019e90631d9dabef60e11b81149081156101e6575b81156101d5575b81156101c4575b81156101b3575b81156101a2575b5060405190151581529081906020820190565b0390f35b6301ffc9a760e01b1490505f61018b565b63691f343160e01b81149150610184565b63bc1c58d160e01b8114915061017d565b631674750f60e21b81149150610176565b6378e5bf0360e11b8114915061016f565b5f80fd5b9181601f840112156101f75782359167ffffffffffffffff83116101f757602083818601950101116101f757565b346101f75760603660031901126101f75760043560243567ffffffffffffffff81116101f75761025d9036906004016101fb565b9060443567ffffffffffffffff81116101f75761027e9036906004016101fb565b6040516302571be360e01b8152600481018690526001600160a01b037f000000000000000000000000000000000000000000000000000000000000000016959194929391906020816024818a5afa9081156103df575f91610413575b506001600160a01b03163314801561032f575b61030796508015610309575b61030290610f65565b611093565b005b50335f90815260056020526040902061030290610328905b5460ff1690565b90506102f9565b506040516302571be360e01b8152600481018290526020816024818a5afa80156103df57610395976020925f926103e4575b5060405163e985e9c560e01b81526001600160a01b0390921660048301523360248301529097889190829081906044820190565b03915afa80156103df57610307965f916103b0575b506102ed565b6103d2915060203d6020116103d8575b6103ca81836108e8565b810190610f50565b5f6103aa565b503d6103c0565b610f45565b610405919250833d851161040c575b6103fd81836108e8565b810190610f30565b905f610361565b503d6103f3565b61042c915060203d60201161040c576103fd81836108e8565b5f6102da565b9060406003198301126101f757600435916024359067ffffffffffffffff82116101f757610462916004016101fb565b9091565b346101f75761047436610432565b6040516302571be360e01b8152600481018490526001600160a01b037f0000000000000000000000000000000000000000000000000000000000000000169391929190602081602481885afa9081156103df575f916105dd575b506001600160a01b03163314801561051e575b610307945080156104fb575b6104f690610f65565b6111fe565b50335f9081526005602052604090206104f69061051790610321565b90506104ed565b506040516302571be360e01b815260048101829052602081602481885afa80156103df57610584956020925f926105be575b5060405163e985e9c560e01b81526001600160a01b0390921660048301523360248301529095869190829081906044820190565b03915afa80156103df57610307945f9161059f575b506104e1565b6105b8915060203d6020116103d8576103ca81836108e8565b5f610599565b6105d6919250833d851161040c576103fd81836108e8565b905f610550565b6105f6915060203d60201161040c576103fd81836108e8565b5f6104ce565b346101f75760203660031901126101f757602061061a6004356113ac565b6040516001600160a01b039091168152f35b805180835260209291819084018484015e5f828201840152601f01601f1916010190565b90602061066192818152019061062c565b90565b346101f75761019e6106a76106ae602061067d36610432565b92915f526002825260405f208360405194859384378201908152030190206040519283809261132b565b03826108e8565b60405191829160208352602083019061062c565b346101f75760203660031901126101f7576004355f52600460205261019e6106a76106ae60405f206040519283809261132b565b346101f7575f3660031901126101f75761070e611a2f565b5f80546001600160a01b0319811682556001600160a01b03167f8be0079c531659141344cd1fd0a4f28419497f9722a3daafe3b4186f6b6457e08280a3005b346101f75761075b36610432565b6040516302571be360e01b8152600481018490526001600160a01b037f0000000000000000000000000000000000000000000000000000000000000000169391929190602081602481885afa9081156103df575f916108a4575b506001600160a01b031633148015610805575b610307945080156107e2575b6107dd90610f65565b6113f6565b50335f9081526005602052604090206107dd906107fe90610321565b90506107d4565b506040516302571be360e01b815260048101829052602081602481885afa80156103df5761086a956020925f926105be575060405163e985e9c560e01b81526001600160a01b0390921660048301523360248301529095869190829081906044820190565b03915afa80156103df57610307945f91610885575b506107c8565b61089e915060203d6020116103d8576103ca81836108e8565b5f61087f565b6108bd915060203d60201161040c576103fd81836108e8565b5f6107b5565b6001600160a01b038116036101f757565b634e487b7160e01b5f52604160045260245ffd5b90601f8019910116810190811067ffffffffffffffff82111761090a57604052565b6108d4565b67ffffffffffffffff811161090a57601f01601f191660200190565b9291926109378261090f565b9161094560405193846108e8565b8294818452818301116101f7578281602093845f960137010152565b346101f75760803660031901126101f75760043561097e816108c3565b6109896024356108c3565b6109946044356108c3565b6064359067ffffffffffffffff82116101f757366023830112156101f7576109c961030792369060248160040135910161092b565b906115ad565b346101f7575f3660031901126101f7576040517f00000000000000000000000000000000000000000000000000000000000000006001600160a01b03168152602090f35b346101f75760603660031901126101f75760043560243560443567ffffffffffffffff81116101f757366023820112156101f757610a5b90369060248160040135910161092b565b6040516302571be360e01b8152600481018490526001600160a01b037f0000000000000000000000000000000000000000000000000000000000000000169391929190602081602481885afa9081156103df575f91610ba4575b506001600160a01b031633148015610b05575b61030794508015610ae2575b610add90610f65565b6117a4565b50335f908152600560205260409020610add90610afe90610321565b9050610ad4565b506040516302571be360e01b815260048101829052602081602481885afa80156103df57610b6a956020925f926105be575060405163e985e9c560e01b81526001600160a01b0390921660048301523360248301529095869190829081906044820190565b03915afa80156103df57610307945f91610b85575b50610ac8565b610b9e915060203d6020116103d8576103ca81836108e8565b5f610b7f565b610bbd915060203d60201161040c576103fd81836108e8565b5f610ab5565b346101f7575f3660031901126101f7575f546040516001600160a01b039091168152602090f35b346101f75760203660031901126101f7576004355f52600360205261019e6106a76106ae60405f206040519283809261132b565b801515036101f757565b346101f75760403660031901126101f757600435610c45816108c3565b60243590610c5282610c1e565b610c5a611a2f565b60018060a01b03165f52600560205260405f209060ff8019835416911515161790555f80f35b346101f75760203660031901126101f757600435610c9d816108c3565b60018060a01b03165f526005602052602060ff60405f2054166040519015158152f35b346101f75760403660031901126101f757600435602435610ce0816108c3565b6040516302571be360e01b8152600481018390526001600160a01b037f0000000000000000000000000000000000000000000000000000000000000000169290602081602481875afa9081156103df575f91610e46575b506001600160a01b031633148015610d87575b61030793508015610d64575b610d5f90610f65565b611841565b50335f908152600560205260409020610d5f90610d8090610321565b9050610d56565b506040516302571be360e01b815260048101829052602081602481875afa80156103df57610ded946020925f92610e27575b5060405163e985e9c560e01b81526001600160a01b0390921660048301523360248301529094859190829081906044820190565b03915afa80156103df57610307935f91610e08575b50610d4a565b610e21915060203d6020116103d8576103ca81836108e8565b5f610e02565b610e3f919250833d851161040c576103fd81836108e8565b905f610db9565b610e5f915060203d60201161040c576103fd81836108e8565b5f610d37565b346101f75760403660031901126101f757600435602435905f52600160205260405f20905f5260205261019e6106a76106ae60405f206040519283809261132b565b346101f75760203660031901126101f757600435610ec4816108c3565b610ecc611a2f565b6001600160a01b03168015610f1d575f80546001600160a01b03198116831782556001600160a01b0316907f8be0079c531659141344cd1fd0a4f28419497f9722a3daafe3b4186f6b6457e09080a3005b631e4fbdf760e01b5f525f60045260245ffd5b908160209103126101f75751610661816108c3565b6040513d5f823e3d90fd5b908160209103126101f7575161066181610c1e565b15610f6c57565b60405162461bcd60e51b815260206004820152601860248201527f5265736f6c7665723a206e6f7420617574686f726973656400000000000000006044820152606490fd5b90600182811c92168015610fdf575b6020831014610fcb57565b634e487b7160e01b5f52602260045260245ffd5b91607f1691610fc0565b601f8211610ff657505050565b5f5260205f20906020601f840160051c8301931061102e575b601f0160051c01905b818110611023575050565b5f8155600101611018565b909150819061100f565b81604051928392833781015f815203902090565b908060209392818452848401375f828201840152601f01601f1916010190565b929061108590610661959360408652604086019161104c565b92602081850391015261104c565b9190949394825f52600260205260405f206020604051809285858337858201908152030190209567ffffffffffffffff811161090a576110dd816110d78954610fb1565b89610fe9565b5f96601f821160011461115d579061114d9161113382807f448bc014f1536726cf8d54ff3d6481ed3cbc683c2591ca204274009afa09b1a198999a9b5f91611152575b508160011b915f199060031b1c19161790565b90555b6111408484611038565b966040519485948561106c565b0390a3565b90508a01355f611120565b601f19821661116f825f5260205f2090565b905f5b8181106111d55750907f448bc014f1536726cf8d54ff3d6481ed3cbc683c2591ca204274009afa09b1a1969798998461114d959493106111bc575b5050600182811b019055611136565b8901355f19600385901b60f8161c191690555f806111ad565b888b0135835560209a8b019a60019093019201611172565b91602061066193818152019161104c565b909291815f52600360205260405f209367ffffffffffffffff821161090a576112318261122b8754610fb1565b87610fe9565b5f94601f83116001146112a25761128083807fe379c1624ed7e714cc0937528a32359d69d5281337765313dba4e081b72d75789697985f9161129757508160011b915f199060031b1c19161790565b90555b611292604051928392836111ed565b0390a2565b90508401355f611120565b601f198316956112b5825f5260205f2090565b905f5b8881106113135750847fe379c1624ed7e714cc0937528a32359d69d5281337765313dba4e081b72d7578969798106112fa575b5050600183811b019055611283565b8301355f19600386901b60f8161c191690555f806112eb565b909160206001819285880135815501930191016112b8565b5f929181549161133a83610fb1565b808352926001811690811561138f575060011461135657505050565b5f9081526020812093945091925b838310611375575060209250010190565b600181602092949394548385870101520191019190611364565b915050602093945060ff929192191683830152151560051b010190565b5f52600160205260405f20603c5f526020526106a76113d460405f206040519283809261132b565b8051156113f1576001600160a01b03906113ed906119db565b1690565b505f90565b909291815f52600460205260405f209367ffffffffffffffff821161090a576114238261122b8754610fb1565b5f94601f83116001146114725761128083807fb7d29e911041e8d9b843369e890bcb72c9388692ba48b65ac54e7214c4c348f79697985f9161129757508160011b915f199060031b1c19161790565b601f19831695611485825f5260205f2090565b905f5b8881106114c95750847fb7d29e911041e8d9b843369e890bcb72c9388692ba48b65ac54e7214c4c348f7969798106112fa575050600183811b019055611283565b90916020600181928588013581550193019101611488565b919091825167ffffffffffffffff811161090a57611509816115038454610fb1565b84610fe9565b6020601f82116001146115485781906115399394955f9261153d575b50508160011b915f199060031b1c19161790565b9055565b015190505f80611525565b601f1982169061155b845f5260205f2090565b915f5b8181106115955750958360019596971061157d575b505050811b019055565b01515f1960f88460031b161c191690555f8080611573565b9192602060018192868b01518155019401920161155e565b336001600160a01b038216148015611674575b1561162557815115611621576112926115f97fb7d29e911041e8d9b843369e890bcb72c9388692ba48b65ac54e7214c4c348f792611a67565b9261161581611610865f52600460205260405f2090565b6114e1565b60405191829182610650565b5050565b60405162461bcd60e51b815260206004820152602160248201527f5265736f6c7665723a206e6f7420617574686f726973656420666f72206164646044820152603960f91b6064820152608490fd5b50335f52600560205260ff60405f2054166115c0565b60409061066193928152816020820152019061062c565b90601481510361175357611610603c61174484611751957f65412581168e88a1e60c6459d7f44ae83ad0832e670826c05a4e2476b57af752604051806116e889888361168a565b0390a2807f52d7d861f09ab3d26239d492e8968629f95e9e318cf0b73bfddc441522a15fd2611733611719886119db565b6040516001600160a01b0390911681529081906020820190565b0390a25f52600160205260405f2090565b905f5260205260405f2090565b565b60405162461bcd60e51b8152602060048201526024808201527f5265736f6c7665723a20696e76616c69642045564d2061646472657373206c656044820152630dccee8d60e31b6064820152608490fd5b919091603c831480611831575b926117448261175195611610947f65412581168e88a1e60c6459d7f44ae83ad0832e670826c05a4e2476b57af752604051806117ee8a898361168a565b0390a2611803575f52600160205260405f2090565b807f52d7d861f09ab3d26239d492e8968629f95e9e318cf0b73bfddc441522a15fd2611733611719886119db565b92601483510361175357926117b1565b60405160609290921b6bffffffffffffffffffffffff191660208301529061187681603481015b03601f1981018352826108e8565b6040516302571be360e01b8152600481018390526001600160a01b037f0000000000000000000000000000000000000000000000000000000000000000169290602081602481875afa9081156103df575f916119bc575b506001600160a01b03163314801561191d575b611751935080156118fa575b6118f590610f65565b6116a1565b50335f9081526005602052604090206118f59061191690610321565b90506118ec565b506040516302571be360e01b815260048101829052602081602481875afa80156103df57611982946020925f92610e27575060405163e985e9c560e01b81526001600160a01b0390921660048301523360248301529094859190829081906044820190565b03915afa80156103df57611751935f9161199d575b506118e0565b6119b6915060203d6020116103d8576103ca81836108e8565b5f611997565b6119d5915060203d60201161040c576103fd81836108e8565b5f6118cd565b60148151036119eb576014015190565b606460405162461bcd60e51b815260206004820152602060248201527f5265736f6c7665723a20696e76616c69642061646472657373206c656e6774686044820152fd5b5f546001600160a01b03163303611a4257565b63118cdaa760e01b5f523360045260245ffd5b805191908290602001825e015f815290565b611868611a9c611a75611baf565b92604051928391602083016014916bffffffffffffffffffffffff199060601b1681520190565b611aa4611bdd565b915f5b60148110611b0f57505050604051611ac781611868602082018095611a55565b519020604051611b09816118686020820194856040917f91d1777781884d03a6757a803996e38de2a42967fb37eeaca72729271025a9e2825260208201520190565b51902090565b80611b5a611b2e611b54611b4e611b48611b3c611b2e6001988b611bff565b516001600160f81b03191690565b60041c600f60f81b1690565b60f81c90565b60ff1690565b85611bff565b611b70611b6683611c38565b915f1a9187611bff565b53611b94611b2e611b54611b4e600f60f81b611b8d84878b611bff565b1660f81c90565b611ba8611b66611ba384611c38565b611c53565b5301611aa7565b60405190611bbe6040836108e8565b601082526f181899199a1a9b1b9c1cb0b131b232b360811b6020830152565b60405160609190611bee83826108e8565b6028815291601f1901366020840137565b908151811015611c10570160200190565b634e487b7160e01b5f52603260045260245ffd5b634e487b7160e01b5f52601160045260245ffd5b908160011b9180830460021490151715611c4e57565b611c24565b9060018201809211611c4e5756fea264697066735822122056285a4d5422428fe835c7bf4ff1ca9dc93f27827fd6cd3bdb31240544c5047c64736f6c634300081a0033",
  "linkReferences": {},
  "deployedLinkReferences": {}
}