{
  "_format": "hh-sol-artifact-1",
  "contractName": "ArcNSResolver",
  "sourceName": "contracts/resolver/ArcNSResolver.sol",
  "abi": [
    {
      "inputs": [
        {
          "internalType": "contract IArcNSRegistry",
          "name": "_registry",
          "type": "address"
        }
      ],
      "stateMutability": "nonpayable",
      "type": "constructor"
    },
    {
      "inputs": [
        {
          "internalType": "address",
          "name": "owner",
          "type": "address"
        }
      ],
      "name": "OwnableInvalidOwner",
      "type": "error"
    },
    {
      "inputs": [
        {
          "internalType": "address",
          "name": "account",
          "type": "address"
        }
      ],
      "name": "OwnableUnauthorizedAccount",
      "type": "error"
    },
    {
      "anonymous": false,
      "inputs": [
        {
          "indexed": true,
          "internalType": "bytes32",
          "name": "node",
          "type": "bytes32"
        },
        {
          "indexed": false,
          "internalType": "address",
          "name": "a",
          "type": "address"
        }
      ],
      "name": "AddrChanged",
      "type": "event"
    },
    {
      "anonymous": false,
      "inputs": [
        {
          "indexed": true,
          "internalType": "bytes32",
          "name": "node",
          "type": "bytes32"
        },
        {
          "indexed": false,
          "internalType": "uint256",
          "name": "coinType",
          "type": "uint256"
        },
        {
          "indexed": false,
          "internalType": "bytes",
          "name": "newAddress",
          "type": "bytes"
        }
      ],
      "name": "AddressChanged",
      "type": "event"
    },
    {
      "anonymous": false,
      "inputs": [
        {
          "indexed": true,
          "internalType": "bytes32",
          "name": "node",
          "type": "bytes32"
        },
        {
          "indexed": false,
          "internalType": "bytes",
          "name": "hash",
          "type": "bytes"
        }
      ],
      "name": "ContenthashChanged",
      "type": "event"
    },
    {
      "anonymous": false,
      "inputs": [
        {
          "indexed": true,
          "internalType": "bytes32",
          "name": "node",
          "type": "bytes32"
        },
        {
          "indexed": false,
          "internalType": "string",
          "name": "name",
          "type": "string"
        }
      ],
      "name": "NameChanged",
      "type": "event"
    },
    {
      "anonymous": false,
      "inputs": [
        {
          "indexed": true,
          "internalType": "address",
          "name": "previousOwner",
          "type": "address"
        },
        {
          "indexed": true,
          "internalType": "address",
          "name": "newOwner",
          "type": "address"
        }
      ],
      "name": "OwnershipTransferred",
      "type": "event"
    },
    {
      "anonymous": false,
      "inputs": [
        {
          "indexed": true,
          "internalType": "bytes32",
          "name": "node",
          "type": "bytes32"
        },
        {
          "indexed": true,
          "internalType": "string",
          "name": "indexedKey",
          "type": "string"
        },
        {
          "indexed": false,
          "internalType": "string",
          "name": "key",
          "type": "string"
        },
        {
          "indexed": false,
          "internalType": "string",
          "name": "value",
          "type": "string"
        }
      ],
      "name": "TextChanged",
      "type": "event"
    },
    {
      "inputs": [
        {
          "internalType": "bytes32",
          "name": "node",
          "type": "bytes32"
        }
      ],
      "name": "addr",
      "outputs": [
        {
          "internalType": "address payable",
          "name": "",
          "type": "address"
        }
      ],
      "stateMutability": "view",
      "type": "function"
    },
    {
      "inputs": [
        {
          "internalType": "bytes32",
          "name": "node",
          "type": "bytes32"
        },
        {
          "internalType": "uint256",
          "name": "coinType",
          "type": "uint256"
        }
      ],
      "name": "addr",
      "outputs": [
        {
          "internalType": "bytes",
          "name": "",
          "type": "bytes"
        }
      ],
      "stateMutability": "view",
      "type": "function"
    },
    {
      "inputs": [
        {
          "internalType": "bytes32",
          "name": "node",
          "type": "bytes32"
        }
      ],
      "name": "contenthash",
      "outputs": [
        {
          "internalType": "bytes",
          "name": "",
          "type": "bytes"
        }
      ],
      "stateMutability": "view",
      "type": "function"
    },
    {
      "inputs": [
        {
          "internalType": "bytes32",
          "name": "node",
          "type": "bytes32"
        }
      ],
      "name": "name",
      "outputs": [
        {
          "internalType": "string",
          "name": "",
          "type": "string"
        }
      ],
      "stateMutability": "view",
      "type": "function"
    },
    {
      "inputs": [],
      "name": "owner",
      "outputs": [
        {
          "internalType": "address",
          "name": "",
          "type": "address"
        }
      ],
      "stateMutability": "view",
      "type": "function"
    },
    {
      "inputs": [],
      "name": "registry",
      "outputs": [
        {
          "internalType": "contract IArcNSRegistry",
          "name": "",
          "type": "address"
        }
      ],
      "stateMutability": "view",
      "type": "function"
    },
    {
      "inputs": [],
      "name": "renounceOwnership",
      "outputs": [],
      "stateMutability": "nonpayable",
      "type": "function"
    },
    {
      "inputs": [
        {
          "internalType": "bytes32",
          "name": "node",
          "type": "bytes32"
        },
        {
          "internalType": "uint256",
          "name": "coinType",
          "type": "uint256"
        },
        {
          "internalType": "bytes",
          "name": "newAddress",
          "type": "bytes"
        }
      ],
      "name": "setAddr",
      "outputs": [],
      "stateMutability": "nonpayable",
      "type": "function"
    },
    {
      "inputs": [
        {
          "internalType": "bytes32",
          "name": "node",
          "type": "bytes32"
        },
        {
          "internalType": "address",
          "name": "a",
          "type": "address"
        }
      ],
      "name": "setAddr",
      "outputs": [],
      "stateMutability": "nonpayable",
      "type": "function"
    },
    {
      "inputs": [
        {
          "internalType": "bytes32",
          "name": "node",
          "type": "bytes32"
        },
        {
          "internalType": "bytes",
          "name": "hash",
          "type": "bytes"
        }
      ],
      "name": "setContenthash",
      "outputs": [],
      "stateMutability": "nonpayable",
      "type": "function"
    },
    {
      "inputs": [
        {
          "internalType": "bytes32",
          "name": "node",
          "type": "bytes32"
        },
        {
          "internalType": "string",
          "name": "name_",
          "type": "string"
        }
      ],
      "name": "setName",
      "outputs": [],
      "stateMutability": "nonpayable",
      "type": "function"
    },
    {
      "inputs": [
        {
          "internalType": "address",
          "name": "addr_",
          "type": "address"
        },
        {
          "internalType": "address",
          "name": "",
          "type": "address"
        },
        {
          "internalType": "address",
          "name": "",
          "type": "address"
        },
        {
          "internalType": "string",
          "name": "name_",
          "type": "string"
        }
      ],
      "name": "setNameForAddr",
      "outputs": [],
      "stateMutability": "nonpayable",
      "type": "function"
    },
    {
      "inputs": [
        {
          "internalType": "bytes32",
          "name": "node",
          "type": "bytes32"
        },
        {
          "internalType": "string",
          "name": "key",
          "type": "string"
        },
        {
          "internalType": "string",
          "name": "value",
          "type": "string"
        }
      ],
      "name": "setText",
      "outputs": [],
      "stateMutability": "nonpayable",
      "type": "function"
    },
    {
      "inputs": [
        {
          "internalType": "address",
          "name": "controller",
          "type": "address"
        },
        {
          "internalType": "bool",
          "name": "trusted",
          "type": "bool"
        }
      ],
      "name": "setTrustedController",
      "outputs": [],
      "stateMutability": "nonpayable",
      "type": "function"
    },
    {
      "inputs": [
        {
          "internalType": "bytes4",
          "name": "interfaceID",
          "type": "bytes4"
        }
      ],
      "name": "supportsInterface",
      "outputs": [
        {
          "internalType": "bool",
          "name": "",
          "type": "bool"
        }
      ],
      "stateMutability": "pure",
      "type": "function"
    },
    {
      "inputs": [
        {
          "internalType": "bytes32",
          "name": "node",
          "type": "bytes32"
        },
        {
          "internalType": "string",
          "name": "key",
          "type": "string"
        }
      ],
      "name": "text",
      "outputs": [
        {
          "internalType": "string",
          "name": "",
          "type": "string"
        }
      ],
      "stateMutability": "view",
      "type": "function"
    },
    {
      "inputs": [
        {
          "internalType": "address",
          "name": "newOwner",
          "type": "address"
        }
      ],
      "name": "transferOwnership",
      "outputs": [],
      "stateMutability": "nonpayable",
      "type": "function"
    },
    {
      "inputs": [
        {
          "internalType": "address",
          "name": "",
          "type": "address"
        }
      ],
      "name": "trustedControllers",
      "outputs": [
        {
          "internalType": "bool",
          "name": "",
          "type": "bool"
        }
      ],
      "stateMutability": "view",
      "type": "function"
    }
  ],
  "bytecode": "0x60a0346100f257601f611e4038819003918201601f19168301916001600160401b038311848410176100f6578084926020946040528339810103126100f257516001600160a01b03811681036100f25733156100df575f8054336001600160a01b0319821681178355604051939290916001600160a01b0316907f8be0079c531659141344cd1fd0a4f28419497f9722a3daafe3b4186f6b6457e09080a3608052611d35908161010b82396080518181816102990152818161048e0152818161077501528181610aab01528181610b3f01528181610dc401526119300152f35b631e4fbdf760e01b5f525f60045260245ffd5b5f80fd5b634e487b7160e01b5f52604160045260245ffdfe60806040526004361015610011575f80fd5b5f3560e01c806301ffc9a71461013457806310f13a8c1461012f578063304e6ade1461012a5780633b3b57de1461012557806359d1d43c14610120578063691f34311461011b578063715018a61461011657806377372213146101115780637a806d6b1461010c5780637b103999146101075780638b95dd71146101025780638da5cb5b146100fd578063bc1c58d1146100f8578063c9ec08d9146100f3578063cf050cee146100ee578063d5fa2b00146100e9578063f1cb7e06146100e45763f2fde38b146100df575f80fd5b610f6d565b610f2b565b610d86565b610d46565b610cee565b610cb0565b610c89565b610ada565b610a96565b61095b565b610749565b6106f2565b6106be565b610660565b6105f8565b610462565b610228565b346101f75760203660031901126101f75760043563ffffffff60e01b81168091036101f75761019e90631d9dabef60e11b81149081156101e6575b81156101d5575b81156101c4575b81156101b3575b81156101a2575b5060405190151581529081906020820190565b0390f35b6301ffc9a760e01b1490505f61018b565b63691f343160e01b81149150610184565b63bc1c58d160e01b8114915061017d565b631674750f60e21b81149150610176565b6378e5bf0360e11b8114915061016f565b5f80fd5b9181601f840112156101f7578235916001600160401b0383116101f757602083818601950101116101f757565b346101f75760603660031901126101f7576004356024356001600160401b0381116101f75761025b9036906004016101fb565b906044356001600160401b0381116101f75761027b9036906004016101fb565b6040516302571be360e01b8152600481018690526001600160a01b037f000000000000000000000000000000000000000000000000000000000000000016959194929391906020816024818a5afa9081156103dc575f91610410575b506001600160a01b03163314801561032c575b61030496508015610306575b6102ff9061102b565b611159565b005b50335f9081526005602052604090206102ff90610325905b5460ff1690565b90506102f6565b506040516302571be360e01b8152600481018290526020816024818a5afa80156103dc57610392976020925f926103e1575b5060405163e985e9c560e01b81526001600160a01b0390921660048301523360248301529097889190829081906044820190565b03915afa80156103dc57610304965f916103ad575b506102ea565b6103cf915060203d6020116103d5575b6103c781836108e4565b810190611016565b5f6103a7565b503d6103bd565b61100b565b610402919250833d8511610409575b6103fa81836108e4565b810190610ff6565b905f61035e565b503d6103f0565b610429915060203d602011610409576103fa81836108e4565b5f6102d7565b9060406003198301126101f75760043591602435906001600160401b0382116101f75761045e916004016101fb565b9091565b346101f7576104703661042f565b6040516302571be360e01b8152600481018490526001600160a01b037f0000000000000000000000000000000000000000000000000000000000000000169391929190602081602481885afa9081156103dc575f916105d9575b506001600160a01b03163314801561051a575b610304945080156104f7575b6104f29061102b565b6112c3565b50335f9081526005602052604090206104f2906105139061031e565b90506104e9565b506040516302571be360e01b815260048101829052602081602481885afa80156103dc57610580956020925f926105ba575b5060405163e985e9c560e01b81526001600160a01b0390921660048301523360248301529095869190829081906044820190565b03915afa80156103dc57610304945f9161059b575b506104dd565b6105b4915060203d6020116103d5576103c781836108e4565b5f610595565b6105d2919250833d8511610409576103fa81836108e4565b905f61054c565b6105f2915060203d602011610409576103fa81836108e4565b5f6104ca565b346101f75760203660031901126101f7576020610616600435611470565b6040516001600160a01b039091168152f35b805180835260209291819084018484015e5f828201840152601f01601f1916010190565b90602061065d928181520190610628565b90565b346101f75761019e6106a36106aa60206106793661042f565b92915f526002825260405f20836040519485938437820190815203019020604051928380926113ef565b03826108e4565b604051918291602083526020830190610628565b346101f75760203660031901126101f7576004355f52600460205261019e6106a36106aa60405f20604051928380926113ef565b346101f7575f3660031901126101f75761070a611acd565b5f80546001600160a01b0319811682556001600160a01b03167f8be0079c531659141344cd1fd0a4f28419497f9722a3daafe3b4186f6b6457e08280a3005b346101f7576107573661042f565b6040516302571be360e01b8152600481018490526001600160a01b037f0000000000000000000000000000000000000000000000000000000000000000169391929190602081602481885afa9081156103dc575f916108a0575b506001600160a01b031633148015610801575b610304945080156107de575b6107d99061102b565b6114ba565b50335f9081526005602052604090206107d9906107fa9061031e565b90506107d0565b506040516302571be360e01b815260048101829052602081602481885afa80156103dc57610866956020925f926105ba575060405163e985e9c560e01b81526001600160a01b0390921660048301523360248301529095869190829081906044820190565b03915afa80156103dc57610304945f91610881575b506107c4565b61089a915060203d6020116103d5576103c781836108e4565b5f61087b565b6108b9915060203d602011610409576103fa81836108e4565b5f6107b1565b6001600160a01b038116036101f757565b634e487b7160e01b5f52604160045260245ffd5b90601f801991011681019081106001600160401b0382111761090557604052565b6108d0565b6001600160401b03811161090557601f01601f191660200190565b9291926109318261090a565b9161093f60405193846108e4565b8294818452818301116101f7578281602093845f960137010152565b346101f75760803660031901126101f757600435610978816108bf565b6109836024356108bf565b61098e6044356108bf565b6064356001600160401b0381116101f757366023820112156101f7576109be903690602481600401359101610925565b90336001600160a01b038216148015610a80575b15610a3157610a2c610a047fb7d29e911041e8d9b843369e890bcb72c9388692ba48b65ac54e7214c4c348f792611b05565b92610a2081610a1b865f52600460205260405f2090565b6115a4565b6040519182918261064c565b0390a2005b60405162461bcd60e51b815260206004820152602160248201527f5265736f6c7665723a206e6f7420617574686f726973656420666f72206164646044820152603960f91b6064820152608490fd5b50335f52600560205260ff60405f2054166109d2565b346101f7575f3660031901126101f7576040517f00000000000000000000000000000000000000000000000000000000000000006001600160a01b03168152602090f35b346101f75760603660031901126101f7576004356024356044356001600160401b0381116101f757366023820112156101f757610b21903690602481600401359101610925565b6040516302571be360e01b8152600481018490526001600160a01b037f0000000000000000000000000000000000000000000000000000000000000000169391929190602081602481885afa9081156103dc575f91610c6a575b506001600160a01b031633148015610bcb575b61030494508015610ba8575b610ba39061102b565b6117a0565b50335f908152600560205260409020610ba390610bc49061031e565b9050610b9a565b506040516302571be360e01b815260048101829052602081602481885afa80156103dc57610c30956020925f926105ba575060405163e985e9c560e01b81526001600160a01b0390921660048301523360248301529095869190829081906044820190565b03915afa80156103dc57610304945f91610c4b575b50610b8e565b610c64915060203d6020116103d5576103c781836108e4565b5f610c45565b610c83915060203d602011610409576103fa81836108e4565b5f610b7b565b346101f7575f3660031901126101f7575f546040516001600160a01b039091168152602090f35b346101f75760203660031901126101f7576004355f52600360205261019e6106a36106aa60405f20604051928380926113ef565b801515036101f757565b346101f75760403660031901126101f757600435610d0b816108bf565b60243590610d1882610ce4565b610d20611acd565b60018060a01b03165f52600560205260405f209060ff8019835416911515161790555f80f35b346101f75760203660031901126101f757600435610d63816108bf565b60018060a01b03165f526005602052602060ff60405f2054166040519015158152f35b346101f75760403660031901126101f757600435602435610da6816108bf565b6040516302571be360e01b8152600481018390526001600160a01b037f0000000000000000000000000000000000000000000000000000000000000000169290602081602481875afa9081156103dc575f91610f0c575b506001600160a01b031633148015610e4d575b61030493508015610e2a575b610e259061102b565b6118dd565b50335f908152600560205260409020610e2590610e469061031e565b9050610e1c565b506040516302571be360e01b815260048101829052602081602481875afa80156103dc57610eb3946020925f92610eed575b5060405163e985e9c560e01b81526001600160a01b0390921660048301523360248301529094859190829081906044820190565b03915afa80156103dc57610304935f91610ece575b50610e10565b610ee7915060203d6020116103d5576103c781836108e4565b5f610ec8565b610f05919250833d8511610409576103fa81836108e4565b905f610e7f565b610f25915060203d602011610409576103fa81836108e4565b5f610dfd565b346101f75760403660031901126101f757600435602435905f52600160205260405f20905f5260205261019e6106a36106aa60405f20604051928380926113ef565b346101f75760203660031901126101f757600435610f8a816108bf565b610f92611acd565b6001600160a01b03168015610fe3575f80546001600160a01b03198116831782556001600160a01b0316907f8be0079c531659141344cd1fd0a4f28419497f9722a3daafe3b4186f6b6457e09080a3005b631e4fbdf760e01b5f525f60045260245ffd5b908160209103126101f7575161065d816108bf565b6040513d5f823e3d90fd5b908160209103126101f7575161065d81610ce4565b1561103257565b60405162461bcd60e51b815260206004820152601860248201527f5265736f6c7665723a206e6f7420617574686f726973656400000000000000006044820152606490fd5b90600182811c921680156110a5575b602083101461109157565b634e487b7160e01b5f52602260045260245ffd5b91607f1691611086565b601f82116110bc57505050565b5f5260205f20906020601f840160051c830193106110f4575b601f0160051c01905b8181106110e9575050565b5f81556001016110de565b90915081906110d5565b81604051928392833781015f815203902090565b908060209392818452848401375f828201840152601f01601f1916010190565b929061114b9061065d9593604086526040860191611112565b926020818503910152611112565b9190949394825f52600260205260405f20602060405180928585833785820190815203019020956001600160401b038111610905576111a28161119c8954611077565b896110af565b5f96601f82116001146112225790611212916111f882807f448bc014f1536726cf8d54ff3d6481ed3cbc683c2591ca204274009afa09b1a198999a9b5f91611217575b508160011b915f199060031b1c19161790565b90555b61120584846110fe565b9660405194859485611132565b0390a3565b90508a01355f6111e5565b601f198216611234825f5260205f2090565b905f5b81811061129a5750907f448bc014f1536726cf8d54ff3d6481ed3cbc683c2591ca204274009afa09b1a1969798998461121295949310611281575b5050600182811b0190556111fb565b8901355f19600385901b60f8161c191690555f80611272565b888b0135835560209a8b019a60019093019201611237565b91602061065d938181520191611112565b909291815f52600360205260405f20936001600160401b038211610905576112f5826112ef8754611077565b876110af565b5f94601f83116001146113665761134483807fe379c1624ed7e714cc0937528a32359d69d5281337765313dba4e081b72d75789697985f9161135b57508160011b915f199060031b1c19161790565b90555b611356604051928392836112b2565b0390a2565b90508401355f6111e5565b601f19831695611379825f5260205f2090565b905f5b8881106113d75750847fe379c1624ed7e714cc0937528a32359d69d5281337765313dba4e081b72d7578969798106113be575b5050600183811b019055611347565b8301355f19600386901b60f8161c191690555f806113af565b9091602060018192858801358155019301910161137c565b5f92918154916113fe83611077565b8083529260018116908115611453575060011461141a57505050565b5f9081526020812093945091925b838310611439575060209250010190565b600181602092949394548385870101520191019190611428565b915050602093945060ff929192191683830152151560051b010190565b5f52600160205260405f20603c5f526020526106a361149860405f20604051928380926113ef565b8051156114b5576001600160a01b03906114b190611a79565b1690565b505f90565b909291815f52600460205260405f20936001600160401b038211610905576114e6826112ef8754611077565b5f94601f83116001146115355761134483807fb7d29e911041e8d9b843369e890bcb72c9388692ba48b65ac54e7214c4c348f79697985f9161135b57508160011b915f199060031b1c19161790565b601f19831695611548825f5260205f2090565b905f5b88811061158c5750847fb7d29e911041e8d9b843369e890bcb72c9388692ba48b65ac54e7214c4c348f7969798106113be575050600183811b019055611347565b9091602060018192858801358155019301910161154b565b91909182516001600160401b038111610905576115cb816115c58454611077565b846110af565b6020601f821160011461160a5781906115fb9394955f926115ff575b50508160011b915f199060031b1c19161790565b9055565b015190505f806115e7565b601f1982169061161d845f5260205f2090565b915f5b8181106116575750958360019596971061163f575b505050811b019055565b01515f1960f88460031b161c191690555f8080611635565b9192602060018192868b015181550194019201611620565b919091807f65412581168e88a1e60c6459d7f44ae83ad0832e670826c05a4e2476b57af752604051603c815260406020820152806116b06040820188610628565b0390a2807f52d7d861f09ab3d26239d492e8968629f95e9e318cf0b73bfddc441522a15fd260206116e086611a79565b6040516001600160a01b039091168152a25f52600160205260405f20603c5f5260205260405f2082516001600160401b03811161090557611725816115c58454611077565b6020601f82116001146117545781906115fb9394955f926115ff5750508160011b915f199060031b1c19161790565b601f19821690611767845f5260205f2090565b915f5b8181106117885750958360019596971061163f57505050811b019055565b9192602060018192868b01518155019401920161176a565b929192807f65412581168e88a1e60c6459d7f44ae83ad0832e670826c05a4e2476b57af75260405184815260406020820152806117e06040820189610628565b0390a2603c821461189a575b5f52600160205260405f20905f5260205260405f2082516001600160401b0381116109055761181f816115c58454611077565b6020601f821160011461184e5781906115fb9394955f926115ff5750508160011b915f199060031b1c19161790565b601f19821690611861845f5260205f2090565b915f5b8181106118825750958360019596971061163f57505050811b019055565b9192602060018192868b015181550194019201611864565b807f52d7d861f09ab3d26239d492e8968629f95e9e318cf0b73bfddc441522a15fd260206118c787611a79565b6040516001600160a01b039091168152a26117ec565b60405160609290921b6bffffffffffffffffffffffff191660208301529061191281603481015b03601f1981018352826108e4565b6040516302571be360e01b8152600481018390526001600160a01b037f0000000000000000000000000000000000000000000000000000000000000000169290602081602481875afa9081156103dc575f91611a5a575b506001600160a01b0316331480156119bb575b61199693508015611998575b6119919061102b565b61166f565b565b50335f908152600560205260409020611991906119b49061031e565b9050611988565b506040516302571be360e01b815260048101829052602081602481875afa80156103dc57611a20946020925f92610eed575060405163e985e9c560e01b81526001600160a01b0390921660048301523360248301529094859190829081906044820190565b03915afa80156103dc57611996935f91611a3b575b5061197c565b611a54915060203d6020116103d5576103c781836108e4565b5f611a35565b611a73915060203d602011610409576103fa81836108e4565b5f611969565b6014815103611a89576014015190565b606460405162461bcd60e51b815260206004820152602060248201527f5265736f6c7665723a20696e76616c69642061646472657373206c656e6774686044820152fd5b5f546001600160a01b03163303611ae057565b63118cdaa760e01b5f523360045260245ffd5b805191908290602001825e015f815290565b611904611b3a611b13611c4d565b92604051928391602083016014916bffffffffffffffffffffffff199060601b1681520190565b611b42611c7b565b915f5b60148110611bad57505050604051611b6581611904602082018095611af3565b519020604051611ba7816119046020820194856040917f91d1777781884d03a6757a803996e38de2a42967fb37eeaca72729271025a9e2825260208201520190565b51902090565b80611bf8611bcc611bf2611bec611be6611bda611bcc6001988b611c9d565b516001600160f81b03191690565b60041c600f60f81b1690565b60f81c90565b60ff1690565b85611c9d565b611c0e611c0483611cd6565b915f1a9187611c9d565b53611c32611bcc611bf2611bec600f60f81b611c2b84878b611c9d565b1660f81c90565b611c46611c04611c4184611cd6565b611cf1565b5301611b45565b60405190611c5c6040836108e4565b601082526f181899199a1a9b1b9c1cb0b131b232b360811b6020830152565b60405160609190611c8c83826108e4565b6028815291601f1901366020840137565b908151811015611cae570160200190565b634e487b7160e01b5f52603260045260245ffd5b634e487b7160e01b5f52601160045260245ffd5b908160011b9180830460021490151715611cec57565b611cc2565b9060018201809211611cec5756fea26469706673582212205001b9f05eed43d5928e057a46cd9d8dfb21be8fa6c43f8356ec25fa443dd10564736f6c634300081a0033",
  "linkReferences": {},
  "deployedLinkReferences": {}
}