{
  "_format": "hh-sol-artifact-1",
  "contractName": "ArcNSBaseRegistrar",
  "sourceName": "contracts/v3/registrar/ArcNSBaseRegistrar.sol",
  "abi": [
    {
      "inputs": [
        {
          "internalType": "contract IArcNSRegistry",
          "name": "registry_",
          "type": "address"
        },
        {
          "internalType": "bytes32",
          "name": "baseNode_",
          "type": "bytes32"
        },
        {
          "internalType": "string",
          "name": "tld_",
          "type": "string"
        }
      ],
      "stateMutability": "nonpayable",
      "type": "constructor"
    },
    {
      "inputs": [
        {
          "internalType": "address",
          "name": "sender",
          "type": "address"
        },
        {
          "internalType": "uint256",
          "name": "tokenId",
          "type": "uint256"
        },
        {
          "internalType": "address",
          "name": "owner",
          "type": "address"
        }
      ],
      "name": "ERC721IncorrectOwner",
      "type": "error"
    },
    {
      "inputs": [
        {
          "internalType": "address",
          "name": "operator",
          "type": "address"
        },
        {
          "internalType": "uint256",
          "name": "tokenId",
          "type": "uint256"
        }
      ],
      "name": "ERC721InsufficientApproval",
      "type": "error"
    },
    {
      "inputs": [
        {
          "internalType": "address",
          "name": "approver",
          "type": "address"
        }
      ],
      "name": "ERC721InvalidApprover",
      "type": "error"
    },
    {
      "inputs": [
        {
          "internalType": "address",
          "name": "operator",
          "type": "address"
        }
      ],
      "name": "ERC721InvalidOperator",
      "type": "error"
    },
    {
      "inputs": [
        {
          "internalType": "address",
          "name": "owner",
          "type": "address"
        }
      ],
      "name": "ERC721InvalidOwner",
      "type": "error"
    },
    {
      "inputs": [
        {
          "internalType": "address",
          "name": "receiver",
          "type": "address"
        }
      ],
      "name": "ERC721InvalidReceiver",
      "type": "error"
    },
    {
      "inputs": [
        {
          "internalType": "address",
          "name": "sender",
          "type": "address"
        }
      ],
      "name": "ERC721InvalidSender",
      "type": "error"
    },
    {
      "inputs": [
        {
          "internalType": "uint256",
          "name": "tokenId",
          "type": "uint256"
        }
      ],
      "name": "ERC721NonexistentToken",
      "type": "error"
    },
    {
      "inputs": [
        {
          "internalType": "uint256",
          "name": "id",
          "type": "uint256"
        }
      ],
      "name": "NameExpired",
      "type": "error"
    },
    {
      "inputs": [
        {
          "internalType": "uint256",
          "name": "id",
          "type": "uint256"
        }
      ],
      "name": "NameNotAvailable",
      "type": "error"
    },
    {
      "inputs": [],
      "name": "NotController",
      "type": "error"
    },
    {
      "inputs": [],
      "name": "NotLive",
      "type": "error"
    },
    {
      "inputs": [],
      "name": "NotTokenOwner",
      "type": "error"
    },
    {
      "inputs": [
        {
          "internalType": "address",
          "name": "owner",
          "type": "address"
        }
      ],
      "name": "OwnableInvalidOwner",
      "type": "error"
    },
    {
      "inputs": [
        {
          "internalType": "address",
          "name": "account",
          "type": "address"
        }
      ],
      "name": "OwnableUnauthorizedAccount",
      "type": "error"
    },
    {
      "anonymous": false,
      "inputs": [
        {
          "indexed": true,
          "internalType": "address",
          "name": "owner",
          "type": "address"
        },
        {
          "indexed": true,
          "internalType": "address",
          "name": "approved",
          "type": "address"
        },
        {
          "indexed": true,
          "internalType": "uint256",
          "name": "tokenId",
          "type": "uint256"
        }
      ],
      "name": "Approval",
      "type": "event"
    },
    {
      "anonymous": false,
      "inputs": [
        {
          "indexed": true,
          "internalType": "address",
          "name": "owner",
          "type": "address"
        },
        {
          "indexed": true,
          "internalType": "address",
          "name": "operator",
          "type": "address"
        },
        {
          "indexed": false,
          "internalType": "bool",
          "name": "approved",
          "type": "bool"
        }
      ],
      "name": "ApprovalForAll",
      "type": "event"
    },
    {
      "anonymous": false,
      "inputs": [
        {
          "indexed": true,
          "internalType": "address",
          "name": "controller",
          "type": "address"
        }
      ],
      "name": "ControllerAdded",
      "type": "event"
    },
    {
      "anonymous": false,
      "inputs": [
        {
          "indexed": true,
          "internalType": "address",
          "name": "controller",
          "type": "address"
        }
      ],
      "name": "ControllerRemoved",
      "type": "event"
    },
    {
      "anonymous": false,
      "inputs": [
        {
          "indexed": true,
          "internalType": "uint256",
          "name": "id",
          "type": "uint256"
        },
        {
          "indexed": true,
          "internalType": "address",
          "name": "owner",
          "type": "address"
        },
        {
          "indexed": false,
          "internalType": "uint256",
          "name": "expires",
          "type": "uint256"
        }
      ],
      "name": "NameRegistered",
      "type": "event"
    },
    {
      "anonymous": false,
      "inputs": [
        {
          "indexed": true,
          "internalType": "uint256",
          "name": "id",
          "type": "uint256"
        },
        {
          "indexed": false,
          "internalType": "uint256",
          "name": "expires",
          "type": "uint256"
        }
      ],
      "name": "NameRenewed",
      "type": "event"
    },
    {
      "anonymous": false,
      "inputs": [
        {
          "indexed": true,
          "internalType": "address",
          "name": "previousOwner",
          "type": "address"
        },
        {
          "indexed": true,
          "internalType": "address",
          "name": "newOwner",
          "type": "address"
        }
      ],
      "name": "OwnershipTransferred",
      "type": "event"
    },
    {
      "anonymous": false,
      "inputs": [
        {
          "indexed": true,
          "internalType": "address",
          "name": "from",
          "type": "address"
        },
        {
          "indexed": true,
          "internalType": "address",
          "name": "to",
          "type": "address"
        },
        {
          "indexed": true,
          "internalType": "uint256",
          "name": "tokenId",
          "type": "uint256"
        }
      ],
      "name": "Transfer",
      "type": "event"
    },
    {
      "inputs": [],
      "name": "GRACE_PERIOD",
      "outputs": [
        {
          "internalType": "uint256",
          "name": "",
          "type": "uint256"
        }
      ],
      "stateMutability": "view",
      "type": "function"
    },
    {
      "inputs": [
        {
          "internalType": "address",
          "name": "controller",
          "type": "address"
        }
      ],
      "name": "addController",
      "outputs": [],
      "stateMutability": "nonpayable",
      "type": "function"
    },
    {
      "inputs": [
        {
          "internalType": "address",
          "name": "to",
          "type": "address"
        },
        {
          "internalType": "uint256",
          "name": "tokenId",
          "type": "uint256"
        }
      ],
      "name": "approve",
      "outputs": [],
      "stateMutability": "nonpayable",
      "type": "function"
    },
    {
      "inputs": [
        {
          "internalType": "uint256",
          "name": "id",
          "type": "uint256"
        }
      ],
      "name": "available",
      "outputs": [
        {
          "internalType": "bool",
          "name": "",
          "type": "bool"
        }
      ],
      "stateMutability": "view",
      "type": "function"
    },
    {
      "inputs": [
        {
          "internalType": "address",
          "name": "owner",
          "type": "address"
        }
      ],
      "name": "balanceOf",
      "outputs": [
        {
          "internalType": "uint256",
          "name": "",
          "type": "uint256"
        }
      ],
      "stateMutability": "view",
      "type": "function"
    },
    {
      "inputs": [],
      "name": "baseNode",
      "outputs": [
        {
          "internalType": "bytes32",
          "name": "",
          "type": "bytes32"
        }
      ],
      "stateMutability": "view",
      "type": "function"
    },
    {
      "inputs": [
        {
          "internalType": "address",
          "name": "",
          "type": "address"
        }
      ],
      "name": "controllers",
      "outputs": [
        {
          "internalType": "bool",
          "name": "",
          "type": "bool"
        }
      ],
      "stateMutability": "view",
      "type": "function"
    },
    {
      "inputs": [
        {
          "internalType": "uint256",
          "name": "tokenId",
          "type": "uint256"
        }
      ],
      "name": "getApproved",
      "outputs": [
        {
          "internalType": "address",
          "name": "",
          "type": "address"
        }
      ],
      "stateMutability": "view",
      "type": "function"
    },
    {
      "inputs": [
        {
          "internalType": "address",
          "name": "owner",
          "type": "address"
        },
        {
          "internalType": "address",
          "name": "operator",
          "type": "address"
        }
      ],
      "name": "isApprovedForAll",
      "outputs": [
        {
          "internalType": "bool",
          "name": "",
          "type": "bool"
        }
      ],
      "stateMutability": "view",
      "type": "function"
    },
    {
      "inputs": [],
      "name": "name",
      "outputs": [
        {
          "internalType": "string",
          "name": "",
          "type": "string"
        }
      ],
      "stateMutability": "view",
      "type": "function"
    },
    {
      "inputs": [
        {
          "internalType": "uint256",
          "name": "",
          "type": "uint256"
        }
      ],
      "name": "nameExpires",
      "outputs": [
        {
          "internalType": "uint256",
          "name": "",
          "type": "uint256"
        }
      ],
      "stateMutability": "view",
      "type": "function"
    },
    {
      "inputs": [],
      "name": "owner",
      "outputs": [
        {
          "internalType": "address",
          "name": "",
          "type": "address"
        }
      ],
      "stateMutability": "view",
      "type": "function"
    },
    {
      "inputs": [
        {
          "internalType": "uint256",
          "name": "tokenId",
          "type": "uint256"
        }
      ],
      "name": "ownerOf",
      "outputs": [
        {
          "internalType": "address",
          "name": "",
          "type": "address"
        }
      ],
      "stateMutability": "view",
      "type": "function"
    },
    {
      "inputs": [
        {
          "internalType": "uint256",
          "name": "id",
          "type": "uint256"
        },
        {
          "internalType": "address",
          "name": "owner_",
          "type": "address"
        }
      ],
      "name": "reclaim",
      "outputs": [],
      "stateMutability": "nonpayable",
      "type": "function"
    },
    {
      "inputs": [
        {
          "internalType": "uint256",
          "name": "id",
          "type": "uint256"
        },
        {
          "internalType": "address",
          "name": "owner_",
          "type": "address"
        },
        {
          "internalType": "uint256",
          "name": "duration",
          "type": "uint256"
        }
      ],
      "name": "register",
      "outputs": [
        {
          "internalType": "uint256",
          "name": "",
          "type": "uint256"
        }
      ],
      "stateMutability": "nonpayable",
      "type": "function"
    },
    {
      "inputs": [
        {
          "internalType": "uint256",
          "name": "id",
          "type": "uint256"
        },
        {
          "internalType": "address",
          "name": "owner_",
          "type": "address"
        },
        {
          "internalType": "uint256",
          "name": "duration",
          "type": "uint256"
        },
        {
          "internalType": "address",
          "name": "resolver_",
          "type": "address"
        }
      ],
      "name": "registerWithResolver",
      "outputs": [
        {
          "internalType": "uint256",
          "name": "",
          "type": "uint256"
        }
      ],
      "stateMutability": "nonpayable",
      "type": "function"
    },
    {
      "inputs": [],
      "name": "registry",
      "outputs": [
        {
          "internalType": "contract IArcNSRegistry",
          "name": "",
          "type": "address"
        }
      ],
      "stateMutability": "view",
      "type": "function"
    },
    {
      "inputs": [
        {
          "internalType": "address",
          "name": "controller",
          "type": "address"
        }
      ],
      "name": "removeController",
      "outputs": [],
      "stateMutability": "nonpayable",
      "type": "function"
    },
    {
      "inputs": [
        {
          "internalType": "uint256",
          "name": "id",
          "type": "uint256"
        },
        {
          "internalType": "uint256",
          "name": "duration",
          "type": "uint256"
        }
      ],
      "name": "renew",
      "outputs": [
        {
          "internalType": "uint256",
          "name": "",
          "type": "uint256"
        }
      ],
      "stateMutability": "nonpayable",
      "type": "function"
    },
    {
      "inputs": [],
      "name": "renounceOwnership",
      "outputs": [],
      "stateMutability": "nonpayable",
      "type": "function"
    },
    {
      "inputs": [
        {
          "internalType": "address",
          "name": "from",
          "type": "address"
        },
        {
          "internalType": "address",
          "name": "to",
          "type": "address"
        },
        {
          "internalType": "uint256",
          "name": "tokenId",
          "type": "uint256"
        }
      ],
      "name": "safeTransferFrom",
      "outputs": [],
      "stateMutability": "nonpayable",
      "type": "function"
    },
    {
      "inputs": [
        {
          "internalType": "address",
          "name": "from",
          "type": "address"
        },
        {
          "internalType": "address",
          "name": "to",
          "type": "address"
        },
        {
          "internalType": "uint256",
          "name": "tokenId",
          "type": "uint256"
        },
        {
          "internalType": "bytes",
          "name": "data",
          "type": "bytes"
        }
      ],
      "name": "safeTransferFrom",
      "outputs": [],
      "stateMutability": "nonpayable",
      "type": "function"
    },
    {
      "inputs": [
        {
          "internalType": "address",
          "name": "operator",
          "type": "address"
        },
        {
          "internalType": "bool",
          "name": "approved",
          "type": "bool"
        }
      ],
      "name": "setApprovalForAll",
      "outputs": [],
      "stateMutability": "nonpayable",
      "type": "function"
    },
    {
      "inputs": [
        {
          "internalType": "bytes4",
          "name": "interfaceId",
          "type": "bytes4"
        }
      ],
      "name": "supportsInterface",
      "outputs": [
        {
          "internalType": "bool",
          "name": "",
          "type": "bool"
        }
      ],
      "stateMutability": "view",
      "type": "function"
    },
    {
      "inputs": [],
      "name": "symbol",
      "outputs": [
        {
          "internalType": "string",
          "name": "",
          "type": "string"
        }
      ],
      "stateMutability": "view",
      "type": "function"
    },
    {
      "inputs": [],
      "name": "tld",
      "outputs": [
        {
          "internalType": "string",
          "name": "",
          "type": "string"
        }
      ],
      "stateMutability": "view",
      "type": "function"
    },
    {
      "inputs": [
        {
          "internalType": "uint256",
          "name": "tokenId",
          "type": "uint256"
        }
      ],
      "name": "tokenURI",
      "outputs": [
        {
          "internalType": "string",
          "name": "",
          "type": "string"
        }
      ],
      "stateMutability": "view",
      "type": "function"
    },
    {
      "inputs": [
        {
          "internalType": "address",
          "name": "from",
          "type": "address"
        },
        {
          "internalType": "address",
          "name": "to",
          "type": "address"
        },
        {
          "internalType": "uint256",
          "name": "tokenId",
          "type": "uint256"
        }
      ],
      "name": "transferFrom",
      "outputs": [],
      "stateMutability": "nonpayable",
      "type": "function"
    },
    {
      "inputs": [
        {
          "internalType": "address",
          "name": "newOwner",
          "type": "address"
        }
      ],
      "name": "transferOwnership",
      "outputs": [],
      "stateMutability": "nonpayable",
      "type": "function"
    }
  ],
  "bytecode": "0x60c080604052346105c557612d00803803809161001c82856105c9565b83398101906060818303126105c5578051906001600160a01b03821682036105c5576020810151604082015190916001600160401b0382116105c557019183601f840112156105c55782516001600160401b0381116103de576040519361008d601f8301601f1916602001866105c9565b8185526020850195602083830101116105c557815f926020809301885e8501015260405165020b931a729960d51b60208201526100ef60056026838751808a8484015e810164204e616d6560d81b838201520301601a198101845201826105c9565b61012660266040518097654152434e532d60d01b6020830152875180918484015e81015f838201520301601f1981018752866105c9565b8051906001600160401b0382116103de575f5490600182811c921680156105bb575b60208310146103c05781601f84931161054e575b50602090601f83116001146104eb575f926104e0575b50508160011b915f199060031b1c1916175f555b83516001600160401b0381116103de57600154600181811c911680156104d6575b60208210146103c057601f8111610473575b50602094601f8211600114610410579481929394955f92610405575b50508160011b915f199060031b1c1916176001555b33156103f25760068054336001600160a01b0319821681179092556001600160a01b03167f8be0079c531659141344cd1fd0a4f28419497f9722a3daafe3b4186f6b6457e05f80a360805260a05280516001600160401b0381116103de57600754600181811c911680156103d4575b60208210146103c057601f811161035d575b50602091601f82116001146102fd579181925f926102f2575b50508160011b915f199060031b1c1916176007555b60405161271390816105ed82396080518181816101b101528181611041015281816114d2015281816116b3015261192e015260a051818181610189015281816105360152818161100e015281816114aa01526119040152f35b015190505f80610284565b601f1982169260075f52805f20915f5b8581106103455750836001951061032d575b505050811b01600755610299565b01515f1960f88460031b161c191690555f808061031f565b9192602060018192868501518155019401920161030d565b60075f527fa66cc928b5edb82af9bd49922954155ab7b0942694bea4ce44661d9a8736c688601f830160051c810191602084106103b6575b601f0160051c01905b8181106103ab575061026b565b5f815560010161039e565b9091508190610395565b634e487b7160e01b5f52602260045260245ffd5b90607f1690610259565b634e487b7160e01b5f52604160045260245ffd5b631e4fbdf760e01b5f525f60045260245ffd5b015190505f806101d5565b601f1982169560015f52805f20915f5b88811061045b57508360019596979810610443575b505050811b016001556101ea565b01515f1960f88460031b161c191690555f8080610435565b91926020600181928685015181550194019201610420565b60015f527fb10e2d527612073b26eecdfd717e6a320cf44b4afac2b0732d9fcbe2b7fa0cf6601f830160051c810191602084106104cc575b601f0160051c01905b8181106104c157506101b9565b5f81556001016104b4565b90915081906104ab565b90607f16906101a7565b015190505f80610172565b5f8080528281209350601f198516905b818110610536575090846001959493921061051e575b505050811b015f55610186565b01515f1960f88460031b161c191690555f8080610511565b929360206001819287860151815501950193016104fb565b5f80529091507f290decd9548b62a8d60345a988386fc84ba6bc95484008f6362f93160ef3e563601f840160051c810191602085106105b1575b90601f859493920160051c01905b8181106105a3575061015c565b5f8155849350600101610596565b9091508190610588565b91607f1691610148565b5f80fd5b601f909101601f19168101906001600160401b038211908210176103de5760405256fe6080806040526004361015610012575f80fd5b5f905f3560e01c90816301ffc9a714611c245750806306fdde0314611b82578063081812fc14611b46578063095ea7b314611a5c57806323b872dd14611a4557806328ed4f6c146118d95780632d5514321461180f57806342842e0e146117e45780636352211e1461178e57806370a082311461173d578063715018a6146116e25780637b1039991461169e5780637bd6b3a41461146a5780638da5cb5b1461144157806395d89b411461135e57806396e494e814611335578063a22cb46514611279578063a7fc7a0714611210578063b88d4fde1461117b578063c1a287e21461115d578063c475abff14610fed578063c87b56dd146105c2578063d6e4fa8614610598578063da8c229e14610559578063ddf7fcb01461051e578063e985e9c5146104c6578063f2fde38b1461043d578063f6a74ed7146103d75763fca247ac1461015d575f80fd5b346103d45760603660031901126103d4576004359061017a611cc9565b6040516302571be360e01b81527f0000000000000000000000000000000000000000000000000000000000000000600482018190527f00000000000000000000000000000000000000000000000000000000000000006001600160a01b03169490939091602081602481895afa9081156103c957829161039a575b50306001600160a01b039091160361038b57338152600960205260ff6040822054161561037c5761022582611f3f565b1561036a576020836102ad96848461023f60443542611f1e565b828252600886526040808320829055838352600287528220549099906001600160a01b0316610343576102728386612328565b6040516306ab592360e01b8152600481019190915260248101929092526001600160a01b039093166044820152978892839182906064820190565b03925af19081156103375750610301575b604051838152602094506001600160a01b03909216917fb3d987963d01b2f68493b4bdb130988f157ea43070d4ad840fee0466ed9370d9908590a3604051908152f35b6020843d60201161032f575b8161031a60209383611d51565b8101031261032b57602093506102be565b5f80fd5b3d915061030d565b604051903d90823e3d90fd5b82825260028652604082205461036590849087906001600160a01b03166122ce565b610272565b602491632db8ab9760e11b8252600452fd5b6323019e6760e01b8152600490fd5b63baf13b3f60e01b8152600490fd5b6103bc915060203d6020116103c2575b6103b48183611d51565b810190611ef0565b5f6101f5565b503d6103aa565b6040513d84823e3d90fd5b80fd5b50346103d45760203660031901126103d4576103f1611cb3565b6103f96122a7565b6001600160a01b0316808252600960205260408220805460ff191690557f33d83959be2573f5453b12eb9d43b3499bc57d96bd2f067ba44803c859e811138280a280f35b50346103d45760203660031901126103d457610457611cb3565b61045f6122a7565b6001600160a01b031680156104b257600680546001600160a01b0319811683179091556001600160a01b03167f8be0079c531659141344cd1fd0a4f28419497f9722a3daafe3b4186f6b6457e08380a380f35b631e4fbdf760e01b82526004829052602482fd5b50346103d45760403660031901126103d45760406104e2611cb3565b916104eb611cc9565b9260018060a01b031681526005602052209060018060a01b03165f52602052602060ff60405f2054166040519015158152f35b50346103d457806003193601126103d45760206040517f00000000000000000000000000000000000000000000000000000000000000008152f35b50346103d45760203660031901126103d45760209060ff906040906001600160a01b03610584611cb3565b168152600984522054166040519015158152f35b50346103d45760203660031901126103d45760406020916004358152600883522054604051908152f35b50346103d45760203660031901126103d4576004356105e081612124565b50604051906105f0606083611d51565b6040808352602083019190368337604092835161060d8582611d51565b601081526f181899199a1a9b1b9c1cb0b131b232b360811b6020820152855b60208110610f49575050906106a2602192610670602287518097602082019461060f60f31b86525180918484015e81018a838201520301601f198101875286611d51565b61069486519485926020840197518091895e8301601760f91b60208201520161209d565b03601f198101845283611d51565b84526008602052828420544281108015610f245784516106c28682611d51565b600781526608d9598d0d0d0d60ca1b60208201525b8115610eff5785516106e98782611d51565b60078152661156141254915160ca1b6020820152905b86517f3c73766720786d6c6e733d22687474703a2f2f7777772e77332e6f72672f32306020808301919091527f30302f737667222077696474683d2234303022206865696768743d2234303022828a01527f2076696577426f783d223020302034303020343030223e00000000000000000060608301527f3c646566733e3c6c696e6561724772616469656e742069643d2262672220783160778301527f3d223025222079313d223025222078323d2231303025222079323d2231303025609783015261111f60f11b60b78301527f3c73746f70206f66667365743d22302522207374796c653d2273746f702d636f60b98301527f6c6f723a23306631373261222f3e3c73746f70206f66667365743d223130302560d98301527f22207374796c653d2273746f702d636f6c6f723a23316533613566222f3e3c2f60f9830152753634b732b0b923b930b234b2b73a1f1e17b232b3399f60511b6101198301527f3c726563742077696474683d2234303022206865696768743d2234303022206661012f8301527f696c6c3d2275726c2823626729222072783d223230222f3e000000000000000061014f8301527f3c636972636c652063783d22323030222063793d223132302220723d2235302261016783015266103334b6361e9160c91b610187830152825191938493909291810191808361018e87015e71111037b830b1b4ba3c9e911817189a91179f60711b61018e918601918201527f3c7465787420783d223230302220793d223133302220666f6e742d66616d696c6101a08201527f793d226d6f6e6f73706163652220666f6e742d73697a653d223332222066696c6101c082015262361e9160e91b6101e082015281519081846101e383015e7f2220746578742d616e63686f723d226d6964646c652220666f6e742d776569676101e3929091019182015273343a1e913137b632111f20a9219e17ba32bc3a1f60611b6102038201527f3c7465787420783d223230302220793d223232302220666f6e742d66616d696c6102178201527f793d226d6f6e6f73706163652220666f6e742d73697a653d223232222066696c6102378201527f6c3d22236666666666662220746578742d616e63686f723d226d6964646c652261025782015273103337b73a16bbb2b4b3b43a1e913137b632111f60611b61027782015288519061018e81019082908c9061028b015e0160550160a88101661e17ba32bc3a1f60c91b905260af81017f3c7265637420783d223134302220793d22323530222077696474683d22313230905260cf81017f22206865696768743d223238222072783d223134222066696c6c3d22000000009052815190818460eb83015e0160a8019070111037b830b1b4ba3c9e9118171911179f60791b6043830152605482017f3c7465787420783d223230302220793d223236392220666f6e742d66616d696c9052607482017f793d226d6f6e6f73706163652220666f6e742d73697a653d223132222066696c905262361e9160e91b6094830152518092609783015e01604301605481017f2220746578742d616e63686f723d226d6964646c65223e000000000000000000905281516020819301606b83015e661e17ba32bc3a1f60c91b9101606b8101919091527f3c7465787420783d223230302220793d223336302220666f6e742d66616d696c60728201527f793d226d6f6e6f73706163652220666f6e742d73697a653d223130222066696c60928201527f6c3d22233634373438622220746578742d616e63686f723d226d6964646c652260b28201527f3e417263204e616d6520536572766963653c2f746578743e000000000000000060d2820152651e17b9bb339f60d11b60ea8201520360d081018252610c639060f00182611d51565b610c6c906123ca565b91610c7690612642565b9015610eda578451610c888682611d51565b6007815266115e1c1a5c995960ca1b6020820152915b8551948594683d913730b6b2911d1160b91b6020870152518091602987015e7f222c226465736372697074696f6e223a224172634e5320646f6d61696e206e616029918601918201527f6d652e20446563656e7472616c697a6564206964656e74697479206f6e20417260498201527f6320546573746e65742e222c22696d616765223a22646174613a696d6167652f60698201526e1cdd99cade1b5b0ed8985cd94d8d0b608a1b60898201528151918290602001609883015e7f222c2261747472696275746573223a5b7b2274726169745f74797065223a2254609892909101918201526d26221116113b30b63ab2911d111760911b60b8820152610da69060c60161209d565b7f227d2c7b2274726169745f74797065223a22457870697279222c22646973706c8152602081017f61795f74797065223a2264617465222c2276616c7565223a0000000000000000905281516020819301603883015e01603881017f7d2c7b2274726169745f74797065223a22537461747573222c2276616c7565229052611d1160f11b605882015281516020819301605a83015e0160380163227d5d7d60e01b602282015203602201601b1981018252600401610e649082611d51565b610e6d906123ca565b8151928391602083017f646174613a6170706c69636174696f6e2f6a736f6e3b6261736536342c000000905280516020819201603d85015e820190603d82015203603d01601f1981018352610ec29083611d51565b5180916020825260208201610ed691611c8f565b0390f35b8451610ee68682611d51565b600681526541637469766560d01b602082015291610c9e565b8551610f0b8782611d51565b600681526541435449564560d01b6020820152906106ff565b8451610f308682611d51565b600781526611991a9b19b2b160c91b60208201526106d7565b83811a6001600160f81b0319610f66600483901c600f1685612397565b5116908260011b9183830460021484151715610fd957891a610f888387612397565b536001600160f81b031990610fa090600f1685612397565b511660018201809211610fc55790610fbe600193928a1a9186612397565b530161062c565b634e487b7160e01b89526011600452602489fd5b634e487b7160e01b8a52601160045260248afd5b50346103d45760403660031901126103d4576040516302571be360e01b81527f00000000000000000000000000000000000000000000000000000000000000006004828101919091523591906020816024817f00000000000000000000000000000000000000000000000000000000000000006001600160a01b03165afa9081156103c957829161113e575b50306001600160a01b039091160361038b57338152600960205260ff6040822054161561037c57818152600860205260408120546276a700810180911161112a57421161111957818160209360409352600884526110dc60243584832054611f1e565b9281838593526008865220557f9b87a00e30f1ac65d898f070f8a3488fe60517182d0a2098e1b4b93a54aa9bd683604051848152a2604051908152f35b60249162308f6160e61b8252600452fd5b634e487b7160e01b82526011600452602482fd5b611157915060203d6020116103c2576103b48183611d51565b5f611079565b50346103d457806003193601126103d45760206040516276a7008152f35b50346103d45760803660031901126103d457611195611cb3565b61119d611cc9565b906064359067ffffffffffffffff821161120c573660238301121561120c57816004013592846111cc85611d87565b936111da6040519586611d51565b8585523660248783010111611208578561120596602460209301838801378501015260443591611f5d565b80f35b5080fd5b8380fd5b50346103d45760203660031901126103d45761122a611cb3565b6112326122a7565b6001600160a01b0316808252600960205260408220805460ff191660011790557f0a8bb31534c0ed46f380cb867bd5c803a189ced9a764e30b3a4991a9901d74748280a280f35b50346103d45760403660031901126103d457611293611cb3565b6024359081151580920361133157331561131d576001600160a01b031690811561130957338352600560205260408320825f5260205260405f2060ff1981541660ff83161790556040519081527f17307eab39ab6107e8899845ad3d59bd9653f200f220920489ca2b5937696c3160203392a380f35b630b61174360e31b83526004829052602483fd5b63a9fbf51f60e01b83526004839052602483fd5b8280fd5b50346103d45760203660031901126103d4576020611354600435611f3f565b6040519015158152f35b50346103d457806003193601126103d45760405190806001549061138182611d19565b808552916001811690811561141a57506001146113bd575b610ed6846113a981860382611d51565b604051918291602083526020830190611c8f565b600181527fb10e2d527612073b26eecdfd717e6a320cf44b4afac2b0732d9fcbe2b7fa0cf6939250905b808210611400575090915081016020016113a982611399565b9192600181602092548385880101520191019092916113e7565b60ff191660208087019190915292151560051b850190920192506113a99150839050611399565b50346103d457806003193601126103d4576006546040516001600160a01b039091168152602090f35b3461032b57608036600319011261032b57600435611486611cc9565b6064356001600160a01b0381169081900361032b576040516302571be360e01b81527f0000000000000000000000000000000000000000000000000000000000000000600482018190527f00000000000000000000000000000000000000000000000000000000000000006001600160a01b03169491602081602481895afa90811561161f575f9161167f575b50306001600160a01b039091160361167057335f52600960205260ff60405f205416156116615761154382611f3f565b1561164e5761155460443542611f1e565b5f83815260086020908152604080832084905560029091529020549094906001600160a01b031661162a576115898382612328565b853b1561032b5760a45f928360405198899485936305ef2c7f60e41b8552600485015287602485015260018060a01b03169788604485015260648401528160848401525af193841561161f5760209461160f575b507fb3d987963d01b2f68493b4bdb130988f157ea43070d4ad840fee0466ed9370d984604051858152a3604051908152f35b5f61161991611d51565b5f6115dd565b6040513d5f823e3d90fd5b825f526002602052611649838260018060a01b0360405f2054166122ce565b611589565b50632db8ab9760e11b5f5260045260245ffd5b6323019e6760e01b5f5260045ffd5b63baf13b3f60e01b5f5260045ffd5b611698915060203d6020116103c2576103b48183611d51565b86611513565b3461032b575f36600319011261032b576040517f00000000000000000000000000000000000000000000000000000000000000006001600160a01b03168152602090f35b3461032b575f36600319011261032b576116fa6122a7565b600680546001600160a01b031981169091555f906001600160a01b03167f8be0079c531659141344cd1fd0a4f28419497f9722a3daafe3b4186f6b6457e08280a3005b3461032b57602036600319011261032b576001600160a01b0361175e611cb3565b16801561177b575f526003602052602060405f2054604051908152f35b6322718ad960e21b5f525f60045260245ffd5b3461032b57602036600319011261032b57600435805f52600860205260405f20544210156117d3576117c1602091612124565b6040516001600160a01b039091168152f35b62308f6160e61b5f5260045260245ffd5b3461032b5761180d6117f536611cdf565b9060405192611805602085611d51565b5f8452611f5d565b005b3461032b575f36600319011261032b576040515f60075461182f81611d19565b80845290600181169081156118b55750600114611857575b610ed6836113a981850382611d51565b60075f9081527fa66cc928b5edb82af9bd49922954155ab7b0942694bea4ce44661d9a8736c688939250905b80821061189b575090915081016020016113a9611847565b919260018160209254838588010152019101909291611883565b60ff191660208086019190915291151560051b840190910191506113a99050611847565b3461032b57604036600319011261032b576004356118f5611cc9565b6040516302571be360e01b81527f00000000000000000000000000000000000000000000000000000000000000006004820181905291907f00000000000000000000000000000000000000000000000000000000000000006001600160a01b031690602081602481855afa90811561161f575f91611a26575b50306001600160a01b0390911603611670575f848152600260205260409020546119a490859033906001600160a01b031661221c565b15611a17576040516306ab592360e01b8152600481019390935260248301939093526001600160a01b0316604482015290602090829060649082905f905af1801561161f576119ef57005b61180d9060203d602011611a10575b611a088183611d51565b810190611f0f565b503d6119fe565b6359dc379f60e01b5f5260045ffd5b611a3f915060203d6020116103c2576103b48183611d51565b8561196e565b3461032b5761180d611a5636611cdf565b91611da3565b3461032b57604036600319011261032b57611a75611cb3565b602435611a8181612124565b33151580611b33575b80611b06575b611af35781906001600160a01b0384811691167f8c5be1e5ebec7d5bd14f71427d1e84f3dd0314c0f7b2291e5b200ac8c7c3b9255f80a45f90815260046020526040902080546001600160a01b0319166001600160a01b03909216919091179055005b63a9fbf51f60e01b5f523360045260245ffd5b506001600160a01b0381165f90815260056020908152604080832033845290915290205460ff1615611a90565b506001600160a01b038116331415611a8a565b3461032b57602036600319011261032b57600435611b6381612124565b505f526004602052602060018060a01b0360405f205416604051908152f35b3461032b575f36600319011261032b576040515f8054611ba181611d19565b80845290600181169081156118b55750600114611bc857610ed6836113a981850382611d51565b5f8080527f290decd9548b62a8d60345a988386fc84ba6bc95484008f6362f93160ef3e563939250905b808210611c0a575090915081016020016113a9611847565b919260018160209254838588010152019101909291611bf2565b3461032b57602036600319011261032b576004359063ffffffff60e01b821680920361032b576020916380ac58cd60e01b8114908115611c7e575b8115611c6d575b5015158152f35b6301ffc9a760e01b14905083611c66565b635b5e139f60e01b81149150611c5f565b805180835260209291819084018484015e5f828201840152601f01601f1916010190565b600435906001600160a01b038216820361032b57565b602435906001600160a01b038216820361032b57565b606090600319011261032b576004356001600160a01b038116810361032b57906024356001600160a01b038116810361032b579060443590565b90600182811c92168015611d47575b6020831014611d3357565b634e487b7160e01b5f52602260045260245ffd5b91607f1691611d28565b90601f8019910116810190811067ffffffffffffffff821117611d7357604052565b634e487b7160e01b5f52604160045260245ffd5b67ffffffffffffffff8111611d7357601f01601f191660200190565b6001600160a01b0390911691908215611edd575f828152600260205260409020546001600160a01b031692829033611e97575b84611e64575b805f52600360205260405f2060018154019055815f52600260205260405f20816bffffffffffffffffffffffff60a01b825416179055847fddf252ad1be2c89b69c2b068fc378daa952ba7f163c4a11628f55a4df523b3ef5f80a46001600160a01b0316808303611e4c57505050565b6364283d7b60e01b5f5260045260245260445260645ffd5b5f82815260046020526040902080546001600160a01b0319169055845f52600360205260405f205f198154019055611ddc565b90611ea390338661221c565b15611eaf578290611dd6565b8284611ec757637e27328960e01b5f5260045260245ffd5b63177e802f60e01b5f523360045260245260445ffd5b633250574960e11b5f525f60045260245ffd5b9081602091031261032b57516001600160a01b038116810361032b5790565b9081602091031261032b575190565b91908201809211611f2b57565b634e487b7160e01b5f52601160045260245ffd5b5f52600860205260405f20546276a7008101809111611f2b57421190565b9291611f6a818386611da3565b813b611f77575b50505050565b604051630a85bd0160e11b81523360048201526001600160a01b0394851660248201526044810191909152608060648201529216919060209082908190611fc2906084830190611c8f565b03815f865af15f9181612058575b5061202557503d1561201e573d611fe681611d87565b90611ff46040519283611d51565b81523d5f602083013e5b805190816120195782633250574960e11b5f5260045260245ffd5b602001fd5b6060611ffe565b6001600160e01b03191663757a42ff60e11b0161204657505f808080611f71565b633250574960e11b5f5260045260245ffd5b9091506020813d602011612095575b8161207460209383611d51565b8101031261032b57516001600160e01b03198116810361032b57905f611fd0565b3d9150612067565b6007545f92916120ac82611d19565b916001811690811561211257506001146120c4575050565b60075f90815292935090917fa66cc928b5edb82af9bd49922954155ab7b0942694bea4ce44661d9a8736c6885b8382106120fe5750500190565b6001816020925484860152019101906120f1565b60ff1916825250811515909102019150565b5f818152600260205260409020546001600160a01b0316908115612146575090565b637e27328960e01b5f5260045260245ffd5b5f828152600260205260409020546001600160a01b03169190826121e9575b6001600160a01b0316806121d1575b815f52600260205260405f20816bffffffffffffffffffffffff60a01b825416179055827fddf252ad1be2c89b69c2b068fc378daa952ba7f163c4a11628f55a4df523b3ef5f80a490565b805f52600360205260405f2060018154019055612186565b5f82815260046020526040902080546001600160a01b0319169055825f52600360205260405f205f198154019055612177565b6001600160a01b03909116801515929183612238575b50505090565b6001600160a01b031680821493509091908315612284575b508215612262575b50505f8080612232565b5f908152600460205260408120546001600160a01b0316909114915080612258565b9092505f52600560205260405f20815f5260205260ff60405f205416915f612250565b6006546001600160a01b031633036122bb57565b63118cdaa760e01b5f523360045260245ffd5b919291906001600160a01b03811615611edd576001600160a01b03906122f5908590612158565b16908161230f5783637e27328960e01b5f5260045260245ffd5b919290916001600160a01b0316808303611e4c57505050565b906001600160a01b03821615611edd576001600160a01b039161234b9190612158565b1661235257565b6339e3563760e11b5f525f60045260245ffd5b9061236f82611d87565b61237c6040519182611d51565b828152809261238d601f1991611d87565b0190602036910137565b9081518110156123a8570160200190565b634e487b7160e01b5f52603260045260245ffd5b5f198114611f2b5760010190565b80511561262d57604051916123e0606084611d51565b604083527f4142434445464748494a4b4c4d4e4f505152535455565758595a61626364656660208401527f6768696a6b6c6d6e6f707172737475767778797a303132333435363738392b2f6040840152815160028101809111611f2b5760039004600281901b92906001600160fe1b03811603611f2b5761246083612365565b925f905f935b8351831080156125bd57156125b757612488612481846123bc565b9385612397565b5160f81c5b84518410156125b1576124a96124a2856123bc565b9486612397565b5160f81c5b85518510156125aa576124ca6124c3866123bc565b9587612397565b5160f81c915b62ff000061ff0060ff85169360081b169160101b16171760ff60f81b6124fc603f8360121c168b612397565b51169661251561250b826123bc565b985f1a918a612397565b536001600160f81b0319612530600c83901c603f168b612397565b51169661253f61250b826123bc565b536001600160f81b03199061255a9060061c603f168a612397565b511695612573612569826123bc565b975f1a9189612397565b536001600160f81b03199061258b90603f1689612397565b5116946125a461259a826123bc565b965f1a9188612397565b53612466565b5f916124d0565b5f6124ae565b5f61248d565b50955092505060016003825106145f1461260657505f198101818111611f2b576125e9603d9184612397565b536001198101908111611f2b57612602603d9183612397565b5390565b6003600291510614612616575090565b5f198101908111611f2b57612602603d9183612397565b5060405161263c602082611d51565b5f815290565b80156126bd57805f81805b6126a5575061265b81612365565b925b61266657505090565b8015611f2b575f190190600a81066030019081603011611f2b57600a9160f81b6001600160f81b0319165f1a61269c8486612397565b5304908161265d565b91506126b2600a916123bc565b91048083929161264d565b506040516126cc604082611d51565b60018152600360fc1b60208201529056fea2646970667358221220603cc7941ec9b6898c767cb2a1c8399c93d5e62b68cdfb0812ab2c75d99ee29164736f6c634300081a0033",
  "linkReferences": {},
  "deployedLinkReferences": {}
}