{
  "_format": "hh-sol-artifact-1",
  "contractName": "ArcNSTreasury",
  "sourceName": "contracts/governance/ArcNSTreasury.sol",
  "abi": [
    {
      "inputs": [],
      "stateMutability": "nonpayable",
      "type": "constructor"
    },
    {
      "inputs": [],
      "name": "AccessControlBadConfirmation",
      "type": "error"
    },
    {
      "inputs": [
        {
          "internalType": "address",
          "name": "account",
          "type": "address"
        },
        {
          "internalType": "bytes32",
          "name": "neededRole",
          "type": "bytes32"
        }
      ],
      "name": "AccessControlUnauthorizedAccount",
      "type": "error"
    },
    {
      "inputs": [
        {
          "internalType": "address",
          "name": "target",
          "type": "address"
        }
      ],
      "name": "AddressEmptyCode",
      "type": "error"
    },
    {
      "inputs": [
        {
          "internalType": "address",
          "name": "implementation",
          "type": "address"
        }
      ],
      "name": "ERC1967InvalidImplementation",
      "type": "error"
    },
    {
      "inputs": [],
      "name": "ERC1967NonPayable",
      "type": "error"
    },
    {
      "inputs": [],
      "name": "EnforcedPause",
      "type": "error"
    },
    {
      "inputs": [],
      "name": "ExpectedPause",
      "type": "error"
    },
    {
      "inputs": [],
      "name": "FailedCall",
      "type": "error"
    },
    {
      "inputs": [],
      "name": "InvalidInitialization",
      "type": "error"
    },
    {
      "inputs": [],
      "name": "NotInitializing",
      "type": "error"
    },
    {
      "inputs": [
        {
          "internalType": "address",
          "name": "token",
          "type": "address"
        }
      ],
      "name": "SafeERC20FailedOperation",
      "type": "error"
    },
    {
      "inputs": [],
      "name": "UUPSUnauthorizedCallContext",
      "type": "error"
    },
    {
      "inputs": [
        {
          "internalType": "bytes32",
          "name": "slot",
          "type": "bytes32"
        }
      ],
      "name": "UUPSUnsupportedProxiableUUID",
      "type": "error"
    },
    {
      "anonymous": false,
      "inputs": [
        {
          "indexed": true,
          "internalType": "address",
          "name": "to",
          "type": "address"
        },
        {
          "indexed": false,
          "internalType": "uint256",
          "name": "amount",
          "type": "uint256"
        }
      ],
      "name": "EmergencyWithdraw",
      "type": "event"
    },
    {
      "anonymous": false,
      "inputs": [
        {
          "indexed": true,
          "internalType": "address",
          "name": "from",
          "type": "address"
        },
        {
          "indexed": false,
          "internalType": "uint256",
          "name": "amount",
          "type": "uint256"
        }
      ],
      "name": "FeesReceived",
      "type": "event"
    },
    {
      "anonymous": false,
      "inputs": [
        {
          "indexed": false,
          "internalType": "uint256",
          "name": "protocol",
          "type": "uint256"
        },
        {
          "indexed": false,
          "internalType": "uint256",
          "name": "reserve",
          "type": "uint256"
        },
        {
          "indexed": false,
          "internalType": "uint256",
          "name": "community",
          "type": "uint256"
        }
      ],
      "name": "FundsDistributed",
      "type": "event"
    },
    {
      "anonymous": false,
      "inputs": [
        {
          "indexed": false,
          "internalType": "uint64",
          "name": "version",
          "type": "uint64"
        }
      ],
      "name": "Initialized",
      "type": "event"
    },
    {
      "anonymous": false,
      "inputs": [
        {
          "indexed": false,
          "internalType": "address",
          "name": "account",
          "type": "address"
        }
      ],
      "name": "Paused",
      "type": "event"
    },
    {
      "anonymous": false,
      "inputs": [
        {
          "indexed": true,
          "internalType": "bytes32",
          "name": "role",
          "type": "bytes32"
        },
        {
          "indexed": true,
          "internalType": "bytes32",
          "name": "previousAdminRole",
          "type": "bytes32"
        },
        {
          "indexed": true,
          "internalType": "bytes32",
          "name": "newAdminRole",
          "type": "bytes32"
        }
      ],
      "name": "RoleAdminChanged",
      "type": "event"
    },
    {
      "anonymous": false,
      "inputs": [
        {
          "indexed": true,
          "internalType": "bytes32",
          "name": "role",
          "type": "bytes32"
        },
        {
          "indexed": true,
          "internalType": "address",
          "name": "account",
          "type": "address"
        },
        {
          "indexed": true,
          "internalType": "address",
          "name": "sender",
          "type": "address"
        }
      ],
      "name": "RoleGranted",
      "type": "event"
    },
    {
      "anonymous": false,
      "inputs": [
        {
          "indexed": true,
          "internalType": "bytes32",
          "name": "role",
          "type": "bytes32"
        },
        {
          "indexed": true,
          "internalType": "address",
          "name": "account",
          "type": "address"
        },
        {
          "indexed": true,
          "internalType": "address",
          "name": "sender",
          "type": "address"
        }
      ],
      "name": "RoleRevoked",
      "type": "event"
    },
    {
      "anonymous": false,
      "inputs": [
        {
          "indexed": false,
          "internalType": "address",
          "name": "account",
          "type": "address"
        }
      ],
      "name": "Unpaused",
      "type": "event"
    },
    {
      "anonymous": false,
      "inputs": [
        {
          "indexed": true,
          "internalType": "address",
          "name": "implementation",
          "type": "address"
        }
      ],
      "name": "Upgraded",
      "type": "event"
    },
    {
      "inputs": [],
      "name": "ADMIN_ROLE",
      "outputs": [
        {
          "internalType": "bytes32",
          "name": "",
          "type": "bytes32"
        }
      ],
      "stateMutability": "view",
      "type": "function"
    },
    {
      "inputs": [],
      "name": "COMMUNITY_BPS",
      "outputs": [
        {
          "internalType": "uint256",
          "name": "",
          "type": "uint256"
        }
      ],
      "stateMutability": "view",
      "type": "function"
    },
    {
      "inputs": [],
      "name": "DEFAULT_ADMIN_ROLE",
      "outputs": [
        {
          "internalType": "bytes32",
          "name": "",
          "type": "bytes32"
        }
      ],
      "stateMutability": "view",
      "type": "function"
    },
    {
      "inputs": [],
      "name": "GOVERNOR_ROLE",
      "outputs": [
        {
          "internalType": "bytes32",
          "name": "",
          "type": "bytes32"
        }
      ],
      "stateMutability": "view",
      "type": "function"
    },
    {
      "inputs": [],
      "name": "PROTOCOL_BPS",
      "outputs": [
        {
          "internalType": "uint256",
          "name": "",
          "type": "uint256"
        }
      ],
      "stateMutability": "view",
      "type": "function"
    },
    {
      "inputs": [],
      "name": "RESERVE_BPS",
      "outputs": [
        {
          "internalType": "uint256",
          "name": "",
          "type": "uint256"
        }
      ],
      "stateMutability": "view",
      "type": "function"
    },
    {
      "inputs": [],
      "name": "UPGRADER_ROLE",
      "outputs": [
        {
          "internalType": "bytes32",
          "name": "",
          "type": "bytes32"
        }
      ],
      "stateMutability": "view",
      "type": "function"
    },
    {
      "inputs": [],
      "name": "UPGRADE_INTERFACE_VERSION",
      "outputs": [
        {
          "internalType": "string",
          "name": "",
          "type": "string"
        }
      ],
      "stateMutability": "view",
      "type": "function"
    },
    {
      "inputs": [],
      "name": "WITHDRAWER_ROLE",
      "outputs": [
        {
          "internalType": "bytes32",
          "name": "",
          "type": "bytes32"
        }
      ],
      "stateMutability": "view",
      "type": "function"
    },
    {
      "inputs": [],
      "name": "balance",
      "outputs": [
        {
          "internalType": "uint256",
          "name": "",
          "type": "uint256"
        }
      ],
      "stateMutability": "view",
      "type": "function"
    },
    {
      "inputs": [],
      "name": "communityWallet",
      "outputs": [
        {
          "internalType": "address",
          "name": "",
          "type": "address"
        }
      ],
      "stateMutability": "view",
      "type": "function"
    },
    {
      "inputs": [],
      "name": "distribute",
      "outputs": [],
      "stateMutability": "nonpayable",
      "type": "function"
    },
    {
      "inputs": [
        {
          "internalType": "address",
          "name": "to",
          "type": "address"
        },
        {
          "internalType": "uint256",
          "name": "amount",
          "type": "uint256"
        }
      ],
      "name": "emergencyWithdraw",
      "outputs": [],
      "stateMutability": "nonpayable",
      "type": "function"
    },
    {
      "inputs": [
        {
          "internalType": "bytes32",
          "name": "role",
          "type": "bytes32"
        }
      ],
      "name": "getRoleAdmin",
      "outputs": [
        {
          "internalType": "bytes32",
          "name": "",
          "type": "bytes32"
        }
      ],
      "stateMutability": "view",
      "type": "function"
    },
    {
      "inputs": [
        {
          "internalType": "bytes32",
          "name": "role",
          "type": "bytes32"
        },
        {
          "internalType": "address",
          "name": "account",
          "type": "address"
        }
      ],
      "name": "grantRole",
      "outputs": [],
      "stateMutability": "nonpayable",
      "type": "function"
    },
    {
      "inputs": [
        {
          "internalType": "bytes32",
          "name": "role",
          "type": "bytes32"
        },
        {
          "internalType": "address",
          "name": "account",
          "type": "address"
        }
      ],
      "name": "hasRole",
      "outputs": [
        {
          "internalType": "bool",
          "name": "",
          "type": "bool"
        }
      ],
      "stateMutability": "view",
      "type": "function"
    },
    {
      "inputs": [
        {
          "internalType": "contract IERC20",
          "name": "_usdc",
          "type": "address"
        },
        {
          "internalType": "address",
          "name": "_admin",
          "type": "address"
        },
        {
          "internalType": "address",
          "name": "_protocolWallet",
          "type": "address"
        },
        {
          "internalType": "address",
          "name": "_reserveWallet",
          "type": "address"
        },
        {
          "internalType": "address",
          "name": "_communityWallet",
          "type": "address"
        }
      ],
      "name": "initialize",
      "outputs": [],
      "stateMutability": "nonpayable",
      "type": "function"
    },
    {
      "inputs": [],
      "name": "pause",
      "outputs": [],
      "stateMutability": "nonpayable",
      "type": "function"
    },
    {
      "inputs": [],
      "name": "paused",
      "outputs": [
        {
          "internalType": "bool",
          "name": "",
          "type": "bool"
        }
      ],
      "stateMutability": "view",
      "type": "function"
    },
    {
      "inputs": [],
      "name": "protocolWallet",
      "outputs": [
        {
          "internalType": "address",
          "name": "",
          "type": "address"
        }
      ],
      "stateMutability": "view",
      "type": "function"
    },
    {
      "inputs": [],
      "name": "proxiableUUID",
      "outputs": [
        {
          "internalType": "bytes32",
          "name": "",
          "type": "bytes32"
        }
      ],
      "stateMutability": "view",
      "type": "function"
    },
    {
      "inputs": [
        {
          "internalType": "bytes32",
          "name": "role",
          "type": "bytes32"
        },
        {
          "internalType": "address",
          "name": "callerConfirmation",
          "type": "address"
        }
      ],
      "name": "renounceRole",
      "outputs": [],
      "stateMutability": "nonpayable",
      "type": "function"
    },
    {
      "inputs": [],
      "name": "reserveWallet",
      "outputs": [
        {
          "internalType": "address",
          "name": "",
          "type": "address"
        }
      ],
      "stateMutability": "view",
      "type": "function"
    },
    {
      "inputs": [
        {
          "internalType": "bytes32",
          "name": "role",
          "type": "bytes32"
        },
        {
          "internalType": "address",
          "name": "account",
          "type": "address"
        }
      ],
      "name": "revokeRole",
      "outputs": [],
      "stateMutability": "nonpayable",
      "type": "function"
    },
    {
      "inputs": [
        {
          "internalType": "bytes4",
          "name": "interfaceId",
          "type": "bytes4"
        }
      ],
      "name": "supportsInterface",
      "outputs": [
        {
          "internalType": "bool",
          "name": "",
          "type": "bool"
        }
      ],
      "stateMutability": "view",
      "type": "function"
    },
    {
      "inputs": [],
      "name": "totalCollected",
      "outputs": [
        {
          "internalType": "uint256",
          "name": "",
          "type": "uint256"
        }
      ],
      "stateMutability": "view",
      "type": "function"
    },
    {
      "inputs": [],
      "name": "totalDistributed",
      "outputs": [
        {
          "internalType": "uint256",
          "name": "",
          "type": "uint256"
        }
      ],
      "stateMutability": "view",
      "type": "function"
    },
    {
      "inputs": [],
      "name": "unpause",
      "outputs": [],
      "stateMutability": "nonpayable",
      "type": "function"
    },
    {
      "inputs": [
        {
          "internalType": "address",
          "name": "_protocol",
          "type": "address"
        },
        {
          "internalType": "address",
          "name": "_reserve",
          "type": "address"
        },
        {
          "internalType": "address",
          "name": "_community",
          "type": "address"
        }
      ],
      "name": "updateWallets",
      "outputs": [],
      "stateMutability": "nonpayable",
      "type": "function"
    },
    {
      "inputs": [
        {
          "internalType": "address",
          "name": "newImplementation",
          "type": "address"
        },
        {
          "internalType": "bytes",
          "name": "data",
          "type": "bytes"
        }
      ],
      "name": "upgradeToAndCall",
      "outputs": [],
      "stateMutability": "payable",
      "type": "function"
    },
    {
      "inputs": [],
      "name": "usdc",
      "outputs": [
        {
          "internalType": "contract IERC20",
          "name": "",
          "type": "address"
        }
      ],
      "stateMutability": "view",
      "type": "function"
    }
  ],
  "bytecode": "0x60a080604052346100e857306080527ff0c57e16840df040f15088dc2f81fe391c3923bec73e23a9662efc9c229c6a005460ff8160401c166100d9576002600160401b03196001600160401b03821601610073575b60405161184e90816100ed823960805181818161085b01526109370152f35b6001600160401b0319166001600160401b039081177ff0c57e16840df040f15088dc2f81fe391c3923bec73e23a9662efc9c229c6a005581527fc7f505b2f371ae2175ee4913f4499e1f2633a7b5936321eed1cdaeb6115181d290602090a15f80610054565b63f92ee8a960e01b5f5260045ffd5b5f80fdfe6080806040526004361015610012575f80fd5b5f3560e01c90816301ffc9a714610f665750806306d6e63f14610f3e5780631459457a14610d2c578063147c9f6d14610c6c578063248a9ca314610c465780632f2ff15d14610c1557806336568abe14610bd15780633e413bee14610baa5780633f4ba83a14610b2c5780634f1ef286146108af57806352d1902d146108495780635c975abb1461081b57806375b238fc146107e15780638456cb591461077057806385f438c11461073657806391d14854146106e157806395ccea671461062d578063a217fddf14610613578063a9cbaf87146105f7578063ad3cb1cc14610599578063b69ef8a814610513578063c1e7af35146104f7578063c7574839146104cf578063ccc5749014610495578063d547741f1461045d578063d72b11bd14610435578063e29eb83614610418578063e41dc9f8146103fc578063e4fc6b6d146101cc578063efca2eed146101af5763f72c0d8b14610171575f80fd5b346101ab575f3660031901126101ab5760206040517f189ab7a9244df0848122154315af71fe140f3db0fe014031783b0946b8c9d2e38152f35b5f80fd5b346101ab575f3660031901126101ab576020600554604051908152f35b346101ab575f3660031901126101ab57335f9081527f395f4e35a18c2b5e556b3b2ff855307e76c0b3cc1ca71e19a70e83037e08e7b3602052604090205460ff16156103c55761021a61169a565b5f546040516370a0823160e01b81523060048201526001600160a01b0390911690602081602481855afa9081156103ba575f91610388575b50801561034357611b588102818104611b580361032f5761271090046107d082028281046107d00361032f576127109004926102ad8261029b86610296838861103b565b61103b565b9260018060a01b036001541690611619565b5f546002546102ca9186916001600160a01b039081169116611619565b5f546003546102e79183916001600160a01b039081169116611619565b60055492830180931161032f577fdaf6233a382145376035341e71f8a04305f7e323d0fe3e58c908cf0a26b76df99360609360055560405192835260208301526040820152a1005b634e487b7160e01b5f52601160045260245ffd5b60405162461bcd60e51b815260206004820152601f60248201527f54726561737572793a206e6f7468696e6720746f2064697374726962757465006044820152606490fd5b90506020813d6020116103b2575b816103a360209383610ffb565b810103126101ab575182610252565b3d9150610396565b6040513d5f823e3d90fd5b63e2517d3f60e01b5f52336004527f10dac8c06a04bec0b551627dad28bc00d6516b0caacd1c7b345fcdb5211334e460245260445ffd5b346101ab575f3660031901126101ab5760206040516107d08152f35b346101ab575f3660031901126101ab576020600454604051908152f35b346101ab575f3660031901126101ab576002546040516001600160a01b039091168152602090f35b346101ab5760403660031901126101ab5761049360043561047c610fb9565b9061048e6104898261101d565b611537565b61157d565b005b346101ab575f3660031901126101ab5760206040517f7935bd0ae54bc31f548c14dba4d37c5c64b3f8ca900cb468fb8abd54d5894f558152f35b346101ab575f3660031901126101ab576003546040516001600160a01b039091168152602090f35b346101ab575f3660031901126101ab576020604051611b588152f35b346101ab575f3660031901126101ab575f546040516370a0823160e01b815230600482015290602090829060249082906001600160a01b03165afa80156103ba575f90610566575b602090604051908152f35b506020813d602011610591575b8161058060209383610ffb565b810103126101ab576020905161055b565b3d9150610573565b346101ab575f3660031901126101ab5760408051906105b88183610ffb565b600582526020820191640352e302e360dc1b83528151928391602083525180918160208501528484015e5f828201840152601f01601f19168101030190f35b346101ab575f3660031901126101ab5760206040516103e88152f35b346101ab575f3660031901126101ab5760206040515f8152f35b346101ab5760403660031901126101ab57610646610fe5565b602435610651611459565b6001600160a01b0382169182156106a3578161069a7f5fafa99d0643513820be26656b45130b01e1c03062e1266bf36f88cbd3bd96959360209360018060a01b035f5416611619565b604051908152a2005b60405162461bcd60e51b815260206004820152601660248201527554726561737572793a207a65726f206164647265737360501b6044820152606490fd5b346101ab5760403660031901126101ab576106fa610fb9565b6004355f525f805160206117b983398151915260205260405f209060018060a01b03165f52602052602060ff60405f2054166040519015158152f35b346101ab575f3660031901126101ab5760206040517f10dac8c06a04bec0b551627dad28bc00d6516b0caacd1c7b345fcdb5211334e48152f35b346101ab575f3660031901126101ab576107886114c8565b61079061169a565b600160ff195f805160206117d98339815191525416175f805160206117d9833981519152557f62e78cea01bee320cd4e420270b5ea74000d11b0c9f74754ebdbfc544b05a2586020604051338152a1005b346101ab575f3660031901126101ab5760206040517fa49807205ce4d355092ef5a8a18f56e8913cf4a201fbe287825b095693c217758152f35b346101ab575f3660031901126101ab57602060ff5f805160206117d983398151915254166040519015158152f35b346101ab575f3660031901126101ab577f00000000000000000000000000000000000000000000000000000000000000006001600160a01b031630036108a05760206040515f805160206117998339815191528152f35b63703e46dd60e11b5f5260045ffd5b60403660031901126101ab576108c3610fe5565b6024359067ffffffffffffffff82116101ab57366023830112156101ab57816004013567ffffffffffffffff8111610b18576040519261090d601f8301601f191660200185610ffb565b81845236602483830101116101ab57815f9260246020930183870137840101526001600160a01b037f000000000000000000000000000000000000000000000000000000000000000016308114908115610af6575b506108a057335f9081527fab71e3f32666744d246edff3f96e4bdafee2e9867098cdd118a979a7464786a8602052604090205460ff1615610abf576040516352d1902d60e01b81526001600160a01b0382169290602081600481875afa5f9181610a8b575b506109df5783634c9c8ce360e01b5f5260045260245ffd5b805f80516020611799833981519152859203610a795750823b15610a67575f8051602061179983398151915280546001600160a01b031916821790557fbc7cd75a20ee27fd9adebab32041f755214dbc6bffa90cc0225b39da2e5c2d3b5f80a2805115610a4f57610493916116ec565b505034610a5857005b63b398979f60e01b5f5260045ffd5b634c9c8ce360e01b5f5260045260245ffd5b632a87526960e21b5f5260045260245ffd5b9091506020813d602011610ab7575b81610aa760209383610ffb565b810103126101ab575190856109c7565b3d9150610a9a565b63e2517d3f60e01b5f52336004527f189ab7a9244df0848122154315af71fe140f3db0fe014031783b0946b8c9d2e360245260445ffd5b5f80516020611799833981519152546001600160a01b03161415905083610962565b634e487b7160e01b5f52604160045260245ffd5b346101ab575f3660031901126101ab57610b446114c8565b5f805160206117d98339815191525460ff811615610b9b5760ff19165f805160206117d9833981519152557f5db9ee0a495bf2e6ff9c91a7834c1ba4fdd244a5e8aa4e537bd38aeae4b073aa6020604051338152a1005b638dfc202b60e01b5f5260045ffd5b346101ab575f3660031901126101ab575f546040516001600160a01b039091168152602090f35b346101ab5760403660031901126101ab57610bea610fb9565b336001600160a01b03821603610c06576104939060043561157d565b63334bd91960e11b5f5260045ffd5b346101ab5760403660031901126101ab57610493600435610c34610fb9565b90610c416104898261101d565b6113c8565b346101ab5760203660031901126101ab576020610c6460043561101d565b604051908152f35b346101ab5760603660031901126101ab57610c85610fe5565b610c8d610fb9565b610c95610fcf565b91610c9e611459565b6001600160a01b031680151580610d1a575b80610d08575b156101ab576001600160601b0360a01b600154161760015560018060a01b03166001600160601b0360a01b600254161760025560018060a01b03166001600160601b0360a01b60035416176003555f80f35b506001600160a01b0383161515610cb6565b506001600160a01b0382161515610cb0565b346101ab5760a03660031901126101ab576004356001600160a01b038116908190036101ab57610d5a610fb9565b610d62610fcf565b906064356001600160a01b038116908190036101ab576084356001600160a01b03811691908290036101ab575f805160206117f9833981519152549360ff8560401c16159567ffffffffffffffff861680159081610f36575b6001149081610f2c575b159081610f23575b50610f145767ffffffffffffffff1986166001175f805160206117f983398151915255610e8a9587610ee8575b50610e036116c1565b610e0b6116c1565b6001600160601b0360a01b5f5416175f5560018060a01b03166001600160601b0360a01b60015416176001556001600160601b0360a01b60025416176002556001600160601b0360a01b6003541617600355610e6681611048565b50610e70816110e4565b50610e7a8161119d565b50610e8481611256565b5061130f565b50610e9157005b68ff0000000000000000195f805160206117f983398151915254165f805160206117f9833981519152557fc7f505b2f371ae2175ee4913f4499e1f2633a7b5936321eed1cdaeb6115181d2602060405160018152a1005b68ffffffffffffffffff191668010000000000000001175f805160206117f98339815191525587610dfa565b63f92ee8a960e01b5f5260045ffd5b90501588610dcd565b303b159150610dc5565b889150610dbb565b346101ab575f3660031901126101ab576001546040516001600160a01b039091168152602090f35b346101ab5760203660031901126101ab576004359063ffffffff60e01b82168092036101ab57602091637965db0b60e01b8114908115610fa8575b5015158152f35b6301ffc9a760e01b14905083610fa1565b602435906001600160a01b03821682036101ab57565b604435906001600160a01b03821682036101ab57565b600435906001600160a01b03821682036101ab57565b90601f8019910116810190811067ffffffffffffffff821117610b1857604052565b5f525f805160206117b9833981519152602052600160405f20015490565b9190820391821161032f57565b6001600160a01b0381165f9081527fb7db2dd08fcb62d0c9e08c51941cae53c267786a0b75803fb7960902fc8ef97d602052604090205460ff166110df576001600160a01b03165f8181527fb7db2dd08fcb62d0c9e08c51941cae53c267786a0b75803fb7960902fc8ef97d60205260408120805460ff191660011790553391905f805160206117798339815191528180a4600190565b505f90565b6001600160a01b0381165f9081527fb16e88c42fd4e48df2dd6a2eabd6bc9aec654ec170056b470819f8892cc6431c602052604090205460ff166110df576001600160a01b03165f8181527fb16e88c42fd4e48df2dd6a2eabd6bc9aec654ec170056b470819f8892cc6431c60205260408120805460ff191660011790553391907fa49807205ce4d355092ef5a8a18f56e8913cf4a201fbe287825b095693c21775905f805160206117798339815191529080a4600190565b6001600160a01b0381165f9081527f395f4e35a18c2b5e556b3b2ff855307e76c0b3cc1ca71e19a70e83037e08e7b3602052604090205460ff166110df576001600160a01b03165f8181527f395f4e35a18c2b5e556b3b2ff855307e76c0b3cc1ca71e19a70e83037e08e7b360205260408120805460ff191660011790553391907f10dac8c06a04bec0b551627dad28bc00d6516b0caacd1c7b345fcdb5211334e4905f805160206117798339815191529080a4600190565b6001600160a01b0381165f9081527fab71e3f32666744d246edff3f96e4bdafee2e9867098cdd118a979a7464786a8602052604090205460ff166110df576001600160a01b03165f8181527fab71e3f32666744d246edff3f96e4bdafee2e9867098cdd118a979a7464786a860205260408120805460ff191660011790553391907f189ab7a9244df0848122154315af71fe140f3db0fe014031783b0946b8c9d2e3905f805160206117798339815191529080a4600190565b6001600160a01b0381165f9081527f75e09417c5070057df3eafe5054d52fa0b2a87d64a235e197963b615aedee803602052604090205460ff166110df576001600160a01b03165f8181527f75e09417c5070057df3eafe5054d52fa0b2a87d64a235e197963b615aedee80360205260408120805460ff191660011790553391907f7935bd0ae54bc31f548c14dba4d37c5c64b3f8ca900cb468fb8abd54d5894f55905f805160206117798339815191529080a4600190565b5f8181525f805160206117b9833981519152602090815260408083206001600160a01b038616845290915290205460ff16611453575f8181525f805160206117b9833981519152602090815260408083206001600160a01b0395909516808452949091528120805460ff19166001179055339291905f805160206117798339815191529080a4600190565b50505f90565b335f9081527f75e09417c5070057df3eafe5054d52fa0b2a87d64a235e197963b615aedee803602052604090205460ff161561149157565b63e2517d3f60e01b5f52336004527f7935bd0ae54bc31f548c14dba4d37c5c64b3f8ca900cb468fb8abd54d5894f5560245260445ffd5b335f9081527fb16e88c42fd4e48df2dd6a2eabd6bc9aec654ec170056b470819f8892cc6431c602052604090205460ff161561150057565b63e2517d3f60e01b5f52336004527fa49807205ce4d355092ef5a8a18f56e8913cf4a201fbe287825b095693c2177560245260445ffd5b5f8181525f805160206117b98339815191526020908152604080832033845290915290205460ff16156115675750565b63e2517d3f60e01b5f523360045260245260445ffd5b5f8181525f805160206117b9833981519152602090815260408083206001600160a01b038616845290915290205460ff1615611453575f8181525f805160206117b9833981519152602090815260408083206001600160a01b0395909516808452949091528120805460ff19169055339291907ff6391f5c32d9c69d2a47ea670b442974b53935d1edc7fd64eb21e047a839171b9080a4600190565b916040519163a9059cbb60e01b5f5260018060a01b031660045260245260205f60448180865af19060015f5114821615611679575b604052156116595750565b635274afe760e01b5f9081526001600160a01b0391909116600452602490fd5b90600181151661169157823b15153d1516169061164e565b503d5f823e3d90fd5b60ff5f805160206117d983398151915254166116b257565b63d93c066560e01b5f5260045ffd5b60ff5f805160206117f98339815191525460401c16156116dd57565b631afcd79f60e31b5f5260045ffd5b905f8091602081519101845af48080611765575b156117205750506040513d81523d5f602083013e60203d82010160405290565b1561174557639996b31560e01b5f9081526001600160a01b0391909116600452602490fd5b3d15611756576040513d5f823e3d90fd5b63d6bda27560e01b5f5260045ffd5b503d1515806117005750813b151561170056fe2f8788117e7eff1d82e926ec794901d17c78024a50270940304540a733656f0d360894a13ba1a3210667c828492db98dca3e2076cc3735a920a3ca505d382bbc02dd7bc7dec4dceedda775e58dd541e08a116c6c53815c0bd028192f7b626800cd5ed15c6e187e77e9aee88184c21f4f2182ab5827cb3b7e07fbedcd63f03300f0c57e16840df040f15088dc2f81fe391c3923bec73e23a9662efc9c229c6a00a26469706673582212209a638b6ca2bfd45f2192d58df30cd11bf26fd1ac312b1e30e5308fde64fb918d64736f6c634300081a0033",
  "linkReferences": {},
  "deployedLinkReferences": {}
}