{
  "_format": "hh-sol-artifact-1",
  "contractName": "ArcNSRegistrarControllerV2",
  "sourceName": "contracts/proxy/ArcNSRegistrarControllerV2.sol",
  "abi": [
    {
      "inputs": [],
      "stateMutability": "nonpayable",
      "type": "constructor"
    },
    {
      "inputs": [],
      "name": "AccessControlBadConfirmation",
      "type": "error"
    },
    {
      "inputs": [
        {
          "internalType": "address",
          "name": "account",
          "type": "address"
        },
        {
          "internalType": "bytes32",
          "name": "neededRole",
          "type": "bytes32"
        }
      ],
      "name": "AccessControlUnauthorizedAccount",
      "type": "error"
    },
    {
      "inputs": [
        {
          "internalType": "address",
          "name": "target",
          "type": "address"
        }
      ],
      "name": "AddressEmptyCode",
      "type": "error"
    },
    {
      "inputs": [
        {
          "internalType": "address",
          "name": "implementation",
          "type": "address"
        }
      ],
      "name": "ERC1967InvalidImplementation",
      "type": "error"
    },
    {
      "inputs": [],
      "name": "ERC1967NonPayable",
      "type": "error"
    },
    {
      "inputs": [],
      "name": "EnforcedPause",
      "type": "error"
    },
    {
      "inputs": [],
      "name": "ExpectedPause",
      "type": "error"
    },
    {
      "inputs": [],
      "name": "FailedCall",
      "type": "error"
    },
    {
      "inputs": [],
      "name": "InvalidInitialization",
      "type": "error"
    },
    {
      "inputs": [],
      "name": "NotInitializing",
      "type": "error"
    },
    {
      "inputs": [
        {
          "internalType": "address",
          "name": "token",
          "type": "address"
        }
      ],
      "name": "SafeERC20FailedOperation",
      "type": "error"
    },
    {
      "inputs": [],
      "name": "UUPSUnauthorizedCallContext",
      "type": "error"
    },
    {
      "inputs": [
        {
          "internalType": "bytes32",
          "name": "slot",
          "type": "bytes32"
        }
      ],
      "name": "UUPSUnsupportedProxiableUUID",
      "type": "error"
    },
    {
      "anonymous": false,
      "inputs": [
        {
          "indexed": true,
          "internalType": "bytes32",
          "name": "commitment",
          "type": "bytes32"
        }
      ],
      "name": "CommitmentMade",
      "type": "event"
    },
    {
      "anonymous": false,
      "inputs": [
        {
          "indexed": false,
          "internalType": "uint64",
          "name": "version",
          "type": "uint64"
        }
      ],
      "name": "Initialized",
      "type": "event"
    },
    {
      "anonymous": false,
      "inputs": [
        {
          "indexed": false,
          "internalType": "string",
          "name": "name",
          "type": "string"
        },
        {
          "indexed": true,
          "internalType": "bytes32",
          "name": "label",
          "type": "bytes32"
        },
        {
          "indexed": true,
          "internalType": "address",
          "name": "owner",
          "type": "address"
        },
        {
          "indexed": false,
          "internalType": "uint256",
          "name": "cost",
          "type": "uint256"
        },
        {
          "indexed": false,
          "internalType": "uint256",
          "name": "expires",
          "type": "uint256"
        }
      ],
      "name": "NameRegistered",
      "type": "event"
    },
    {
      "anonymous": false,
      "inputs": [
        {
          "indexed": false,
          "internalType": "string",
          "name": "name",
          "type": "string"
        },
        {
          "indexed": true,
          "internalType": "bytes32",
          "name": "label",
          "type": "bytes32"
        },
        {
          "indexed": false,
          "internalType": "uint256",
          "name": "cost",
          "type": "uint256"
        },
        {
          "indexed": false,
          "internalType": "uint256",
          "name": "expires",
          "type": "uint256"
        }
      ],
      "name": "NameRenewed",
      "type": "event"
    },
    {
      "anonymous": false,
      "inputs": [
        {
          "indexed": true,
          "internalType": "address",
          "name": "oracle",
          "type": "address"
        }
      ],
      "name": "NewPriceOracle",
      "type": "event"
    },
    {
      "anonymous": false,
      "inputs": [
        {
          "indexed": false,
          "internalType": "address",
          "name": "account",
          "type": "address"
        }
      ],
      "name": "Paused",
      "type": "event"
    },
    {
      "anonymous": false,
      "inputs": [
        {
          "indexed": true,
          "internalType": "address",
          "name": "resolver",
          "type": "address"
        },
        {
          "indexed": false,
          "internalType": "bool",
          "name": "approved",
          "type": "bool"
        }
      ],
      "name": "ResolverApproved",
      "type": "event"
    },
    {
      "anonymous": false,
      "inputs": [
        {
          "indexed": true,
          "internalType": "bytes32",
          "name": "role",
          "type": "bytes32"
        },
        {
          "indexed": true,
          "internalType": "bytes32",
          "name": "previousAdminRole",
          "type": "bytes32"
        },
        {
          "indexed": true,
          "internalType": "bytes32",
          "name": "newAdminRole",
          "type": "bytes32"
        }
      ],
      "name": "RoleAdminChanged",
      "type": "event"
    },
    {
      "anonymous": false,
      "inputs": [
        {
          "indexed": true,
          "internalType": "bytes32",
          "name": "role",
          "type": "bytes32"
        },
        {
          "indexed": true,
          "internalType": "address",
          "name": "account",
          "type": "address"
        },
        {
          "indexed": true,
          "internalType": "address",
          "name": "sender",
          "type": "address"
        }
      ],
      "name": "RoleGranted",
      "type": "event"
    },
    {
      "anonymous": false,
      "inputs": [
        {
          "indexed": true,
          "internalType": "bytes32",
          "name": "role",
          "type": "bytes32"
        },
        {
          "indexed": true,
          "internalType": "address",
          "name": "account",
          "type": "address"
        },
        {
          "indexed": true,
          "internalType": "address",
          "name": "sender",
          "type": "address"
        }
      ],
      "name": "RoleRevoked",
      "type": "event"
    },
    {
      "anonymous": false,
      "inputs": [
        {
          "indexed": true,
          "internalType": "address",
          "name": "oldTreasury",
          "type": "address"
        },
        {
          "indexed": true,
          "internalType": "address",
          "name": "newTreasury",
          "type": "address"
        }
      ],
      "name": "TreasuryUpdated",
      "type": "event"
    },
    {
      "anonymous": false,
      "inputs": [
        {
          "indexed": false,
          "internalType": "address",
          "name": "account",
          "type": "address"
        }
      ],
      "name": "Unpaused",
      "type": "event"
    },
    {
      "anonymous": false,
      "inputs": [
        {
          "indexed": true,
          "internalType": "address",
          "name": "implementation",
          "type": "address"
        }
      ],
      "name": "Upgraded",
      "type": "event"
    },
    {
      "inputs": [],
      "name": "ADMIN_ROLE",
      "outputs": [
        {
          "internalType": "bytes32",
          "name": "",
          "type": "bytes32"
        }
      ],
      "stateMutability": "view",
      "type": "function"
    },
    {
      "inputs": [],
      "name": "DEFAULT_ADMIN_ROLE",
      "outputs": [
        {
          "internalType": "bytes32",
          "name": "",
          "type": "bytes32"
        }
      ],
      "stateMutability": "view",
      "type": "function"
    },
    {
      "inputs": [],
      "name": "MAX_COMMITMENT_AGE",
      "outputs": [
        {
          "internalType": "uint256",
          "name": "",
          "type": "uint256"
        }
      ],
      "stateMutability": "view",
      "type": "function"
    },
    {
      "inputs": [],
      "name": "MIN_COMMITMENT_AGE",
      "outputs": [
        {
          "internalType": "uint256",
          "name": "",
          "type": "uint256"
        }
      ],
      "stateMutability": "view",
      "type": "function"
    },
    {
      "inputs": [],
      "name": "MIN_NAME_LENGTH",
      "outputs": [
        {
          "internalType": "uint256",
          "name": "",
          "type": "uint256"
        }
      ],
      "stateMutability": "view",
      "type": "function"
    },
    {
      "inputs": [],
      "name": "MIN_REGISTRATION_DURATION",
      "outputs": [
        {
          "internalType": "uint256",
          "name": "",
          "type": "uint256"
        }
      ],
      "stateMutability": "view",
      "type": "function"
    },
    {
      "inputs": [],
      "name": "ORACLE_ROLE",
      "outputs": [
        {
          "internalType": "bytes32",
          "name": "",
          "type": "bytes32"
        }
      ],
      "stateMutability": "view",
      "type": "function"
    },
    {
      "inputs": [],
      "name": "PAUSER_ROLE",
      "outputs": [
        {
          "internalType": "bytes32",
          "name": "",
          "type": "bytes32"
        }
      ],
      "stateMutability": "view",
      "type": "function"
    },
    {
      "inputs": [],
      "name": "UPGRADER_ROLE",
      "outputs": [
        {
          "internalType": "bytes32",
          "name": "",
          "type": "bytes32"
        }
      ],
      "stateMutability": "view",
      "type": "function"
    },
    {
      "inputs": [],
      "name": "UPGRADE_INTERFACE_VERSION",
      "outputs": [
        {
          "internalType": "string",
          "name": "",
          "type": "string"
        }
      ],
      "stateMutability": "view",
      "type": "function"
    },
    {
      "inputs": [
        {
          "internalType": "address",
          "name": "",
          "type": "address"
        }
      ],
      "name": "approvedResolvers",
      "outputs": [
        {
          "internalType": "bool",
          "name": "",
          "type": "bool"
        }
      ],
      "stateMutability": "view",
      "type": "function"
    },
    {
      "inputs": [
        {
          "internalType": "string",
          "name": "name_",
          "type": "string"
        }
      ],
      "name": "available",
      "outputs": [
        {
          "internalType": "bool",
          "name": "",
          "type": "bool"
        }
      ],
      "stateMutability": "view",
      "type": "function"
    },
    {
      "inputs": [],
      "name": "base",
      "outputs": [
        {
          "internalType": "contract ArcNSBaseRegistrar",
          "name": "",
          "type": "address"
        }
      ],
      "stateMutability": "view",
      "type": "function"
    },
    {
      "inputs": [
        {
          "internalType": "bytes32",
          "name": "commitment",
          "type": "bytes32"
        }
      ],
      "name": "commit",
      "outputs": [],
      "stateMutability": "nonpayable",
      "type": "function"
    },
    {
      "inputs": [
        {
          "internalType": "bytes32",
          "name": "",
          "type": "bytes32"
        }
      ],
      "name": "commitments",
      "outputs": [
        {
          "internalType": "uint256",
          "name": "",
          "type": "uint256"
        }
      ],
      "stateMutability": "view",
      "type": "function"
    },
    {
      "inputs": [
        {
          "internalType": "bytes32",
          "name": "role",
          "type": "bytes32"
        }
      ],
      "name": "getRoleAdmin",
      "outputs": [
        {
          "internalType": "bytes32",
          "name": "",
          "type": "bytes32"
        }
      ],
      "stateMutability": "view",
      "type": "function"
    },
    {
      "inputs": [
        {
          "internalType": "bytes32",
          "name": "role",
          "type": "bytes32"
        },
        {
          "internalType": "address",
          "name": "account",
          "type": "address"
        }
      ],
      "name": "grantRole",
      "outputs": [],
      "stateMutability": "nonpayable",
      "type": "function"
    },
    {
      "inputs": [
        {
          "internalType": "bytes32",
          "name": "role",
          "type": "bytes32"
        },
        {
          "internalType": "address",
          "name": "account",
          "type": "address"
        }
      ],
      "name": "hasRole",
      "outputs": [
        {
          "internalType": "bool",
          "name": "",
          "type": "bool"
        }
      ],
      "stateMutability": "view",
      "type": "function"
    },
    {
      "inputs": [
        {
          "internalType": "contract ArcNSBaseRegistrar",
          "name": "_base",
          "type": "address"
        },
        {
          "internalType": "contract IArcNSPriceOracle",
          "name": "_priceOracle",
          "type": "address"
        },
        {
          "internalType": "contract IERC20",
          "name": "_usdc",
          "type": "address"
        },
        {
          "internalType": "contract IArcNSRegistry",
          "name": "_registry",
          "type": "address"
        },
        {
          "internalType": "contract ArcNSResolverV2",
          "name": "_resolver",
          "type": "address"
        },
        {
          "internalType": "address",
          "name": "_treasury",
          "type": "address"
        },
        {
          "internalType": "address",
          "name": "_admin",
          "type": "address"
        }
      ],
      "name": "initialize",
      "outputs": [],
      "stateMutability": "nonpayable",
      "type": "function"
    },
    {
      "inputs": [
        {
          "internalType": "string",
          "name": "name_",
          "type": "string"
        },
        {
          "internalType": "address",
          "name": "owner_",
          "type": "address"
        },
        {
          "internalType": "uint256",
          "name": "duration",
          "type": "uint256"
        },
        {
          "internalType": "bytes32",
          "name": "secret",
          "type": "bytes32"
        },
        {
          "internalType": "address",
          "name": "resolverAddr",
          "type": "address"
        },
        {
          "internalType": "bytes[]",
          "name": "data",
          "type": "bytes[]"
        },
        {
          "internalType": "bool",
          "name": "reverseRecord",
          "type": "bool"
        }
      ],
      "name": "makeCommitment",
      "outputs": [
        {
          "internalType": "bytes32",
          "name": "",
          "type": "bytes32"
        }
      ],
      "stateMutability": "pure",
      "type": "function"
    },
    {
      "inputs": [
        {
          "internalType": "string",
          "name": "name_",
          "type": "string"
        },
        {
          "internalType": "address",
          "name": "owner_",
          "type": "address"
        },
        {
          "internalType": "uint256",
          "name": "duration",
          "type": "uint256"
        },
        {
          "internalType": "bytes32",
          "name": "secret",
          "type": "bytes32"
        },
        {
          "internalType": "address",
          "name": "resolverAddr",
          "type": "address"
        },
        {
          "internalType": "bytes[]",
          "name": "data",
          "type": "bytes[]"
        },
        {
          "internalType": "bool",
          "name": "reverseRecord",
          "type": "bool"
        },
        {
          "internalType": "address",
          "name": "sender",
          "type": "address"
        }
      ],
      "name": "makeCommitmentWithSender",
      "outputs": [
        {
          "internalType": "bytes32",
          "name": "",
          "type": "bytes32"
        }
      ],
      "stateMutability": "pure",
      "type": "function"
    },
    {
      "inputs": [],
      "name": "pause",
      "outputs": [],
      "stateMutability": "nonpayable",
      "type": "function"
    },
    {
      "inputs": [],
      "name": "paused",
      "outputs": [
        {
          "internalType": "bool",
          "name": "",
          "type": "bool"
        }
      ],
      "stateMutability": "view",
      "type": "function"
    },
    {
      "inputs": [],
      "name": "priceOracle",
      "outputs": [
        {
          "internalType": "contract IArcNSPriceOracle",
          "name": "",
          "type": "address"
        }
      ],
      "stateMutability": "view",
      "type": "function"
    },
    {
      "inputs": [],
      "name": "proxiableUUID",
      "outputs": [
        {
          "internalType": "bytes32",
          "name": "",
          "type": "bytes32"
        }
      ],
      "stateMutability": "view",
      "type": "function"
    },
    {
      "inputs": [
        {
          "internalType": "string",
          "name": "name_",
          "type": "string"
        },
        {
          "internalType": "address",
          "name": "owner_",
          "type": "address"
        },
        {
          "internalType": "uint256",
          "name": "duration",
          "type": "uint256"
        },
        {
          "internalType": "bytes32",
          "name": "secret",
          "type": "bytes32"
        },
        {
          "internalType": "address",
          "name": "resolverAddr",
          "type": "address"
        },
        {
          "internalType": "bytes[]",
          "name": "data",
          "type": "bytes[]"
        },
        {
          "internalType": "bool",
          "name": "reverseRecord",
          "type": "bool"
        },
        {
          "internalType": "uint256",
          "name": "maxCost",
          "type": "uint256"
        }
      ],
      "name": "register",
      "outputs": [],
      "stateMutability": "nonpayable",
      "type": "function"
    },
    {
      "inputs": [],
      "name": "registry",
      "outputs": [
        {
          "internalType": "contract IArcNSRegistry",
          "name": "",
          "type": "address"
        }
      ],
      "stateMutability": "view",
      "type": "function"
    },
    {
      "inputs": [
        {
          "internalType": "string",
          "name": "name_",
          "type": "string"
        },
        {
          "internalType": "uint256",
          "name": "duration",
          "type": "uint256"
        },
        {
          "internalType": "uint256",
          "name": "maxCost",
          "type": "uint256"
        }
      ],
      "name": "renew",
      "outputs": [],
      "stateMutability": "nonpayable",
      "type": "function"
    },
    {
      "inputs": [
        {
          "internalType": "bytes32",
          "name": "role",
          "type": "bytes32"
        },
        {
          "internalType": "address",
          "name": "callerConfirmation",
          "type": "address"
        }
      ],
      "name": "renounceRole",
      "outputs": [],
      "stateMutability": "nonpayable",
      "type": "function"
    },
    {
      "inputs": [
        {
          "internalType": "string",
          "name": "name_",
          "type": "string"
        },
        {
          "internalType": "uint256",
          "name": "duration",
          "type": "uint256"
        }
      ],
      "name": "rentPrice",
      "outputs": [
        {
          "components": [
            {
              "internalType": "uint256",
              "name": "base",
              "type": "uint256"
            },
            {
              "internalType": "uint256",
              "name": "premium",
              "type": "uint256"
            }
          ],
          "internalType": "struct IArcNSPriceOracle.Price",
          "name": "",
          "type": "tuple"
        }
      ],
      "stateMutability": "view",
      "type": "function"
    },
    {
      "inputs": [],
      "name": "resolver",
      "outputs": [
        {
          "internalType": "contract ArcNSResolverV2",
          "name": "",
          "type": "address"
        }
      ],
      "stateMutability": "view",
      "type": "function"
    },
    {
      "inputs": [
        {
          "internalType": "bytes32",
          "name": "role",
          "type": "bytes32"
        },
        {
          "internalType": "address",
          "name": "account",
          "type": "address"
        }
      ],
      "name": "revokeRole",
      "outputs": [],
      "stateMutability": "nonpayable",
      "type": "function"
    },
    {
      "inputs": [
        {
          "internalType": "address",
          "name": "resolverAddr",
          "type": "address"
        },
        {
          "internalType": "bool",
          "name": "approved",
          "type": "bool"
        }
      ],
      "name": "setApprovedResolver",
      "outputs": [],
      "stateMutability": "nonpayable",
      "type": "function"
    },
    {
      "inputs": [
        {
          "internalType": "contract IArcNSPriceOracle",
          "name": "_oracle",
          "type": "address"
        }
      ],
      "name": "setPriceOracle",
      "outputs": [],
      "stateMutability": "nonpayable",
      "type": "function"
    },
    {
      "inputs": [
        {
          "internalType": "address",
          "name": "_treasury",
          "type": "address"
        }
      ],
      "name": "setTreasury",
      "outputs": [],
      "stateMutability": "nonpayable",
      "type": "function"
    },
    {
      "inputs": [
        {
          "internalType": "bytes4",
          "name": "interfaceId",
          "type": "bytes4"
        }
      ],
      "name": "supportsInterface",
      "outputs": [
        {
          "internalType": "bool",
          "name": "",
          "type": "bool"
        }
      ],
      "stateMutability": "view",
      "type": "function"
    },
    {
      "inputs": [],
      "name": "treasury",
      "outputs": [
        {
          "internalType": "address",
          "name": "",
          "type": "address"
        }
      ],
      "stateMutability": "view",
      "type": "function"
    },
    {
      "inputs": [],
      "name": "unpause",
      "outputs": [],
      "stateMutability": "nonpayable",
      "type": "function"
    },
    {
      "inputs": [
        {
          "internalType": "address",
          "name": "newImplementation",
          "type": "address"
        },
        {
          "internalType": "bytes",
          "name": "data",
          "type": "bytes"
        }
      ],
      "name": "upgradeToAndCall",
      "outputs": [],
      "stateMutability": "payable",
      "type": "function"
    },
    {
      "inputs": [],
      "name": "usdc",
      "outputs": [
        {
          "internalType": "contract IERC20",
          "name": "",
          "type": "address"
        }
      ],
      "stateMutability": "view",
      "type": "function"
    },
    {
      "inputs": [
        {
          "internalType": "bytes32",
          "name": "",
          "type": "bytes32"
        }
      ],
      "name": "usedCommitments",
      "outputs": [
        {
          "internalType": "bool",
          "name": "",
          "type": "bool"
        }
      ],
      "stateMutability": "view",
      "type": "function"
    }
  ],
  "bytecode": "0x60a080604052346100e857306080527ff0c57e16840df040f15088dc2f81fe391c3923bec73e23a9662efc9c229c6a005460ff8160401c166100d9576002600160401b03196001600160401b03821601610073575b604051612b9f90816100ed8239608051818181610b870152610c600152f35b6001600160401b0319166001600160401b039081177ff0c57e16840df040f15088dc2f81fe391c3923bec73e23a9662efc9c229c6a005581527fc7f505b2f371ae2175ee4913f4499e1f2633a7b5936321eed1cdaeb6115181d290602090a15f80610054565b63f92ee8a960e01b5f5260045ffd5b5f80fdfe6080806040526004361015610012575f80fd5b5f905f3560e01c90816301ffc9a714611c695750806304f3bcec14611c4157806307e2cea514611c1a578063248a9ca314611bfc5780632630c12f14611bd45780632e4f692a14611bb95780632f2ff15d14611b8857806335876476146118f157806336568abe146118ab5780633d4aa89e146117c85780633e413bee146117a05780633f4ba83a146117225780634a0b680914610e465780634f1ef28614610c205780635001f3b514610bf757806350cfeddd14610bdb57806352d1902d14610b74578063530e784f14610ab65780635c975abb14610a8757806361d027b314610a5e57806375b238fc14610a235780637b103999146109fa578063839df945146109d057806383e7f6ff1461097f5780638456cb591461090c5780638a95b09f146108ee5780638ccb9ea6146108d057806391402039146108a1578063917844cf1461086257806391d148541461080c578063a217fddf146107f0578063a6100fca14610659578063ad3cb1cc1461060c578063aeb8ce9b14610524578063b74dd231146104a1578063cd0c9ce9146103fa578063d547741f146103bf578063e63ab1e914610384578063f0f442601461030b578063f14fcbc81461020b5763f72c0d8b146101e1575f80fd5b3461020857806003193601126102085760206040515f80516020612aaa8339815191528152f35b80fd5b503461020857602036600319011261020857600435610228612803565b808252600860205261024160ff60408420541615612200565b808252600760205260408220541580156102d5575b156102905780825260076020524260408320557f561eb038a114723afa3c72b445add7b8602de546264da1e7e826af628316dbcb8280a280f35b60405162461bcd60e51b815260206004820152601d60248201527f436f6e74726f6c6c65723a20636f6d6d69746d656e74206578697374730000006044820152606490fd5b50808252600760205260408220546201518081018091116102f7574211610256565b634e487b7160e01b83526011600452602483fd5b503461020857602036600319011261020857610325611ce8565b61032d6122c7565b6001600160a01b0316610341811515611eca565b600654816001600160a01b0382167f4ab5be82436d353e61ca18726e984e561f5c1cc7c6d38b29d2553c790434705a8580a36001600160a01b0319161760065580f35b503461020857806003193601126102085760206040517f65d7a28e3265b37a6474929f336521b332c1681b933f6cb9f3376673440d862a8152f35b5034610208576040366003190112610208576103f66004356103df611cbc565b906103f16103ec82611eac565b612336565b612767565b5080f35b503461020857610100366003190112610208576004356001600160401b03811161049d5761042c903690600401611d9f565b610434611cbc565b61043c611cd2565b60a4356001600160401b0381116104995761045b903690600401611e31565b91610464611e4c565b60e435959094906001600160a01b0387168703610208576020610491888888886064356044358a8a61217a565b604051908152f35b8480fd5b5080fd5b5034610208576040366003190112610208576104bb611ce8565b602435908115158092036105205760207ff83a8c0afd54275f21152a22a8eada2be10781dbb0f72d691b3f7e90564dac9f916104f56122c7565b6001600160a01b0316808552600982526040808620805460ff191660ff87161790555193845292a280f35b8280fd5b5034610208576020366003190112610208576004356001600160401b03811161049d57610555903690600401611d9f565b610565815160208301209161282a565b9081610579575b6020826040519015158152f35b6001546040516312dc929d60e31b81526004810192909252909150602090829060249082906001600160a01b03165afa9081156106015782916105c2575b50602091505f61056c565b90506020813d6020116105f9575b816105dd60209383611d2d565b8101031261049d5751801515810361049d57602091505f6105b7565b3d91506105d0565b6040513d84823e3d90fd5b50346102085780600319360112610208575061065560405161062f604082611d2d565b60058152640352e302e360dc1b6020820152604051918291602083526020830190611e88565b0390f35b5034610208576060366003190112610208576004356001600160401b03811161049d5761068a903690600401611e5b565b906024359161069d600285541415611f6e565b600284556106a9612803565b6106cd6106c0846106bb368587611d69565b612052565b6020815191015190611fba565b916106dc604435841115611fc7565b6003546006546106fc9185916001600160a01b03908116913391166128eb565b84602061070a368585611d69565b80519082012060015460405163c475abff60e01b8152600481018390526024810198909852909692839160449183916001600160a01b03165af19081156107e557869161078f575b50610785907f3da24c024582931cfaf8267d8ed24d13a82a8068d5bd337d30ec45cea4e506ae946040519485948561201d565b0390a26001815580f35b90506020813d6020116107dd575b816107aa60209383611d2d565b810103126107d957517f3da24c024582931cfaf8267d8ed24d13a82a8068d5bd337d30ec45cea4e506ae610752565b5f80fd5b3d915061079d565b6040513d88823e3d90fd5b5034610208578060031936011261020857602090604051908152f35b5034610208576040366003190112610208576040610828611cbc565b9160043581525f80516020612b0a833981519152602052209060018060a01b03165f52602052602060ff60405f2054166040519015158152f35b50346102085760203660031901126102085760209060ff906040906001600160a01b0361088d611ce8565b168152600984522054166040519015158152f35b50346102085760203660031901126102085760ff60406020926004358152600884522054166040519015158152f35b50346102085780600319360112610208576020604051620151808152f35b503461020857806003193601126102085760206040516224ea008152f35b5034610208578060031936011261020857610925612258565b61092d612803565b600160ff195f80516020612b2a8339815191525416175f80516020612b2a833981519152557f62e78cea01bee320cd4e420270b5ea74000d11b0c9f74754ebdbfc544b05a2586020604051338152a180f35b503461020857604036600319011261020857600435906001600160401b0382116102085760406109be6109b53660048601611d9f565b60243590612052565b60208251918051835201516020820152f35b50346102085760203660031901126102085760406020916004358152600783522054604051908152f35b50346102085780600319360112610208576004546040516001600160a01b039091168152602090f35b503461020857806003193601126102085760206040517fa49807205ce4d355092ef5a8a18f56e8913cf4a201fbe287825b095693c217758152f35b50346102085780600319360112610208576006546040516001600160a01b039091168152602090f35b5034610208578060031936011261020857602060ff5f80516020612b2a83398151915254166040519015158152f35b503461020857602036600319011261020857610ad0611ce8565b5f80516020612aea83398151915282525f80516020612b0a83398151915260209081526040808420335f908152925290205460ff1615610b5057600280546001600160a01b0319166001600160a01b039290921691821790557ff261845a790fe29bbd6631e2ca4a5bdc83e6eed7c3271d9590d97287e00e91238280a280f35b63e2517d3f60e01b8252336004525f80516020612aea833981519152602452604482fd5b50346102085780600319360112610208577f00000000000000000000000000000000000000000000000000000000000000006001600160a01b03163003610bcc5760206040515f80516020612aca8339815191528152f35b63703e46dd60e11b8152600490fd5b5034610208578060031936011261020857602060405160018152f35b50346102085780600319360112610208576001546040516001600160a01b039091168152602090f35b50604036600319011261020857610c35611ce8565b906024356001600160401b03811161049d57610c55903690600401611d9f565b916001600160a01b037f000000000000000000000000000000000000000000000000000000000000000016308114908115610e24575b50610e15575f80516020612aaa83398151915282525f80516020612b0a83398151915260209081526040808420335f908152925290205460ff1615610df1576040516352d1902d60e01b8152926001600160a01b0382169190602085600481865afa80958596610dbd575b50610d0f57634c9c8ce360e01b84526004839052602484fd5b9091845f80516020612aca8339815191528103610dab5750823b15610d99575f80516020612aca83398151915280546001600160a01b031916821790557fbc7cd75a20ee27fd9adebab32041f755214dbc6bffa90cc0225b39da2e5c2d3b8480a2805115610d80576103f6916129fd565b505034610d8a5780f35b63b398979f60e01b8152600490fd5b634c9c8ce360e01b8452600452602483fd5b632a87526960e21b8552600452602484fd5b9095506020813d602011610de9575b81610dd960209383611d2d565b810103126107d95751945f610cf6565b3d9150610dcc565b63e2517d3f60e01b8252336004525f80516020612aaa833981519152602452604482fd5b63703e46dd60e11b8252600482fd5b5f80516020612aca833981519152546001600160a01b0316141590505f610c8b565b50346107d9576101003660031901126107d9576004356001600160401b0381116107d957610e78903690600401611e5b565b610e80611cbc565b9060443590610e8d611cd2565b9260a435936001600160401b0385116107d957366023860112156107d95784600401356001600160401b0381116107d9576024860195602436918360051b0101116107d957610eda611e4c565b610ee860025f541415611f6e565b60025f55610ef4612803565b610f1e610f0236878b611d69565b82339186610f128c883691611dbd565b918b8a6064359261217a565b805f526008602052610f3760ff60405f20541615612200565b805f52600760205260405f2054603c81018091116116c95742106116dd57805f52600760205260405f20546201518081018091116116c95742101561168457805f52600860205260405f20600160ff198254161790555f5260076020525f6040812055610fad610fa836878b611d69565b61282a565b1561163f576224ea0086106115fa576001600160a01b038316918215159081611597575b610fe36106c0896106bb368b8f611d69565b94610ff260e435871115611fc7565b6003546006546110129188916001600160a01b03908116913391166128eb565b61101d36898d611d69565b602081519101209960018060a01b0360015416604051630ddf7fcb60e41b8152602081600481855afa90811561149b575f91611565575b50604051602081019182528d604082015260408152611074606082611d2d565b5190209085156114d85750600154604051631ef5ace960e21b8152600481018e90526001600160a01b038b811660248301819052604483019e909e52606482018a9052909182918291165a925f608492602095f190811561149b575f916114a6575b509a873b156107d9576040519062d5fa2b60e81b825282600483015260248201525f81604481838c5af1801561149b5761147a575b50908392918e9796959461130e575b505050505b81611306575b50611172575b50507fca6abbe9d7f11422cb6ca7629fbf6fe9efb1c621f71ce8f02b9f2a230097404f936111689160405194859460018060a01b0316988561201d565b0390a36001815580f35b61117d36868a611d69565b6001546040516316aa8a1960e11b8152919291908490829060049082906001600160a01b03165afa9081156112fb57849161126f575b50600160209384806111fc946040519784899551918291018487015e840190601760f91b83830152805192839101602183015e010186838201520301601f198101845283611d2d565b803b1561052057604051637a806d6b60e01b81526001600160a01b0386166004820181905260248201526044810182905260806064820152918391839182908490829061124d906084830190611e88565b03925af11561112b578161126091611d2d565b61126b57865f61112b565b8680fd5b90503d8085833e6112808183611d2d565b810190602081830312610499578051906001600160401b0382116112f757019080601f83011215610499578151936112b785611d4e565b916112c56040519384611d2d565b858352602086850101116112f757602080600193888289819a826111fc9a018386015e830101529450505093506111b3565b8580fd5b6040513d86823e3d90fd5b90505f611125565b875b84811061131d575061111a565b909192939495969750602461133382878661297d565b905010611435578e61134682878661297d565b60041161049d5761135883888761297d565b91826024116114315783926113a26020859460405193849160048484019788378b60248401526024602319830191016044840137810186838201520301601f198101835282611d2d565b519082895af1903d1561142b573d906113ba82611d4e565b916113c86040519384611d2d565b825260203d92013e5b156113e757600101908e97969594939291611310565b606460405162461bcd60e51b815260206004820152602060248201527f436f6e74726f6c6c65723a207265736f6c7665722063616c6c206661696c65646044820152fd5b506113d1565b8380fd5b60405162461bcd60e51b815260206004820152601f60248201527f436f6e74726f6c6c65723a20696e76616c6964207265636f72642064617461006044820152606490fd5b61148d919796959493929e505f90611d2d565b5f9c9091929394955f61110b565b6040513d5f823e3d90fd5b90506020813d6020116114d0575b816114c160209383611d2d565b810103126107d957515f6110d6565b3d91506114b4565b604051633f2891eb60e21b8152600481018e90526001600160a01b038b166024820152604481019c909c52949a96959460209450879350606492508391505f905af1801561149b578a935f91611530575b509661111f565b9350506020833d60201161155d575b8161154c60209383611d2d565b810103126107d9578992515f611529565b3d915061153f565b90506020813d60201161158f575b8161158060209383611d2d565b810103126107d957515f611054565b3d9150611573565b835f52600960205260ff60405f205416610fd15760405162461bcd60e51b815260206004820152602160248201527f436f6e74726f6c6c65723a207265736f6c766572206e6f7420617070726f76656044820152601960fa1b6064820152608490fd5b60405162461bcd60e51b815260206004820152601e60248201527f436f6e74726f6c6c65723a206475726174696f6e20746f6f2073686f727400006044820152606490fd5b60405162461bcd60e51b815260206004820152601860248201527f436f6e74726f6c6c65723a20696e76616c6964206e616d6500000000000000006044820152606490fd5b60405162461bcd60e51b815260206004820152601e60248201527f436f6e74726f6c6c65723a20636f6d6d69746d656e74206578706972656400006044820152606490fd5b634e487b7160e01b5f52601160045260245ffd5b60405162461bcd60e51b815260206004820152601e60248201527f436f6e74726f6c6c65723a20636f6d6d69746d656e7420746f6f206e657700006044820152606490fd5b346107d9575f3660031901126107d95761173a612258565b5f80516020612b2a8339815191525460ff8116156117915760ff19165f80516020612b2a833981519152557f5db9ee0a495bf2e6ff9c91a7834c1ba4fdd244a5e8aa4e537bd38aeae4b073aa6020604051338152a1005b638dfc202b60e01b5f5260045ffd5b346107d9575f3660031901126107d9576003546040516001600160a01b039091168152602090f35b346107d95760e03660031901126107d9576004356001600160401b0381116107d9576117f8903690600401611d9f565b611800611cbc565b90611809611cd2565b60a4356001600160401b0381116107d95760209361182e6118a0923690600401611e31565b9361188a61183a611e4c565b918781519101209560405195869489860198895260018060a01b031660408601526044356060860152606435608086015260018060a01b031660a085015260e060c0850152610100840190611f16565b90151560e083015203601f198101835282611d2d565b519020604051908152f35b346107d95760403660031901126107d9576118c4611cbc565b336001600160a01b038216036118e2576118e090600435612767565b005b63334bd91960e11b5f5260045ffd5b346107d95760e03660031901126107d9576004356001600160a01b038116908190036107d95761191f611cbc565b6044356001600160a01b03811691908290036107d9576064356001600160a01b03811692908390036107d9576084356001600160a01b03811693908490036107d95760a4356001600160a01b03811691908290036107d95760c435926001600160a01b03841684036107d9575f80516020612b4a833981519152549460ff8660401c1615976001600160401b03871680159081611b80575b6001149081611b76575b159081611b6d575b50611b5e5767ffffffffffffffff1987166001175f80516020612b4a83398151915255611abe9689611b32575b506119ff6129d2565b611a076129d2565b611a12851515611eca565b6001600160601b0360a01b600154161760015560018060a01b03166001600160601b0360a01b60025416176002556001600160601b0360a01b60035416176003556001600160601b0360a01b6004541617600455836001600160601b0360a01b60055416176005556001600160601b0360a01b600654161760065560015f55611a9a8161237c565b50611aa481612418565b50611aae816124d1565b50611ab88161258a565b50612630565b505f52600960205260405f20600160ff19825416179055611adb57005b68ff0000000000000000195f80516020612b4a83398151915254165f80516020612b4a833981519152557fc7f505b2f371ae2175ee4913f4499e1f2633a7b5936321eed1cdaeb6115181d2602060405160018152a1005b68ffffffffffffffffff191668010000000000000001175f80516020612b4a83398151915255896119f6565b63f92ee8a960e01b5f5260045ffd5b9050158a6119c9565b303b1591506119c1565b8a91506119b7565b346107d95760403660031901126107d9576118e0600435611ba7611cbc565b90611bb46103ec82611eac565b6126d6565b346107d9575f3660031901126107d9576020604051603c8152f35b346107d9575f3660031901126107d9576002546040516001600160a01b039091168152602090f35b346107d95760203660031901126107d9576020610491600435611eac565b346107d9575f3660031901126107d95760206040515f80516020612aea8339815191528152f35b346107d9575f3660031901126107d9576005546040516001600160a01b039091168152602090f35b346107d95760203660031901126107d9576004359063ffffffff60e01b82168092036107d957602091637965db0b60e01b8114908115611cab575b5015158152f35b6301ffc9a760e01b14905083611ca4565b602435906001600160a01b03821682036107d957565b608435906001600160a01b03821682036107d957565b600435906001600160a01b03821682036107d957565b604081019081106001600160401b03821117611d1957604052565b634e487b7160e01b5f52604160045260245ffd5b90601f801991011681019081106001600160401b03821117611d1957604052565b6001600160401b038111611d1957601f01601f191660200190565b929192611d7582611d4e565b91611d836040519384611d2d565b8294818452818301116107d9578281602093845f960137010152565b9080601f830112156107d957816020611dba93359101611d69565b90565b929190926001600160401b038411611d19578360051b906020604051611de582850182611d2d565b8096815201918101918383116107d95781905b838210611e06575050505050565b81356001600160401b0381116107d957602091611e268784938701611d9f565b815201910190611df8565b9080601f830112156107d957816020611dba93359101611dbd565b60c4359081151582036107d957565b9181601f840112156107d9578235916001600160401b0383116107d957602083818601950101116107d957565b805180835260209291819084018484015e5f828201840152601f01601f1916010190565b5f525f80516020612b0a833981519152602052600160405f20015490565b15611ed157565b60405162461bcd60e51b815260206004820152601960248201527f436f6e74726f6c6c65723a207a65726f207472656173757279000000000000006044820152606490fd5b9080602083519182815201916020808360051b8301019401925f915b838310611f4157505050505090565b9091929394602080611f5f600193601f198682030187528951611e88565b97019301930191939290611f32565b15611f7557565b60405162461bcd60e51b815260206004820152601a60248201527f436f6e74726f6c6c65723a207265656e7472616e742063616c6c0000000000006044820152606490fd5b919082018092116116c957565b15611fce57565b60405162461bcd60e51b815260206004820152602160248201527f436f6e74726f6c6c65723a2070726963652065786365656473206d6178436f736044820152601d60fa1b6064820152608490fd5b90826040936080929796959760608552816060860152838501375f828285010152601f80199101168201019460208201520152565b905f602060405161206281611cfe565b8281520152815160208301209060018060a01b0360025416602060018060a01b036001541693602460405180968193636b727d4360e11b835260048301525afa92831561149b575f93612144575b506120dc604093948451958694859384936350e9a71560e01b8552606060048601526064850190611e88565b916024840152604483015203915afa90811561149b575f916120fc575090565b90506040813d60401161213c575b8161211760409383611d2d565b810103126107d95760206040519161212e83611cfe565b805183520151602082015290565b3d915061210a565b92506020833d602011612172575b8161215f60209383611d2d565b810103126107d9579151916120dc6120b0565b3d9150612152565b8051602091820120604080519283019182526001600160a01b03938416908301526060820193909352608081019390935290921660a082015261010060c0820152909390926121fa928492906121d590610120850190611f16565b91151560e08401526001600160a01b031661010083015203601f198101835282611d2d565b51902090565b1561220757565b60405162461bcd60e51b815260206004820152602360248201527f436f6e74726f6c6c65723a20636f6d6d69746d656e7420616c726561647920756044820152621cd95960ea1b6064820152608490fd5b335f9081527f75442b0a96088b5456bc4ed01394c96a4feec0f883c9494257d76b96ab1c9b6b602052604090205460ff161561229057565b63e2517d3f60e01b5f52336004527f65d7a28e3265b37a6474929f336521b332c1681b933f6cb9f3376673440d862a60245260445ffd5b335f9081527fb16e88c42fd4e48df2dd6a2eabd6bc9aec654ec170056b470819f8892cc6431c602052604090205460ff16156122ff57565b63e2517d3f60e01b5f52336004527fa49807205ce4d355092ef5a8a18f56e8913cf4a201fbe287825b095693c2177560245260445ffd5b5f8181525f80516020612b0a8339815191526020908152604080832033845290915290205460ff16156123665750565b63e2517d3f60e01b5f523360045260245260445ffd5b6001600160a01b0381165f9081527fb7db2dd08fcb62d0c9e08c51941cae53c267786a0b75803fb7960902fc8ef97d602052604090205460ff16612413576001600160a01b03165f8181527fb7db2dd08fcb62d0c9e08c51941cae53c267786a0b75803fb7960902fc8ef97d60205260408120805460ff191660011790553391905f80516020612a8a8339815191528180a4600190565b505f90565b6001600160a01b0381165f9081527fb16e88c42fd4e48df2dd6a2eabd6bc9aec654ec170056b470819f8892cc6431c602052604090205460ff16612413576001600160a01b03165f8181527fb16e88c42fd4e48df2dd6a2eabd6bc9aec654ec170056b470819f8892cc6431c60205260408120805460ff191660011790553391907fa49807205ce4d355092ef5a8a18f56e8913cf4a201fbe287825b095693c21775905f80516020612a8a8339815191529080a4600190565b6001600160a01b0381165f9081527f75442b0a96088b5456bc4ed01394c96a4feec0f883c9494257d76b96ab1c9b6b602052604090205460ff16612413576001600160a01b03165f8181527f75442b0a96088b5456bc4ed01394c96a4feec0f883c9494257d76b96ab1c9b6b60205260408120805460ff191660011790553391907f65d7a28e3265b37a6474929f336521b332c1681b933f6cb9f3376673440d862a905f80516020612a8a8339815191529080a4600190565b6001600160a01b0381165f9081527f0b45fb0a7d123af421db170fce034e3ce3a70e5f1150428004face1400c458f2602052604090205460ff16612413576001600160a01b03165f8181527f0b45fb0a7d123af421db170fce034e3ce3a70e5f1150428004face1400c458f260205260408120805460ff191660011790553391905f80516020612aea833981519152905f80516020612a8a8339815191529080a4600190565b6001600160a01b0381165f9081527fab71e3f32666744d246edff3f96e4bdafee2e9867098cdd118a979a7464786a8602052604090205460ff16612413576001600160a01b03165f8181527fab71e3f32666744d246edff3f96e4bdafee2e9867098cdd118a979a7464786a860205260408120805460ff191660011790553391905f80516020612aaa833981519152905f80516020612a8a8339815191529080a4600190565b5f8181525f80516020612b0a833981519152602090815260408083206001600160a01b038616845290915290205460ff16612761575f8181525f80516020612b0a833981519152602090815260408083206001600160a01b0395909516808452949091528120805460ff19166001179055339291905f80516020612a8a8339815191529080a4600190565b50505f90565b5f8181525f80516020612b0a833981519152602090815260408083206001600160a01b038616845290915290205460ff1615612761575f8181525f80516020612b0a833981519152602090815260408083206001600160a01b0395909516808452949091528120805460ff19169055339291907ff6391f5c32d9c69d2a47ea670b442974b53935d1edc7fd64eb21e047a839171b9080a4600190565b60ff5f80516020612b2a833981519152541661281b57565b63d93c066560e01b5f5260045ffd5b6001815110612413575f5b81518110156128e457818101602001516001600160f81b031916606160f81b811015806128d6575b80156128b9575b80156128ac575b156128a557602d60f81b1480612888575b61276157600101612835565b5080158061287c575081515f1981019081116116c957811461287c565b5050505f90565b50602d60f81b811461286b565b50600360fc1b81108015906128645750603960f81b811115612864565b50603d60f91b81111561285d565b5050600190565b6040516323b872dd60e01b5f9081526001600160a01b039384166004529290931660245260449390935260209060648180865af19060015f511482161561295c575b6040525f6060521561293c5750565b635274afe760e01b5f9081526001600160a01b0391909116600452602490fd5b90600181151661297457823b15153d1516169061292d565b503d5f823e3d90fd5b91908110156129be5760051b81013590601e19813603018212156107d95701908135916001600160401b0383116107d95760200182360381136107d9579190565b634e487b7160e01b5f52603260045260245ffd5b60ff5f80516020612b4a8339815191525460401c16156129ee57565b631afcd79f60e31b5f5260045ffd5b905f8091602081519101845af48080612a76575b15612a315750506040513d81523d5f602083013e60203d82010160405290565b15612a5657639996b31560e01b5f9081526001600160a01b0391909116600452602490fd5b3d15612a67576040513d5f823e3d90fd5b63d6bda27560e01b5f5260045ffd5b503d151580612a115750813b1515612a1156fe2f8788117e7eff1d82e926ec794901d17c78024a50270940304540a733656f0d189ab7a9244df0848122154315af71fe140f3db0fe014031783b0946b8c9d2e3360894a13ba1a3210667c828492db98dca3e2076cc3735a920a3ca505d382bbc68e79a7bf1e0bc45d0a330c573bc367f9cf464fd326078812f301165fbda4ef102dd7bc7dec4dceedda775e58dd541e08a116c6c53815c0bd028192f7b626800cd5ed15c6e187e77e9aee88184c21f4f2182ab5827cb3b7e07fbedcd63f03300f0c57e16840df040f15088dc2f81fe391c3923bec73e23a9662efc9c229c6a00a26469706673582212202d3f3916e80db13704bbec8f95a49afb074150eee4fe614fcec16853c4b7d51e64736f6c634300081a0033",
  "linkReferences": {},
  "deployedLinkReferences": {}
}