{
  "_format": "hh-sol-artifact-1",
  "contractName": "ArcNSRegistrarControllerV2",
  "sourceName": "contracts/proxy/ArcNSRegistrarControllerV2.sol",
  "abi": [
    {
      "inputs": [],
      "stateMutability": "nonpayable",
      "type": "constructor"
    },
    {
      "inputs": [],
      "name": "AccessControlBadConfirmation",
      "type": "error"
    },
    {
      "inputs": [
        {
          "internalType": "address",
          "name": "account",
          "type": "address"
        },
        {
          "internalType": "bytes32",
          "name": "neededRole",
          "type": "bytes32"
        }
      ],
      "name": "AccessControlUnauthorizedAccount",
      "type": "error"
    },
    {
      "inputs": [
        {
          "internalType": "address",
          "name": "target",
          "type": "address"
        }
      ],
      "name": "AddressEmptyCode",
      "type": "error"
    },
    {
      "inputs": [
        {
          "internalType": "address",
          "name": "implementation",
          "type": "address"
        }
      ],
      "name": "ERC1967InvalidImplementation",
      "type": "error"
    },
    {
      "inputs": [],
      "name": "ERC1967NonPayable",
      "type": "error"
    },
    {
      "inputs": [],
      "name": "EnforcedPause",
      "type": "error"
    },
    {
      "inputs": [],
      "name": "ExpectedPause",
      "type": "error"
    },
    {
      "inputs": [],
      "name": "FailedCall",
      "type": "error"
    },
    {
      "inputs": [],
      "name": "InvalidInitialization",
      "type": "error"
    },
    {
      "inputs": [],
      "name": "NotInitializing",
      "type": "error"
    },
    {
      "inputs": [
        {
          "internalType": "address",
          "name": "token",
          "type": "address"
        }
      ],
      "name": "SafeERC20FailedOperation",
      "type": "error"
    },
    {
      "inputs": [],
      "name": "UUPSUnauthorizedCallContext",
      "type": "error"
    },
    {
      "inputs": [
        {
          "internalType": "bytes32",
          "name": "slot",
          "type": "bytes32"
        }
      ],
      "name": "UUPSUnsupportedProxiableUUID",
      "type": "error"
    },
    {
      "anonymous": false,
      "inputs": [
        {
          "indexed": true,
          "internalType": "bytes32",
          "name": "commitment",
          "type": "bytes32"
        }
      ],
      "name": "CommitmentMade",
      "type": "event"
    },
    {
      "anonymous": false,
      "inputs": [
        {
          "indexed": true,
          "internalType": "bytes32",
          "name": "commitment",
          "type": "bytes32"
        },
        {
          "indexed": true,
          "internalType": "address",
          "name": "sender",
          "type": "address"
        },
        {
          "indexed": false,
          "internalType": "uint256",
          "name": "blockTs",
          "type": "uint256"
        }
      ],
      "name": "DebugRegister",
      "type": "event"
    },
    {
      "anonymous": false,
      "inputs": [
        {
          "indexed": false,
          "internalType": "uint64",
          "name": "version",
          "type": "uint64"
        }
      ],
      "name": "Initialized",
      "type": "event"
    },
    {
      "anonymous": false,
      "inputs": [
        {
          "indexed": false,
          "internalType": "string",
          "name": "name",
          "type": "string"
        },
        {
          "indexed": true,
          "internalType": "bytes32",
          "name": "label",
          "type": "bytes32"
        },
        {
          "indexed": true,
          "internalType": "address",
          "name": "owner",
          "type": "address"
        },
        {
          "indexed": false,
          "internalType": "uint256",
          "name": "cost",
          "type": "uint256"
        },
        {
          "indexed": false,
          "internalType": "uint256",
          "name": "expires",
          "type": "uint256"
        }
      ],
      "name": "NameRegistered",
      "type": "event"
    },
    {
      "anonymous": false,
      "inputs": [
        {
          "indexed": false,
          "internalType": "string",
          "name": "name",
          "type": "string"
        },
        {
          "indexed": true,
          "internalType": "bytes32",
          "name": "label",
          "type": "bytes32"
        },
        {
          "indexed": false,
          "internalType": "uint256",
          "name": "cost",
          "type": "uint256"
        },
        {
          "indexed": false,
          "internalType": "uint256",
          "name": "expires",
          "type": "uint256"
        }
      ],
      "name": "NameRenewed",
      "type": "event"
    },
    {
      "anonymous": false,
      "inputs": [
        {
          "indexed": true,
          "internalType": "address",
          "name": "oracle",
          "type": "address"
        }
      ],
      "name": "NewPriceOracle",
      "type": "event"
    },
    {
      "anonymous": false,
      "inputs": [
        {
          "indexed": false,
          "internalType": "address",
          "name": "account",
          "type": "address"
        }
      ],
      "name": "Paused",
      "type": "event"
    },
    {
      "anonymous": false,
      "inputs": [
        {
          "indexed": true,
          "internalType": "address",
          "name": "resolver",
          "type": "address"
        },
        {
          "indexed": false,
          "internalType": "bool",
          "name": "approved",
          "type": "bool"
        }
      ],
      "name": "ResolverApproved",
      "type": "event"
    },
    {
      "anonymous": false,
      "inputs": [
        {
          "indexed": true,
          "internalType": "bytes32",
          "name": "role",
          "type": "bytes32"
        },
        {
          "indexed": true,
          "internalType": "bytes32",
          "name": "previousAdminRole",
          "type": "bytes32"
        },
        {
          "indexed": true,
          "internalType": "bytes32",
          "name": "newAdminRole",
          "type": "bytes32"
        }
      ],
      "name": "RoleAdminChanged",
      "type": "event"
    },
    {
      "anonymous": false,
      "inputs": [
        {
          "indexed": true,
          "internalType": "bytes32",
          "name": "role",
          "type": "bytes32"
        },
        {
          "indexed": true,
          "internalType": "address",
          "name": "account",
          "type": "address"
        },
        {
          "indexed": true,
          "internalType": "address",
          "name": "sender",
          "type": "address"
        }
      ],
      "name": "RoleGranted",
      "type": "event"
    },
    {
      "anonymous": false,
      "inputs": [
        {
          "indexed": true,
          "internalType": "bytes32",
          "name": "role",
          "type": "bytes32"
        },
        {
          "indexed": true,
          "internalType": "address",
          "name": "account",
          "type": "address"
        },
        {
          "indexed": true,
          "internalType": "address",
          "name": "sender",
          "type": "address"
        }
      ],
      "name": "RoleRevoked",
      "type": "event"
    },
    {
      "anonymous": false,
      "inputs": [
        {
          "indexed": true,
          "internalType": "address",
          "name": "oldTreasury",
          "type": "address"
        },
        {
          "indexed": true,
          "internalType": "address",
          "name": "newTreasury",
          "type": "address"
        }
      ],
      "name": "TreasuryUpdated",
      "type": "event"
    },
    {
      "anonymous": false,
      "inputs": [
        {
          "indexed": false,
          "internalType": "address",
          "name": "account",
          "type": "address"
        }
      ],
      "name": "Unpaused",
      "type": "event"
    },
    {
      "anonymous": false,
      "inputs": [
        {
          "indexed": true,
          "internalType": "address",
          "name": "implementation",
          "type": "address"
        }
      ],
      "name": "Upgraded",
      "type": "event"
    },
    {
      "inputs": [],
      "name": "ADMIN_ROLE",
      "outputs": [
        {
          "internalType": "bytes32",
          "name": "",
          "type": "bytes32"
        }
      ],
      "stateMutability": "view",
      "type": "function"
    },
    {
      "inputs": [],
      "name": "DEFAULT_ADMIN_ROLE",
      "outputs": [
        {
          "internalType": "bytes32",
          "name": "",
          "type": "bytes32"
        }
      ],
      "stateMutability": "view",
      "type": "function"
    },
    {
      "inputs": [],
      "name": "MAX_COMMITMENT_AGE",
      "outputs": [
        {
          "internalType": "uint256",
          "name": "",
          "type": "uint256"
        }
      ],
      "stateMutability": "view",
      "type": "function"
    },
    {
      "inputs": [],
      "name": "MIN_COMMITMENT_AGE",
      "outputs": [
        {
          "internalType": "uint256",
          "name": "",
          "type": "uint256"
        }
      ],
      "stateMutability": "view",
      "type": "function"
    },
    {
      "inputs": [],
      "name": "MIN_NAME_LENGTH",
      "outputs": [
        {
          "internalType": "uint256",
          "name": "",
          "type": "uint256"
        }
      ],
      "stateMutability": "view",
      "type": "function"
    },
    {
      "inputs": [],
      "name": "MIN_REGISTRATION_DURATION",
      "outputs": [
        {
          "internalType": "uint256",
          "name": "",
          "type": "uint256"
        }
      ],
      "stateMutability": "view",
      "type": "function"
    },
    {
      "inputs": [],
      "name": "ORACLE_ROLE",
      "outputs": [
        {
          "internalType": "bytes32",
          "name": "",
          "type": "bytes32"
        }
      ],
      "stateMutability": "view",
      "type": "function"
    },
    {
      "inputs": [],
      "name": "PAUSER_ROLE",
      "outputs": [
        {
          "internalType": "bytes32",
          "name": "",
          "type": "bytes32"
        }
      ],
      "stateMutability": "view",
      "type": "function"
    },
    {
      "inputs": [],
      "name": "UPGRADER_ROLE",
      "outputs": [
        {
          "internalType": "bytes32",
          "name": "",
          "type": "bytes32"
        }
      ],
      "stateMutability": "view",
      "type": "function"
    },
    {
      "inputs": [],
      "name": "UPGRADE_INTERFACE_VERSION",
      "outputs": [
        {
          "internalType": "string",
          "name": "",
          "type": "string"
        }
      ],
      "stateMutability": "view",
      "type": "function"
    },
    {
      "inputs": [
        {
          "internalType": "address",
          "name": "",
          "type": "address"
        }
      ],
      "name": "approvedResolvers",
      "outputs": [
        {
          "internalType": "bool",
          "name": "",
          "type": "bool"
        }
      ],
      "stateMutability": "view",
      "type": "function"
    },
    {
      "inputs": [
        {
          "internalType": "string",
          "name": "name_",
          "type": "string"
        }
      ],
      "name": "available",
      "outputs": [
        {
          "internalType": "bool",
          "name": "",
          "type": "bool"
        }
      ],
      "stateMutability": "view",
      "type": "function"
    },
    {
      "inputs": [],
      "name": "base",
      "outputs": [
        {
          "internalType": "contract ArcNSBaseRegistrar",
          "name": "",
          "type": "address"
        }
      ],
      "stateMutability": "view",
      "type": "function"
    },
    {
      "inputs": [
        {
          "internalType": "bytes32",
          "name": "commitment",
          "type": "bytes32"
        }
      ],
      "name": "commit",
      "outputs": [],
      "stateMutability": "nonpayable",
      "type": "function"
    },
    {
      "inputs": [
        {
          "internalType": "bytes32",
          "name": "",
          "type": "bytes32"
        }
      ],
      "name": "commitments",
      "outputs": [
        {
          "internalType": "uint256",
          "name": "",
          "type": "uint256"
        }
      ],
      "stateMutability": "view",
      "type": "function"
    },
    {
      "inputs": [
        {
          "internalType": "bytes32",
          "name": "commitment",
          "type": "bytes32"
        }
      ],
      "name": "debugCommitment",
      "outputs": [
        {
          "internalType": "uint256",
          "name": "ts",
          "type": "uint256"
        },
        {
          "internalType": "bool",
          "name": "exists",
          "type": "bool"
        }
      ],
      "stateMutability": "view",
      "type": "function"
    },
    {
      "inputs": [
        {
          "internalType": "bytes32",
          "name": "commitment",
          "type": "bytes32"
        }
      ],
      "name": "getCommitmentStatus",
      "outputs": [
        {
          "internalType": "uint256",
          "name": "timestamp",
          "type": "uint256"
        },
        {
          "internalType": "bool",
          "name": "exists",
          "type": "bool"
        },
        {
          "internalType": "bool",
          "name": "matured",
          "type": "bool"
        },
        {
          "internalType": "bool",
          "name": "expired",
          "type": "bool"
        }
      ],
      "stateMutability": "view",
      "type": "function"
    },
    {
      "inputs": [
        {
          "internalType": "bytes32",
          "name": "role",
          "type": "bytes32"
        }
      ],
      "name": "getRoleAdmin",
      "outputs": [
        {
          "internalType": "bytes32",
          "name": "",
          "type": "bytes32"
        }
      ],
      "stateMutability": "view",
      "type": "function"
    },
    {
      "inputs": [
        {
          "internalType": "bytes32",
          "name": "role",
          "type": "bytes32"
        },
        {
          "internalType": "address",
          "name": "account",
          "type": "address"
        }
      ],
      "name": "grantRole",
      "outputs": [],
      "stateMutability": "nonpayable",
      "type": "function"
    },
    {
      "inputs": [
        {
          "internalType": "bytes32",
          "name": "role",
          "type": "bytes32"
        },
        {
          "internalType": "address",
          "name": "account",
          "type": "address"
        }
      ],
      "name": "hasRole",
      "outputs": [
        {
          "internalType": "bool",
          "name": "",
          "type": "bool"
        }
      ],
      "stateMutability": "view",
      "type": "function"
    },
    {
      "inputs": [
        {
          "internalType": "contract ArcNSBaseRegistrar",
          "name": "_base",
          "type": "address"
        },
        {
          "internalType": "contract IArcNSPriceOracle",
          "name": "_priceOracle",
          "type": "address"
        },
        {
          "internalType": "contract IERC20",
          "name": "_usdc",
          "type": "address"
        },
        {
          "internalType": "contract IArcNSRegistry",
          "name": "_registry",
          "type": "address"
        },
        {
          "internalType": "contract ArcNSResolverV2",
          "name": "_resolver",
          "type": "address"
        },
        {
          "internalType": "address",
          "name": "_treasury",
          "type": "address"
        },
        {
          "internalType": "address",
          "name": "_admin",
          "type": "address"
        }
      ],
      "name": "initialize",
      "outputs": [],
      "stateMutability": "nonpayable",
      "type": "function"
    },
    {
      "inputs": [
        {
          "internalType": "string",
          "name": "name_",
          "type": "string"
        },
        {
          "internalType": "address",
          "name": "owner_",
          "type": "address"
        },
        {
          "internalType": "uint256",
          "name": "duration",
          "type": "uint256"
        },
        {
          "internalType": "bytes32",
          "name": "secret",
          "type": "bytes32"
        },
        {
          "internalType": "address",
          "name": "resolverAddr",
          "type": "address"
        },
        {
          "internalType": "bytes[]",
          "name": "data",
          "type": "bytes[]"
        },
        {
          "internalType": "bool",
          "name": "reverseRecord",
          "type": "bool"
        }
      ],
      "name": "makeCommitment",
      "outputs": [
        {
          "internalType": "bytes32",
          "name": "",
          "type": "bytes32"
        }
      ],
      "stateMutability": "pure",
      "type": "function"
    },
    {
      "inputs": [
        {
          "internalType": "string",
          "name": "name_",
          "type": "string"
        },
        {
          "internalType": "address",
          "name": "owner_",
          "type": "address"
        },
        {
          "internalType": "uint256",
          "name": "duration",
          "type": "uint256"
        },
        {
          "internalType": "bytes32",
          "name": "secret",
          "type": "bytes32"
        },
        {
          "internalType": "address",
          "name": "resolverAddr",
          "type": "address"
        },
        {
          "internalType": "bytes[]",
          "name": "data",
          "type": "bytes[]"
        },
        {
          "internalType": "bool",
          "name": "reverseRecord",
          "type": "bool"
        },
        {
          "internalType": "address",
          "name": "sender",
          "type": "address"
        }
      ],
      "name": "makeCommitmentWithSender",
      "outputs": [
        {
          "internalType": "bytes32",
          "name": "",
          "type": "bytes32"
        }
      ],
      "stateMutability": "pure",
      "type": "function"
    },
    {
      "inputs": [],
      "name": "pause",
      "outputs": [],
      "stateMutability": "nonpayable",
      "type": "function"
    },
    {
      "inputs": [],
      "name": "paused",
      "outputs": [
        {
          "internalType": "bool",
          "name": "",
          "type": "bool"
        }
      ],
      "stateMutability": "view",
      "type": "function"
    },
    {
      "inputs": [],
      "name": "priceOracle",
      "outputs": [
        {
          "internalType": "contract IArcNSPriceOracle",
          "name": "",
          "type": "address"
        }
      ],
      "stateMutability": "view",
      "type": "function"
    },
    {
      "inputs": [],
      "name": "proxiableUUID",
      "outputs": [
        {
          "internalType": "bytes32",
          "name": "",
          "type": "bytes32"
        }
      ],
      "stateMutability": "view",
      "type": "function"
    },
    {
      "inputs": [
        {
          "internalType": "string",
          "name": "name_",
          "type": "string"
        },
        {
          "internalType": "address",
          "name": "owner_",
          "type": "address"
        },
        {
          "internalType": "uint256",
          "name": "duration",
          "type": "uint256"
        },
        {
          "internalType": "bytes32",
          "name": "secret",
          "type": "bytes32"
        },
        {
          "internalType": "address",
          "name": "resolverAddr",
          "type": "address"
        },
        {
          "internalType": "bytes[]",
          "name": "data",
          "type": "bytes[]"
        },
        {
          "internalType": "bool",
          "name": "reverseRecord",
          "type": "bool"
        },
        {
          "internalType": "uint256",
          "name": "maxCost",
          "type": "uint256"
        }
      ],
      "name": "register",
      "outputs": [],
      "stateMutability": "nonpayable",
      "type": "function"
    },
    {
      "inputs": [],
      "name": "registry",
      "outputs": [
        {
          "internalType": "contract IArcNSRegistry",
          "name": "",
          "type": "address"
        }
      ],
      "stateMutability": "view",
      "type": "function"
    },
    {
      "inputs": [
        {
          "internalType": "string",
          "name": "name_",
          "type": "string"
        },
        {
          "internalType": "uint256",
          "name": "duration",
          "type": "uint256"
        },
        {
          "internalType": "uint256",
          "name": "maxCost",
          "type": "uint256"
        }
      ],
      "name": "renew",
      "outputs": [],
      "stateMutability": "nonpayable",
      "type": "function"
    },
    {
      "inputs": [
        {
          "internalType": "bytes32",
          "name": "role",
          "type": "bytes32"
        },
        {
          "internalType": "address",
          "name": "callerConfirmation",
          "type": "address"
        }
      ],
      "name": "renounceRole",
      "outputs": [],
      "stateMutability": "nonpayable",
      "type": "function"
    },
    {
      "inputs": [
        {
          "internalType": "string",
          "name": "name_",
          "type": "string"
        },
        {
          "internalType": "uint256",
          "name": "duration",
          "type": "uint256"
        }
      ],
      "name": "rentPrice",
      "outputs": [
        {
          "components": [
            {
              "internalType": "uint256",
              "name": "base",
              "type": "uint256"
            },
            {
              "internalType": "uint256",
              "name": "premium",
              "type": "uint256"
            }
          ],
          "internalType": "struct IArcNSPriceOracle.Price",
          "name": "",
          "type": "tuple"
        }
      ],
      "stateMutability": "view",
      "type": "function"
    },
    {
      "inputs": [],
      "name": "resolver",
      "outputs": [
        {
          "internalType": "contract ArcNSResolverV2",
          "name": "",
          "type": "address"
        }
      ],
      "stateMutability": "view",
      "type": "function"
    },
    {
      "inputs": [
        {
          "internalType": "bytes32",
          "name": "role",
          "type": "bytes32"
        },
        {
          "internalType": "address",
          "name": "account",
          "type": "address"
        }
      ],
      "name": "revokeRole",
      "outputs": [],
      "stateMutability": "nonpayable",
      "type": "function"
    },
    {
      "inputs": [
        {
          "internalType": "address",
          "name": "resolverAddr",
          "type": "address"
        },
        {
          "internalType": "bool",
          "name": "approved",
          "type": "bool"
        }
      ],
      "name": "setApprovedResolver",
      "outputs": [],
      "stateMutability": "nonpayable",
      "type": "function"
    },
    {
      "inputs": [
        {
          "internalType": "contract IArcNSPriceOracle",
          "name": "_oracle",
          "type": "address"
        }
      ],
      "name": "setPriceOracle",
      "outputs": [],
      "stateMutability": "nonpayable",
      "type": "function"
    },
    {
      "inputs": [
        {
          "internalType": "address",
          "name": "_treasury",
          "type": "address"
        }
      ],
      "name": "setTreasury",
      "outputs": [],
      "stateMutability": "nonpayable",
      "type": "function"
    },
    {
      "inputs": [
        {
          "internalType": "bytes4",
          "name": "interfaceId",
          "type": "bytes4"
        }
      ],
      "name": "supportsInterface",
      "outputs": [
        {
          "internalType": "bool",
          "name": "",
          "type": "bool"
        }
      ],
      "stateMutability": "view",
      "type": "function"
    },
    {
      "inputs": [],
      "name": "treasury",
      "outputs": [
        {
          "internalType": "address",
          "name": "",
          "type": "address"
        }
      ],
      "stateMutability": "view",
      "type": "function"
    },
    {
      "inputs": [],
      "name": "unpause",
      "outputs": [],
      "stateMutability": "nonpayable",
      "type": "function"
    },
    {
      "inputs": [
        {
          "internalType": "address",
          "name": "newImplementation",
          "type": "address"
        },
        {
          "internalType": "bytes",
          "name": "data",
          "type": "bytes"
        }
      ],
      "name": "upgradeToAndCall",
      "outputs": [],
      "stateMutability": "payable",
      "type": "function"
    },
    {
      "inputs": [],
      "name": "usdc",
      "outputs": [
        {
          "internalType": "contract IERC20",
          "name": "",
          "type": "address"
        }
      ],
      "stateMutability": "view",
      "type": "function"
    },
    {
      "inputs": [
        {
          "internalType": "bytes32",
          "name": "",
          "type": "bytes32"
        }
      ],
      "name": "usedCommitments",
      "outputs": [
        {
          "internalType": "bool",
          "name": "",
          "type": "bool"
        }
      ],
      "stateMutability": "view",
      "type": "function"
    }
  ],
  "bytecode": "0x60a080604052346100e857306080527ff0c57e16840df040f15088dc2f81fe391c3923bec73e23a9662efc9c229c6a005460ff8160401c166100d9576002600160401b03196001600160401b03821601610073575b604051612d0190816100ed8239608051818181610c450152610d1e0152f35b6001600160401b0319166001600160401b039081177ff0c57e16840df040f15088dc2f81fe391c3923bec73e23a9662efc9c229c6a005581527fc7f505b2f371ae2175ee4913f4499e1f2633a7b5936321eed1cdaeb6115181d290602090a15f80610054565b63f92ee8a960e01b5f5260045ffd5b5f80fdfe6080806040526004361015610012575f80fd5b5f905f3560e01c90816301ffc9a714611dcb5750806304f3bcec14611da357806307e2cea514611d7c5780632178576214611d4c578063248a9ca314611d2e5780632630c12f14611d065780632e4f692a14611ceb5780632f2ff15d14611cba5780633587647614611a2357806336568abe146119dd5780633d4aa89e146118fa5780633e413bee146118d25780633f4ba83a146118545780634a0b680914610f045780634f1ef28614610cde5780635001f3b514610cb557806350cfeddd14610c9957806352d1902d14610c32578063530e784f14610b745780635c975abb14610b4557806361d027b314610b1c57806375b238fc14610ae15780637b10399914610ab85780638020d9ac14610a10578063839df945146109e657806383e7f6ff146109955780638456cb59146109225780638a95b09f146109045780638ccb9ea6146108e657806391402039146108b7578063917844cf1461087857806391d1485414610822578063a217fddf14610806578063a6100fca1461066f578063ad3cb1cc14610622578063aeb8ce9b1461053a578063b74dd231146104b7578063cd0c9ce914610410578063d547741f146103d5578063e63ab1e91461039a578063f0f4426014610321578063f14fcbc8146102215763f72c0d8b146101f7575f80fd5b3461021e578060031936011261021e5760206040515f80516020612c0c8339815191528152f35b80fd5b503461021e57602036600319011261021e5760043561023e612965565b808252600860205261025760ff60408420541615612362565b808252600760205260408220541580156102eb575b156102a65780825260076020524260408320557f561eb038a114723afa3c72b445add7b8602de546264da1e7e826af628316dbcb8280a280f35b60405162461bcd60e51b815260206004820152601d60248201527f436f6e74726f6c6c65723a20636f6d6d69746d656e74206578697374730000006044820152606490fd5b508082526007602052604082205462015180810180911161030d57421161026c565b634e487b7160e01b83526011600452602483fd5b503461021e57602036600319011261021e5761033b611e4a565b610343612429565b6001600160a01b031661035781151561202c565b600654816001600160a01b0382167f4ab5be82436d353e61ca18726e984e561f5c1cc7c6d38b29d2553c790434705a8580a36001600160a01b0319161760065580f35b503461021e578060031936011261021e5760206040517f65d7a28e3265b37a6474929f336521b332c1681b933f6cb9f3376673440d862a8152f35b503461021e57604036600319011261021e5761040c6004356103f5611e1e565b906104076104028261200e565b612498565b6128c9565b5080f35b503461021e5761010036600319011261021e576004356001600160401b0381116104b357610442903690600401611f01565b61044a611e1e565b610452611e34565b60a4356001600160401b0381116104af57610471903690600401611f93565b9161047a611fae565b60e435959094906001600160a01b038716870361021e5760206104a7888888886064356044358a8a6122dc565b604051908152f35b8480fd5b5080fd5b503461021e57604036600319011261021e576104d1611e4a565b602435908115158092036105365760207ff83a8c0afd54275f21152a22a8eada2be10781dbb0f72d691b3f7e90564dac9f9161050b612429565b6001600160a01b0316808552600982526040808620805460ff191660ff87161790555193845292a280f35b8280fd5b503461021e57602036600319011261021e576004356001600160401b0381116104b35761056b903690600401611f01565b61057b815160208301209161298c565b908161058f575b6020826040519015158152f35b6001546040516312dc929d60e31b81526004810192909252909150602090829060249082906001600160a01b03165afa9081156106175782916105d8575b50602091505f610582565b90506020813d60201161060f575b816105f360209383611e8f565b810103126104b3575180151581036104b357602091505f6105cd565b3d91506105e6565b6040513d84823e3d90fd5b503461021e578060031936011261021e575061066b604051610645604082611e8f565b60058152640352e302e360dc1b6020820152604051918291602083526020830190611fea565b0390f35b503461021e57606036600319011261021e576004356001600160401b0381116104b3576106a0903690600401611fbd565b90602435916106b36002855414156120d0565b600284556106bf612965565b6106e36106d6846106d1368587611ecb565b6121b4565b602081519101519061211c565b916106f2604435841115612129565b6003546006546107129185916001600160a01b0390811691339116612a4d565b846020610720368585611ecb565b80519082012060015460405163c475abff60e01b8152600481018390526024810198909852909692839160449183916001600160a01b03165af19081156107fb5786916107a5575b5061079b907f3da24c024582931cfaf8267d8ed24d13a82a8068d5bd337d30ec45cea4e506ae946040519485948561217f565b0390a26001815580f35b90506020813d6020116107f3575b816107c060209383611e8f565b810103126107ef57517f3da24c024582931cfaf8267d8ed24d13a82a8068d5bd337d30ec45cea4e506ae610768565b5f80fd5b3d91506107b3565b6040513d88823e3d90fd5b503461021e578060031936011261021e57602090604051908152f35b503461021e57604036600319011261021e57604061083e611e1e565b9160043581525f80516020612c6c833981519152602052209060018060a01b03165f52602052602060ff60405f2054166040519015158152f35b503461021e57602036600319011261021e5760209060ff906040906001600160a01b036108a3611e4a565b168152600984522054166040519015158152f35b503461021e57602036600319011261021e5760ff60406020926004358152600884522054166040519015158152f35b503461021e578060031936011261021e576020604051620151808152f35b503461021e578060031936011261021e5760206040516224ea008152f35b503461021e578060031936011261021e5761093b6123ba565b610943612965565b600160ff195f80516020612c8c8339815191525416175f80516020612c8c833981519152557f62e78cea01bee320cd4e420270b5ea74000d11b0c9f74754ebdbfc544b05a2586020604051338152a180f35b503461021e57604036600319011261021e57600435906001600160401b03821161021e5760406109d46109cb3660048601611f01565b602435906121b4565b60208251918051835201516020820152f35b503461021e57602036600319011261021e5760406020916004358152600783522054604051908152f35b503461021e57602036600319011261021e576004358152600760205260408120548015158080610a90575b8180610a61575b6080945060405193845260208401521515604083015215156060820152f35b9150620151808301808411610a7c5760809450421191610a42565b634e487b7160e01b85526011600452602485fd5b50603c8201808311610aa457421015610a3b565b634e487b7160e01b84526011600452602484fd5b503461021e578060031936011261021e576004546040516001600160a01b039091168152602090f35b503461021e578060031936011261021e5760206040517fa49807205ce4d355092ef5a8a18f56e8913cf4a201fbe287825b095693c217758152f35b503461021e578060031936011261021e576006546040516001600160a01b039091168152602090f35b503461021e578060031936011261021e57602060ff5f80516020612c8c83398151915254166040519015158152f35b503461021e57602036600319011261021e57610b8e611e4a565b5f80516020612c4c83398151915282525f80516020612c6c83398151915260209081526040808420335f908152925290205460ff1615610c0e57600280546001600160a01b0319166001600160a01b039290921691821790557ff261845a790fe29bbd6631e2ca4a5bdc83e6eed7c3271d9590d97287e00e91238280a280f35b63e2517d3f60e01b8252336004525f80516020612c4c833981519152602452604482fd5b503461021e578060031936011261021e577f00000000000000000000000000000000000000000000000000000000000000006001600160a01b03163003610c8a5760206040515f80516020612c2c8339815191528152f35b63703e46dd60e11b8152600490fd5b503461021e578060031936011261021e57602060405160018152f35b503461021e578060031936011261021e576001546040516001600160a01b039091168152602090f35b50604036600319011261021e57610cf3611e4a565b906024356001600160401b0381116104b357610d13903690600401611f01565b916001600160a01b037f000000000000000000000000000000000000000000000000000000000000000016308114908115610ee2575b50610ed3575f80516020612c0c83398151915282525f80516020612c6c83398151915260209081526040808420335f908152925290205460ff1615610eaf576040516352d1902d60e01b8152926001600160a01b0382169190602085600481865afa80958596610e7b575b50610dcd57634c9c8ce360e01b84526004839052602484fd5b9091845f80516020612c2c8339815191528103610e695750823b15610e57575f80516020612c2c83398151915280546001600160a01b031916821790557fbc7cd75a20ee27fd9adebab32041f755214dbc6bffa90cc0225b39da2e5c2d3b8480a2805115610e3e5761040c91612b5f565b505034610e485780f35b63b398979f60e01b8152600490fd5b634c9c8ce360e01b8452600452602483fd5b632a87526960e21b8552600452602484fd5b9095506020813d602011610ea7575b81610e9760209383611e8f565b810103126107ef5751945f610db4565b3d9150610e8a565b63e2517d3f60e01b8252336004525f80516020612c0c833981519152602452604482fd5b63703e46dd60e11b8252600482fd5b5f80516020612c2c833981519152546001600160a01b0316141590505f610d49565b50346107ef576101003660031901126107ef576004356001600160401b0381116107ef57610f36903690600401611fbd565b610f3e611e1e565b9060443590610f4b611e34565b9260a435936001600160401b0385116107ef57366023860112156107ef5784600401356001600160401b0381116107ef576024860195602436918360051b0101116107ef57610f98611fae565b610fa660025f5414156120d0565b60025f55610fb2612965565b610fdc610fc036878b611ecb565b82339186610fd08c883691611f1f565b918b8a606435926122dc565b604051428152817f69077360ea16e5ce4379218963ec7fdd36fa543531ddfc6102ffb76886d77b4e60203393a3805f52600860205261102260ff60405f20541615612362565b805f52600760205260405f20541561181057805f52600760205260405f2054603c81018082116117b85742106117cc576201518081018091116117b857421161177357805f52600860205260405f20600160ff198254161790555f5260076020525f604081205561109c61109736878b611ecb565b61298c565b1561172e576224ea0086106116e9576001600160a01b038316918215159081611686575b6110d26106d6896106d1368b8f611ecb565b946110e160e435871115612129565b6003546006546111019188916001600160a01b0390811691339116612a4d565b61110c36898d611ecb565b602081519101209960018060a01b0360015416604051630ddf7fcb60e41b8152602081600481855afa90811561158a575f91611654575b50604051602081019182528d604082015260408152611163606082611e8f565b5190209085156115c75750600154604051631ef5ace960e21b8152600481018e90526001600160a01b038b811660248301819052604483019e909e52606482018a9052909182918291165a925f608492602095f190811561158a575f91611595575b509a873b156107ef576040519062d5fa2b60e81b825282600483015260248201525f81604481838c5af1801561158a57611569575b50908392918e979695946113fd575b505050505b816113f5575b50611261575b50507fca6abbe9d7f11422cb6ca7629fbf6fe9efb1c621f71ce8f02b9f2a230097404f936112579160405194859460018060a01b0316988561217f565b0390a36001815580f35b61126c36868a611ecb565b6001546040516316aa8a1960e11b8152919291908490829060049082906001600160a01b03165afa9081156113ea57849161135e575b50600160209384806112eb946040519784899551918291018487015e840190601760f91b83830152805192839101602183015e010186838201520301601f198101845283611e8f565b803b1561053657604051637a806d6b60e01b81526001600160a01b0386166004820181905260248201526044810182905260806064820152918391839182908490829061133c906084830190611fea565b03925af11561121a578161134f91611e8f565b61135a57865f61121a565b8680fd5b90503d8085833e61136f8183611e8f565b8101906020818303126104af578051906001600160401b0382116113e657019080601f830112156104af578151936113a685611eb0565b916113b46040519384611e8f565b858352602086850101116113e657602080600193888289819a826112eb9a018386015e830101529450505093506112a2565b8580fd5b6040513d86823e3d90fd5b90505f611214565b875b84811061140c5750611209565b9091929394959697506024611422828786612adf565b905010611524578e611435828786612adf565b6004116104b357611447838887612adf565b91826024116115205783926114916020859460405193849160048484019788378b60248401526024602319830191016044840137810186838201520301601f198101835282611e8f565b519082895af1903d1561151a573d906114a982611eb0565b916114b76040519384611e8f565b825260203d92013e5b156114d657600101908e979695949392916113ff565b606460405162461bcd60e51b815260206004820152602060248201527f436f6e74726f6c6c65723a207265736f6c7665722063616c6c206661696c65646044820152fd5b506114c0565b8380fd5b60405162461bcd60e51b815260206004820152601f60248201527f436f6e74726f6c6c65723a20696e76616c6964207265636f72642064617461006044820152606490fd5b61157c919796959493929e505f90611e8f565b5f9c9091929394955f6111fa565b6040513d5f823e3d90fd5b90506020813d6020116115bf575b816115b060209383611e8f565b810103126107ef57515f6111c5565b3d91506115a3565b604051633f2891eb60e21b8152600481018e90526001600160a01b038b166024820152604481019c909c52949a96959460209450879350606492508391505f905af1801561158a578a935f9161161f575b509661120e565b9350506020833d60201161164c575b8161163b60209383611e8f565b810103126107ef578992515f611618565b3d915061162e565b90506020813d60201161167e575b8161166f60209383611e8f565b810103126107ef57515f611143565b3d9150611662565b835f52600960205260ff60405f2054166110c05760405162461bcd60e51b815260206004820152602160248201527f436f6e74726f6c6c65723a207265736f6c766572206e6f7420617070726f76656044820152601960fa1b6064820152608490fd5b60405162461bcd60e51b815260206004820152601e60248201527f436f6e74726f6c6c65723a206475726174696f6e20746f6f2073686f727400006044820152606490fd5b60405162461bcd60e51b815260206004820152601860248201527f436f6e74726f6c6c65723a20696e76616c6964206e616d6500000000000000006044820152606490fd5b60405162461bcd60e51b815260206004820152601e60248201527f436f6e74726f6c6c65723a20636f6d6d69746d656e74206578706972656400006044820152606490fd5b634e487b7160e01b5f52601160045260245ffd5b606460405162461bcd60e51b815260206004820152602060248201527f436f6e74726f6c6c65723a20636f6d6d69746d656e7420746f6f20796f756e676044820152fd5b606460405162461bcd60e51b815260206004820152602060248201527f436f6e74726f6c6c65723a20636f6d6d69746d656e74206e6f7420666f756e646044820152fd5b346107ef575f3660031901126107ef5761186c6123ba565b5f80516020612c8c8339815191525460ff8116156118c35760ff19165f80516020612c8c833981519152557f5db9ee0a495bf2e6ff9c91a7834c1ba4fdd244a5e8aa4e537bd38aeae4b073aa6020604051338152a1005b638dfc202b60e01b5f5260045ffd5b346107ef575f3660031901126107ef576003546040516001600160a01b039091168152602090f35b346107ef5760e03660031901126107ef576004356001600160401b0381116107ef5761192a903690600401611f01565b611932611e1e565b9061193b611e34565b60a4356001600160401b0381116107ef576020936119606119d2923690600401611f93565b936119bc61196c611fae565b918781519101209560405195869489860198895260018060a01b031660408601526044356060860152606435608086015260018060a01b031660a085015260e060c0850152610100840190612078565b90151560e083015203601f198101835282611e8f565b519020604051908152f35b346107ef5760403660031901126107ef576119f6611e1e565b336001600160a01b03821603611a1457611a12906004356128c9565b005b63334bd91960e11b5f5260045ffd5b346107ef5760e03660031901126107ef576004356001600160a01b038116908190036107ef57611a51611e1e565b6044356001600160a01b03811691908290036107ef576064356001600160a01b03811692908390036107ef576084356001600160a01b03811693908490036107ef5760a4356001600160a01b03811691908290036107ef5760c435926001600160a01b03841684036107ef575f80516020612cac833981519152549460ff8660401c1615976001600160401b03871680159081611cb2575b6001149081611ca8575b159081611c9f575b50611c905767ffffffffffffffff1987166001175f80516020612cac83398151915255611bf09689611c64575b50611b31612b34565b611b39612b34565b611b4485151561202c565b6001600160601b0360a01b600154161760015560018060a01b03166001600160601b0360a01b60025416176002556001600160601b0360a01b60035416176003556001600160601b0360a01b6004541617600455836001600160601b0360a01b60055416176005556001600160601b0360a01b600654161760065560015f55611bcc816124de565b50611bd68161257a565b50611be081612633565b50611bea816126ec565b50612792565b505f52600960205260405f20600160ff19825416179055611c0d57005b68ff0000000000000000195f80516020612cac83398151915254165f80516020612cac833981519152557fc7f505b2f371ae2175ee4913f4499e1f2633a7b5936321eed1cdaeb6115181d2602060405160018152a1005b68ffffffffffffffffff191668010000000000000001175f80516020612cac8339815191525589611b28565b63f92ee8a960e01b5f5260045ffd5b9050158a611afb565b303b159150611af3565b8a9150611ae9565b346107ef5760403660031901126107ef57611a12600435611cd9611e1e565b90611ce66104028261200e565b612838565b346107ef575f3660031901126107ef576020604051603c8152f35b346107ef575f3660031901126107ef576002546040516001600160a01b039091168152602090f35b346107ef5760203660031901126107ef5760206104a760043561200e565b346107ef5760203660031901126107ef576004355f5260076020526040805f205481519080825215156020820152f35b346107ef575f3660031901126107ef5760206040515f80516020612c4c8339815191528152f35b346107ef575f3660031901126107ef576005546040516001600160a01b039091168152602090f35b346107ef5760203660031901126107ef576004359063ffffffff60e01b82168092036107ef57602091637965db0b60e01b8114908115611e0d575b5015158152f35b6301ffc9a760e01b14905083611e06565b602435906001600160a01b03821682036107ef57565b608435906001600160a01b03821682036107ef57565b600435906001600160a01b03821682036107ef57565b604081019081106001600160401b03821117611e7b57604052565b634e487b7160e01b5f52604160045260245ffd5b90601f801991011681019081106001600160401b03821117611e7b57604052565b6001600160401b038111611e7b57601f01601f191660200190565b929192611ed782611eb0565b91611ee56040519384611e8f565b8294818452818301116107ef578281602093845f960137010152565b9080601f830112156107ef57816020611f1c93359101611ecb565b90565b929190926001600160401b038411611e7b578360051b906020604051611f4782850182611e8f565b8096815201918101918383116107ef5781905b838210611f68575050505050565b81356001600160401b0381116107ef57602091611f888784938701611f01565b815201910190611f5a565b9080601f830112156107ef57816020611f1c93359101611f1f565b60c4359081151582036107ef57565b9181601f840112156107ef578235916001600160401b0383116107ef57602083818601950101116107ef57565b805180835260209291819084018484015e5f828201840152601f01601f1916010190565b5f525f80516020612c6c833981519152602052600160405f20015490565b1561203357565b60405162461bcd60e51b815260206004820152601960248201527f436f6e74726f6c6c65723a207a65726f207472656173757279000000000000006044820152606490fd5b9080602083519182815201916020808360051b8301019401925f915b8383106120a357505050505090565b90919293946020806120c1600193601f198682030187528951611fea565b97019301930191939290612094565b156120d757565b60405162461bcd60e51b815260206004820152601a60248201527f436f6e74726f6c6c65723a207265656e7472616e742063616c6c0000000000006044820152606490fd5b919082018092116117b857565b1561213057565b60405162461bcd60e51b815260206004820152602160248201527f436f6e74726f6c6c65723a2070726963652065786365656473206d6178436f736044820152601d60fa1b6064820152608490fd5b90826040936080929796959760608552816060860152838501375f828285010152601f80199101168201019460208201520152565b905f60206040516121c481611e60565b8281520152815160208301209060018060a01b0360025416602060018060a01b036001541693602460405180968193636b727d4360e11b835260048301525afa92831561158a575f936122a6575b5061223e604093948451958694859384936350e9a71560e01b8552606060048601526064850190611fea565b916024840152604483015203915afa90811561158a575f9161225e575090565b90506040813d60401161229e575b8161227960409383611e8f565b810103126107ef5760206040519161229083611e60565b805183520151602082015290565b3d915061226c565b92506020833d6020116122d4575b816122c160209383611e8f565b810103126107ef5791519161223e612212565b3d91506122b4565b8051602091820120604080519283019182526001600160a01b03938416908301526060820193909352608081019390935290921660a082015261010060c08201529093909261235c9284929061233790610120850190612078565b91151560e08401526001600160a01b031661010083015203601f198101835282611e8f565b51902090565b1561236957565b60405162461bcd60e51b815260206004820152602360248201527f436f6e74726f6c6c65723a20636f6d6d69746d656e7420616c726561647920756044820152621cd95960ea1b6064820152608490fd5b335f9081527f75442b0a96088b5456bc4ed01394c96a4feec0f883c9494257d76b96ab1c9b6b602052604090205460ff16156123f257565b63e2517d3f60e01b5f52336004527f65d7a28e3265b37a6474929f336521b332c1681b933f6cb9f3376673440d862a60245260445ffd5b335f9081527fb16e88c42fd4e48df2dd6a2eabd6bc9aec654ec170056b470819f8892cc6431c602052604090205460ff161561246157565b63e2517d3f60e01b5f52336004527fa49807205ce4d355092ef5a8a18f56e8913cf4a201fbe287825b095693c2177560245260445ffd5b5f8181525f80516020612c6c8339815191526020908152604080832033845290915290205460ff16156124c85750565b63e2517d3f60e01b5f523360045260245260445ffd5b6001600160a01b0381165f9081527fb7db2dd08fcb62d0c9e08c51941cae53c267786a0b75803fb7960902fc8ef97d602052604090205460ff16612575576001600160a01b03165f8181527fb7db2dd08fcb62d0c9e08c51941cae53c267786a0b75803fb7960902fc8ef97d60205260408120805460ff191660011790553391905f80516020612bec8339815191528180a4600190565b505f90565b6001600160a01b0381165f9081527fb16e88c42fd4e48df2dd6a2eabd6bc9aec654ec170056b470819f8892cc6431c602052604090205460ff16612575576001600160a01b03165f8181527fb16e88c42fd4e48df2dd6a2eabd6bc9aec654ec170056b470819f8892cc6431c60205260408120805460ff191660011790553391907fa49807205ce4d355092ef5a8a18f56e8913cf4a201fbe287825b095693c21775905f80516020612bec8339815191529080a4600190565b6001600160a01b0381165f9081527f75442b0a96088b5456bc4ed01394c96a4feec0f883c9494257d76b96ab1c9b6b602052604090205460ff16612575576001600160a01b03165f8181527f75442b0a96088b5456bc4ed01394c96a4feec0f883c9494257d76b96ab1c9b6b60205260408120805460ff191660011790553391907f65d7a28e3265b37a6474929f336521b332c1681b933f6cb9f3376673440d862a905f80516020612bec8339815191529080a4600190565b6001600160a01b0381165f9081527f0b45fb0a7d123af421db170fce034e3ce3a70e5f1150428004face1400c458f2602052604090205460ff16612575576001600160a01b03165f8181527f0b45fb0a7d123af421db170fce034e3ce3a70e5f1150428004face1400c458f260205260408120805460ff191660011790553391905f80516020612c4c833981519152905f80516020612bec8339815191529080a4600190565b6001600160a01b0381165f9081527fab71e3f32666744d246edff3f96e4bdafee2e9867098cdd118a979a7464786a8602052604090205460ff16612575576001600160a01b03165f8181527fab71e3f32666744d246edff3f96e4bdafee2e9867098cdd118a979a7464786a860205260408120805460ff191660011790553391905f80516020612c0c833981519152905f80516020612bec8339815191529080a4600190565b5f8181525f80516020612c6c833981519152602090815260408083206001600160a01b038616845290915290205460ff166128c3575f8181525f80516020612c6c833981519152602090815260408083206001600160a01b0395909516808452949091528120805460ff19166001179055339291905f80516020612bec8339815191529080a4600190565b50505f90565b5f8181525f80516020612c6c833981519152602090815260408083206001600160a01b038616845290915290205460ff16156128c3575f8181525f80516020612c6c833981519152602090815260408083206001600160a01b0395909516808452949091528120805460ff19169055339291907ff6391f5c32d9c69d2a47ea670b442974b53935d1edc7fd64eb21e047a839171b9080a4600190565b60ff5f80516020612c8c833981519152541661297d57565b63d93c066560e01b5f5260045ffd5b6001815110612575575f5b8151811015612a4657818101602001516001600160f81b031916606160f81b81101580612a38575b8015612a1b575b8015612a0e575b15612a0757602d60f81b14806129ea575b6128c357600101612997565b508015806129de575081515f1981019081116117b85781146129de565b5050505f90565b50602d60f81b81146129cd565b50600360fc1b81108015906129c65750603960f81b8111156129c6565b50603d60f91b8111156129bf565b5050600190565b6040516323b872dd60e01b5f9081526001600160a01b039384166004529290931660245260449390935260209060648180865af19060015f5114821615612abe575b6040525f60605215612a9e5750565b635274afe760e01b5f9081526001600160a01b0391909116600452602490fd5b906001811516612ad657823b15153d15161690612a8f565b503d5f823e3d90fd5b9190811015612b205760051b81013590601e19813603018212156107ef5701908135916001600160401b0383116107ef5760200182360381136107ef579190565b634e487b7160e01b5f52603260045260245ffd5b60ff5f80516020612cac8339815191525460401c1615612b5057565b631afcd79f60e31b5f5260045ffd5b905f8091602081519101845af48080612bd8575b15612b935750506040513d81523d5f602083013e60203d82010160405290565b15612bb857639996b31560e01b5f9081526001600160a01b0391909116600452602490fd5b3d15612bc9576040513d5f823e3d90fd5b63d6bda27560e01b5f5260045ffd5b503d151580612b735750813b1515612b7356fe2f8788117e7eff1d82e926ec794901d17c78024a50270940304540a733656f0d189ab7a9244df0848122154315af71fe140f3db0fe014031783b0946b8c9d2e3360894a13ba1a3210667c828492db98dca3e2076cc3735a920a3ca505d382bbc68e79a7bf1e0bc45d0a330c573bc367f9cf464fd326078812f301165fbda4ef102dd7bc7dec4dceedda775e58dd541e08a116c6c53815c0bd028192f7b626800cd5ed15c6e187e77e9aee88184c21f4f2182ab5827cb3b7e07fbedcd63f03300f0c57e16840df040f15088dc2f81fe391c3923bec73e23a9662efc9c229c6a00a2646970667358221220c8a5f6a2977d6d48839f4ebddee12c96ec1f937b65f3019610d411273988e8dc64736f6c634300081a0033",
  "linkReferences": {},
  "deployedLinkReferences": {}
}