{
  "_format": "hh-sol-artifact-1",
  "contractName": "ArcNSRegistrarControllerV2",
  "sourceName": "contracts/proxy/ArcNSRegistrarControllerV2.sol",
  "abi": [
    {
      "inputs": [],
      "stateMutability": "nonpayable",
      "type": "constructor"
    },
    {
      "inputs": [],
      "name": "AccessControlBadConfirmation",
      "type": "error"
    },
    {
      "inputs": [
        {
          "internalType": "address",
          "name": "account",
          "type": "address"
        },
        {
          "internalType": "bytes32",
          "name": "neededRole",
          "type": "bytes32"
        }
      ],
      "name": "AccessControlUnauthorizedAccount",
      "type": "error"
    },
    {
      "inputs": [
        {
          "internalType": "address",
          "name": "target",
          "type": "address"
        }
      ],
      "name": "AddressEmptyCode",
      "type": "error"
    },
    {
      "inputs": [
        {
          "internalType": "address",
          "name": "implementation",
          "type": "address"
        }
      ],
      "name": "ERC1967InvalidImplementation",
      "type": "error"
    },
    {
      "inputs": [],
      "name": "ERC1967NonPayable",
      "type": "error"
    },
    {
      "inputs": [],
      "name": "EnforcedPause",
      "type": "error"
    },
    {
      "inputs": [],
      "name": "ExpectedPause",
      "type": "error"
    },
    {
      "inputs": [],
      "name": "FailedCall",
      "type": "error"
    },
    {
      "inputs": [],
      "name": "InvalidInitialization",
      "type": "error"
    },
    {
      "inputs": [],
      "name": "NotInitializing",
      "type": "error"
    },
    {
      "inputs": [
        {
          "internalType": "address",
          "name": "token",
          "type": "address"
        }
      ],
      "name": "SafeERC20FailedOperation",
      "type": "error"
    },
    {
      "inputs": [],
      "name": "UUPSUnauthorizedCallContext",
      "type": "error"
    },
    {
      "inputs": [
        {
          "internalType": "bytes32",
          "name": "slot",
          "type": "bytes32"
        }
      ],
      "name": "UUPSUnsupportedProxiableUUID",
      "type": "error"
    },
    {
      "anonymous": false,
      "inputs": [
        {
          "indexed": true,
          "internalType": "bytes32",
          "name": "commitment",
          "type": "bytes32"
        }
      ],
      "name": "CommitmentMade",
      "type": "event"
    },
    {
      "anonymous": false,
      "inputs": [
        {
          "indexed": false,
          "internalType": "uint64",
          "name": "version",
          "type": "uint64"
        }
      ],
      "name": "Initialized",
      "type": "event"
    },
    {
      "anonymous": false,
      "inputs": [
        {
          "indexed": false,
          "internalType": "string",
          "name": "name",
          "type": "string"
        },
        {
          "indexed": true,
          "internalType": "bytes32",
          "name": "label",
          "type": "bytes32"
        },
        {
          "indexed": true,
          "internalType": "address",
          "name": "owner",
          "type": "address"
        },
        {
          "indexed": false,
          "internalType": "uint256",
          "name": "cost",
          "type": "uint256"
        },
        {
          "indexed": false,
          "internalType": "uint256",
          "name": "expires",
          "type": "uint256"
        }
      ],
      "name": "NameRegistered",
      "type": "event"
    },
    {
      "anonymous": false,
      "inputs": [
        {
          "indexed": false,
          "internalType": "string",
          "name": "name",
          "type": "string"
        },
        {
          "indexed": true,
          "internalType": "bytes32",
          "name": "label",
          "type": "bytes32"
        },
        {
          "indexed": false,
          "internalType": "uint256",
          "name": "cost",
          "type": "uint256"
        },
        {
          "indexed": false,
          "internalType": "uint256",
          "name": "expires",
          "type": "uint256"
        }
      ],
      "name": "NameRenewed",
      "type": "event"
    },
    {
      "anonymous": false,
      "inputs": [
        {
          "indexed": true,
          "internalType": "address",
          "name": "oracle",
          "type": "address"
        }
      ],
      "name": "NewPriceOracle",
      "type": "event"
    },
    {
      "anonymous": false,
      "inputs": [
        {
          "indexed": false,
          "internalType": "address",
          "name": "account",
          "type": "address"
        }
      ],
      "name": "Paused",
      "type": "event"
    },
    {
      "anonymous": false,
      "inputs": [
        {
          "indexed": true,
          "internalType": "address",
          "name": "resolver",
          "type": "address"
        },
        {
          "indexed": false,
          "internalType": "bool",
          "name": "approved",
          "type": "bool"
        }
      ],
      "name": "ResolverApproved",
      "type": "event"
    },
    {
      "anonymous": false,
      "inputs": [
        {
          "indexed": true,
          "internalType": "bytes32",
          "name": "role",
          "type": "bytes32"
        },
        {
          "indexed": true,
          "internalType": "bytes32",
          "name": "previousAdminRole",
          "type": "bytes32"
        },
        {
          "indexed": true,
          "internalType": "bytes32",
          "name": "newAdminRole",
          "type": "bytes32"
        }
      ],
      "name": "RoleAdminChanged",
      "type": "event"
    },
    {
      "anonymous": false,
      "inputs": [
        {
          "indexed": true,
          "internalType": "bytes32",
          "name": "role",
          "type": "bytes32"
        },
        {
          "indexed": true,
          "internalType": "address",
          "name": "account",
          "type": "address"
        },
        {
          "indexed": true,
          "internalType": "address",
          "name": "sender",
          "type": "address"
        }
      ],
      "name": "RoleGranted",
      "type": "event"
    },
    {
      "anonymous": false,
      "inputs": [
        {
          "indexed": true,
          "internalType": "bytes32",
          "name": "role",
          "type": "bytes32"
        },
        {
          "indexed": true,
          "internalType": "address",
          "name": "account",
          "type": "address"
        },
        {
          "indexed": true,
          "internalType": "address",
          "name": "sender",
          "type": "address"
        }
      ],
      "name": "RoleRevoked",
      "type": "event"
    },
    {
      "anonymous": false,
      "inputs": [
        {
          "indexed": true,
          "internalType": "address",
          "name": "oldTreasury",
          "type": "address"
        },
        {
          "indexed": true,
          "internalType": "address",
          "name": "newTreasury",
          "type": "address"
        }
      ],
      "name": "TreasuryUpdated",
      "type": "event"
    },
    {
      "anonymous": false,
      "inputs": [
        {
          "indexed": false,
          "internalType": "address",
          "name": "account",
          "type": "address"
        }
      ],
      "name": "Unpaused",
      "type": "event"
    },
    {
      "anonymous": false,
      "inputs": [
        {
          "indexed": true,
          "internalType": "address",
          "name": "implementation",
          "type": "address"
        }
      ],
      "name": "Upgraded",
      "type": "event"
    },
    {
      "inputs": [],
      "name": "ADMIN_ROLE",
      "outputs": [
        {
          "internalType": "bytes32",
          "name": "",
          "type": "bytes32"
        }
      ],
      "stateMutability": "view",
      "type": "function"
    },
    {
      "inputs": [],
      "name": "DEFAULT_ADMIN_ROLE",
      "outputs": [
        {
          "internalType": "bytes32",
          "name": "",
          "type": "bytes32"
        }
      ],
      "stateMutability": "view",
      "type": "function"
    },
    {
      "inputs": [],
      "name": "MAX_COMMITMENT_AGE",
      "outputs": [
        {
          "internalType": "uint256",
          "name": "",
          "type": "uint256"
        }
      ],
      "stateMutability": "view",
      "type": "function"
    },
    {
      "inputs": [],
      "name": "MIN_COMMITMENT_AGE",
      "outputs": [
        {
          "internalType": "uint256",
          "name": "",
          "type": "uint256"
        }
      ],
      "stateMutability": "view",
      "type": "function"
    },
    {
      "inputs": [],
      "name": "MIN_NAME_LENGTH",
      "outputs": [
        {
          "internalType": "uint256",
          "name": "",
          "type": "uint256"
        }
      ],
      "stateMutability": "view",
      "type": "function"
    },
    {
      "inputs": [],
      "name": "MIN_REGISTRATION_DURATION",
      "outputs": [
        {
          "internalType": "uint256",
          "name": "",
          "type": "uint256"
        }
      ],
      "stateMutability": "view",
      "type": "function"
    },
    {
      "inputs": [],
      "name": "ORACLE_ROLE",
      "outputs": [
        {
          "internalType": "bytes32",
          "name": "",
          "type": "bytes32"
        }
      ],
      "stateMutability": "view",
      "type": "function"
    },
    {
      "inputs": [],
      "name": "PAUSER_ROLE",
      "outputs": [
        {
          "internalType": "bytes32",
          "name": "",
          "type": "bytes32"
        }
      ],
      "stateMutability": "view",
      "type": "function"
    },
    {
      "inputs": [],
      "name": "UPGRADER_ROLE",
      "outputs": [
        {
          "internalType": "bytes32",
          "name": "",
          "type": "bytes32"
        }
      ],
      "stateMutability": "view",
      "type": "function"
    },
    {
      "inputs": [],
      "name": "UPGRADE_INTERFACE_VERSION",
      "outputs": [
        {
          "internalType": "string",
          "name": "",
          "type": "string"
        }
      ],
      "stateMutability": "view",
      "type": "function"
    },
    {
      "inputs": [
        {
          "internalType": "address",
          "name": "",
          "type": "address"
        }
      ],
      "name": "approvedResolvers",
      "outputs": [
        {
          "internalType": "bool",
          "name": "",
          "type": "bool"
        }
      ],
      "stateMutability": "view",
      "type": "function"
    },
    {
      "inputs": [
        {
          "internalType": "string",
          "name": "name_",
          "type": "string"
        }
      ],
      "name": "available",
      "outputs": [
        {
          "internalType": "bool",
          "name": "",
          "type": "bool"
        }
      ],
      "stateMutability": "view",
      "type": "function"
    },
    {
      "inputs": [],
      "name": "base",
      "outputs": [
        {
          "internalType": "contract ArcNSBaseRegistrar",
          "name": "",
          "type": "address"
        }
      ],
      "stateMutability": "view",
      "type": "function"
    },
    {
      "inputs": [
        {
          "internalType": "bytes32",
          "name": "commitment",
          "type": "bytes32"
        }
      ],
      "name": "commit",
      "outputs": [],
      "stateMutability": "nonpayable",
      "type": "function"
    },
    {
      "inputs": [
        {
          "internalType": "bytes32",
          "name": "",
          "type": "bytes32"
        }
      ],
      "name": "commitments",
      "outputs": [
        {
          "internalType": "uint256",
          "name": "",
          "type": "uint256"
        }
      ],
      "stateMutability": "view",
      "type": "function"
    },
    {
      "inputs": [
        {
          "internalType": "bytes32",
          "name": "role",
          "type": "bytes32"
        }
      ],
      "name": "getRoleAdmin",
      "outputs": [
        {
          "internalType": "bytes32",
          "name": "",
          "type": "bytes32"
        }
      ],
      "stateMutability": "view",
      "type": "function"
    },
    {
      "inputs": [
        {
          "internalType": "bytes32",
          "name": "role",
          "type": "bytes32"
        },
        {
          "internalType": "address",
          "name": "account",
          "type": "address"
        }
      ],
      "name": "grantRole",
      "outputs": [],
      "stateMutability": "nonpayable",
      "type": "function"
    },
    {
      "inputs": [
        {
          "internalType": "bytes32",
          "name": "role",
          "type": "bytes32"
        },
        {
          "internalType": "address",
          "name": "account",
          "type": "address"
        }
      ],
      "name": "hasRole",
      "outputs": [
        {
          "internalType": "bool",
          "name": "",
          "type": "bool"
        }
      ],
      "stateMutability": "view",
      "type": "function"
    },
    {
      "inputs": [
        {
          "internalType": "contract ArcNSBaseRegistrar",
          "name": "_base",
          "type": "address"
        },
        {
          "internalType": "contract IArcNSPriceOracle",
          "name": "_priceOracle",
          "type": "address"
        },
        {
          "internalType": "contract IERC20",
          "name": "_usdc",
          "type": "address"
        },
        {
          "internalType": "contract IArcNSRegistry",
          "name": "_registry",
          "type": "address"
        },
        {
          "internalType": "contract ArcNSResolverV2",
          "name": "_resolver",
          "type": "address"
        },
        {
          "internalType": "address",
          "name": "_treasury",
          "type": "address"
        },
        {
          "internalType": "address",
          "name": "_admin",
          "type": "address"
        }
      ],
      "name": "initialize",
      "outputs": [],
      "stateMutability": "nonpayable",
      "type": "function"
    },
    {
      "inputs": [
        {
          "internalType": "string",
          "name": "name_",
          "type": "string"
        },
        {
          "internalType": "address",
          "name": "owner_",
          "type": "address"
        },
        {
          "internalType": "uint256",
          "name": "duration",
          "type": "uint256"
        },
        {
          "internalType": "bytes32",
          "name": "secret",
          "type": "bytes32"
        },
        {
          "internalType": "address",
          "name": "resolverAddr",
          "type": "address"
        },
        {
          "internalType": "bytes[]",
          "name": "data",
          "type": "bytes[]"
        },
        {
          "internalType": "bool",
          "name": "reverseRecord",
          "type": "bool"
        }
      ],
      "name": "makeCommitment",
      "outputs": [
        {
          "internalType": "bytes32",
          "name": "",
          "type": "bytes32"
        }
      ],
      "stateMutability": "pure",
      "type": "function"
    },
    {
      "inputs": [],
      "name": "pause",
      "outputs": [],
      "stateMutability": "nonpayable",
      "type": "function"
    },
    {
      "inputs": [],
      "name": "paused",
      "outputs": [
        {
          "internalType": "bool",
          "name": "",
          "type": "bool"
        }
      ],
      "stateMutability": "view",
      "type": "function"
    },
    {
      "inputs": [],
      "name": "priceOracle",
      "outputs": [
        {
          "internalType": "contract IArcNSPriceOracle",
          "name": "",
          "type": "address"
        }
      ],
      "stateMutability": "view",
      "type": "function"
    },
    {
      "inputs": [],
      "name": "proxiableUUID",
      "outputs": [
        {
          "internalType": "bytes32",
          "name": "",
          "type": "bytes32"
        }
      ],
      "stateMutability": "view",
      "type": "function"
    },
    {
      "inputs": [
        {
          "internalType": "string",
          "name": "name_",
          "type": "string"
        },
        {
          "internalType": "address",
          "name": "owner_",
          "type": "address"
        },
        {
          "internalType": "uint256",
          "name": "duration",
          "type": "uint256"
        },
        {
          "internalType": "bytes32",
          "name": "secret",
          "type": "bytes32"
        },
        {
          "internalType": "address",
          "name": "resolverAddr",
          "type": "address"
        },
        {
          "internalType": "bytes[]",
          "name": "data",
          "type": "bytes[]"
        },
        {
          "internalType": "bool",
          "name": "reverseRecord",
          "type": "bool"
        },
        {
          "internalType": "uint256",
          "name": "maxCost",
          "type": "uint256"
        }
      ],
      "name": "register",
      "outputs": [],
      "stateMutability": "nonpayable",
      "type": "function"
    },
    {
      "inputs": [],
      "name": "registry",
      "outputs": [
        {
          "internalType": "contract IArcNSRegistry",
          "name": "",
          "type": "address"
        }
      ],
      "stateMutability": "view",
      "type": "function"
    },
    {
      "inputs": [
        {
          "internalType": "string",
          "name": "name_",
          "type": "string"
        },
        {
          "internalType": "uint256",
          "name": "duration",
          "type": "uint256"
        },
        {
          "internalType": "uint256",
          "name": "maxCost",
          "type": "uint256"
        }
      ],
      "name": "renew",
      "outputs": [],
      "stateMutability": "nonpayable",
      "type": "function"
    },
    {
      "inputs": [
        {
          "internalType": "bytes32",
          "name": "role",
          "type": "bytes32"
        },
        {
          "internalType": "address",
          "name": "callerConfirmation",
          "type": "address"
        }
      ],
      "name": "renounceRole",
      "outputs": [],
      "stateMutability": "nonpayable",
      "type": "function"
    },
    {
      "inputs": [
        {
          "internalType": "string",
          "name": "name_",
          "type": "string"
        },
        {
          "internalType": "uint256",
          "name": "duration",
          "type": "uint256"
        }
      ],
      "name": "rentPrice",
      "outputs": [
        {
          "components": [
            {
              "internalType": "uint256",
              "name": "base",
              "type": "uint256"
            },
            {
              "internalType": "uint256",
              "name": "premium",
              "type": "uint256"
            }
          ],
          "internalType": "struct IArcNSPriceOracle.Price",
          "name": "",
          "type": "tuple"
        }
      ],
      "stateMutability": "view",
      "type": "function"
    },
    {
      "inputs": [],
      "name": "resolver",
      "outputs": [
        {
          "internalType": "contract ArcNSResolverV2",
          "name": "",
          "type": "address"
        }
      ],
      "stateMutability": "view",
      "type": "function"
    },
    {
      "inputs": [
        {
          "internalType": "bytes32",
          "name": "role",
          "type": "bytes32"
        },
        {
          "internalType": "address",
          "name": "account",
          "type": "address"
        }
      ],
      "name": "revokeRole",
      "outputs": [],
      "stateMutability": "nonpayable",
      "type": "function"
    },
    {
      "inputs": [
        {
          "internalType": "address",
          "name": "resolverAddr",
          "type": "address"
        },
        {
          "internalType": "bool",
          "name": "approved",
          "type": "bool"
        }
      ],
      "name": "setApprovedResolver",
      "outputs": [],
      "stateMutability": "nonpayable",
      "type": "function"
    },
    {
      "inputs": [
        {
          "internalType": "contract IArcNSPriceOracle",
          "name": "_oracle",
          "type": "address"
        }
      ],
      "name": "setPriceOracle",
      "outputs": [],
      "stateMutability": "nonpayable",
      "type": "function"
    },
    {
      "inputs": [
        {
          "internalType": "address",
          "name": "_treasury",
          "type": "address"
        }
      ],
      "name": "setTreasury",
      "outputs": [],
      "stateMutability": "nonpayable",
      "type": "function"
    },
    {
      "inputs": [
        {
          "internalType": "bytes4",
          "name": "interfaceId",
          "type": "bytes4"
        }
      ],
      "name": "supportsInterface",
      "outputs": [
        {
          "internalType": "bool",
          "name": "",
          "type": "bool"
        }
      ],
      "stateMutability": "view",
      "type": "function"
    },
    {
      "inputs": [],
      "name": "treasury",
      "outputs": [
        {
          "internalType": "address",
          "name": "",
          "type": "address"
        }
      ],
      "stateMutability": "view",
      "type": "function"
    },
    {
      "inputs": [],
      "name": "unpause",
      "outputs": [],
      "stateMutability": "nonpayable",
      "type": "function"
    },
    {
      "inputs": [
        {
          "internalType": "address",
          "name": "newImplementation",
          "type": "address"
        },
        {
          "internalType": "bytes",
          "name": "data",
          "type": "bytes"
        }
      ],
      "name": "upgradeToAndCall",
      "outputs": [],
      "stateMutability": "payable",
      "type": "function"
    },
    {
      "inputs": [],
      "name": "usdc",
      "outputs": [
        {
          "internalType": "contract IERC20",
          "name": "",
          "type": "address"
        }
      ],
      "stateMutability": "view",
      "type": "function"
    },
    {
      "inputs": [
        {
          "internalType": "bytes32",
          "name": "",
          "type": "bytes32"
        }
      ],
      "name": "usedCommitments",
      "outputs": [
        {
          "internalType": "bool",
          "name": "",
          "type": "bool"
        }
      ],
      "stateMutability": "view",
      "type": "function"
    }
  ],
  "bytecode": "0x60a080604052346100e857306080527ff0c57e16840df040f15088dc2f81fe391c3923bec73e23a9662efc9c229c6a005460ff8160401c166100d9576002600160401b03196001600160401b03821601610073575b604051612a7390816100ed8239608051818181610ad90152610bb20152f35b6001600160401b0319166001600160401b039081177ff0c57e16840df040f15088dc2f81fe391c3923bec73e23a9662efc9c229c6a005581527fc7f505b2f371ae2175ee4913f4499e1f2633a7b5936321eed1cdaeb6115181d290602090a15f80610054565b63f92ee8a960e01b5f5260045ffd5b5f80fdfe6080806040526004361015610012575f80fd5b5f905f3560e01c90816301ffc9a714611b705750806304f3bcec14611b4857806307e2cea514611b21578063248a9ca314611b035780632630c12f14611adb5780632e4f692a14611ac05780632f2ff15d14611a8f57806335876476146117f857806336568abe146117b25780633d4aa89e1461171b5780633e413bee146116f35780633f4ba83a146116755780634a0b680914610d985780634f1ef28614610b725780635001f3b514610b4957806350cfeddd14610b2d57806352d1902d14610ac6578063530e784f14610a085780635c975abb146109d957806361d027b3146109b057806375b238fc146109755780637b1039991461094c578063839df9451461092257806383e7f6ff146108d15780638456cb591461085e5780638a95b09f146108405780638ccb9ea61461082257806391402039146107f3578063917844cf146107b457806391d148541461075e578063a217fddf14610742578063a6100fca146105ab578063ad3cb1cc1461055e578063aeb8ce9b14610472578063b74dd231146103ef578063d547741f146103b4578063e63ab1e914610379578063f0f4426014610300578063f14fcbc8146102005763f72c0d8b146101d6575f80fd5b346101fd57806003193601126101fd5760206040515f8051602061297e8339815191528152f35b80fd5b50346101fd5760203660031901126101fd5760043561021d6126d7565b808252600860205261023660ff604084205416156120d4565b808252600760205260408220541580156102ca575b156102855780825260076020524260408320557f561eb038a114723afa3c72b445add7b8602de546264da1e7e826af628316dbcb8280a280f35b60405162461bcd60e51b815260206004820152601d60248201527f436f6e74726f6c6c65723a20636f6d6d69746d656e74206578697374730000006044820152606490fd5b50808252600760205260408220546201518081018091116102ec57421161024b565b634e487b7160e01b83526011600452602483fd5b50346101fd5760203660031901126101fd5761031a611bef565b61032261219b565b6001600160a01b0316610336811515611db6565b600654816001600160a01b0382167f4ab5be82436d353e61ca18726e984e561f5c1cc7c6d38b29d2553c790434705a8580a36001600160a01b0319161760065580f35b50346101fd57806003193601126101fd5760206040517f65d7a28e3265b37a6474929f336521b332c1681b933f6cb9f3376673440d862a8152f35b50346101fd5760403660031901126101fd576103eb6004356103d4611bc3565b906103e66103e182611d98565b61220a565b61263b565b5080f35b50346101fd5760403660031901126101fd57610409611bef565b6024359081151580920361046e5760207ff83a8c0afd54275f21152a22a8eada2be10781dbb0f72d691b3f7e90564dac9f9161044361219b565b6001600160a01b0316808552600982526040808620805460ff191660ff87161790555193845292a280f35b8280fd5b50346101fd5760203660031901126101fd576004356001600160401b038111610547576104a3903690600401611ca6565b6104b381516020830120916126fe565b90816104c7575b6020826040519015158152f35b6001546040516312dc929d60e31b81526004810192909252909150602090829060249082906001600160a01b03165afa908115610553578291610510575b50602091505f6104ba565b90506020813d60201161054b575b8161052b60209383611c34565b810103126105475751801515810361054757602091505f610505565b5080fd5b3d915061051e565b6040513d84823e3d90fd5b50346101fd57806003193601126101fd57506105a7604051610581604082611c34565b60058152640352e302e360dc1b6020820152604051918291602083526020830190611d74565b0390f35b50346101fd5760603660031901126101fd576004356001600160401b038111610547576105dc903690600401611d47565b90602435916105ef600285541415611ec8565b600284556105fb6126d7565b61061f6106128461060d368587611c70565b611fac565b6020815191015190611f14565b9161062e604435841115611f21565b60035460065461064e9185916001600160a01b03908116913391166127bf565b84602061065c368585611c70565b80519082012060015460405163c475abff60e01b8152600481018390526024810198909852909692839160449183916001600160a01b03165af19081156107375786916106e1575b506106d7907f3da24c024582931cfaf8267d8ed24d13a82a8068d5bd337d30ec45cea4e506ae9460405194859485611f77565b0390a26001815580f35b90506020813d60201161072f575b816106fc60209383611c34565b8101031261072b57517f3da24c024582931cfaf8267d8ed24d13a82a8068d5bd337d30ec45cea4e506ae6106a4565b5f80fd5b3d91506106ef565b6040513d88823e3d90fd5b50346101fd57806003193601126101fd57602090604051908152f35b50346101fd5760403660031901126101fd57604061077a611bc3565b9160043581525f805160206129de833981519152602052209060018060a01b03165f52602052602060ff60405f2054166040519015158152f35b50346101fd5760203660031901126101fd5760209060ff906040906001600160a01b036107df611bef565b168152600984522054166040519015158152f35b50346101fd5760203660031901126101fd5760ff60406020926004358152600884522054166040519015158152f35b50346101fd57806003193601126101fd576020604051620151808152f35b50346101fd57806003193601126101fd5760206040516224ea008152f35b50346101fd57806003193601126101fd5761087761212c565b61087f6126d7565b600160ff195f805160206129fe8339815191525416175f805160206129fe833981519152557f62e78cea01bee320cd4e420270b5ea74000d11b0c9f74754ebdbfc544b05a2586020604051338152a180f35b50346101fd5760403660031901126101fd57600435906001600160401b0382116101fd5760406109106109073660048601611ca6565b60243590611fac565b60208251918051835201516020820152f35b50346101fd5760203660031901126101fd5760406020916004358152600783522054604051908152f35b50346101fd57806003193601126101fd576004546040516001600160a01b039091168152602090f35b50346101fd57806003193601126101fd5760206040517fa49807205ce4d355092ef5a8a18f56e8913cf4a201fbe287825b095693c217758152f35b50346101fd57806003193601126101fd576006546040516001600160a01b039091168152602090f35b50346101fd57806003193601126101fd57602060ff5f805160206129fe83398151915254166040519015158152f35b50346101fd5760203660031901126101fd57610a22611bef565b5f805160206129be83398151915282525f805160206129de83398151915260209081526040808420335f908152925290205460ff1615610aa257600280546001600160a01b0319166001600160a01b039290921691821790557ff261845a790fe29bbd6631e2ca4a5bdc83e6eed7c3271d9590d97287e00e91238280a280f35b63e2517d3f60e01b8252336004525f805160206129be833981519152602452604482fd5b50346101fd57806003193601126101fd577f00000000000000000000000000000000000000000000000000000000000000006001600160a01b03163003610b1e5760206040515f8051602061299e8339815191528152f35b63703e46dd60e11b8152600490fd5b50346101fd57806003193601126101fd57602060405160018152f35b50346101fd57806003193601126101fd576001546040516001600160a01b039091168152602090f35b5060403660031901126101fd57610b87611bef565b906024356001600160401b03811161054757610ba7903690600401611ca6565b916001600160a01b037f000000000000000000000000000000000000000000000000000000000000000016308114908115610d76575b50610d67575f8051602061297e83398151915282525f805160206129de83398151915260209081526040808420335f908152925290205460ff1615610d43576040516352d1902d60e01b8152926001600160a01b0382169190602085600481865afa80958596610d0f575b50610c6157634c9c8ce360e01b84526004839052602484fd5b9091845f8051602061299e8339815191528103610cfd5750823b15610ceb575f8051602061299e83398151915280546001600160a01b031916821790557fbc7cd75a20ee27fd9adebab32041f755214dbc6bffa90cc0225b39da2e5c2d3b8480a2805115610cd2576103eb916128d1565b505034610cdc5780f35b63b398979f60e01b8152600490fd5b634c9c8ce360e01b8452600452602483fd5b632a87526960e21b8552600452602484fd5b9095506020813d602011610d3b575b81610d2b60209383611c34565b8101031261072b5751945f610c48565b3d9150610d1e565b63e2517d3f60e01b8252336004525f8051602061297e833981519152602452604482fd5b63703e46dd60e11b8252600482fd5b5f8051602061299e833981519152546001600160a01b0316141590505f610bdd565b503461072b5761010036600319011261072b576004356001600160401b03811161072b57610dca903690600401611d47565b610dd2611bc3565b9060443590610ddf611bd9565b9260a435936001600160401b03851161072b573660238601121561072b5784600401356001600160401b03811161072b576024860195602436918360051b01011161072b57610e2c611d38565b610e3a60025f541415611ec8565b60025f55610e466126d7565b610e6d81610e5536888c611c70565b85610e6136878d611cc4565b918a8960643592611e02565b805f526008602052610e8660ff60405f205416156120d4565b805f52600760205260405f2054603c810180911161161c57421061163057805f52600760205260405f205462015180810180911161161c574210156115d757805f52600860205260405f20600160ff198254161790555f5260076020525f6040812055610efc610ef736878b611c70565b6126fe565b15611592576224ea00861061154d576001600160a01b0383169182151590816114ea575b610f326106128961060d368b8f611c70565b94610f4160e435871115611f21565b600354600654610f619188916001600160a01b03908116913391166127bf565b610f6c36898d611c70565b602081519101209960018060a01b0360015416604051630ddf7fcb60e41b8152602081600481855afa9081156113ee575f916114b8575b50604051602081019182528d604082015260408152610fc3606082611c34565b51902090851561142b5750600154604051631ef5ace960e21b8152600481018e90526001600160a01b038b811660248301819052604483019e909e52606482018a9052909182918291165a925f608492602095f19081156113ee575f916113f9575b509a873b1561072b576040519062d5fa2b60e81b825282600483015260248201525f81604481838c5af180156113ee576113cd575b50908392918e97969594611261575b505050505b81611259575b506110c1575b50507fca6abbe9d7f11422cb6ca7629fbf6fe9efb1c621f71ce8f02b9f2a230097404f936110b79160405194859460018060a01b03169885611f77565b0390a36001815580f35b6110cc36868a611c70565b6001546040516316aa8a1960e11b8152919291908490829060049082906001600160a01b03165afa90811561124e5784916111be575b506001602093848061114b946040519784899551918291018487015e840190601760f91b83830152805192839101602183015e010186838201520301601f198101845283611c34565b803b1561046e57604051637a806d6b60e01b81526001600160a01b0386166004820181905260248201526044810182905260806064820152918391839182908490829061119c906084830190611d74565b03925af11561107a57816111af91611c34565b6111ba57865f61107a565b8680fd5b90503d8085833e6111cf8183611c34565b81019060208183031261124a578051906001600160401b03821161124657019080601f8301121561124a5781519361120685611c55565b916112146040519384611c34565b8583526020868501011161124657602080600193888289819a8261114b9a018386015e83010152945050509350611102565b8580fd5b8480fd5b6040513d86823e3d90fd5b90505f611074565b875b8481106112705750611069565b9091929394959697506024611286828786612851565b905010611388578e611299828786612851565b600411610547576112ab838887612851565b91826024116113845783926112f56020859460405193849160048484019788378b60248401526024602319830191016044840137810186838201520301601f198101835282611c34565b519082895af1903d1561137e573d9061130d82611c55565b9161131b6040519384611c34565b825260203d92013e5b1561133a57600101908e97969594939291611263565b606460405162461bcd60e51b815260206004820152602060248201527f436f6e74726f6c6c65723a207265736f6c7665722063616c6c206661696c65646044820152fd5b50611324565b8380fd5b60405162461bcd60e51b815260206004820152601f60248201527f436f6e74726f6c6c65723a20696e76616c6964207265636f72642064617461006044820152606490fd5b6113e0919796959493929e505f90611c34565b5f9c9091929394955f61105a565b6040513d5f823e3d90fd5b90506020813d602011611423575b8161141460209383611c34565b8101031261072b57515f611025565b3d9150611407565b604051633f2891eb60e21b8152600481018e90526001600160a01b038b166024820152604481019c909c52949a96959460209450879350606492508391505f905af180156113ee578a935f91611483575b509661106e565b9350506020833d6020116114b0575b8161149f60209383611c34565b8101031261072b578992515f61147c565b3d9150611492565b90506020813d6020116114e2575b816114d360209383611c34565b8101031261072b57515f610fa3565b3d91506114c6565b835f52600960205260ff60405f205416610f205760405162461bcd60e51b815260206004820152602160248201527f436f6e74726f6c6c65723a207265736f6c766572206e6f7420617070726f76656044820152601960fa1b6064820152608490fd5b60405162461bcd60e51b815260206004820152601e60248201527f436f6e74726f6c6c65723a206475726174696f6e20746f6f2073686f727400006044820152606490fd5b60405162461bcd60e51b815260206004820152601860248201527f436f6e74726f6c6c65723a20696e76616c6964206e616d6500000000000000006044820152606490fd5b60405162461bcd60e51b815260206004820152601e60248201527f436f6e74726f6c6c65723a20636f6d6d69746d656e74206578706972656400006044820152606490fd5b634e487b7160e01b5f52601160045260245ffd5b60405162461bcd60e51b815260206004820152601e60248201527f436f6e74726f6c6c65723a20636f6d6d69746d656e7420746f6f206e657700006044820152606490fd5b3461072b575f36600319011261072b5761168d61212c565b5f805160206129fe8339815191525460ff8116156116e45760ff19165f805160206129fe833981519152557f5db9ee0a495bf2e6ff9c91a7834c1ba4fdd244a5e8aa4e537bd38aeae4b073aa6020604051338152a1005b638dfc202b60e01b5f5260045ffd5b3461072b575f36600319011261072b576003546040516001600160a01b039091168152602090f35b3461072b5760e036600319011261072b576004356001600160401b03811161072b5761174b903690600401611ca6565b611753611bc3565b61175b611bd9565b9160a435916001600160401b03831161072b573660238401121561072b576020936117936117aa943690602481600401359101611cc4565b9161179c611d38565b936064359160443591611e02565b604051908152f35b3461072b57604036600319011261072b576117cb611bc3565b336001600160a01b038216036117e9576117e79060043561263b565b005b63334bd91960e11b5f5260045ffd5b3461072b5760e036600319011261072b576004356001600160a01b0381169081900361072b57611826611bc3565b6044356001600160a01b038116919082900361072b576064356001600160a01b038116929083900361072b576084356001600160a01b038116939084900361072b5760a4356001600160a01b038116919082900361072b5760c435926001600160a01b038416840361072b575f80516020612a1e833981519152549460ff8660401c1615976001600160401b03871680159081611a87575b6001149081611a7d575b159081611a74575b50611a655767ffffffffffffffff1987166001175f80516020612a1e833981519152556119c59689611a39575b506119066128a6565b61190e6128a6565b611919851515611db6565b6001600160601b0360a01b600154161760015560018060a01b03166001600160601b0360a01b60025416176002556001600160601b0360a01b60035416176003556001600160601b0360a01b6004541617600455836001600160601b0360a01b60055416176005556001600160601b0360a01b600654161760065560015f556119a181612250565b506119ab816122ec565b506119b5816123a5565b506119bf8161245e565b50612504565b505f52600960205260405f20600160ff198254161790556119e257005b68ff0000000000000000195f80516020612a1e83398151915254165f80516020612a1e833981519152557fc7f505b2f371ae2175ee4913f4499e1f2633a7b5936321eed1cdaeb6115181d2602060405160018152a1005b68ffffffffffffffffff191668010000000000000001175f80516020612a1e83398151915255896118fd565b63f92ee8a960e01b5f5260045ffd5b9050158a6118d0565b303b1591506118c8565b8a91506118be565b3461072b57604036600319011261072b576117e7600435611aae611bc3565b90611abb6103e182611d98565b6125aa565b3461072b575f36600319011261072b576020604051603c8152f35b3461072b575f36600319011261072b576002546040516001600160a01b039091168152602090f35b3461072b57602036600319011261072b5760206117aa600435611d98565b3461072b575f36600319011261072b5760206040515f805160206129be8339815191528152f35b3461072b575f36600319011261072b576005546040516001600160a01b039091168152602090f35b3461072b57602036600319011261072b576004359063ffffffff60e01b821680920361072b57602091637965db0b60e01b8114908115611bb2575b5015158152f35b6301ffc9a760e01b14905083611bab565b602435906001600160a01b038216820361072b57565b608435906001600160a01b038216820361072b57565b600435906001600160a01b038216820361072b57565b604081019081106001600160401b03821117611c2057604052565b634e487b7160e01b5f52604160045260245ffd5b90601f801991011681019081106001600160401b03821117611c2057604052565b6001600160401b038111611c2057601f01601f191660200190565b929192611c7c82611c55565b91611c8a6040519384611c34565b82948184528183011161072b578281602093845f960137010152565b9080601f8301121561072b57816020611cc193359101611c70565b90565b929190926001600160401b038411611c20578360051b906020604051611cec82850182611c34565b80968152019181019183831161072b5781905b838210611d0d575050505050565b81356001600160401b03811161072b57602091611d2d8784938701611ca6565b815201910190611cff565b60c43590811515820361072b57565b9181601f8401121561072b578235916001600160401b03831161072b576020838186019501011161072b57565b805180835260209291819084018484015e5f828201840152601f01601f1916010190565b5f525f805160206129de833981519152602052600160405f20015490565b15611dbd57565b60405162461bcd60e51b815260206004820152601960248201527f436f6e74726f6c6c65723a207a65726f207472656173757279000000000000006044820152606490fd5b95909594919294602081519101209360405195869460208601986101008701978a5260018060a01b031660408701526060860152608085015260018060a01b031660a084015260e060c0840152815180945261012083019360206101208260051b8601019301945f905b828210611e9657505050611e909350151560e083015203601f198101835282611c34565b51902090565b91936001919395506020611eb6819261011f198b82030186528951611d74565b97019201920186949295939195611e6c565b15611ecf57565b60405162461bcd60e51b815260206004820152601a60248201527f436f6e74726f6c6c65723a207265656e7472616e742063616c6c0000000000006044820152606490fd5b9190820180921161161c57565b15611f2857565b60405162461bcd60e51b815260206004820152602160248201527f436f6e74726f6c6c65723a2070726963652065786365656473206d6178436f736044820152601d60fa1b6064820152608490fd5b90826040936080929796959760608552816060860152838501375f828285010152601f80199101168201019460208201520152565b905f6020604051611fbc81611c05565b8281520152815160208301209060018060a01b0360025416602060018060a01b036001541693602460405180968193636b727d4360e11b835260048301525afa9283156113ee575f9361209e575b50612036604093948451958694859384936350e9a71560e01b8552606060048601526064850190611d74565b916024840152604483015203915afa9081156113ee575f91612056575090565b90506040813d604011612096575b8161207160409383611c34565b8101031261072b5760206040519161208883611c05565b805183520151602082015290565b3d9150612064565b92506020833d6020116120cc575b816120b960209383611c34565b8101031261072b5791519161203661200a565b3d91506120ac565b156120db57565b60405162461bcd60e51b815260206004820152602360248201527f436f6e74726f6c6c65723a20636f6d6d69746d656e7420616c726561647920756044820152621cd95960ea1b6064820152608490fd5b335f9081527f75442b0a96088b5456bc4ed01394c96a4feec0f883c9494257d76b96ab1c9b6b602052604090205460ff161561216457565b63e2517d3f60e01b5f52336004527f65d7a28e3265b37a6474929f336521b332c1681b933f6cb9f3376673440d862a60245260445ffd5b335f9081527fb16e88c42fd4e48df2dd6a2eabd6bc9aec654ec170056b470819f8892cc6431c602052604090205460ff16156121d357565b63e2517d3f60e01b5f52336004527fa49807205ce4d355092ef5a8a18f56e8913cf4a201fbe287825b095693c2177560245260445ffd5b5f8181525f805160206129de8339815191526020908152604080832033845290915290205460ff161561223a5750565b63e2517d3f60e01b5f523360045260245260445ffd5b6001600160a01b0381165f9081527fb7db2dd08fcb62d0c9e08c51941cae53c267786a0b75803fb7960902fc8ef97d602052604090205460ff166122e7576001600160a01b03165f8181527fb7db2dd08fcb62d0c9e08c51941cae53c267786a0b75803fb7960902fc8ef97d60205260408120805460ff191660011790553391905f8051602061295e8339815191528180a4600190565b505f90565b6001600160a01b0381165f9081527fb16e88c42fd4e48df2dd6a2eabd6bc9aec654ec170056b470819f8892cc6431c602052604090205460ff166122e7576001600160a01b03165f8181527fb16e88c42fd4e48df2dd6a2eabd6bc9aec654ec170056b470819f8892cc6431c60205260408120805460ff191660011790553391907fa49807205ce4d355092ef5a8a18f56e8913cf4a201fbe287825b095693c21775905f8051602061295e8339815191529080a4600190565b6001600160a01b0381165f9081527f75442b0a96088b5456bc4ed01394c96a4feec0f883c9494257d76b96ab1c9b6b602052604090205460ff166122e7576001600160a01b03165f8181527f75442b0a96088b5456bc4ed01394c96a4feec0f883c9494257d76b96ab1c9b6b60205260408120805460ff191660011790553391907f65d7a28e3265b37a6474929f336521b332c1681b933f6cb9f3376673440d862a905f8051602061295e8339815191529080a4600190565b6001600160a01b0381165f9081527f0b45fb0a7d123af421db170fce034e3ce3a70e5f1150428004face1400c458f2602052604090205460ff166122e7576001600160a01b03165f8181527f0b45fb0a7d123af421db170fce034e3ce3a70e5f1150428004face1400c458f260205260408120805460ff191660011790553391905f805160206129be833981519152905f8051602061295e8339815191529080a4600190565b6001600160a01b0381165f9081527fab71e3f32666744d246edff3f96e4bdafee2e9867098cdd118a979a7464786a8602052604090205460ff166122e7576001600160a01b03165f8181527fab71e3f32666744d246edff3f96e4bdafee2e9867098cdd118a979a7464786a860205260408120805460ff191660011790553391905f8051602061297e833981519152905f8051602061295e8339815191529080a4600190565b5f8181525f805160206129de833981519152602090815260408083206001600160a01b038616845290915290205460ff16612635575f8181525f805160206129de833981519152602090815260408083206001600160a01b0395909516808452949091528120805460ff19166001179055339291905f8051602061295e8339815191529080a4600190565b50505f90565b5f8181525f805160206129de833981519152602090815260408083206001600160a01b038616845290915290205460ff1615612635575f8181525f805160206129de833981519152602090815260408083206001600160a01b0395909516808452949091528120805460ff19169055339291907ff6391f5c32d9c69d2a47ea670b442974b53935d1edc7fd64eb21e047a839171b9080a4600190565b60ff5f805160206129fe83398151915254166126ef57565b63d93c066560e01b5f5260045ffd5b60018151106122e7575f5b81518110156127b857818101602001516001600160f81b031916606160f81b811015806127aa575b801561278d575b8015612780575b1561277957602d60f81b148061275c575b61263557600101612709565b50801580612750575081515f19810190811161161c578114612750565b5050505f90565b50602d60f81b811461273f565b50600360fc1b81108015906127385750603960f81b811115612738565b50603d60f91b811115612731565b5050600190565b6040516323b872dd60e01b5f9081526001600160a01b039384166004529290931660245260449390935260209060648180865af19060015f5114821615612830575b6040525f606052156128105750565b635274afe760e01b5f9081526001600160a01b0391909116600452602490fd5b90600181151661284857823b15153d15161690612801565b503d5f823e3d90fd5b91908110156128925760051b81013590601e198136030182121561072b5701908135916001600160401b03831161072b57602001823603811361072b579190565b634e487b7160e01b5f52603260045260245ffd5b60ff5f80516020612a1e8339815191525460401c16156128c257565b631afcd79f60e31b5f5260045ffd5b905f8091602081519101845af4808061294a575b156129055750506040513d81523d5f602083013e60203d82010160405290565b1561292a57639996b31560e01b5f9081526001600160a01b0391909116600452602490fd5b3d1561293b576040513d5f823e3d90fd5b63d6bda27560e01b5f5260045ffd5b503d1515806128e55750813b15156128e556fe2f8788117e7eff1d82e926ec794901d17c78024a50270940304540a733656f0d189ab7a9244df0848122154315af71fe140f3db0fe014031783b0946b8c9d2e3360894a13ba1a3210667c828492db98dca3e2076cc3735a920a3ca505d382bbc68e79a7bf1e0bc45d0a330c573bc367f9cf464fd326078812f301165fbda4ef102dd7bc7dec4dceedda775e58dd541e08a116c6c53815c0bd028192f7b626800cd5ed15c6e187e77e9aee88184c21f4f2182ab5827cb3b7e07fbedcd63f03300f0c57e16840df040f15088dc2f81fe391c3923bec73e23a9662efc9c229c6a00a2646970667358221220af3494b88ecdeee6e0846931d5c470e0222038fcf81f9dd77353662e23732a6564736f6c634300081a0033",
  "linkReferences": {},
  "deployedLinkReferences": {}
}