{
  "_format": "hh-sol-artifact-1",
  "contractName": "ArcNSRegistrarControllerV2",
  "sourceName": "contracts/proxy/ArcNSRegistrarControllerV2.sol",
  "abi": [
    {
      "inputs": [],
      "stateMutability": "nonpayable",
      "type": "constructor"
    },
    {
      "inputs": [],
      "name": "AccessControlBadConfirmation",
      "type": "error"
    },
    {
      "inputs": [
        {
          "internalType": "address",
          "name": "account",
          "type": "address"
        },
        {
          "internalType": "bytes32",
          "name": "neededRole",
          "type": "bytes32"
        }
      ],
      "name": "AccessControlUnauthorizedAccount",
      "type": "error"
    },
    {
      "inputs": [
        {
          "internalType": "address",
          "name": "target",
          "type": "address"
        }
      ],
      "name": "AddressEmptyCode",
      "type": "error"
    },
    {
      "inputs": [
        {
          "internalType": "address",
          "name": "implementation",
          "type": "address"
        }
      ],
      "name": "ERC1967InvalidImplementation",
      "type": "error"
    },
    {
      "inputs": [],
      "name": "ERC1967NonPayable",
      "type": "error"
    },
    {
      "inputs": [],
      "name": "EnforcedPause",
      "type": "error"
    },
    {
      "inputs": [],
      "name": "ExpectedPause",
      "type": "error"
    },
    {
      "inputs": [],
      "name": "FailedCall",
      "type": "error"
    },
    {
      "inputs": [],
      "name": "InvalidInitialization",
      "type": "error"
    },
    {
      "inputs": [],
      "name": "NotInitializing",
      "type": "error"
    },
    {
      "inputs": [
        {
          "internalType": "address",
          "name": "token",
          "type": "address"
        }
      ],
      "name": "SafeERC20FailedOperation",
      "type": "error"
    },
    {
      "inputs": [],
      "name": "UUPSUnauthorizedCallContext",
      "type": "error"
    },
    {
      "inputs": [
        {
          "internalType": "bytes32",
          "name": "slot",
          "type": "bytes32"
        }
      ],
      "name": "UUPSUnsupportedProxiableUUID",
      "type": "error"
    },
    {
      "anonymous": false,
      "inputs": [
        {
          "indexed": true,
          "internalType": "bytes32",
          "name": "commitment",
          "type": "bytes32"
        }
      ],
      "name": "CommitmentMade",
      "type": "event"
    },
    {
      "anonymous": false,
      "inputs": [
        {
          "indexed": false,
          "internalType": "uint64",
          "name": "version",
          "type": "uint64"
        }
      ],
      "name": "Initialized",
      "type": "event"
    },
    {
      "anonymous": false,
      "inputs": [
        {
          "indexed": false,
          "internalType": "string",
          "name": "name",
          "type": "string"
        },
        {
          "indexed": true,
          "internalType": "bytes32",
          "name": "label",
          "type": "bytes32"
        },
        {
          "indexed": true,
          "internalType": "address",
          "name": "owner",
          "type": "address"
        },
        {
          "indexed": false,
          "internalType": "uint256",
          "name": "cost",
          "type": "uint256"
        },
        {
          "indexed": false,
          "internalType": "uint256",
          "name": "expires",
          "type": "uint256"
        }
      ],
      "name": "NameRegistered",
      "type": "event"
    },
    {
      "anonymous": false,
      "inputs": [
        {
          "indexed": false,
          "internalType": "string",
          "name": "name",
          "type": "string"
        },
        {
          "indexed": true,
          "internalType": "bytes32",
          "name": "label",
          "type": "bytes32"
        },
        {
          "indexed": false,
          "internalType": "uint256",
          "name": "cost",
          "type": "uint256"
        },
        {
          "indexed": false,
          "internalType": "uint256",
          "name": "expires",
          "type": "uint256"
        }
      ],
      "name": "NameRenewed",
      "type": "event"
    },
    {
      "anonymous": false,
      "inputs": [
        {
          "indexed": true,
          "internalType": "address",
          "name": "oracle",
          "type": "address"
        }
      ],
      "name": "NewPriceOracle",
      "type": "event"
    },
    {
      "anonymous": false,
      "inputs": [
        {
          "indexed": false,
          "internalType": "address",
          "name": "account",
          "type": "address"
        }
      ],
      "name": "Paused",
      "type": "event"
    },
    {
      "anonymous": false,
      "inputs": [
        {
          "indexed": true,
          "internalType": "address",
          "name": "resolver",
          "type": "address"
        },
        {
          "indexed": false,
          "internalType": "bool",
          "name": "approved",
          "type": "bool"
        }
      ],
      "name": "ResolverApproved",
      "type": "event"
    },
    {
      "anonymous": false,
      "inputs": [
        {
          "indexed": true,
          "internalType": "bytes32",
          "name": "role",
          "type": "bytes32"
        },
        {
          "indexed": true,
          "internalType": "bytes32",
          "name": "previousAdminRole",
          "type": "bytes32"
        },
        {
          "indexed": true,
          "internalType": "bytes32",
          "name": "newAdminRole",
          "type": "bytes32"
        }
      ],
      "name": "RoleAdminChanged",
      "type": "event"
    },
    {
      "anonymous": false,
      "inputs": [
        {
          "indexed": true,
          "internalType": "bytes32",
          "name": "role",
          "type": "bytes32"
        },
        {
          "indexed": true,
          "internalType": "address",
          "name": "account",
          "type": "address"
        },
        {
          "indexed": true,
          "internalType": "address",
          "name": "sender",
          "type": "address"
        }
      ],
      "name": "RoleGranted",
      "type": "event"
    },
    {
      "anonymous": false,
      "inputs": [
        {
          "indexed": true,
          "internalType": "bytes32",
          "name": "role",
          "type": "bytes32"
        },
        {
          "indexed": true,
          "internalType": "address",
          "name": "account",
          "type": "address"
        },
        {
          "indexed": true,
          "internalType": "address",
          "name": "sender",
          "type": "address"
        }
      ],
      "name": "RoleRevoked",
      "type": "event"
    },
    {
      "anonymous": false,
      "inputs": [
        {
          "indexed": true,
          "internalType": "address",
          "name": "oldTreasury",
          "type": "address"
        },
        {
          "indexed": true,
          "internalType": "address",
          "name": "newTreasury",
          "type": "address"
        }
      ],
      "name": "TreasuryUpdated",
      "type": "event"
    },
    {
      "anonymous": false,
      "inputs": [
        {
          "indexed": false,
          "internalType": "address",
          "name": "account",
          "type": "address"
        }
      ],
      "name": "Unpaused",
      "type": "event"
    },
    {
      "anonymous": false,
      "inputs": [
        {
          "indexed": true,
          "internalType": "address",
          "name": "implementation",
          "type": "address"
        }
      ],
      "name": "Upgraded",
      "type": "event"
    },
    {
      "inputs": [],
      "name": "ADMIN_ROLE",
      "outputs": [
        {
          "internalType": "bytes32",
          "name": "",
          "type": "bytes32"
        }
      ],
      "stateMutability": "view",
      "type": "function"
    },
    {
      "inputs": [],
      "name": "DEFAULT_ADMIN_ROLE",
      "outputs": [
        {
          "internalType": "bytes32",
          "name": "",
          "type": "bytes32"
        }
      ],
      "stateMutability": "view",
      "type": "function"
    },
    {
      "inputs": [],
      "name": "MAX_COMMITMENT_AGE",
      "outputs": [
        {
          "internalType": "uint256",
          "name": "",
          "type": "uint256"
        }
      ],
      "stateMutability": "view",
      "type": "function"
    },
    {
      "inputs": [],
      "name": "MIN_COMMITMENT_AGE",
      "outputs": [
        {
          "internalType": "uint256",
          "name": "",
          "type": "uint256"
        }
      ],
      "stateMutability": "view",
      "type": "function"
    },
    {
      "inputs": [],
      "name": "MIN_NAME_LENGTH",
      "outputs": [
        {
          "internalType": "uint256",
          "name": "",
          "type": "uint256"
        }
      ],
      "stateMutability": "view",
      "type": "function"
    },
    {
      "inputs": [],
      "name": "MIN_REGISTRATION_DURATION",
      "outputs": [
        {
          "internalType": "uint256",
          "name": "",
          "type": "uint256"
        }
      ],
      "stateMutability": "view",
      "type": "function"
    },
    {
      "inputs": [],
      "name": "ORACLE_ROLE",
      "outputs": [
        {
          "internalType": "bytes32",
          "name": "",
          "type": "bytes32"
        }
      ],
      "stateMutability": "view",
      "type": "function"
    },
    {
      "inputs": [],
      "name": "PAUSER_ROLE",
      "outputs": [
        {
          "internalType": "bytes32",
          "name": "",
          "type": "bytes32"
        }
      ],
      "stateMutability": "view",
      "type": "function"
    },
    {
      "inputs": [],
      "name": "UPGRADER_ROLE",
      "outputs": [
        {
          "internalType": "bytes32",
          "name": "",
          "type": "bytes32"
        }
      ],
      "stateMutability": "view",
      "type": "function"
    },
    {
      "inputs": [],
      "name": "UPGRADE_INTERFACE_VERSION",
      "outputs": [
        {
          "internalType": "string",
          "name": "",
          "type": "string"
        }
      ],
      "stateMutability": "view",
      "type": "function"
    },
    {
      "inputs": [
        {
          "internalType": "address",
          "name": "",
          "type": "address"
        }
      ],
      "name": "approvedResolvers",
      "outputs": [
        {
          "internalType": "bool",
          "name": "",
          "type": "bool"
        }
      ],
      "stateMutability": "view",
      "type": "function"
    },
    {
      "inputs": [
        {
          "internalType": "string",
          "name": "name_",
          "type": "string"
        }
      ],
      "name": "available",
      "outputs": [
        {
          "internalType": "bool",
          "name": "",
          "type": "bool"
        }
      ],
      "stateMutability": "view",
      "type": "function"
    },
    {
      "inputs": [],
      "name": "base",
      "outputs": [
        {
          "internalType": "contract ArcNSBaseRegistrar",
          "name": "",
          "type": "address"
        }
      ],
      "stateMutability": "view",
      "type": "function"
    },
    {
      "inputs": [
        {
          "internalType": "bytes32",
          "name": "commitment",
          "type": "bytes32"
        }
      ],
      "name": "commit",
      "outputs": [],
      "stateMutability": "nonpayable",
      "type": "function"
    },
    {
      "inputs": [
        {
          "internalType": "bytes32",
          "name": "",
          "type": "bytes32"
        }
      ],
      "name": "commitments",
      "outputs": [
        {
          "internalType": "uint256",
          "name": "",
          "type": "uint256"
        }
      ],
      "stateMutability": "view",
      "type": "function"
    },
    {
      "inputs": [
        {
          "internalType": "bytes32",
          "name": "role",
          "type": "bytes32"
        }
      ],
      "name": "getRoleAdmin",
      "outputs": [
        {
          "internalType": "bytes32",
          "name": "",
          "type": "bytes32"
        }
      ],
      "stateMutability": "view",
      "type": "function"
    },
    {
      "inputs": [
        {
          "internalType": "bytes32",
          "name": "role",
          "type": "bytes32"
        },
        {
          "internalType": "address",
          "name": "account",
          "type": "address"
        }
      ],
      "name": "grantRole",
      "outputs": [],
      "stateMutability": "nonpayable",
      "type": "function"
    },
    {
      "inputs": [
        {
          "internalType": "bytes32",
          "name": "role",
          "type": "bytes32"
        },
        {
          "internalType": "address",
          "name": "account",
          "type": "address"
        }
      ],
      "name": "hasRole",
      "outputs": [
        {
          "internalType": "bool",
          "name": "",
          "type": "bool"
        }
      ],
      "stateMutability": "view",
      "type": "function"
    },
    {
      "inputs": [
        {
          "internalType": "contract ArcNSBaseRegistrar",
          "name": "_base",
          "type": "address"
        },
        {
          "internalType": "contract IArcNSPriceOracle",
          "name": "_priceOracle",
          "type": "address"
        },
        {
          "internalType": "contract IERC20",
          "name": "_usdc",
          "type": "address"
        },
        {
          "internalType": "contract IArcNSRegistry",
          "name": "_registry",
          "type": "address"
        },
        {
          "internalType": "contract ArcNSResolverV2",
          "name": "_resolver",
          "type": "address"
        },
        {
          "internalType": "address",
          "name": "_treasury",
          "type": "address"
        },
        {
          "internalType": "address",
          "name": "_admin",
          "type": "address"
        }
      ],
      "name": "initialize",
      "outputs": [],
      "stateMutability": "nonpayable",
      "type": "function"
    },
    {
      "inputs": [
        {
          "internalType": "string",
          "name": "name_",
          "type": "string"
        },
        {
          "internalType": "address",
          "name": "owner_",
          "type": "address"
        },
        {
          "internalType": "uint256",
          "name": "duration",
          "type": "uint256"
        },
        {
          "internalType": "bytes32",
          "name": "secret",
          "type": "bytes32"
        },
        {
          "internalType": "address",
          "name": "resolverAddr",
          "type": "address"
        },
        {
          "internalType": "bytes[]",
          "name": "data",
          "type": "bytes[]"
        },
        {
          "internalType": "bool",
          "name": "reverseRecord",
          "type": "bool"
        }
      ],
      "name": "makeCommitment",
      "outputs": [
        {
          "internalType": "bytes32",
          "name": "",
          "type": "bytes32"
        }
      ],
      "stateMutability": "pure",
      "type": "function"
    },
    {
      "inputs": [],
      "name": "pause",
      "outputs": [],
      "stateMutability": "nonpayable",
      "type": "function"
    },
    {
      "inputs": [],
      "name": "paused",
      "outputs": [
        {
          "internalType": "bool",
          "name": "",
          "type": "bool"
        }
      ],
      "stateMutability": "view",
      "type": "function"
    },
    {
      "inputs": [],
      "name": "priceOracle",
      "outputs": [
        {
          "internalType": "contract IArcNSPriceOracle",
          "name": "",
          "type": "address"
        }
      ],
      "stateMutability": "view",
      "type": "function"
    },
    {
      "inputs": [],
      "name": "proxiableUUID",
      "outputs": [
        {
          "internalType": "bytes32",
          "name": "",
          "type": "bytes32"
        }
      ],
      "stateMutability": "view",
      "type": "function"
    },
    {
      "inputs": [
        {
          "internalType": "string",
          "name": "name_",
          "type": "string"
        },
        {
          "internalType": "address",
          "name": "owner_",
          "type": "address"
        },
        {
          "internalType": "uint256",
          "name": "duration",
          "type": "uint256"
        },
        {
          "internalType": "bytes32",
          "name": "secret",
          "type": "bytes32"
        },
        {
          "internalType": "address",
          "name": "resolverAddr",
          "type": "address"
        },
        {
          "internalType": "bytes[]",
          "name": "data",
          "type": "bytes[]"
        },
        {
          "internalType": "bool",
          "name": "reverseRecord",
          "type": "bool"
        },
        {
          "internalType": "uint256",
          "name": "maxCost",
          "type": "uint256"
        }
      ],
      "name": "register",
      "outputs": [],
      "stateMutability": "nonpayable",
      "type": "function"
    },
    {
      "inputs": [],
      "name": "registry",
      "outputs": [
        {
          "internalType": "contract IArcNSRegistry",
          "name": "",
          "type": "address"
        }
      ],
      "stateMutability": "view",
      "type": "function"
    },
    {
      "inputs": [
        {
          "internalType": "string",
          "name": "name_",
          "type": "string"
        },
        {
          "internalType": "uint256",
          "name": "duration",
          "type": "uint256"
        },
        {
          "internalType": "uint256",
          "name": "maxCost",
          "type": "uint256"
        }
      ],
      "name": "renew",
      "outputs": [],
      "stateMutability": "nonpayable",
      "type": "function"
    },
    {
      "inputs": [
        {
          "internalType": "bytes32",
          "name": "role",
          "type": "bytes32"
        },
        {
          "internalType": "address",
          "name": "callerConfirmation",
          "type": "address"
        }
      ],
      "name": "renounceRole",
      "outputs": [],
      "stateMutability": "nonpayable",
      "type": "function"
    },
    {
      "inputs": [
        {
          "internalType": "string",
          "name": "name_",
          "type": "string"
        },
        {
          "internalType": "uint256",
          "name": "duration",
          "type": "uint256"
        }
      ],
      "name": "rentPrice",
      "outputs": [
        {
          "components": [
            {
              "internalType": "uint256",
              "name": "base",
              "type": "uint256"
            },
            {
              "internalType": "uint256",
              "name": "premium",
              "type": "uint256"
            }
          ],
          "internalType": "struct IArcNSPriceOracle.Price",
          "name": "",
          "type": "tuple"
        }
      ],
      "stateMutability": "view",
      "type": "function"
    },
    {
      "inputs": [],
      "name": "resolver",
      "outputs": [
        {
          "internalType": "contract ArcNSResolverV2",
          "name": "",
          "type": "address"
        }
      ],
      "stateMutability": "view",
      "type": "function"
    },
    {
      "inputs": [
        {
          "internalType": "bytes32",
          "name": "role",
          "type": "bytes32"
        },
        {
          "internalType": "address",
          "name": "account",
          "type": "address"
        }
      ],
      "name": "revokeRole",
      "outputs": [],
      "stateMutability": "nonpayable",
      "type": "function"
    },
    {
      "inputs": [
        {
          "internalType": "address",
          "name": "resolverAddr",
          "type": "address"
        },
        {
          "internalType": "bool",
          "name": "approved",
          "type": "bool"
        }
      ],
      "name": "setApprovedResolver",
      "outputs": [],
      "stateMutability": "nonpayable",
      "type": "function"
    },
    {
      "inputs": [
        {
          "internalType": "contract IArcNSPriceOracle",
          "name": "_oracle",
          "type": "address"
        }
      ],
      "name": "setPriceOracle",
      "outputs": [],
      "stateMutability": "nonpayable",
      "type": "function"
    },
    {
      "inputs": [
        {
          "internalType": "address",
          "name": "_treasury",
          "type": "address"
        }
      ],
      "name": "setTreasury",
      "outputs": [],
      "stateMutability": "nonpayable",
      "type": "function"
    },
    {
      "inputs": [
        {
          "internalType": "bytes4",
          "name": "interfaceId",
          "type": "bytes4"
        }
      ],
      "name": "supportsInterface",
      "outputs": [
        {
          "internalType": "bool",
          "name": "",
          "type": "bool"
        }
      ],
      "stateMutability": "view",
      "type": "function"
    },
    {
      "inputs": [],
      "name": "treasury",
      "outputs": [
        {
          "internalType": "address",
          "name": "",
          "type": "address"
        }
      ],
      "stateMutability": "view",
      "type": "function"
    },
    {
      "inputs": [],
      "name": "unpause",
      "outputs": [],
      "stateMutability": "nonpayable",
      "type": "function"
    },
    {
      "inputs": [
        {
          "internalType": "address",
          "name": "newImplementation",
          "type": "address"
        },
        {
          "internalType": "bytes",
          "name": "data",
          "type": "bytes"
        }
      ],
      "name": "upgradeToAndCall",
      "outputs": [],
      "stateMutability": "payable",
      "type": "function"
    },
    {
      "inputs": [],
      "name": "usdc",
      "outputs": [
        {
          "internalType": "contract IERC20",
          "name": "",
          "type": "address"
        }
      ],
      "stateMutability": "view",
      "type": "function"
    },
    {
      "inputs": [
        {
          "internalType": "bytes32",
          "name": "",
          "type": "bytes32"
        }
      ],
      "name": "usedCommitments",
      "outputs": [
        {
          "internalType": "bool",
          "name": "",
          "type": "bool"
        }
      ],
      "stateMutability": "view",
      "type": "function"
    }
  ],
  "bytecode": "0x60a080604052346100e857306080527ff0c57e16840df040f15088dc2f81fe391c3923bec73e23a9662efc9c229c6a005460ff8160401c166100d9576002600160401b03196001600160401b03821601610073575b604051612a1390816100ed8239608051818181610ad90152610bb20152f35b6001600160401b0319166001600160401b039081177ff0c57e16840df040f15088dc2f81fe391c3923bec73e23a9662efc9c229c6a005581527fc7f505b2f371ae2175ee4913f4499e1f2633a7b5936321eed1cdaeb6115181d290602090a15f80610054565b63f92ee8a960e01b5f5260045ffd5b5f80fdfe6080806040526004361015610012575f80fd5b5f905f3560e01c90816301ffc9a714611b105750806304f3bcec14611ae857806307e2cea514611ac1578063248a9ca314611aa35780632630c12f14611a7b5780632e4f692a14611a605780632f2ff15d14611a2f578063358764761461179857806336568abe146117525780633d4aa89e146116bb5780633e413bee146116935780633f4ba83a146116155780634a0b680914610d985780634f1ef28614610b725780635001f3b514610b4957806350cfeddd14610b2d57806352d1902d14610ac6578063530e784f14610a085780635c975abb146109d957806361d027b3146109b057806375b238fc146109755780637b1039991461094c578063839df9451461092257806383e7f6ff146108d15780638456cb591461085e5780638a95b09f146108405780638ccb9ea61461082257806391402039146107f3578063917844cf146107b457806391d148541461075e578063a217fddf14610742578063a6100fca146105ab578063ad3cb1cc1461055e578063aeb8ce9b14610472578063b74dd231146103ef578063d547741f146103b4578063e63ab1e914610379578063f0f4426014610300578063f14fcbc8146102005763f72c0d8b146101d6575f80fd5b346101fd57806003193601126101fd5760206040515f8051602061291e8339815191528152f35b80fd5b50346101fd5760203660031901126101fd5760043561021d612677565b808252600860205261023660ff60408420541615612074565b808252600760205260408220541580156102ca575b156102855780825260076020524260408320557f561eb038a114723afa3c72b445add7b8602de546264da1e7e826af628316dbcb8280a280f35b60405162461bcd60e51b815260206004820152601d60248201527f436f6e74726f6c6c65723a20636f6d6d69746d656e74206578697374730000006044820152606490fd5b50808252600760205260408220546201518081018091116102ec57421161024b565b634e487b7160e01b83526011600452602483fd5b50346101fd5760203660031901126101fd5761031a611b8f565b61032261213b565b6001600160a01b0316610336811515611d56565b600654816001600160a01b0382167f4ab5be82436d353e61ca18726e984e561f5c1cc7c6d38b29d2553c790434705a8580a36001600160a01b0319161760065580f35b50346101fd57806003193601126101fd5760206040517f65d7a28e3265b37a6474929f336521b332c1681b933f6cb9f3376673440d862a8152f35b50346101fd5760403660031901126101fd576103eb6004356103d4611b63565b906103e66103e182611d38565b6121aa565b6125db565b5080f35b50346101fd5760403660031901126101fd57610409611b8f565b6024359081151580920361046e5760207ff83a8c0afd54275f21152a22a8eada2be10781dbb0f72d691b3f7e90564dac9f9161044361213b565b6001600160a01b0316808552600982526040808620805460ff191660ff87161790555193845292a280f35b8280fd5b50346101fd5760203660031901126101fd576004356001600160401b038111610547576104a3903690600401611c46565b6104b3815160208301209161269e565b90816104c7575b6020826040519015158152f35b6001546040516312dc929d60e31b81526004810192909252909150602090829060249082906001600160a01b03165afa908115610553578291610510575b50602091505f6104ba565b90506020813d60201161054b575b8161052b60209383611bd4565b810103126105475751801515810361054757602091505f610505565b5080fd5b3d915061051e565b6040513d84823e3d90fd5b50346101fd57806003193601126101fd57506105a7604051610581604082611bd4565b60058152640352e302e360dc1b6020820152604051918291602083526020830190611d14565b0390f35b50346101fd5760603660031901126101fd576004356001600160401b038111610547576105dc903690600401611ce7565b90602435916105ef600285541415611e68565b600284556105fb612677565b61061f6106128461060d368587611c10565b611f4c565b6020815191015190611eb4565b9161062e604435841115611ec1565b60035460065461064e9185916001600160a01b039081169133911661275f565b84602061065c368585611c10565b80519082012060015460405163c475abff60e01b8152600481018390526024810198909852909692839160449183916001600160a01b03165af19081156107375786916106e1575b506106d7907f3da24c024582931cfaf8267d8ed24d13a82a8068d5bd337d30ec45cea4e506ae9460405194859485611f17565b0390a26001815580f35b90506020813d60201161072f575b816106fc60209383611bd4565b8101031261072b57517f3da24c024582931cfaf8267d8ed24d13a82a8068d5bd337d30ec45cea4e506ae6106a4565b5f80fd5b3d91506106ef565b6040513d88823e3d90fd5b50346101fd57806003193601126101fd57602090604051908152f35b50346101fd5760403660031901126101fd57604061077a611b63565b9160043581525f8051602061297e833981519152602052209060018060a01b03165f52602052602060ff60405f2054166040519015158152f35b50346101fd5760203660031901126101fd5760209060ff906040906001600160a01b036107df611b8f565b168152600984522054166040519015158152f35b50346101fd5760203660031901126101fd5760ff60406020926004358152600884522054166040519015158152f35b50346101fd57806003193601126101fd576020604051620151808152f35b50346101fd57806003193601126101fd5760206040516224ea008152f35b50346101fd57806003193601126101fd576108776120cc565b61087f612677565b600160ff195f8051602061299e8339815191525416175f8051602061299e833981519152557f62e78cea01bee320cd4e420270b5ea74000d11b0c9f74754ebdbfc544b05a2586020604051338152a180f35b50346101fd5760403660031901126101fd57600435906001600160401b0382116101fd5760406109106109073660048601611c46565b60243590611f4c565b60208251918051835201516020820152f35b50346101fd5760203660031901126101fd5760406020916004358152600783522054604051908152f35b50346101fd57806003193601126101fd576004546040516001600160a01b039091168152602090f35b50346101fd57806003193601126101fd5760206040517fa49807205ce4d355092ef5a8a18f56e8913cf4a201fbe287825b095693c217758152f35b50346101fd57806003193601126101fd576006546040516001600160a01b039091168152602090f35b50346101fd57806003193601126101fd57602060ff5f8051602061299e83398151915254166040519015158152f35b50346101fd5760203660031901126101fd57610a22611b8f565b5f8051602061295e83398151915282525f8051602061297e83398151915260209081526040808420335f908152925290205460ff1615610aa257600280546001600160a01b0319166001600160a01b039290921691821790557ff261845a790fe29bbd6631e2ca4a5bdc83e6eed7c3271d9590d97287e00e91238280a280f35b63e2517d3f60e01b8252336004525f8051602061295e833981519152602452604482fd5b50346101fd57806003193601126101fd577f00000000000000000000000000000000000000000000000000000000000000006001600160a01b03163003610b1e5760206040515f8051602061293e8339815191528152f35b63703e46dd60e11b8152600490fd5b50346101fd57806003193601126101fd57602060405160038152f35b50346101fd57806003193601126101fd576001546040516001600160a01b039091168152602090f35b5060403660031901126101fd57610b87611b8f565b906024356001600160401b03811161054757610ba7903690600401611c46565b916001600160a01b037f000000000000000000000000000000000000000000000000000000000000000016308114908115610d76575b50610d67575f8051602061291e83398151915282525f8051602061297e83398151915260209081526040808420335f908152925290205460ff1615610d43576040516352d1902d60e01b8152926001600160a01b0382169190602085600481865afa80958596610d0f575b50610c6157634c9c8ce360e01b84526004839052602484fd5b9091845f8051602061293e8339815191528103610cfd5750823b15610ceb575f8051602061293e83398151915280546001600160a01b031916821790557fbc7cd75a20ee27fd9adebab32041f755214dbc6bffa90cc0225b39da2e5c2d3b8480a2805115610cd2576103eb91612871565b505034610cdc5780f35b63b398979f60e01b8152600490fd5b634c9c8ce360e01b8452600452602483fd5b632a87526960e21b8552600452602484fd5b9095506020813d602011610d3b575b81610d2b60209383611bd4565b8101031261072b5751945f610c48565b3d9150610d1e565b63e2517d3f60e01b8252336004525f8051602061291e833981519152602452604482fd5b63703e46dd60e11b8252600482fd5b5f8051602061293e833981519152546001600160a01b0316141590505f610bdd565b503461072b5761010036600319011261072b576004356001600160401b03811161072b57610dca903690600401611ce7565b610dd2611b63565b9060443591610ddf611b79565b60a4356001600160401b03811161072b573660238201121561072b5780600401356001600160401b03811161072b576024820191602436918360051b01011161072b57610e2a611cd8565b610e3860025f541415611e68565b60025f55610e44612677565b610e6b81610e5336898c611c10565b86610e5f368789611c64565b918b8a60643592611da2565b805f526008602052610e8460ff60405f20541615612074565b805f52600760205260405f2054603c81018091116115bc5742106115d057805f52600760205260405f20546201518081018091116115bc5742101561157757805f52600860205260405f20600160ff198254161790555f5260076020525f6040812055610efa610ef536888b611c10565b61269e565b15611532576224ea0087106114ed576001600160a01b03841691821515908161148a575b610f306106128a61060d368c8f611c10565b94610f3f60e435871115611ec1565b600354600654610f5f9188916001600160a01b039081169133911661275f565b610f6a368a8d611c10565b602081519101209960018060a01b036001541690604051630ddf7fcb60e41b8152602081600481865afa908115611233578b918e915f91611453575b506040516020810191825282604082015260408152610fc6606082611bd4565b5190209387156113cb5750600154604051631ef5ace960e21b815260048101929092526001600160a01b03928316602483015260448201939093526064810189905291602091839160849183915f91165af1908115611233575f91611399575b509783611246575b505050505b8161123e575b50611087575b507fca6abbe9d7f11422cb6ca7629fbf6fe9efb1c621f71ce8f02b9f2a230097404f93929161107d9160405194859460018060a01b03169885611f17565b0390a36001815580f35b611092368689611c10565b6001546040516316aa8a1960e11b8152919291905f90829060049082906001600160a01b03165afa908115611233575f916111ab575b5060016020938480611111946040519784899551918291018487015e840190601760f91b83830152805192839101602183015e01015f838201520301601f198101845283611bd4565b803b1561072b57604051637a806d6b60e01b81526001600160a01b0386166004820181905260248201526044810182905260806064820152915f918391829084908290611162906084830190611d14565b03925af11561103f5761107d9197509161119f5f7fca6abbe9d7f11422cb6ca7629fbf6fe9efb1c621f71ce8f02b9f2a230097404f969594611bd4565b5f97915091929361103f565b90503d805f833e6111bc8183611bd4565b81019060208183031261072b578051906001600160401b03821161072b57019080601f8301121561072b578151936111f385611bf5565b916112016040519384611bd4565b8583526020868501011161072b576020806001935f8289819a826111119a018386015e830101529450505093506110c8565b6040513d5f823e3d90fd5b90505f611039565b5f5b848110611255575061102e565b60246112628287876127f1565b905010611354576112748186866127f1565b60041161072b576112868287876127f1565b918260241161072b575f926112d06020859460405193849160048484019788378b60248401526024602319830191016044840137810186838201520301601f198101835282611bd4565b519082865af13d1561134f573d6112e681611bf5565b906112f46040519283611bd4565b81525f60203d92013e5b1561130b57600101611248565b606460405162461bcd60e51b815260206004820152602060248201527f436f6e74726f6c6c65723a207265736f6c7665722063616c6c206661696c65646044820152fd5b6112fe565b60405162461bcd60e51b815260206004820152601f60248201527f436f6e74726f6c6c65723a20696e76616c6964207265636f72642064617461006044820152606490fd5b90506020813d6020116113c3575b816113b460209383611bd4565b8101031261072b57515f611026565b3d91506113a7565b604051633f2891eb60e21b815260048101929092526001600160a01b038d1660248301526044820193909352959950602094508593506064925083915f91505af1908115611233575f91611421575b5093611033565b90506020813d60201161144b575b8161143c60209383611bd4565b8101031261072b57515f61141a565b3d915061142f565b925050506020813d602011611482575b8161147060209383611bd4565b8101031261072b578c8b91515f610fa6565b3d9150611463565b835f52600960205260ff60405f205416610f1e5760405162461bcd60e51b815260206004820152602160248201527f436f6e74726f6c6c65723a207265736f6c766572206e6f7420617070726f76656044820152601960fa1b6064820152608490fd5b60405162461bcd60e51b815260206004820152601e60248201527f436f6e74726f6c6c65723a206475726174696f6e20746f6f2073686f727400006044820152606490fd5b60405162461bcd60e51b815260206004820152601860248201527f436f6e74726f6c6c65723a20696e76616c6964206e616d6500000000000000006044820152606490fd5b60405162461bcd60e51b815260206004820152601e60248201527f436f6e74726f6c6c65723a20636f6d6d69746d656e74206578706972656400006044820152606490fd5b634e487b7160e01b5f52601160045260245ffd5b60405162461bcd60e51b815260206004820152601e60248201527f436f6e74726f6c6c65723a20636f6d6d69746d656e7420746f6f206e657700006044820152606490fd5b3461072b575f36600319011261072b5761162d6120cc565b5f8051602061299e8339815191525460ff8116156116845760ff19165f8051602061299e833981519152557f5db9ee0a495bf2e6ff9c91a7834c1ba4fdd244a5e8aa4e537bd38aeae4b073aa6020604051338152a1005b638dfc202b60e01b5f5260045ffd5b3461072b575f36600319011261072b576003546040516001600160a01b039091168152602090f35b3461072b5760e036600319011261072b576004356001600160401b03811161072b576116eb903690600401611c46565b6116f3611b63565b6116fb611b79565b9160a435916001600160401b03831161072b573660238401121561072b5760209361173361174a943690602481600401359101611c64565b9161173c611cd8565b936064359160443591611da2565b604051908152f35b3461072b57604036600319011261072b5761176b611b63565b336001600160a01b0382160361178957611787906004356125db565b005b63334bd91960e11b5f5260045ffd5b3461072b5760e036600319011261072b576004356001600160a01b0381169081900361072b576117c6611b63565b6044356001600160a01b038116919082900361072b576064356001600160a01b038116929083900361072b576084356001600160a01b038116939084900361072b5760a4356001600160a01b038116919082900361072b5760c435926001600160a01b038416840361072b575f805160206129be833981519152549460ff8660401c1615976001600160401b03871680159081611a27575b6001149081611a1d575b159081611a14575b50611a055767ffffffffffffffff1987166001175f805160206129be8339815191525561196596896119d9575b506118a6612846565b6118ae612846565b6118b9851515611d56565b6001600160601b0360a01b600154161760015560018060a01b03166001600160601b0360a01b60025416176002556001600160601b0360a01b60035416176003556001600160601b0360a01b6004541617600455836001600160601b0360a01b60055416176005556001600160601b0360a01b600654161760065560015f55611941816121f0565b5061194b8161228c565b5061195581612345565b5061195f816123fe565b506124a4565b505f52600960205260405f20600160ff1982541617905561198257005b68ff0000000000000000195f805160206129be83398151915254165f805160206129be833981519152557fc7f505b2f371ae2175ee4913f4499e1f2633a7b5936321eed1cdaeb6115181d2602060405160018152a1005b68ffffffffffffffffff191668010000000000000001175f805160206129be833981519152558961189d565b63f92ee8a960e01b5f5260045ffd5b9050158a611870565b303b159150611868565b8a915061185e565b3461072b57604036600319011261072b57611787600435611a4e611b63565b90611a5b6103e182611d38565b61254a565b3461072b575f36600319011261072b576020604051603c8152f35b3461072b575f36600319011261072b576002546040516001600160a01b039091168152602090f35b3461072b57602036600319011261072b57602061174a600435611d38565b3461072b575f36600319011261072b5760206040515f8051602061295e8339815191528152f35b3461072b575f36600319011261072b576005546040516001600160a01b039091168152602090f35b3461072b57602036600319011261072b576004359063ffffffff60e01b821680920361072b57602091637965db0b60e01b8114908115611b52575b5015158152f35b6301ffc9a760e01b14905083611b4b565b602435906001600160a01b038216820361072b57565b608435906001600160a01b038216820361072b57565b600435906001600160a01b038216820361072b57565b604081019081106001600160401b03821117611bc057604052565b634e487b7160e01b5f52604160045260245ffd5b90601f801991011681019081106001600160401b03821117611bc057604052565b6001600160401b038111611bc057601f01601f191660200190565b929192611c1c82611bf5565b91611c2a6040519384611bd4565b82948184528183011161072b578281602093845f960137010152565b9080601f8301121561072b57816020611c6193359101611c10565b90565b929190926001600160401b038411611bc0578360051b906020604051611c8c82850182611bd4565b80968152019181019183831161072b5781905b838210611cad575050505050565b81356001600160401b03811161072b57602091611ccd8784938701611c46565b815201910190611c9f565b60c43590811515820361072b57565b9181601f8401121561072b578235916001600160401b03831161072b576020838186019501011161072b57565b805180835260209291819084018484015e5f828201840152601f01601f1916010190565b5f525f8051602061297e833981519152602052600160405f20015490565b15611d5d57565b60405162461bcd60e51b815260206004820152601960248201527f436f6e74726f6c6c65723a207a65726f207472656173757279000000000000006044820152606490fd5b95909594919294602081519101209360405195869460208601986101008701978a5260018060a01b031660408701526060860152608085015260018060a01b031660a084015260e060c0840152815180945261012083019360206101208260051b8601019301945f905b828210611e3657505050611e309350151560e083015203601f198101835282611bd4565b51902090565b91936001919395506020611e56819261011f198b82030186528951611d14565b97019201920186949295939195611e0c565b15611e6f57565b60405162461bcd60e51b815260206004820152601a60248201527f436f6e74726f6c6c65723a207265656e7472616e742063616c6c0000000000006044820152606490fd5b919082018092116115bc57565b15611ec857565b60405162461bcd60e51b815260206004820152602160248201527f436f6e74726f6c6c65723a2070726963652065786365656473206d6178436f736044820152601d60fa1b6064820152608490fd5b90826040936080929796959760608552816060860152838501375f828285010152601f80199101168201019460208201520152565b905f6020604051611f5c81611ba5565b8281520152815160208301209060018060a01b0360025416602060018060a01b036001541693602460405180968193636b727d4360e11b835260048301525afa928315611233575f9361203e575b50611fd6604093948451958694859384936350e9a71560e01b8552606060048601526064850190611d14565b916024840152604483015203915afa908115611233575f91611ff6575090565b90506040813d604011612036575b8161201160409383611bd4565b8101031261072b5760206040519161202883611ba5565b805183520151602082015290565b3d9150612004565b92506020833d60201161206c575b8161205960209383611bd4565b8101031261072b57915191611fd6611faa565b3d915061204c565b1561207b57565b60405162461bcd60e51b815260206004820152602360248201527f436f6e74726f6c6c65723a20636f6d6d69746d656e7420616c726561647920756044820152621cd95960ea1b6064820152608490fd5b335f9081527f75442b0a96088b5456bc4ed01394c96a4feec0f883c9494257d76b96ab1c9b6b602052604090205460ff161561210457565b63e2517d3f60e01b5f52336004527f65d7a28e3265b37a6474929f336521b332c1681b933f6cb9f3376673440d862a60245260445ffd5b335f9081527fb16e88c42fd4e48df2dd6a2eabd6bc9aec654ec170056b470819f8892cc6431c602052604090205460ff161561217357565b63e2517d3f60e01b5f52336004527fa49807205ce4d355092ef5a8a18f56e8913cf4a201fbe287825b095693c2177560245260445ffd5b5f8181525f8051602061297e8339815191526020908152604080832033845290915290205460ff16156121da5750565b63e2517d3f60e01b5f523360045260245260445ffd5b6001600160a01b0381165f9081527fb7db2dd08fcb62d0c9e08c51941cae53c267786a0b75803fb7960902fc8ef97d602052604090205460ff16612287576001600160a01b03165f8181527fb7db2dd08fcb62d0c9e08c51941cae53c267786a0b75803fb7960902fc8ef97d60205260408120805460ff191660011790553391905f805160206128fe8339815191528180a4600190565b505f90565b6001600160a01b0381165f9081527fb16e88c42fd4e48df2dd6a2eabd6bc9aec654ec170056b470819f8892cc6431c602052604090205460ff16612287576001600160a01b03165f8181527fb16e88c42fd4e48df2dd6a2eabd6bc9aec654ec170056b470819f8892cc6431c60205260408120805460ff191660011790553391907fa49807205ce4d355092ef5a8a18f56e8913cf4a201fbe287825b095693c21775905f805160206128fe8339815191529080a4600190565b6001600160a01b0381165f9081527f75442b0a96088b5456bc4ed01394c96a4feec0f883c9494257d76b96ab1c9b6b602052604090205460ff16612287576001600160a01b03165f8181527f75442b0a96088b5456bc4ed01394c96a4feec0f883c9494257d76b96ab1c9b6b60205260408120805460ff191660011790553391907f65d7a28e3265b37a6474929f336521b332c1681b933f6cb9f3376673440d862a905f805160206128fe8339815191529080a4600190565b6001600160a01b0381165f9081527f0b45fb0a7d123af421db170fce034e3ce3a70e5f1150428004face1400c458f2602052604090205460ff16612287576001600160a01b03165f8181527f0b45fb0a7d123af421db170fce034e3ce3a70e5f1150428004face1400c458f260205260408120805460ff191660011790553391905f8051602061295e833981519152905f805160206128fe8339815191529080a4600190565b6001600160a01b0381165f9081527fab71e3f32666744d246edff3f96e4bdafee2e9867098cdd118a979a7464786a8602052604090205460ff16612287576001600160a01b03165f8181527fab71e3f32666744d246edff3f96e4bdafee2e9867098cdd118a979a7464786a860205260408120805460ff191660011790553391905f8051602061291e833981519152905f805160206128fe8339815191529080a4600190565b5f8181525f8051602061297e833981519152602090815260408083206001600160a01b038616845290915290205460ff166125d5575f8181525f8051602061297e833981519152602090815260408083206001600160a01b0395909516808452949091528120805460ff19166001179055339291905f805160206128fe8339815191529080a4600190565b50505f90565b5f8181525f8051602061297e833981519152602090815260408083206001600160a01b038616845290915290205460ff16156125d5575f8181525f8051602061297e833981519152602090815260408083206001600160a01b0395909516808452949091528120805460ff19169055339291907ff6391f5c32d9c69d2a47ea670b442974b53935d1edc7fd64eb21e047a839171b9080a4600190565b60ff5f8051602061299e833981519152541661268f57565b63d93c066560e01b5f5260045ffd5b6003815110612287575f5b815181101561275857818101602001516001600160f81b031916606160f81b8110158061274a575b801561272d575b8015612720575b1561271957602d60f81b14806126fc575b6125d5576001016126a9565b508015806126f0575081515f1981019081116115bc5781146126f0565b5050505f90565b50602d60f81b81146126df565b50600360fc1b81108015906126d85750603960f81b8111156126d8565b50603d60f91b8111156126d1565b5050600190565b6040516323b872dd60e01b5f9081526001600160a01b039384166004529290931660245260449390935260209060648180865af19060015f51148216156127d0575b6040525f606052156127b05750565b635274afe760e01b5f9081526001600160a01b0391909116600452602490fd5b9060018115166127e857823b15153d151616906127a1565b503d5f823e3d90fd5b91908110156128325760051b81013590601e198136030182121561072b5701908135916001600160401b03831161072b57602001823603811361072b579190565b634e487b7160e01b5f52603260045260245ffd5b60ff5f805160206129be8339815191525460401c161561286257565b631afcd79f60e31b5f5260045ffd5b905f8091602081519101845af480806128ea575b156128a55750506040513d81523d5f602083013e60203d82010160405290565b156128ca57639996b31560e01b5f9081526001600160a01b0391909116600452602490fd5b3d156128db576040513d5f823e3d90fd5b63d6bda27560e01b5f5260045ffd5b503d1515806128855750813b151561288556fe2f8788117e7eff1d82e926ec794901d17c78024a50270940304540a733656f0d189ab7a9244df0848122154315af71fe140f3db0fe014031783b0946b8c9d2e3360894a13ba1a3210667c828492db98dca3e2076cc3735a920a3ca505d382bbc68e79a7bf1e0bc45d0a330c573bc367f9cf464fd326078812f301165fbda4ef102dd7bc7dec4dceedda775e58dd541e08a116c6c53815c0bd028192f7b626800cd5ed15c6e187e77e9aee88184c21f4f2182ab5827cb3b7e07fbedcd63f03300f0c57e16840df040f15088dc2f81fe391c3923bec73e23a9662efc9c229c6a00a264697066735822122010b3ed791016077e3932cbc2ceb77ea8cd32a2e1fdab285aa7d0b2d10de195b164736f6c634300081a0033",
  "linkReferences": {},
  "deployedLinkReferences": {}
}