{
  "_format": "hh-sol-artifact-1",
  "contractName": "ArcNSResolverV2",
  "sourceName": "contracts/resolver/ArcNSResolverV2.sol",
  "abi": [
    {
      "inputs": [],
      "stateMutability": "nonpayable",
      "type": "constructor"
    },
    {
      "inputs": [],
      "name": "AccessControlBadConfirmation",
      "type": "error"
    },
    {
      "inputs": [
        {
          "internalType": "address",
          "name": "account",
          "type": "address"
        },
        {
          "internalType": "bytes32",
          "name": "neededRole",
          "type": "bytes32"
        }
      ],
      "name": "AccessControlUnauthorizedAccount",
      "type": "error"
    },
    {
      "inputs": [
        {
          "internalType": "address",
          "name": "target",
          "type": "address"
        }
      ],
      "name": "AddressEmptyCode",
      "type": "error"
    },
    {
      "inputs": [
        {
          "internalType": "address",
          "name": "implementation",
          "type": "address"
        }
      ],
      "name": "ERC1967InvalidImplementation",
      "type": "error"
    },
    {
      "inputs": [],
      "name": "ERC1967NonPayable",
      "type": "error"
    },
    {
      "inputs": [],
      "name": "FailedCall",
      "type": "error"
    },
    {
      "inputs": [],
      "name": "InvalidInitialization",
      "type": "error"
    },
    {
      "inputs": [],
      "name": "NotInitializing",
      "type": "error"
    },
    {
      "inputs": [],
      "name": "UUPSUnauthorizedCallContext",
      "type": "error"
    },
    {
      "inputs": [
        {
          "internalType": "bytes32",
          "name": "slot",
          "type": "bytes32"
        }
      ],
      "name": "UUPSUnsupportedProxiableUUID",
      "type": "error"
    },
    {
      "anonymous": false,
      "inputs": [
        {
          "indexed": true,
          "internalType": "bytes32",
          "name": "node",
          "type": "bytes32"
        },
        {
          "indexed": false,
          "internalType": "address",
          "name": "a",
          "type": "address"
        }
      ],
      "name": "AddrChanged",
      "type": "event"
    },
    {
      "anonymous": false,
      "inputs": [
        {
          "indexed": true,
          "internalType": "bytes32",
          "name": "node",
          "type": "bytes32"
        },
        {
          "indexed": false,
          "internalType": "uint256",
          "name": "coinType",
          "type": "uint256"
        },
        {
          "indexed": false,
          "internalType": "bytes",
          "name": "newAddress",
          "type": "bytes"
        }
      ],
      "name": "AddressChanged",
      "type": "event"
    },
    {
      "anonymous": false,
      "inputs": [
        {
          "indexed": true,
          "internalType": "bytes32",
          "name": "node",
          "type": "bytes32"
        },
        {
          "indexed": false,
          "internalType": "bytes",
          "name": "hash",
          "type": "bytes"
        }
      ],
      "name": "ContenthashChanged",
      "type": "event"
    },
    {
      "anonymous": false,
      "inputs": [
        {
          "indexed": false,
          "internalType": "uint64",
          "name": "version",
          "type": "uint64"
        }
      ],
      "name": "Initialized",
      "type": "event"
    },
    {
      "anonymous": false,
      "inputs": [
        {
          "indexed": true,
          "internalType": "bytes32",
          "name": "node",
          "type": "bytes32"
        },
        {
          "indexed": false,
          "internalType": "string",
          "name": "name",
          "type": "string"
        }
      ],
      "name": "NameChanged",
      "type": "event"
    },
    {
      "anonymous": false,
      "inputs": [
        {
          "indexed": true,
          "internalType": "bytes32",
          "name": "role",
          "type": "bytes32"
        },
        {
          "indexed": true,
          "internalType": "bytes32",
          "name": "previousAdminRole",
          "type": "bytes32"
        },
        {
          "indexed": true,
          "internalType": "bytes32",
          "name": "newAdminRole",
          "type": "bytes32"
        }
      ],
      "name": "RoleAdminChanged",
      "type": "event"
    },
    {
      "anonymous": false,
      "inputs": [
        {
          "indexed": true,
          "internalType": "bytes32",
          "name": "role",
          "type": "bytes32"
        },
        {
          "indexed": true,
          "internalType": "address",
          "name": "account",
          "type": "address"
        },
        {
          "indexed": true,
          "internalType": "address",
          "name": "sender",
          "type": "address"
        }
      ],
      "name": "RoleGranted",
      "type": "event"
    },
    {
      "anonymous": false,
      "inputs": [
        {
          "indexed": true,
          "internalType": "bytes32",
          "name": "role",
          "type": "bytes32"
        },
        {
          "indexed": true,
          "internalType": "address",
          "name": "account",
          "type": "address"
        },
        {
          "indexed": true,
          "internalType": "address",
          "name": "sender",
          "type": "address"
        }
      ],
      "name": "RoleRevoked",
      "type": "event"
    },
    {
      "anonymous": false,
      "inputs": [
        {
          "indexed": true,
          "internalType": "bytes32",
          "name": "node",
          "type": "bytes32"
        },
        {
          "indexed": true,
          "internalType": "string",
          "name": "indexedKey",
          "type": "string"
        },
        {
          "indexed": false,
          "internalType": "string",
          "name": "key",
          "type": "string"
        },
        {
          "indexed": false,
          "internalType": "string",
          "name": "value",
          "type": "string"
        }
      ],
      "name": "TextChanged",
      "type": "event"
    },
    {
      "anonymous": false,
      "inputs": [
        {
          "indexed": true,
          "internalType": "address",
          "name": "implementation",
          "type": "address"
        }
      ],
      "name": "Upgraded",
      "type": "event"
    },
    {
      "inputs": [],
      "name": "ADMIN_ROLE",
      "outputs": [
        {
          "internalType": "bytes32",
          "name": "",
          "type": "bytes32"
        }
      ],
      "stateMutability": "view",
      "type": "function"
    },
    {
      "inputs": [],
      "name": "CONTROLLER_ROLE",
      "outputs": [
        {
          "internalType": "bytes32",
          "name": "",
          "type": "bytes32"
        }
      ],
      "stateMutability": "view",
      "type": "function"
    },
    {
      "inputs": [],
      "name": "DEFAULT_ADMIN_ROLE",
      "outputs": [
        {
          "internalType": "bytes32",
          "name": "",
          "type": "bytes32"
        }
      ],
      "stateMutability": "view",
      "type": "function"
    },
    {
      "inputs": [],
      "name": "UPGRADER_ROLE",
      "outputs": [
        {
          "internalType": "bytes32",
          "name": "",
          "type": "bytes32"
        }
      ],
      "stateMutability": "view",
      "type": "function"
    },
    {
      "inputs": [],
      "name": "UPGRADE_INTERFACE_VERSION",
      "outputs": [
        {
          "internalType": "string",
          "name": "",
          "type": "string"
        }
      ],
      "stateMutability": "view",
      "type": "function"
    },
    {
      "inputs": [
        {
          "internalType": "bytes32",
          "name": "node",
          "type": "bytes32"
        }
      ],
      "name": "addr",
      "outputs": [
        {
          "internalType": "address payable",
          "name": "",
          "type": "address"
        }
      ],
      "stateMutability": "view",
      "type": "function"
    },
    {
      "inputs": [
        {
          "internalType": "bytes32",
          "name": "node",
          "type": "bytes32"
        },
        {
          "internalType": "uint256",
          "name": "coinType",
          "type": "uint256"
        }
      ],
      "name": "addr",
      "outputs": [
        {
          "internalType": "bytes",
          "name": "",
          "type": "bytes"
        }
      ],
      "stateMutability": "view",
      "type": "function"
    },
    {
      "inputs": [
        {
          "internalType": "bytes32",
          "name": "node",
          "type": "bytes32"
        }
      ],
      "name": "contenthash",
      "outputs": [
        {
          "internalType": "bytes",
          "name": "",
          "type": "bytes"
        }
      ],
      "stateMutability": "view",
      "type": "function"
    },
    {
      "inputs": [
        {
          "internalType": "bytes32",
          "name": "role",
          "type": "bytes32"
        }
      ],
      "name": "getRoleAdmin",
      "outputs": [
        {
          "internalType": "bytes32",
          "name": "",
          "type": "bytes32"
        }
      ],
      "stateMutability": "view",
      "type": "function"
    },
    {
      "inputs": [
        {
          "internalType": "bytes32",
          "name": "role",
          "type": "bytes32"
        },
        {
          "internalType": "address",
          "name": "account",
          "type": "address"
        }
      ],
      "name": "grantRole",
      "outputs": [],
      "stateMutability": "nonpayable",
      "type": "function"
    },
    {
      "inputs": [
        {
          "internalType": "bytes32",
          "name": "role",
          "type": "bytes32"
        },
        {
          "internalType": "address",
          "name": "account",
          "type": "address"
        }
      ],
      "name": "hasRole",
      "outputs": [
        {
          "internalType": "bool",
          "name": "",
          "type": "bool"
        }
      ],
      "stateMutability": "view",
      "type": "function"
    },
    {
      "inputs": [
        {
          "internalType": "contract IArcNSRegistry",
          "name": "_registry",
          "type": "address"
        },
        {
          "internalType": "address",
          "name": "_admin",
          "type": "address"
        }
      ],
      "name": "initialize",
      "outputs": [],
      "stateMutability": "nonpayable",
      "type": "function"
    },
    {
      "inputs": [
        {
          "internalType": "bytes32",
          "name": "node",
          "type": "bytes32"
        }
      ],
      "name": "name",
      "outputs": [
        {
          "internalType": "string",
          "name": "",
          "type": "string"
        }
      ],
      "stateMutability": "view",
      "type": "function"
    },
    {
      "inputs": [],
      "name": "proxiableUUID",
      "outputs": [
        {
          "internalType": "bytes32",
          "name": "",
          "type": "bytes32"
        }
      ],
      "stateMutability": "view",
      "type": "function"
    },
    {
      "inputs": [],
      "name": "registry",
      "outputs": [
        {
          "internalType": "contract IArcNSRegistry",
          "name": "",
          "type": "address"
        }
      ],
      "stateMutability": "view",
      "type": "function"
    },
    {
      "inputs": [
        {
          "internalType": "bytes32",
          "name": "role",
          "type": "bytes32"
        },
        {
          "internalType": "address",
          "name": "callerConfirmation",
          "type": "address"
        }
      ],
      "name": "renounceRole",
      "outputs": [],
      "stateMutability": "nonpayable",
      "type": "function"
    },
    {
      "inputs": [
        {
          "internalType": "bytes32",
          "name": "role",
          "type": "bytes32"
        },
        {
          "internalType": "address",
          "name": "account",
          "type": "address"
        }
      ],
      "name": "revokeRole",
      "outputs": [],
      "stateMutability": "nonpayable",
      "type": "function"
    },
    {
      "inputs": [
        {
          "internalType": "bytes32",
          "name": "node",
          "type": "bytes32"
        },
        {
          "internalType": "uint256",
          "name": "coinType",
          "type": "uint256"
        },
        {
          "internalType": "bytes",
          "name": "newAddress",
          "type": "bytes"
        }
      ],
      "name": "setAddr",
      "outputs": [],
      "stateMutability": "nonpayable",
      "type": "function"
    },
    {
      "inputs": [
        {
          "internalType": "bytes32",
          "name": "node",
          "type": "bytes32"
        },
        {
          "internalType": "address",
          "name": "a",
          "type": "address"
        }
      ],
      "name": "setAddr",
      "outputs": [],
      "stateMutability": "nonpayable",
      "type": "function"
    },
    {
      "inputs": [
        {
          "internalType": "bytes32",
          "name": "node",
          "type": "bytes32"
        },
        {
          "internalType": "bytes",
          "name": "hash",
          "type": "bytes"
        }
      ],
      "name": "setContenthash",
      "outputs": [],
      "stateMutability": "nonpayable",
      "type": "function"
    },
    {
      "inputs": [
        {
          "internalType": "address",
          "name": "controller",
          "type": "address"
        },
        {
          "internalType": "bool",
          "name": "trusted",
          "type": "bool"
        }
      ],
      "name": "setController",
      "outputs": [],
      "stateMutability": "nonpayable",
      "type": "function"
    },
    {
      "inputs": [
        {
          "internalType": "bytes32",
          "name": "node",
          "type": "bytes32"
        },
        {
          "internalType": "string",
          "name": "name_",
          "type": "string"
        }
      ],
      "name": "setName",
      "outputs": [],
      "stateMutability": "nonpayable",
      "type": "function"
    },
    {
      "inputs": [
        {
          "internalType": "address",
          "name": "addr_",
          "type": "address"
        },
        {
          "internalType": "address",
          "name": "",
          "type": "address"
        },
        {
          "internalType": "address",
          "name": "",
          "type": "address"
        },
        {
          "internalType": "string",
          "name": "name_",
          "type": "string"
        }
      ],
      "name": "setNameForAddr",
      "outputs": [],
      "stateMutability": "nonpayable",
      "type": "function"
    },
    {
      "inputs": [
        {
          "internalType": "bytes32",
          "name": "node",
          "type": "bytes32"
        },
        {
          "internalType": "string",
          "name": "key",
          "type": "string"
        },
        {
          "internalType": "string",
          "name": "value",
          "type": "string"
        }
      ],
      "name": "setText",
      "outputs": [],
      "stateMutability": "nonpayable",
      "type": "function"
    },
    {
      "inputs": [
        {
          "internalType": "bytes4",
          "name": "interfaceID",
          "type": "bytes4"
        }
      ],
      "name": "supportsInterface",
      "outputs": [
        {
          "internalType": "bool",
          "name": "",
          "type": "bool"
        }
      ],
      "stateMutability": "view",
      "type": "function"
    },
    {
      "inputs": [
        {
          "internalType": "bytes32",
          "name": "node",
          "type": "bytes32"
        },
        {
          "internalType": "string",
          "name": "key",
          "type": "string"
        }
      ],
      "name": "text",
      "outputs": [
        {
          "internalType": "string",
          "name": "",
          "type": "string"
        }
      ],
      "stateMutability": "view",
      "type": "function"
    },
    {
      "inputs": [
        {
          "internalType": "address",
          "name": "newImplementation",
          "type": "address"
        },
        {
          "internalType": "bytes",
          "name": "data",
          "type": "bytes"
        }
      ],
      "name": "upgradeToAndCall",
      "outputs": [],
      "stateMutability": "payable",
      "type": "function"
    }
  ],
  "bytecode": "0x60a080604052346100e857306080527ff0c57e16840df040f15088dc2f81fe391c3923bec73e23a9662efc9c229c6a005460ff8160401c166100d9576002600160401b03196001600160401b03821601610073575b60405161284590816100ed82396080518181816109fd0152610b250152f35b6001600160401b0319166001600160401b039081177ff0c57e16840df040f15088dc2f81fe391c3923bec73e23a9662efc9c229c6a005581527fc7f505b2f371ae2175ee4913f4499e1f2633a7b5936321eed1cdaeb6115181d290602090a15f80610054565b63f92ee8a960e01b5f5260045ffd5b5f80fdfe60806040526004361015610011575f80fd5b5f3560e01c806301ffc9a7146101c4578063092c5b3b146101bf57806310f13a8c146101ba578063248a9ca3146101b55780632f2ff15d146101b0578063304e6ade146101ab57806336568abe146101a65780633b3b57de146101a1578063485cc9551461019c5780634f1ef2861461019757806352d1902d1461019257806359d1d43c1461018d578063691f34311461018857806375b238fc14610183578063773722131461017e5780637a806d6b146101795780637b103999146101745780638b95dd711461016f57806391d148541461016a578063a217fddf14610165578063ad3cb1cc14610160578063bc1c58d11461015b578063d547741f14610156578063d5fa2b0014610151578063e0dba60f1461014c578063f1cb7e06146101475763f72c0d8b14610142575f80fd5b61145a565b611418565b61136b565b6111da565b6111a6565b611172565b61112b565b611111565b6110b3565b610f33565b610f0c565b610dc3565b610c6b565b610c31565b610bfd565b610b9f565b610b13565b6109bb565b610795565b610765565b61071d565b6105a5565b610539565b610502565b6102f8565b6102a4565b346102a05760203660031901126102a0576004356001600160e01b031981168082036102a05761023791631d9dabef60e11b821491821561028f575b821561027e575b821561026d575b821561025c575b821561024b575b50811561023b575b5060405190151581529081906020820190565b0390f35b6102459150611d22565b5f610224565b6301ffc9a760e01b1491505f61021c565b63691f343160e01b81149250610215565b63bc1c58d160e01b8114925061020e565b631674750f60e21b81149250610207565b6378e5bf0360e11b81149250610200565b5f80fd5b346102a0575f3660031901126102a05760206040515f805160206127708339815191528152f35b9181601f840112156102a0578235916001600160401b0383116102a057602083818601950101116102a057565b346102a05760603660031901126102a0576004356024356001600160401b0381116102a05761032b9036906004016102cb565b906044356001600160401b0381116102a05761034b9036906004016102cb565b5f54909391929061036c906001600160a01b03165b6001600160a01b031690565b6040516302571be360e01b8152600481018790529095906020816024818a5afa9081156104af575f916104e3575b506001600160a01b0316331480156103ff575b6103c7965080156103c9575b6103c2906114c9565b611629565b005b506103c26103f86103f1336103dc611515565b9060018060a01b03165f5260205260405f2090565b5460ff1690565b90506103b9565b506040516302571be360e01b8152600481018290526020816024818a5afa80156104af57610465976020925f926104b4575b5060405163e985e9c560e01b81526001600160a01b0390921660048301523360248301529097889190829081906044820190565b03915afa80156104af576103c7965f91610480575b506103ad565b6104a2915060203d6020116104a8575b61049a8183610926565b8101906114b4565b5f61047a565b503d610490565b6114a9565b6104d5919250833d85116104dc575b6104cd8183610926565b810190611494565b905f610431565b503d6104c3565b6104fc915060203d6020116104dc576104cd8183610926565b5f61039a565b346102a05760203660031901126102a0576020610520600435611782565b604051908152f35b6001600160a01b038116036102a057565b346102a05760403660031901126102a0576103c760243560043561055c82610528565b61056d61056882611782565b611dbd565b6120a4565b9060406003198301126102a05760043591602435906001600160401b0382116102a0576105a1916004016102cb565b9091565b346102a0576105b336610572565b5f549091906105ca906001600160a01b0316610360565b6040516302571be360e01b815260048101859052909390602081602481885afa9081156104af575f916106fe575b506001600160a01b03163314801561063f575b6103c794508015610625575b610620906114c9565b6117b1565b506106206106386103f1336103dc611515565b9050610617565b506040516302571be360e01b815260048101829052602081602481885afa80156104af576106a5956020925f926106df575b5060405163e985e9c560e01b81526001600160a01b0390921660048301523360248301529095869190829081906044820190565b03915afa80156104af576103c7945f916106c0575b5061060b565b6106d9915060203d6020116104a85761049a8183610926565b5f6106ba565b6106f7919250833d85116104dc576104cd8183610926565b905f610671565b610717915060203d6020116104dc576104cd8183610926565b5f6105f8565b346102a05760403660031901126102a05760043560243561073d81610528565b336001600160a01b03821603610756576103c7916121ca565b63334bd91960e11b5f5260045ffd5b346102a05760203660031901126102a057602061078360043561195e565b6040516001600160a01b039091168152f35b346102a05760403660031901126102a0576004356107b281610528565b602435906107bf82610528565b5f805160206127f083398151915254916001600160401b036107f060ff604086901c1615946001600160401b031690565b168015908161090a575b6001149081610900575b1590816108f7575b506108e85761084f918361084660016001600160401b03195f805160206127f08339815191525416175f805160206127f083398151915255565b6108ae576119a8565b61085557005b61087f60ff60401b195f805160206127f083398151915254165f805160206127f083398151915255565b604051600181527fc7f505b2f371ae2175ee4913f4499e1f2633a7b5936321eed1cdaeb6115181d290602090a1005b6108e36801000000000000000060ff60401b195f805160206127f08339815191525416175f805160206127f083398151915255565b6119a8565b63f92ee8a960e01b5f5260045ffd5b9050155f61080c565b303b159150610804565b8491506107fa565b634e487b7160e01b5f52604160045260245ffd5b90601f801991011681019081106001600160401b0382111761094757604052565b610912565b6001600160401b03811161094757601f01601f191660200190565b9291926109738261094c565b916109816040519384610926565b8294818452818301116102a0578281602093845f960137010152565b9080601f830112156102a0578160206109b893359101610967565b90565b60403660031901126102a0576004356109d381610528565b6024356001600160401b0381116102a0576109f290369060040161099d565b906001600160a01b037f000000000000000000000000000000000000000000000000000000000000000016308114908115610af1575b50610ae257610a35611d4e565b6040516352d1902d60e01b8152916020836004816001600160a01b0386165afa5f9381610ab1575b50610a7e57634c9c8ce360e01b5f526001600160a01b03821660045260245ffd5b905f805160206127908339815191528303610a9d576103c79250612572565b632a87526960e21b5f52600483905260245ffd5b610ad491945060203d602011610adb575b610acc8183610926565b8101906122be565b925f610a5d565b503d610ac2565b63703e46dd60e11b5f5260045ffd5b5f80516020612790833981519152546001600160a01b0316141590505f610a28565b346102a0575f3660031901126102a0577f00000000000000000000000000000000000000000000000000000000000000006001600160a01b03163003610ae25760206040515f805160206127908339815191528152f35b805180835260209291819084018484015e5f828201840152601f01601f1916010190565b9060206109b8928181520190610b6a565b346102a057610237610be2610be96020610bb836610572565b92915f526002825260405f20836040519485938437820190815203019020604051928380926118dd565b0382610926565b604051918291602083526020830190610b6a565b346102a05760203660031901126102a0576004355f526004602052610237610be2610be960405f20604051928380926118dd565b346102a0575f3660031901126102a05760206040517fa49807205ce4d355092ef5a8a18f56e8913cf4a201fbe287825b095693c217758152f35b346102a057610c7936610572565b5f54909190610c90906001600160a01b0316610360565b6040516302571be360e01b815260048101859052909390602081602481885afa9081156104af575f91610da4575b506001600160a01b031633148015610d05575b6103c794508015610ceb575b610ce6906114c9565b611a10565b50610ce6610cfe6103f1336103dc611515565b9050610cdd565b506040516302571be360e01b815260048101829052602081602481885afa80156104af57610d6a956020925f926106df575060405163e985e9c560e01b81526001600160a01b0390921660048301523360248301529095869190829081906044820190565b03915afa80156104af576103c7945f91610d85575b50610cd1565b610d9e915060203d6020116104a85761049a8183610926565b5f610d7f565b610dbd915060203d6020116104dc576104cd8183610926565b5f610cbe565b346102a05760803660031901126102a057600435610de081610528565b610deb602435610528565b610df6604435610528565b6064356001600160401b0381116102a057366023820112156102a057610e26903690602481600401359101610967565b90336001600160a01b038216148015610ee8575b15610e9957610e94610e6c7fb7d29e911041e8d9b843369e890bcb72c9388692ba48b65ac54e7214c4c348f7926122df565b92610e8881610e83865f52600460205260405f2090565b611afa565b60405191829182610b8e565b0390a2005b60405162461bcd60e51b815260206004820152602160248201527f5265736f6c7665723a206e6f7420617574686f726973656420666f72206164646044820152603960f91b6064820152608490fd5b50335f9081525f805160206127b0833981519152602052604090205460ff16610e3a565b346102a0575f3660031901126102a0575f546040516001600160a01b039091168152602090f35b346102a05760603660031901126102a0576004356024356044356001600160401b0381116102a057610f6990369060040161099d565b5f54909190610f80906001600160a01b0316610360565b6040516302571be360e01b815260048101859052909390602081602481885afa9081156104af575f91611094575b506001600160a01b031633148015610ff5575b6103c794508015610fdb575b610fd6906114c9565b612435565b50610fd6610fee6103f1336103dc611515565b9050610fcd565b506040516302571be360e01b815260048101829052602081602481885afa80156104af5761105a956020925f926106df575060405163e985e9c560e01b81526001600160a01b0390921660048301523360248301529095869190829081906044820190565b03915afa80156104af576103c7945f91611075575b50610fc1565b61108e915060203d6020116104a85761049a8183610926565b5f61106f565b6110ad915060203d6020116104dc576104cd8183610926565b5f610fae565b346102a05760403660031901126102a057602060ff6111056024356004356110da82610528565b5f525f805160206127d0833981519152845260405f209060018060a01b03165f5260205260405f2090565b54166040519015158152f35b346102a0575f3660031901126102a05760206040515f8152f35b346102a0575f3660031901126102a05761023760405161114c604082610926565b60058152640352e302e360dc1b6020820152604051918291602083526020830190610b6a565b346102a05760203660031901126102a0576004355f526003602052610237610be2610be960405f20604051928380926118dd565b346102a05760403660031901126102a0576103c76024356004356111c982610528565b6111d561056882611782565b6121ca565b346102a05760403660031901126102a0576004356024356111fa81610528565b5f5461120e906001600160a01b0316610360565b6040516302571be360e01b815260048101849052909290602081602481875afa9081156104af575f91611342575b506001600160a01b031633148015611283575b6103c793508015611269575b611264906114c9565b611bc5565b5061126461127c6103f1336103dc611515565b905061125b565b506040516302571be360e01b815260048101829052602081602481875afa80156104af576112e9946020925f92611323575b5060405163e985e9c560e01b81526001600160a01b0390921660048301523360248301529094859190829081906044820190565b03915afa80156104af576103c7935f91611304575b5061124f565b61131d915060203d6020116104a85761049a8183610926565b5f6112fe565b61133b919250833d85116104dc576104cd8183610926565b905f6112b5565b61135b915060203d6020116104dc576104cd8183610926565b5f61123c565b801515036102a057565b346102a05760403660031901126102a05760043561138881610528565b60243561139481611361565b335f9081527fb16e88c42fd4e48df2dd6a2eabd6bc9aec654ec170056b470819f8892cc6431c602052604090205460ff16156113e157156113d8576103c790611e03565b6103c790612139565b63e2517d3f60e01b5f52336004527fa49807205ce4d355092ef5a8a18f56e8913cf4a201fbe287825b095693c2177560245260445ffd5b346102a05760403660031901126102a057600435602435905f52600160205260405f20905f52602052610237610be2610be960405f20604051928380926118dd565b346102a0575f3660031901126102a05760206040517f189ab7a9244df0848122154315af71fe140f3db0fe014031783b0946b8c9d2e38152f35b908160209103126102a057516109b881610528565b6040513d5f823e3d90fd5b908160209103126102a057516109b881611361565b156114d057565b60405162461bcd60e51b815260206004820152601860248201527f5265736f6c7665723a206e6f7420617574686f726973656400000000000000006044820152606490fd5b5f805160206127708339815191525f525f805160206127d08339815191526020525f805160206127b083398151915290565b90600182811c92168015611575575b602083101461156157565b634e487b7160e01b5f52602260045260245ffd5b91607f1691611556565b601f821161158c57505050565b5f5260205f20906020601f840160051c830193106115c4575b601f0160051c01905b8181106115b9575050565b5f81556001016115ae565b90915081906115a5565b81604051928392833781015f815203902090565b908060209392818452848401375f828201840152601f01601f1916010190565b929061161b906109b895936040865260408601916115e2565b9260208185039101526115e2565b9190949394825f52600260205260405f20602060405180928585833785820190815203019020956001600160401b038111610947576116728161166c8954611547565b8961157f565b5f96601f82116001146116f257906116e2916116c882807f448bc014f1536726cf8d54ff3d6481ed3cbc683c2591ca204274009afa09b1a198999a9b5f916116e7575b508160011b915f199060031b1c19161790565b90555b6116d584846115ce565b9660405194859485611602565b0390a3565b90508a01355f6116b5565b601f198216611704825f5260205f2090565b905f5b81811061176a5750907f448bc014f1536726cf8d54ff3d6481ed3cbc683c2591ca204274009afa09b1a196979899846116e295949310611751575b5050600182811b0190556116cb565b8901355f19600385901b60f8161c191690555f80611742565b888b0135835560209a8b019a60019093019201611707565b5f525f805160206127d0833981519152602052600160405f20015490565b9160206109b89381815201916115e2565b909291815f52600360205260405f20936001600160401b038211610947576117e3826117dd8754611547565b8761157f565b5f94601f83116001146118545761183283807fe379c1624ed7e714cc0937528a32359d69d5281337765313dba4e081b72d75789697985f9161184957508160011b915f199060031b1c19161790565b90555b611844604051928392836117a0565b0390a2565b90508401355f6116b5565b601f19831695611867825f5260205f2090565b905f5b8881106118c55750847fe379c1624ed7e714cc0937528a32359d69d5281337765313dba4e081b72d7578969798106118ac575b5050600183811b019055611835565b8301355f19600386901b60f8161c191690555f8061189d565b9091602060018192858801358155019301910161186a565b5f92918154916118ec83611547565b8083529260018116908115611941575060011461190857505050565b5f9081526020812093945091925b838310611927575060209250010190565b600181602092949394548385870101520191019190611916565b915050602093945060ff929192191683830152151560051b010190565b5f52600160205260405f20603c5f52602052610be261198660405f20604051928380926118dd565b8051156119a3576001600160a01b039061199f9061226a565b1690565b505f90565b9060ff5f805160206127f08339815191525460401c1615611a01576119fe9160018060a01b03166bffffffffffffffffffffffff60a01b5f5416175f556119ee81611e8b565b506119f881611f22565b50611fe3565b50565b631afcd79f60e31b5f5260045ffd5b909291815f52600460205260405f20936001600160401b03821161094757611a3c826117dd8754611547565b5f94601f8311600114611a8b5761183283807fb7d29e911041e8d9b843369e890bcb72c9388692ba48b65ac54e7214c4c348f79697985f9161184957508160011b915f199060031b1c19161790565b601f19831695611a9e825f5260205f2090565b905f5b888110611ae25750847fb7d29e911041e8d9b843369e890bcb72c9388692ba48b65ac54e7214c4c348f7969798106118ac575050600183811b019055611835565b90916020600181928588013581550193019101611aa1565b91909182516001600160401b03811161094757611b2181611b1b8454611547565b8461157f565b6020601f8211600114611b60578190611b519394955f92611b55575b50508160011b915f199060031b1c19161790565b9055565b015190505f80611b3d565b601f19821690611b73845f5260205f2090565b915f5b818110611bad57509583600195969710611b95575b505050811b019055565b01515f1960f88460031b161c191690555f8080611b8b565b9192602060018192868b015181550194019201611b76565b60405160609290921b6bffffffffffffffffffffffff1916602083015260148252909190611bf4603484610926565b807f65412581168e88a1e60c6459d7f44ae83ad0832e670826c05a4e2476b57af752604051603c81526040602082015280611c326040820188610b6a565b0390a2807f52d7d861f09ab3d26239d492e8968629f95e9e318cf0b73bfddc441522a15fd26020611c628661226a565b6040516001600160a01b039091168152a25f52600160205260405f20603c5f5260205260405f2082516001600160401b03811161094757611ca781611b1b8454611547565b6020601f8211600114611cd6578190611b519394955f92611b555750508160011b915f199060031b1c19161790565b601f19821690611ce9845f5260205f2090565b915f5b818110611d0a57509583600195969710611b9557505050811b019055565b9192602060018192868b015181550194019201611cec565b63ffffffff60e01b16637965db0b60e01b8114908115611d40575090565b6301ffc9a760e01b14919050565b335f9081527fab71e3f32666744d246edff3f96e4bdafee2e9867098cdd118a979a7464786a8602052604090205460ff1615611d8657565b63e2517d3f60e01b5f52336004527f189ab7a9244df0848122154315af71fe140f3db0fe014031783b0946b8c9d2e360245260445ffd5b5f8181525f805160206127d08339815191526020908152604080832033845290915290205460ff1615611ded5750565b63e2517d3f60e01b5f523360045260245260445ffd5b6001600160a01b0381165f9081525f805160206127b0833981519152602052604090205460ff166119a3576001600160a01b0381165f9081525f805160206127b083398151915260205260409020805460ff1916600117905533906001600160a01b03165f805160206127708339815191525f805160206127508339815191525f80a4600190565b6001600160a01b0381165f9081527fb7db2dd08fcb62d0c9e08c51941cae53c267786a0b75803fb7960902fc8ef97d602052604090205460ff166119a3576001600160a01b03165f8181527fb7db2dd08fcb62d0c9e08c51941cae53c267786a0b75803fb7960902fc8ef97d60205260408120805460ff191660011790553391905f805160206127508339815191528180a4600190565b6001600160a01b0381165f9081527fb16e88c42fd4e48df2dd6a2eabd6bc9aec654ec170056b470819f8892cc6431c602052604090205460ff166119a3576001600160a01b0381165f9081527fb16e88c42fd4e48df2dd6a2eabd6bc9aec654ec170056b470819f8892cc6431c60205260409020805460ff1916600117905533906001600160a01b03167fa49807205ce4d355092ef5a8a18f56e8913cf4a201fbe287825b095693c217755f805160206127508339815191525f80a4600190565b6001600160a01b0381165f9081527fab71e3f32666744d246edff3f96e4bdafee2e9867098cdd118a979a7464786a8602052604090205460ff166119a3576001600160a01b0381165f9081527fab71e3f32666744d246edff3f96e4bdafee2e9867098cdd118a979a7464786a860205260409020805460ff1916600117905533906001600160a01b03167f189ab7a9244df0848122154315af71fe140f3db0fe014031783b0946b8c9d2e35f805160206127508339815191525f80a4600190565b5f8181525f805160206127d0833981519152602090815260408083206001600160a01b038616845290915290205460ff16612133575f8181525f805160206127d0833981519152602090815260408083206001600160a01b03861684529091529020805460ff1916600117905533916001600160a01b0316905f805160206127508339815191525f80a4600190565b50505f90565b6001600160a01b0381165f9081525f805160206127b0833981519152602052604090205460ff16156119a3576001600160a01b03165f8181525f805160206127b083398151915260205260408120805460ff191690553391905f80516020612770833981519152907ff6391f5c32d9c69d2a47ea670b442974b53935d1edc7fd64eb21e047a839171b9080a4600190565b5f8181525f805160206127d0833981519152602090815260408083206001600160a01b038616845290915290205460ff1615612133575f8181525f805160206127d0833981519152602090815260408083206001600160a01b03861684529091529020805460ff1916905533916001600160a01b0316907ff6391f5c32d9c69d2a47ea670b442974b53935d1edc7fd64eb21e047a839171b5f80a4600190565b601481510361227a576014015190565b606460405162461bcd60e51b815260206004820152602060248201527f5265736f6c7665723a20696e76616c69642061646472657373206c656e6774686044820152fd5b908160209103126102a0575190565b805191908290602001825e015f815290565b6123146123226122ed612611565b92604051928391602083016014916bffffffffffffffffffffffff199060601b1681520190565b03601f198101835282610926565b61232a61263f565b915f5b601481106123955750505060405161234d816123146020820180956122cd565b51902060405161238f816123146020820194856040917f91d1777781884d03a6757a803996e38de2a42967fb37eeaca72729271025a9e2825260208201520190565b51902090565b806123e06123b46123da6123d46123ce6123c26123b46001988b612661565b516001600160f81b03191690565b60041c600f60f81b1690565b60f81c90565b60ff1690565b85612661565b6123f66123ec8361269a565b915f1a9187612661565b5361241a6123b46123da6123d4600f60f81b61241384878b612661565b1660f81c90565b61242e6123ec6124298461269a565b6126b5565b530161232d565b929192807f65412581168e88a1e60c6459d7f44ae83ad0832e670826c05a4e2476b57af75260405184815260406020820152806124756040820189610b6a565b0390a2603c821461252f575b5f52600160205260405f20905f5260205260405f2082516001600160401b038111610947576124b481611b1b8454611547565b6020601f82116001146124e3578190611b519394955f92611b555750508160011b915f199060031b1c19161790565b601f198216906124f6845f5260205f2090565b915f5b81811061251757509583600195969710611b9557505050811b019055565b9192602060018192868b0151815501940192016124f9565b807f52d7d861f09ab3d26239d492e8968629f95e9e318cf0b73bfddc441522a15fd2602061255c8761226a565b6040516001600160a01b039091168152a2612481565b90813b156125f0575f8051602061279083398151915280546001600160a01b0319166001600160a01b0384169081179091557fbc7cd75a20ee27fd9adebab32041f755214dbc6bffa90cc0225b39da2e5c2d3b5f80a28051156125d8576119fe916126c3565b5050346125e157565b63b398979f60e01b5f5260045ffd5b50634c9c8ce360e01b5f9081526001600160a01b0391909116600452602490fd5b60405190612620604083610926565b601082526f181899199a1a9b1b9c1cb0b131b232b360811b6020830152565b604051606091906126508382610926565b6028815291601f1901366020840137565b908151811015612672570160200190565b634e487b7160e01b5f52603260045260245ffd5b634e487b7160e01b5f52601160045260245ffd5b908160011b91808304600214901517156126b057565b612686565b90600182018092116126b057565b905f8091602081519101845af48080612723575b156126e65750506109b8612736565b1561270b57639996b31560e01b5f9081526001600160a01b0391909116600452602490fd5b3d15155f036114a95763d6bda27560e01b5f5260045ffd5b503d1515806126d75750813b15156126d7565b604051903d82523d5f602084013e60203d83010160405256fe2f8788117e7eff1d82e926ec794901d17c78024a50270940304540a733656f0d7b765e0e932d348852a6f810bfa1ab891e259123f02db8cdcde614c570223357360894a13ba1a3210667c828492db98dca3e2076cc3735a920a3ca505d382bbc6a9e2d30c9502d2e64654936f9966c37f5208e723166202f23831d0d37f1338302dd7bc7dec4dceedda775e58dd541e08a116c6c53815c0bd028192f7b626800f0c57e16840df040f15088dc2f81fe391c3923bec73e23a9662efc9c229c6a00a264697066735822122015f9509642e2f874ca3c327f32957e9a844ce46119a41741450591ac3190f0ec64736f6c634300081a0033",
  "linkReferences": {},
  "deployedLinkReferences": {}
}