{
  "_format": "hh-sol-artifact-1",
  "contractName": "ArcNSControllerV2Mock",
  "sourceName": "contracts/v3/mocks/ArcNSControllerV2Mock.sol",
  "abi": [
    {
      "inputs": [],
      "name": "AccessControlBadConfirmation",
      "type": "error"
    },
    {
      "inputs": [
        {
          "internalType": "address",
          "name": "account",
          "type": "address"
        },
        {
          "internalType": "bytes32",
          "name": "neededRole",
          "type": "bytes32"
        }
      ],
      "name": "AccessControlUnauthorizedAccount",
      "type": "error"
    },
    {
      "inputs": [
        {
          "internalType": "address",
          "name": "target",
          "type": "address"
        }
      ],
      "name": "AddressEmptyCode",
      "type": "error"
    },
    {
      "inputs": [],
      "name": "CommitmentAlreadyExists",
      "type": "error"
    },
    {
      "inputs": [],
      "name": "CommitmentAlreadyUsed",
      "type": "error"
    },
    {
      "inputs": [],
      "name": "CommitmentExpired",
      "type": "error"
    },
    {
      "inputs": [],
      "name": "CommitmentNotFound",
      "type": "error"
    },
    {
      "inputs": [],
      "name": "CommitmentTooNew",
      "type": "error"
    },
    {
      "inputs": [],
      "name": "DurationTooShort",
      "type": "error"
    },
    {
      "inputs": [
        {
          "internalType": "address",
          "name": "implementation",
          "type": "address"
        }
      ],
      "name": "ERC1967InvalidImplementation",
      "type": "error"
    },
    {
      "inputs": [],
      "name": "ERC1967NonPayable",
      "type": "error"
    },
    {
      "inputs": [],
      "name": "EnforcedPause",
      "type": "error"
    },
    {
      "inputs": [],
      "name": "ExpectedPause",
      "type": "error"
    },
    {
      "inputs": [],
      "name": "FailedCall",
      "type": "error"
    },
    {
      "inputs": [],
      "name": "InvalidInitialization",
      "type": "error"
    },
    {
      "inputs": [],
      "name": "InvalidName",
      "type": "error"
    },
    {
      "inputs": [],
      "name": "NotInitializing",
      "type": "error"
    },
    {
      "inputs": [
        {
          "internalType": "uint256",
          "name": "price",
          "type": "uint256"
        },
        {
          "internalType": "uint256",
          "name": "maxCost",
          "type": "uint256"
        }
      ],
      "name": "PriceExceedsMaxCost",
      "type": "error"
    },
    {
      "inputs": [],
      "name": "ReentrantCall",
      "type": "error"
    },
    {
      "inputs": [
        {
          "internalType": "address",
          "name": "resolver",
          "type": "address"
        }
      ],
      "name": "ResolverNotApproved",
      "type": "error"
    },
    {
      "inputs": [
        {
          "internalType": "address",
          "name": "token",
          "type": "address"
        }
      ],
      "name": "SafeERC20FailedOperation",
      "type": "error"
    },
    {
      "inputs": [],
      "name": "UUPSUnauthorizedCallContext",
      "type": "error"
    },
    {
      "inputs": [
        {
          "internalType": "bytes32",
          "name": "slot",
          "type": "bytes32"
        }
      ],
      "name": "UUPSUnsupportedProxiableUUID",
      "type": "error"
    },
    {
      "inputs": [],
      "name": "ZeroAddress",
      "type": "error"
    },
    {
      "anonymous": false,
      "inputs": [
        {
          "indexed": true,
          "internalType": "bytes32",
          "name": "commitment",
          "type": "bytes32"
        }
      ],
      "name": "CommitmentMade",
      "type": "event"
    },
    {
      "anonymous": false,
      "inputs": [
        {
          "indexed": false,
          "internalType": "uint64",
          "name": "version",
          "type": "uint64"
        }
      ],
      "name": "Initialized",
      "type": "event"
    },
    {
      "anonymous": false,
      "inputs": [
        {
          "indexed": false,
          "internalType": "string",
          "name": "name",
          "type": "string"
        },
        {
          "indexed": true,
          "internalType": "bytes32",
          "name": "label",
          "type": "bytes32"
        },
        {
          "indexed": true,
          "internalType": "address",
          "name": "owner",
          "type": "address"
        },
        {
          "indexed": false,
          "internalType": "uint256",
          "name": "cost",
          "type": "uint256"
        },
        {
          "indexed": false,
          "internalType": "uint256",
          "name": "expires",
          "type": "uint256"
        }
      ],
      "name": "NameRegistered",
      "type": "event"
    },
    {
      "anonymous": false,
      "inputs": [
        {
          "indexed": false,
          "internalType": "string",
          "name": "name",
          "type": "string"
        },
        {
          "indexed": true,
          "internalType": "bytes32",
          "name": "label",
          "type": "bytes32"
        },
        {
          "indexed": false,
          "internalType": "uint256",
          "name": "cost",
          "type": "uint256"
        },
        {
          "indexed": false,
          "internalType": "uint256",
          "name": "expires",
          "type": "uint256"
        }
      ],
      "name": "NameRenewed",
      "type": "event"
    },
    {
      "anonymous": false,
      "inputs": [
        {
          "indexed": true,
          "internalType": "address",
          "name": "oracle",
          "type": "address"
        }
      ],
      "name": "NewPriceOracle",
      "type": "event"
    },
    {
      "anonymous": false,
      "inputs": [
        {
          "indexed": false,
          "internalType": "address",
          "name": "account",
          "type": "address"
        }
      ],
      "name": "Paused",
      "type": "event"
    },
    {
      "anonymous": false,
      "inputs": [
        {
          "indexed": true,
          "internalType": "address",
          "name": "resolver",
          "type": "address"
        },
        {
          "indexed": false,
          "internalType": "bool",
          "name": "approved",
          "type": "bool"
        }
      ],
      "name": "ResolverApproved",
      "type": "event"
    },
    {
      "anonymous": false,
      "inputs": [
        {
          "indexed": true,
          "internalType": "bytes32",
          "name": "role",
          "type": "bytes32"
        },
        {
          "indexed": true,
          "internalType": "bytes32",
          "name": "previousAdminRole",
          "type": "bytes32"
        },
        {
          "indexed": true,
          "internalType": "bytes32",
          "name": "newAdminRole",
          "type": "bytes32"
        }
      ],
      "name": "RoleAdminChanged",
      "type": "event"
    },
    {
      "anonymous": false,
      "inputs": [
        {
          "indexed": true,
          "internalType": "bytes32",
          "name": "role",
          "type": "bytes32"
        },
        {
          "indexed": true,
          "internalType": "address",
          "name": "account",
          "type": "address"
        },
        {
          "indexed": true,
          "internalType": "address",
          "name": "sender",
          "type": "address"
        }
      ],
      "name": "RoleGranted",
      "type": "event"
    },
    {
      "anonymous": false,
      "inputs": [
        {
          "indexed": true,
          "internalType": "bytes32",
          "name": "role",
          "type": "bytes32"
        },
        {
          "indexed": true,
          "internalType": "address",
          "name": "account",
          "type": "address"
        },
        {
          "indexed": true,
          "internalType": "address",
          "name": "sender",
          "type": "address"
        }
      ],
      "name": "RoleRevoked",
      "type": "event"
    },
    {
      "anonymous": false,
      "inputs": [
        {
          "indexed": true,
          "internalType": "address",
          "name": "oldTreasury",
          "type": "address"
        },
        {
          "indexed": true,
          "internalType": "address",
          "name": "newTreasury",
          "type": "address"
        }
      ],
      "name": "TreasuryUpdated",
      "type": "event"
    },
    {
      "anonymous": false,
      "inputs": [
        {
          "indexed": false,
          "internalType": "address",
          "name": "account",
          "type": "address"
        }
      ],
      "name": "Unpaused",
      "type": "event"
    },
    {
      "anonymous": false,
      "inputs": [
        {
          "indexed": true,
          "internalType": "address",
          "name": "implementation",
          "type": "address"
        }
      ],
      "name": "Upgraded",
      "type": "event"
    },
    {
      "inputs": [],
      "name": "ADMIN_ROLE",
      "outputs": [
        {
          "internalType": "bytes32",
          "name": "",
          "type": "bytes32"
        }
      ],
      "stateMutability": "view",
      "type": "function"
    },
    {
      "inputs": [],
      "name": "DEFAULT_ADMIN_ROLE",
      "outputs": [
        {
          "internalType": "bytes32",
          "name": "",
          "type": "bytes32"
        }
      ],
      "stateMutability": "view",
      "type": "function"
    },
    {
      "inputs": [],
      "name": "MAX_COMMITMENT_AGE",
      "outputs": [
        {
          "internalType": "uint256",
          "name": "",
          "type": "uint256"
        }
      ],
      "stateMutability": "view",
      "type": "function"
    },
    {
      "inputs": [],
      "name": "MIN_COMMITMENT_AGE",
      "outputs": [
        {
          "internalType": "uint256",
          "name": "",
          "type": "uint256"
        }
      ],
      "stateMutability": "view",
      "type": "function"
    },
    {
      "inputs": [],
      "name": "MIN_REGISTRATION_DURATION",
      "outputs": [
        {
          "internalType": "uint256",
          "name": "",
          "type": "uint256"
        }
      ],
      "stateMutability": "view",
      "type": "function"
    },
    {
      "inputs": [],
      "name": "ORACLE_ROLE",
      "outputs": [
        {
          "internalType": "bytes32",
          "name": "",
          "type": "bytes32"
        }
      ],
      "stateMutability": "view",
      "type": "function"
    },
    {
      "inputs": [],
      "name": "PAUSER_ROLE",
      "outputs": [
        {
          "internalType": "bytes32",
          "name": "",
          "type": "bytes32"
        }
      ],
      "stateMutability": "view",
      "type": "function"
    },
    {
      "inputs": [],
      "name": "UPGRADER_ROLE",
      "outputs": [
        {
          "internalType": "bytes32",
          "name": "",
          "type": "bytes32"
        }
      ],
      "stateMutability": "view",
      "type": "function"
    },
    {
      "inputs": [],
      "name": "UPGRADE_INTERFACE_VERSION",
      "outputs": [
        {
          "internalType": "string",
          "name": "",
          "type": "string"
        }
      ],
      "stateMutability": "view",
      "type": "function"
    },
    {
      "inputs": [
        {
          "internalType": "address",
          "name": "",
          "type": "address"
        }
      ],
      "name": "approvedResolvers",
      "outputs": [
        {
          "internalType": "bool",
          "name": "",
          "type": "bool"
        }
      ],
      "stateMutability": "view",
      "type": "function"
    },
    {
      "inputs": [
        {
          "internalType": "string",
          "name": "name_",
          "type": "string"
        }
      ],
      "name": "available",
      "outputs": [
        {
          "internalType": "bool",
          "name": "",
          "type": "bool"
        }
      ],
      "stateMutability": "view",
      "type": "function"
    },
    {
      "inputs": [],
      "name": "base",
      "outputs": [
        {
          "internalType": "contract IArcNSBaseRegistrar",
          "name": "",
          "type": "address"
        }
      ],
      "stateMutability": "view",
      "type": "function"
    },
    {
      "inputs": [
        {
          "internalType": "bytes32",
          "name": "commitment",
          "type": "bytes32"
        }
      ],
      "name": "commit",
      "outputs": [],
      "stateMutability": "nonpayable",
      "type": "function"
    },
    {
      "inputs": [
        {
          "internalType": "bytes32",
          "name": "",
          "type": "bytes32"
        }
      ],
      "name": "commitments",
      "outputs": [
        {
          "internalType": "uint256",
          "name": "",
          "type": "uint256"
        }
      ],
      "stateMutability": "view",
      "type": "function"
    },
    {
      "inputs": [
        {
          "internalType": "bytes32",
          "name": "commitment",
          "type": "bytes32"
        }
      ],
      "name": "getCommitmentStatus",
      "outputs": [
        {
          "internalType": "uint256",
          "name": "timestamp",
          "type": "uint256"
        },
        {
          "internalType": "bool",
          "name": "exists",
          "type": "bool"
        },
        {
          "internalType": "bool",
          "name": "matured",
          "type": "bool"
        },
        {
          "internalType": "bool",
          "name": "expired_",
          "type": "bool"
        }
      ],
      "stateMutability": "view",
      "type": "function"
    },
    {
      "inputs": [
        {
          "internalType": "bytes32",
          "name": "role",
          "type": "bytes32"
        }
      ],
      "name": "getRoleAdmin",
      "outputs": [
        {
          "internalType": "bytes32",
          "name": "",
          "type": "bytes32"
        }
      ],
      "stateMutability": "view",
      "type": "function"
    },
    {
      "inputs": [
        {
          "internalType": "bytes32",
          "name": "role",
          "type": "bytes32"
        },
        {
          "internalType": "address",
          "name": "account",
          "type": "address"
        }
      ],
      "name": "grantRole",
      "outputs": [],
      "stateMutability": "nonpayable",
      "type": "function"
    },
    {
      "inputs": [
        {
          "internalType": "bytes32",
          "name": "role",
          "type": "bytes32"
        },
        {
          "internalType": "address",
          "name": "account",
          "type": "address"
        }
      ],
      "name": "hasRole",
      "outputs": [
        {
          "internalType": "bool",
          "name": "",
          "type": "bool"
        }
      ],
      "stateMutability": "view",
      "type": "function"
    },
    {
      "inputs": [
        {
          "internalType": "contract IArcNSBaseRegistrar",
          "name": "base_",
          "type": "address"
        },
        {
          "internalType": "contract IArcNSPriceOracle",
          "name": "priceOracle_",
          "type": "address"
        },
        {
          "internalType": "contract IERC20",
          "name": "usdc_",
          "type": "address"
        },
        {
          "internalType": "contract IArcNSRegistry",
          "name": "registry_",
          "type": "address"
        },
        {
          "internalType": "contract IArcNSResolver",
          "name": "resolver_",
          "type": "address"
        },
        {
          "internalType": "contract IArcNSReverseRegistrar",
          "name": "reverseRegistrar_",
          "type": "address"
        },
        {
          "internalType": "address",
          "name": "treasury_",
          "type": "address"
        },
        {
          "internalType": "address",
          "name": "admin_",
          "type": "address"
        }
      ],
      "name": "initialize",
      "outputs": [],
      "stateMutability": "nonpayable",
      "type": "function"
    },
    {
      "inputs": [
        {
          "internalType": "string",
          "name": "name_",
          "type": "string"
        },
        {
          "internalType": "address",
          "name": "owner_",
          "type": "address"
        },
        {
          "internalType": "uint256",
          "name": "duration",
          "type": "uint256"
        },
        {
          "internalType": "bytes32",
          "name": "secret",
          "type": "bytes32"
        },
        {
          "internalType": "address",
          "name": "resolverAddr",
          "type": "address"
        },
        {
          "internalType": "bool",
          "name": "reverseRecord",
          "type": "bool"
        },
        {
          "internalType": "address",
          "name": "sender",
          "type": "address"
        }
      ],
      "name": "makeCommitment",
      "outputs": [
        {
          "internalType": "bytes32",
          "name": "",
          "type": "bytes32"
        }
      ],
      "stateMutability": "pure",
      "type": "function"
    },
    {
      "inputs": [],
      "name": "pause",
      "outputs": [],
      "stateMutability": "nonpayable",
      "type": "function"
    },
    {
      "inputs": [],
      "name": "paused",
      "outputs": [
        {
          "internalType": "bool",
          "name": "",
          "type": "bool"
        }
      ],
      "stateMutability": "view",
      "type": "function"
    },
    {
      "inputs": [],
      "name": "priceOracle",
      "outputs": [
        {
          "internalType": "contract IArcNSPriceOracle",
          "name": "",
          "type": "address"
        }
      ],
      "stateMutability": "view",
      "type": "function"
    },
    {
      "inputs": [],
      "name": "proxiableUUID",
      "outputs": [
        {
          "internalType": "bytes32",
          "name": "",
          "type": "bytes32"
        }
      ],
      "stateMutability": "view",
      "type": "function"
    },
    {
      "inputs": [
        {
          "internalType": "string",
          "name": "name_",
          "type": "string"
        },
        {
          "internalType": "address",
          "name": "owner_",
          "type": "address"
        },
        {
          "internalType": "uint256",
          "name": "duration",
          "type": "uint256"
        },
        {
          "internalType": "bytes32",
          "name": "secret",
          "type": "bytes32"
        },
        {
          "internalType": "address",
          "name": "resolverAddr",
          "type": "address"
        },
        {
          "internalType": "bool",
          "name": "reverseRecord",
          "type": "bool"
        },
        {
          "internalType": "uint256",
          "name": "maxCost",
          "type": "uint256"
        }
      ],
      "name": "register",
      "outputs": [],
      "stateMutability": "nonpayable",
      "type": "function"
    },
    {
      "inputs": [],
      "name": "registry",
      "outputs": [
        {
          "internalType": "contract IArcNSRegistry",
          "name": "",
          "type": "address"
        }
      ],
      "stateMutability": "view",
      "type": "function"
    },
    {
      "inputs": [
        {
          "internalType": "string",
          "name": "name_",
          "type": "string"
        },
        {
          "internalType": "uint256",
          "name": "duration",
          "type": "uint256"
        },
        {
          "internalType": "uint256",
          "name": "maxCost",
          "type": "uint256"
        }
      ],
      "name": "renew",
      "outputs": [],
      "stateMutability": "nonpayable",
      "type": "function"
    },
    {
      "inputs": [
        {
          "internalType": "bytes32",
          "name": "role",
          "type": "bytes32"
        },
        {
          "internalType": "address",
          "name": "callerConfirmation",
          "type": "address"
        }
      ],
      "name": "renounceRole",
      "outputs": [],
      "stateMutability": "nonpayable",
      "type": "function"
    },
    {
      "inputs": [
        {
          "internalType": "string",
          "name": "name_",
          "type": "string"
        },
        {
          "internalType": "uint256",
          "name": "duration",
          "type": "uint256"
        }
      ],
      "name": "rentPrice",
      "outputs": [
        {
          "components": [
            {
              "internalType": "uint256",
              "name": "base",
              "type": "uint256"
            },
            {
              "internalType": "uint256",
              "name": "premium",
              "type": "uint256"
            }
          ],
          "internalType": "struct IArcNSPriceOracle.Price",
          "name": "",
          "type": "tuple"
        }
      ],
      "stateMutability": "view",
      "type": "function"
    },
    {
      "inputs": [],
      "name": "resolver",
      "outputs": [
        {
          "internalType": "contract IArcNSResolver",
          "name": "",
          "type": "address"
        }
      ],
      "stateMutability": "view",
      "type": "function"
    },
    {
      "inputs": [],
      "name": "reverseRegistrar",
      "outputs": [
        {
          "internalType": "contract IArcNSReverseRegistrar",
          "name": "",
          "type": "address"
        }
      ],
      "stateMutability": "view",
      "type": "function"
    },
    {
      "inputs": [
        {
          "internalType": "bytes32",
          "name": "role",
          "type": "bytes32"
        },
        {
          "internalType": "address",
          "name": "account",
          "type": "address"
        }
      ],
      "name": "revokeRole",
      "outputs": [],
      "stateMutability": "nonpayable",
      "type": "function"
    },
    {
      "inputs": [
        {
          "internalType": "address",
          "name": "resolverAddr",
          "type": "address"
        },
        {
          "internalType": "bool",
          "name": "approved",
          "type": "bool"
        }
      ],
      "name": "setApprovedResolver",
      "outputs": [],
      "stateMutability": "nonpayable",
      "type": "function"
    },
    {
      "inputs": [
        {
          "internalType": "contract IArcNSPriceOracle",
          "name": "oracle_",
          "type": "address"
        }
      ],
      "name": "setPriceOracle",
      "outputs": [],
      "stateMutability": "nonpayable",
      "type": "function"
    },
    {
      "inputs": [
        {
          "internalType": "address",
          "name": "treasury_",
          "type": "address"
        }
      ],
      "name": "setTreasury",
      "outputs": [],
      "stateMutability": "nonpayable",
      "type": "function"
    },
    {
      "inputs": [
        {
          "internalType": "bytes4",
          "name": "interfaceId",
          "type": "bytes4"
        }
      ],
      "name": "supportsInterface",
      "outputs": [
        {
          "internalType": "bool",
          "name": "",
          "type": "bool"
        }
      ],
      "stateMutability": "view",
      "type": "function"
    },
    {
      "inputs": [],
      "name": "treasury",
      "outputs": [
        {
          "internalType": "address",
          "name": "",
          "type": "address"
        }
      ],
      "stateMutability": "view",
      "type": "function"
    },
    {
      "inputs": [],
      "name": "unpause",
      "outputs": [],
      "stateMutability": "nonpayable",
      "type": "function"
    },
    {
      "inputs": [
        {
          "internalType": "address",
          "name": "newImplementation",
          "type": "address"
        },
        {
          "internalType": "bytes",
          "name": "data",
          "type": "bytes"
        }
      ],
      "name": "upgradeToAndCall",
      "outputs": [],
      "stateMutability": "payable",
      "type": "function"
    },
    {
      "inputs": [],
      "name": "usdc",
      "outputs": [
        {
          "internalType": "contract IERC20",
          "name": "",
          "type": "address"
        }
      ],
      "stateMutability": "view",
      "type": "function"
    },
    {
      "inputs": [
        {
          "internalType": "bytes32",
          "name": "",
          "type": "bytes32"
        }
      ],
      "name": "usedCommitments",
      "outputs": [
        {
          "internalType": "bool",
          "name": "",
          "type": "bool"
        }
      ],
      "stateMutability": "view",
      "type": "function"
    },
    {
      "inputs": [],
      "name": "version",
      "outputs": [
        {
          "internalType": "string",
          "name": "",
          "type": "string"
        }
      ],
      "stateMutability": "pure",
      "type": "function"
    }
  ],
  "bytecode": "0x60a080604052346100e857306080527ff0c57e16840df040f15088dc2f81fe391c3923bec73e23a9662efc9c229c6a005460ff8160401c166100d9576002600160401b03196001600160401b03821601610073575b6040516126dd90816100ed82396080518181816114ee01526115ba0152f35b6001600160401b0319166001600160401b039081177ff0c57e16840df040f15088dc2f81fe391c3923bec73e23a9662efc9c229c6a005581527fc7f505b2f371ae2175ee4913f4499e1f2633a7b5936321eed1cdaeb6115181d290602090a15f80610054565b63f92ee8a960e01b5f5260045ffd5b5f80fdfe6080806040526004361015610012575f80fd5b5f905f3560e01c90816301ffc9a7146119795750806304f3bcec1461195157806307e2cea514611917578063248a9ca3146118f95780632630c12f146118d15780632e4f692a146118b65780632f2ff15d1461188557806336568abe146118415780633e413bee146118195780633f4ba83a1461179b5780634f1ef2861461156a5780635001f3b51461154257806352d1902d146114dc578063530e784f1461141157806354fd4d50146113cd5780635c975abb1461139f57806361d027b31461137757806375b238fc1461133d5780637b103999146113155780638020d9ac14611295578063808698531461126d578063839df9451461124357806383e7f6ff146111f25780638456cb59146111815780638a29e2de14610ed05780638a95b09f14610eb35780638ccb9ea614610e965780639140203914610e67578063917844cf14610e2a57806391d1485414610dd5578063a217fddf14610dbb578063a6100fca14610c43578063ad3cb1cc14610bf8578063aeb8ce9b14610b24578063b74dd23114610aa7578063d547741f14610a6f578063e63ab1e914610a35578063ee6161ee146103ef578063f0f442601461036b578063f14fcbc814610297578063f31632fd146102295763f72c0d8b146101ec575f80fd5b3461022657806003193601126102265760206040517f189ab7a9244df0848122154315af71fe140f3db0fe014031783b0946b8c9d2e38152f35b80fd5b50346102265760e0366003190112610226576004359067ffffffffffffffff821161022657602061028f6102603660048601611aec565b6102686119cc565b610270611a0e565b610278611b38565b916102816119f8565b936064359160443591611ccf565b604051908152f35b5034610226576020366003190112610226576004356102b4612301565b808252600960205260ff60408320541661035c5780825260086020526040822054151580610325575b6103165780825260086020524260408320557f561eb038a114723afa3c72b445add7b8602de546264da1e7e826af628316dbcb8280a280f35b63145718a760e01b8252600482fd5b5080825260086020526040822054620151808101809111610348574211156102dd565b634e487b7160e01b83526011600452602483fd5b635be00f0f60e11b8252600482fd5b5034610226576020366003190112610226576103856119e2565b61038d611d9f565b6001600160a01b031680156103e057600780546001600160a01b0319811683179091556001600160a01b03167f4ab5be82436d353e61ca18726e984e561f5c1cc7c6d38b29d2553c790434705a8380a380f35b63d92e233d60e01b8252600482fd5b50346108945760e03660031901126108945760043567ffffffffffffffff811161089457610421903690600401611b0a565b6104296119cc565b60443591610435611a0e565b9161043e611b38565b9260c4359060025f5414610a265760025f55610458612301565b6104753386838a8a88610470606435938c3691611a92565b611ccf565b805f52600960205260ff60405f205416610a1757805f52600860205260405f205415610a0857805f52600860205260405f2054603c81018091116109e55742106109f957805f52600860205260405f20546201518081018091116109e55742116109d657805f52600960205260405f20600160ff198254161790555f5260086020525f604081205561051061050b36868a611a92565b6123df565b156109c7576224ea0086106109b8576001600160a01b03169384151580610991575b6105566105498861054436898d611a92565b611b72565b6020815191015190611b65565b9280841161097b575060035460075461057f9185916001600160a01b0390811691339116612328565b61058a36868a611a92565b602081519101209660018060a01b036001541696604051630ddf7fcb60e41b81526020816004818c5afa908115610889575f91610949575b50604051602081019182528a6040820152604081526105e2606082611a54565b5190209783156108ca5750600154604051631ef5ace960e21b8152600481018b90526001600160a01b03888116602483018190526044830195909552606482019390935291602091839160849183915f91165af1908115610889575f91610898575b509660018060a01b036005541691823b156108945760445f9283604051958694859362d5fa2b60e81b8552600485015260248401525af1801561088957610874575b505b8161086c575b506106d9575b7fca6abbe9d7f11422cb6ca7629fbf6fe9efb1c621f71ce8f02b9f2a230097404f936106cf9160405194859460018060a01b03169885611c9a565b0390a36001815580f35b6006546001546040516316aa8a1960e11b8152899290916001600160a01b0391821691849184916004918391165afa9182156108615786928a9185916107cf575b5061075d91602080600193604051978894838601378b840190601760f91b83830152805192839101602183015e010186838201520301601f198101845283611a54565b803b156107cb57604080516316beef9b60e11b81526001600160a01b0387166004820152602481019190915291839183918290849082906107a2906044830190611ac8565b03925af16107b2575b5050610694565b816107bc91611a54565b6107c757865f6107ab565b8680fd5b8280fd5b935050503d8084843e6107e28184611a54565b82019160208184031261085d5780519067ffffffffffffffff8211610859570182601f8201121561085d5780519061081982611a76565b936108276040519586611a54565b82855260208383010111610859578a6020808a9688828761075d9882600199018386015e83010152935050509161071a565b8480fd5b8380fd5b6040513d85823e3d90fd5b90505f61068e565b6108819199505f90611a54565b5f975f610686565b6040513d5f823e3d90fd5b5f80fd5b90506020813d6020116108c2575b816108b360209383611a54565b8101031261089457515f610644565b3d91506108a6565b90505f92975060646020926040519485938492633f2891eb60e21b84528d600485015260018060a01b038b16602485015260448401525af1908115610889575f91610917575b5094610688565b90506020813d602011610941575b8161093260209383611a54565b8101031261089457515f610910565b3d9150610925565b90506020813d602011610973575b8161096460209383611a54565b8101031261089457515f6105c2565b3d9150610957565b836319016cf760e01b5f5260045260245260445ffd5b855f52600a60205260ff60405f20541661053257856349c947f160e11b5f5260045260245ffd5b6325c3636760e01b5f5260045ffd5b63430f13b360e01b5f5260045ffd5b6353adc96560e01b5f5260045ffd5b634e487b7160e01b5f52601160045260245ffd5b63cba3a53b60e01b5f5260045ffd5b635b34156960e11b5f5260045ffd5b635be00f0f60e11b5f5260045ffd5b6306fda65d60e31b5f5260045ffd5b34610894575f3660031901126108945760206040517f65d7a28e3265b37a6474929f336521b332c1681b933f6cb9f3376673440d862a8152f35b3461089457604036600319011261089457610aa5600435610a8e6119cc565b90610aa0610a9b82611b47565b611e0e565b612265565b005b3461089457604036600319011261089457610ac06119e2565b602435908115158092036108945760207ff83a8c0afd54275f21152a22a8eada2be10781dbb0f72d691b3f7e90564dac9f91610afa611d9f565b60018060a01b031692835f52600a825260405f2060ff1981541660ff8316179055604051908152a2005b346108945760203660031901126108945760043567ffffffffffffffff811161089457610b55903690600401611aec565b610b6581516020830120916123df565b80610b78575b6020906040519015158152f35b506001546040516312dc929d60e31b81526004810192909252602090829060249082906001600160a01b03165afa8015610889575f90610bbc575b60209150610b6b565b506020813d602011610bf0575b81610bd660209383611a54565b810103126108945751801515810361089457602090610bb3565b3d9150610bc9565b34610894575f36600319011261089457610c3f604051610c19604082611a54565b60058152640352e302e360dc1b6020820152604051918291602083526020830190611ac8565b0390f35b346108945760603660031901126108945760043567ffffffffffffffff811161089457610c74903690600401611b0a565b90602435916044359160025f5414610a265760025f55610c92612301565b6224ea0084106109b857610cae61054985610544368686611a92565b9280841161097b5750600354600754610cd79185916001600160a01b0390811691339116612328565b5f6020610ce5368585611a92565b80519082012060015460405163c475abff60e01b8152600481018390526024810198909852909692839160449183916001600160a01b03165af1908115610889575f91610d69575b50610d60907f3da24c024582931cfaf8267d8ed24d13a82a8068d5bd337d30ec45cea4e506ae9460405194859485611c9a565b0390a260015f55005b90506020813d602011610db3575b81610d8460209383611a54565b8101031261089457517f3da24c024582931cfaf8267d8ed24d13a82a8068d5bd337d30ec45cea4e506ae610d2d565b3d9150610d77565b34610894575f3660031901126108945760206040515f8152f35b3461089457604036600319011261089457610dee6119cc565b6004355f525f8051602061264883398151915260205260405f209060018060a01b03165f52602052602060ff60405f2054166040519015158152f35b34610894576020366003190112610894576001600160a01b03610e4b6119e2565b165f52600a602052602060ff60405f2054166040519015158152f35b34610894576020366003190112610894576004355f526009602052602060ff60405f2054166040519015158152f35b34610894575f366003190112610894576020604051620151808152f35b34610894575f3660031901126108945760206040516224ea008152f35b3461089457610100366003190112610894576004356001600160a01b0381169081900361089457610eff6119cc565b906044356001600160a01b03811690819003610894576064356001600160a01b0381169390849003610894576084356001600160a01b038116908190036108945760a4356001600160a01b038116919082900361089457610f5e6119f8565b9560e435946001600160a01b0386168603610894575f80516020612688833981519152549760ff8960401c16159867ffffffffffffffff811680159081611179575b600114908161116f575b159081611166575b506111575767ffffffffffffffff1981166001175f80516020612688833981519152558961112b575b506001600160a01b031694851561111c576110ba97610ff8612550565b611000612550565b6001600160601b0360a01b600154161760015560018060a01b03166001600160601b0360a01b60025416176002556001600160601b0360a01b60035416176003556001600160601b0360a01b60045416176004556001600160601b0360a01b60055416176005556001600160601b0360a01b60065416176006556001600160601b0360a01b600754161760075561109681611e54565b506110a081611ef0565b506110aa81611fa9565b506110b481612062565b5061211b565b5060015f556110c557005b68ff0000000000000000195f8051602061268883398151915254165f80516020612688833981519152557fc7f505b2f371ae2175ee4913f4499e1f2633a7b5936321eed1cdaeb6115181d2602060405160018152a1005b63d92e233d60e01b5f5260045ffd5b68ffffffffffffffffff191668010000000000000001175f805160206126888339815191525589610fdb565b63f92ee8a960e01b5f5260045ffd5b9050158b610fb2565b303b159150610faa565b8b9150610fa0565b34610894575f36600319011261089457611199611d30565b6111a1612301565b600160ff195f805160206126688339815191525416175f80516020612668833981519152557f62e78cea01bee320cd4e420270b5ea74000d11b0c9f74754ebdbfc544b05a2586020604051338152a1005b346108945760403660031901126108945760043567ffffffffffffffff8111610894576112316112286040923690600401611aec565b60243590611b72565b60208251918051835201516020820152f35b34610894576020366003190112610894576004355f526008602052602060405f2054604051908152f35b34610894575f366003190112610894576006546040516001600160a01b039091168152602090f35b34610894576020366003190112610894576004355f52600860205260405f20548015159081806112ff575b80806112e6575b9260809360405193845260208401521515604083015215156060820152f35b9050620151808201928383116109e557924211906112c7565b9150603c81018082116109e557421015916112c0565b34610894575f366003190112610894576004546040516001600160a01b039091168152602090f35b34610894575f3660031901126108945760206040517fa49807205ce4d355092ef5a8a18f56e8913cf4a201fbe287825b095693c217758152f35b34610894575f366003190112610894576007546040516001600160a01b039091168152602090f35b34610894575f36600319011261089457602060ff5f8051602061266883398151915254166040519015158152f35b34610894575f36600319011261089457610c3f6040516113ee604082611a54565b60028152613b1960f11b6020820152604051918291602083526020830190611ac8565b346108945760203660031901126108945761142a6119e2565b335f9081527f0b45fb0a7d123af421db170fce034e3ce3a70e5f1150428004face1400c458f2602052604090205460ff16156114a557600280546001600160a01b0319166001600160a01b039290921691821790557ff261845a790fe29bbd6631e2ca4a5bdc83e6eed7c3271d9590d97287e00e91235f80a2005b63e2517d3f60e01b5f52336004527f68e79a7bf1e0bc45d0a330c573bc367f9cf464fd326078812f301165fbda4ef160245260445ffd5b34610894575f366003190112610894577f00000000000000000000000000000000000000000000000000000000000000006001600160a01b031630036115335760206040515f805160206126288339815191528152f35b63703e46dd60e11b5f5260045ffd5b34610894575f366003190112610894576001546040516001600160a01b039091168152602090f35b60403660031901126108945761157e6119e2565b60243567ffffffffffffffff81116108945736602382011215610894576115af903690602481600401359101611a92565b906001600160a01b037f000000000000000000000000000000000000000000000000000000000000000016308114908115611779575b5061153357335f9081527fab71e3f32666744d246edff3f96e4bdafee2e9867098cdd118a979a7464786a8602052604090205460ff1615611742576040516352d1902d60e01b81526001600160a01b0382169290602081600481875afa5f918161170e575b506116625783634c9c8ce360e01b5f5260045260245ffd5b805f805160206126288339815191528592036116fc5750823b156116ea575f8051602061262883398151915280546001600160a01b031916821790557fbc7cd75a20ee27fd9adebab32041f755214dbc6bffa90cc0225b39da2e5c2d3b5f80a28051156116d257610aa59161257b565b5050346116db57005b63b398979f60e01b5f5260045ffd5b634c9c8ce360e01b5f5260045260245ffd5b632a87526960e21b5f5260045260245ffd5b9091506020813d60201161173a575b8161172a60209383611a54565b810103126108945751908561164a565b3d915061171d565b63e2517d3f60e01b5f52336004527f189ab7a9244df0848122154315af71fe140f3db0fe014031783b0946b8c9d2e360245260445ffd5b5f80516020612628833981519152546001600160a01b031614159050836115e5565b34610894575f366003190112610894576117b3611d30565b5f805160206126688339815191525460ff81161561180a5760ff19165f80516020612668833981519152557f5db9ee0a495bf2e6ff9c91a7834c1ba4fdd244a5e8aa4e537bd38aeae4b073aa6020604051338152a1005b638dfc202b60e01b5f5260045ffd5b34610894575f366003190112610894576003546040516001600160a01b039091168152602090f35b346108945760403660031901126108945761185a6119cc565b336001600160a01b0382160361187657610aa590600435612265565b63334bd91960e11b5f5260045ffd5b3461089457604036600319011261089457610aa56004356118a46119cc565b906118b1610a9b82611b47565b6121d4565b34610894575f366003190112610894576020604051603c8152f35b34610894575f366003190112610894576002546040516001600160a01b039091168152602090f35b3461089457602036600319011261089457602061028f600435611b47565b34610894575f3660031901126108945760206040517f68e79a7bf1e0bc45d0a330c573bc367f9cf464fd326078812f301165fbda4ef18152f35b34610894575f366003190112610894576005546040516001600160a01b039091168152602090f35b34610894576020366003190112610894576004359063ffffffff60e01b821680920361089457602091637965db0b60e01b81149081156119bb575b5015158152f35b6301ffc9a760e01b149050836119b4565b602435906001600160a01b038216820361089457565b600435906001600160a01b038216820361089457565b60c435906001600160a01b038216820361089457565b608435906001600160a01b038216820361089457565b6040810190811067ffffffffffffffff821117611a4057604052565b634e487b7160e01b5f52604160045260245ffd5b90601f8019910116810190811067ffffffffffffffff821117611a4057604052565b67ffffffffffffffff8111611a4057601f01601f191660200190565b929192611a9e82611a76565b91611aac6040519384611a54565b829481845281830111610894578281602093845f960137010152565b805180835260209291819084018484015e5f828201840152601f01601f1916010190565b9080601f8301121561089457816020611b0793359101611a92565b90565b9181601f840112156108945782359167ffffffffffffffff8311610894576020838186019501011161089457565b60a43590811515820361089457565b5f525f80516020612648833981519152602052600160405f20015490565b919082018092116109e557565b905f6020604051611b8281611a24565b8281520152815160208301209060018060a01b0360025416602060018060a01b036001541693602460405180968193636b727d4360e11b835260048301525afa928315610889575f93611c64575b50611bfc604093948451958694859384936350e9a71560e01b8552606060048601526064850190611ac8565b916024840152604483015203915afa908115610889575f91611c1c575090565b90506040813d604011611c5c575b81611c3760409383611a54565b8101031261089457602060405191611c4e83611a24565b805183520151602082015290565b3d9150611c2a565b92506020833d602011611c92575b81611c7f60209383611a54565b8101031261089457915191611bfc611bd0565b3d9150611c72565b90826040936080929796959760608552816060860152838501375f828285010152601f80199101168201019460208201520152565b8051602091820120604080519283019182526001600160a01b03938416908301526060820193909352608081019390935292831660a083015292151560c0820152921660e080840191909152825290611d2a61010082611a54565b51902090565b335f9081527f75442b0a96088b5456bc4ed01394c96a4feec0f883c9494257d76b96ab1c9b6b602052604090205460ff1615611d6857565b63e2517d3f60e01b5f52336004527f65d7a28e3265b37a6474929f336521b332c1681b933f6cb9f3376673440d862a60245260445ffd5b335f9081527fb16e88c42fd4e48df2dd6a2eabd6bc9aec654ec170056b470819f8892cc6431c602052604090205460ff1615611dd757565b63e2517d3f60e01b5f52336004527fa49807205ce4d355092ef5a8a18f56e8913cf4a201fbe287825b095693c2177560245260445ffd5b5f8181525f805160206126488339815191526020908152604080832033845290915290205460ff1615611e3e5750565b63e2517d3f60e01b5f523360045260245260445ffd5b6001600160a01b0381165f9081527fb7db2dd08fcb62d0c9e08c51941cae53c267786a0b75803fb7960902fc8ef97d602052604090205460ff16611eeb576001600160a01b03165f8181527fb7db2dd08fcb62d0c9e08c51941cae53c267786a0b75803fb7960902fc8ef97d60205260408120805460ff191660011790553391905f805160206126088339815191528180a4600190565b505f90565b6001600160a01b0381165f9081527fb16e88c42fd4e48df2dd6a2eabd6bc9aec654ec170056b470819f8892cc6431c602052604090205460ff16611eeb576001600160a01b03165f8181527fb16e88c42fd4e48df2dd6a2eabd6bc9aec654ec170056b470819f8892cc6431c60205260408120805460ff191660011790553391907fa49807205ce4d355092ef5a8a18f56e8913cf4a201fbe287825b095693c21775905f805160206126088339815191529080a4600190565b6001600160a01b0381165f9081527f75442b0a96088b5456bc4ed01394c96a4feec0f883c9494257d76b96ab1c9b6b602052604090205460ff16611eeb576001600160a01b03165f8181527f75442b0a96088b5456bc4ed01394c96a4feec0f883c9494257d76b96ab1c9b6b60205260408120805460ff191660011790553391907f65d7a28e3265b37a6474929f336521b332c1681b933f6cb9f3376673440d862a905f805160206126088339815191529080a4600190565b6001600160a01b0381165f9081527f0b45fb0a7d123af421db170fce034e3ce3a70e5f1150428004face1400c458f2602052604090205460ff16611eeb576001600160a01b03165f8181527f0b45fb0a7d123af421db170fce034e3ce3a70e5f1150428004face1400c458f260205260408120805460ff191660011790553391907f68e79a7bf1e0bc45d0a330c573bc367f9cf464fd326078812f301165fbda4ef1905f805160206126088339815191529080a4600190565b6001600160a01b0381165f9081527fab71e3f32666744d246edff3f96e4bdafee2e9867098cdd118a979a7464786a8602052604090205460ff16611eeb576001600160a01b03165f8181527fab71e3f32666744d246edff3f96e4bdafee2e9867098cdd118a979a7464786a860205260408120805460ff191660011790553391907f189ab7a9244df0848122154315af71fe140f3db0fe014031783b0946b8c9d2e3905f805160206126088339815191529080a4600190565b5f8181525f80516020612648833981519152602090815260408083206001600160a01b038616845290915290205460ff1661225f575f8181525f80516020612648833981519152602090815260408083206001600160a01b0395909516808452949091528120805460ff19166001179055339291905f805160206126088339815191529080a4600190565b50505f90565b5f8181525f80516020612648833981519152602090815260408083206001600160a01b038616845290915290205460ff161561225f575f8181525f80516020612648833981519152602090815260408083206001600160a01b0395909516808452949091528120805460ff19169055339291907ff6391f5c32d9c69d2a47ea670b442974b53935d1edc7fd64eb21e047a839171b9080a4600190565b60ff5f80516020612668833981519152541661231957565b63d93c066560e01b5f5260045ffd5b6040516323b872dd60e01b5f9081526001600160a01b039384166004529290931660245260449390935260209060648180865af19060015f5114821615612399575b6040525f606052156123795750565b635274afe760e01b5f9081526001600160a01b0391909116600452602490fd5b9060018115166123b157823b15153d1516169061236a565b503d5f823e3d90fd5b9081518110156123cb570160200190565b634e487b7160e01b5f52603260045260245ffd5b805115611eeb575f5b8151811015612487576001600160f81b031961240482846123ba565b5116606160f81b8110159081612478575b8115612454575b8115612446575b8115612438575b501561225f576001016123e8565b605f60f81b1490505f61242a565b602d60f81b81149150612423565b9050600360fc1b8110158061246a575b9061241c565b50603960f81b811115612464565b603d60f91b8111159150612415565b508051156123cb5760208101516001600160f81b031916602d60f81b148015612520575b611eeb57805190600482101591826124f9575b50816124d3575b506124cf57600190565b5f90565b80915051600310156123cb57602301516001600160f81b031916602d60f81b145f6124c5565b909150600210156123cb5760228101516001600160f81b031916602d60f81b14905f6124be565b5080515f1981019081116109e557602d60f81b906001600160f81b03199061254890846123ba565b5116146124ab565b60ff5f805160206126888339815191525460401c161561256c57565b631afcd79f60e31b5f5260045ffd5b905f8091602081519101845af480806125f4575b156125af5750506040513d81523d5f602083013e60203d82010160405290565b156125d457639996b31560e01b5f9081526001600160a01b0391909116600452602490fd5b3d156125e5576040513d5f823e3d90fd5b63d6bda27560e01b5f5260045ffd5b503d15158061258f5750813b151561258f56fe2f8788117e7eff1d82e926ec794901d17c78024a50270940304540a733656f0d360894a13ba1a3210667c828492db98dca3e2076cc3735a920a3ca505d382bbc02dd7bc7dec4dceedda775e58dd541e08a116c6c53815c0bd028192f7b626800cd5ed15c6e187e77e9aee88184c21f4f2182ab5827cb3b7e07fbedcd63f03300f0c57e16840df040f15088dc2f81fe391c3923bec73e23a9662efc9c229c6a00a2646970667358221220e7f214a4af328820c96b554da604cbeb20102942d290d228f9ebe77f0abcc05564736f6c634300081a0033",
  "linkReferences": {},
  "deployedLinkReferences": {}
}