{
  "_format": "hh-sol-artifact-1",
  "contractName": "ArcNSRegistry",
  "sourceName": "contracts/v3/registry/ArcNSRegistry.sol",
  "abi": [
    {
      "inputs": [],
      "stateMutability": "nonpayable",
      "type": "constructor"
    },
    {
      "inputs": [],
      "name": "NotAuthorised",
      "type": "error"
    },
    {
      "inputs": [],
      "name": "ZeroAddress",
      "type": "error"
    },
    {
      "anonymous": false,
      "inputs": [
        {
          "indexed": true,
          "internalType": "address",
          "name": "owner",
          "type": "address"
        },
        {
          "indexed": true,
          "internalType": "address",
          "name": "operator",
          "type": "address"
        },
        {
          "indexed": false,
          "internalType": "bool",
          "name": "approved",
          "type": "bool"
        }
      ],
      "name": "ApprovalForAll",
      "type": "event"
    },
    {
      "anonymous": false,
      "inputs": [
        {
          "indexed": true,
          "internalType": "bytes32",
          "name": "node",
          "type": "bytes32"
        },
        {
          "indexed": true,
          "internalType": "bytes32",
          "name": "label",
          "type": "bytes32"
        },
        {
          "indexed": false,
          "internalType": "address",
          "name": "owner",
          "type": "address"
        }
      ],
      "name": "NewOwner",
      "type": "event"
    },
    {
      "anonymous": false,
      "inputs": [
        {
          "indexed": true,
          "internalType": "bytes32",
          "name": "node",
          "type": "bytes32"
        },
        {
          "indexed": false,
          "internalType": "address",
          "name": "resolver",
          "type": "address"
        }
      ],
      "name": "NewResolver",
      "type": "event"
    },
    {
      "anonymous": false,
      "inputs": [
        {
          "indexed": true,
          "internalType": "bytes32",
          "name": "node",
          "type": "bytes32"
        },
        {
          "indexed": false,
          "internalType": "uint64",
          "name": "ttl",
          "type": "uint64"
        }
      ],
      "name": "NewTTL",
      "type": "event"
    },
    {
      "anonymous": false,
      "inputs": [
        {
          "indexed": true,
          "internalType": "bytes32",
          "name": "node",
          "type": "bytes32"
        },
        {
          "indexed": false,
          "internalType": "address",
          "name": "owner",
          "type": "address"
        }
      ],
      "name": "Transfer",
      "type": "event"
    },
    {
      "inputs": [
        {
          "internalType": "address",
          "name": "owner_",
          "type": "address"
        },
        {
          "internalType": "address",
          "name": "operator",
          "type": "address"
        }
      ],
      "name": "isApprovedForAll",
      "outputs": [
        {
          "internalType": "bool",
          "name": "",
          "type": "bool"
        }
      ],
      "stateMutability": "view",
      "type": "function"
    },
    {
      "inputs": [
        {
          "internalType": "bytes32",
          "name": "node",
          "type": "bytes32"
        }
      ],
      "name": "owner",
      "outputs": [
        {
          "internalType": "address",
          "name": "",
          "type": "address"
        }
      ],
      "stateMutability": "view",
      "type": "function"
    },
    {
      "inputs": [
        {
          "internalType": "bytes32",
          "name": "node",
          "type": "bytes32"
        }
      ],
      "name": "recordExists",
      "outputs": [
        {
          "internalType": "bool",
          "name": "",
          "type": "bool"
        }
      ],
      "stateMutability": "view",
      "type": "function"
    },
    {
      "inputs": [
        {
          "internalType": "bytes32",
          "name": "node",
          "type": "bytes32"
        }
      ],
      "name": "resolver",
      "outputs": [
        {
          "internalType": "address",
          "name": "",
          "type": "address"
        }
      ],
      "stateMutability": "view",
      "type": "function"
    },
    {
      "inputs": [
        {
          "internalType": "address",
          "name": "operator",
          "type": "address"
        },
        {
          "internalType": "bool",
          "name": "approved",
          "type": "bool"
        }
      ],
      "name": "setApprovalForAll",
      "outputs": [],
      "stateMutability": "nonpayable",
      "type": "function"
    },
    {
      "inputs": [
        {
          "internalType": "bytes32",
          "name": "node",
          "type": "bytes32"
        },
        {
          "internalType": "address",
          "name": "owner_",
          "type": "address"
        }
      ],
      "name": "setOwner",
      "outputs": [],
      "stateMutability": "nonpayable",
      "type": "function"
    },
    {
      "inputs": [
        {
          "internalType": "bytes32",
          "name": "node",
          "type": "bytes32"
        },
        {
          "internalType": "address",
          "name": "owner_",
          "type": "address"
        },
        {
          "internalType": "address",
          "name": "resolver_",
          "type": "address"
        },
        {
          "internalType": "uint64",
          "name": "ttl_",
          "type": "uint64"
        }
      ],
      "name": "setRecord",
      "outputs": [],
      "stateMutability": "nonpayable",
      "type": "function"
    },
    {
      "inputs": [
        {
          "internalType": "bytes32",
          "name": "node",
          "type": "bytes32"
        },
        {
          "internalType": "address",
          "name": "resolver_",
          "type": "address"
        }
      ],
      "name": "setResolver",
      "outputs": [],
      "stateMutability": "nonpayable",
      "type": "function"
    },
    {
      "inputs": [
        {
          "internalType": "bytes32",
          "name": "node",
          "type": "bytes32"
        },
        {
          "internalType": "bytes32",
          "name": "label",
          "type": "bytes32"
        },
        {
          "internalType": "address",
          "name": "owner_",
          "type": "address"
        }
      ],
      "name": "setSubnodeOwner",
      "outputs": [
        {
          "internalType": "bytes32",
          "name": "",
          "type": "bytes32"
        }
      ],
      "stateMutability": "nonpayable",
      "type": "function"
    },
    {
      "inputs": [
        {
          "internalType": "bytes32",
          "name": "node",
          "type": "bytes32"
        },
        {
          "internalType": "bytes32",
          "name": "label",
          "type": "bytes32"
        },
        {
          "internalType": "address",
          "name": "owner_",
          "type": "address"
        },
        {
          "internalType": "address",
          "name": "resolver_",
          "type": "address"
        },
        {
          "internalType": "uint64",
          "name": "ttl_",
          "type": "uint64"
        }
      ],
      "name": "setSubnodeRecord",
      "outputs": [],
      "stateMutability": "nonpayable",
      "type": "function"
    },
    {
      "inputs": [
        {
          "internalType": "bytes32",
          "name": "node",
          "type": "bytes32"
        },
        {
          "internalType": "uint64",
          "name": "ttl_",
          "type": "uint64"
        }
      ],
      "name": "setTTL",
      "outputs": [],
      "stateMutability": "nonpayable",
      "type": "function"
    },
    {
      "inputs": [
        {
          "internalType": "bytes32",
          "name": "node",
          "type": "bytes32"
        }
      ],
      "name": "ttl",
      "outputs": [
        {
          "internalType": "uint64",
          "name": "",
          "type": "uint64"
        }
      ],
      "stateMutability": "view",
      "type": "function"
    }
  ],
  "bytecode": "0x60808060405234607d575f80805260208181527fad3228b676f7d3cd4284a5443f17f1962b36e491b30a40b2405849e597ba5fb580546001600160a01b03191633908117909155835290917fd4735d920b0f87494915f556dd9b54c8f309026070caea5c737245152564d2669190a260405161089090816100828239f35b5f80fdfe6080806040526004361015610012575f80fd5b5f3560e01c9081630178b8bf146105e85750806302571be3146105b757806306ab59231461053957806314ab90381461046057806316a25cbd146104275780631896f70a1461036a5780635b0fc9c3146102fc5780635ef2c7f01461025d578063a22cb465146101d4578063cf4088231461012e578063e985e9c5146100d75763f79fe538146100a0575f80fd5b346100d35760203660031901126100d3576004355f525f602052602060018060a01b0360405f2054161515604051908152f35b5f80fd5b346100d35760403660031901126100d3576100f0610648565b6100f8610632565b9060018060a01b03165f52600160205260405f209060018060a01b03165f52602052602060ff60405f2054166040519015158152f35b346100d35760803660031901126100d35760043561014a610632565b9061015361061c565b6064359167ffffffffffffffff831683036100d357805f525f60205260018060a01b0360405f2054163381141590816101af575b506101a05761019961019e94826106e8565b610740565b005b631648fd0160e01b5f5260045ffd5b5f90815260016020908152604080832033845290915290205460ff1615905085610187565b346100d35760403660031901126100d3576101ed610648565b602435908115158092036100d357335f52600160205260405f2060018060a01b0382165f5260205260405f2060ff1981541660ff841617905560405191825260018060a01b0316907f17307eab39ab6107e8899845ad3d59bd9653f200f220920489ca2b5937696c3160203392a3005b346100d35760a03660031901126100d35760043561027961061c565b906064356001600160a01b03811681036100d3576084359167ffffffffffffffff831683036100d357805f525f60205260018060a01b0360405f2054163381141590816102d7575b506101a05761019e93610199916024359061065e565b5f90815260016020908152604080832033845290915290205460ff16159050856102c1565b346100d35760403660031901126100d357600435610318610632565b815f525f60205260018060a01b0360405f205416338114159081610345575b506101a05761019e916106e8565b5f90815260016020908152604080832033845290915290205460ff1615905083610337565b346100d35760403660031901126100d357600435610386610632565b815f525f60205260018060a01b0360405f205416338114159081610402575b506101a0575f828152602081815260409182902060010180546001600160a01b0319166001600160a01b03909416938417905590519182527f335721b01866dc23fbee8b6b2c7b1e14d6f05c28cd35a2c934239f94095602a091a2005b5f90815260016020908152604080832033845290915290205460ff16159050836103a5565b346100d35760203660031901126100d3576004355f525f602052602067ffffffffffffffff600160405f20015460a01c16604051908152f35b346100d35760403660031901126100d35760043560243567ffffffffffffffff8116908181036100d357825f525f60205260018060a01b0360405f205416338114159081610514575b506101a0575f83815260208181526040909120600101805467ffffffffffffffff60a01b191660a09390931b67ffffffffffffffff60a01b16929092179091557f1d4f9bbfc9cab89d66e1a1562f2233ccbf1308cb4f63de2ead5787adddb8fa6891604051908152a2005b5f90815260016020908152604080832033845290915290205460ff16159050846104a9565b346100d35760603660031901126100d35760043561055561061c565b90805f525f60205260018060a01b0360405f205416338114159081610592575b506101a05760209161058a916024359061065e565b604051908152f35b5f90815260016020908152604080832033845290915290205460ff1615905083610575565b346100d35760203660031901126100d3576004355f525f602052602060018060a01b0360405f205416604051908152f35b346100d35760203660031901126100d3576004355f90815260208181526040909120600101546001600160a01b0316825290f35b604435906001600160a01b03821682036100d357565b602435906001600160a01b03821682036100d357565b600435906001600160a01b03821682036100d357565b6040516020810182815283604083015260408252606082019082821067ffffffffffffffff8311176106d4577fce0457fe73731f824cc272376169235128c118b49d344817417c6d108d155e8292602092604052519020946106c081876106e8565b6040516001600160a01b039091168152a390565b634e487b7160e01b5f52604160045260245ffd5b5f818152602081815260409182902080546001600160a01b0319166001600160a01b039095169485179055905192835290917fd4735d920b0f87494915f556dd9b54c8f309026070caea5c737245152564d2669190a2565b5f8181526020819052604090206001015490929183916001600160a01b0391821691168103610804575b505f525f60205267ffffffffffffffff600160405f20015460a01c169067ffffffffffffffff811691820361079e57505050565b5f83815260208181526040909120600101805467ffffffffffffffff60a01b191660a09390931b67ffffffffffffffff60a01b16929092179091557f1d4f9bbfc9cab89d66e1a1562f2233ccbf1308cb4f63de2ead5787adddb8fa6891604051908152a2565b60207f335721b01866dc23fbee8b6b2c7b1e14d6f05c28cd35a2c934239f94095602a091835f525f8252600160405f2001816bffffffffffffffffffffffff60a01b825416179055604051908152a2815f61076a56fea26469706673582212204544b857670c248b720953bd0f4abd3839e2819b3eb4affdf5c1c256a902551564736f6c634300081a0033",
  "linkReferences": {},
  "deployedLinkReferences": {}
}