{
  "_format": "hh-sol-artifact-1",
  "contractName": "ArcNSResolverV2Mock",
  "sourceName": "contracts/v3/mocks/ArcNSResolverV2Mock.sol",
  "abi": [
    {
      "inputs": [],
      "name": "AccessControlBadConfirmation",
      "type": "error"
    },
    {
      "inputs": [
        {
          "internalType": "address",
          "name": "account",
          "type": "address"
        },
        {
          "internalType": "bytes32",
          "name": "neededRole",
          "type": "bytes32"
        }
      ],
      "name": "AccessControlUnauthorizedAccount",
      "type": "error"
    },
    {
      "inputs": [
        {
          "internalType": "address",
          "name": "target",
          "type": "address"
        }
      ],
      "name": "AddressEmptyCode",
      "type": "error"
    },
    {
      "inputs": [
        {
          "internalType": "address",
          "name": "implementation",
          "type": "address"
        }
      ],
      "name": "ERC1967InvalidImplementation",
      "type": "error"
    },
    {
      "inputs": [],
      "name": "ERC1967NonPayable",
      "type": "error"
    },
    {
      "inputs": [],
      "name": "FailedCall",
      "type": "error"
    },
    {
      "inputs": [],
      "name": "InvalidInitialization",
      "type": "error"
    },
    {
      "inputs": [],
      "name": "NotAuthorised",
      "type": "error"
    },
    {
      "inputs": [],
      "name": "NotInitializing",
      "type": "error"
    },
    {
      "inputs": [],
      "name": "UUPSUnauthorizedCallContext",
      "type": "error"
    },
    {
      "inputs": [
        {
          "internalType": "bytes32",
          "name": "slot",
          "type": "bytes32"
        }
      ],
      "name": "UUPSUnsupportedProxiableUUID",
      "type": "error"
    },
    {
      "inputs": [],
      "name": "ZeroRegistry",
      "type": "error"
    },
    {
      "anonymous": false,
      "inputs": [
        {
          "indexed": true,
          "internalType": "bytes32",
          "name": "node",
          "type": "bytes32"
        },
        {
          "indexed": false,
          "internalType": "address",
          "name": "addr",
          "type": "address"
        }
      ],
      "name": "AddrChanged",
      "type": "event"
    },
    {
      "anonymous": false,
      "inputs": [
        {
          "indexed": false,
          "internalType": "uint64",
          "name": "version",
          "type": "uint64"
        }
      ],
      "name": "Initialized",
      "type": "event"
    },
    {
      "anonymous": false,
      "inputs": [
        {
          "indexed": true,
          "internalType": "bytes32",
          "name": "node",
          "type": "bytes32"
        },
        {
          "indexed": false,
          "internalType": "string",
          "name": "name",
          "type": "string"
        }
      ],
      "name": "NameChanged",
      "type": "event"
    },
    {
      "anonymous": false,
      "inputs": [
        {
          "indexed": true,
          "internalType": "bytes32",
          "name": "role",
          "type": "bytes32"
        },
        {
          "indexed": true,
          "internalType": "bytes32",
          "name": "previousAdminRole",
          "type": "bytes32"
        },
        {
          "indexed": true,
          "internalType": "bytes32",
          "name": "newAdminRole",
          "type": "bytes32"
        }
      ],
      "name": "RoleAdminChanged",
      "type": "event"
    },
    {
      "anonymous": false,
      "inputs": [
        {
          "indexed": true,
          "internalType": "bytes32",
          "name": "role",
          "type": "bytes32"
        },
        {
          "indexed": true,
          "internalType": "address",
          "name": "account",
          "type": "address"
        },
        {
          "indexed": true,
          "internalType": "address",
          "name": "sender",
          "type": "address"
        }
      ],
      "name": "RoleGranted",
      "type": "event"
    },
    {
      "anonymous": false,
      "inputs": [
        {
          "indexed": true,
          "internalType": "bytes32",
          "name": "role",
          "type": "bytes32"
        },
        {
          "indexed": true,
          "internalType": "address",
          "name": "account",
          "type": "address"
        },
        {
          "indexed": true,
          "internalType": "address",
          "name": "sender",
          "type": "address"
        }
      ],
      "name": "RoleRevoked",
      "type": "event"
    },
    {
      "anonymous": false,
      "inputs": [
        {
          "indexed": true,
          "internalType": "address",
          "name": "implementation",
          "type": "address"
        }
      ],
      "name": "Upgraded",
      "type": "event"
    },
    {
      "inputs": [],
      "name": "ADMIN_ROLE",
      "outputs": [
        {
          "internalType": "bytes32",
          "name": "",
          "type": "bytes32"
        }
      ],
      "stateMutability": "view",
      "type": "function"
    },
    {
      "inputs": [],
      "name": "CONTROLLER_ROLE",
      "outputs": [
        {
          "internalType": "bytes32",
          "name": "",
          "type": "bytes32"
        }
      ],
      "stateMutability": "view",
      "type": "function"
    },
    {
      "inputs": [],
      "name": "DEFAULT_ADMIN_ROLE",
      "outputs": [
        {
          "internalType": "bytes32",
          "name": "",
          "type": "bytes32"
        }
      ],
      "stateMutability": "view",
      "type": "function"
    },
    {
      "inputs": [],
      "name": "UPGRADER_ROLE",
      "outputs": [
        {
          "internalType": "bytes32",
          "name": "",
          "type": "bytes32"
        }
      ],
      "stateMutability": "view",
      "type": "function"
    },
    {
      "inputs": [],
      "name": "UPGRADE_INTERFACE_VERSION",
      "outputs": [
        {
          "internalType": "string",
          "name": "",
          "type": "string"
        }
      ],
      "stateMutability": "view",
      "type": "function"
    },
    {
      "inputs": [
        {
          "internalType": "bytes32",
          "name": "node",
          "type": "bytes32"
        }
      ],
      "name": "addr",
      "outputs": [
        {
          "internalType": "address payable",
          "name": "",
          "type": "address"
        }
      ],
      "stateMutability": "view",
      "type": "function"
    },
    {
      "inputs": [
        {
          "internalType": "bytes32",
          "name": "role",
          "type": "bytes32"
        }
      ],
      "name": "getRoleAdmin",
      "outputs": [
        {
          "internalType": "bytes32",
          "name": "",
          "type": "bytes32"
        }
      ],
      "stateMutability": "view",
      "type": "function"
    },
    {
      "inputs": [
        {
          "internalType": "bytes32",
          "name": "role",
          "type": "bytes32"
        },
        {
          "internalType": "address",
          "name": "account",
          "type": "address"
        }
      ],
      "name": "grantRole",
      "outputs": [],
      "stateMutability": "nonpayable",
      "type": "function"
    },
    {
      "inputs": [
        {
          "internalType": "bytes32",
          "name": "role",
          "type": "bytes32"
        },
        {
          "internalType": "address",
          "name": "account",
          "type": "address"
        }
      ],
      "name": "hasRole",
      "outputs": [
        {
          "internalType": "bool",
          "name": "",
          "type": "bool"
        }
      ],
      "stateMutability": "view",
      "type": "function"
    },
    {
      "inputs": [
        {
          "internalType": "contract IArcNSRegistry",
          "name": "registry_",
          "type": "address"
        },
        {
          "internalType": "address",
          "name": "admin_",
          "type": "address"
        }
      ],
      "name": "initialize",
      "outputs": [],
      "stateMutability": "nonpayable",
      "type": "function"
    },
    {
      "inputs": [
        {
          "internalType": "bytes32",
          "name": "node",
          "type": "bytes32"
        }
      ],
      "name": "name",
      "outputs": [
        {
          "internalType": "string",
          "name": "",
          "type": "string"
        }
      ],
      "stateMutability": "view",
      "type": "function"
    },
    {
      "inputs": [],
      "name": "proxiableUUID",
      "outputs": [
        {
          "internalType": "bytes32",
          "name": "",
          "type": "bytes32"
        }
      ],
      "stateMutability": "view",
      "type": "function"
    },
    {
      "inputs": [],
      "name": "registry",
      "outputs": [
        {
          "internalType": "contract IArcNSRegistry",
          "name": "",
          "type": "address"
        }
      ],
      "stateMutability": "view",
      "type": "function"
    },
    {
      "inputs": [
        {
          "internalType": "bytes32",
          "name": "role",
          "type": "bytes32"
        },
        {
          "internalType": "address",
          "name": "callerConfirmation",
          "type": "address"
        }
      ],
      "name": "renounceRole",
      "outputs": [],
      "stateMutability": "nonpayable",
      "type": "function"
    },
    {
      "inputs": [
        {
          "internalType": "bytes32",
          "name": "role",
          "type": "bytes32"
        },
        {
          "internalType": "address",
          "name": "account",
          "type": "address"
        }
      ],
      "name": "revokeRole",
      "outputs": [],
      "stateMutability": "nonpayable",
      "type": "function"
    },
    {
      "inputs": [
        {
          "internalType": "bytes32",
          "name": "node",
          "type": "bytes32"
        },
        {
          "internalType": "address",
          "name": "a",
          "type": "address"
        }
      ],
      "name": "setAddr",
      "outputs": [],
      "stateMutability": "nonpayable",
      "type": "function"
    },
    {
      "inputs": [
        {
          "internalType": "address",
          "name": "controller",
          "type": "address"
        },
        {
          "internalType": "bool",
          "name": "trusted",
          "type": "bool"
        }
      ],
      "name": "setController",
      "outputs": [],
      "stateMutability": "nonpayable",
      "type": "function"
    },
    {
      "inputs": [
        {
          "internalType": "bytes32",
          "name": "node",
          "type": "bytes32"
        },
        {
          "internalType": "string",
          "name": "name_",
          "type": "string"
        }
      ],
      "name": "setName",
      "outputs": [],
      "stateMutability": "nonpayable",
      "type": "function"
    },
    {
      "inputs": [
        {
          "internalType": "bytes4",
          "name": "interfaceId",
          "type": "bytes4"
        }
      ],
      "name": "supportsInterface",
      "outputs": [
        {
          "internalType": "bool",
          "name": "",
          "type": "bool"
        }
      ],
      "stateMutability": "view",
      "type": "function"
    },
    {
      "inputs": [
        {
          "internalType": "address",
          "name": "newImplementation",
          "type": "address"
        },
        {
          "internalType": "bytes",
          "name": "data",
          "type": "bytes"
        }
      ],
      "name": "upgradeToAndCall",
      "outputs": [],
      "stateMutability": "payable",
      "type": "function"
    },
    {
      "inputs": [],
      "name": "version",
      "outputs": [
        {
          "internalType": "string",
          "name": "",
          "type": "string"
        }
      ],
      "stateMutability": "pure",
      "type": "function"
    }
  ],
  "bytecode": "0x60a080604052346100e857306080527ff0c57e16840df040f15088dc2f81fe391c3923bec73e23a9662efc9c229c6a005460ff8160401c166100d9576002600160401b03196001600160401b03821601610073575b60405161192990816100ed82396080518181816105330152610cce0152f35b6001600160401b0319166001600160401b039081177ff0c57e16840df040f15088dc2f81fe391c3923bec73e23a9662efc9c229c6a005581527fc7f505b2f371ae2175ee4913f4499e1f2633a7b5936321eed1cdaeb6115181d290602090a15f80610054565b63f92ee8a960e01b5f5260045ffd5b5f80fdfe60806040526004361015610011575f80fd5b5f3560e01c806301ffc9a714610164578063092c5b3b1461015f578063248a9ca31461015a5780632f2ff15d1461015557806336568abe146101505780633b3b57de1461014b578063485cc955146101465780634f1ef2861461014157806352d1902d1461013c57806354fd4d5014610137578063691f34311461013257806375b238fc1461012d57806377372213146101285780637b1039991461012357806391d148541461011e578063a217fddf14610119578063ad3cb1cc14610114578063d547741f1461010f578063d5fa2b001461010a578063e0dba60f146101055763f72c0d8b14610100575f80fd5b610ae6565b610a39565b610868565b610834565b6107f5565b6107db565b61077d565b610756565b6106f7565b6106bd565b6105f1565b6105b1565b610521565b6104a6565b6102cf565b61029f565b610257565b61021c565b6101e5565b6101be565b346101ba5760203660031901126101ba5760043563ffffffff60e01b81168091036101ba57602090637965db0b60e01b81149081156101a9575b506040519015158152f35b6301ffc9a760e01b1490505f61019e565b5f80fd5b346101ba575f3660031901126101ba5760206040515f805160206118548339815191528152f35b346101ba5760203660031901126101ba576020610203600435610b20565b604051908152f35b6001600160a01b038116036101ba57565b346101ba5760403660031901126101ba5761025560243560043561023f8261020b565b61025061024b82610b20565b6111e9565b6114d0565b005b346101ba5760403660031901126101ba576004356024356102778161020b565b336001600160a01b0382160361029057610255916115f6565b63334bd91960e11b5f5260045ffd5b346101ba5760203660031901126101ba5760206102bd600435610b76565b6040516001600160a01b039091168152f35b346101ba5760403660031901126101ba576004356102ec8161020b565b602435906102f98261020b565b5f805160206118d4833981519152549167ffffffffffffffff61032c60ff604086901c16159467ffffffffffffffff1690565b1680159081610447575b600114908161043d575b159081610434575b506104255761038c9183610383600167ffffffffffffffff195f805160206118d48339815191525416175f805160206118d483398151915255565b6103eb57610c44565b61039257005b6103bc60ff60401b195f805160206118d483398151915254165f805160206118d483398151915255565b604051600181527fc7f505b2f371ae2175ee4913f4499e1f2633a7b5936321eed1cdaeb6115181d290602090a1005b6104206801000000000000000060ff60401b195f805160206118d48339815191525416175f805160206118d483398151915255565b610c44565b63f92ee8a960e01b5f5260045ffd5b9050155f610348565b303b159150610340565b849150610336565b634e487b7160e01b5f52604160045260245ffd5b90601f8019910116810190811067ffffffffffffffff82111761048557604052565b61044f565b67ffffffffffffffff811161048557601f01601f191660200190565b60403660031901126101ba576004356104be8161020b565b6024359067ffffffffffffffff82116101ba57366023830112156101ba578160040135906104eb8261048a565b916104f96040519384610463565b80835236602482860101116101ba576020815f92602461025597018387013784010152610cc2565b346101ba575f3660031901126101ba577f00000000000000000000000000000000000000000000000000000000000000006001600160a01b031630036105785760206040515f805160206118748339815191528152f35b63703e46dd60e11b5f5260045ffd5b602060409281835280519182918282860152018484015e5f828201840152601f01601f1916010190565b346101ba575f3660031901126101ba576105ed6040516105d2604082610463565b60028152613b1960f11b602082015260405191829182610587565b0390f35b346101ba5760203660031901126101ba576004355f52600460205260405f20604051905f9080549061062282610b3e565b80855291600181169081156106965750600114610656575b6105ed8461064a81860382610463565b60405191829182610587565b5f90815260208120939250905b80821061067c5750909150810160200161064a8261063a565b919260018160209254838588010152019101909291610663565b60ff191660208087019190915292151560051b8501909201925061064a915083905061063a565b346101ba575f3660031901126101ba5760206040517fa49807205ce4d355092ef5a8a18f56e8913cf4a201fbe287825b095693c217758152f35b346101ba5760403660031901126101ba5760243560043567ffffffffffffffff82116101ba57366023830112156101ba5781600401359067ffffffffffffffff82116101ba5736602483850101116101ba576024610255930190610dd9565b346101ba575f3660031901126101ba575f546040516001600160a01b039091168152602090f35b346101ba5760403660031901126101ba57602060ff6107cf6024356004356107a48261020b565b5f525f805160206118b4833981519152845260405f209060018060a01b03165f5260205260405f2090565b54166040519015158152f35b346101ba575f3660031901126101ba5760206040515f8152f35b346101ba575f3660031901126101ba576105ed604051610816604082610463565b60058152640352e302e360dc1b602082015260405191829182610587565b346101ba5760403660031901126101ba576102556024356004356108578261020b565b61086361024b82610b20565b6115f6565b346101ba5760403660031901126101ba576004356024356108888161020b565b5f546108a4906001600160a01b03165b6001600160a01b031690565b6040516302571be360e01b815260048101849052602081602481855afa9081156109dc575f91610a10575b506001600160a01b0316331415908161092b575b5080610906575b6108f75761025591610fba565b631648fd0160e01b5f5260045ffd5b50335f9081525f80516020611894833981519152602052604090205460ff16156108ea565b6040516302571be360e01b815260048101859052909150602081602481855afa80156109dc57610993926020925f926109e1575b5060405163e985e9c560e01b81526001600160a01b0390921660048301523360248301529092839190829081906044820190565b03915afa9081156109dc575f916109ad575b50155f6108e3565b6109cf915060203d6020116109d5575b6109c78183610463565b810190610fa5565b5f6109a5565b503d6109bd565b610f9a565b610a02919250833d8511610a09575b6109fa8183610463565b810190610f85565b905f61095f565b503d6109f0565b610a29915060203d602011610a09576109fa8183610463565b5f6108cf565b801515036101ba57565b346101ba5760403660031901126101ba57600435610a568161020b565b602435610a6281610a2f565b335f9081527fb16e88c42fd4e48df2dd6a2eabd6bc9aec654ec170056b470819f8892cc6431c602052604090205460ff1615610aaf5715610aa6576102559061122f565b61025590611565565b63e2517d3f60e01b5f52336004527fa49807205ce4d355092ef5a8a18f56e8913cf4a201fbe287825b095693c2177560245260445ffd5b346101ba575f3660031901126101ba5760206040517f189ab7a9244df0848122154315af71fe140f3db0fe014031783b0946b8c9d2e38152f35b5f525f805160206118b4833981519152602052600160405f20015490565b90600182811c92168015610b6c575b6020831014610b5857565b634e487b7160e01b5f52602260045260245ffd5b91607f1691610b4d565b5f52600160205260405f20603c5f5260205260405f2060405190815f825492610b9e84610b3e565b8084529360018116908115610c225750600114610bde575b50610bc392500382610463565b805115610bd957610898610bd691611696565b90565b505f90565b90505f9291925260205f20905f915b818310610c06575050906020610bc3928201015f610bb6565b6020919350806001915483858801015201910190918392610bed565b905060209250610bc394915060ff191682840152151560051b8201015f610bb6565b6001600160a01b0316908115610cb35760ff5f805160206118d48339815191525460401c1615610ca457610ca1916bffffffffffffffffffffffff60a01b5f5416175f55610c91816112b7565b50610c9b8161134e565b5061140f565b50565b631afcd79f60e31b5f5260045ffd5b634a100d5960e01b5f5260045ffd5b90916001600160a01b037f000000000000000000000000000000000000000000000000000000000000000016308114908115610db7575b5061057857610d06611131565b6040516352d1902d60e01b8152926020846004816001600160a01b0387165afa5f9481610d86575b50610d4f57634c9c8ce360e01b5f526001600160a01b03831660045260245ffd5b90915f805160206118748339815191528403610d7257610d70929350611708565b565b632a87526960e21b5f52600484905260245ffd5b610da991955060203d602011610db0575b610da18183610463565b8101906116f9565b935f610d2e565b503d610d97565b5f80516020611874833981519152546001600160a01b0316141590505f610cf9565b909291610de46111a0565b815f52600460205260405f209367ffffffffffffffff821161048557610e1482610e0e8754610b3e565b87610f0f565b5f94601f8311600114610e8657610e6483807fb7d29e911041e8d9b843369e890bcb72c9388692ba48b65ac54e7214c4c348f79697985f91610e7b575b508160011b915f199060031b1c19161790565b90555b610e7660405192839283610f5e565b0390a2565b90508401355f610e51565b601f19831695610e99825f5260205f2090565b905f5b888110610ef75750847fb7d29e911041e8d9b843369e890bcb72c9388692ba48b65ac54e7214c4c348f796979810610ede575b5050600183811b019055610e67565b8301355f19600386901b60f8161c191690555f80610ecf565b90916020600181928588013581550193019101610e9c565b601f8211610f1c57505050565b5f5260205f20906020601f840160051c83019310610f54575b601f0160051c01905b818110610f49575050565b5f8155600101610f3e565b9091508190610f35565b90918060409360208452816020850152848401375f828201840152601f01601f1916010190565b908160209103126101ba5751610bd68161020b565b6040513d5f823e3d90fd5b908160209103126101ba5751610bd681610a2f565b906040516bffffffffffffffffffffffff198260601b16602082015260148152610fe5603482610463565b825f52600160205260405f20603c5f5260205260405f209080519067ffffffffffffffff8211610485576110238261101d8554610b3e565b85610f0f565b602090601f83116001146110a157827f52d7d861f09ab3d26239d492e8968629f95e9e318cf0b73bfddc441522a15fd29593610e769593611079935f92611096575b50508160011b915f199060031b1c19161790565b90555b6040516001600160a01b0390911681529081906020820190565b015190505f80611065565b90601f198316916110b5855f5260205f2090565b925f5b81811061111957509260019285927f52d7d861f09ab3d26239d492e8968629f95e9e318cf0b73bfddc441522a15fd29896610e76989610611101575b505050811b01905561107c565b01515f1960f88460031b161c191690555f80806110f4565b929360206001819287860151815501950193016110b8565b335f9081527fab71e3f32666744d246edff3f96e4bdafee2e9867098cdd118a979a7464786a8602052604090205460ff161561116957565b63e2517d3f60e01b5f52336004527f189ab7a9244df0848122154315af71fe140f3db0fe014031783b0946b8c9d2e360245260445ffd5b335f9081525f80516020611894833981519152602052604090205460ff16156111c557565b63e2517d3f60e01b5f52336004525f8051602061185483398151915260245260445ffd5b5f8181525f805160206118b48339815191526020908152604080832033845290915290205460ff16156112195750565b63e2517d3f60e01b5f523360045260245260445ffd5b6001600160a01b0381165f9081525f80516020611894833981519152602052604090205460ff16610bd9576001600160a01b0381165f9081525f8051602061189483398151915260205260409020805460ff1916600117905533906001600160a01b03165f805160206118548339815191525f805160206118348339815191525f80a4600190565b6001600160a01b0381165f9081527fb7db2dd08fcb62d0c9e08c51941cae53c267786a0b75803fb7960902fc8ef97d602052604090205460ff16610bd9576001600160a01b03165f8181527fb7db2dd08fcb62d0c9e08c51941cae53c267786a0b75803fb7960902fc8ef97d60205260408120805460ff191660011790553391905f805160206118348339815191528180a4600190565b6001600160a01b0381165f9081527fb16e88c42fd4e48df2dd6a2eabd6bc9aec654ec170056b470819f8892cc6431c602052604090205460ff16610bd9576001600160a01b0381165f9081527fb16e88c42fd4e48df2dd6a2eabd6bc9aec654ec170056b470819f8892cc6431c60205260409020805460ff1916600117905533906001600160a01b03167fa49807205ce4d355092ef5a8a18f56e8913cf4a201fbe287825b095693c217755f805160206118348339815191525f80a4600190565b6001600160a01b0381165f9081527fab71e3f32666744d246edff3f96e4bdafee2e9867098cdd118a979a7464786a8602052604090205460ff16610bd9576001600160a01b0381165f9081527fab71e3f32666744d246edff3f96e4bdafee2e9867098cdd118a979a7464786a860205260409020805460ff1916600117905533906001600160a01b03167f189ab7a9244df0848122154315af71fe140f3db0fe014031783b0946b8c9d2e35f805160206118348339815191525f80a4600190565b5f8181525f805160206118b4833981519152602090815260408083206001600160a01b038616845290915290205460ff1661155f575f8181525f805160206118b4833981519152602090815260408083206001600160a01b03861684529091529020805460ff1916600117905533916001600160a01b0316905f805160206118348339815191525f80a4600190565b50505f90565b6001600160a01b0381165f9081525f80516020611894833981519152602052604090205460ff1615610bd9576001600160a01b03165f8181525f8051602061189483398151915260205260408120805460ff191690553391905f80516020611854833981519152907ff6391f5c32d9c69d2a47ea670b442974b53935d1edc7fd64eb21e047a839171b9080a4600190565b5f8181525f805160206118b4833981519152602090815260408083206001600160a01b038616845290915290205460ff161561155f575f8181525f805160206118b4833981519152602090815260408083206001600160a01b03861684529091529020805460ff1916905533916001600160a01b0316907ff6391f5c32d9c69d2a47ea670b442974b53935d1edc7fd64eb21e047a839171b5f80a4600190565b60148151036116a6576014015190565b60405162461bcd60e51b815260206004820152602560248201527f4172634e535265736f6c7665723a20696e76616c69642061646472657373206c6044820152640cadccee8d60db1b6064820152608490fd5b908160209103126101ba575190565b90813b15611786575f8051602061187483398151915280546001600160a01b0319166001600160a01b0384169081179091557fbc7cd75a20ee27fd9adebab32041f755214dbc6bffa90cc0225b39da2e5c2d3b5f80a280511561176e57610ca1916117a7565b50503461177757565b63b398979f60e01b5f5260045ffd5b50634c9c8ce360e01b5f9081526001600160a01b0391909116600452602490fd5b905f8091602081519101845af48080611807575b156117ca575050610bd661181a565b156117ef57639996b31560e01b5f9081526001600160a01b0391909116600452602490fd5b3d15155f03610f9a5763d6bda27560e01b5f5260045ffd5b503d1515806117bb5750813b15156117bb565b604051903d82523d5f602084013e60203d83010160405256fe2f8788117e7eff1d82e926ec794901d17c78024a50270940304540a733656f0d7b765e0e932d348852a6f810bfa1ab891e259123f02db8cdcde614c570223357360894a13ba1a3210667c828492db98dca3e2076cc3735a920a3ca505d382bbc6a9e2d30c9502d2e64654936f9966c37f5208e723166202f23831d0d37f1338302dd7bc7dec4dceedda775e58dd541e08a116c6c53815c0bd028192f7b626800f0c57e16840df040f15088dc2f81fe391c3923bec73e23a9662efc9c229c6a00a2646970667358221220ac47c0ad40a56379d7eb762ef089590aa2d26cb03b3c2059fadb42e6ad9b8e1164736f6c634300081a0033",
  "linkReferences": {},
  "deployedLinkReferences": {}
}