{
  "_format": "hh-sol-artifact-1",
  "contractName": "ArcNSPriceOracle",
  "sourceName": "contracts/registrar/ArcNSPriceOracle.sol",
  "abi": [
    {
      "inputs": [],
      "stateMutability": "nonpayable",
      "type": "constructor"
    },
    {
      "inputs": [
        {
          "internalType": "address",
          "name": "owner",
          "type": "address"
        }
      ],
      "name": "OwnableInvalidOwner",
      "type": "error"
    },
    {
      "inputs": [
        {
          "internalType": "address",
          "name": "account",
          "type": "address"
        }
      ],
      "name": "OwnableUnauthorizedAccount",
      "type": "error"
    },
    {
      "anonymous": false,
      "inputs": [
        {
          "indexed": true,
          "internalType": "address",
          "name": "previousOwner",
          "type": "address"
        },
        {
          "indexed": true,
          "internalType": "address",
          "name": "newOwner",
          "type": "address"
        }
      ],
      "name": "OwnershipTransferred",
      "type": "event"
    },
    {
      "anonymous": false,
      "inputs": [
        {
          "indexed": false,
          "internalType": "uint256",
          "name": "p1",
          "type": "uint256"
        },
        {
          "indexed": false,
          "internalType": "uint256",
          "name": "p2",
          "type": "uint256"
        },
        {
          "indexed": false,
          "internalType": "uint256",
          "name": "p3",
          "type": "uint256"
        },
        {
          "indexed": false,
          "internalType": "uint256",
          "name": "p4",
          "type": "uint256"
        },
        {
          "indexed": false,
          "internalType": "uint256",
          "name": "p5",
          "type": "uint256"
        }
      ],
      "name": "PricesUpdated",
      "type": "event"
    },
    {
      "inputs": [],
      "name": "owner",
      "outputs": [
        {
          "internalType": "address",
          "name": "",
          "type": "address"
        }
      ],
      "stateMutability": "view",
      "type": "function"
    },
    {
      "inputs": [
        {
          "internalType": "string",
          "name": "name_",
          "type": "string"
        },
        {
          "internalType": "uint256",
          "name": "",
          "type": "uint256"
        },
        {
          "internalType": "uint256",
          "name": "duration",
          "type": "uint256"
        }
      ],
      "name": "price",
      "outputs": [
        {
          "components": [
            {
              "internalType": "uint256",
              "name": "base",
              "type": "uint256"
            },
            {
              "internalType": "uint256",
              "name": "premium",
              "type": "uint256"
            }
          ],
          "internalType": "struct IArcNSPriceOracle.Price",
          "name": "",
          "type": "tuple"
        }
      ],
      "stateMutability": "view",
      "type": "function"
    },
    {
      "inputs": [],
      "name": "price1Char",
      "outputs": [
        {
          "internalType": "uint256",
          "name": "",
          "type": "uint256"
        }
      ],
      "stateMutability": "view",
      "type": "function"
    },
    {
      "inputs": [],
      "name": "price2Char",
      "outputs": [
        {
          "internalType": "uint256",
          "name": "",
          "type": "uint256"
        }
      ],
      "stateMutability": "view",
      "type": "function"
    },
    {
      "inputs": [],
      "name": "price3Char",
      "outputs": [
        {
          "internalType": "uint256",
          "name": "",
          "type": "uint256"
        }
      ],
      "stateMutability": "view",
      "type": "function"
    },
    {
      "inputs": [],
      "name": "price4Char",
      "outputs": [
        {
          "internalType": "uint256",
          "name": "",
          "type": "uint256"
        }
      ],
      "stateMutability": "view",
      "type": "function"
    },
    {
      "inputs": [],
      "name": "price5Plus",
      "outputs": [
        {
          "internalType": "uint256",
          "name": "",
          "type": "uint256"
        }
      ],
      "stateMutability": "view",
      "type": "function"
    },
    {
      "inputs": [],
      "name": "renounceOwnership",
      "outputs": [],
      "stateMutability": "nonpayable",
      "type": "function"
    },
    {
      "inputs": [
        {
          "internalType": "uint256",
          "name": "p1",
          "type": "uint256"
        },
        {
          "internalType": "uint256",
          "name": "p2",
          "type": "uint256"
        },
        {
          "internalType": "uint256",
          "name": "p3",
          "type": "uint256"
        },
        {
          "internalType": "uint256",
          "name": "p4",
          "type": "uint256"
        },
        {
          "internalType": "uint256",
          "name": "p5",
          "type": "uint256"
        }
      ],
      "name": "setPrices",
      "outputs": [],
      "stateMutability": "nonpayable",
      "type": "function"
    },
    {
      "inputs": [
        {
          "internalType": "address",
          "name": "newOwner",
          "type": "address"
        }
      ],
      "name": "transferOwnership",
      "outputs": [],
      "stateMutability": "nonpayable",
      "type": "function"
    }
  ],
  "bytecode": "0x6080806040523460975733156084575f8054336001600160a01b0319821681178355916001600160a01b03909116907f8be0079c531659141344cd1fd0a4f28419497f9722a3daafe3b4186f6b6457e09080a3632625a00060015563098968006002556302625a0060035562989680600455621e8480600555610515908161009c8239f35b631e4fbdf760e01b5f525f60045260245ffd5b5f80fdfe6080806040526004361015610012575f80fd5b5f3560e01c90816320362a421461047f5750806350e9a715146102855780636e293c5a14610268578063715018a61461021157806378419612146101f45780637bc6ec1a146101785780638da5cb5b14610151578063aed2845c14610134578063df5b407c146101175763f2fde38b1461008a575f80fd5b34610113576020366003190112610113576004356001600160a01b03811690819003610113576100b86104b9565b8015610100575f80546001600160a01b03198116831782556001600160a01b0316907f8be0079c531659141344cd1fd0a4f28419497f9722a3daafe3b4186f6b6457e09080a3005b631e4fbdf760e01b5f525f60045260245ffd5b5f80fd5b34610113575f366003190112610113576020600354604051908152f35b34610113575f366003190112610113576020600554604051908152f35b34610113575f366003190112610113575f546040516001600160a01b039091168152602090f35b346101135760a0366003190112610113577f6a40bdd3a45e084f5fca97b43d8f243d80b9ab02831e924b34872c53ff2a085e60a06004356084356064356044356024356101c36104b9565b84600155806002558160035582600455836005556040519485526020850152604084015260608301526080820152a1005b34610113575f366003190112610113576020600154604051908152f35b34610113575f366003190112610113576102296104b9565b5f80546001600160a01b0319811682556001600160a01b03167f8be0079c531659141344cd1fd0a4f28419497f9722a3daafe3b4186f6b6457e08280a3005b34610113575f366003190112610113576020600254604051908152f35b346101135760603660031901126101135760043567ffffffffffffffff8111610113573660238201121561011357806004013567ffffffffffffffff811161011357366024828401011161011357604435915f60206102e2610499565b828152015260405191601f8101601f19908116603f011683019067ffffffffffffffff82118483101761046b578060245f946020946040528287520183860137830101525f8151915f915b8381106103c75784836001810361038e57506001545b81810291818304149015171561037a576301e13380604091046020610366610499565b828152015f81528251918252516020820152f35b634e487b7160e01b5f52601160045260245ffd5b6002810361039f5750600254610343565b600381036103b05750600354610343565b6004036103bf57600454610343565b600554610343565b815181101561045757818101602001516001600160f81b031916600160ff1b81101561040c57506001810180911161037a57915b5f19811461037a576001019161032d565b600760fd1b81101561042a57506002810180911161037a57916103fb565b600f60fc1b1115610446576003810180911161037a57916103fb565b6004810180911161037a57916103fb565b634e487b7160e01b5f52603260045260245ffd5b634e487b7160e01b5f52604160045260245ffd5b34610113575f366003190112610113576020906004548152f35b604051906040820182811067ffffffffffffffff82111761046b57604052565b5f546001600160a01b031633036104cc57565b63118cdaa760e01b5f523360045260245ffdfea2646970667358221220ac3b802edcb9a49778b907d305c9755b7a733a8abd7fb6da5edba7555fa73d4b64736f6c634300081a0033",
  "linkReferences": {},
  "deployedLinkReferences": {}
}